:1000000087C40000B6C40000B4C40000B2C400003D
:10001000B0C40000AEC40000ACC40000AAC400001C
:10002000A8C400000C94491C0C94491C0C94491C55
:10003000A0C400009EC400009CC400009AC400003C
:1000400098C4000096C4000094C4000092C400004C
:1000500090C400008EC400008CC400000C9469227F
:1000600088C400000C941D130C94F41282C4000088
:1000700080C400007EC400007CC400007AC400007C
:1000800078C4000076C4000074C4000072C400008C
:1000900070C400006EC400006CC400005BC70000A8
:1000A00068C4000066C4000064C4000062C40000AC
:1000B00060C400005EC400005CC400005AC40000BC
:1000C00058C4000056C4000054C4000052C40000CC
:1000D00050C400004EC400004CC400004AC40000DC
:1000E00048C400009525AB25AB25A925AB25932554
:1000F000AB25AB25AB258725AB25AB259C25A725B7
:10010000A525AB25AB25AB25A3258F2192218121E8
:1001100085218B21C92196219A21A021A421A821E2
:10012000AE21B221B621C921BC21C021C421323067
:100130003A33353A3130004E6F7620323320323048
:10014000313600525443204C4F535420504F5745A2
:1001500052210061742B636D6764613D2264656C9C
:1001600020616C6C220A0D0041542B434D47523DD7
:100170000041542B434D47463D310D00534D530034
:100180002059454152004D4F4E54480020204441D3
:10019000590020204D494E0020484F5552005345EC
:1001A0005420434C4F434B006578007068006C202E
:1001B000004154480D0A004F4B003B0D0A004154CA
:1001C00044005245534554204F4B00024F4E2100EE
:1001D0000000000000000000000000014F46462122
:1001E0000000000000000000000000004155544FD6
:1001F0002100000000000000000000EB01DB01CB4B
:1002000001350403FB01360403FB01370403FB0142
:10021000380403FB01050E00000000000000390453
:10022000680002FF030000000000003D04600005BC
:100230000E000000000000003F04640002FF030005
:10024000000000000043045C00050E0000000000F8
:10025000000045045400050E0000000000000049A5
:10026000045800020F270000E80300001802D8001D
:100270000003000000000000004D04DC000002004C
:100280000000000000004E04600006660000000050
:100290000000004F0450000666000000000000004F
:1002A00053044C0006630000009DFFFFFF57044805
:1002B0000006630000009DFFFFFF5B044400020096
:1002C000000000000000005F044000020000000089
:1002D0000000000061043C0002000000000000007B
:1002E0000063043800020000000000000000650404
:1002F00034000900000000000000000102000006B8
:10030000630000009DFFFFFF67042C0006630000F0
:10031000009DFFFFFF6B04280009000000000000A3
:100320000000060200000663000000000000006FED
:1003300004200006630000000000000073041C009D
:100340000900000000000000000B020000023B005A
:1003500000000000000077041400021700000000F5
:1003600000000079041000023B00000000000000C3
:100370007B040C000217000000000000007D040850
:1003800000090000000000000000100204005048B6
:100390002048494748205920205B50485D00010013
:1003A00015025048204849474820582020205B2DFE
:1003B0005D00010022025048204C4F572059202058
:1003C000205B50485D0001002F025048204C4F57E1
:1003D0002058202020205B2D5D0001003C02504869
:1003E000204849474820414C205B50485D000100AF
:1003F00049025048204C4F5720414C20205B504828
:100400005D000100560247534D20434F44452D3EA9
:100410000000000000000100630247534D204D4FD3
:1004200044452D3E000000000000010070024558C8
:100430005445524E414C00000000000000000100F5
:100440007D024C494748204C4F57000000000000F7
:10045000000001008A024C494748204849474800AB
:100460000000000000000100970254454D50204C50
:100470004F57202020205B435D000100A40254451B
:100480004D5020484947482020205B435D00010033
:10049000B1024359434C4552204F464620205B53FE
:1004A0005D000100BE024359434C4552204F464671
:1004B00020205B4D5D000100CB024359434C455267
:1004C000204F4E2020205B535D000100D80243598D
:1004D000434C4552204F4E2020205B4D5D000100D3
:1004E000E5024359434C455220434F4E54524F4C22
:1004F00000000100F20246414E204F4646202020D7
:10050000205B435D00000100FF0246414E204F4E3C
:1005100020202020205B435D000001000C034641A9
:100520004E20434F4E54524F4C000000000001003B
:100530001903484541544552204F464620205B430D
:100540005D0001002603484541544552204F4E208E
:1005500020205B435D000100330348454154455270
:1005600020434F4E54524F4C0000010040034C4971
:10057000474854204F46462020205B4D5D00010037
:100580004D034C49474854204F46462020205B48A5
:100590005D0001005A034C49474854204F4E20202B
:1005A00020205B4D5D00010067034C494748542003
:1005B0004F4E202020205B485D00010074034C4911
:1005C00047485420434F4E54524F4C000000010006
:1005D0008103F203DE03CA03B603A2038E031A04E7
:1005E00006047E046A04560442042E04E204CE0487
:1005F000BA04A60492041E050A05F6045A05460527
:100600003205BE05AA05960582056E05524553457D
:100610005421000000000000000000000200880AD1
:1006200050482D3E000000000000000000000000C7
:100630000006D20547534D2D3E000000000000008B
:10064000000000000002DE0553455420434C4F4398
:100650004B2D3E00000000000200AE06414C41520E
:100660004D205345542D3E00000000000005E205DA
:100670004359434C45522D3E00000000000000004D
:100680000005EC0546414E2D3E0000000000000034
:10069000000000000003F6054845415445522D3E38
:1006A00000000000000000000003FC054C49474822
:1006B000542D3E000000000000000000000502066E
:1006C000AC069806840670065C06480634062006CA
:1006D0000C0600002200250028002B002E0031000F
:1006E000340002010000050108010B010000200098
:1006F0002300260029002C002F00320000010000FA
:100700000301060109010505050507050808080894
:10071000020202020A0A0808040404040101010199
:100720000101010103030303030303030407070794
:100730000C0C0C0C0C0C0C0C020202020606060639
:10074000060606060B0B0B0B0B0B0B0B0102102006
:1007500020080810204010204080020102010804F7
:10076000020101020408102040808040201008048B
:1007700002018004020180402010080402010804E4
:100780000201010204081020408001020408102028
:100790004080526F6F7400000000000000000000F5
:1007A00000000009C0061F1C1F1E1F1E1F1F1E1F4A
:1007B0001E1F00000A0B02090C0D0E08070304019E
:1007C0000000000000000000000000000000000029
:1007D00000000000000000000000000000001211F6
:1007E00010000000000000000000000000000000F9
:1007F000000000000000000000002100240027008D
:100800002A002D003000330001010000040107011F
:100810000A0100407A10F35A00A0724E1809001025
:10082000A5D4E80000E87648170000E40B54020065
:1008300000CA9A3B000000E1F50500008096980090
:10084000000040420F000000A086010000001027B9
:1008500000000000E8030000000064000000000049
:100860000A00000000000100000000002C76D8887B
:10087000DC674F0823DFC1DFAE59E1B1B796E5E38E
:10088000E453C63AE651997696E8E6C28426EB89A7
:100890008C9B62ED407C6FFCEFBC9C9F40F2BAA544
:1008A0006FA5F490055A2AF75C936B6CF9676DC1DC
:1008B0001BFCE0E40D47FEF520E6B500D0ED902EE0
:1008C0000300943577050080841E080000204E0A3E
:1008D000000000C80C333333330F986E128311417C
:1008E000EF8D2114893BE65516CFFEE6DB18D18447
:1008F0004B381BF77C1D901DA4BBE424203284726E
:100900005E228100C9F124ECA1E53D275B334D3324
:1009100011241FBECFEFD1E2DEBFCDBF00E00CBF80
:1009200013E0A0E0B2E0E4EEFAE700E00BBF02C0A3
:1009300007900D92A238B107D9F727E0A2E8B3E0FB
:1009400001C01D92AA38B207E1F714E0C7E8D4E06D
:1009500000E006C021970109802FFE010E94D735D3
:10096000C638D10780E00807A9F70E94B3220C948B
:10097000613D46CB9091800480917F04981750F49C
:10098000E92FF0E0EB57FB4F208130E09F5F909321
:10099000800402C02FEF3FEFC901089580917F04CA
:1009A00090E020918004821B9109089585ED809349
:1009B000BC008091BC0084FDFCCF1092CB04089554
:1009C0004091F003262F30E0240F311D21323105F4
:1009D000DCF42091CB042430C9F4FC0180E090E0E9
:1009E000861758F43091F0032191DC01A253BC4FDB
:1009F000A30FB11D2C930196F3CF8091F003680FE4
:100A00006093F00380E0089581E0089582E0089506
:100A1000CF92DF92EF92FF920F931F93CF93DF93CA
:100A20007C01262F972F8A0180918404882391F0DE
:100A3000C62FD72F6E01C40ED51ECC15DD0569F06B
:100A40006991D701ED91FC910190F081E02DC701F2
:100A50001995F3CF642F822FB3DFC801DF91CF91B7
:100A60001F910F91FF90EF90DF90CF900895CF935B
:100A7000DF931F92CDB7DEB76983209184042223D0
:100A8000D1F020918104203240F021E030E0FC01DF
:100A90003383228380E090E014C080918204E82FA9
:100AA000F0E0EB5EFB4F998190838F5F809382042F
:100AB0008093810404C061E0CE01019681DF81E072
:100AC00090E00F90DF91CF9108950895CF93C62FB6
:100AD000482F50E060E070E02AE083EC95E00E944F
:100AE000AB12CC2311F06DE401C061E483EC95E01E
:100AF000CF910C946B128091D906811110C0809116
:100B0000CB0681110CC08091BD06811108C0809177
:100B1000AF06811104C08091A106882321F0809145
:100B20009F03882329F083EC95E00E9438190BC0BD
:100B3000E091C305F091C4050084F185E02D60E0EB
:100B400083EC95E0199560E080E00E94BE158091ED
:100B5000D806882331F080919F03882331F06BE21F
:100B60000BC08091CA06811102C060E205C080916D
:100B70009F038823D1F36DE283EC95E00E946B1212
:100B800064E783EC95E00E946B126091970370918B
:100B900098038091990390919A030E94AC36675F05
:100BA0007F4F6331710528F460E383EC95E00E9488
:100BB0006B12409197035091980360919903709143
:100BC0009A0383EC95E00E94F71560E086E00E94AE
:100BD000BE156DE673E083EC95E00E94F312609120
:100BE0009703709198038091990390919A030E94C2
:100BF000AC36675F7F4F6331710528F460E383ECA7
:100C000095E00E946B124091930350919403609180
:100C100095037091960383EC95E00E94F71560E0D0
:100C20008AE00E94BE1560E283EC95E00E946B12A0
:100C30008091DD068A3028F460E383EC95E00E9421
:100C40006B124091DD0650E060E070E02AE083EC3A
:100C500095E00E94AB1280919F03882341F0809120
:100C6000A006882311F061E203C06AE301C060E2DC
:100C700083EC95E00E946B128091DE068A3028F4A6
:100C800060E383EC95E00E946B124091DE0650E039
:100C900060E070E02AE083EC95E00E94AB1261E036
:100CA00080E00E94BE158091BC06882341F08091AF
:100CB0009F03882311F06BE221C060E21FC0809186
:100CC000AE06882331F080919F038823B1F36DE253
:100CD00015C020914F04309150044091510450911F
:100CE000520460918F0370919003809191039091D1
:100CF00092030E94DD36181604F76AE283EC95E051
:100D00000E946B1265EB72E083EC95E00E94F31297
:100D10006091380480918E03D9DE64EF72E083EC39
:100D200095E00E94F3126091370480918D03CEDE2E
:100D300067EF72E083EC95E00E94F3126091360455
:100D400080918C03C3DE6AEF72E083EC95E00E9431
:100D5000F3126091350480918B03B8CECF93DF936B
:100D600000D000D0CDB7DEB710927B0582E090E0D6
:100D700090939E0380939D03CE0101960E94521A88
:100D800086E0FE013196A0EEB6E001900D928A95C4
:100D9000E1F710929C0310929B031092870310922C
:100DA00088031092890310928A031092860383ECC1
:100DB00095E00E94401926960FB6F894DEBF0FBE4C
:100DC000CDBFDF91CF910895CF92DF92EF92FF9246
:100DD0000F931F93CF93DF931F921F92CDB7DEB770
:100DE0008C01790183EC95E04A8369830E9438196C
:100DF00069814A81842F0E94BE156801C601801B4B
:100E0000910B8E159F0564F4F60161916F018FEDD2
:100E1000860F8E3508F060E283EC95E0E9D7EECFDF
:100E20000F900F90DF91CF911F910F91FF90EF9056
:100E3000DF90CF9008952091810490918304213216
:100E400008F04AC08091CB048111FCCF32E030938E
:100E5000CB0431E03093CA043FEF3093C9041092C1
:100E6000C8042093C704A5E1B4E045EA54E0FA01C0
:100E70003E2F341B321718F43D913193F9CF109265
:100E8000C6042091C604990F922B9093C6049091AA
:100E9000C504913061F41092C5049091C6049093FA
:100EA000BB009091BC0093FDF8CF95EC01C095EE8E
:100EB0009093BC009091CB049230E1F39091C904DF
:100EC0009F3F79F08091C904803241F08091C9043C
:100ED000803331F084E005C081E003C082E001C0CE
:100EE00083E0109282041092810410928404089589
:100EF000862F413208F040E2642F0E94571510926D
:100F0000800480937F0408951092800410927F04DF
:100F100010928204109281041092CB0481E080939D
:100F2000CA041092C50461E084E10E94202161E0BE
:100F300085E10E942021E9EBF0E080818E7F8083B3
:100F400080818D7F808388E48093B80085E48093DE
:100F5000BC0008951F920F920FB60F9211240BB68A
:100F60000F922F933F934F935F936F937F938F9342
:100F70009F93AF93BF93EF93FF938091B900887FC6
:100F8000803609F49CC068F5883209F45BC090F49F
:100F9000803109F454C038F4882309F4F6C088304D
:100FA00009F44DC0F5C0883109F44CC0803209F411
:100FB0005DC0EEC0803409F468C048F4803309F4A1
:100FC00055C0883309F0E4C08093C904D8C0803587
:100FD00009F44FC0883509F45DC0883409F0D8C0E1
:100FE000D6C0883909F4C7C0A8F4883709F467C0A7
:100FF00038F4883609F463C0803709F460C0C8C08B
:10100000883809F4B8C0803909F45FC0803809F025
:10101000BFC05BC0803B09F486C038F4803A09F455
:1010200066C0883A09F47FC0B3C0803C09F4A7C009
:10103000883C09F4A4C0883B09F48AC0A9C0809107
:10104000C60410C09091C8048091C704981770F529
:10105000E091C80481E08E0F8093C804F0E0EB5566
:10106000FB4F80818093BB0085EC86C08093C904D0
:101070008EC0E091C80481E08E0F8093C8048091F7
:10108000BB00F0E0EB55FB4F80839091C80480914A
:10109000C7046EC0E091C80481E08E0F8093C8043D
:1010A0008091BB00F0E0EB55FB4F80838091CA0438
:1010B00081116DC081E08093C50484EA61C083E042
:1010C0008093CB0410921404CFCF8091140480320B
:1010D00008F051C0E091140481E08E0F8093140455
:1010E0008091BB00F0E0EC50FC4F8083BDCF85ECDD
:1010F0008093BC001092CB0480911404803230F4B1
:10110000E0911404F0E0EC50FC4F10826091140464
:1011100070E0E091F203F091F30384EF93E019950E
:101120001092140435C084E08093CB041092F10334
:101130001092F003E091EE03F091EF031995809186
:10114000F003811105C081E08093F0031092CE037B
:10115000E091F10381E08E0F8093F103F0E0E25320
:10116000FC4F80818093BB009091F1038091F0034C
:10117000981708F479CF85E88093BC0009C085EC06
:101180008093BC001092CB0403C01092C9040EDC03
:10119000FF91EF91BF91AF919F918F917F916F914F
:1011A0005F914F913F912F910F900BBE0F900FBE0B
:1011B0000F901F90189544E00C94121A42E00C9482
:1011C000121A44E00C94EB1942E00C94EB1941E044
:1011D0000C94121A662321F081E0623009F080E05D
:1011E0000895CF92DF92EF92FF920F931F93CF93C8
:1011F000DF9300D01F92CDB7DEB71092380486E09F
:1012000090E090937E0480937D0410927C04109271
:101210007B0486E190E090937A04809379041092A5
:1012200078041092770468E374E084E090E0CFDF04
:101230006DE774E088E090E0C1DF6BE774E08CE07C
:1012400090E0BCDF69E774E080E190E0B7DF67E73A
:1012500074E084E190E0B2DF1092370410927304DE
:10126000109274041092750410927604C12CD12C43
:1012700088EAE82E81E4F82EC0926F04D0927004C0
:10128000E0927104F092720467E374E088E190E008
:101290009EDF63E774E08CE190E08DDF6FE674E041
:1012A00080E290E088DF1092360480E090E0A8EBC6
:1012B000B1E480936B0490936C04A0936D04B0939D
:1012C0006E048093670490936804A0936904B093BC
:1012D0006A0466E374E084E290E079DF6BE674E030
:1012E00088E290E068DF67E674E08CE290E063DF1C
:1012F0001092350410926604109265048EE190E01D
:1013000090936404809363041092620410926104C9
:101310009093600480935F0465E374E080E390E061
:1013200056DF65E674E084E390E048DF63E674E04E
:1013300088E390E043DF61E674E08CE390E03EDF19
:101340006FE574E080E490E039DFC0925B04D092F6
:101350005C04E0925D04F0925E0480E090E0A8E915
:10136000B1E48093570490935804A0935904B09328
:101370005A0480E090E0A0E2B2E48093530490939A
:101380005404A0935504B093560480E090E0A0E785
:10139000B2E480934F0490935004A0935104B0930F
:1013A00052046BE574E084E490E005DF67E574E0E7
:1013B00088E490E000DF63E574E08CE490E0FBDE1D
:1013C0006FE474E080E590E0F6DE8FE892E09093C1
:1013D00044048093430480E192E090933E04809320
:1013E0003D048CEE91E5A0E8B0E480933F04909337
:1013F0004004A0934104B093420480E090E0A0EE4A
:10140000B0E48093390490933A04A0933B04B093E2
:101410003C041092490410924A0410924B0410921A
:101420004C0480E090E0A0E6B1E480934504909302
:101430004604A0934704B093480469E474E088E547
:1014400090E0B9DE65E474E084E590E0B4DE42E06B
:1014500063E474E08CE590E00E94121A42E06DE3D0
:1014600074E080E690E00E94121A6FE374E084E674
:1014700090E0A1DE69E374E088E690E09CDE1A82E9
:10148000198242E0BE016F5F7F4F80EE90E00E94C4
:10149000121A80E38C8308EC10E041E0BE016C5F1F
:1014A0007F4FC8010E94121A0F5F1F4F073D1105A1
:1014B000A1F71B8241E0BE016D5F7F4F87ED90E099
:1014C0000E94121A10924D048FE097E29093190235
:1014D000809318026DE474E08CED90E078DE68E1B2
:1014E00072E088ED90E06ADE10924E046EE474E0E3
:1014F00080E690E06CDE0F900F900F900F90DF91E0
:10150000CF911F910F91FF90EF90DF90CF900895B2
:1015100068DE83EC95E00E94401960E080E00E9464
:10152000BE1562EC71E083EC95E0DCD768EE73E009
:1015300080E090E00C942522EF92FF920F931F938E
:10154000CF93DF931F921F92CDB7DEB78C017B0143
:1015500042E0BE016F5F7F4F80EE90E00E94EB198A
:1015600029813A8121503109283031051CF43A8310
:10157000298302C01A82198268E070E09B01201B57
:10158000310B89819A81820F931F0E94A2359A8321
:10159000898300E010E0B701600F711F89819A8193
:1015A00024E0880F991F2A95E1F78C519F4F41E065
:1015B000800F911F0E94EB190F5F1F4F0031110523
:1015C00051F7F701108A0F900F90DF91CF911F9183
:1015D0000F91FF90EF900895CF92DF92EF92FF92DC
:1015E0000F931F93CF93DF931F921F92CDB7DEB758
:1015F0008C01F62E80917306803309F43EC081E39E
:1016000068133BC08091870690918806A091890657
:10161000B0918A06892B8A2B8B2B79F580914D040A
:10162000823058F163E48CEC94E055D767EA72E0BD
:101630008CEC94E07BD7C0908306D09084066EEB50
:1016400071E086EE96E04ED7B60186EE96E0CBD7F7
:101650006AEB71E086EE96E045D78091A003909109
:10166000A103A091A203B091A30380938706909356
:101670008806A0938906B0938A068091DC066801EB
:101680008A3048F4EFEFCE1ADE0A4AE0B80180E073
:1016900090E00E946B398091DC064AE0B60190E050
:1016A0000E946B398FE2F8018283B8016D5F7F4F32
:1016B0008091DB068A3040F44AE080E090E00E94AE
:1016C0006B39C8010496BC018091DB064AE090E0CA
:1016D0000E946B3980E2F8018583B8016A5F7F4F11
:1016E0008091DD068A3040F44AE080E090E00E947C
:1016F0006B39C8010796BC018091DD064AE090E095
:101700000E946B398AE3F8018087B801675F7F4FD9
:101710008091DE068A3040F44AE080E090E00E944A
:101720006B39C8010A96BC018091DE064AE090E060
:101730000E946B3980E2F8018387F78642E0BE01A0
:101740006F5F7F4F80EE90E00E94EB1989819A8154
:10175000089714F01A821982E12CF12CB8016E0D51
:101760007F1D89819A8124E0880F991F2A95E1F7CE
:101770008C519F4F41E08E0D9F1D0E94121AFFEF6A
:10178000EF1AFF0A80E1E816F10441F789819A8196
:10179000019668E070E00E94A2359A83898342E056
:1017A000BE016F5F7F4F80EE90E00E94121A898128
:1017B0009A810F900F90DF91CF911F910F91FF9021
:1017C000EF90DF90CF900895CF93DF93EC016BD72C
:1017D0008E859F858130910589F18230910581F157
:1017E0008430910579F1089779F18C859D85813058
:1017F000910561F18230910559F18430910551F1E3
:10180000089751F18A859B858130910539F18230A5
:10181000910531F18430910529F1089729F18885E6
:1018200099858130910511F18230910509F184305B
:10183000910501F1089701F180E01FC08AE21DC007
:1018400087E31BC084E319C081E317C080E315C0A0
:1018500088E313C085E311C082E30FC083E20DC0AB
:1018600089E30BC086E309C083E307C084E405C0B5
:1018700083E403C082E401C081E4DF91CF91089545
:10188000CF92DF92EF92FF920F931F93CF93DF934C
:10189000EC0109D72E853F8588859985243031054F
:1018A00009F049C04C855D854830510519F421E0A7
:1018B000209338042A853B852830310519F462E0ED
:1018C000609338048830910511F410923804443044
:1018D000510519F461E0609337042430310519F49F
:1018E00062E0609337048430910511F4109237045C
:1018F0004230510519F461E060933604223031051D
:1019000019F462E0609336048230910511F410926C
:1019100036044130510519F441E04093350421303B
:10192000310519F422E020933504019709F055C0E0
:101930001092350452C08E0101581F4F892B51F46B
:101940008A859B85892B31F48C859D85892B11F4A3
:10195000232BA1F1F80180819181A281B381892B90
:101960008A2B8B2B39F40E945D22F80160837183EE
:1019700082839383F801C080D180E280F380F4EF0A
:10198000CF0EF1E0DF1EE11CF11C0E945D226C1500
:101990007D058E059F05B8F4F801C080D180E280F6
:1019A000F380F8ECCF0ED11CE11CF11C0E945D22EB
:1019B000C616D706E806F90630F40FC0F801108203
:1019C000118212821382CE01DF91CF911F910F916C
:1019D000FF90EF90DF90CF90F7CE80E0DF91CF9136
:1019E0001F910F91FF90EF90DF90CF900895FC0131
:1019F000E45BFF4F8081918143DF813459F0823471
:101A000061F0843469F0833271F08A3279F080E0D9
:101A100090E0089583E090E0089584E090E00895D8
:101A200081E090E0089582E090E0089585E090E004
:101A30000895CF92DF92EF92FF920F931F93FC01D4
:101A4000662381F18485882389F1448155816681EB
:101A50007781C090A003D090A103E090A203F09002
:101A6000A303452B462B472B21F4C482D582E68263
:101A7000F78242855385052E000C660B770B048197
:101A8000158126813781400F511F621F731F4C152E
:101A90005D056E057F0550F414861482158216824A
:101AA000178205C0148215821682178280E01F916A
:101AB0000F91FF90EF90DF90CF9008950F931F93B9
:101AC000FC01662391F18485811133C0808191816D
:101AD000A281B3810091A0031091A1032091A203E0
:101AE0003091A303892B8A2B8B2B21F40083118344
:101AF0002283338380859185092E000CAA0BBB0BB2
:101B00004081518162817381840F951FA61FB71F89
:101B100080179107A207B30760F481E08487858767
:101B2000108211821282138205C0108211821282E9
:101B3000138280E01F910F9108950895CF92DF9254
:101B4000EF92FF920F931F93CF93DF936C017A0173
:101B50008B01C0E0D0E0CE15DF0589F0D8016D9192
:101B60008D01D601ED91FC910190F081E02DC6012F
:101B70001995892B11F47E0102C02196ECCFC70183
:101B8000DF91CF911F910F91FF90EF90DF90CF9059
:101B90000895FC01918D828D981761F0828DDF018F
:101BA000A80FB11D5D968C91928D9F5F9F73928F50
:101BB00090E008958FEF9FEF0895FC01918D828D45
:101BC000981731F0828DE80FF11D858D90E0089512
:101BD0008FEF9FEF0895FC01918D228D892F90E06A
:101BE000805C9F4F821B91098F73992708958CEC1D
:101BF00094E0F1DF21E0892B09F420E0822F0895A1
:101C0000FC01848DDF01A80FB11DA35ABF4F2C9199
:101C1000848D90E001968F739927848FA689B78968
:101C20002C93A089B1898C9180648C93938D848D41
:101C3000981306C00288F389E02D80818F7D808310
:101C40000895EF92FF920F931F93CF93DF93EC01D0
:101C500081E0888F9B8D8C8D981305C0E889F98968
:101C6000808185FD23C0F62E0B8D10E00F5F1F4F86
:101C70000F731127E02E8C8DE8120BC00FB607FCF6
:101C8000FACFE889F989808185FFF5CFCE01B8DFE9
:101C9000F2CF8B8DFE01E80FF11DE35AFF4FF0826A
:101CA0000B8FEA89FB898081806207C0EE89FF89FA
:101CB0006083E889F98980818064808381E090E095
:101CC000DF91CF911F910F91FF90EF900895CF93E7
:101CD000DF93EC01888D8823C1F0EA89FB8980813C
:101CE00085FD05C0A889B9898C9186FD0EC00FB607
:101CF00007FCF5CF808185FFF2CFA889B9898C9147
:101D000085FFEDCFCE017CDFE8CFDF91CF91089545
:101D100080E090E0892B19F06ADF811125C080E016
:101D200090E0892B41F080E090E0892B21F00E9427
:101D3000000081111CC080E090E0892B41F080E020
:101D400090E0892B21F00E940000811113C080E0F7
:101D500090E0892BA1F080E090E0892B81F00E9437
:101D6000000081110AC008950E940000D8CF0E948F
:101D70000000E1CF0E940000EACF0C94000008951B
:101D8000DC0126E0629FA00DB11D112490965C93AA
:101D90004E935F9721E091962C939197FC01E45923
:101DA000FF4F208131960190F081E02D222331F008
:101DB000309749F0611107C0DC0102C0309719F07B
:101DC0005C968C911994089521E001C0220F6A95C8
:101DD000EAF7DC011C962C931C971A965C934E93A1
:101DE0001997ED91FC910084F185E02D60E0199444
:101DF000DC01ED91FC910284F385E02D41E0199521
:101E000081E090E008950E94F6380F931F93CF93DE
:101E1000DF93EC010E945D22688779878A879B8720
:101E2000E881F9810680F781E02DCE01199597FFB1
:101E300017C00E945D22088519852A853B85DC0133
:101E4000CB01801B910BA20BB30B0C811D812E814A
:101E50003F8180179107A207B30710F38FEF9FEF21
:101E6000DF91CF911F910F9108956F927F928F9282
:101E70009F92AF92BF92CF92DF92EF92FF921F9309
:101E8000CF93DF931F92CDB7DEB73C01162FFC0135
:101E900086E0689FE00DF11D112411A2878D90A1AD
:101EA00081309105F1F01CF4892B51F04DC0823046
:101EB0009105A9F1039709F047C040E050E033C015
:101EC000442309F441C041E050E0C30159DF0E94BE
:101ED0005D22F301E85AFF4F60837183828393830D
:101EE00033C049830E945D22F301E85AFF4FC0804E
:101EF000D180E280F3804B015C018C189D08AE0814
:101F0000BF08729680819181A0E0B0E04981881578
:101F10009905AA05BB0518F442E050E004C0411140
:101F200013C043E050E0612FC3010F90DF91CF91C8
:101F30001F91FF90EF90DF90CF90BF90AF909F9058
:101F40008F907F906F901CCF0F90DF91CF911F915A
:101F5000FF90EF90DF90CF90BF90AF909F908F90C9
:101F60007F906F900895862F0C94F820862F642F11
:101F70000C942021862F642F0C94CA21CF92DF92DB
:101F8000EF92FF920F931F93CF93DF9301E010E046
:101F900002C0000F111F6A95E2F77C012FE6E20EE6
:101FA000F11C6C01ECE7CE0ED11CF601408150E033
:101FB0003197608170E0C7010E947807C7010E94D5
:101FC000BA04EC01F6018081823040F0C7010E9422
:101FD000BA0420E030E0382FC22BD32BC023D1230A
:101FE00081E090E0C017D10711F080E090E0DF9130
:101FF000CF911F910F91FF90EF90DF90CF900895B8
:10200000CF92DF92EF92FF920F931F93CF93DF93C4
:102010008C0181E090E002C0880F991F6A95E2F779
:10202000E801C358DF4F442329F028813981822BEE
:10203000932B06C080959095288139818223932324
:1020400099838883C880D980F801E558FF4F808143
:1020500078019FE6E90EF11C91E09093840480934F
:1020600083041092820410928104D701ED91FC91B7
:102070000190F081E02D6C2DC7011995F801E4580D
:10208000FF4F8081823048F0D701ED91FC910190A3
:10209000F081E02D6D2DC7011995C7010E941B0726
:1020A000C882D982DF91CF911F910F91FF90EF905D
:1020B000DF90CF900895EF92FF920F931F93CF93ED
:1020C0008C01FC01759684E0C0E060FF02C0908145
:1020D000C92B6695815031968111F7CF413011F4AB
:1020E000F8014489F8018585C82BC42B7801FEE0EE
:1020F000EF0EF11CF80162896C2BC7010E94C51913
:10210000F801628960956C23C701CF911F910F91EF
:10211000FF90EF900C94C5190F931F93CF93DF930B
:10212000062F0F70423019F440E0602F0FC0142FBB
:10213000262FEC0130E0B90184E0759567958A950A
:10214000E1F7CE01B8DF412F602FCE01DF91CF91B3
:102150001F910F91B0CFFC0184858823A9F02185C0
:1021600032852115310519F4611106C007C02130EF
:10217000310521F4611102C0858701C0158665858E
:10218000CF010E960C94C5190895FF920F931F93DB
:10219000CF93DF93EC01162F042FF22E8B85888BC3
:1021A00089E695E00E948407888991E090938404F1
:1021B00080938304109282041092810489E695E052
:1021C0000E941B0791E0811190E0998B992329F0DF
:1021D00089E695E00E94BA048E878989882339F0C0
:1021E0001F861C8260E0CE010E960E94C5192F2D1D
:1021F000402F612FCE01DF91CF911F910F91FF9062
:102200000C944719CF93DF93FC0124813581232B54
:1022100071F0FB01DC01CD91DC9160817181CE0117
:102220000E942939009719F08C1B9D0B02C08FEF7B
:102230009FEFDF91CF910895FC01248135816217D2
:10224000730748F480819181009729F0FC01E60F23
:10225000F71F8081089580E008950F931F93CF9317
:10226000DF938C01EB018617970771F1FC018081E8
:1022700091810097B1F0688179816115710579F0DC
:10228000428153812C813D814217530740F00E94C7
:1022900013398C819D81F8019583848313C00E943A
:1022A0007A3788819981F801918380838A819B8123
:1022B000938382838C819D81958384831982188284
:1022C0001B821A821D821C82C801DF91CF911F914F
:1022D0000F9108950F931F93CF93DF93EC018881A3
:1022E0009981009729F02A813B812617370788F4C6
:1022F0008B016F5F7F4F0E941238009761F09983C6
:1023000088831B830A832C813D81232B11F4FC01DC
:10231000108281E001C080E0DF91CF911F910F9189
:102320000895CF93DF93EC0188819981009711F094
:102330000E947A37198218821D821C821B821A829F
:10234000DF91CF910895EF92FF920F931F93CF9358
:10235000DF93EC017B018A01BA01BCDF811103C06C
:10236000CE01DFDF07C01D830C83B701888199810F
:102370000E941339CE01DF91CF911F910F91FF90F1
:10238000EF900895FC01808191810C947A37FC01D3
:1023900011821082138212821582148261157105D6
:1023A00049F0FB0101900020E9F73197AF01461B8E
:1023B000570BC9CF0895BF92CF92DF92EF92FF9251
:1023C0000F931F93CF93DF937C016B01EA01890187
:1023D0002417350720F48D2FE901042F182F69EAFF
:1023E00072E0C701D4DFD60114968D919C911597A8
:1023F000C817D90738F58017910708F48C01D60162
:10240000ED91FC911197E00FF11FB08010824D917A
:102410005C91BA016C0F7D1F6115710559F0FB01CC
:1024200001900020E9F73197AF01461B570BC70118
:102430008ADF02C0C70175DFD601ED91FC91E00F84
:10244000F11FB082C701DF91CF911F910F91FF90D3
:10245000EF90DF90CF90BF900895CF92DF92EF92F0
:10246000FF920F931F93CF93DF931F921F92CDB7CD
:10247000DEB78C016B0169EA72E089DFC601C5DC59
:1024800097FD1DC089831A82F801E480F580FFEF73
:10249000EF1AFF0AB701C8011DDF882379F3F8019D
:1024A0002081318184819581BE016F5F7F4F820FD2
:1024B000931F0E941339F801F582E482DFCFC8012F
:1024C0000F900F90DF91CF911F910F91FF90EF90A0
:1024D000DF90CF900895DC01ED91FC910190F081A7
:1024E000E02D1994EF92FF920F931F93CF93DF93F8
:1024F0008C017B01C0E0D0E0F701EC0FFD1F64917F
:10250000662361F0D801ED91FC910190F081E02DFE
:10251000C8011995892B11F02196EECFCE01DF91DC
:10252000CF911F910F91FF90EF9008956115710564
:1025300079F0FB0101900020E9F73197AF01461BCC
:10254000570BDC01ED91FC910280F381E02D199491
:1025500080E090E008954F925F926F927F92EF92A9
:10256000FF920F931F93CF93DF93CDB7DEB7A19761
:102570000FB6F894DEBF0FBECDBF7C01FA01CB01D0
:1025800019A2223008F42AE08E010F5D1F4F422E5F
:10259000512C612C712CBF01A30192010E94B53511
:1025A000F901CA01015011096A3014F4605D01C0DB
:1025B000695CD8016C93232B242B252B61F7B80180
:1025C000C701B4DFA1960FB6F894DEBF0FBECDBF32
:1025D000DF91CF911F910F91FF90EF907F906F90BF
:1025E0005F904F900895A2CF1F920F920FB60F9257
:1025F00011240BB60F922F933F934F935F936F93DA
:102600007F938F939F93AF93BF93EF93FF938CEC44
:1026100094E0F6DAFF91EF91BF91AF919F918F9186
:102620007F916F915F914F913F912F910F900BBED2
:102630000F900FBE0F901F9018951F920F920FB61C
:102640000F9211240BB60F922F938F939F93EF93BA
:10265000FF93E091DC04F091DD048081E091E204DD
:10266000F091E30482FD12C090818091E5048F5FB8
:102670008F732091E604821751F0E091E504F0E0B9
:10268000E453FB4F958F8093E50401C08081FF9157
:10269000EF919F918F912F910F900BBE0F900FBED6
:1026A0000F901F9018952F923F924F925F926F92CA
:1026B0007F928F929F92AF92BF92CF92DF92EF92D2
:1026C000FF920F931F93CF93DF93CDB7DEB72A9777
:1026D0000FB6F894DEBF0FBECDBF9A8789870E94E0
:1026E0005D2229853A85245A3F4F3A832983D901AF
:1026F0000D911D912D913C91AB01BC01401B510BE3
:10270000620B730BE985FA85E859FF4F808191814F
:10271000A0E0B0E010E084179507A607B70708F01F
:102720005EC169847A84F6E66F0E711CE984FA84CE
:1027300022E6E20EF11CD3018C911817A0F4E98572
:10274000FA8580819181F701A081B181A10FB11D2E
:10275000FC012081318142E06C9189859A85F901E3
:1027600019951F5FE8CF10E029843A84B7E62B0E55
:10277000311CE984FA84E4E6EE0EF11C812C912CE4
:102780005401839429853A852E593F4F3C832B83EE
:10279000F1018081181708F08DC0C12ED12CA985B8
:1027A000BA858D919C91F701A081B181AC0DBD1DC1
:1027B000FC012081318141E06C9189859A85F90184
:1027C0001995A985BA858D919C91F701A081B18158
:1027D000AC0DBD1DFC012281338140E06C918985E7
:1027E0009A85F9011995D501C401012E04C0880FFD
:1027F000991FAA1FBB1F0A94D2F7AC019C01209518
:10280000309500E0F3018081A985BA85ED91FC91B6
:10281000081770F5802F90E0AB81BC816D917C91A1
:102820002C01DB01A40DB51D0480F581E02D6C9118
:1028300089859A852F8338874D835E831995440C4B
:10284000551C2F8138854D815E81E985FA85E40D1F
:10285000F51D892B29F480859185842B952B04C047
:102860008085918582239323918780870F5FCACFCC
:10287000D7018D919C91DC01AC0DBD1D0280F381CF
:10288000E02D41E06C9189859A851995A985BA85D5
:10289000ED91FC91D7018D919C91DC01AC0DBD1D9A
:1028A0000190F081E02D40E06C9189859A85199521
:1028B0001F5F6ECFE984FA84FCE1EF0EF11C89857D
:1028C0009A85885A9F4FF7012FEF3FEF438154813C
:1028D000452B21F410823283218315823696E81726
:1028E000F907A1F7B12CC984DA8420E6C20ED11C05
:1028F00086E0A82EF3018081B81608F058C0912C0C
:1029000009851A850B0D111D0B0D111D085F1F4F39
:10291000D1018C91981608F048C0D8014D915C9176
:10292000092C02C0569547950A94E2F74170552745
:10293000B89EC0011124890D911DD601ED91FC9125
:10294000E80FF91FA081E985FA8560E0258D368DB5
:102950002817390721F4417089859A851CC06F5F5B
:1029600036966A3099F7452BF1F0F70160E070E098
:102970002081211112C0A69EF001A79EF00D112406
:1029800029853A85E20FF31FA48F968F858F10A2B9
:10299000178E41E0C90169DA06C06F5F7F4F369636
:1029A0006A30710529F79394B3CFB394A3CFE98527
:1029B000FA85B19689859A85835A9F4F10E02081C8
:1029C000211111E03696E817F907C9F70E945D2238
:1029D000A981BA816D937D938D939C931397812FD9
:1029E0002A960FB6F894DEBF0FBECDBFDF91CF9110
:1029F0001F910F91FF90EF90DF90CF90BF90AF901D
:102A00009F908F907F906F905F904F903F902F900E
:102A100008958F929F92AF92BF92CF92DF92EF92E2
:102A2000FF92CF93DF93A0916606882311F03A2F8F
:102A300001C030E08091670690E0880F991F8451B3
:102A4000994FC0906C06D0906D06E0906E06F090A5
:102A50006F0640E050E0BA01FC01C591D491288195
:102A60002A2323130FC04A015B012FEF821A920A17
:102A7000A20AB20A4C155D056E057F0538F4B50152
:102A8000A401EACF342F252FCB0104C030E020E091
:102A900080E090E0632F722FDF91CF91FF90EF9055
:102AA000DF90CF90BF90AF909F908F9008959091BE
:102AB000CB049111FCCF91E09093CB049093CA0486
:102AC0002FEF2093C9041092C804260F2093C70447
:102AD0009093C6049091C604880F892B8093C604F6
:102AE0008091C504813061F41092C5048091C604C0
:102AF0008093BB008091BC0083FDF8CF85EC01C0C2
:102B000085EE8093BC008091CB048130E1F380910D
:102B1000C804861710F46091C804A5EAB4E025E85B
:102B200034E0F9018E2F821B861718F48D91819362
:102B3000F9CF862F0895FF920F931F93CF93DF93C2
:102B4000F82E0AE010E0C0E0D0E08F2D0E940622AF
:102B5000C80FD91F01501109C1F7CE016AE070E01A
:102B60000E94A235072E000C880B990B0E94383C5E
:102B7000DF91CF911F910F91FF900895CF93DF9335
:102B8000CDB7DEB728970FB6F894DEBF0FBECDBF26
:102B90001D8290E49E8324E12F8324E528871982F7
:102BA0009A8390E19B8390E59C839091CA05691775
:102BB00010F06FEF690F4091CB05262F30E0FE013A
:102BC000E20FF31F403121F4943011F4918101C0E0
:102BD0009581682F690F606883EC95E028960FB6A1
:102BE000F894DEBF0FBECDBFDF91CF9139C38F9276
:102BF0009F92AF92BF92CF92DF92EF92FF920F938C
:102C00001F93CF93DF93EC016A017B019A01AB0123
:102C1000C701B6010E94E136882319F060E773E02E
:102C200027C046015701E894B7F82FEF3FEF4FE771
:102C30005FE7C501B4010E94E13681110DC02FEF9D
:102C40003FEF4FE75FE7C501B4010E94323C181621
:102C50001CF464E773E00CC02FEF3FEF4FE75FE435
:102C6000C701B6010E94DD36181684F468E773E0E8
:102C7000CE01DF91CF911F910F91FF90EF90DF90E8
:102C8000CF90BF90AF909F908F9050CC2FEF3FEFA1
:102C90004FE75FECC701B6010E94323C87FDE6CFEB
:102CA00020E030E0A901C701B6010E94323C87FF55
:102CB00009C06DE2CE010FDC8C01F7FAF094F7F851
:102CC000F09402C000E010E02AE037ED43EA5BE355
:102CD000C701B6010E94E0356B017C010E94B1364C
:102CE0004B015C010E94363C9B01AC01C701B6015F
:102CF0000E94DF356B017C012AE0B501A401CE0101
:102D00002ADC080F191F6CE773E0CE010FDC080FF7
:102D1000191F20E030E040E251E4C701B6010E94F3
:102D2000973C4B015C010E94B1366B01E12CF12C08
:102D30002AE0B701A601CE010EDC080F191FC7015A
:102D4000B6010E94363C9B01AC01C501B4010E9452
:102D5000DF3520E030E040E251E40E94973C0E94E1
:102D6000B136AB0160E070E02AE0CE01F4DB800F09
:102D7000911FDF91CF911F910F91FF90EF90DF9006
:102D8000CF90BF90AF909F908F900895CF93DF9397
:102D9000BC018CEC94E0A6DBEC0167EA72E08CEC01
:102DA00094E0C4DB8C0F9D1FDF91CF91089581E0EB
:102DB0008093840488E680938304109282041092A6
:102DC00081046FE089E695E00E94370589E695E089
:102DD0000E941B0761E088E66ADE109280048093FF
:102DE0007F0489E695E00C94BA04CF92DF92EF92CB
:102DF000FF920F931F93CF93DF93CDB7DEB7C054ED
:102E0000D1400FB6F894DEBF0FBECDBF0E945D2249
:102E1000009168061091690620916A0630916B0650
:102E20006B017C01C01AD10AE20AF30A40EDC41614
:102E300047E0D406E104F10418F480917006B8C0AC
:102E4000609368067093690680936A0690936B0698
:102E5000109263061092620610926106109260064C
:102E600010925F0661E0809164060E9420216AEF63
:102E700070E080E090E00E94252261E0809164068D
:102E80000E94CA2160E0809164060E94202164E1D2
:102E900070E080E090E00E942522F89461E080914B
:102EA00064060E9420218BE990E00197F1F762E02F
:102EB000809164060E94CA2183E290E00197F1F7B5
:102EC00080E0A7DD672B682B692B21F41092700638
:102ED00078943BC081E09DDD672B682B692BB1F3B3
:102EE0008E010F5F1F4F6E018FEBC81A8EEFD80A4D
:102EF000780180E08EDDF7016083718382839383A4
:102F000081E087DDF7016483758386839783F8E02A
:102F1000EF0EF11CEC14FD0461F7789420E030E032
:102F2000F8014081518162817381C480D580E6803F
:102F3000F780411551056105710529F0C114D104CF
:102F4000E104F10421F41092700680E031C0F9012F
:102F500083E0F595E7958A95E1F7E15AF94F80818D
:102F6000880F4C155D056E057F0508F48160808330
:102F70002F5F3F4F085F1F4F2832310589F62091A0
:102F8000630630E040915F068091600690E0840F18
:102F9000911D40916106840F911D40916206840F3E
:102FA000911D99272817390771F681E080937006E3
:102FB000C05CDE4F0FB6F894DEBF0FBECDBFDF9111
:102FC000CF911F910F91FF90EF90DF90CF900895D8
:102FD000E091A005F091A105309709F019940895AA
:102FE000CF92DF92EF92FF920F931F93CF93DF93D5
:102FF000FC017196C491C1503196C590D490E62ED3
:10300000F12CF701EE0FFF1FEC0DFD1D8591949142
:103010009093800580937F0500E010E0D0E040E1D0
:1030200050E060E270E084EA95E00E94033921E01C
:1030300030E040E050E00115110529F460E070E057
:103040008EE793E004C061E070E080E893E0C0DFC9
:10305000F801EE0DFF1DCE17DF0764F0EE0FFF1F26
:10306000EC0DFD1D6591749140E150E084EA95E01E
:103070000E94623920E130E041E050E0B80184EA8A
:1030800095E0A6DF0130110519F001E010E0C7CF8F
:10309000DF91CF911F910F91FF90EF90DF90CF9034
:1030A0000895089508952091840330918503281789
:1030B000390771F49091820380918303981741F04E
:1030C000E0918203F0E0E35CF84F808190E00895A6
:1030D0008FEF9FEF089508951F93CF93DF93DC0147
:1030E0005C962D913C915D972115310539F481E075
:1030F00090E013969C938E9312973DC05196ED915C
:10310000FC91529750969C915097892F80951FB7AC
:103110005E964C915E9741FB772770F941FD609573
:10312000F8944081772311F0492B01C04823408354
:10313000E9012197F1F748E0508160FF02C0592B67
:1031400001C058235083E9012197F1F7669541505A
:1031500099F7772321F090818923808303C08081B0
:10316000982B90831FBF5C968D919C915D970197E2
:10317000F1F721E030E0C901DF91CF911F9108956F
:1031800020918403309185032817390769F48091D1
:1031900083032091820390E0805C9F4F821B910902
:1031A00060E470E00C94A23580E090E008952091F6
:1031B00084033091850328173907B9F4909182036D
:1031C00080918303981789F0E0918203F0E0E35C3B
:1031D000F84F80812091820330E02F5F3F4F2F73A3
:1031E00033272093820390E008958FEF9FEF089597
:1031F0000895E091800480917F04E81730F4F0E0B6
:10320000EB57FB4F808190E008958FEF9FEF08957B
:10321000EF92FF920F931F93CF93DF937C018C016A
:10322000C0E0D0E0F8018689E3D7892B51F42696D7
:10323000CC0FDD1FCC0FDD1FCE0DDF1D88819981E6
:1032400008C021960C5F1F4FC530D10559F780E0AB
:1032500090E0DF91CF911F910F91FF90EF90089533
:10326000DC01ED91FC910284F385E02D40E019949E
:10327000DC01ED91FC910084F185E02D6FEF199454
:1032800061E0EEDF8BE39FE10197F1F708950F9383
:103290001F93CF93DF93EC01423018F08C8188604C
:1032A0008C834F836887222329F0413019F48C8165
:1032B00084608C8364E670E080E090E00E942522C8
:1032C0006C8164FD31C0E881F9810284F385E02DD1
:1032D00042E063E0CE0119958BE496E40197F1F7A3
:1032E000E881F9810284F385E02D42E063E0CE01BC
:1032F000199503E512E0C8010197F1F7E881F9811A
:103300000284F385E02D42E063E0CE011995C80107
:103310000197F1F7E881F9810284F385E02D42E01D
:1033200062E0CE01199514C06062CE0199DF8BE492
:1033300096E40197F1F76C816062CE0191DF03E5BD
:1033400012E0C8010197F1F76C816062CE0188DF5D
:10335000C8010197F1F76C816062CE0181DF8BEECD
:1033600090E00197F1F784E08D836CE0CE0178DF87
:10337000CE0186DF82E08E8366E0CE0171DFCE0172
:10338000DF91CF911F910F9173CFFC0123812223F5
:10339000C9F09181909569236083828191E0909337
:1033A000840480938304109282041092810489E63D
:1033B00095E00E94370589E695E00E941B07282FBB
:1033C00030E002C020E030E081E090E0232B11F0FB
:1033D00080E090E00895CF92DF92FF920F931F93C9
:1033E000CF93DF931F92CDB7DEB78C010D5F1F4FD8
:1033F000F62E6B018C2D8F19841758F4C801498360
:103400000E944B3DF60181936F010F5F1F4F498171
:10341000F1CF0F90DF91CF911F910F91FF90DF902F
:10342000CF900895CF92DF92FF920F931F93CF9387
:10343000DF931F92CDB7DEB78C010D5F1F4FF62EC5
:103440006B018C2D8F19841758F4F60161916F016F
:10345000C80149830E94533D0F5F1F4F4981F1CF3F
:1034600060E080E090E00F90DF91CF911F910F918D
:10347000FF90DF90CF900C94533DCF93DF931F923A
:10348000CDB7DEB769830B96FC01859194910097C7
:1034900029F0BE016F5F7F4F0E94E7080F90DF9118
:1034A000CF910895CF92DF92EF92FF920F931F93E7
:1034B000CF93DF93EC0181E08093840488E68093CE
:1034C0008304109282041092810460E089E695E002
:1034D0000E94370589E695E00E941B0747E050E00F
:1034E00068E670E089E695E00E94780789E695E055
:1034F0000E94BA048F77982F92959F701AEF082F29
:10350000919F000D112489E695E00E94BA049C0168
:10351000332794E0359527959A95E1F7F82E129F79
:10352000F00C112489E695E00E94BA049C0133272F
:1035300044E0359527954A95E1F7E82E129FE00C77
:10354000112489E695E00E94BA0489E695E00E947C
:10355000BA049C01332754E0359527955A95E1F735
:10356000D82E129FD00C112489E695E00E94BA044F
:103570009C01332764E0359527956A95E1F7C82EBD
:10358000129FC00C112489E695E00E94BA049C01A8
:10359000332774E0359527957A95E1F7129F800DD2
:1035A00011248883C982DA82EB82FC820D83CE01EA
:1035B000DF91CF911F910F91FF90EF90DF90CF900F
:1035C0000895FF920F931F93CF93DF938C01FF24F5
:1035D000F394F0928404D8E6D0938304109282048A
:1035E0001092810460E089E695E00E943705F801B9
:1035F0002581CAE0822F6C2F0E948235682F660FCA
:10360000860F682F660F620F89E695E00E943705E6
:10361000F8012481822F6C2F0E948235682F660F5B
:10362000860F682F660F620F89E695E00E943705C6
:10363000F8012381822F6C2F0E948235682F660F3C
:10364000860F682F660F620F89E695E00E943705A6
:1036500060E089E695E00E943705F8012281822F1B
:103660006C2F0E948235682F660F860F682F660FB9
:10367000620F89E695E00E943705F8012181822FCB
:103680006C2F0E948235682F660F860F682F660F99
:10369000620F89E695E00E943705F8012081822FAC
:1036A0006C2F0E948235682F660F860F682F660F79
:1036B000620F89E695E00E94370589E695E00E9451
:1036C0001B0775DBC82FF0928404D09383041092FB
:1036D0008204109281046FE089E695E00E9437052C
:1036E0006C2F6F7789E695E00E94370589E695E0B3
:1036F000DF91CF911F910F91FF900C941B07FC015C
:10370000908190539A3008F090E0818180532AE0B4
:10371000929F800D11240895CF92DF92EF92FF9235
:10372000CF93DF93EC01CB01BA01605873448D460F
:1037300098432CE3C22ED12CE12CF12CA701960149
:103740000E94B5356D83CA01B901A70196010E9497
:10375000B5356C83CA01B90128E130E040E050E0A2
:103760000E94B5356B83188263E97EEF8881482F0C
:10377000437091E009F090E0492F50E0FA01E359DD
:10378000FE4F2E173F0740F0FB01E41BF50B2E0FF9
:103790003F1F8F5F8883EACF81E089838981E82F8B
:1037A000F0E0EB55F84FE491992319F0823009F4D9
:1037B000EF5FF0E02E173F0720F02E1B3F0B8F5FCF
:1037C000ECCF2F5F2A83DF91CF91FF90EF90DF90B6
:1037D000CF9008950F931F93CF93DF938C01EB014C
:1037E0008885882331F069EA72E0C8010E94C71118
:1037F00027C01982188286EE96E0C2DC28813981C2
:10380000892B79F4203E8EE238075CF46DE070E09D
:1038100080E090E01AD68881998101969983888307
:10382000EACF2131374214F081E0888786EE96E0B6
:10383000A7DC892B29F066EE76E0C8010E942D12E4
:10384000C801DF91CF911F910F910895CF92DF9220
:10385000EF92FF926B01770FEE08FF08F7FE0EC0A4
:103860006DE286EE96E00E946B1244275527BA015E
:103870004C195D096E097F092AE003C02AE0B701EF
:10388000A60186EE96E0FF90EF90DF90CF900C942B
:10389000AB121F920F920FB60F9211240BB60F921C
:1038A0002F933F934F935F936F937F938F939F9348
:1038B000AF93BF93EF93FF93E0918403F09185035F
:1038C000309709F451C0968DA685B785858591FFFF
:1038D00004C09C91892329F447C09C91892309F055
:1038E00043C0A389B4899C918589809589238C9351
:1038F000868997890197F1F7608D718DA685B785C7
:10390000558538E020E0CB010197F1F7822F90E058
:1039100095958795282F4C91452309F020683150C3
:1039200091F7868D81FD20958091830390E001962B
:103930008F73992730918203381749F0A091830340
:10394000B0E0A35CB84F2C938093830303C0868DB3
:103950008160868F828D938D0197F1F7A389B48959
:103960009C918589892B8C93FF91EF91BF91AF91A9
:103970009F918F917F916F915F914F913F912F9187
:103980000F900BBE0F900FBE0F901F901895E091F7
:103990008403F0918503E817F90769F4A389B489D2
:1039A0009C918589809589238C9310928503109230
:1039B000840381E0089580E008950F931F93CF93CF
:1039C0008C01C62F40E150E060E270E084EA95E0AF
:1039D0000E940339C730D9F1C830D9F1C11107C0ED
:1039E000F80180814AE064EA75E090E013C0C130DC
:1039F00049F44AE064EA75E0F801808191810E940F
:103A00006B3935C0C23049F44AE064EA75E0F80128
:103A1000808191810E94A4392AC0C33059F4F801F1
:103A200060817181828193812AE044EA55E00E949D
:103A300075391DC0C43079F4F801608171818281CB
:103A400093812AE044EA55E00E94833910C022E0C5
:103A500003C023E001C021E042E0420FF801608191
:103A600071818281938104EA15E00E94433920E14B
:103A700030E040E050E061E070E084EA95E0CF9112
:103A80001F910F91A5CA40E150E060E270E084EA26
:103A900095E00E9403398091B605813039F48FE4B6
:103AA0009EE69093A5058093A40509C08FE496E651
:103AB000A6E68093A4059093A505A093A60520E112
:103AC00030E040E050E061E070E084EA95E080CAD8
:103AD0001F93CF93DF93182FD92FC62F40E150E0CB
:103AE00060E270E084EA95E00E940339E12FFD2F47
:103AF000EC0FF11DEC0FF11D659174916F5F7F4F1D
:103B00004FE050E084EA95E00E94623920E130E025
:103B100040E050E061E070E084EA95E0DF91CF9111
:103B20001F9156CA0F931F93CF93DF93EC01FC01B3
:103B300070961491113009F094C010937C0540E107
:103B400050E0BC0184EA95E00E94623920E130E057
:103B500040E050E060E070E084EA95E039DAFE0190
:103B6000729685919491FC0164913996A591B491D6
:103B7000611104C08C918093B6056DC08FEF860FE4
:103B8000823040F48D919C9111979093BC05809365
:103B9000BB0561C08DEF860F823070F40D911D91D1
:103BA0002D913C9113970093B7051093B80520937E
:103BB000B9053093BA054FC0693029F5FD01339638
:103BC000C591D491FD0185919491FC018081FD0105
:103BD0003296A4919E0160E090E09A1761F0F9019D
:103BE00045915491FA014491481301C0692F9F5F98
:103BF0002E5F3F4FF2CF6093B605CE01DF91CF919C
:103C00001F910F9165CF6A30C9F4FD013196C591BE
:103C1000D491FD01A491888190E002C0959587958B
:103C2000AA95E2F780FF03C01093B60502C0109278
:103C3000B605DF91CF911F910F9125CF0D911D9169
:103C40002D913C9113970093BD051093BE052093D1
:103C5000BF053093C005CD01DF91CF911F910F912A
:103C6000ACCE111134C061112EC02091810530916C
:103C700082058217930739F1809185059091860519
:103C8000892B79F08091870590918805892B61F0C7
:103C90008091890590918A05892B79F482E090E0E2
:103CA00005C080E090E002C081E090E0880F991F9D
:103CB000FC01EB57FA4F31832083D0938205C093E8
:103CC000810510929F0560919F05CE0114C01230AE
:103CD000D1F46296FE0185919491009711F0FC0158
:103CE000199580917B05882359F060919F058091FB
:103CF000810590918205DF91CF911F910F9170C93D
:103D000081E080937E05DF91CF911F910F910895FF
:103D10002F923F924F925F926F927F928F929F92DB
:103D2000AF92BF92CF92DF92EF92FF921F93CF9309
:103D3000DF93CDB7DEB764970FB6F894DEBF0FBE42
:103D4000CDBF4296FC0185919491FC01149135966A
:103D500085909590A590B490FC0131964590559032
:103D600065907490643009F423C22FEF260F22303F
:103D700008F04EC141E0613009F440E0193021F50E
:103D8000FC01399625913491F9013296949131963E
:103D900025913491EFEFE90F9091B605442339F066
:103DA000911103C0E093B6050AC0915006C09E135E
:103DB00003C01092B60503C09F5F9093B605609153
:103DC000B605C90185DEFCC11A3051F481E090913D
:103DD000B605913009F480E08093B60554DEF0C159
:103DE000442319F02FEF3FEF02C021E030E06201E1
:103DF00073018091B4059091B505289F1001299F0A
:103E0000300C389F300C11249101032C000C440B12
:103E1000550BCA01B901298B3A8B4B8B5C8B0E94E5
:103E2000383C29893A894B895C89163029F420E08D
:103E300030E040E251E406C0173039F420E030E0D1
:103E400048EC52E40E9444369DC0183029F420E02A
:103E500030E04AE754E4F6CF111126C08091B60550
:103E6000820D81149104A104B10441F4C114D10460
:103E7000E104F10419F48093B60513C090E0A0E0CA
:103E8000B0E0C816D906EA06FB064CF02C013D014D
:103E900088159905AA05BB0514F424013501409243
:103EA000B60586EB95E0B1C0113011F0123071F516
:103EB0008091BB059091BC05820D931D81149104E6
:103EC000A104B10451F4C114D104E104F10429F4B2
:103ED0009093BC058093BB0516C0092E000CAA0B5D
:103EE000BB0BC816D906EA06FB064CF02C013D01B7
:103EF00088159905AA05BB0514F4240135014092E3
:103F0000BB055092BC058BEB95E07FC0133011F0E0
:103F10001430C1F58091B7059091B805A091B9050D
:103F2000B091BA05820F931FA41FB51F811491048D
:103F3000A104B10471F4C114D104E104F10449F401
:103F40008093B7059093B805A093B905B093BA05CF
:103F500016C0C816D906EA06FB064CF06C017D01B6
:103F600088159905AA05BB0514F475016401C09272
:103F7000B705D092B805E092B905F092BA0587EB83
:103F800095E043C02091BD053091BE054091BF052D
:103F90005091C0050E94E0352B013C018114910431
:103FA000A104B10441F4C114D104E104F10419F4F1
:103FB000CB01D30120C0C701B6010E94383C6B0180
:103FC0007C019B01AC01B201C3010E94DD361816D1
:103FD00084F0C501B4010E94383C6B017C019B0157
:103FE000AC01B201C3010E94323C87FD02C06201F4
:103FF0007301C601D7018093BD059093BE05A093C0
:10400000BF05B093C0058DEB95E0612FD6DCD8C01D
:10401000633009F0D5C0FC013996A591B4911930EF
:1040200099F4FD013396259134914091B605F9013B
:10403000E40FF11DE40FF11D65917491FB01649192
:10404000FD01A591B49129C01A3019F5FD013196F1
:1040500065917491FD01A4912091B605FB01B08199
:10406000222349F041E050E001C0440FAA95EAF74D
:104070004B2B40830AC021E030E001C0220FAA95FB
:10408000EAF720952B23FB012083FB016081F5D902
:104090008FC0111104C06091B6056C93F8CF123037
:1040A000A9F42091BB053091BC052D933C93388B2E
:1040B0002F87FC013B9685919491009709F478C075
:1040C000BE01615F7F4F0E94DE0872C01130A1F413
:1040D0002091BB053091BC052D933C933E872D87E5
:1040E000FC013B9685919491009709F461C042E0F0
:1040F000BE01635F7F4F3CC01430E9F44091B705C7
:104100005091B8056091B9057091BA054D935D93D2
:104110006D937C93139749875A876B877C87FC0143
:104120003B9685919491009709F442C044E0BE010A
:10413000675F7F4F1DC01330E9F44091B705509180
:10414000B8056091B9057091BA054D935D936D9373
:104150007C9313974D835E836F837887FC013B9636
:1041600085919491009721F144E0BE016B5F7F4FF0
:1041700059D91EC01530E0F04091BD055091BE05E3
:104180006091BF057091C0054D935D936D937C93D5
:10419000139749835A836B837C83FC013B968591FB
:1041A0009491009729F0BE016F5F7F4F0E94DB085A
:1041B00010927C0561E08091810590918205B2DCCE
:1041C00064960FB6F894DEBF0FBECDBFDF91CF91DE
:1041D0001F91FF90EF90DF90CF90BF90AF909F9096
:1041E0008F907F906F905F904F903F902F900895A9
:1041F000CF93DF93282F30E0F901EE54F84F8491EC
:10420000F901E45BF84FD491F901EA5FF84FC491EA
:10421000CC2389F0811168D0EC2FF0E0EE0FFF1F66
:10422000E451F94FA591B491EC91ED2381E090E038
:1042300021F480E002C080E090E0DF91CF9108950A
:104240001F93CF93DF93282F30E0F901EE54F84FFE
:104250008491F901E45BF84FD491F901EA5FF84FDA
:10426000C491CC23C1F0162F81113ED0EC2FF0E089
:10427000EE0FFF1FEE52F94FA591B4918FB7F8944E
:10428000111105C09C91ED2FE095E92302C0EC913E
:10429000ED2BEC938FBFDF91CF911F9108953FB726
:1042A000F8948091820790918307A0918407B09140
:1042B000850726B5A89B05C02F3F19F00196A11DC3
:1042C000B11D3FBFBA2FA92F982F8827820F911DAC
:1042D000A11DB11DBC01CD0142E0660F771F881FF3
:1042E000991F4A95D1F7089590E0FC013197E2318A
:1042F000F10508F04EC08827EB57FF4F8F4F0C9405
:10430000D735809180008F7703C0809180008F7DAA
:1043100080938000089580918000877FF9CF84B5D5
:104320008F7702C084B58F7D84BD08958091B000E1
:104330008F7703C08091B0008F7D8093B000089587
:10434000809190008F7707C0809190008F7D03C08F
:1043500080919000877F8093900008958091A000C5
:104360008F7707C08091A0008F7D03C08091A0004F
:10437000877F8093A0000895809120018F7707C0E8
:10438000809120018F7D03C080912001877F8093E1
:1043900020010895CF93DF9390E0FC01E45BF84F98
:1043A0002491FC01EA5FF84F8491882361F190E049
:1043B000880F991FFC01E850F84FC591D491FC017A
:1043C000EE52F94FA591B491611109C09FB7F894CD
:1043D0008881209582238883EC912E230BC0623044
:1043E00061F49FB7F8943881822F80958323888366
:1043F000EC912E2B2C939FBF06C08FB7F894E881C9
:104400002E2B28838FBFDF91CF910895863308F03C
:10441000865390917B00282F2870977F922B909342
:104420007B008770806480937C0080917A00806438
:1044300080937A0080917A0086FDFCCF809178008D
:104440002091790090E0922B08958F929F92AF92E5
:10445000BF92CF92DF92EF92FF926B017C011FDF40
:104460004B015C01C114D104E104F104E9F017DF50
:10447000DC01CB0188199909AA09BB09883E934040
:10448000A105B10578F321E0C21AD108E108F108CD
:1044900088EE880E83E0981EA11CB11CC114D104C3
:1044A000E104F10421F7DECFFF90EF90DF90CF9091
:1044B000BF90AF909F908F9008952FB7F894609120
:1044C0007E0770917F0780918007909181072FBFB1
:1044D00008951F920F920FB60F9211242F933F93BE
:1044E0008F939F93AF93BF9380917E0790917F07A7
:1044F000A0918007B091810730917D0723E0230FC1
:104500002D3720F40196A11DB11D05C026E8230F0B
:104510000296A11DB11D20937D0780937E07909385
:104520007F07A0938007B0938107809182079091C5
:104530008307A0918407B09185070196A11DB11D45
:104540008093820790938307A0938407B093850795
:10455000BF91AF919F918F913F912F910F900FBE7F
:104560000F901F901895CF93DF93CDB7DEB7A69726
:104570000FB6F894DEBF0FBECDBF789484B58260CD
:1045800084BD84B5816084BD85B5826085BD85B5F7
:10459000816085BD80916E00816080936E00109275
:1045A00081008091810082608093810080918100F0
:1045B0008160809381008091800081608093800081
:1045C0008091B10084608093B1008091B0008160DF
:1045D0008093B000809191008260809391008091DF
:1045E0009100816080939100809190008160809320
:1045F00090008091A10082608093A1008091A10031
:1046000081608093A1008091A00081608093A000D0
:10461000809121018260809321018091210181603C
:1046200080932101809120018160809320018091FD
:104630007A00846080937A0080917A00826080930F
:104640007A0080917A00816080937A0080917A006C
:10465000806880937A001092C10060E088E09ADE62
:1046600061E088E0EDDD61E08DE094DE61E089E00D
:1046700091DE61E08DE08EDE61E08EE08BDE61E058
:104680008CE088DEE091DC04F091DD0482E0808340
:10469000E091D804F091D9041082E091DA04F0910D
:1046A000DB048FEC80831092E404E091E004F0914D
:1046B000E10486E08083E091DE04F091DF048081F4
:1046C00080618083E091DE04F091DF048081886066
:1046D0008083E091DE04F091DF0480818068808334
:1046E000E091DE04F091DF0480818F7D808380E0A3
:1046F00090E00E944B3D8111C5C041E068E374E049
:1047000084E090E00E94EB196DE774E088E090E0AF
:104710000E94E4086BE774E08CE090E00E94E408FB
:1047200069E774E080E190E00E94E40867E774E0E4
:1047300084E190E00E94E40841E067E374E088E1EE
:1047400090E00E94EB1963E774E08CE190E00E9436
:10475000E1086FE674E080E290E00E94E10841E049
:1047600066E374E084E290E00E94EB196BE674E08B
:1047700088E290E00E94E10867E674E08CE290E055
:104780000E94E10841E065E374E080E390E00E946C
:10479000EB1965E674E084E390E00E94E40863E6C8
:1047A00074E088E390E00E94E40861E674E08CE342
:1047B00090E00E94E4086FE574E080E490E00E94DD
:1047C000E4086BE574E084E490E00E94E10867E5AA
:1047D00074E088E490E00E94E10863E574E08CE412
:1047E00090E00E94E1086FE474E080E590E00E94B0
:1047F000E10869E474E088E590E00E94E10865E47E
:1048000074E084E590E00E94E10842E063E474E033
:104810008CE590E00E94EB1942E06DE374E080E6E5
:1048200090E00E94EB196FE374E084E690E00E9450
:10483000E10869E374E088E690E00E94E10841E065
:104840006DE474E08CED90E00E94EB1968E172E099
:1048500088ED90E00E94E40841E06EE474E080E6B8
:1048600090E00E94EB1908EC10E0B80167557A4F10
:1048700041E0C8010E94EB190F5F1F4F083D110571
:10488000A1F702C00E94F10889E695E00E94840722
:1048900010920107109200071092FF061092FE0678
:1048A0001092FD061092FC068DE991E090930307AB
:1048B000809302078091F20696EF980F943048F0AB
:1048C0002EEC280F243028F022EC280F283008F096
:1048D00070C02DEB30E03093FD062093FC062BE9F1
:1048E00031E03093FF062093FE062CE231E0309356
:1048F000010720930007943070F02EEC280F24302D
:1049000050F022EC280F283010F40C944333A0E030
:10491000B0E00C944533A8E6B0E0E8E6F0E0208192
:10492000943018F08E53883010F081E001C084E09C
:10493000822B8C938091F20696EF980F943058F06A
:104940002EEC280F243038F022EC280F283030F0DD
:1049500020E030E005C02BE630E002C02DE630E07C
:104960003093FA062093F906943010F49AEF0BC0B6
:10497000823381F0833381F0843381F092EC980F9D
:10498000983070F492EC980F81E001C0880F9A95EE
:10499000EAF707C088E005C084E003C082E001C0F8
:1049A00081E08093FB0680910207909103070197B5
:1049B000F1F78091000790910107892B21F18091F7
:1049C00084039091850326E0863E9207E1F00097EC
:1049D00011F00E94C71C809104078E7F809304070A
:1049E000109283031092820386EE96E090938503E3
:1049F00080938403E091F906F091FA06908180910A
:104A0000FB06892B80836DE081E0C4DC6FEF70E0F2
:104A10008DE896E00E946A1188E092E090933D064E
:104A200080933C068BE496E00E94840740915806F0
:104A300050E06091570670E08BE496E00E947807A2
:104A40008BE496E00E94BA0490935A06809359062C
:104A500080915806823088F08BE496E00E94BA0478
:104A600020E030E0382F8091590690915A06822B31
:104A7000932B90935A068093590620E042E060E120
:104A800083EC95E00E94C51062E08091640682DCB0
:104A900080E398EFAFEFBFEF8093680690936906CD
:104AA000A0936A06B0936B0689E695E00E9484079E
:104AB0000E94D71690E0880F892F881F990B8E01CE
:104AC0000F5F1F4F892B09F464C083E491E00E94BB
:104AD000C6164BE050E067E371E0C8010E946239FE
:104AE000CE010A960E947F1B8B8BE9818E2FEE0FE1
:104AF000990BAA0BBB0BFC01E154F109E331F10561
:104B000050F58827EE58FF4F8F4F0C94D7358A8188
:104B1000813639F08B818E3611F087E01BC086E03C
:104B200019C081E017C082E015C08B81823711F077
:104B300088E010C084E00EC08B81823711F085E0E0
:104B400009C083E007C089E005C08AE003C08BE0AC
:104B500001C08CE08C8BCE0105960E947F1B8D8B53
:104B600048E050E06EE271E0C8010E946239C8017D
:104B70000E947F1B8E8BCE0104960E947F1B8F8B21
:104B8000CE0107960E947F1B888FCE0143960E941C
:104B9000E11AC8010E94521A86E0F801AAEDB6E0B7
:104BA00001900D928A95E1F788DC6093A0037093E1
:104BB000A1038093A2039093A30361E38AE892E0A8
:104BC0000E94EC0A0E947B0584EE96E09093A1057A
:104BD0008093A0058BE795E09093A3058093A205B1
:104BE00081E080937B05CE0149961C0144244394C7
:104BF000512CC8010E94521A86E0F801AAEDB6E0D5
:104C000001900D928A95E1F758DC6093A0037093B0
:104C1000A1038093A2039093A303C090CA03D090F2
:104C2000CB03E090CC03F090CD0346015701E8EEB2
:104C30008E0EE3E09E1EA11CB11C86169706A806E8
:104C4000B90630F06C157D058E059F0508F03FC450
:104C50008091C6039091C703A091C803B091C90386
:104C60000196A11DB11D8093C6039093C703A09325
:104C7000C803B093C90380919F03882319F0109251
:104C80009F0303C081E080939F0317DC6093CA03F6
:104C90007093CB038093CC039093CD036EE28CECA6
:104CA00094E00E946B124091A0035091A103609187
:104CB000A2037091A3038091C2039091C303A091BA
:104CC000C403B091C503805A9541AF4FBF4F8417BD
:104CD0009507A607B70708F0FAC380914D0488230B
:104CE00009F4F5C38091870690918806A091890602
:104CF000B0918A06892B8A2B8B2B09F0E8C340934D
:104D0000C2035093C3036093C4037093C503E09040
:104D10008106F090820661E771E086EE96E00E94DF
:104D200072126BE972E0CE0143960E94C711B7017F
:104D3000C8010E94EA1BBE016D5E7F4FC8010E9440
:104D400002116C01C8010E94C211CE0143960E945B
:104D5000C211CD20C09409F049C068E671E086EE2A
:104D600096E00E9472122AE045E150E060E070E0B7
:104D700086EE96E00E94AB1269ED72E086EE96E058
:104D80000E94F312B701C8010E94EA1B670122E0EA
:104D9000C20ED11CB801C6010E942D11C8010E948B
:104DA000C2116EE972E0C8010E94C711B801C601C4
:104DB0000E9402115C01C8010E94C211AB20A094A4
:104DC000A9F01A8E198E1C8E1B8E1E8E1D8EC2147B
:104DD000D30489F0F701628173816115710559F07F
:104DE00046815781C1010E94A31105C069EA72E0A2
:104DF000C1010E94C7118D8D9E8D892B09F464C35A
:104E0000E98DFA8D8081882309F45EC3E0908106E4
:104E1000F090820663E571E086EE96E00E947212E1
:104E2000B701C8010E94EA1BB801C70102960E949F
:104E30002D11C8010E94C21164EA72E0C8010E94EB
:104E4000C711C8010E94C21180914D04882309F442
:104E50003BC34D8D5E8D698D7A8D8CEC94E00E9404
:104E60009E0D67EA72E08CEC94E00E9496126AEA6A
:104E700072E0C8010E94C711B801C1010E9402116D
:104E80007C01C8010E94C211E0918506F09186065E
:104E9000808191811C8A1B8A1E8A1D8A188E1F8A16
:104EA0004AE0B8010E946B39F80101900020E9F74F
:104EB0003197AF01401B510BB801CE0143960E94C0
:104EC000A31197012A5F3F4FA7014E5F5F4FB101CA
:104ED000C8010E94DB112D813E818F89988D281792
:104EE000390719F589819A816B897C89009719F0B6
:104EF00061157105A9F46115710551F02115310590
:104F000039F0FB01808190E09195819591090AC06B
:104F1000009769F0232B59F0FC01808190E002C0DA
:104F20000E940A3921E0892B19F020E001C021E01C
:104F3000C8012EA30E94C211CE0143960E94C21145
:104F40002EA1222309F4C0C26DEA72E0C8010E94BA
:104F5000C711B801C1010E9402116C01C8010E9471
:104F6000C211D7FE1FC061EB72E0C8010E94C711D9
:104F7000B801C1010E9402117C01C8010E94C21146
:104F8000F7FC56C0B7016E5F7F4FC1010E941C1134
:104F9000805380934D046DE474E08CED90E00E94AA
:104FA000E70846C0E0908306F09084062D8D3E8D84
:104FB000A6014F5F5F4FB101C8010E94DB11E114F0
:104FC000F104C1F0CD80DE80C114D10411F4F701E9
:104FD00010C0FFE0CF16D10418F08FE0C82ED12CFE
:104FE00069817A81A601C7010E941A39F701EC0D87
:104FF000FD1D1082C8010E94C211E0918306F0914C
:1050000084061686E12CF12C60918306709184064B
:105010006E0D7F1D41E0C70188539F4F0E94121AF9
:105020002FEFE21AF20A40E1E416F10469F79BCF90
:1050300064EB72E0C8010E94C711B801C1010E946F
:1050400002117C01C8010E94C211F7FC14C0B70113
:105050006E5F7F4FC1010E941C11813419F41092C0
:10506000380409C0803311F481E003C0813319F49E
:1050700082E08093380467EB72E0C8010E94C71198
:10508000B801C1010E9402117C01C8010E94C21135
:10509000F7FC14C0B7016E5F7F4FC1010E941C1165
:1050A000813419F41092370409C0803311F481E07F
:1050B00003C0813319F482E0809337046AEB72E015
:1050C000C8010E94C711B801C1010E9402117C01F0
:1050D000C8010E94C211F7FC14C0B7016E5F7F4F78
:1050E000C1010E941C11813419F41092360409C0C8
:1050F000803311F481E003C0813319F482E080939E
:1051000036046DEB72E0C8010E94C711B801C101FD
:105110000E9402117C01C8010E94C211F7FC14C058
:10512000B7016E5F7F4FC1010E941C11813419F4D9
:105130001092350409C0803311F481E003C081333B
:1051400019F482E08093350460EC72E0C8010E949B
:10515000C711B801C1010E9402117C01C8010E945F
:10516000C211F7FCB1C18CE791E00E94C616C09055
:105170008306D0908406E0908106F090820663EC6E
:1051800072E086EE96E00E94F312B701C8010E9419
:10519000EA1B570182E0A80EB11CB801C5010E94AC
:1051A0002D11C8010E94C2116EEC72E086EE96E0ED
:1051B0000E94F312B60186EE96E00E94F31268EDAB
:1051C00072E086EE96E00E94F312B701C8010E94D9
:1051D000EA1BB801C5010E942D11C8010E94C2112D
:1051E00068EA72E086EE96E00E94F3128091D8069B
:1051F000882331F06BED72E086EE96E00E94F312A8
:105200008091CA06882331F060EE72E086EE96E067
:105210000E94F3128091BC06882331F065EE72E0A3
:1052200086EE96E00E94F3128091AE06882331F05C
:105230006AEE72E086EE96E00E94F3128091A0067C
:10524000882331F06FEE72E086EE96E00E94F31252
:10525000609138048091B9030E94EA0880938E031C
:10526000609137048091B8030E94EA0880938D030F
:10527000609136048091B7030E94EA0880938C0302
:10528000609135048091B6030E94EA0880938B03F5
:1052900065EB72E086EE96E00E94F31280918E0339
:1052A000882311F061E301C060E386EE96E00E947E
:1052B0006B1280913804882311F06DE401C061E421
:1052C00086EE96E00E946B1264EF72E086EE96E046
:1052D0000E94F31280918D03882311F061E301C0D5
:1052E00060E386EE96E00E946B128091370488237B
:1052F00011F06DE401C061E486EE96E00E946B124D
:1053000067EF72E086EE96E00E94F31280918C03C4
:10531000882311F061E301C060E386EE96E00E940D
:105320006B1280913604882311F06DE401C061E4B2
:1053300086EE96E00E946B126AEF72E086EE96E0CF
:105340000E94F31280918B03882311F061E301C066
:1053500060E386EE96E00E946B128091350488230C
:1053600011F06DE401C061E486EE96E00E946B12DC
:1053700068EA72E086EE96E00E94F3126DEF72E04A
:1053800086EE96E00E94F3124091970350919803A5
:105390006091990370919A0386EE96E00E94F7154A
:1053A00061E073E086EE96E00E94F3124091930371
:1053B00050919403609195037091960386EE96E068
:1053C0000E94F71565E073E086EE96E00E94F31206
:1053D00040918F03509190036091910370919203DB
:1053E00086EE96E00E94F71569E073E086EE96E09F
:1053F0000E94F31288E00E94F820BC01809181068F
:10540000909182060E94261C6DE073E086EE96E085
:105410000E94F31260914D0470E08091810690919A
:1054200082060E94261C68EA72E086EE96E00E94E0
:10543000F312E12CF12C68EA72E086EE96E00E940D
:10544000F312BE016F5F7F4FC7010E949C0ABE012D
:105450006F5F7F4F86EE96E00E94F3129FEFE91A8E
:10546000F90AE8E0EE16F10431F7E0908106F090D9
:10547000820669ED72E086EE96E00E94F31264E621
:1054800070E080E090E00E9425226AE186EE96E0DE
:105490000E946B12B701CE0143960E94EA1BBE0127
:1054A0006D5E7F4FC70102960E942D11CE0143967B
:1054B0000E94C21163E173E0CE0143960E94C711BE
:1054C000CE0143960E94C211C1010E94C211809177
:1054D0007D05811108C080919D0390919E03892BC9
:1054E00011F40E947B058CED95E00E94400C833204
:1054F00049F410929E0310929D0310929C03109207
:105500009B0377C2873339F410927B0550929E0338
:1055100040929D030AC08833D9F410927B0583E042
:1055200090E090939E0380939D0310929C031092B1
:105530009B031092870310928803109289031092A4
:105540008A031092860383EC95E00E94401954C2AE
:1055500080917B05811150C283EC95E00E9438193F
:105560008CED95E00E94E40BF82E882309F442C0EC
:105570008091870390918803A0918903B0918A0359
:105580004091A0035091A1036091A2037091A303E5
:10559000892B8A2B8B2B41F44093870350938803EC
:1055A0006093890370938A038091870390918803A5
:1055B000A0918903B0918A034C015D01E8E78E0E4A
:1055C000911CA11CB11C481559056A057B0538F0D2
:1055D00020918603211103C0F092860301C0F12CB3
:1055E000885A9D4FAF4FBF4F84179507A607B7073F
:1055F00058F408C010928703109288031092890310
:1056000010928A031092860380919D0390919E03CD
:10561000039709F04CC083EC95E00E94401960E0CC
:1056200080E00E94BE156EEA71E083EC95E00E9476
:10563000721240918F035091900360919103709189
:10564000920383EC95E00E94F71560E088E00E94E9
:10565000BE156BEA71E083EC95E00E9472124091F6
:10566000BA035091BB036091BC037091BD0383ECFE
:1056700095E00E94F71561E080E00E94BE1568EA9F
:1056800071E083EC95E00E9472124091BE0350914C
:10569000BF036091C0037091C10383EC95E00E9449
:1056A000F7156AEF70E080E090E00E94252280917B
:1056B0009D0390919E03019709F043C080919B0345
:1056C00090919C03F1E4FF1202C0019704C022E410
:1056D000F21205C0019690939C0380939B038091E6
:1056E0009B0390919C038730910514F086E090E035
:1056F00097FF02C080E090E090939C0380939B030F
:1057000060E080E00E94BE15B80180919B039091FB
:105710009C030E949C0AB80183EC95E00E94F3125E
:1057200061E080E00E94BE1580919B0390919C03F4
:10573000B80101960E949C0AB80183EC95E00E9492
:10574000F31280919D0390919E03029709F054C13A
:1057500044E4F41209C080919B0390919C0301964C
:1057600090939C0380939B0360E080E00E94BE15B1
:105770006EE971E083EC95E00E94721280919B03C8
:1057800090919C0397FF02C080E090E085309105E6
:1057900014F084E090E090939C0380939B0390909E
:1057A000E306A090E406B090E206E090E106C09027
:1057B000E006D12C80E3C81A88EFD80A60E08BE0BD
:1057C0000E94BE1580919B0390919C03892B79F4D4
:1057D00091E4F91202C0939404C0E2E4FE1201C005
:1057E0009A9468E971E083EC95E00E9472128091CE
:1057F0009B0390919C03019779F4F1E4FF1202C09E
:10580000A39404C022E4F21201C0AA9462E971E0F8
:1058100083EC95E00E94721280919B0390919C030F
:10582000029779F441E4F41202C0B39404C082E414
:10583000F81201C0BA946CE871E083EC95E00E9424
:10584000721280919B0390919C03039779F491E4E9
:10585000F91202C0E39404C0E2E4FE1201C0EA942B
:1058600066E871E083EC95E00E94721280919B03E0
:1058700090919C03049799F4F1E4FF1204C02FEF78
:10588000C21AD20A06C042E4F41203C081E0C81A68
:10589000D10860E871E083EC95E00E94721297E114
:1058A000991510F4B7E19B2EEBE3EA1510F4ABE386
:1058B000AA2EFFE1FB1518F4FFE1BF2E04C0B110C2
:1058C00002C0BB24B3942CE02E1518F4ECE0EE2EAD
:1058D00004C0E11002C0EE24E39440E1C41647E2A4
:1058E000D40620F07FE0C72E77E2D72E80EDC816D1
:1058F00087E0D80620F460EDC62E67E0D62EC601FC
:10590000805D97408093E006E092E106B092E20667
:105910009092E306A092E4061092E50661E080E032
:105920000E94BE1599E0991528F060E383EC95E09C
:105930000E946B12492D50E060E070E02AE083EC99
:1059400095E00E94AB126AE383EC95E00E946B1233
:10595000E9E0EA1528F060E383EC95E00E946B1221
:105960004A2D50E060E070E02AE083EC95E00E9470
:10597000AB1260E283EC95E00E946B12F9E0FB153C
:1059800028F060E383EC95E00E946B124B2D50E011
:1059900060E070E02AE083EC95E00E94AB126FE2D9
:1059A00083EC95E00E946B1229E02E1528F060E34D
:1059B00083EC95E00E946B124E2D50E060E070E0A9
:1059C0002AE083EC95E00E94AB126FE283EC95E055
:1059D0000E946B12A60160E070E02AE083EC95E083
:1059E0000E94AB124AE2F41207C080EE96E00E94D9
:1059F000E11A81E080937B058091AE0381110DC097
:105A00000E945D226093AA037093AB038093AC0362
:105A10009093AD0381E08093AE0380917E0588234F
:105A200071F080917B05882351F010927E05609182
:105A30009F0580918105909182050E94F0178091C9
:105A4000770581113FC0809178050E940622609100
:105A5000790570917A052091A4033091A503281B44
:105A6000390B37FF03C03195219531096217730750
:105A70002CF49093A5038093A40321C0E5E7F5E0FF
:105A800020E030E046895789DA01A61BB70BA8173A
:105A9000B9077CF4460F571F8417950754F4220F5B
:105AA000331F220F331FF901E357FA4FE080F180D3
:105AB00014C02F5F3F4F34962530310519F7E12C84
:105AC000F12C0BC0E0917505F09176050190F08105
:105AD000E02D85E795E019957C018091A90390E080
