:100000000C944D030C9475030C9475030C94280602
:100010000C9428060C9428060C9475030C94750314
:100020000C9475030C9475030C9475030C94750370
:100030000C9475030C9475030C9475030C94750360
:100040000C94391F0C9475030C94AB100C94851010
:100050000C9475030C9475030C9475030C94750340
:100060000C9447070C9475032F2345234523432302
:1000700045232D234523452345232123452345237C
:10008000362341233F234523452345233D23313850
:100090003A32303A3131004E6F7620203120323002
:1000A000313600525443204C4F535420504F574543
:1000B00052210061742B636D6764613D2264656C3D
:1000C00020616C6C220A0D0041542B434D47523D78
:1000D0000041542B434D47463D310D00534D5300D5
:1000E0002059454152004D4F4E5448002020444174
:1000F000590020204D494E0020484F55520053458D
:100100005420434C4F434B004154480D0A004F4B81
:10011000003B0D0A0041544400024F4E21000000F4
:10012000000000000000000000014F4646210000D2
:10013000000000000000000000004155544F210065
:100140000000000000000000003901290119013100
:100150000303490132030349013303034901340313
:10016000034901020F270000E80300001801740092
:1001700000030000000000000035037600000200CC
:100180000000000000003603540006660000000076
:100190000000003703500006660000000000000069
:1001A0003B034C0006630000009DFFFFFF3F034838
:1001B0000006630000009DFFFFFF430344000200B0
:1001C00000000000000000470340000200000000A3
:1001D0000000000049033C00020000000000000095
:1001E000004B0338000200000000000000004D0337
:1001F00034000900000000000000004F010000066C
:10020000630000009DFFFFFF4F032C00066300000A
:10021000009DFFFFFF5303280009000000000000BD
:1002200000005401000006630000000000000057B9
:100230000320000663000000000000005B031C00B8
:1002400009000000000000000059010000023B000E
:100250000000000000005F0314000217000000000F
:1002600000000061031000023B00000000000000DD
:1002700063030C0002170000000000000065030883
:10028000000900000000000000005E010400475368
:100290004D20434F44452D3E00000000000001006A
:1002A000630147534D204D4F44452D3E0000000053
:1002B00000000100700145585445524E414C000069
:1002C00000000000000001007D014C494748204C1F
:1002D0004F57000000000000000001008A014C4957
:1002E000474820484947480000000000000001003E
:1002F000970154454D50204C4F57202020205B4300
:100300005D000100A40154454D5020484947482054
:1003100020205B435D000100B1014359434C45522D
:10032000204F464620205B535D000100BE0143592B
:10033000434C4552204F464620205B4D5D00010056
:10034000CB014359434C4552204F4E2020205B5354
:100350005D000100D8014359434C4552204F4E20C7
:1003600020205B4D5D000100E5014359434C45529F
:1003700020434F4E54524F4C00000100F2014641C1
:100380004E204F4646202020205B435D00000100A8
:10039000FF0146414E204F4E20202020205B435D30
:1003A000000001000C0246414E20434F4E54524F74
:1003B0004C0000000000010019024845415445521C
:1003C000204F464620205B435D0001002602484541
:1003D00041544552204F4E2020205B435D000100D8
:1003E000330248454154455220434F4E54524F4CDE
:1003F0000000010040024C49474854204F46462027
:1004000020205B4D5D0001004D024C4947485420BF
:100410004F46462020205B485D0001005A024C49AF
:10042000474854204F4E202020205B4D5D000100A6
:1004300067024C49474854204F4E202020205B48FB
:100440005D00010074024C4947485420434F4E540C
:10045000524F4C00000001008102A2028E020603EE
:10046000F202DE02CA02B6026A03560342032E03F8
:100470001A03A60392037E03E203CE03BA034604E3
:1004800032041E040A04F60347534D2D3E000000BB
:10049000000000000000000000025A0453455420F0
:1004A000434C4F434B2D3E00000000000200BA05B4
:1004B000414C41524D205345542D3E000000000058
:1004C00000055E044359434C45522D3E0000000098
:1004D000000000000005680446414E2D3E0000006B
:1004E0000000000000000000000372044845415471
:1004F00045522D3E0000000000000000000378047B
:100500004C494748542D3E00000000000000000008
:1005100000057E040005EC04D804C404B0049C0467
:10052000880400000000250028002B0000000000C7
:100530002300260029000404040404040404020225
:100540000202020203030303030301020408102052
:100550004080010204081020010204081020526F9C
:100560006F740000000000000000000000000007A1
:1005700014051F1C1F1E1F1E1F1F1E1F1E1F0000F5
:100580000000240027002A000000000800020100EB
:1005900000030407000000000000000000407A1083
:1005A000F35A00A0724E18090010A5D4E80000E824
:1005B0007648170000E40B54020000CA9A3B000082
:1005C00000E1F505000080969800000040420F0011
:1005D0000000A08601000000102700000000E803D2
:1005E000000000006400000000000A00000000009D
:1005F0000100000000002C76D888DC674F0823DF5C
:10060000C1DFAE59E1B1B796E5E3E453C63AE6512E
:10061000997696E8E6C28426EB898C9B62ED407C55
:100620006FFCEFBC9C9F40F2BAA56FA5F490055AF1
:100630002AF75C936B6CF9676DC11BFCE0E40D4716
:10064000FEF520E6B500D0ED902E03009435770539
:100650000080841E080000204E0A000000C80C33F1
:100660003333330F986E12831141EF8D2114893B80
:10067000E65516CFFEE6DB18D1844B381BF77C1D00
:10068000901DA4BBE424203284725E228100C9F153
:1006900024ECA1E53D27EA30DC3011241FBECFEF6A
:1006A000D8E0DEBFCDBF12E0A0E0B1E0E8E4F6E7BD
:1006B00002C005900D92A238B107D9F726E0A2E852
:1006C000B2E001C01D92AA33B207E1F713E0CCE417
:1006D000D3E004C02197FE010E944733CB34D107F9
:1006E000C9F70E94831F0C94173B0C9400002091C3
:1006F0008402309185022817390771F480918302B2
:100700002091820290E0805C9F4F821B910960E4FF
:1007100070E00E941133089580E090E008952091E8
:1007200084023091850228173907B9F4909182022A
:1007300080918302981789F0E0918202F0E0E35102
:10074000FA4F80812091820230E02F5F3F4F2F735C
:1007500033272093820290E008958FEF9FEF089552
:100760000895E091680380916703E81730F4F0E0A2
:10077000E359FC4F808190E008958FEF9FEF08953B
:100780009091680380916703981750F4E92FF0E087
:10079000E359FC4F208130E09F5F9093680302C0D3
:1007A0002FEF3FEFC90108958091670390E02091FA
:1007B0006803821B9109089585ED8093BC008091A8
:1007C000BC0084FDFCCF1092B30308954091EC026D
:1007D000262F30E0240F311D21323105DCF4209129
:1007E000B3032430C9F4FC0180E090E0861758F48C
:1007F0003091EC022191DC01A653BD4FA30FB11D36
:100800002C930196F3CF8091EC02680F6093EC0279
:1008100080E0089581E0089582E00895CF92DF920C
:10082000EF92FF920F931F93CF93DF937C01262FBC
:10083000972F8A0180916C03882391F0C62FD72FC0
:100840006E01C40ED51ECC15DD0571F06991D7017E
:10085000ED91FC910190F081E02DC7010995F3CF56
:10086000642F822F0E94E603C801DF91CF911F9170
:100870000F91FF90EF90DF90CF900895CF93DF938B
:100880001F92CDB7DEB7698320916C032223D1F08C
:1008900020916903203240F021E030E0FC013383F5
:1008A000228380E090E015C080916A03E82FF0E099
:1008B000EF5EFC4F998190838F5F80936A038093F2
:1008C000690305C061E0CE0101960E94E60381E064
:1008D00090E00F90DF91CF9108950895CF93C62FA8
:1008E000482F50E060E070E02AE08BEA94E00E943C
:1008F0003A10CC2311F06DE401C061E48BEA94E07E
:10090000CF910C94FA0F8091C105811110C0809194
:10091000B30581110CC08091A505811108C080919B
:100920009705811104C080918905882321F0809169
:100930009F02882329F08BEA94E00E9475160BC071
:10094000E091AB04F091AC040084F185E02D60E00F
:100950008BEA94E0099560E080E00E942613809184
:10096000C005882331F080919F02882331F06BE22B
:100970000BC08091B205811102C060E205C0809178
:100980009F028823D1F36DE28BEA94E00E94FA0F74
:1009900064E78BEA94E00E94FA0F609197027091ED
:1009A00098028091990290919A020E942C34675F7C
:1009B0007F4F6331710528F460E38BEA94E00E9475
:1009C000FA0F4091970250919802609199027091AC
:1009D0009A028BEA94E00E94601360E086E00E9435
:1009E00026136DE672E08BEA94E00E94831060911A
:1009F0009702709198028091990290919A020E94B8
:100A00002C34675F7F4F6331710528F460E38BEA14
:100A100094E00E94FA0F40919302509194026091E9
:100A20009502709196028BEA94E00E94601360E058
:100A30008AE00E94261360E28BEA94E00E94FA0F9B
:100A40008091C5058A3028F460E38BEA94E00E9427
:100A5000FA0F4091C50550E060E070E02AE08BEAB3
:100A600094E00E943A1080919F02882341F0809187
:100A70008805882311F061E203C06AE301C060E2E7
:100A80008BEA94E00E94FA0F8091C6058A3028F420
:100A900060E38BEA94E00E94FA0F4091C60550E0B3
:100AA00060E070E02AE08BEA94E00E943A1061E096
:100AB00080E00E9426138091A405882341F0809154
:100AC0009F02882311F06BE221C060E21FC0809179
:100AD0009605882331F080919F028823B1F36DE25F
:100AE00015C020913703309138034091390350915C
:100AF0003A0360918F0270919002809191029091DF
:100B000092020E946234181604F76AE28BEA94E0BB
:100B10000E94FA0F65EB71E08BEA94E00E9483106B
:100B20006091340380918E020E946E0464EF71E044
:100B30008BEA94E00E9483106091330380918D02D0
:100B40000E946E0467EF71E08BEA94E00E948310CC
:100B50006091320380918C020E946E046AEF71E012
:100B60008BEA94E00E9483106091310380918B02A4
:100B70000C946E04CF93DF9300D000D000D0CDB79B
:100B8000DEB71092630482E090E090939E0280931F
:100B90009D02CE0101960E94D51786E0FE01319696
:100BA000A8ECB5E001900D928A95E1F710929C02B5
:100BB00010929B0210928702109288021092890272
:100BC00010928A02109286028BEA94E00E947D16AF
:100BD00026960FB6F894DEBF0FBECDBFDF91CF9142
:100BE0000895CF92DF92EF92FF920F931F93CF93CE
:100BF000DF9300D0CDB7DEB78C0179018BEA94E0AA
:100C00004A8369830E94751669814A81842F0E94F4
:100C100026136801C601801B910B8E159F056CF48D
:100C2000F60161916F018FED860F8E3508F060E25D
:100C30008BEA94E00E94CA15EDCF0F900F90DF91E0
:100C4000CF911F910F91FF90EF90DF90CF9008957B
:100C50001F920F920FB60F9211242F933F934F9331
:100C60005F936F937F938F939F93AF93BF93EF9314
:100C7000FF93E0918402F0918502309709F451C00E
:100C8000968DA685B785858591FF04C09C918923A3
:100C900029F447C09C91892309F043C0A389B489F2
:100CA0009C918589809589238C9386899789019762
:100CB000F1F7608D718DA685B785558538E020E008
:100CC000CB010197F1F7822F90E095958795282F1A
:100CD0004C91452309F02068315091F7868D81FDB4
:100CE00020958091830290E001968F73992730912F
:100CF0008202381749F0A0918302B0E0A351BA4FA5
:100D00002C938093830203C0868D8160868F828DB1
:100D1000938D0197F1F7A389B4899C918589892BDB
:100D20008C93FF91EF91BF91AF919F918F917F91A4
:100D30006F915F914F913F912F910F900FBE0F9048
:100D40001F901895E0918402F0918502E817F90749
:100D500069F4A389B4899C918589809589238C93B2
:100D6000109285021092840281E0089580E0089537
:100D70002091690390916B03213208F04AC0809161
:100D8000B3038111FCCF32E03093B30331E03093F1
:100D9000B2033FEF3093B1031092B0032093AF033F
:100DA000A1E1B3E04DE853E0FA013E2F341B3217C6
:100DB00018F43D913193F9CF1092AE032091AE0318
:100DC000990F922B9093AE039091AD03913061F403
:100DD0001092AD039091AE039093BB009091BC0034
:100DE00093FDF8CF95EC01C095EE9093BC009091E7
:100DF000B3039230E1F39091B1039F3F79F080917A
:100E0000B103803241F08091B103803331F084E04E
:100E100005C081E003C082E001C083E010926A0354
:100E20001092690310926C030895862F413208F0E6
:100E300040E2642F0E94E2121092680380936703DD
:100E40000895109268031092670310926A0310923B
:100E500069031092B30381E08093B2031092AD0353
:100E600061E082E10E944B1E61E083E10E944B1E23
:100E7000E9EBF0E080818E7F808380818D7F8083AD
:100E800088E48093B80085E48093BC0008951F92A5
:100E90000F920FB60F9211242F933F934F935F93AE
:100EA0006F937F938F939F93AF93BF93EF93FF9332
:100EB0008091B900887F803609F49CC068F588323B
:100EC00009F45BC090F4803109F454C038F48823ED
:100ED00009F4F6C0883009F44DC0F6C0883109F431
:100EE0004CC0803209F45DC0EFC0803409F468C0A2
:100EF00048F4803309F455C0883309F0E5C0809385
:100F0000B103D8C0803509F44FC0883509F45DC0FD
:100F1000883409F0D9C0D6C0883909F4C7C0A8F40C
:100F2000883709F467C038F4883609F463C080371D
:100F300009F460C0C9C0883809F4B8C0803909F420
:100F40005FC0803809F0C0C05BC0803B09F486C038
:100F500038F4803A09F466C0883A09F47FC0B4C016
:100F6000803C09F4A7C0883C09F4A4C0883B09F47C
:100F70008AC0AAC08091AE0310C09091B003809146
:100F8000AF03981770F5E091B00381E08E0F809366
:100F9000B003F0E0E357FC4F80818093BB0085EC09
:100FA00086C08093B1038EC0E091B00381E08E0FC4
:100FB0008093B0038091BB00F0E0E357FC4F808347
:100FC0009091B0038091AF036EC0E091B00381E0D7
:100FD0008E0F8093B0038091BB00F0E0E357FC4F8D
:100FE00080838091B20381116DC081E08093AD0355
:100FF00084EA61C083E08093B30310921003CFCFE3
:1010000080911003803208F051C0E091100381E01C
:101010008E0F809310038091BB00F0E0E051FD4FF4
:101020008083BDCF85EC8093BC001092B303809188
:101030001003803230F4E0911003F0E0E051FD4FF6
:1010400010826091100370E0E091EE02F091EF02E7
:1010500080EF92E009951092100336C084E08093EF
:10106000B3031092ED021092EC02E091EA02F091CB
:10107000EB0209958091EC02811105C081E080931B
:10108000EC021092CA02E091ED0281E08E0F809393
:10109000ED02F0E0E653FD4F80818093BB0090911C
:1010A000ED028091EC02981708F479CF85E88093DF
:1010B000BC000AC085EC8093BC001092B30304C04E
:1010C0001092B1030E94DC03FF91EF91BF91AF91A9
:1010D0009F918F917F916F915F914F913F912F9150
:1010E0000F900FBE0F901F90189544E00C94951729
:1010F00042E00C94951744E00C946E1742E00C9477
:101100006E1741E00C949517662321F081E0623060
:1011100009F080E00895EF92FF920F931F93CF9311
:10112000DF9300D0CDB7DEB78C017B0142E0BE017A
:101130006F5F7F4F88E790E00E946E1729813A81A8
:1011400021503109283031051CF43A83298302C02B
:101150001A82198268E070E09B01201B310B8981A3
:101160009A81820F931F0E9411339A83898300E032
:1011700010E0B701600F711F89819A8124E0880F08
:10118000991F2A95E1F784589F4F41E0800F911FE6
:101190000E946E170F5F1F4F0031110551F7F701C5
:1011A000108A0F900F90DF91CF911F910F91FF90B8
:1011B000EF900895CF92DF92EF92FF920F931F93DB
:1011C000CF93DF9300D0CDB7DEB78C01F62E8091A0
:1011D0005B05803309F443C081E3681340C080910C
:1011E0006F0590917005A0917105B0917205892BE2
:1011F0008A2B8B2BA1F580913503823080F163E43B
:1012000084EB93E00E94FA0F67EA71E084EB93E0CD
:101210000E942510C0906B05D0906C0565E171E0CF
:101220008EEC95E00E940110B6018EEC95E00E94D4
:10123000831061E171E08EEC95E00E9401108091D5
:10124000A0029091A102A091A202B091A30280936A
:101250006F0590937005A0937105B093720580910E
:10126000C40568018A3048F4EFEFCE1ADE0A4AE07E
:10127000B80180E090E00E94DA368091C4054AE02F
:10128000B60190E00E94DA368FE2F8018283B8015D
:101290006D5F7F4F8091C3058A3040F44AE080E063
:1012A00090E00E94DA36C8010496BC018091C30523
:1012B0004AE090E00E94DA3680E2F8018583B801C6
:1012C0006A5F7F4F8091C5058A3040F44AE080E034
:1012D00090E00E94DA36C8010796BC018091C505EE
:1012E0004AE090E00E94DA368AE3F8018087B8018C
:1012F000675F7F4F8091C6058A3040F44AE080E006
:1013000090E00E94DA36C8010A96BC018091C605B9
:101310004AE090E00E94DA3680E2F8018387F7869F
:1013200042E0BE016F5F7F4F88E790E00E946E173A
:1013300089819A81089714F01A821982E12CF12C84
:10134000B8016E0D7F1D89819A8124E0880F991F55
:101350002A95E1F784589F4F41E08E0D9F1D0E9412
:101360009517FFEFEF1AFF0A80E1E816F10441F745
:1013700089819A81019668E070E00E9411339A8316
:10138000898342E0BE016F5F7F4F88E790E00E9453
:10139000951789819A810F900F90DF91CF911F91BE
:1013A0000F91FF90EF90DF90CF900895CF93DF9350
:1013B000EC010E94DD108E859F858130910589F1B9
:1013C0008230910581F18430910579F1089779F1A6
:1013D0008C859D858130910561F18230910559F1AF
:1013E0008430910551F1089751F18A859B858130B0
:1013F000910539F18230910531F18430910529F15F
:10140000089729F1888599858130910511F18230FD
:10141000910509F18430910501F1089701F180E00F
:101420001FC08AE21DC087E31BC084E319C081E3AB
:1014300017C080E315C088E313C085E311C082E3C1
:101440000FC083E20DC089E30BC086E309C083E3CC
:1014500007C084E405C083E403C082E401C081E4E2
:10146000DF91CF910895CF92DF92EF92FF920F9389
:101470001F93CF93DF93EC010E94DD102E853F85F3
:10148000888599852430310509F049C04C855D85F2
:101490004830510519F421E0209334032A853B8517
:1014A0002830310519F462E06093340388309105E7
:1014B00011F4109234034430510519F461E0609343
:1014C00033032430310519F462E060933303843030
:1014D000910511F4109233034230510519F461E083
:1014E000609332032230310519F462E060933203D5
:1014F0008230910511F4109232034130510519F4F4
:1015000041E0409331032130310519F422E020936A
:101510003103019709F056C01092310353C08E0178
:1015200001581F4F892B51F48A859B85892B31F4F3
:101530008C859D85892B11F4232BA1F1F8018081E5
:101540009181A281B381892B8A2B8B2B39F40E9444
:101550002D1FF8016083718382839383F801C0801B
:10156000D180E280F380F4EFCF0EF1E0DF1EE11CCA
:10157000F11C0E942D1F6C157D058E059F05B8F48A
:10158000F801C080D180E280F380F8ECCF0ED11C4E
:10159000E11CF11C0E942D1FC616D706E806F906AD
:1015A00030F410C0F8011082118212821382CE0131
:1015B000DF91CF911F910F91FF90EF90DF90CF902F
:1015C0000C94D60980E0DF91CF911F910F91FF908D
:1015D000EF90DF90CF900895FC01E45BFF4F808196
:1015E00091810E94330A813459F0823461F084344D
:1015F00069F0833271F08A3279F080E090E00895EA
:1016000083E090E0089584E090E0089581E090E028
:10161000089582E090E0089585E090E00895CF92EB
:10162000DF92EF92FF920F931F93FC01662381F1EB
:101630008485882389F14481558166817781C090B2
:10164000A002D090A102E090A202F090A302452B4C
:10165000462B472B21F4C482D582E682F78242854D
:101660005385052E000C660B770B048115812681AE
:101670003781400F511F621F731F4C155D056E05AA
:101680007F0550F41486148215821682178205C0D5
:10169000148215821682178280E01F910F91FF90AD
:1016A000EF90DF90CF9008950F931F93FC01662376
:1016B00091F18485811133C080819181A281B381B0
:1016C0000091A0021091A1022091A2023091A302E8
:1016D000892B8A2B8B2B21F4008311832283338364
:1016E00080859185092E000CAA0BBB0B408151818E
:1016F00062817381840F951FA61FB71F8017910702
:10170000A207B30760F481E0848785871082118285
:101710001282138205C0108211821282138280E02D
:101720001F910F9108950895CF92DF92EF92FF924B
:101730000F931F93CF93DF936C017A018B01C0E06D
:10174000D0E0CE15DF0589F0D8016D918D01D6016D
:10175000ED91FC910190F081E02DC6010995892B56
:1017600011F47E0102C02196ECCFC701DF91CF9129
:101770001F910F91FF90EF90DF90CF900895FC01A3
:10178000918D828D981761F0828DDF01A80FB11DB8
:101790005D968C91928D9F5F9F73928F90E00895DC
:1017A0008FEF9FEF0895FC01918D828D981731F096
:1017B000828DE80FF11D858D90E008958FEF9FEFEA
:1017C0000895FC01918D228D892F90E0805C9F4FC0
:1017D000821B91098F739927089584EB93E00E94EF
:1017E000E10B21E0892B09F420E0822F0895FC0110
:1017F000848DDF01A80FB11DA35ABF4F2C91848D9A
:1018000090E001968F739927848FA689B7892C93CE
:10181000A089B1898C9180648C93938D848D981369
:1018200006C00288F389E02D80818F7D8083089532
:10183000EF92FF920F931F93CF93DF93EC0181E020
:10184000888F9B8D8C8D981305C0E889F9898081DC
:1018500085FD24C0F62E0B8D10E00F5F1F4F0F7318
:101860001127E02E8C8DE8120CC00FB607FCFACFC2
:10187000E889F989808185FFF5CFCE010E94F70BB9
:10188000F1CF8B8DFE01E80FF11DE35AFF4FF0827F
:101890000B8FEA89FB898081806207C0EE89FF890E
:1018A0006083E889F98980818064808381E090E0A9
:1018B000DF91CF911F910F91FF90EF900895CF93FB
:1018C000DF93EC01888D8823C9F0EA89FB89808148
:1018D00085FD05C0A889B9898C9186FD0FC00FB61A
:1018E00007FCF5CF808185FFF2CFA889B9898C915B
:1018F00085FFEDCFCE010E94F70BE7CFDF91CF91AF
:10190000089580E090E0892B29F00E94ED0B811171
:101910000C9400000895DC0126E0629FA00DB11D2B
:10192000112490965C934E935F9721E091962C93AF
:101930009197FC01E459FF4F208131960190F0818D
:10194000E02D222331F0309749F0611107C0DC010E
:1019500002C0309719F05C968C910994089521E0AB
:1019600001C0220F6A95EAF7DC011C962C931C97A4
:101970001A965C934E931997ED91FC910084F18532
:10198000E02D60E009940E9463360F931F93CF937C
:10199000DF93EC010E942D1F688779878A879B87D8
:1019A000E881F9810680F781E02DCE01099597FF46
:1019B00017C00E942D1F088519852A853B85DC01EB
:1019C000CB01801B910BA20BB30B0C811D812E81CF
:1019D0003F8180179107A207B30710F38FEF9FEFA6
:1019E000DF91CF911F910F9108956F927F928F9207
:1019F0009F92AF92BF92CF92DF92EF92FF921F938E
:101A0000CF93DF931F92CDB7DEB73C01162FFC01B9
:101A100086E0689FE00DF11D112411A2878D90A131
:101A200081309105F9F01CF4892B51F04FC08230C0
:101A30009105B1F1039709F049C040E050E034C08E
:101A4000442309F443C041E050E0C3010E948B0CE1
:101A50000E942D1FF301E85AFF4F60837183828338
:101A6000938334C049830E942D1FF301E85AFF4F2E
:101A7000C080D180E280F3804B015C018C189D080E
:101A8000AE08BF08729680819181A0E0B0E04981E4
:101A900088159905AA05BB0518F442E050E004C07A
:101AA000411114C043E050E0612FC3010F90DF915A
:101AB000CF911F91FF90EF90DF90CF90BF90AF90AC
:101AC0009F908F907F906F900C948B0C0F90DF9174
:101AD000CF911F91FF90EF90DF90CF90BF90AF908C
:101AE0009F908F907F906F900895862F0C94221E68
:101AF000862F642F0C944B1E862F642F0C947B1E14
:101B0000CF92DF92EF92FF920F931F93CF93DF93C9
:101B100001E010E002C0000F111F6A95E2F77C019E
:101B20002FE6E20EF11C6C01ECE7CE0ED11CF601A3
:101B3000408150E03197608170E0C7010E94150735
:101B4000C7010E94C003EC01F6018081823040F0A1
:101B5000C7010E94C00320E030E0382FC22BD32BF6
:101B6000C023D12381E090E0C017D10711F080E0BD
:101B700090E0DF91CF911F910F91FF90EF90DF9058
:101B8000CF900895CF92DF92EF92FF920F931F9321
:101B9000CF93DF938C0181E090E002C0880F991F02
:101BA0006A95E2F7E801C358DF4F442329F0288102
:101BB0003981822B932B06C080959095288139819D
:101BC0008223932399838883C880D980F801E558BC
:101BD000FF4F808178019FE6E90EF11C91E0909320
:101BE0006C0380936B0310926A0310926903D70110
:101BF000ED91FC910190F081E02D6C2DC7010995CC
:101C0000F801E458FF4F8081823048F0D701ED9110
:101C1000FC910190F081E02D6D2DC7010995C70160
:101C20000E94B806C882D982DF91CF911F910F918F
:101C3000FF90EF90DF90CF900895EF92FF920F9377
:101C40001F93CF938C01FC01759684E0C0E060FF88
:101C500002C09081C92B6695815031968111F7CFD2
:101C6000413011F4F8014489F8018585C82BC42B53
:101C70007801FEE0EF0EF11CF80162896C2BC701C0
:101C80000E940B17F801628960956C23C701CF9100
:101C90001F910F91FF90EF900C940B170F931F93D0
:101CA000CF93DF93062F0F70423019F440E0602F7E
:101CB00010C0142F262FEC0130E0B90184E0759597
:101CC00067958A95E1F7CE010E941D0E412F602F86
:101CD000CE01DF91CF911F910F910C941D0EFC014D
:101CE00084858823A9F0218532852115310519F4D1
:101CF000611106C007C02130310521F4611102C015
:101D0000858701C015866585CF010E960C940B174B
:101D10000895CF93DF93FC0124813581232B71F04B
:101D2000FB01DC01CD91DC9160817181CE010E94CB
:101D30009736009719F08C1B9D0B02C08FEF9FEF19
:101D4000DF91CF910895FC012481358162177307DB
:101D500048F480819181009729F0FC01E60FF71F7C
:101D60008081089580E008950F931F93CF93DF93B0
:101D70008C01EB018617970771F1FC01808191813D
:101D80000097B1F0688179816115710579F0428120
:101D900053812C813D814217530740F00E948136C8
:101DA0008C819D81F8019583848313C00E94013545
:101DB00088819981F801918380838A819B819383B3
:101DC00082838C819D8195838483198218821B82F2
:101DD0001A821D821C82C801DF91CF911F910F9141
:101DE00008950F931F93CF93DF93EC01888199811E
:101DF000009729F02A813B812617370788F48B0149
:101E00006F5F7F4F0E949935009761F099838883B7
:101E10001B830A832C813D81232B11F4FC0110824A
:101E200081E001C080E0DF91CF911F910F91089573
:101E3000CF93DF93EC0188819981009711F00E9484
:101E40000135198218821D821C821B821A82DF9141
:101E5000CF910895EF92FF920F931F93CF93DF934B
:101E6000EC017B018A01BA010E94F10E811104C0CC
:101E7000CE010E94180F07C01D830C83B701888113
:101E800099810E948136CE01DF91CF911F910F91F0
:101E9000FF90EF900895FC01808191810C940135B1
:101EA000FC01118210821382128215821482611544
:101EB000710551F0FB0101900020E9F73197AF0166
:101EC000461B570B0C942A0F0895BF92CF92DF92B6
:101ED000EF92FF920F931F93CF93DF937C016B01DF
:101EE000EA0189012417350720F48D2FE901042F19
:101EF000182F69EA71E0C7010E94500FD6011496AD
:101F00008D919C911597C817D90748F580179107AF
:101F100008F48C01D601ED91FC911197E00FF11FAF
:101F2000B08010824D915C91BA016C0F7D1F6115DC
:101F3000710561F0FB0101900020E9F73197AF01D5
:101F4000461B570BC7010E942A0F03C0C7010E94FE
:101F5000180FD601ED91FC91E00FF11FB082C7017F
:101F6000DF91CF911F910F91FF90EF90DF90CF9075
:101F7000BF900895CF92DF92EF92FF920F931F933D
:101F8000CF93DF9300D0CDB7DEB78C016B0169EA48
:101F900071E00E94500FC6010E94C50C97FD1EC043
:101FA00089831A82F801E480F580FFEFEF1AFF0AB7
:101FB000B701C8010E94F10E882369F3F80120815E
:101FC000318184819581BE016F5F7F4F820F931FA6
:101FD0000E948136F801F582E482DDCFC8010F90BE
:101FE0000F90DF91CF911F910F91FF90EF90DF90B5
:101FF000CF900895DC01ED91FC910190F081E02DEE
:102000000994EF92FF920F931F93CF93DF938C016C
:102010007B01C0E0D0E0F701EC0FFD1F6491662367
:1020200061F0D801ED91FC910190F081E02DC801A3
:102030000995892B11F02196EECFCE01DF91CF913A
:102040001F910F91FF90EF9008956115710579F040
:10205000FB0101900020E9F73197AF01461B570BB8
:10206000DC01ED91FC910280F381E02D099480E088
:1020700090E008954F925F926F927F92EF92FF925D
:102080000F931F93CF93DF93CDB7DEB7A1970FB612
:10209000F894DEBF0FBECDBF7C01FA01CB0119A2BF
:1020A000223008F42AE08E010F5D1F4F422E512C82
:1020B000612C712CBF01A30192010E942533F9010B
:1020C000CA01015011096A3014F4605D01C0695CF5
:1020D000D8016C93232B242B252B61F7B801C70162
:1020E0000E942510A1960FB6F894DEBF0FBECDBF9B
:1020F000DF91CF911F910F91FF90EF907F906F90A4
:102100005F904F9008950C9425101F920F920FB678
:102110000F9211242F933F934F935F936F937F936D
:102120008F939F93AF93BF93EF93FF9384EB93E0D1
:102130000E94F70BFF91EF91BF91AF919F918F910B
:102140007F916F915F914F913F912F910F900FBEB3
:102150000F901F9018951F920F920FB60F92112497
:102160002F938F939F93EF93FF93E091C403F0918C
:10217000C5038081E091CA03F091CB0382FD12C0B8
:1021800090818091CD038F5F8F732091CE03821752
:1021900051F0E091CD03F0E0EC54FC4F958F80932B
:1021A000CD0301C08081FF91EF919F918F912F917D
:1021B0000F900FBE0F901F9018952F923F924F9245
:1021C0005F926F927F928F929F92AF92BF92CF92C7
:1021D000DF92EF92FF920F931F93CF93DF93CDB7D0
:1021E000DEB72A970FB6F894DEBF0FBECDBF9A8731
:1021F00089870E942D1F29853A85245A3F4F3A83AB
:102200002983D9010D911D912D913C91AB01BC0108
:10221000401B510B620B730BE985FA85E859FF4FA0
:1022200080819181A0E0B0E010E084179507A607B7
:10223000B70708F05FC169847A84F6E66F0E711CF7
:10224000E984FA8422E6E20EF11CD3018C9118177E
:10225000A0F4E985FA8580819181F701A081B1819F
:10226000A10FB11DFC012081318142E06C91898573
:102270009A85F90109951F5FE8CF10E029843A8417
:10228000B7E62B0E311CE984FA84E4E6EE0EF11C6D
:10229000812C912C5401839429853A852E593F4FE6
:1022A0003C832B83F1018081181708F08DC0C12E6B
:1022B000D12CA985BA858D919C91F701A081B1811E
:1022C000AC0DBD1DFC012081318141E06C918985FF
:1022D0009A85F9010995A985BA858D919C91F70197
:1022E000A081B181AC0DBD1DFC012281338140E094
:1022F0006C9189859A85F9010995D501C401012E52
:1023000004C0880F991FAA1FBB1F0A94D2F7AC0103
:102310009C012095309500E0F3018081A985BA8564
:10232000ED91FC91081770F5802F90E0AB81BC8196
:102330006D917C912C01DB01A40DB51D0480F5810C
:10234000E02D6C9189859A852F8338874D835E8334
:102350000995440C551C2F8138854D815E81E98596
:10236000FA85E40DF51D892B29F480859185842B50
:10237000952B04C080859185822393239187808744
:102380000F5FCACFD7018D919C91DC01AC0DBD1DB3
:102390000280F381E02D41E06C9189859A85099551
:1023A000A985BA85ED91FC91D7018D919C91DC01B5
:1023B000AC0DBD1D0190F081E02D40E06C91898550
:1023C0009A8509951F5F6ECFE984FA84FCE1EF0ED0
:1023D000F11C89859A85885A9F4FF7012FEF3FEFAF
:1023E00043815481452B21F410823283218315824D
:1023F0003696E817F907A1F7B12CC984DA8420E6EC
:10240000C20ED11C86E0A82EF3018081B81608F018
:1024100059C0912C09851A850B0D111D0B0D111D2D
:10242000085F1F4FD1018C91981608F049C0D80160
:102430004D915C91092C02C0569547950A94E2F79C
:1024400041705527B89EC0011124890D911DD601F8
:10245000ED91FC91E80FF91FA081E985FA8560E014
:10246000258D368D2817390721F4417089859A8585
:102470001CC06F5F36966A3099F7452BF9F0F7016B
:1024800060E070E02081211113C0A69EF001A79E9C
:10249000F00D112429853A85E20FF31FA48F968F42
:1024A000858F10A2178E41E0C9010E94F50C06C06D
:1024B0006F5F7F4F36966A30710521F79394B2CFE4
:1024C000B394A2CFE985FA85B19689859A85835A16
:1024D0009F4F10E02081211111E03696E817F9078F
:1024E000C9F70E942D1FA981BA816D937D938D93A9
:1024F0009C931397812F2A960FB6F894DEBF0FBED8
:10250000CDBFDF91CF911F910F91FF90EF90DF90A2
:10251000CF90BF90AF909F908F907F906F905F9083
:102520004F903F902F9008958F929F92AF92BF92BD
:10253000CF92DF92EF92FF92CF93DF93A0914E055F
:10254000882311F03A2F01C030E080914F0590E0D0
:10255000880F991F845D9A4FC0905405D0905505FF
:10256000E0905605F090570540E050E0BA01FC01BC
:10257000C591D49128812A2323130FC04A015B01FE
:102580002FEF821A920AA20AB20A4C155D056E0557
:102590007F0538F4B501A401EACF342F252FCB01F4
:1025A00004C030E020E080E090E0632F722FDF91E4
:1025B000CF91FF90EF90DF90CF90BF90AF909F9022
:1025C0008F9008959091B3039111FCCF91E0909377
:1025D000B3039093B2032FEF2093B1031092B00393
:1025E000260F2093AF039093AE039091AE03880F14
:1025F000892B8093AE038091AD03813061F41092FA
:10260000AD038091AE038093BB008091BC0083FD3D
:10261000F8CF85EC01C085EE8093BC008091B303B8
:102620008130E1F38091B003861710F46091B0031C
:10263000ADE8B3E02DE633E0F9018E2F821B86175B
:1026400018F48D918193F9CF862F0895CF93DF935E
:10265000CDB7DEB728970FB6F894DEBF0FBECDBF5B
:102660001D8290E49E8324E12F8324E5288719822C
:102670009A8390E19B8390E59C839091B2046917C3
:1026800010F06FEF690F4091B304262F30E0FE0188
:10269000E20FF31F403121F4943011F4918101C015
:1026A0009581682F690F60688BEA94E028960FB6D1
:1026B000F894DEBF0FBECDBFDF91CF910C946D16A5
:1026C0008F929F92AF92BF92CF92DF92EF92FF9242
:1026D0000F931F93CF93DF93EC016A017B019A0163
:1026E000AB01C701B6010E946734882319F060E787
:1026F00072E027C046015701E894B7F82FEF3FEF8B
:102700004FE75FE7C501B4010E94673481110DC036
:102710002FEF3FEF4FE75FE7C501B4010E94A639F5
:1027200018161CF464E772E00CC02FEF3FEF4FE780
:102730005FE4C701B6010E94623418168CF468E7A2
:1027400072E0CE01DF91CF911F910F91FF90EF903A
:10275000DF90CF90BF90AF909F908F900C942510FA
:102760002FEF3FEF4FE75FECC701B6010E94A6399C
:1027700087FDE5CF20E030E0A901C701B6010E9446
:10278000A63987FF0AC06DE2CE010E94FA0F8C01C4
:10279000F7FAF094F7F8F09402C000E010E02AE0B5
:1027A00037ED43EA5BE3C701B6010E944E336B018C
:1027B0007C010E9433344B015C010E94AB399B01C8
:1027C000AC01C701B6010E944D336B017C012AE0C8
:1027D000B501A401CE010E943A10080F191F6CE741
:1027E00072E0CE010E942510080F191F20E030E092
:1027F00040E251E4C701B6010E940C3A4B015C0172
:102800000E9433346B01E12CF12C2AE0B701A601C0
:10281000CE010E943A10080F191FC701B6010E948D
:10282000AB399B01AC01C501B4010E944D3320E0DE
:1028300030E040E251E40E940C3A0E943334AB0194
:1028400060E070E02AE0CE010E943A10800F911FF4
:10285000DF91CF911F910F91FF90EF90DF90CF907C
:10286000BF90AF909F908F900895CF93DF93BC015E
:1028700084EB93E00E940110EC0167EA71E084EBC5
:1028800093E00E9425108C0F9D1FDF91CF9108953A
:1028900081E080936C0388E680936B0310926A0357
:1028A000109269036FE081E594E00E943E0481E5A7
:1028B00094E00E94B80661E088E60E94E21210925D
:1028C00068038093670381E594E00E94C003089544
:1028D000CF92DF92EF92FF920F931F93CF93DF93EC
:1028E000CDB7DEB7C054D1400FB6F894DEBF0FBEEF
:1028F000CDBF0E942D1F00915005109151052091D0
:102900005205309153056B017C01C01AD10AE20ACD
:10291000F30A40EDC41647E0D406E104F10418F4CC
:1029200080915805BCC06093500570935105809309
:1029300052059093530510924B0510924A05109240
:102940004905109248051092470561E080914C05B9
:102950000E944B1E6AEF70E080E090E00E94F31E40
:1029600061E080914C050E947B1E60E080914C05E7
:102970000E944B1E64E170E080E090E00E94F31E34
:10298000F89461E080914C050E944B1E8BE990E029
:102990000197F1F762E080914C050E947B1E83E273
:1029A00090E00197F1F780E00E949412672B682B6A
:1029B000692B21F41092580578943EC081E00E9462
:1029C0009412672B682B692BA9F38E010F5F1F4FA1
:1029D0006E018FEBC81A8EEFD80A780180E00E9452
:1029E0009412F701608371838283938381E00E9454
:1029F0009412F7016483758386839783F8E0EF0E62
:102A0000F11CEC14FD0451F7789420E030E0F8015B
:102A10004081518162817381C480D580E680F780D6
:102A2000411551056105710529F0C114D104E10476
:102A3000F10421F41092580580E031C0F90183E0DF
:102A4000F595E7958A95E1F7E95BFA4F8081880F64
:102A50004C155D056E057F0508F4816080832F5F4E
:102A60003F4F085F1F4F2832310589F620914B05F3
:102A700030E0409147058091480590E0840F911D1A
:102A800040914905840F911D40914A05840F911D85
:102A900099272817390771F681E080935805C05CA3
:102AA000DE4F0FB6F894DEBF0FBECDBFDF91CF91E2
:102AB0001F910F91FF90EF90DF90CF900895E091DC
:102AC0008804F0918904309709F009940895CF9211
:102AD000DF92EF92FF920F931F93CF93DF93FC014E
:102AE0007196C491C1503196C590D490E62EF12CC8
:102AF000F701EE0FFF1FEC0DFD1D85919491909352
:102B000068048093670400E010E0D0E040E150E00A
:102B100060E270E08CE894E00E94713621E030E0E1
:102B200040E050E00115110529F460E070E08EE707
:102B300092E004C061E070E080E892E00E945F15DE
:102B4000F801EE0DFF1DCE17DF0764F0EE0FFF1F3B
:102B5000EC0DFD1D6591749140E150E08CE894E02E
:102B60000E94D13620E130E041E050E0B8018CE82D
:102B700094E00E945F150130110519F001E010E0AA
:102B8000C5CFDF91CF911F910F91FF90EF90DF9014
:102B9000CF900895DC01ED91FC910284F385E02D46
:102BA00041E0099581E090E008950895089520910D
:102BB0008402309185022817390771F490918202BE
:102BC00080918302981741F0E0918202F0E0E35196
:102BD000FA4F808190E008958FEF9FEF0895089558
:102BE0001F93CF93DF93DC015C962D913C915D9711
:102BF0002115310539F481E090E013969C938E9372
:102C000012973DC05196ED91FC91529750969C9130
:102C10005097892F80951FB75E964C915E9741FB28
:102C2000772770F941FD6095F8944081772311F082
:102C3000492B01C048234083E9012197F1F748E07F
:102C4000508160FF02C0592B01C058235083E90115
:102C50002197F1F76695415099F7772321F09081FC
:102C60008923808303C08081982B90831FBF5C964B
:102C70008D919C915D970197F1F721E030E0C901BA
:102C8000DF91CF911F910895EF92FF920F931F93C1
:102C9000CF93DF937C018C01C0E0D0E0F8018689FE
:102CA0000E94221E892B51F42696CC0FDD1FCC0FDB
:102CB000DD1FCE0DDF1D8881998108C021960C5F34
:102CC0001F4FC530D10551F780E090E0DF91CF91E3
:102CD0001F910F91FF90EF900895DC01ED91FC9111
:102CE0000284F385E02D40E00994DC01ED91FC9134
:102CF0000084F185E02D6FEF099461E00E946D166C
:102D00008BE39FE10197F1F708950F931F93CF9302
:102D1000DF93EC01423018F08C8188608C834F8304
:102D20006887222329F0413019F48C8184608C83D8
:102D300064E670E080E090E00E94F31E6C8164FD28
:102D400031C0E881F9810284F385E02D42E063E03F
:102D5000CE0109958BE496E40197F1F7E881F981BA
:102D60000284F385E02D42E063E0CE01099503E59E
:102D700012E0C8010197F1F7E881F9810284F38537
:102D8000E02D42E063E0CE010995C8010197F1F71B
:102D9000E881F9810284F385E02D42E062E0CE0112
:102DA000099517C06062CE010E946D168BE496E40F
:102DB0000197F1F76C816062CE010E946D1603E508
:102DC00012E0C8010197F1F76C816062CE010E94A8
:102DD0006D16C8010197F1F76C816062CE010E9407
:102DE0006D168BEE90E00197F1F784E08D836CE037
:102DF000CE010E946D16CE010E947D1682E08E8368
:102E000066E0CE010E946D16CE01DF91CF911F9139
:102E10000F910C947516FC0123812223C9F0918136
:102E2000909569236083828191E090936C038093F5
:102E30006B0310926A031092690381E594E00E948B
:102E40003E0481E594E00E94B806282F30E002C0DD
:102E500020E030E081E090E0232B11F080E090E072
:102E60000895FF920F931F93CF93DF93EC01162FDA
:102E7000042FF22E8B85888B81E594E00E94210738
:102E8000888991E090936C0380936B0310926A039E
:102E90001092690381E594E00E94B80691E08111E7
:102EA00090E0998B992329F081E594E00E94C0037A
:102EB0008E878989882339F01F861C8260E0CE01C5
:102EC0000E960E940B172F2D402F612FCE01DF9100
:102ED000CF911F910F91FF900C948516CF92DF92A6
:102EE000FF920F931F93CF93DF931F92CDB7DEB75F
:102EF0008C010D5F1F4FF62E6B018C2D8F198417DF
:102F000058F4C80149830E94CA3AF60181936F01BF
:102F10000F5F1F4F4981F1CF0F90DF91CF911F912C
:102F20000F91FF90DF90CF900895CF92DF92FF92A4
:102F30000F931F93CF93DF931F92CDB7DEB78C0112
:102F40000D5F1F4FF62E6B018C2D8F19841758F4CF
:102F5000F60161916F01C80149830E94D23A0F5F67
:102F60001F4F4981F1CF60E080E090E00F90DF914A
:102F7000CF911F910F91FF90DF90CF900C94D23A98
:102F8000CF93DF931F92CDB7DEB769830B96FC0119
:102F900085919491009729F0BE016F5F7F4F0E9449
:102FA00081080F90DF91CF910895CF92DF92EF9239
:102FB000FF920F931F93CF93DF93EC0181E08093F7
:102FC0006C0388E680936B0310926A031092690386
:102FD00060E081E594E00E943E0481E594E00E9477
:102FE000B80647E050E068E670E081E594E00E94B2
:102FF000150781E594E00E94C0038F77982F929582
:103000009F701AEF082F919F000D112481E594E025
:103010000E94C0039C01332794E0359527959A952B
:10302000E1F7F82E129FF00C112481E594E00E9444
:10303000C0039C01332744E0359527954A95E1F775
:10304000E82E129FE00C112481E594E00E94C00359
:1030500081E594E00E94C0039C01332754E035953C
:1030600027955A95E1F7D82E129FD00C112481E5AF
:1030700094E00E94C0039C01332764E035952795B6
:103080006A95E1F7C82E129FC00C112481E594E0E7
:103090000E94C0039C01332774E0359527957A95EB
:1030A000E1F7129F800D11248883C982DA82EB82B6
:1030B000FC820D83CE01DF91CF911F910F91FF9084
:1030C000EF90DF90CF900895FF920F931F93CF93CF
:1030D000DF938C01FF24F394F0926C03D8E6D09335
:1030E0006B0310926A031092690360E081E594E03B
:1030F0000E943E04F8012581CAE0822F6C2F0E94B5
:10310000F132682F660F860F682F660F620F81E518
:1031100094E00E943E04F8012481822F6C2F0E94CB
:10312000F132682F660F860F682F660F620F81E5F8
:1031300094E00E943E04F8012381822F6C2F0E94AC
:10314000F132682F660F860F682F660F620F81E5D8
:1031500094E00E943E0460E081E594E00E943E0419
:10316000F8012281822F6C2F0E94F132682F660FA6
:10317000860F682F660F620F81E594E00E943E047F
:10318000F8012181822F6C2F0E94F132682F660F87
:10319000860F682F660F620F81E594E00E943E045F
:1031A000F8012081822F6C2F0E94F132682F660F68
:1031B000860F682F660F620F81E594E00E943E043F
:1031C00081E594E00E94B8060E944814C82FF0924E
:1031D0006C03D0936B0310926A03109269036FE043
:1031E00081E594E00E943E046C2F6F7781E594E0C6
:1031F0000E943E0481E594E0DF91CF911F910F91F1
:10320000FF900C94B806FC01908190539A3008F01E
:1032100090E0818180532AE0929F800D11240895CF
:10322000CF92DF92EF92FF92CF93DF93EC01CB012D
:10323000BA01605873448D4698432CE3C22ED12CBA
:10324000E12CF12CA70196010E9425336D83CA0160
:10325000B901A70196010E9425336C83CA01B90107
:1032600028E130E040E050E00E9425336B83188273
:1032700063E97EEF8881482F437091E009F090E088
:10328000492F50E0FA01E359FE4F2E173F0740F057
:10329000FB01E41BF50B2E0F3F1F8F5F8883EACFE6
:1032A00081E089838981E82FF0E0EF58FA4FE491BB
:1032B000992319F0823009F4EF5FF0E02E173F07F1
:1032C00020F02E1B3F0B8F5FECCF2F5F2A83DF9107
:1032D000CF91FF90EF90DF90CF9008950F931F93C1
:1032E000CF93DF938C01EB018885882331F069EA65
:1032F00071E0C8010E94500F2AC0198218828EEC1A
:1033000095E00E94770328813981892B81F4203E42
:103310008EE2380764F46DE070E080E090E00E9497
:10332000F31E88819981019699838883E8CF2131A2
:10333000374214F081E088878EEC95E00E94770395
:10334000892B29F06EEC75E0C8010E94BA0FC80104
:10335000DF91CF911F910F910895CF92DF92EF925D
:10336000FF926B01770FEE08FF08F7FE0EC06DE2CB
:103370008EEC95E00E94FA0F44275527BA014C19AC
:103380005D096E097F092AE003C02AE0B701A601A2
:103390008EEC95E0FF90EF90DF90CF900C943A1078
:1033A000833081F028F4813099F08230A1F00895C3
:1033B0008730A9F08830B9F08430D1F48091800052
:1033C0008F7D03C0809180008F7780938000089567
:1033D00084B58F7702C084B58F7D84BD08958091B8
:1033E000B0008F7703C08091B0008F7D8093B000D4
:1033F00008950F931F93CF938C01C62F40E150E0A7
:1034000060E270E08CE894E00E947136C730D9F138
:10341000C830D9F1C11107C0F80180814AE06CE8D9
:1034200074E090E013C0C13049F44AE06CE874E005
:10343000F801808191810E94DA3635C0C23049F4AA
:103440004AE06CE874E0F801808191810E941637AF
:103450002AC0C33059F4F80160817181828193815F
:103460002AE04CE854E00E94E5361DC0C43079F4EF
:10347000F80160817181828193812AE04CE854E0F7
:103480000E94F43610C022E003C023E001C021E016
:1034900042E0420FF80160817181828193810CE8E2
:1034A00014E00E94B13620E130E040E050E061E0FD
:1034B00070E08CE894E0CF911F910F910C945F1510
:1034C00040E150E060E270E08CE894E00E947136E8
:1034D00080919E04813039F48FE49EE690938D04B0
:1034E00080938C0409C08FE496E6A6E680938C0452
:1034F00090938D04A0938E0420E130E040E050E0F2
:1035000061E070E08CE894E00C945F151F93CF931A
:10351000DF93182FD92FC62F40E150E060E270E012
:103520008CE894E00E947136E12FFD2FEC0FF11D25
:10353000EC0FF11D659174916F5F7F4F4FE050E08C
:103540008CE894E00E94D13620E130E040E050E089
:1035500061E070E08CE894E0DF91CF911F910C94D2
:103560005F150F931F93CF93DF93EC01FC017096CF
:103570001491113009F098C01093640440E150E0B8
:10358000BC018CE894E00E94D13620E130E040E0BC
:1035900050E060E070E08CE894E00E945F15FE016E
:1035A000729685919491FC0164913996A591B4919C
:1035B000611104C08C9180939E046FC08FEF860FC1
:1035C000823040F48D919C9111979093A404809344
:1035D000A30463C08DEF860F823070F40D911D91AE
:1035E0002D913C91139700939F041093A004209376
:1035F000A1043093A20451C0693031F5FD01339626
:10360000C591D491FD0185919491FC018081FD01CA
:103610003296A4919E0160E090E09A1761F0F90162
:1036200045915491FA014491481301C0692F9F5F5D
:103630002E5F3F4FF2CF60939E04CE01DF91CF917A
:103640001F910F910C94861A6A30D1F4FD013196C6
:10365000C591D491FD01A491888190E002C0959517
:103660008795AA95E2F780FF03C010939E0402C0DD
:1036700010929E04DF91CF911F910F910C94601ACC
:103680000D911D912D913C9113970093A5041093DA
:10369000A6042093A7043093A804CD01DF91CF9115
:1036A0001F910F910C94F919111134C061112EC0A2
:1036B0002091690430916A048217930739F180914F
:1036C0006D0490916E04892B79F080916F04909134
:1036D0007004892B61F08091710490917204892BA0
:1036E00079F482E090E005C080E090E002C081E0E3
:1036F00090E0880F991FFC01E359FB4F3183208331
:10370000D0936A04C093690410928704609187047F
:10371000CE0114C01230D9F46296FE0185919491C5
:10372000009711F0FC01099580916304882361F0F2
:10373000609187048091690490916A04DF91CF9130
:103740001F910F910C94671581E080936604DF91BF
:10375000CF911F910F9108952F923F924F925F92B8
:103760006F927F928F929F92AF92BF92CF92DF9291
:10377000EF92FF921F93CF93DF93CDB7DEB764979D
:103780000FB6F894DEBF0FBECDBF4296FC01859107
:103790009491FC011491359685909590A590B490E4
:1037A000FC0131964590559065907490643009F411
:1037B00028C22FEF260F223008F051C141E06130BE
:1037C00009F440E0193029F5FC013996259134912E
:1037D000F90132969491319625913491EFEFE90FEA
:1037E00090919E04442339F0911103C0E0939E040C
:1037F0000AC0915006C09E1303C010929E0403C0DD
:103800009F5F90939E0460919E04C9010E94861A56
:1038100001C21A3059F481E090919E04913009F46C
:1038200080E080939E040E94601AF4C1442319F042
:103830002FEF3FEF02C021E030E062017301809181
:103840009C0490919D04289F1001299F300C389F63
:10385000300C11249101032C000C440B550BCA01B0
:10386000B901298B3A8B4B8B5C8B0E94AD3929892E
:103870003A894B895C89163029F420E030E040E237
:1038800051E406C0173039F420E030E048EC52E44F
:103890000E94BA339DC0183029F420E030E04AE796
:1038A00054E4F6CF111126C080919E04820D81143C
:1038B0009104A104B10441F4C114D104E104F10460
:1038C00019F480939E0413C090E0A0E0B0E0C81605
:1038D000D906EA06FB064CF02C013D018815990536
:1038E000AA05BB0514F42401350140929E048EE91B
:1038F00094E0B1C0113011F0123071F58091A30441
:103900009091A404820D931D81149104A104B1042B
:1039100051F4C114D104E104F10429F49093A404F6
:103920008093A30416C0092E000CAA0BBB0BC8166B
:10393000D906EA06FB064CF02C013D0188159905D5
:10394000AA05BB0514F4240135014092A30450924A
:10395000A40483EA94E07FC0133011F01430C1F561
:1039600080919F049091A004A091A104B091A20421
:10397000820F931FA41FB51F81149104A104B104E9
:1039800071F4C114D104E104F10449F480939F045B
:103990009093A004A093A104B093A20416C0C816EB
:1039A000D906EA06FB064CF06C017D0188159905E5
:1039B000AA05BB0514F475016401C0929F04D0925E
:1039C000A004E092A104F092A2048FE994E043C025
:1039D0002091A5043091A6044091A7045091A80419
:1039E0000E944E332B013C0181149104A104B104C7
:1039F00041F4C114D104E104F10419F4CB01D30161
:103A000020C0C701B6010E94AD396B017C019B014A
:103A1000AC01B201C3010E946234181684F0C501E2
:103A2000B4010E94AD396B017C019B01AC01B20174
:103A3000C3010E94A63987FD02C062017301C6015D
:103A4000D7018093A5049093A604A093A704B093F4
:103A5000A80485EA94E0612F0E94F919DBC0633065
:103A600009F0D8C0FC013996A591B491193099F4A8
:103A7000FD0133962591349140919E04F901E40FA4
:103A8000F11DE40FF11D65917491FB016491FD013D
:103A9000A591B4912AC01A3021F5FD0131966591A6
:103AA0007491FD01A49120919E04FB01B081222319
:103AB00049F041E050E001C0440FAA95EAF74B2BD2
:103AC00040830AC021E030E001C0220FAA95EAF746
:103AD00020952B23FB012083FB0160810E94C017EE
:103AE00090C0111104C060919E046C93F7CF123006
:103AF000A9F42091A3043091A4042D933C93388B16
:103B00002F87FC013B9685919491009709F479C029
:103B1000BE01615F7F4F0E94780873C01130A1F42D
:103B20002091A3043091A4042D933C933E872D87CC
:103B3000FC013B9685919491009709F462C042E0A4
:103B4000BE01635F7F4F3CC01430E9F440919F0495
:103B50005091A0046091A1047091A2044D935D93D3
:103B60006D937C93139749875A876B877C87FC01F9
:103B70003B9685919491009709F443C044E0BE01BF
:103B8000675F7F4F1DC01330F1F440919F04509147
:103B9000A0046091A1047091A2044D935D936D9374
:103BA0007C9313974D835E836F837887FC013B96EC
:103BB00085919491009729F144E0BE016B5F7F4F9E
:103BC0000E9495171EC01530E0F04091A504509159
:103BD000A6046091A7047091A8044D935D936D9322
:103BE0007C93139749835A836B837C83FC013B96B8
:103BF00085919491009729F0BE016F5F7F4F0E94DD
:103C000075081092640461E08091690490916A04DF
:103C10000E94B11A64960FB6F894DEBF0FBECDBFF6
:103C2000DF91CF911F91FF90EF90DF90CF90BF90E9
:103C3000AF909F908F907F906F905F904F903F904C
:103C40002F900895CF93DF93282F30E0F901E857A4
:103C5000FA4F8491F901E65BFA4FD491F901EA5CDD
:103C6000FA4FC491CC2391F081110E94D019EC2F0E
:103C7000F0E0EE0FFF1FE45DFA4FA591B491EC91D7
:103C8000ED2381E090E021F480E002C080E090E04C
:103C9000DF91CF9108951F93CF93DF93282F30E0CA
:103CA000F901E857FA4F8491F901E65BFA4FD49194
:103CB000F901EA5CFA4FC491CC23C9F0162F8111A7
:103CC0000E94D019EC2FF0E0EE0FFF1FEE5DFA4FCF
:103CD000A591B4918FB7F894111105C09C91ED2F67
:103CE000E095E92302C0EC91ED2BEC938FBFDF91BF
:103CF000CF911F910895CF93DF9390E0FC01E65B95
:103D0000FA4F2491FC01EA5CFA4F8491882361F117
:103D100090E0880F991FFC01E258FA4FC591D491A9
:103D2000FC01EE5DFA4FA591B491611109C09FB7F6
:103D3000F8948881209582238883EC912E230BC0F0
:103D4000623061F49FB7F8943881822F8095832385
:103D50008883EC912E2B2C939FBF06C08FB7F894CD
:103D6000E8812E2B28838FBFDF91CF9108958E306D
:103D700008F08E508770806480937C0080917A0078
:103D8000806480937A0080917A0086FDFCCF8091D8
:103D900078002091790090E0922B08953FB7F89435
:103DA0008091320690913306A0913406B091350689
:103DB00026B5A89B05C02F3F19F00196A11DB11D86
:103DC0003FBFBA2FA92F982F8827820F911DA11DC1
:103DD000B11DBC01CD0142E0660F771F881F991FFE
:103DE0004A95D1F708958F929F92AF92BF92CF924A
:103DF000DF92EF92FF926B017C010E94CE1E4B017D
:103E00005C01C114D104E104F104F1F00E94CE1E62
:103E1000DC01CB0188199909AA09BB09883E9340A6
:103E2000A105B10570F321E0C21AD108E108F1083B
:103E300088EE880E83E0981EA11CB11CC114D10429
:103E4000E104F10419F7DDCFFF90EF90DF90CF9000
:103E5000BF90AF909F908F9008952FB7F894609186
:103E60002E0670912F0680913006909131062FBF5B
:103E700008951F920F920FB60F9211242F933F9324
:103E80008F939F93AF93BF9380912E0690912F06AF
:103E9000A0913006B091310630912D0623E0230F1A
:103EA0002D3720F40196A11DB11D05C026E8230F72
:103EB0000296A11DB11D20932D0680932E0690938E
:103EC0002F06A0933006B093310680913206909170
:103ED0003306A0913406B09135060196A11DB11D9F
:103EE0008093320690933306A0933406B093350640
:103EF000BF91AF919F918F913F912F910F900FBEE6
:103F00000F901F901895CF93DF93CDB7DEB76F97C3
:103F10000FB6F894DEBF0FBECDBF789484B5826033
:103F200084BD84B5816084BD85B5826085BD85B55D
:103F3000816085BD80916E00816080936E001092DB
:103F40008100809181008260809381008091810056
:103F500081608093810080918000816080938000E7
:103F60008091B10084608093B1008091B000816045
:103F70008093B00080917A00846080937A00809171
:103F80007A00826080937A0080917A0081608093C9
:103F90007A0080917A00806880937A001092C10044
:103FA00060E088E00E947B1E61E088E00E944B1E7A
:103FB00061E08DE00E947B1E61E089E00E947B1E33
:103FC00061E08AE00E947B1E61E08BE00E947B1E24
:103FD00061E08CE00E947B1EE091C403F091C50378
:103FE00082E08083E091C003F091C1031082E091F0
:103FF000C203F091C3038FEC80831092CC03E09155
:10400000C803F091C90386E08083E091C603F09174
:10401000C703808180618083E091C603F091C7036C
:10402000808188608083E091C603F091C70380811E
:1040300080688083E091C603F091C70380818F7D03
:10404000808380E090E00E94CA3A81119FC041E0E5
:1040500064E373E084E090E00E946E1765E673E02D
:1040600088E090E00E947E0863E673E08CE090E0D8
:104070000E947E0861E673E080E190E00E947E0885
:104080006FE573E084E190E00E947E0841E063E325
:1040900073E088E190E00E946E176BE573E08CE1BD
:1040A00090E00E947B0867E573E080E290E00E9468
:1040B0007B0841E062E373E084E290E00E946E17C7
:1040C00063E573E088E290E00E947B086FE473E0B0
:1040D0008CE290E00E947B0841E061E373E080E3C2
:1040E00090E00E946E176DE473E084E390E00E941C
:1040F0007E086BE473E088E390E00E947E0869E448
:1041000073E08CE390E00E947E0867E473E080E453
:1041100090E00E947E0863E473E084E490E00E94F3
:104120007B086FE373E088E490E00E947B086BE318
:1041300073E08CE490E00E947B0867E373E080E525
:1041400090E00E947B0841E065E373E086E790E041
:104150000E946E1768E171E084E790E00E947E089B
:1041600041E066E373E084E590E00E946E1704E6A8
:1041700010E0B8016B507B4F41E0C8010E946E1700
:104180000F5F1F4F04371105A1F73BC11092340395
:1041900086E090E090936603809365031092640339
:1041A0001092630386E190E0909362038093610331
:1041B0001092600310925F0364E373E084E090E088
:1041C0000E94810865E673E088E090E00E9478082C
:1041D00063E673E08CE090E00E94780861E673E0AB
:1041E00080E190E00E9478086FE573E084E190E060
:1041F0000E9478081092330310925B0310925C03C4
:1042000010925D0310925E03C12CD12C68EAE62E59
:1042100061E4F62EC0925703D0925803E0925903FE
:10422000F0925A0363E373E088E190E00E94810812
:104230006BE573E08CE190E00E94750867E573E040
:1042400080E290E00E9475081092320380E090E0D6
:10425000A8EBB1E48093530390935403A0935503C8
:10426000B093560380934F0390935003A093510350
:10427000B093520362E373E084E290E00E9481080D
:1042800063E573E088E290E00E9475086FE473E0F4
:104290008CE290E00E9475081092310310924E0358
:1042A00010924D038EE190E090934C0380934B036A
:1042B00010924A0310924903909348038093470356
:1042C00061E373E080E390E00E9481086DE473E0B5
:1042D00084E390E00E9478086BE473E088E390E068
:1042E0000E94780869E473E08CE390E00E9478080B
:1042F00067E473E080E490E00E947808C092430392
:10430000D0924403E0924503F092460380E090E0AF
:10431000A8E9B1E480933F0390934003A093410345
:10432000B093420380E090E0A0E2B2E480933B03CC
:1043300090933C03A0933D03B0933E0380E090E054
:10434000A0E7B2E48093370390933803A093390336
:10435000B0933A0363E473E084E490E00E9475084C
:104360006FE373E088E490E00E9475086BE373E00C
:104370008CE490E00E94750867E373E080E590E0CC
:104380000E9475081A82198242E0BE016F5F7F4F5A
:1043900088E790E00E94951780E3898F04E610E09B
:1043A00041E0BE01675E7F4FC8010E9495170F5F15
:1043B0001F4F03371105A1F71B8A41E0BE016D5E57
:1043C0007F4F83E790E00E949517109235038FE0AE
:1043D00097E2909319018093180165E373E086E7F3
:1043E00090E00E94810868E171E084E790E00E941B
:1043F00078081092360366E373E084E590E00E944B
:10440000810881E594E00E9421071092E90510924D
:10441000E8051092E7051092E6051092E505109266
:10442000E4058DE991E09093EB058093EA05909186
:10443000DA05963108F057C02DEB30E03093E505F2
:104440002093E4052BE931E03093E7052093E6055E
:104450002CE231E03093E9052093E80520916800D3
:10446000983050F031E09E3008F430E081E001C037
:10447000880F3A95EAF701C084E0822B80936800A8
:10448000983038F09E3040F0963148F020E030E02F
:1044900008C02DE630E005C02BE630E002C02CE677
:1044A00030E03093E2052093E105983030F481E06C
:1044B00001C0880F9A95EAF70EC0292F30E09E3090
:1044C00018F42850310902C02E50310981E001C092
:1044D000880F2A95EAF78093E3058091EA05909189
:1044E000EB050197F1F78091E8059091E905892B9B
:1044F00021F1809184029091850225E08E3C920703
:10450000E1F0009711F00E94A2068091EC058E7FE9
:104510008093EC0510928302109282028EEC95E05B
:104520009093850280938402E091E105F091E20589
:1045300090818091E305892B80836DE081E00E946A
:104540007B1E6FEF70E085E795E00E94F10E88E03A
:1045500091E0909325058093240583E395E00E94E4
:1045600021074091400550E060913F0570E083E3F2
:1045700095E00E94150783E395E00E94C0039093A5
:1045800042058093410580914005823088F083E3A5
:1045900095E00E94C00320E030E0382F8091410573
:1045A00090914205822B932B909342058093410575
:1045B00020E042E060E18BEA94E00E94311762E083
:1045C00080914C050E947B1E80E398EFAFEFBFEF18
:1045D0008093500590935105A0935205B0935305D5
:1045E00081E594E00E9421070E94481490E0880F22
:1045F000892F881F990B8E010F5F1F4F892B09F49C
:1046000062C083EA90E00E9435144BE050E067E915
:1046100070E0C8010E94D136CE010A960E940319AB
:104620008B8BE9818E2FEE0F990BAA0BBB0BFC0134
:10463000E154F109E331F10540F5EC5CFF4F0C94D6
:1046400047338A81813639F08B818E3611F087E0CD
:104650001BC086E019C081E017C082E015C08B81C5
:10466000823711F088E010C084E00EC08B81823761
:1046700011F085E009C083E007C089E005C08AE049
:1046800003C08BE001C08CE08C8BCE0105960E94AC
:1046900003198D8B48E050E06EE870E0C8010E947D
:1046A000D136C8010E9403198E8BCE0104960E9458
:1046B00003198F8BCE0107960E940319888FCE01B4
:1046C00043960E946418C8010E94D51786E0F8013D
:1046D000A2ECB5E001900D928A95E1F70E942D1FA2
:1046E0006093A0027093A1028093A2029093A30210
:1046F00061E38AE891E00E94DA080E94830481EF76
:1047000095E0909389048093880483E894E09093E3
:104710008B0480938A0481E080936304CE014996E0
:104720007C0133E0232E312C4AE0C42ED12CC80169
:104730000E94D51786E0F801A2ECB5E001900D9239
:104740008A95E1F70E942D1F6093A0027093A10249
:104750008093A2029093A3028090C6029090C70219
:10476000A090C802B090C90224013501E8EE4E0EB7
:10477000E3E05E1E611C711C46165706680679064A
:1047800030F0681579058A059B0508F040C48091D2
:10479000C2029091C302A091C402B091C5020196D9
:1047A000A11DB11D8093C2029093C302A093C402C5
:1047B000B093C50280919F02882319F010929F0246
:1047C00003C081E080939F020E942D1F6093C60268
:1047D0007093C7028093C8029093C9026EE284EB83
:1047E00093E00E94FA0F4091A0025091A1026091C3
:1047F000A2027091A3028091BE029091BF02A0918B
:10480000C002B091C102805A9541AF4FBF4F84178B
:104810009507A607B70708F0FAC3809135038823E8
:1048200009F4F5C380916F0590917005A091710511
:10483000B0917205892B8A2B8B2B09F0E8C340932A
:10484000BE025093BF026093C0027093C102A09059
:104850006905B0906A0561ED70E08EEC95E00E940C
:1048600001106BE971E0CE0143960E94500FB50133
:10487000C8010E946E19BE016D5E7F4FC8010E9483
:10488000890E4C01C8010E944B0FCE0143960E9435
:104890004B0F8920809409F049C068EC70E08EECE1
:1048A00095E00E9401102AE045E150E060E070E0F0
:1048B0008EEC95E00E943A1069ED71E08EEC95E087
:1048C0000E948310B501C8010E946E19450122E0C3
:1048D000820E911CB801C4010E94B40EC8010E944E
:1048E0004B0F6EE971E0C8010E94500FB801C4017E
:1048F0000E94890E3C01C8010E944B0F6720609402
:10490000A9F01A8E198E1C8E1B8E1E8E1D8E8E1473
:104910009F0489F0F501628173816115710559F079
:1049200046815781C7010E942A0F05C069EA71E0DC
:10493000C7010E94500F8D8D9E8D892B09F464C391
:10494000E98DFA8D8081882309F45EC3A090690502
:10495000B0906A0563EB70E08EEC95E00E94011068
:10496000B501C8010E946E19B801C50102960E94E6
:10497000B40EC8010E944B0F64EA71E0C8010E94A6
:10498000500FC8010E944B0F80913503882309F412
:104990003BC34D8D5E8D698D7A8D84EB93E00E94D3
:1049A000940B67EA71E084EB93E00E9425106AEAB9
:1049B00071E0C8010E94500FB801C7010E94890E22
:1049C0005C01C8010E944B0FE0916D05F0916E05EE
:1049D000808191811C8A1B8A1E8A1D8A188E1F8ADB
:1049E0004AE0B8010E94DA36F80101900020E9F7A8
:1049F0003197AF01401B510BB801CE0143960E9485
:104A00002A0F95012A5F3F4FA5014E5F5F4FB70107
:104A1000C8010E94650F2D813E818F89988D2817CE
:104A2000390719F589819A816B897C89009719F07A
:104A300061157105A9F46115710551F02115310554
:104A400039F0FB01808190E09195819591090AC030
:104A5000009769F0232B59F0FC01808190E002C09F
:104A60000E94783621E0892B19F020E001C021E076
:104A7000C8012F8F0E944B0FCE0143960E944B0F0F
:104A80002F8D222309F4C0C26DEA71E0C8010E9493
:104A9000500FB801C7010E94890E4C01C8010E9445
:104AA0004B0F97FE1FC061EB71E0C8010E94500FD1
:104AB000B801C7010E94890E5C01C8010E944B0F1A
:104AC000B7FC56C0B5016E5F7F4FC7010E94A30EB1
:104AD00080538093350365E373E086E790E00E949E
:104AE000810846C0A0906B05B0906C052D8D3E8D61
:104AF000A4014F5F5F4FB701C8010E94650FA11469
:104B0000B104C1F08D809E808114910411F4F501EF
:104B100010C0FFE08F16910418F02FE0822E912C28
:104B200069817A81A401C5010E948836F501E80DEA
:104B3000F91D1082C8010E944B0FE0916B05F091A6
:104B40006C051686A12CB12C60916B0570916C05DB
:104B50006A0D7B1D41E0C5018C599F4F0E9495173E
:104B60002FEFA21AB20A40E1A416B10469F79BCF55
:104B700064EB71E0C8010E94500FB801C7010E94A8
:104B8000890E5C01C8010E944B0FB7FC14C0B5012F
:104B90006E5F7F4FC7010E94A30E813419F41092FB
:104BA000340309C0803311F481E003C0813319F468
:104BB00082E08093340367EB71E0C8010E94500FDC
:104BC000B801C7010E94890E5C01C8010E944B0F09
:104BD000B7FC14C0B5016E5F7F4FC7010E94A30EE2
:104BE000813419F41092330309C0803311F481E049
:104BF00003C0813319F482E0809333036AEB71E0E0
:104C0000C8010E94500FB801C7010E94890E5C01C3
:104C1000C8010E944B0FB7FC14C0B5016E5F7F4FF7
:104C2000C7010E94A30E813419F41092320309C007
:104C3000803311F481E003C0813319F482E0809362
:104C400032036DEB71E0C8010E94500FB801C7013B
:104C50000E94890E5C01C8010E944B0FB7FC14C072
:104C6000B5016E5F7F4FC7010E94A30E813419F416
:104C70001092310309C0803311F481E003C0813305
:104C800019F482E08093310360EC71E0C8010E9466
:104C9000500FB801C7010E94890E5C01C8010E9433
:104CA0004B0FB7FCB1C18CED90E00E9435148090A1
:104CB0006B0590906C05A0906905B0906A0563EC57
:104CC00071E08EEC95E00E948310B501C8010E944E
:104CD0006E19350182E0680E711CB801C3010E9493
:104CE000B40EC8010E944B0F6EEC71E08EEC95E0A3
:104CF0000E948310B4018EEC95E00E94831068ED51
:104D000071E08EEC95E00E948310B501C8010E940D
:104D10006E19B801C3010E94B40EC8010E944B0F66
:104D200068EA71E08EEC95E00E9483108091C005E6
:104D3000882331F06BED71E08EEC95E00E948310DA
:104D40008091B205882331F060EE71E08EEC95E041
:104D50000E9483108091A405882331F065EE71E0F4
:104D60008EEC95E00E94831080919605882331F0A7
:104D70006AEE71E08EEC95E00E94831080918805C8
:104D8000882331F06FEE71E08EEC95E00E94831085
:104D9000609134038091B9020E94840880938E024E
:104DA000609133038091B8020E94840880938D0241
:104DB000609132038091B7020E94840880938C0234
:104DC000609131038091B6020E94840880938B0227
:104DD00065EB71E08EEC95E00E94831080918E026D
:104DE000882311F061E301C060E38EEC95E00E943E
:104DF000FA0F80913403882311F06DE401C061E45F
:104E00008EEC95E00E94FA0F64EF71E08EEC95E075
:104E10000E94831080918D02882311F061E301C00C
:104E200060E38EEC95E00E94FA0F809133038823B3
:104E300011F06DE401C061E48EEC95E00E94FA0F80
:104E400067EF71E08EEC95E00E94831080918C02F8
:104E5000882311F061E301C060E38EEC95E00E94CD
:104E6000FA0F80913203882311F06DE401C061E4F0
:104E70008EEC95E00E94FA0F6AEF71E08EEC95E0FF
:104E80000E94831080918B02882311F061E301C09E
:104E900060E38EEC95E00E94FA0F80913103882345
:104EA00011F06DE401C061E48EEC95E00E94FA0F10
:104EB00068EA71E08EEC95E00E9483106DEF71E07E
:104EC0008EEC95E00E9483104091970250919802D9
:104ED0006091990270919A028EEC95E00E946013A5
:104EE00061E072E08EEC95E00E94831040919302A5
:104EF0005091940260919502709196028EEC95E02B
:104F00000E94601365E072E08EEC95E00E948310D1
:104F100040918F02509190026091910270919202A3
:104F20008EEC95E00E94601369E072E08EEC95E0F3
:104F30000E94831088E00E94221EBC0180916905B6
:104F400090916A050E94AD196DE072E08EEC95E0DB
:104F50000E9483106091350370E080916905909103
:104F60006A050E94AD1968EA71E08EEC95E00E9436
:104F70008310A12CB12C68EA71E08EEC95E00E94C0
:104F80008310BE016F5F7F4FC5010E948B08BE0179
:104F90006F5F7F4F8EEC95E00E9483109FEFA91A00
:104FA000B90AE8E0AE16B10431F7A0906905B090F7
:104FB0006A0569ED71E08EEC95E00E94831064E66D
:104FC00070E080E090E00E94F31E6AE18EEC95E0D4
:104FD0000E94FA0FB501CE0143960E946E19BE01E0
:104FE0006D5E7F4FC50102960E94B40ECE014396BE
:104FF0000E944B0F63E172E0CE0143960E94500F76
:10500000CE0143960E944B0FC7010E944B0F809127
:105010006504811108C080919D0290919E02892BA8
:1050200011F40E94830484EC94E00E94330A8332DA
:1050300049F410929E0210929D0210929C021092CE
:105040009B024EC2873349F41092630481E090E0E2
:1050500090939E0280939D0208C08833C9F41092F9
:10506000630430929E0220929D0210929C02109244
:105070009B0210928702109288021092890210926D
:105080008A02109286028BEA94E00E947D162BC25F
:1050900080916304811127C28BEA94E00E94751607
:1050A00084EC94E00E94D609B82E882309F442C00B
:1050B0008091870290918802A0918902B0918A0222
:1050C0004091A0025091A1026091A2027091A302AE
:1050D000892B8A2B8B2B41F44093870250938802B3
:1050E0006093890270938A0280918702909188026E
:1050F000A0918902B0918A022C013D01F8E74F0E80
:10510000511C611C711C441555056605770538F066
:1051100020918602211103C0B092860201C0B12CF9
:10512000885A9D4FAF4FBF4F84179507A607B70703
:1051300058F408C0109287021092880210928902D7
:1051400010928A021092860280919D0290919E0296
:10515000039721F58BEA94E00E947D1660E080E0E1
:105160000E94261340918F0250919002609191020B
:10517000709192028BEA94E00E94601361E080E0FB
:105180000E9426134091BA025091BB026091BC026A
:105190007091BD028BEA94E00E94601380919D02A1
:1051A00090919E02019709F043C080919B029091DB
:1051B0009C0221E4B21202C0019704C042E4B4127E
:1051C00005C0019690939C0280939B0280919B0264
:1051D00090919C028730910514F086E090E097FF53
:1051E00002C080E090E090939C0280939B0260E07C
:1051F00080E00E942613B80180919B0290919C024E
:105200000E948B08B8018BEA94E00E94831061E051
:1052100080E00E94261380919B0290919C02B8012D
:1052200001960E948B08B8018BEA94E00E948310DB
:1052300080919D0290919E02029709F054C184E4EE
:10524000B81209C080919B0290919C0201969093A4
:105250009C0280939B0260E080E00E9426136EEF28
:1052600070E08BEA94E00E94011080919B02909183
:105270009C0297FF02C080E090E08530910514F019
:1052800084E090E090939C0280939B025090CB0529
:105290006090CC057090CA05A090C9058090C805A3
:1052A000912C90E3891A98EF990A60E08BE00E94B4
:1052B000261380919B0290919C02892B79F4E1E462
:1052C000BE1202C0539404C0F2E4BF1201C05A944B
:1052D00068EF70E08BEA94E00E94011080919B02DD
:1052E00090919C02019779F421E4B21202C0639478
:1052F00004C042E4B41201C06A9462EF70E08BEA29
:1053000094E00E94011080919B0290919C02029770
:1053100079F481E4B81202C0739404C092E4B91223
:1053200001C07A946CEE70E08BEA94E00E94011068
:1053300080919B0290919C02039779F4E1E4BE1264
:1053400002C0A39404C0F2E4BF1201C0AA9466EEA6
:1053500070E08BEA94E00E94011080919B02909192
:105360009C02049799F421E4B21204C04FEF841A0E
:10537000940A06C082E4B81203C091E0891A910829
:1053800060EE70E08BEA94E00E940110E7E1E51521
:1053900010F497E1592EFBE3F61510F48BE3682E19
:1053A0002FE1271518F4BFE17B2E04C0711002C055
:1053B000772473944CE04A1518F4ACE0AA2E04C08C
:1053C000A11002C0AA24A39480E1881687E298065F
:1053D00020F0FFE08F2EF7E29F2E90ED891697E0E8
:1053E000990620F4E0ED8E2EE7E09E2EC401805D4C
:1053F00097408093C805A092C9057092CA05509243
:10540000CB056092CC051092CD0561E080E00E9452
:105410002613E9E0E51528F060E38BEA94E00E94AA
:10542000FA0F452D50E060E070E02AE08BEA94E04E
:105430000E943A106AE38BEA94E00E94FA0FF9E0C6
:10544000F61528F060E38BEA94E00E94FA0F462DEF
:1054500050E060E070E02AE08BEA94E00E943A10AD
:1054600060E28BEA94E00E94FA0F29E0271528F009
:1054700060E38BEA94E00E94FA0F472D50E060E071
:1054800070E02AE08BEA94E00E943A106FE28BEA27
:1054900094E00E94FA0F49E04A1528F060E38BEA95
:1054A00094E00E94FA0F4A2D50E060E070E02AE09C
:1054B0008BEA94E00E943A106FE28BEA94E00E943B
:1054C000FA0FA40160E070E02AE08BEA94E00E9409
:1054D0003A108AE2B81207C088EC95E00E9464187E
:1054E00081E0809363048091AE0281110DC00E941F
:1054F0002D1F6093AA027093AB028093AC0290932D
:10550000AD0281E08093AE0280916604882371F041
:1055100080916304882351F010926604609187049F
:105520008091690490916A040E94671580915F04DC
:1055300081113FC0809160040E94B71E6091610498
:10554000709162042091A4023091A502281B390BAE
:1055500037FF03C0319521953109621773072CF489
:105560009093A5028093A40221C0EDE5F4E020E031
:1055700030E046895789DA01A61BB70BA817B9078F
:105580007CF4460F571F8417950754F4220F331FDE
:10559000220F331FF901EB58FB4FA080B18014C0DC
:1055A0002F5F3F4F34962530310519F7A12CB12CD0
:1055B0000BC0E0915D04F0915E040190F081E02D5C
:1055C0008DE594E009955C018091A90290E0A81610
:1055D000B906C9F0A092A9021092A8020E942D1F3C
:1055E0006093AA027093AB028093AC029093AD02D9
:1055F0001092A7021092A60281E090E090939D0481
:1056000080939C04E1C00E942D1F4090AA025090FC
:10561000AB026090AC027090AD02DC01CB0184194A
:105620009509A609B70989379105A105B10508F4BF
:10563000CBC00E942D1F6093AA027093AB0280938F
:10564000AC029093AD02A114B10421F080916304E7
:1056500081110DC01092A7021092A60281E090E085
:1056600090939D0480939C041092A802ADC095E095
:10567000A916B10419F481E0809365048091650452
:10568000882309F4A1C08091A80290E0A816B90669
:10569000A1F48091A6029091A70201969093A7028F
:1056A0008093A602B6010E94FD32892B71F0809191
:1056B0009C0490919D04029604C0A092A80281E0EF
:1056C00090E090939D0480939C0420916404E5E015
:1056D000AE16B10421F08A2DAA94AB2889F48091EA
:1056E000670490916804222311F063E018C060E021
:1056F000009709F04EC080916B0490916C0449C0F2
:10570000833021F0843021F462E003C061E001C005
:1057100064E0222339F080916704909168040E942C
:10572000AC1B52C02091690430916A04F901719652
:10573000E491E150643081F510926804109267049E
:105740008091710490917204009781F480916F04AC
:1057500090917004009769F480916D0490916E04AB
:10576000009709F414C520E030E005C022E030E0E5
:1057700002C021E030E0220F331FF901E359FB4F53
:105780001182108290936A048093690410928704B6
:1057900061E00E94B11A18C090918704613011F045
:1057A00061E001C06FEF690FE61730F481E06F3FF1
:1057B00009F080E0682F61956F3F09F46E2F6093C8
:1057C0008704C9010E94671580916F05909170054B
:1057D000A0917105B09172050097A105B10509F47A
:1057E00042C0805D9A48AF4FBF4F4091A002509198
:1057F000A1026091A2027091A30284179507A607E7
:10580000B70788F568E484EB93E00E94FA0F67EA33
:1058100071E084EB93E00E942510A0906905B090A0
:105820006A0568E071E08EEC95E00E940110B50118
:10583000C8010E946E19B801C50102960E94B40EFB
:10584000C8010E944B0F64EA71E0C8010E94500F2A
:10585000C8010E944B0F10926F05109270051092B4
:105860007105109272050E946814882309F440C0E3
:1058700080914D058B3029F0D8F18551823058F058
:1058800037C06091490570E080E090E00E94AB393C
:105890004B015C0133C070904905672D6F7770E054
:1058A00080E090E00E94AD3920E030E040E853E431
:1058B0000E940C3A4B015C0160914A0570E080E067
:1058C00090E00E94AD399B01AC01C501B4010E947A
:1058D0004E332DEC3CEC4CEC5DE30E940C3A4B015A
:1058E0005C0177FE0BC0B7FAB094B7F8B09406C06D
:1058F000812C912C50ECA52E5FE7B52E0E946814E8
:10590000882309F444C080914D058B3039F180F132
:105910008551823068F56091470570E080E090E045
:105920000E94AB3920E030E040E853E40E940C3A9A
:105930002B013C016091480570E080E090E00E94FE
:10594000AD399B01AC01C301B2010E944E332DEC75
:105950003CEC4CEC5DE30E940C3A07C060914705BB
:1059600070E080E090E00E94AB392B013C0106C062
:10597000412C512C40EC642E4FE7742EA50194016C
:10598000C501B4010E946734882379F016C0A501CF
:105990009401C501B4010E94673481111EC0412CDD
:1059A000512C30EC632E3FE7732E80929702909239
:1059B0009802A0929902B0929A02A3019201C301A7
:1059C000B2010E946734811108C040929302509244
:1059D0009402609295027092960224E6A22EB12C57
:1059E0008EE00E94B71EB6010E941133072E000CF4
:1059F000880B990B0E94AD3920918F023091900253
:105A000040919102509192020E944E3360938F0216
:105A100070939002809391029093920221E0A21AD7
:105A2000B108F1F620E030E048EC52E40E94BA33CD
:105A30009B01AC0160E070E088EC92E40E944D3381
:105A40004B015C0120E030E0A9010E94A63987FDEE
:105A500011C020E030E046EC52E4C501B4010E94E0
:105A60006234181654F4812C912C96ECA92E92E4F1
:105A7000B92E03C0812C912C540180928F029092F8
:105A80009002A0929102B092920284E6A82EB12CCC
:105A900080E10E94B71EBC01990F880B990B0E94F0
:105AA000AD392091BA023091BB024091BC025091B5
:105AB000BD020E944E336093BA027093BB02809382
:105AC000BC029093BD0241E0A41AB10809F720E09E
:105AD00030E048EC52E40E94BA336093BA0270930B
