:100000008EC60000BDC60000BBC60000B9C6000019
:10001000B7C60000B5C60000B3C60000B1C60000F8
:10002000AFC600000C9467240C9467240C946724DA
:10003000A7C60000A5C60000A3C60000A1C6000018
:100040009FC600009DC600009BC6000099C6000028
:1000500097C6000095C6000093C600000C946C2D56
:100060008FC600000C94951A0C946C1A89C6000077
:1000700087C6000085C6000083C6000081C6000058
:100080007FC600007DC600007BC6000079C6000068
:1000900077C6000075C6000073C600000C94882562
:1000A0006FC600006DC600006BC6000069C6000088
:1000B00067C6000065C6000063C6000061C6000098
:1000C0005FC600005DC600005BC6000059C60000A8
:1000D00057C6000055C6000053C6000051C60000B8
:1000E0004FC600008C30A230A230A030A2308A303F
:1000F000A230A230A2307E30A230A23093309E30A7
:100100009C30A230A230A2309A302B2B2E2B1D2BEC
:10011000212B272B652B322B362B3C2B402B442BB2
:100120004A2B4E2B522B652B582B5C2B602B3038D7
:100130003A30373A35370046656220203220323077
:10014000313700525443204C4F535420504F5745A1
:1001500052210061742B636D6764613D2264656C9C
:1001600020616C6C220A0D0041542B434D47523DD7
:100170000041542B434D47463D310D00534D530034
:100180004154480D0A003B0D0A00415444005245B9
:10019000534554204F4B002059454152004D4F4E7E
:1001A00054480020204441590020204D494E002051
:1001B000484F55520053455420434C4F434B004C3D
:1001C0004556454C5B434D5D3A00204E49474854E7
:1001D00020200020444159202A202000504F57451C
:1001E000525B255D3A0054454D50325B435D3A0009
:1001F00020454320585B2D5D3A0020504820585B35
:100200002D5D3A0045585420205B255D3A004C494D
:100210004748545B2D5D3A0045435B532F4D5D3A93
:10022000005048205B50485D3A0048554D495B25D9
:100230005D3A0054454D505B435D3A00202020203C
:1002400020202020000344495341424C4520524184
:1002500044494F0000024F4E210000000000000002
:100260000000000000014F46462100000000000091
:100270000000000000004155544F21000000000024
:100280000000000000750265025502450285080461
:10029000850286080485028708048502880804858B
:1002A0000205000000000000000089088000020034
:1002B000000000000000008D08780005000000002C
:1002C000000000008F087C00020000000000000019
:1002D0000093087400050E0000000000000095085F
:1002E000680002FF0300000000000099086000059C
:1002F0000E000000000000009B08640002FF0300E5
:1003000000000000009F085C00020F270000E803C7
:1003100000000006D800000300000000000000A15B
:1003200008DC00000200000000000000A208C40079
:10033000050000000038FFFFFFA308A4000500002F
:10034000000038FFFFFFA708A8000500000000001C
:10035000000000AB086C0005000000000000000079
:10036000AF087000050E00000000000000B3085444
:1003700000050E00000000000000B70858000666E7
:1003800000000000000000BB0850000666000000EE
:1003900000000000BF084C0006630000009DFFFF46
:1003A000FFC308980006630000009DFFFFFFC70819
:1003B0009400050000000000000000CB08A000052C
:1003C0000000000000000000CF089C000663000051
:1003D000009DFFFFFFD308480006630000009DFF5B
:1003E000FFFFD7084400020000000000000000DB0F
:1003F000084000020000000000000000DD083C0092
:10040000020000000000000000DF083800020000C9
:10041000000000000000E1083400090000000000B6
:100420000000008D02000006630000009DFFFFFF3A
:10043000E308900006630000009DFFFFFFE7088CC3
:100440000006630000009DFFFFFFEB082C00066321
:100450000000009DFFFFFFEF0828000900000000DA
:10046000000000009202000006630000000000008F
:1004700000F3088800066300000000000000F70891
:100480008400066300000000000000FB0820000656
:100490006300000000000000FF081C0009000000CD
:1004A000000000000097020000023B000000000076
:1004B00000000309140002170000000000000005FE
:1004C000091000023B0000000000000007090C00BA
:1004D00002170000000000000009090800090000E0
:1004E0000000000000009C020400454320484947EA
:1004F000482059205B532F4D5D000100A102454368
:10050000204849474820582020205B2D5D000100ED
:10051000AE024543204C4F57202059205B532F4DAE
:100520005D000100BB024543204C4F57202058205E
:1005300020205B2D5D000100C8025048204849473B
:1005400048205920205B50485D000100D5025048EA
:10055000204849474820582020205B2D5D0001009D
:10056000E2025048204C4F5720205920205B504831
:100570005D000100EF025048204C4F5720205820CA
:1005800020205B2D5D000100FC0247534D20434FAE
:1005900044452D3E000000000000010009034753C0
:1005A0004D204D4F44452D3E00000000000001004D
:1005B000160345585445524E414C000000000000BF
:1005C0000000010023034C4556454C20484947484C
:1005D000205B434D5D00010030034C4556454C20E7
:1005E0004C4F5720205B434D5D0001003D034543C8
:1005F00020484947482020205B532F4D5D000100D3
:100600004A034543204C4F57202020205B532F4D59
:100610005D000100570350482048494748202020EA
:10062000205B50485D00010064035048204C4F5748
:1006300020202020205B50485D00010071034C49C0
:100640004748204C4F570000000000000000010008
:100650007E034C49474820484947480000000000B5
:10066000000001008B0354454D50204C4F57202073
:100670004E205B435D000100980354454D502048D7
:10068000494748204E205B435D000100A5034855C3
:100690004D49204C4F57202020205B255D00010054
:1006A000B20348554D4920484947482020205B2542
:1006B0005D000100BF0354454D50204C4F57202092
:1006C00020205B435D000100CC0354454D50204881
:1006D0004947482020205B435D000100D90343596E
:1006E000434C4552204F464620205B535D0001009D
:1006F000E6034359434C4552204F464620205B4D6C
:100700005D000100F3034359434C4552204F4E20F6
:1007100020205B535D00010000044359434C4552C7
:10072000204F4E2020205B4D5D0001000D044359F9
:10073000434C455220434F4E54524F4C0000010051
:100740001A0446414E204F4646204E20205B435D12
:1007500000000100270446414E204F4E20204E202D
:10076000205B435D00000100340446414E204F46AB
:1007700046202020205B435D0000010041044641EB
:100780004E204F4E20202020205B435D00000100C2
:100790004E0446414E20434F4E54524F4C000000F1
:1007A000000001005B04484541544552204F46205B
:1007B0004E205B435D0001006804484541544552AA
:1007C000204F4E204E205B435D00010075044845DC
:1007D00041544552204F464620205B435D000100B6
:1007E0008204484541544552204F4E2020205B430F
:1007F0005D0001008F0448454154455220434F4E4F
:1008000054524F4C000001009C044C49474854206E
:100810004F46462020205B4D5D000100A9044C4955
:10082000474854204F46462020205B485D00010089
:10083000B6044C49474854204F4E202020205B4DA1
:100840005D000100C3044C49474854204F4E20200E
:1008500020205B485D000100D0044C4947485420EB
:10086000434F4E54524F4C0000000100DD0426055A
:100870001205FE04EA04760562054E053A059E055A
:100880008A05CA06B606A2068E067A0666065206CD
:100890003E062A0616060206EE05DA05C605B2056C
:1008A0002E071A070607F206DE0692077E076A077A
:1008B00056074207F607E207CE07BA07A6075A0807
:1008C000460832081E080A085245534554210000C4
:1008D00000000000000000000200EB0945432D3E2F
:1008E00000000000000000000000000000046E088E
:1008F00050482D3E000000000000000000000000F5
:100900000004760847534D2D3E0000000000000013
:100910000000000000027E0853455420434C4F4322
:100920004B2D3E00000000000200D506414C415214
:100930004D205345542D3E0000000000000F82085A
:100940004359434C45522D3E00000000000000007A
:100950000005A00846414E2D3E00000000000000AA
:10096000000000000005AA084845415445522D3EAC
:1009700000000000000000000005B4084C49474892
:10098000542D3E0000000000000000000005BE08DD
:100990007C096809540940092C0918090409F00860
:1009A000DC08C80800002200250028002B002E00CB
:1009B0003100340002010000050108010B010000B4
:1009C00020002300260029002C002F003200000107
:1009D00000000301060109010505050507050808D2
:1009E0000808020202020A0A0808040404040101B9
:1009F00001010101010103030303030303030407CE
:100A000007070C0C0C0C0C0C0C0C02020202060664
:100A10000606060606060B0B0B0B0B0B0B0B010257
:100A20001020200808102040102040800201020100
:100A300008040201010204081020408080402010B8
:100A40000804020180040201804020100804020111
:100A50000804020101020408102040800102040879
:100A600010204080526F6F740000000000000000F2
:100A700000000000000A90091F1C1F1E1F1E1F1FE0
:100A80001E1F1E1F005EBCE2613FDD83C29C7E20F4
:100A9000A3FD1F419DC3217FFCA2401E5F01E3BD5A
:100AA0003E6082DC237D9FC1421CFEA0E1BF5D034E
:100AB00080DE3C62BEE0025CDF81633D7C22C09E42
:100AC0001D43A1FF4618FAA427799BC584DA38662E
:100AD000E5BB5907DB856739BAE406581947A5FB1A
:100AE0007826C49A653BD987045AB8E6A7F91B450E
:100AF000C6987A24F8A6441A99C7257B3A6486D802
:100B00005B05E7B98CD2306EEDB3510F4E10F2ACED
:100B10002F7193CD114FADF3702ECC92D38D6F31D9
:100B2000B2EC0E50AFF1134DCE90722C6D33D18FCD
:100B30000C52B0EE326C8ED0530DEFB1F0AE4C12C1
:100B400091CF2D73CA947628ABF517490856B4EAAD
:100B50006937D58B5709EBB536688AD495CB297799
:100B6000F4AA4816E9B7550B88D6346A2B7597C98D
:100B70004A14F6A8742AC896154BA9F7B6E80A5481
:100B8000D7896B3500002100240027002A002D00A2
:100B90003000330001010000040107010A010000D8
:100BA0000A0B02090C0D0E080703040100000000E7
:100BB0000000000000000000000000000000000035
:100BC00000000000000000000000121110000000F2
:100BD0000000000000000000000000000000000015
:100BE000000000004E414E494E495459494E46CDF1
:100BF000CCCC3D0AD7233C17B7D13877CC2B3295D4
:100C000095E6241FB14F0A000020410000C84200B1
:100C1000401C4620BCBE4CCA1B0E5AAEC59D74007B
:100C2000407A10F35A00A0724E18090010A5D4E8BB
:100C30000000E87648170000E40B54020000CA9A4E
:100C40003B000000E1F505000080969800000040A0
:100C5000420F000000A086010000001027000000E5
:100C600000E803000000006400000000000A00002B
:100C70000000000100000000002C76D888DC674FDF
:100C80000823DFC1DFAE59E1B1B796E5E3E453C60F
:100C90003AE651997696E8E6C28426EB898C9B6207
:100CA000ED407C6FFCEFBC9C9F40F2BAA56FA5F4B1
:100CB00090055A2AF75C936B6CF9676DC11BFCE0D9
:100CC000E40D47FEF520E6B500D0ED902E0300942C
:100CD0003577050080841E080000204E0A000000C1
:100CE000C80C333333330F986E12831141EF8D21CB
:100CF00014893BE65516CFFEE6DB18D1844B381B32
:100D0000F77C1D901DA4BBE424203284725E2281F6
:100D100000C9F124ECA1E53D2700D943CB431124C0
:100D20001FBECFEFD1E2DEBFCDBF00E00CBF18E0A9
:100D3000A0E0B2E0EAECF0EA00E00BBF02C00790EE
:100D40000D92A032B107D9F72CE0A0E2B8E001C0C3
:100D50001D92A63EB207E1F716E0CEE8D6E000E02D
:100D600006C021970109802FFE010E94D546CD388B
:100D7000D10780E00807A9F70E94FB2D0C9453507F
:100D80003FC908956CE372E08FE49AE00C940C196B
:100D9000882311F06BE205C0662311F06DE201C0FB
:100DA00060E28FE49AE00C940519CF93DF9300D0B2
:100DB00000D0CDB7DEB71092070A82E090E09093A2
:100DC0002C0880932B08CE0101960E94E91F86E033
:100DD000FE013196ADEFBBE001900D928A95E1F7EF
:100DE00010922A08109229081092250810922608BD
:100DF0001092270810922808109224088FE49AE095
:100E00000E940A1D26960FB6F894DEBF0FBECDBF16
:100E1000DF91CF910895CF92DF92EF92FF920F93DF
:100E20001F93CF93DF931F921F92CDB7DEB78C0134
:100E300079018FE49AE04A8369830E94021D6981E7
:100E40004A81842F0E945B126801C601801B910BAE
:100E50008E159F056CF4F60161916F018FED860F81
:100E60008E3508F060E28FE49AE00E94951CEDCF89
:100E70000F900F90DF91CF911F910F91FF90EF9006
:100E8000DF90CF900895CF93C62F482F50E060E0B9
:100E900070E08FE49AE00E940912C11102C061E47F
:100EA00005C0C33010F46DE401C068E58FE49AE03A
:100EB000CF910C940519662321F081E0623009F08E
:100EC00080E008954F925F926F927F928F929F92EF
:100ED000AF92BF92CF92DF92EF92FF92109288086A
:100EE00086E090E090930A0980930909109208091E
:100EF0001092070986E190E0909306098093050916
:100F0000109204091092030941E068E878E084E057
:100F100090E00E942B1E69E079E088E090E00E945A
:100F2000BC2667E079E08CE090E00E94BC2665E09A
:100F300079E080E190E00E94BC2663E079E084E102
:100F400090E00E94BC2610928708C12CD12C80E72B
:100F5000E82E81E4F82EC092FF08D0920009E092BA
:100F60000109F092020980E090E0A0E8B1E48093EA
:100F7000FB089093FC08A093FD08B093FE08412C59
:100F8000512C90E2692E91E4792E4092F70850920C
:100F9000F8086092F9087092FA0880E090E0A0E307
:100FA000B1E48093F3089093F408A093F508B0930C
:100FB000F60841E067E878E088E190E00E942B1EA7
:100FC0006FEF78E08CE190E00E94B9266BEF78E05B
:100FD00080E290E00E94B92667EF78E084E890E034
:100FE0000E94B92663EF78E088E890E00E94B92675
:100FF0001092860880E090E0A0EAB1E48093EF08C8
:101000009093F008A093F108B093F20880E090E08C
:10101000A8E9B1E48093EB089093EC08A093ED0865
:10102000B093EE08C092E708D092E808E092E90891
:10103000F092EA08812C912C20E6A22E21E4B22E17
:101040008092E3089092E408A092E508B092E60846
:1010500041E066E878E084E290E00E942B1E6FEEAB
:1010600078E088E290E00E94B9266BEE78E08CE2AE
:1010700090E00E94B92667EE78E08CE890E00E944C
:10108000B92663EE78E080E990E00E94B9261092DC
:1010900085081092E2081092E1088EE190E09093AA
:1010A000E0088093DF081092DE081092DD0890932C
:1010B000DC088093DB0841E065E878E080E390E0BD
:1010C0000E942B1E61EE78E084E390E00E94BC2633
:1010D0006FED78E088E390E00E94BC266DED78E04B
:1010E0008CE390E00E94BC266BED78E080E490E019
:1010F0000E94BC2680E090E0A8EAB1E48093C70893
:101100009093C808A093C908B093CA0880E090E003
:10111000A8E9B1E48093C3089093C408A093C508DC
:10112000B093C60880E090E0A0E2B2E48093BF08EC
:101130009093C008A093C108B093C20880E090E0EB
:10114000A0E7B2E48093BB089093BC08A093BD08CD
:10115000B093BE08C092D708D092D808E092D908C0
:10116000F092DA084092D3085092D4086092D508E1
:101170007092D60867EC78E084E490E00E94B9268B
:1011800063EC78E088E490E00E94B9266FEB78E0A9
:101190008CE490E00E94B9266BEB78E080E590E06B
:1011A0000E94B92667ED78E084E990E00E94B926B4
:1011B00063ED78E088E990E00E94B9268FE892E03C
:1011C0009093A00880939F0880E192E090939A0802
:1011D000809399088CEE91E5A0E8B0E480939B0899
:1011E00090939C08A0939D08B0939E0880E090E0A7
:1011F000A0EEB0E48093950890939608A09397088A
:10120000B09398081092B7081092B8081092B908D5
:101210001092BA088092B3089092B408A092B508D0
:10122000B092B60867EB78E088E590E00E94B926B6
:1012300063EB78E084E590E00E94B92642E06FE934
:1012400078E08CE590E00E942B1E42E069E978E0AE
:1012500080E690E00E942B1E6BE978E084E690E047
:101260000E94B92665E978E088E690E00E94B926F8
:1012700082EF90E090939408809393088DE790E03C
:1012800090938E0880938D0881E895E9A3EABFE3E7
:1012900080938F0890939008A0939108B093920840
:1012A0008AE69CEBA0E9B0E48093890890938A08D1
:1012B000A0938B08B0938C081092AF081092B008DE
:1012C0001092B1081092B20880E090E0AAE7B4E46E
:1012D0008093AB089093AC08A093AD08B093AE0890
:1012E0006FEA78E080E790E00E94B9266BEA78E048
:1012F0008CE690E00E94B92642E063E978E084E75A
:1013000090E00E942B1E42E06DE878E088E790E0D4
:101310000E942B1E6FE878E08CE790E00E94B926CF
:1013200069E878E080E890E00E94B9261092CB0846
:101330001092CC081092CD081092CE0880E090E078
:10134000A8ECB2E48093CF089093D008A093D10882
:10135000B093D2086FEC78E08CE990E00E94B92657
:101360006BEC78E080EA90E00E94B92680E090E0A3
:10137000A8E4B3EC8093A7089093A808A093A908C9
:10138000B093AA081092A3081092A4081092A5087E
:101390001092A60863EA78E084EA90E00E94B926F9
:1013A00067EA78E088EA90E00E94B9261092A208E5
:1013B00041E062EA78E084EC90E0FF90EF90DF900B
:1013C000CF90BF90AF909F908F907F906F905F90E5
:1013D0004F900C942B1E76DD8FE49AE00E940A1D3C
:1013E00060E080E00E945B126EE871E08FE49AE0BA
:1013F0000E940C1968EE73E080E090E00C943D2CA4
:10140000CF93DF9341E068E878E084E090E00E94C9
:10141000041E69E079E088E090E00E94BF2667E062
:1014200079E08CE090E00E94BF2665E079E080E101
:1014300090E00E94BF2663E079E084E190E00E94A2
:10144000BF2641E067E878E088E190E00E94041E52
:101450006FEF78E08CE190E00E94C2266BEF78E0BD
:1014600080E290E00E94C22667EF78E084E890E096
:101470000E94C22663EF78E088E890E00E94C226CE
:1014800041E066E878E084E290E00E94041E6FEE9E
:1014900078E088E290E00E94C2266BEE78E08CE271
:1014A00090E00E94C22667EE78E08CE890E00E940F
:1014B000C22663EE78E080E990E00E94C22641E017
:1014C00065E878E080E390E00E94041E61EE78E039
:1014D00084E390E00E94BF266FED78E088E390E01F
:1014E0000E94BF266DED78E08CE390E00E94BF265D
:1014F0006BED78E080E490E00E94BF2667EC78E036
:1015000084E490E00E94C22663EC78E088E490E0F6
:101510000E94C2266FEB78E08CE490E00E94C22625
:101520006BEB78E080E590E00E94C22667ED78E002
:1015300084E990E00E94C22663ED78E088E990E0BB
:101540000E94C22667EB78E088E590E00E94C22600
:1015500063EB78E084E590E00E94C22642E06FE908
:1015600078E08CE590E00E94041E42E069E978E0B2
:1015700080E690E00E94041E6BE978E084E690E04B
:101580000E94C22665E978E088E690E00E94C226C3
:101590006FEA78E080E790E00E94C2266BEA78E08C
:1015A0008CE690E00E94C22642E063E978E084E79E
:1015B00090E00E94041E42E06DE878E088E790E049
:1015C0000E94041E6FE878E08CE790E00E94C2263B
:1015D00069E878E080E890E00E94C22641E061EA94
:1015E00078E08CED90E00E94041E60E076E088EDEB
:1015F00090E00E94BF2641E062EA78E084EC90E04F
:101600000E94041E6FEC78E08CE990E00E94C226F4
:101610006BEC78E080EA90E00E94C22663EA78E012
:1016200084EA90E00E94C22667EA78E088EA90E0C7
:101630000E94C226C8ECD0E0BE016B5C754F41E051
:10164000CE010E94041E2196C83DD105A9F7DF9165
:10165000CF910895EF92FF920F931F93CF93DF9353
:101660001F921F92CDB7DEB78C017B0142E0BE0115
:101670006F5F7F4F80EE90E00E94041E29813A81C7
:1016800021503109203231051CF43A83298302C0EC
:101690001A82198260E270E09B01201B310B898164
:1016A0009A81820F931F0E9484469A83898300E067
:1016B00010E0B701600F711F89819A8124E0880FC3
:1016C000991F2A95E1F78C519F4F41E0800F911FA0
:1016D0000E94041E0F5F1F4F0031110551F7F701E3
:1016E000108A0F900F90DF91CF911F910F91FF9073
:1016F000EF900895CF92DF92EF92FF920F931F9396
:10170000CF93DF931F921F92CDB7DEB78C01F62ED9
:101710008091FF0A8033D1F181E3681337C0809153
:10172000130B9091140BA091150BB091160B892BF4
:101730008A2B8B2B59F58091A108823038F183E4F4
:101740005BD6C0900F0BD090100B6AE871E083E07D
:101750009CE00E940C19B60183E09CE00E946B1A89
:1017600066E871E083E09CE00E940C1980915708C4
:1017700090915808A0915908B0915A088093130B82
:101780009093140BA093150BB093160B8091F90B4B
:1017900068018A3048F4EFEFCE1ADE0A4AE0B80159
:1017A00080E090E00E94A64A8091F90B4AE0B601E1
:1017B00090E00E94A64A8FE2F8018283B8016D5F33
:1017C0007F4F8091F80B8A3040F44AE080E090E04F
:1017D0000E94A64AC8010496BC018091F80B4AE019
:1017E00090E00E94A64A80E2F8018583B8016A5F12
:1017F0007F4F8091FA0B8A3040F44AE080E090E01D
:101800000E94A64AC8010796BC018091FA0B4AE0E3
:1018100090E00E94A64A8AE3F8018087B801675FDA
:101820007F4F8091FB0B8A3040F44AE080E090E0EB
:101830000E94A64AC8010A96BC018091FB0B4AE0AF
:1018400090E00E94A64A80E2F8018387F78642E092
:10185000BE016F5F7F4F80EE90E00E94041E898181
:101860009A81809714F01A821982E12CF12CB80128
:101870006E0D7F1D89819A8124E0880F991F2A951A
:10188000E1F78C519F4F41E08E0D9F1D0E942B1E52
:10189000FFEFEF1AFF0A80E1E816F10441F78981B2
:1018A0009A81019660E270E00E9484469A8389835F
:1018B00042E0BE016F5F7F4F80EE90E00E942B1EE2
:1018C00089819A810F900F90DF91CF911F910F9195
:1018D000FF90EF90DF90CF900895CF93DF93EC01CE
:1018E0000E94CB1A8E859F858130910589F18230C7
:1018F000910581F18430910579F1089779F18C8512
:101900009D858130910561F18230910559F18430D6
:10191000910551F1089751F18A859B858130910598
:1019200039F18230910531F18430910529F1089720
:1019300029F1888599858130910511F182309105D1
:1019400009F18430910501F1089701F180E01FC091
:101950008AE21DC087E31BC084E319C081E317C07E
:1019600080E315C088E313C085E311C082E30FC094
:1019700083E20DC089E30BC086E309C083E307C09F
:1019800084E405C083E403C082E401C081E4DF9104
:10199000CF9108958F929F92BF92CF92DF92EF9254
:1019A000FF920F931F93CF93DF93CDB7DEB761976D
:1019B0000FB6F894DEBF0FBECDBF8FE49AE00E9451
:1019C000021D88E69AE089DF182F882309F442C0B7
:1019D0008091250890912608A0912708B0912808A9
:1019E00040915708509158086091590870915A08D1
:1019F000892B8A2B8B2B41F4409325085093260882
:101A000060932708709328088091250890912608F4
:101A1000A0912708B09128086C017D0128E7C20E2B
:101A2000D11CE11CF11C4C155D056E057F0538F0DD
:101A300020912408211103C01093240801C010E054
:101A4000885A9D4FAF4FBF4F84179507A607B7071A
:101A500058F408C010922508109226081092270802
:101A6000109228081092240880912B0890912C083D
:101A7000039709F05CC18091290890912A081134DC
:101A800011F4019703C0123429F4019690932A08A7
:101A9000809329088091290890912A0897FF02C015
:101AA00080E090E08630910514F085E090E090931E
:101AB0002A088093290860E0009781F580E0FBD434
:101AC0006091E70B8091F50B63D963E372E08FE4DB
:101AD0009AE00E940C1940914F0850915008609173
:101AE0005108709152088FE49AE01FD54BD961E0FC
:101AF00080E0E1D46091690B8091770B49D96AE26B
:101B000072E08FE49AE00E940C1940914B085091CA
:101B10004C0860914D0870914E0805C181309105C7
:101B200081F580E0C8D46091A10B8091AF0B30D9D2
:101B300061E272E08FE49AE00E940C1940913B0848
:101B400050913C0860913D0870913E088FE49AE006
:101B5000ECD418D961E080E0AED46091850B80911F
:101B6000930B16D968E172E08FE49AE00E940C1999
:101B700040913708509138086091390870913A08BF
:101B8000D2C082309105A9F580E095D46091CB0B4D
:101B90008091D90BFDD86EE072E08FE49AE00E944C
:101BA0000C196091470870914808809149089091FC
:101BB0004A080E94BA47AB01770F660B770B8FE498
:101BC0009AE027D4DFD861E080E075D46091BD0B46
:101BD00080E0DED864E072E08FE49AE00E940C19A5
:101BE000609143087091440880914508909146089F
:101BF0006AC083309105B9F580E05DD46AEF71E089
:101C00008FE49AE00E940C1987E390E031D4AB0195
:101C1000BC018FE49AE089D4B5D861E080E04BD470
:101C200060EF71E08FE49AE00E940C1960E082E0BE
:101C3000F7D46B017C0161E082E0F2D4DC01CB01DE
:101C40008C0D9D1DAE1DBF1DB695A79597958795CB
:101C5000BC01CD016E5F7F4F8F4F9F4F0E940C4F95
:101C6000AB01BC0160C00497C1F580E024D460E200
:101C70008FE49AE00E94051966EE71E08FE49AE025
:101C80000E940C19409153085091540860915508D6
:101C9000709156088FE49AE048D474D861E080E0EF
:101CA0000AD460915B0B80E073D86CED71E08FE437
:101CB0009AE00E940C1960913F0870914008809151
:101CC0004108909142080E94BA47AB01770F660B1A
:101CD000770B8FE49AE09DD329C080E0ECD380910C
:101CE0003208882319F063ED71E002C06AEC71E0FC
:101CF0008FE49AE00E940C1945D861E080E0DBD3C4
:101D000060913F0B80914D0B43D86FEB71E08FE4F6
:101D10009AE00E940C194091330850913408609168
:101D20003508709136088FE49AE0FFD32BD8809164
:101D30002B0890912C08019709F045C08091290843
:101D400090912A08113411F4019703C0123429F438
:101D5000019690932A0880932908809129089091F0
:101D60002A088F31910514F08EE190E097FF02C0B0
:101D700080E090E090932A088093290860E080E05A
:101D80009AD3BE016F5F7F4F8091290890912A08F6
:101D900061DCBE016F5F7F4F8FE49AE00E946B1A97
:101DA00061E080E088D38091290890912A08BE01E3
:101DB0006F5F7F4F01964EDCBE016F5F7F4F8FE4F8
:101DC0009AE00E946B1A80912B0890912C08029740
:101DD00009F043C1143449F48091290890912A08EC
:101DE000019690932A088093290860E080E063D3ED
:101DF00065EB71E08FE49AE00E940C19809129084C
:101E000090912A0897FF02C080E090E0853091050C
:101E100014F084E090E090932A0880932908F090D1
:101E2000000CB090010CC090FF0BD090FE0B809086
:101E3000FD0B912C80E3881A88EF980A60E08BE014
:101E40003AD38091290890912A08892B69F411349A
:101E500011F4F39403C0123409F4FA946FEA71E0B8
:101E60008FE49AE00E940C198091290890912A0829
:101E7000019769F4113411F4B39403C0123409F4D6
:101E8000BA9469EA71E08FE49AE00E940C1980919B
:101E9000290890912A08029769F4113411F4C39427
:101EA00003C0123409F4CA9463EA71E08FE49AE043
:101EB0000E940C198091290890912A08039769F4CF
:101EC000113411F4D39403C0123409F4DA946DE997
:101ED00071E08FE49AE00E940C198091290890919A
:101EE0002A08049789F4113421F42FEF821A920AF8
:101EF00005C0123419F481E0881A910867E971E08D
:101F00008FE49AE00E940C190F2D083108F007E1C8
:101F10002BE32B1510F43BE3B32E8FE18C1518F453
:101F20002FE1C22E04C0C11002C0CC24C3942CE007
:101F30002D1518F49CE0D92E04C0D11002C0DD2468
:101F4000D394C40120E1821627E2920610F08FE0BC
:101F500097E27C0180EDE81687E0F80620F480ED3A
:101F6000E82E87E0F82EC701805D97408093FD0B37
:101F7000D092FE0BC092FF0B0093000CB092010CAC
:101F80001092020C61E080E096D20A3028F460E3FF
:101F90008FE49AE00E940519402F50E060E070E065
:101FA0002AE08FE49AE00E9445196AE38FE49AE000
:101FB0000E94051929E02B1528F060E38FE49AE0D0
:101FC0000E9405194B2D50E060E070E02AE08FE49C
:101FD0009AE00E94451960E28FE49AE00E94051998
:101FE00089E08C1528F060E38FE49AE00E940519DF
:101FF0004C2D50E060E070E02AE08FE49AE00E940F
:1020000045196FE28FE49AE00E94051929E02D1529
:1020100028F060E38FE49AE00E9405194D2D50E00E
:1020200060E070E02AE08FE49AE00E9445196FE2D8
:102030008FE49AE00E940519A70160E070E02AE0B1
:102040008FE49AE00E9445191A3239F48DEF9BE033
:102050000E946E2081E08093070A61960FB6F89483
:10206000DEBF0FBECDBFDF91CF911F910F91FF90CB
:10207000EF90DF90CF90BF909F908F900895CF9278
:10208000DF92EF92FF920F931F93CF93DF93EC01B8
:102090000E94CB1A2E853F8588859985243031058D
:1020A00009F049C04C855D854830510519F421E09F
:1020B000209388082A853B852830310519F462E091
:1020C000609388088830910511F410928808443094
:1020D000510519F461E0609387082430310519F443
:1020E00062E0609387088430910511F410928708AC
:1020F0004230510519F461E06093860822303105C1
:1021000019F462E0609386088230910511F4109210
:1021100086084130510519F441E04093850821308B
:10212000310519F422E020938508019709F055C084
:102130001092850852C08E0101581F4F892B51F40F
:102140008A859B85892B31F48C859D85892B11F49B
:10215000232BA1F1F80180819181A281B381892B88
:102160008A2B8B2B39F40E94752CF80160837183C4
:1021700082839383F801C080D180E280F380F4EF02
:10218000CF0EF1E0DF1EE11CF11C0E94752C6C15D6
:102190007D058E059F05B8F4F801C080D180E280EE
:1021A000F380F8ECCF0ED11CE11CF11C0E94752CC1
:1021B000C616D706E806F90630F40FC0F8011082FB
:1021C000118212821382CE01DF91CF911F910F9164
:1021D000FF90EF90DF90CF9080CB80E0DF91CF91A8
:1021E0001F910F91FF90EF90DF90CF900895FC0129
:1021F000E45BFF4F8081918142DF813459F082346A
:1022000061F0843469F0833271F08A3279F080E0D1
:1022100090E0089583E090E0089584E090E00895D0
:1022200081E090E0089582E090E0089585E090E0FC
:10223000089583E09CE00E946B1A6AE083E09CE0D2
:10224000E4C7CF92DF92EF92FF921F93CF93DF9379
:10225000EC01662361F11C85112369F18C819D815C
:10226000AE81BF81892B8A2B8B2B31F40E94752C78
:102270006C837D838E839F83CA84DB840D2C000C4A
:10228000EE08FF088C819D81AE81BF81C80ED91EEA
:10229000EA1EFB1E0E94752CC616D706E806F90634
:1022A00050F41C861C821D821E821F8205C01C8267
:1022B0001D821E821F8210E0812FDF91CF911F911E
:1022C000FF90EF90DF90CF900895CF92DF92EF9242
:1022D000FF92CF93DF93EC01662371F18C8581111E
:1022E0002FC088819981AA81BB81892B8A2B8B2B56
:1022F00031F40E94752C688379838A839B83C88418
:10230000D9840D2C000CEE08FF0888819981AA81E0
:10231000BB81C80ED91EEA1EFB1E0E94752CC61674
:10232000D706E806F90660F481E08C878D8718826D
:1023300019821A821B8205C0188219821A821B8296
:1023400080E0DF91CF91FF90EF90DF90CF900895E4
:10235000CF93DF93EC01FB0124813581C6D6CE01FA
:10236000DF91CF910895909157099111FCCF91E0A1
:1023700090935709909356092FEF20935509109287
:102380005409260F209353099093520990915209B2
:10239000880F892B8093520980915109813061F413
:1023A00010925109809152098093BB008091BC002A
:1023B00083FDF8CF85EC01C085EE8093BC00809151
:1023C00057098130E1F380915409861710F4609128
:1023D0005409A1E3B9E021E139E0F9018E2F821B14
:1023E000861718F48D918193F9CF862F089567E0B1
:1023F00078E088E599E034C7CF93DF93682F88E5CC
:1024000099E003D7EC01F3DF8C0F9D1FDF91CF9193
:102410000895CF92DF92EF92FF920F931F93CF9385
:10242000DF9377FF1BC06A017B01EC016DE2EDD603
:102430008C0144275527BA014C195D096E097F09A3
:102440002AE0CE0122D7800F911FDF91CF911F91FB
:102450000F91FF90EF90DF90CF9008952AE0DF91E9
:10246000CF911F910F91FF90EF90DF90CF900DC70C
:10247000FF920F931F93CF93DF93F82E0AE010E0A3
:10248000C0E0D0E08F2D0E941E2CC80FD91F015034
:102490001109C1F7CE016AE070E00E948446072E60
:1024A000000C880B990B0E940E4FDF91CF911F916A
:1024B0000F91FF900895CF93DF93CDB7DEB72897A4
:1024C0000FB6F894DEBF0FBECDBF1D8290E49E8391
:1024D00024E12F8324E5288719829A8390E19B8346
:1024E00090E59C839091560A691710F06FEF690F81
:1024F0004091570A262F30E0FE01E20FF31F4031D2
:1025000021F4943011F4918101C09581682F690FF5
:1025100060688FE49AE028960FB6F894DEBF0FBE8D
:10252000CDBFDF91CF910C94FA1C22E0F6C6AF929A
:10253000BF92CF92DF92EF92FF920F931F93CF93B0
:10254000DF9300D000D0CDB7DEB76C015B017A011C
:10255000CE010196B6D5BE016F5F7F4FC601FDD497
:102560008C01CE010196A8D517FD28C0F501019078
:102570000020E9F73197EA19FB090E0F1F1FF6013A
:102580008481958108171907D8F48081918100977B
:10259000B9F0FC01E00FF11F8081813419F4F701DB
:1025A00010820EC0803321F481E0F701808309C0DE
:1025B000813331F482E0F701808302C080E001C002
:1025C00081E026960FB6F894DEBF0FBECDBFDF9137
:1025D000CF911F910F91FF90EF90DF90CF90BF9020
:1025E000AF90089581E08093100988E680930F09E9
:1025F00010920E0910920D096FE085EF99E00E948C
:10260000DB2285EF99E00E94FB2461E088E6ABDEE7
:1026100010920C0980930B0985EF99E00C945E22CF
:102620000F931F93262F90E0FC01E25EF54F64911B
:10263000FC01E852F64FE491222311F0462F01C02D
:1026400040E0F0E0EE0FFF1FE254F64F85919491C9
:1026500000E412E42FE030E00E94B62D6115710510
:102660008105910549F0DC01CB010196A11DB11D49
:10267000BC01CD019F7003C060E070E0CB011F91F1
:102680000F910895CF93DF93AB01BC0122E088E561
:1026900099E043D6EC01ABDE8C0F9D1FDF91CF910B
:1026A0000895EF92FF920F931F93CF93DF937C01D6
:1026B0008B01C0E2DBE08D819E810E94231FB70168
:1026C0008D819E810E94B91E40E06EEB8D819E81BE
:1026D0000E94781E8D819E810E94081FF8018083D0
:1026E0008D819E810E94081FF80181838D819E81CA
:1026F0000E94081FF80182838D819E810E94081F1D
:10270000F80183838D819E810E94081FF8018483D4
:102710008D819E810E94081FF80185838D819E8195
:102720000E94081FF80186838D819E810E94081FE8
:10273000F80187838D819E810E94081FF8018087A0
:102740008D819E81DF91CF911F910F91FF90EF902E
:102750000C94231FCF93DF93CDB7DEB729970FB625
:10276000F894DEBF0FBECDBFFC012081203119F1EE
:10277000BE016F5F7F4F95DF68E0CE0101960E943A
:102780006B1E9985891315C08D818F3359F018F40C
:102790008F3189F009C08F3519F08F3741F004C0AF
:1027A0008BE00AC08AE008C0807F803F11F48CE093
:1027B00003C080E001C089E029960FB6F894DEBF1F
:1027C0000FBECDBFDF91CF910895E0912C0AF0911B
:1027D0002D0A309709F019940895CF92DF92EF9265
:1027E000FF920F931F93CF93DF93FC017196C491D7
:1027F000C1503196C590D490E62EF12CF701EE0F22
:10280000FF1FEC0DFD1D8591949190930C0A809310
:102810000B0A00E010E0D0E040E150E060E270E040
:1028200080E39AE00E94154A21E030E040E050E069
:102830000115110529F460E070E08AE098E004C019
:1028400061E070E08CE098E0C0DFF801EE0DFF1D64
:10285000CE17DF0764F0EE0FFF1FEC0DFD1D659135
:10286000749140E150E080E39AE00E949D4A20E1AB
:1028700030E041E050E0B80180E39AE0A6DF0130AB
:10288000110519F001E010E0C7CFDF91CF911F9142
:102890000F91FF90EF90DF90CF9008950F931F93CB
:1028A000CF938C01C62F40E150E060E270E080E3FE
:1028B0009AE00E94154AC730D9F1C830D9F1C11148
:1028C00007C0F80180814AE060E37AE090E013C03D
:1028D000C13049F44AE060E37AE0F80180819181F7
:1028E0000E94A64A35C0C23049F44AE060E37AE06B
:1028F000F801808191810E94F44A2AC0C33059F4C2
:10290000F80160817181828193812AE040E35AE07D
:102910000E94B04A1DC0C43079F4F8016081718111
:10292000828193812AE040E35AE00E94D34A10C09A
:1029300022E003C023E001C021E042E0420FF801A1
:10294000608171818281938100E31AE00E94554A7F
:1029500020E130E040E050E061E070E080E39AE0A8
:10296000CF911F910F9131CF0895CF92DF92EF92C7
:10297000FF920F931F93CF93DF936C017A018B012A
:10298000C0E0D0E0CE15DF0589F0D8016D918D0152
:10299000D601ED91FC910190F081E02DC6011995D1
:1029A000892B11F47E0102C02196ECCFC701DF9183
:1029B000CF911F910F91FF90EF90DF90CF900895EE
:1029C000FC01918D828D981761F0828DDF01A80F37
:1029D000B11D5D968C91928D9F5F9F73928F90E059
:1029E00008958FEF9FEF0895FC01918D828D9817C8
:1029F00031F0828DE80FF11D858D90E008958FEF05
:102A00009FEF0895FC01918D228D892F90E0805CCD
:102A10009F4F821B91098F739927089588E599E04C
:102A2000F1DF21E0892B09F420E0822F0895FC01D9
:102A3000848DDF01A80FB11DA35ABF4F2C91848D47
:102A400090E001968F739927848FA689B7892C937C
:102A5000A089B1898C9180648C93938D848D981317
:102A600006C00288F389E02D80818F7D80830895E0
:102A7000EF92FF920F931F93CF93DF93EC0181E0CE
:102A8000888F9B8D8C8D981305C0E889F98980818A
:102A900085FD23C0F62E0B8D10E00F5F1F4F0F73C7
:102AA0001127E02E8C8DE8120BC00FB607FCFACF71
:102AB000E889F989808185FFF5CFCE01B8DFF2CFB3
:102AC0008B8DFE01E80FF11DE35AFF4FF0820B8F53
:102AD000EA89FB898081806207C0EE89FF89608373
:102AE000E889F98980818064808381E090E0DF91CA
:102AF000CF911F910F91FF90EF900895CF93DF93A7
:102B0000EC01888D8823C1F0EA89FB89808185FDED
:102B100005C0A889B9898C9186FD0EC00FB607FC47
:102B2000F5CF808185FFF2CFA889B9898C9185FF87
:102B3000EDCFCE017CDFE8CFDF91CF91089580E02B
:102B400090E0892B19F06ADF811125C080E090E0C8
:102B5000892B41F080E090E0892B21F00E94000059
:102B600081111CC080E090E0892B41F080E090E072
:102B7000892B21F00E940000811113C080E090E0B9
:102B8000892BA1F080E090E0892B81F00E94000069
:102B900081110AC008950E940000D8CF0E94000051
:102BA000E1CF0E940000EACF0C9400000895089540
:102BB000DC0126E0629FA00DB11D112490965C936C
:102BC0004E935F9721E091962C939197FC01E459E5
:102BD000FF4F208131960190F081E02D222331F0CA
:102BE000309749F0611107C0DC0102C0309719F03D
:102BF0005C968C91199408950E94084A0F931F9334
:102C0000CF93DF93EC010E94752C688779878A87C0
:102C10009B87E881F9810680F781E02DCE01199527
:102C200097FF17C00E94752C088519852A853B855A
:102C3000DC01CB01801B910BA20BB30B0C811D811E
:102C40002E813F8180179107A207B30710F38FEF02
:102C50009FEFDF91CF911F910F9108956F927F9217
:102C60008F929F92AF92BF92CF92DF92EF92FF929C
:102C70001F93CF93DF931F92CDB7DEB73C01162F82
:102C8000FC0186E0689FE00DF11D112411A2878DE3
:102C900090A181309105F1F01CF4892B51F04DC0C9
:102CA00082309105A9F1039709F047C040E050E058
:102CB00033C0442309F441C041E050E0C30178DF50
:102CC0000E94752CF301E85AFF4F60837183828361
:102CD000938333C049830E94752CF301E85AFF4F58
:102CE000C080D180E280F3804B015C018C189D088C
:102CF000AE08BF08729680819181A0E0B0E0498162
:102D000088159905AA05BB0518F442E050E004C0F7
:102D1000411113C043E050E0612FC3010F90DF91D8
:102D2000CF911F91FF90EF90DF90CF90BF90AF9029
:102D30009F908F907F906F903BCF0F90DF91CF91BE
:102D40001F91FF90EF90DF90CF90BF90AF909F903A
:102D50008F907F906F900895862F0C948B2B862FE9
:102D6000642F0C94B32B862F642F0C94E22BCF92FC
:102D7000DF92EF92FF920F931F93CF93DF9301E0C7
:102D800010E002C0000F111F6A95E2F77C012FE6E8
:102D9000E20EF11C6C01ECE7CE0ED11CF601408175
:102DA00050E03197608170E0C7010E945825C7014B
:102DB0000E945E22EC01F6018081823040F0C70162
:102DC0000E945E2220E030E0382FC22BD32BC0239C
:102DD000D12381E090E0C017D10711F080E090E0AE
:102DE000DF91CF911F910F91FF90EF90DF90CF90E7
:102DF0000895CF92DF92EF92FF920F931F93CF939C
:102E0000DF938C0181E090E002C0880F991F6A95E2
:102E1000E2F7E801C358DF4F442329F028813981C4
:102E2000822B932B06C0809590952881398182232F
:102E3000932399838883C880D980F801E558FF4F90
:102E4000808178019FE6E90EF11C91E090931009D2
:102E500080930F0910920E0910920D09D701ED9180
:102E6000FC910190F081E02D6C2DC7011995F801BE
:102E7000E458FF4F8081823048F0D701ED91FC91FA
:102E80000190F081E02D6D2DC7011995C7010E94B9
:102E9000FB24C882D982DF91CF911F910F91FF90BF
:102EA000EF90DF90CF900895EF92FF920F931F93D2
:102EB000CF938C01FC01759684E0C0E060FF02C0F6
:102EC0009081C92B6695815031968111F7CF4130A1
:102ED00011F4F8014489F8018585C82BC42B7801C9
:102EE000FEE0EF0EF11CF80162896C2BC70117D6CA
:102EF000F801628960956C23C701CF911F910F91F2
:102F0000FF90EF900CC60F931F93CF93DF93062F84
:102F10000F70423019F440E0602F0FC0142F262F9D
:102F2000EC0130E0B90184E0759567958A95E1F789
:102F3000CE01BADF412F602FCE01DF91CF911F91DB
:102F40000F91B2CFFC0180819181009711F00C9418
:102F5000774A60E070E0CB010895CF93DF93FC01E6
:102F600024813581232B71F0FB01DC01CD91DC91B3
:102F700060817181CE010E943B4A009719F08C1B41
:102F80009D0B02C08FEF9FEFDF91CF9108950F93BC
:102F90001F93CF93DF938C01EB018617970771F195
:102FA000FC01808191810097B1F068817981611580
:102FB000710579F0428153812C813D81421753077D
:102FC00040F00E94254A8C819D81F801958384837D
:102FD00013C00E948C4888819981F8019183808375
:102FE0008A819B81938382838C819D819583848355
:102FF000198218821B821A821D821C82C801DF91ED
:10300000CF911F910F9108950F931F93CF93DF934B
:10301000EC0188819981009729F02A813B8126174C
:10302000370788F48B016F5F7F4F0E942449009718
:1030300061F0998388831B830A832C813D81232B34
:1030400011F4FC01108281E001C080E0DF91CF919A
:103050001F910F910895CF93DF93EC01888199819F
:10306000009711F00E948C48198218821D821C82E0
:103070001B821A82DF91CF910895EF92FF920F93F6
:103080001F93CF93DF93EC017B018A01BA01BCDF70
:10309000811103C0CE01DFDF07C01D830C83B701A0
:1030A000888199810E94254ACE01DF91CF911F919D
:1030B0000F91FF90EF900895FC01808191810C9415
:1030C0008C48FC01118210821382128215821482B4
:1030D0006115710549F0FB0101900020E9F7319776
:1030E000AF01461B570BC9CF0895BF92CF92DF9215
:1030F000EF92FF920F931F93CF93DF937C016B01AD
:10310000EA0189012417350720F48D2FE901042FE6
:10311000182F69E078E0C701D4DFD60114968D91AD
:103120009C911597C817D90738F58017910708F4AF
:103130008C01D601ED91FC911197E00FF11FB08049
:1031400010824D915C91BA016C0F7D1F6115710564
:1031500059F0FB0101900020E9F73197AF01461BC0
:10316000570BC7018ADF02C0C70175DFD601ED9199
:10317000FC91E00FF11FB082C701DF91CF911F9149
:103180000F91FF90EF90DF90CF90BF900895CF9276
:10319000DF92EF92FF920F931F93CF93DF931F92D3
:1031A0001F92CDB7DEB78C016B0169E078E089DF53
:1031B000C60124DD97FD1DC089831A82F801E480D1
:1031C000F580FFEFEF1AFF0AB701C8011DDF882362
:1031D00079F3F8012081318184819581BE016F5F8F
:1031E0007F4F820F931F0E94254AF801F582E482E7
:1031F000DFCFC8010F900F90DF91CF911F910F91FA
:10320000FF90EF90DF90CF900895DC01ED91FC915D
:103210000190F081E02D1994EF92FF920F931F938C
:10322000CF93DF938C017B01C0E0D0E0F701EC0F7E
:10323000FD1F6491662361F0D801ED91FC9101902E
:10324000F081E02DC8011995892B11F02196EECF60
:10325000CE01DF91CF911F910F91FF90EF900895D4
:103260006115710579F0FB0101900020E9F73197B4
:10327000AF01461B570BDC01ED91FC910280F381FD
:10328000E02D199480E090E008954F925F926F9244
:103290007F92EF92FF920F931F93CF93DF93CDB75F
:1032A000DEB7A1970FB6F894DEBF0FBECDBF7C018D
:1032B000FA01CB0119A2223008F42AE08E010F5D39
:1032C0001F4F422E512C612C712CBF01A301920182
:1032D0000E949746F901CA01015011096A3014F49D
:1032E000605D01C0695CD8016C93232B242B252BD6
:1032F00061F7B801C701B4DFA1960FB6F894DEBF3D
:103300000FBECDBFDF91CF911F910F91FF90EF9036
:103310007F906F905F904F9008954F925F926F9261
:103320007F928F929F92AF92BF92CF92DF92EF9255
:10333000FF92CF93DF93EC016A017B01B22E9A01D9
:10334000AB01C701B6010E94F347882319F06EE074
:1033500078E027C026013701E89477F82FEF3FEF98
:103360004FE75FE7C301B2010E94F34781110DC02F
:103370002FEF3FEF4FE75FE7C301B2010E94084F15
:1033800018161CF462E178E00CC02FEF3FEF4FE716
:103390005FE4C701B6010E94EF47181694F466E196
:1033A00078E0CE01DF91CF91FF90EF90DF90CF904A
:1033B000BF90AF909F908F907F906F905F904F9055
:1033C0004FCF2FEF3FEF4FE75FECC701B6010E94F1
:1033D000084F87FDE4CF20E030E0A901C701B60126
:1033E0000E94084F87FF09C06DE2CE010EDF4C013D
:1033F000F7FAF094F7F8F09402C0812C912CA12CEC
:1034000060E070E080E09FE3AB1441F020E030E04A
:1034100040E251E40E944947A394F6CF9B01AC01DE
:10342000C701B6010E94DE462B013C010E94C04745
:103430006B017C010E940C4F9B01AC01C301B201E6
:103440000E94DD462B013C012AE0B701A601CE0116
:103450001CDF7C01E80CF91CBB2031F06AE178E04C
:10346000CE01FEDEE80EF91EDB2CDD2021F120E08E
:1034700030E040E251E4C301B2010E946D4F2B01E4
:103480003C010E94C0474B01A12CB12C2AE0B501A0
:10349000A401CE01FADEE80EF91EC501B4010E94B6
:1034A0000C4F9B01AC01C301B2010E94DD462B0110
:1034B0003C01DA94DACFC701DF91CF91FF90EF9012
:1034C000DF90CF90BF90AF909F908F907F906F9044
:1034D0005F904F900895C4CE1F920F920FB60F9237
:1034E00011240BB60F922F933F934F935F936F93DB
:1034F0007F938F939F93AF93BF93EF93FF9388E551
:1035000099E095DAFF91EF91BF91AF919F918F91E3
:103510007F916F915F914F913F912F910F900BBED3
:103520000F900FBE0F901F9018951F920F920FB61D
:103530000F9211240BB60F922F938F939F93EF93BB
:10354000FF93E0916809F09169098081E0916E092B
:10355000F0916F0982FD12C09081809171098F5F97
:103560008F7320917209821751F0E0917109F0E098
:10357000E85AF64F958F8093710901C08081FF91C1
:10358000EF919F918F912F910F900BBE0F900FBED7
:103590000F901F9018952F923F924F925F926F92CB
:1035A0007F928F929F92AF92BF92CF92DF92EF92D3
:1035B000FF920F931F93CF93DF93CDB7DEB72A9778
:1035C0000FB6F894DEBF0FBECDBF9A8789870E94E1
:1035D000752C29853A85245A3F4F3A832983D9018E
:1035E0000D911D912D913C91AB01BC01401B510BE4
:1035F000620B730BE985FA85E859FF4F8081918151
:10360000A0E0B0E010E084179507A607B70708F020
:103610005EC169847A84F6E66F0E711CE984FA84CF
:1036200022E6E20EF11CD3018C911817A0F4E98573
:10363000FA8580819181F701A081B181A10FB11D2F
:10364000FC012081318142E06C9189859A85F901E4
:1036500019951F5FE8CF10E029843A84B7E62B0E56
:10366000311CE984FA84E4E6EE0EF11C812C912CE5
:103670005401839429853A852E593F4F3C832B83EF
:10368000F1018081181708F08DC0C12ED12CA985B9
:10369000BA858D919C91F701A081B181AC0DBD1DC2
:1036A000FC012081318141E06C9189859A85F90185
:1036B0001995A985BA858D919C91F701A081B18159
:1036C000AC0DBD1DFC012281338140E06C918985E8
:1036D0009A85F9011995D501C401012E04C0880FFE
:1036E000991FAA1FBB1F0A94D2F7AC019C01209519
:1036F000309500E0F3018081A985BA85ED91FC91B8
:10370000081770F5802F90E0AB81BC816D917C91A2
:103710002C01DB01A40DB51D0480F581E02D6C9119
:1037200089859A852F8338874D835E831995440C4C
:10373000551C2F8138854D815E81E985FA85E40D20
:10374000F51D892B29F480859185842B952B04C048
:103750008085918582239323918780870F5FCACFCD
:10376000D7018D919C91DC01AC0DBD1D0280F381D0
:10377000E02D41E06C9189859A851995A985BA85D6
:10378000ED91FC91D7018D919C91DC01AC0DBD1D9B
:103790000190F081E02D40E06C9189859A85199522
:1037A0001F5F6ECFE984FA84FCE1EF0EF11C89857E
:1037B0009A85885A9F4FF7012FEF3FEF438154813D
:1037C000452B21F410823283218315823696E81727
:1037D000F907A1F7B12CC984DA8420E6C20ED11C06
:1037E00086E0A82EF3018081B81608F058C0912C0D
:1037F00009851A850B0D111D0B0D111D085F1F4F3B
:10380000D1018C91981608F048C0D8014D915C9177
:10381000092C02C0569547950A94E2F74170552746
:10382000B89EC0011124890D911DD601ED91FC9126
:10383000E80FF91FA081E985FA8560E0258D368DB6
:103840002817390721F4417089859A851CC06F5F5C
:1038500036966A3099F7452BF1F0F70160E070E099
:103860002081211112C0A69EF001A79EF00D112407
:1038700029853A85E20FF31FA48F968F858F10A2BA
:10388000178E41E0C901EAD906C06F5F7F4F3696B7
:103890006A30710529F79394B3CFB394A3CFE98528
:1038A000FA85B19689859A85835A9F4F10E02081C9
:1038B000211111E03696E817F907C9F70E94752C17
:1038C000A981BA816D937D938D939C931397812FDA
:1038D0002A960FB6F894DEBF0FBECDBFDF91CF9111
:1038E0001F910F91FF90EF90DF90CF90BF90AF901E
:1038F0009F908F907F906F905F904F903F902F9010
:10390000089521E001C0220F6A95EAF7DC011C96B8
:103910002C931C971A965C934E931997ED91FC91FA
:103920000084F185E02D60E01994DC01ED91FC91BB
:103930000284F385E02D41E0199581E090E008953F
:1039400008950895FC0190810180F281E02D892F76
:10395000809560FF12C0F894228182238283818146
:10396000892B8183A3E2B0E01197F1F78281982B34
:103970009283789487ED90E011C0F894228182239D
:1039800082838181892B8183AFEFB0E01197F1F7BA
:103990008281982B928378948FE090E00197F1F7E1
:1039A0000895EF92FF920F931F93CF93DF937C01C3
:1039B0008C01C0E0D0E0F80186890E948B2B892B16
:1039C00051F42696CC0FDD1FCC0FDD1FCE0DDF1D71
:1039D0008881998108C021960C5F1F4FC530D105A1
:1039E00051F780E090E0DF91CF911F910F91FF9010
:1039F000EF900895DC01ED91FC910284F385E02DB8
:103A000040E01994DC01ED91FC910084F185E02DFA
:103A10006FEF199461E0EEDF8BE39FE10197F1F71F
:103A200008950F931F93CF93DF93EC01423018F06A
:103A30008C8188608C834F836887222329F04130F2
:103A400019F48C8184608C8364E670E080E090E0FF
:103A50000E943D2C6C8164FD31C0E881F9810284B3
:103A6000F385E02D42E063E0CE0119958BE496E406
:103A70000197F1F7E881F9810284F385E02D42E0B6
:103A800063E0CE01199503E512E0C8010197F1F753
:103A9000E881F9810284F385E02D42E063E0CE0104
:103AA0001995C8010197F1F7E881F9810284F3853E
:103AB000E02D42E062E0CE01199514C06062CE01B3
:103AC00099DF8BE496E40197F1F76C816062CE0197
:103AD00091DF03E512E0C8010197F1F76C816062A4
:103AE000CE0188DFC8010197F1F76C816062CE01D9
:103AF00081DF8BEE90E00197F1F784E08D836CE03D
:103B0000CE0178DFCE0186DF82E08E8366E0CE01D3
:103B100071DFCE01DF91CF911F910F9173CFFC0127
:103B200023812223B9F0918190956923608382815A
:103B300091E09093100980930F0910920E09109252
:103B40000D0985EF99E037D585EF99E054D7282FF7
:103B500030E002C020E030E081E090E0232B11F063
:103B600080E090E00895FC0184858823A1F0218500
:103B700032852115310519F4611106C007C02130C5
:103B8000310521F4611102C0858701C01586658564
:103B9000CF010E96C4CF0895FF920F931F93CF933A
:103BA000DF93EC01162F042FF22E8B85888B85EF87
:103BB00099E08AD7888991E09093100980930F0942
:103BC00010920E0910920D0985EF99E014D791E03B
:103BD000811190E0998B992321F085EF99E06ED4C3
:103BE0008E878989882331F01F861C8260E0CE0190
:103BF0000E9695DF2F2D402F612FCE01DF91CF91B3
:103C00001F910F91FF900DCFCF92DF92FF920F93F4
:103C10001F93CF93DF931F92CDB7DEB78C010D5F5B
:103C20001F4FF62E6B018C2D8F19841758F4C80185
:103C300049830E942450F60181936F010F5F1F4F4B
:103C40004981F1CF0F90DF91CF911F910F91FF909C
:103C5000DF90CF900895CF92DF92FF920F931F9342
:103C6000CF93DF931F92CDB7DEB78C010D5F1F4F4F
:103C7000F62E6B018C2D8F19841758F4F601619183
:103C80006F01C80149830E942C500F5F1F4F49816B
:103C9000F1CF60E080E090E00F90DF91CF911F9135
:103CA0000F91FF90DF90CF900C942C50CF93DF9327
:103CB0001F92CDB7DEB769830B96FC018591949175
:103CC000009729F041E0BE016F5F7F4FC4DF0F9086
:103CD000DF91CF910895DC01E0E0615038F08D91E3
:103CE000E827F0E0EC57F54FE491F7CF8E2F0895D9
:103CF000CF92DF92EF92FF920F931F93CF93DF93B8
:103D00001F92CDB7DEB76C01E62E08E010E0FF246D
:103D1000F39461E08F2D8E2109F460E0C6014983A0
:103D200011DEFF0C0150110949810115110589F7B8
:103D3000411115C0F894D6011196ED91FC9112979E
:103D400091818C918095892381831196ED91FC91CD
:103D5000129792818C9180958923828378940F9019
:103D6000DF91CF911F910F91FF90EF90DF90CF9057
:103D70000895CF92DF92EF92FF920F931F93CF930C
:103D8000DF931F92CDB7DEB78C01F62E40E065E5DC
:103D90007983AEDFCF2C7981D72E760188E0E80ECB
:103DA000F11CF60161916F0140E0C801A1DFCE1462
:103DB000DF04B9F70F90DF91CF911F910F91FF9022
:103DC000EF90DF90CF900895FC0190810180F28107
:103DD000E02DF8948181892B81832281892F809520
:103DE00028232283A7E0B0E01197F1F721818223F5
:103DF0008183A3E2B0E01197F1F780817894EFEC32
:103E0000F0E03197F1F7982381E009F480E008951C
:103E1000EF92FF920F931F93CF93DF937C0108E003
:103E200010E0C0E0D1E0C701CFDF8111CD2BDD0F65
:103E300001501109C1F78C2FDF91CF911F910F9184
:103E4000FF90EF900895FC0190810180F281E02DB8
:103E5000F8948181292F20958223818378948DE79E
:103E600043E050E0815021F1DA011197F1F7308100
:103E70003923C1F3F8948281822382838181892B43
:103E800081837894ABE7B7E01197F1F7F8948181DB
:103E900028232183A3E1B1E01197F1F780819823D2
:103EA00081E009F080E07894E3E6F6E03197F1F7FD
:103EB0000895AF92BF92CF92DF92EF92FF920F934D
:103EC0001F93CF93DF931F92CDB7DEB75C01E62E31
:103ED000D72EFC018585811158C0C501B4DF811141
:103EE00005C0F50113861586148667C040E060EFB3
:103EF000C501FEDE01E0F12CC12C11E0C50164DF3B
:103F0000682FC501698360DF6981613019F48130F0
:103F1000B9F432C04F2D50E068131BC0F501838502
:103F2000181730F4E40FF51F8381802349F402C091
:103F3000181731F060E0193058F4F501148708C003
:103F4000F501EF0DF11D8381802B838361E009C0B2
:103F5000C12EF501E40FF51F9381802F80958923F1
:103F60008383C501EFDC1F5F000F11F4F39401E0C0
:103F7000F7E0FF1508F0C2CF113438F0F501C38621
:103F8000C11015C081E0858712C0F5011386158622
:103F9000148680E0D5011396EE2DFD2D9501255F49
:103FA0003F4F9D919193A217B307D9F706C0F50132
:103FB0008381882351F381E0EDCF0F90DF91CF9182
:103FC0001F910F91FF90EF90DF90CF90BF90AF9037
:103FD0000895CF92DF92EF92FF920F931F93CF93AA
:103FE000DF93EC0181E08093100988E680930F094C
:103FF00010920E0910920D0960E085EF99E0DBD276
:1040000085EF99E0F8D447E050E068E670E085EF8E
:1040100099E04ED585EF99E051D28F77982F929500
:104020009F701AEF082F919F000D112485EF99E0E2
:1040300045D29C01332794E0359527959A95E1F771
:10404000F82E129FF00C112485EF99E037D29C01D5
:10405000332744E0359527954A95E1F7E82E129FDE
:10406000E00C112485EF99E029D285EF99E026D262
:104070009C01332754E0359527955A95E1F7D82EC2
:10408000129FD00C112485EF99E018D29C013327A0
:1040900064E0359527956A95E1F7C82E129FC00C0C
:1040A000112485EF99E00AD29C01332774E03595FD
:1040B00027957A95E1F7129F800D11248883C98294
:1040C000DA82EB82FC820D83CE01DF91CF911F91CA
:1040D0000F91FF90EF90DF90CF900895FF920F9394
:1040E0001F93CF93DF938C01FF24F394F092100978
:1040F000D8E6D0930F0910920E0910920D0960E0D6
:1041000085EF99E058D2F8012581CAE0822F6C2F03
:104110000E946446682F660F860F682F660F620F35
:1041200085EF99E048D2F8012481822F6C2F0E94FC
:104130006446682F660F860F682F660F620F85EF43
:1041400099E039D2F8012381822F6C2F0E946446B6
:10415000682F660F860F682F660F620F85EF99E054
:104160002AD260E085EF99E026D2F8012281822FE1
:104170006C2F0E946446682F660F860F682F660FAB
:10418000620F85EF99E017D2F8012181822F6C2F01
:104190000E946446682F660F860F682F660F620FB5
:1041A00085EF99E008D2F8012081822F6C2F0E94C0
:1041B0006446682F660F860F682F660F620F85EFC3
:1041C00099E0F9D185EF99E016D40E94F212C82F38
:1041D000F0921009D0930F0910920E0910920D0958
:1041E0006FE085EF99E0E7D16C2F6F7785EF99E06D
:1041F000E2D185EF99E0DF91CF911F910F91FF9070
:10420000FAC3FC01908190539A3008F090E08181CC
:1042100080532AE0929F800D11240895CF92DF925F
:10422000EF92FF92CF93DF93EC01CB01BA0160587C
:1042300073448D4698432CE3C22ED12CE12CF12CF3
:10424000A70196010E9497466D83CA01B901A70193
:1042500096010E9497466C83CA01B90128E130E0BB
:1042600040E050E00E9497466B83188263E97EEF3E
:104270008881482F437091E009F090E0492F50E089
:10428000FA01E359FE4F2E173F0740F0FB01E41BF4
:10429000F50B2E0F3F1F8F5F8883EACF81E0898364
:1042A0008981E82FF0E0E958F54FE491992319F05E
:1042B000823009F4EF5FF0E02E173F0720F02E1B4D
:1042C0003F0B8F5FECCF2F5F2A83DF91CF91FF9061
:1042D000EF90DF90CF9008950F931F93CF93DF93CC
:1042E0008C01EB018885882331F069E078E0C80112
:1042F0000E94611828C01982188283E09CE096D041
:1043000028813981892B81F4203A8FE0380764F4C1
:104310006DE070E080E090E00E943D2C8881998102
:10432000019699838883E9CF293D3E4014F081E0CE
:10433000888783E09CE07AD0892B29F063E07CE0D9
:10434000C8010E94C718C801DF91CF911F910F913A
:10435000089520912208309123082817390771F415
:104360009091200880912108981741F0E091200851
:10437000F0E0E956F34F808190E008958FEF9FEFD2
:10438000089508951F93CF93DF93DC015C962D91E0
:104390003C915D972115310539F481E090E0139649
:1043A0009C938E9312973DC05196ED91FC9152973C
:1043B00050969C915097892F80951FB75E964C918F
:1043C0005E9741FB772770F941FD6095F894408135
:1043D000772311F0492B01C048234083E90121973D
:1043E000F1F748E0508160FF02C0592B01C058230B
:1043F0005083E9012197F1F76695415099F77723AA
:1044000021F090818923808303C08081982B908341
:104410001FBF5C968D919C915D970197F1F721E00C
:1044200030E0C901DF91CF911F91089520912208BA
:10443000309123082817390769F4809121082091C9
:10444000200890E0805C9F4F821B910960E470E03F
:104450000C94844680E090E00895209122083091E9
:10446000230828173907B9F4909120088091210872
:10447000981789F0E0912008F0E0E956F34F808129
:104480002091200830E02F5F3F4F2F733327209378
:10449000200890E008958FEF9FEF08950895E09130
:1044A0000C0980910B09E81730F4F0E0EF5EF64F4D
:1044B000808190E008958FEF9FEF089590910C090F
:1044C00080910B09981750F4E92FF0E0EF5EF64F5A
:1044D000208130E09F5F90930C0902C02FEF3FEFE7
:1044E000C901089580910B0990E020910C09821B6D
:1044F0009109089585ED8093BC008091BC0084FDF6
:10450000FCCF1092570908954091520C262F30E0AD
:10451000240F311D21323105DCF42091570924305C
:10452000C9F4FC0180E090E0861758F43091520CF9
:104530002191DC01A05DB34FA30FB11D2C93019617
:10454000F3CF8091520C680F6093520C80E0089575
:1045500081E0089582E00895CF92DF92EF92FF927A
:104560000F931F93CF93DF937C01262F972F8A0100
:1045700080911009882391F0C62FD72F6E01C40EA9
:10458000D51ECC15DD0569F06991D701ED91FC913F
:104590000190F081E02DC7011995F3CF642F822F90
:1045A000B3DFC801DF91CF911F910F91FF90EF9082
:1045B000DF90CF900895CF93DF931F92CDB7DEB7F2
:1045C0006983209110092223D1F020910D09203216
:1045D00040F021E030E0FC013383228380E090E072
:1045E00014C080910E09E82FF0E0E958F34F99814B
:1045F00090838F5F80930E0980930D0904C061E062
:10460000CE01019681DF81E090E00F90DF91CF91A4
:1046100008958091F60B811134C08091E80B8111CF
:1046200030C08091DA0B81112CC08091CC0B8111AC
:1046300028C08091BE0B811124C08091B00B8111E4
:1046400020C08091A20B81111CC08091940B81111C
:1046500018C08091860B811114C08091780B811154
:1046600010C080916A0B81110CC080915C0B81118C
:1046700008C080914E0B811104C08091400B8823AB
:1046800021F080912D08882321F08FE49AE0BAD997
:104690000BC0E0914F0AF091500A0084F185E02DA3
:1046A00060E08FE49AE0199560E080E00E945B1280
:1046B0008091F50B882331F080912D08882331F00B
:1046C0006BE20BC08091E70B811102C060E205C074
:1046D00080912D088823D1F36DE28FE49AE00E9447
:1046E000051964E78FE49AE00E94051960914F086C
:1046F0007091500880915108909152080E94BA47D9
:10470000675F7F4F6331710528F460E38FE49AE0BF
:104710000E94051940914F0850915008609151082E
:10472000709152088FE49AE00E94951260E086E052
:104730000E945B126CE178E08FE49AE00E946B1AB1
:1047400060914F08709150088091510890915208E3
:104750000E94BA47675F7F4F6331710528F460E3B9
:104760008FE49AE00E94051940914B0850914C0843
:1047700060914D0870914E088FE49AE00E94951266
:1047800060E08AE00E945B1260E28FE49AE00E949F
:1047900005198091FA0B8A3028F460E38FE49AE0DF
:1047A0000E9405194091FA0B50E060E070E02AE0A9
:1047B0008FE49AE00E94451980912D08882341F0EA
:1047C0008091BD0B882311F061E203C06AE301C050
:1047D00060E28FE49AE00E9405198091FB0B8A3019
:1047E00028F460E38FE49AE00E9405194091FB0BE6
:1047F00050E060E070E02AE08FE49AE00E94451902
:1048000061E080E00E945B128091D90B882341F027
:1048100080912D08882311F06BE221C060E21FC057
:104820008091CB0B882331F080912D088823B1F340
:104830006DE215C02091BB083091BC084091BD08C5
:104840005091BE08609147087091480880914908CE
:1048500090914A080E94EF47181604F76AE28FE425
:104860009AE00E9405196AE976E08FE49AE00E94D6
:104870006B1A60918808809131080E94430760EEAE
:1048800076E08FE49AE00E946B1A6091870880912D
:1048900030080E94430763EE76E08FE49AE00E94BE
:1048A0006B1A6091860880912F080E94430766EE7C
:1048B00076E08FE49AE00E946B1A609185088091FF
:1048C0002E080C94430783E09CE00C9495121F92F1
:1048D0000F920FB60F9211240BB60F922F933F93A6
:1048E0004F935F936F937F938F939F93AF93BF93F8
:1048F000EF93FF93E0912208F0912308309709F499
:1049000051C0968DA685B785858591FF04C09C9181
:10491000892329F447C09C91892309F043C0A389C6
:10492000B4899C918589809589238C938689978900
:104930000197F1F7608D718DA685B785558538E0B3
:1049400020E0CB010197F1F7822F90E095958795B4
:10495000282F4C91452309F02068315091F7868D1E
:1049600081FD20958091210890E001968F73992711
:1049700030912008381749F0A0912108B0E0A956DD
:10498000B34F2C938093210803C0868D8160868F5E
:10499000828D938D0197F1F7A389B4899C918589C4
:1049A000892B8C93FF91EF91BF91AF919F918F9144
:1049B0007F916F915F914F913F912F910F900BBE1F
:1049C0000F900FBE0F901F901895E0912208F09164
:1049D0002308E817F90769F4A389B4899C918589AC
:1049E000809589238C93109223081092220881E0ED
:1049F000089580E0089520910D0990910F092132CA
:104A000008F04AC0809157098111FCCF32E0309301
:104A1000570931E0309356093FEF30935509109212
:104A2000540920935309A7E7BCE041E359E0FA0198
:104A30003E2F341B321718F43D913193F9CF109269
:104A4000520920915209990F922B909352099091FB
:104A50005109913061F4109251099091520990934B
:104A6000BB009091BC0093FDF8CF95EC01C095EE92
:104A70009093BC00909157099230E1F390915509C1
:104A80009F3F79F080915509803241F0809155091E
:104A9000803331F084E005C081E003C082E001C0D2
:104AA00083E010920E0910920D09109210090895DA
:104AB000862F413208F040E2642F0E94B311109219
:104AC0000C0980930B09089510920C0910920B09A0
:104AD00010920E0910920D091092570981E08093EF
:104AE00056091092510961E084E13DD661E085E10B
:104AF0003AD6E9EBF0E080818E7F808380818D7FE4
:104B0000808388E48093B80085E48093BC00089596
:104B10001F920F920FB60F9211240BB60F922F9384
:104B20003F934F935F936F937F938F939F93AF9335
:104B3000BF93EF93FF938091B900887F803609F48B
:104B40009CC068F5883209F45BC090F4803109F4A8
:104B500054C038F4882309F4F6C0883009F44DC0F5
:104B6000F5C0883109F44CC0803209F45DC0EEC054
:104B7000803409F468C048F4803309F455C08833A0
:104B800009F0E4C080935509D8C0803509F44FC0BE
:104B9000883509F45DC0883409F0D8C0D6C088399A
:104BA00009F4C7C0A8F4883709F467C038F4883618
:104BB00009F463C0803709F460C0C8C0883809F4BC
:104BC000B8C0803909F45FC0803809F0BFC05BC04D
:104BD000803B09F486C038F4803A09F466C0883A0C
:104BE00009F47FC0B3C0803C09F4A7C0883C09F435
:104BF000A4C0883B09F48AC0A9C08091520910C0A2
:104C00009091540980915309981770F5E0915409D7
:104C100081E08E0F80935409F0E0EF5CF64F8081C5
:104C20008093BB0085EC86C0809355098EC0E091CF
:104C3000540981E08E0F809354098091BB00F0E00D
:104C4000EF5CF64F808390915409809153096EC0B8
:104C5000E091540981E08E0F809354098091BB004C
:104C6000F0E0EF5CF64F80838091560981116DC0B2
:104C700081E08093510984EA61C083E08093570901
:104C80001092760CCFCF8091760C803208F051C014
:104C9000E091760C81E08E0F8093760C8091BB00C2
:104CA000F0E0EA5AF34F8083BDCF85EC8093BC00DF
:104CB000109257098091760C803230F4E091760C96
:104CC000F0E0EA5AF34F10826091760C70E0E091C8
:104CD000540CF091550C86E59CE019951092760CD9
:104CE00035C084E0809357091092530C1092520CF7
:104CF000E091500CF091510C19958091520C81115A
:104D000005C081E08093520C1092300CE091530C5E
:104D100081E08E0F8093530CF0E0E05DF34F8081D3
:104D20008093BB009091530C8091520C981708F41B
:104D300079CF85E88093BC0009C085EC8093BC00E6
:104D40001092570903C010925509D4DBFF91EF91DF
:104D5000BF91AF919F918F917F916F915F914F9193
:104D60003F912F910F900BBE0F900FBE0F901F9091
:104D7000189544E00C942B1E42E00C942B1E42E04C
:104D80000C94041E44E00C94041E40E150E060E2E8
:104D900070E080E39AE00E94154A8091420A8130D7
:104DA00039F48FE49EE69093310A8093300A09C06B
:104DB0008FE496E6A6E68093300A9093310AA0939A
:104DC000320A20E130E040E050E061E070E080E352
:104DD0009AE00C94E5131F93CF93DF93182FD92FEC
:104DE000C62F40E150E060E270E080E39AE00E946C
:104DF000154AE12FFD2FEC0FF11DEC0FF11D659110
:104E000074916F5F7F4F4FE050E080E39AE00E9423
:104E10009D4A20E130E040E050E061E070E080E356
:104E20009AE0DF91CF911F910C94E5130F931F939C
:104E3000CF93DF93EC01FC0170961491113009F0CF
:104E400096C01093080A40E150E0BC0180E39AE06C
:104E50000E949D4A20E130E040E050E060E070E0D8
:104E600080E39AE00E94E513FE0172968591949189
:104E7000FC0164913996A591B491611104C08C91A3
:104E80008093420A6DC08FEF860F823040F48D917F
:104E90009C9111979093480A8093470A61C08DEFC7
:104EA000860F823070F40D911D912D913C911397D6
:104EB0000093430A1093440A2093450A3093460A0C
:104EC0004FC0693029F5FD013396C591D491FD019C
:104ED00085919491FC018081FD013296A4919E01FF
:104EE00060E090E09A1761F0F90145915491FA0160
:104EF0004491481301C0692F9F5F2E5F3F4FF2CF4F
:104F00006093420ACE01DF91CF911F910F9163CF41
:104F10006A30C9F4FD013196C591D491FD01A49187
:104F2000888190E002C095958795AA95E2F780FF69
:104F300003C01093420A02C01092420ADF91CF913F
:104F40001F910F9122CF0D911D912D913C9113979F
:104F50000093490A10934A0A20934B0A30934C0A53
:104F6000CD01DF91CF911F910F910C944E1411112F
:104F700034C061112EC020910D0A30910E0A8217A3
:104F8000930739F18091110A9091120A892B79F0D7
:104F90008091130A9091140A892B61F08091150A6F
:104FA0009091160A892B79F482E090E005C080E0A8
:104FB00090E002C081E090E0880F991FFC01EF5E55
:104FC000F54F31832083D0930E0AC0930D0A1092BF
:104FD0002B0A60912B0ACE0114C01230D9F46296CC
:104FE000FE0185919491009711F0FC011995809133
:104FF000070A882361F060912B0A80910D0A909135
:105000000E0ADF91CF911F910F910C94ED1381E067
:1050100080930A0ADF91CF911F910F9108952F92EB
:105020003F924F925F926F927F928F929F92AF9238
:10503000BF92CF92DF92EF92FF921F93CF93DF93B5
:10504000CDB7DEB764970FB6F894DEBF0FBECDBF05
:105050004296FC0185919491FC01149135968590BE
:105060009590A590B490FC0131964590559065902F
:105070007490643009F424C22FEF260F223008F018
:105080004FC141E0613009F440E0193021F5FC01E5
:10509000399625913491F901329694913196259162
:1050A0003491EFEFE90F9091420A442339F09111C6
:1050B00003C0E093420A0AC0915006C09E1303C089
:1050C0001092420A03C09F5F9093420A6091420A85
:1050D000C90181DEFDC11A3051F481E09091420A8C
:1050E000913009F480E08093420A4FDEF1C14423FD
:1050F00019F02FEF3FEF02C021E030E062017301B1
:105100008091400A9091410A289F1001299F300CFC
:10511000389F300C11249101032C000C440B550BCB
:10512000CA01B901298B3A8B4B8B5C8B0E940E4FC5
:1051300029893A894B895C89163029F420E030E0CE
:1051400040E251E406C0173039F420E030E048EC8A
:1051500052E40E9449479DC0183029F420E030E015
:105160004AE754E4F6CF111126C08091420A820D1D
:1051700081149104A104B10441F4C114D104E104E7
:10518000F10419F48093420A13C090E0A0E0B0E06B
:10519000C816D906EA06FB064CF02C013D0188151D
:1051A0009905AA05BB0514F4240135014092420A71
:1051B00082E49AE0B1C0113011F0123071F58091A3
:1051C000470A9091480A820D931D81149104A1040D
:1051D000B10451F4C114D104E104F10429F4909311
:1051E000480A8093470A16C0092E000CAA0BBB0B75
:1051F000C816D906EA06FB064CF02C013D018815BD
:105200009905AA05BB0514F4240135014092470A0B
:105210005092480A87E49AE07FC0133011F01430AE
:10522000C1F58091430A9091440AA091450AB0913A
:10523000460A820F931FA41FB51F81149104A10475
:10524000B10471F4C114D104E104F10449F4809370
:10525000430A9093440AA093450AB093460A16C0A5
:10526000C816D906EA06FB064CF06C017D018815CC
:105270009905AA05BB0514F475016401C092430A9F
:10528000D092440AE092450AF092460A83E49AE0FA
:1052900043C02091490A30914A0A40914B0A5091EB
:1052A0004C0A0E94DE462B013C0181149104A104AA
:1052B000B10441F4C114D104E104F10419F4CB01A7
:1052C000D30120C0C701B6010E940E4F6B017C01C3
:1052D0009B01AC01B201C3010E94EF47181684F094
:1052E000C501B4010E940E4F6B017C019B01AC0112
:1052F000B201C3010E94084F87FD02C06201730121
:10530000C601D7018093490A90934A0AA0934B0A99
:10531000B0934C0A89E49AE0612F0E944E14D8C0E1
:10532000633009F0D5C0FC013996A591B4911930CC
:1053300099F4FD013396259134914091420AF90187
:10534000E40FF11DE40FF11D65917491FB0164916F
:10535000FD01A591B4912AC01A3021F5FD013196C5
:1053600065917491FD01A4912091420AFB01B081E5
:10537000222349F041E050E001C0440FAA95EAF72A
:105380004B2B40830AC021E030E001C0220FAA95D8
:10539000EAF720952B23FB012083FB0160810E940B
:1053A000561E8EC0111104C06091420A6C93F7CF53
:1053B0001230A1F42091470A3091480A2D933C9372
:1053C000388B2F87FC013B9685919491009709F4C7
:1053D00077C0BE01615F7F4FCFDC72C01130A1F496
:1053E0002091470A3091480A2D933C933E872D87A0
:1053F000FC013B9685919491009709F461C042E0CD
:10540000BE01635F7F4F3CC01430E9F44091430A12
:105410005091440A6091450A7091460A4D935D93FC
:105420006D937C93139749875A876B877C87FC0120
:105430003B9685919491009709F442C044E0BE01E7
:10544000675F7F4F1DC01330F1F44091430A5091C4
:10545000440A6091450A7091460A4D935D936D939D
:105460007C9313974D835E836F837887FC013B9613
:1054700085919491009721F144E0BE016B5F7F4FCD
:105480000E942B1E1DC01530D8F04091490A509142
:105490004A0A60914B0A70914C0A4D935D936D934B
:1054A0007C93139749835A836B837C83FC013B96DF
:1054B00085919491009721F0BE016F5F7F4F59DC79
:1054C0001092080A61E080910D0A90910E0AAEDCFC
:1054D00064960FB6F894DEBF0FBECDBFDF91CF91BB
:1054E0001F91FF90EF90DF90CF90BF90AF909F9073
:1054F0008F907F906F905F904F903F902F90089586
:10550000EF92FF920F931F93CF93DF93EC0161E033
:1055100084E058D100E010E061E084E024D17E0115
:10552000E00EF11ED7018C91B9E68B9FC0011124CA
:10553000823091053CF0880F991F880F991F0597BD
:105540000197F1F760E084E00ED1D7011196EC915C
:10555000B9E6EB9FF0011124E230F1053CF0EE0FCB
:10556000FF1FEE0FFF1F35973197F1F70E5F1F4FAB
:105570000E37110589F6DF91CF911F910F91FF90A2
:10558000EF9008958F929F92AF92BF92CF92DF9249
:10559000EF92FF92CF93DF93A091F20A882311F04C
:1055A0003A2F01C030E08091F30A90E0880F991FF4
:1055B0008254964FC090F80AD090F90AE090FA0A07
:1055C000F090FB0A40E050E0BA01FC01C591D49193
:1055D00028812A2323130FC04A015B012FEF821A6F
:1055E000920AA20AB20A4C155D056E057F0538F4D1
:1055F000B501A401EACF342F252FCB0104C030E040
:1056000020E080E090E0632F722FDF91CF91FF9038
:10561000EF90DF90CF90BF90AF909F908F900895C4
:1056200090E0FC013197E231F10508F04EC0882787
:10563000EB57FF4F8F4F0C94D546809180008F77AA
:1056400003C0809180008F7D8093800008958091B9
:105650008000877FF9CF84B58F7702C084B58F7DB6
:1056600084BD08958091B0008F7703C08091B00011
:105670008F7D8093B0000895809190008F7707C050
:10568000809190008F7D03C080919000877F8093F0
:10569000900008958091A0008F7707C08091A000AE
:1056A0008F7D03C08091A000877F8093A000089524
:1056B000809120018F7707C0809120018F7D03C0EA
:1056C00080912001877F8093200108953FB7F8944F
:1056D0008091DC0C9091DD0CA091DE0CB091DF0C80
:1056E00026B5A89B05C02F3F19F00196A11DB11D3D
:1056F0003FBFBA2FA92F982F8827820F911DA11D78
:10570000B11DBC01CD0142E0660F771F881F991FB4
:105710004A95D1F70895CF93DF93282F30E0F90110
:10572000E256F44F8491F901E25EF54FD491F9010C
:10573000E852F64FC491CC2389F0811171DFEC2F30
:10574000F0E0EE0FFF1FE254F64FA591B491EC91FB
:10575000ED2381E090E021F480E002C080E090E061
:10576000DF91CF9108951F93CF93DF93282F30E0DF
:10577000F901E256F44F8491F901E25EF54FD491BC
:10578000F901E852F64FC491CC23C1F0162F8111D4
:1057900047DFEC2FF0E0EE0FFF1FEC55F64FA59121
:1057A000B4918FB7F894111105C09C91ED2FE0953D
:1057B000E92302C0EC91ED2BEC938FBFDF91CF91E9
:1057C0001F910895CF93DF9390E0FC01E25EF54FC7
:1057D0002491FC01E852F64F8491882361F190E016
:1057E000880F991FFC01EC57F44FC591D491FC012F
:1057F000EC55F64FA591B491611109C09FB7F8948B
:105800008881209582238883EC912E230BC06230FF
:1058100061F49FB7F8943881822F80958323888321
:10582000EC912E2B2C939FBF06C08FB7F894E88184
:105830002E2B28838FBFDF91CF910895863308F0F8
:10584000865390917B00282F2870977F922B9093FE
:105850007B008770806480937C0080917A008064F4
:1058600080937A0080917A0086FDFCCF8091780049
:105870002091790090E0922B08958F929F92AF92A1
:10588000BF92CF92DF92EF92FF926B017C011EDFFD
:105890004B015C01C114D104E104F104E9F016DF0D
:1058A000DC01CB0188199909AA09BB09883E9340FC
:1058B000A105B10578F321E0C21AD108E108F10889
:1058C00088EE880E83E0981EA11CB11CC114D1047F
:1058D000E104F10421F7DECFFF90EF90DF90CF904D
:1058E000BF90AF909F908F9008952FB7F8946091DC
:1058F000D80C7091D90C8091DA0C9091DB0C2FBFF1
:105900000895CF92DF92EF92FF920F931F93CF9360
:10591000DF93CDB7DEB7C054D1400FB6F894DEBFE9
:105920000FBECDBFE2DF0091F40A1091F50A20917D
:10593000F60A3091F70A6B017C01C01AD10AE20A1B
:10594000F30A40EDC41647E0D406E104F10418F46C
:105950008091FC0AB1C06093F40A7093F50A8093B9
:10596000F60A9093F70A1092EF0A1092EE0A10923C
:10597000ED0A1092EC0A1092EB0A61E08091F00AB5
:10598000F2DE6AEF70E080E090E077DF61E0809126
:10599000F00A18DF60E08091F00AE5DE64E170E073
:1059A00080E090E06ADFF89461E08091F00ADBDE4D
:1059B0008BE990E00197F1F762E08091F00A02DF55
:1059C00083E290E00197F1F780E0DCDD672B682B44
:1059D000692B21F41092FC0A78943BC081E0D2DD5F
:1059E000672B682B692BB1F38E010F5F1F4F6E0180
:1059F0008FEBC81A8EEFD80A780180E0C3DDF7017B
:105A0000608371838283938381E0BCDDF7016483CB
:105A1000758386839783F8E0EF0EF11CEC14FD0488
:105A200061F7789420E030E0F80140815181628193
:105A30007381C480D580E680F780411551056105EA
:105A4000710529F0C114D104E104F10421F410928C
:105A5000FC0A80E031C0F90183E0F595E7958A956D
:105A6000E1F7E551F54F8081880F4C155D056E0516
:105A70007F0508F4816080832F5F3F4F085F1F4FD1
:105A80002832310589F62091EF0A30E04091EB0A87
:105A90008091EC0A90E0840F911D4091ED0A840FF3
:105AA000911D4091EE0A840F911D992728173907FF
:105AB00071F681E08093FC0AC05CDE4F0FB6F8946B
:105AC000DEBF0FBECDBFDF91CF911F910F91FF9031
:105AD000EF90DF90CF9008951F920F920FB60F9224
