:100000009CC50000CBC50000C9C50000C7C50000E5
:10001000C5C50000C3C50000C1C50000BFC50000C4
:10002000BDC500000C94F81C0C94F81C0C94F81C32
:10003000B5C50000B3C50000B1C50000AFC50000E4
:10004000ADC50000ABC50000A9C50000A7C50000F4
:10005000A5C50000A3C50000A1C500000C9498240C
:100060009DC500000C94E2130C94B91397C50000D1
:1000700095C5000093C5000091C500008FC5000024
:100080008DC500008BC5000089C5000087C5000034
:1000900085C5000083C5000081C5000054C700006D
:1000A0007DC500007BC5000079C5000077C5000054
:1000B00075C5000073C5000071C500006FC5000064
:1000C0006DC500006BC5000069C5000067C5000074
:1000D00065C5000063C5000061C500005FC5000084
:1000E0005DC500004A28602860285E2860284828EE
:1000F0006028602860283C286028602851285C28F7
:100100005A2860286028602858286F1F721F611FB6
:10011000651F6B1FA91F761F7A1F801F841F881FF2
:100120008E1F921F961FA91F9C1FA01FA41F323253
:100130003A31323A3136004E6F7620323820323042
:10014000313600525443204C4F535420504F5745A2
:1001500052210061742B636D6764613D2264656C9C
:1001600020616C6C220A0D0041542B434D47523DD7
:100170000041542B434D47463D310D00534D530034
:100180002059454152004D4F4E54480020204441D3
:10019000590020204D494E0020484F5552005345EC
:1001A0005420434C4F434B00204E49474854202095
:1001B0000020444159202A20200020454320585B3C
:1001C0002D5D3A0020504820585B2D5D3A00504F7D
:1001D0005745525B255D3A004C494748545B2D5DBD
:1001E0003A0045435B532F4D5D3A005048205B5029
:1001F000485D3A0048554D495B255D3A0054454DF0
:10020000505B435D3A004154480D0A004F4B003BA0
:100210000D0A00415444005245534554204F4B00B1
:100220002020202020202020000344495341424C1C
:100230004520524144494F0000024F4E210000002A
:10024000000000000000000000014F4646210000B1
:10025000000000000000000000004155544F210044
:100260000000000000000000005902490239022984
:100270000251080469025208046902530804690221
:100280005408046902050000000000000000550841
:1002900080000200000000000000005908780005FE
:1002A00000000000000000005B087C00020000006D
:1002B00000000000005F087400050E000000000050
:1002C00000006108680002FF0300000000000065F4
:1002D000086000050E0000000000000067086400D0
:1002E00002FF030000000000006B085C00020F2703
:1002F0000000E80300000006D80000030000000032
:100300000000006D08DC000002000000000000009A
:100310006E08C4000500000000000000006F086CBB
:100320000005000000000000000073087000050ECA
:100330000000000000000077085400050E000000D7
:10034000000000007B085800066600000000000066
:10035000007F0850000666000000000000008308CF
:100360004C0006630000009DFFFFFF870898000611
:10037000630000009DFFFFFF8B08940006630000F0
:10038000009DFFFFFF8F08480006630000009DFFEF
:10039000FFFF9308440002000000000000000097E7
:1003A00008400002000000000000000099083C0026
:1003B0000200000000000000009B0838000200005E
:1003C0000000000000009D0834000900000000004B
:1003D0000000007102000006630000009DFFFFFFA7
:1003E0009F08900006630000009DFFFFFFA3088C9C
:1003F0000006630000009DFFFFFFA7082C000663B6
:100400000000009DFFFFFFAB08280009000000006E
:1004100000000000760200000663000000000000FB
:1004200000AF088800066300000000000000B30869
:100430008400066300000000000000B708200006EA
:100440006300000000000000BB081C000900000061
:1004500000000000007B020000023B0000000000E2
:100460000000BF081400021700000000000000C1D7
:10047000081000023B00000000000000C3080C0050
:10048000021700000000000000C508080009000075
:100490000000000000008002040045432048494756
:1004A000482059205B532F4D5D00010085024543D4
:1004B000204849474820582020205B2D5D0001003E
:1004C00092024543204C4F57202059205B532F4D1B
:1004D0005D0001009F024543204C4F5720205820CB
:1004E00020205B2D5D000100AC02504820484947A8
:1004F00048205920205B50485D000100B902504857
:10050000204849474820582020205B2D5D000100ED
:10051000C6025048204C4F5720205920205B50489D
:100520005D000100D3025048204C4F572020582036
:1005300020205B2D5D000100E00247534D20434F1A
:1005400044452D3E0000000000000100ED0247532D
:100550004D204D4F44452D3E00000000000001009D
:10056000FA0245585445524E414C0000000000002C
:100570000000010007034543204849474820202048
:100580005B532F4D5D00010014034543204C4F5732
:10059000202020205B532F4D5D0001002103504897
:1005A0002048494748202020205B50485D0001003A
:1005B0002E035048204C4F5720202020205B5048CD
:1005C0005D0001003B034C494748204C4F57000059
:1005D000000000000000010048034C494748204843
:1005E0004947480000000000000001005503544541
:1005F0004D50204C4F5720204E205B435D000100A2
:10060000620354454D502048494748204E205B43E3
:100610005D0001006F0354454D50204C4F57202082
:1006200020205B435D0001007C0354454D50204871
:100630004947482020205B435D000100890343595E
:10064000434C4552204F464620205B535D0001003D
:1006500096034359434C4552204F464620205B4D5C
:100660005D000100A3034359434C4552204F4E20E7
:1006700020205B535D000100B0034359434C4552B9
:10068000204F4E2020205B4D5D000100BD034359EB
:10069000434C455220434F4E54524F4C00000100F2
:1006A000CA0346414E204F4646204E20205B435D04
:1006B00000000100D70346414E204F4E20204E201F
:1006C000205B435D00000100E40346414E204F469D
:1006D00046202020205B435D00000100F1034641DD
:1006E0004E204F4E20202020205B435D0000010063
:1006F000FE0346414E20434F4E54524F4C000000E3
:10070000000001000B04484541544552204F46204B
:100710004E205B435D00010018044845415445529A
:10072000204F4E204E205B435D00010025044845CC
:1007300041544552204F464620205B435D00010056
:100740003204484541544552204F4E2020205B43FF
:100750005D0001003F0448454154455220434F4E3F
:1007600054524F4C000001004C044C49474854205F
:100770004F46462020205B4D5D00010059044C4946
:10078000474854204F46462020205B485D0001002A
:1007900066044C49474854204F4E202020205B4D92
:1007A0005D00010073044C49474854204F4E2020FF
:1007B00020205B485D00010080044C4947485420DC
:1007C000434F4E54524F4C00000001008D04D6049C
:1007D000C204AE049A0426051205FE04EA044E057E
:1007E0003A052A0616060206EE05DA05C605B20522
:1007F0009E058A05760562058E067A06660652060D
:100800003E06F206DE06CA06B606A20656074207EE
:100810002E071A070607BA07A60792077E076A0778
:100820005245534554210000000000000000000024
:1008300002004D0B45432D3E00000000000000006B
:10084000000000000004CE0750482D3E00000000CC
:1008500000000000000000000004D60747534D2DA3
:100860003E00000000000000000000000002DE0763
:1008700053455420434C4F434B2D3E000000000095
:100880000200DA05414C41524D205345542D3E00A3
:1008900000000000000BE2074359434C45522D3E37
:1008A00000000000000000000005F80746414E2D42
:1008B0003E000000000000000000000000050208EB
:1008C0004845415445522D3E000000000000000004
:1008D00000050C084C494748542D3E00000000001C
:1008E0000000000000051608D408C008AC089808ED
:1008F000840870085C0848083408200800002200BA
:10090000250028002B002E003100340002010000D9
:10091000050108010B01000020002300260029002A
:100920002C002F0032000001000003010601090124
:1009300005050505070508080808020202020A0A5B
:100940000808040404040101010101010101030379
:10095000030303030303040707070C0C0C0C0C0C24
:100960000C0C0202020206060606060606060B0B21
:100970000B0B0B0B0B0B0102102020080810204062
:100980001020408002010201080402010102040853
:1009900010204080804020100804020180040201E1
:1009A000804020100804020108040201010204082A
:1009B000102040800102040810204080526F6F74A4
:1009C000000000000000000000000000000AE8082D
:1009D0001F1C1F1E1F1E1F1F1E1F1E1F0000210089
:1009E000240027002A002D00300033000101000000
:1009F000040107010A0100000A0B02090C0D0E0890
:100A000007030401000000000000000000000000D7
:100A100000000000000000000000000000000000D6
:100A20000000121110000000000000000000000093
:100A300000000000000000000000000000407A10EC
:100A4000F35A00A0724E18090010A5D4E80000E87F
:100A50007648170000E40B54020000CA9A3B0000DD
:100A600000E1F505000080969800000040420F006C
:100A70000000A08601000000102700000000E8032D
:100A8000000000006400000000000A0000000000F8
:100A90000100000000002C76D888DC674F0823DFB7
:100AA000C1DFAE59E1B1B796E5E3E453C63AE6518A
:100AB000997696E8E6C28426EB898C9B62ED407CB1
:100AC0006FFCEFBC9C9F40F2BAA56FA5F490055A4D
:100AD0002AF75C936B6CF9676DC11BFCE0E40D4772
:100AE000FEF520E6B500D0ED902E03009435770595
:100AF0000080841E080000204E0A000000C80C334D
:100B00003333330F986E12831141EF8D2114893BDB
:100B1000E65516CFFEE6DB18D1844B381BF77C1D5B
:100B2000901DA4BBE424203284725E228100C9F1AE
:100B300024ECA1E53D27A8399A3911241FBECFEF37
:100B4000D1E2DEBFCDBF00E00CBF17E0A0E0B2E015
:100B5000E6EBF7E800E00BBF02C007900D92AE3A5B
:100B6000B107D9F72BE0AEEAB7E001C01D92A23F72
:100B7000B207E1F715E0CCE9D5E000E006C0219727
:100B80000109802FFE010E94403CCB39D10780E053
:100B90000807A9F70E9427250C94CA4331CA85ED9E
:100BA0008093BC008091BC0084FDFCCF109213099F
:100BB00008950895CF93DF9300D000D0CDB7DEB76E
:100BC0001092C30982E090E09093C6078093C50716
:100BD000CE0101960E94AB1E86E0FE013196A0E692
:100BE000BBE001900D928A95E1F71092C407109234
:100BF000C3071092B3071092B4071092B507109272
:100C0000B6071092B2078BE09AE00E94DE15269696
:100C10000FB6F894DEBF0FBECDBFDF91CF91089520
:100C2000CF93C62F482F50E060E070E08BE09AE051
:100C30000E947716C11102C061E405C0C33010F4F0
:100C40006DE401C068E58BE09AE0CF910C9430131D
:100C50008091590B811120C080914B0B81111CC0D8
:100C600080913D0B811118C080912F0B811114C010
:100C70008091210B811110C08091130B81110CC048
:100C80008091050B811108C08091F70A811104C081
:100C90008091E90A882321F08091C707882329F0F1
:100CA0008BE09AE00E94D6150BC0E0910B0AF09100
:100CB0000C0A0084F185E02D60E08BE09AE0199544
:100CC00060E080E00E94C9168091580B882331F0C3
:100CD0008091C707882331F06BE20BC080914A0BEB
:100CE000811102C060E205C08091C7078823D1F35B
:100CF0006DE28BE09AE00E94301364E78BE09AE0AB
:100D00000E9430136091BF077091C0078091C107A6
:100D10009091C2070E94153D675F7F4F6331710557
:100D200028F460E38BE09AE00E9430134091BF0703
:100D30005091C0076091C1077091C2078BE09AE0A3
:100D40000E94021760E086E00E94C91669E977E018
:100D50008BE09AE00E94B8136091BF077091C007C2
:100D60008091C1079091C2070E94153D675F7F4F38
:100D70006331710528F460E38BE09AE00E94301340
:100D80004091BB075091BC076091BD077091BE07B1
:100D90008BE09AE00E94021760E08AE00E94C91688
:100DA00060E28BE09AE00E94301380915D0B8A3004
:100DB00028F460E38BE09AE00E94301340915D0BD1
:100DC00050E060E070E02AE08BE09AE00E9470134F
:100DD0008091C707882341F08091200B882311F070
:100DE00061E203C06AE301C060E28BE09AE00E9426
:100DF000301380915E0B8A3028F460E38BE09AE038
:100E00000E94301340915E0B50E060E070E02AE0F9
:100E10008BE09AE00E94701361E080E00E94C916A6
:100E200080913C0B882341F08091C707882311F003
:100E30006BE221C060E21FC080912E0B882331F04D
:100E40008091C7078823B1F36DE215C020917F0818
:100E50003091800840918108509182086091B707D5
:100E60007091B8078091B9079091BA070E94463DEA
:100E7000181604F76AE28BE09AE00E9430136DE9DD
:100E800076E08BE09AE00E94B8136091540880915C
:100E9000CB07C6DE6CED76E08BE09AE00E94B813DB
:100EA000609153088091CA07BBDE6FED76E08BE05E
:100EB0009AE00E94B813609152088091C907B0DE91
:100EC00062EE76E08BE09AE00E94B81360915108E0
:100ED0008091C807A5CECF92DF92EF92FF920F9339
:100EE0001F93CF93DF931F921F92CDB7DEB78C0174
:100EF00079018BE09AE04A8369830E94D615698163
:100F00004A81842F0E94C9166801C601801B910B7B
:100F10008E159F056CF4F60161916F018FED860FC0
:100F20008E3508F060E28BE09AE00E94BD0FEDCFB5
:100F30000F900F90DF91CF911F910F91FF90EF9045
:100F4000DF90CF9008951F920F920FB60F92112449
:100F50000BB60F922F933F934F935F936F937F93B3
:100F60008F939F93AF93BF93EF93FF938091B900BB
:100F7000887F803609F49CC068F5883209F45BC02C
:100F800090F4803109F454C038F4882309F4F6C091
:100F9000883009F44DC0F5C0883109F44CC0803266
:100FA00009F45DC0EEC0803409F468C048F48033B1
:100FB00009F455C0883309F0E4C080931109D8C002
:100FC000803509F44FC0883509F45DC0883409F0D4
:100FD000D8C0D6C0883909F4C7C0A8F4883709F446
:100FE00067C038F4883609F463C0803709F460C0FC
:100FF000C8C0883809F4B8C0803909F45FC08038A7
:1010000009F0BFC05BC0803B09F486C038F4803A69
:1010100009F466C0883A09F47FC0B3C0803C09F483
:10102000A7C0883C09F4A4C0883B09F48AC0A9C0C1
:1010300080910E0910C09091100980910F099817A6
:1010400070F5E091100981E08E0F80931009F0E0B7
:10105000E351F74F80818093BB0085EC86C080937D
:1010600011098EC0E091100981E08E0F8093100964
:101070008091BB00F0E0E351F74F8083909110091D
:1010800080910F096EC0E091100981E08E0F80936E
:1010900010098091BB00F0E0E351F74F808380910D
:1010A000120981116DC081E080930D0984EA61C04D
:1010B00083E08093130910925008CFCF809150089D
:1010C000803208F051C0E091500881E08E0F80938B
:1010D00050088091BB00F0E0E05DF74F8083BDCF0A
:1010E00085EC8093BC0010921309809150088032E7
:1010F00030F4E0915008F0E0E05DF74F108260912D
:10110000500870E0E0912E08F0912F0880E398E0FD
:1011100019951092500835C084E0809313091092FD
:101120002D0810922C08E0912A08F0912B081995AF
:1011300080912C08811105C081E080932C081092C9
:101140000A08E0912D0881E08E0F80932D08F0E0D1
:10115000E65FF74F80818093BB0090912D088091CE
:101160002C08981708F479CF85E88093BC0009C053
:1011700085EC8093BC001092130903C010921109F2
:101180000EDDFF91EF91BF91AF919F918F917F9174
:101190006F915F914F913F912F910F900BBE0F90E8
:1011A0000FBE0F901F90189540912C08262F30E00D
:1011B000240F311D21323105DCF420911309243034
:1011C000C9F4FC0180E090E0861758F430912C08B7
:1011D0002191DC01A65FB74FA30FB11D2C9301969F
:1011E000F3CF80912C08680F60932C0880E008955D
:1011F00081E0089582E0089544E00C94111C42E0DF
:101200000C94111C44E00C94EA1B42E00C94EA1B81
:1012100060E272E08BE09AE00C943713882311F0BF
:101220006BE205C0662311F06DE201C060E28BE065
:101230009AE00C943013662321F081E0623009F0CB
:1012400080E008954F925F926F927F928F929F926B
:10125000AF92BF92CF92DF92EF92FF92109254081A
:1012600086E090E09093C6088093C5081092C40869
:101270001092C30886E190E09093C2088093C10861
:101280001092C0081092BF0841E064E578E084E065
:1012900090E00E94111C65EC78E088E090E0AFDF00
:1012A00063EC78E08CE090E0AADF61EC78E080E12C
:1012B00090E0A5DF6FEB78E084E190E0A0DF109292
:1012C0005308C12CD12C80E7E82E81E4F82EC0927F
:1012D000BB08D092BC08E092BD08F092BE0880E046
:1012E00090E0A0E8B1E48093B7089093B808A09389
:1012F000B908B093BA08412C512C90E2692E91E4C0
:10130000792E4092B3085092B4086092B50870925A
:10131000B60880E090E0A0E3B1E48093AF0890933A
:10132000B008A093B108B093B20841E063E578E05B
:1013300088E190E00E94111C6BEB78E08CE190E07A
:101340005BDF67EB78E080E290E056DF63EB78E00C
:1013500084E890E051DF6FEA78E088E890E04CDFC5
:101360001092520880E090E0A0EAB1E48093AB08CC
:101370009093AC08A093AD08B093AE0880E090E0E5
:10138000A8E9B1E48093A7089093A808A093A908BE
:10139000B093AA08C092A308D092A408E092A5082E
:1013A000F092A608812C912C20E6A22E21E4B22EE8
:1013B00080929F089092A008A092A108B092A208E3
:1013C00041E062E578E084E290E00E94111C6BEA63
:1013D00078E088E290E010DF67EA78E08CE290E065
:1013E0000BDF63EA78E08CE890E006DF6FE978E0F5
:1013F00080E990E001DF1092510810929E0810924F
:101400009D088EE190E090939C0880939B08109239
:101410009A0810929908909398088093970841E051
:1014200061E578E080E390E00E94111C6DE978E0CE
:1014300084E390E0E4DE6BE978E088E390E0DFDECF
:1014400069E978E08CE390E0DADE67E978E080E44F
:1014500090E0D5DE80E090E0A8EAB1E480938B08CC
:1014600090938C08A0938D08B0938E0880E090E054
:10147000A8E9B1E48093870890938808A09389082D
:10148000B0938A0880E090E0A0E2B2E48093830801
:1014900090938408A0938508B093860880E090E03C
:1014A000A0E7B2E480937F0890938008A09381081E
:1014B000B0938208C0929308D0929408E092950865
:1014C000F092960840928F0850929008609291088E
:1014D000709292086BE878E084E490E08DDE67E833
:1014E00078E088E490E088DE63E878E08CE490E0DF
:1014F00083DE6FE778E080E590E07EDE63E978E008
:1015000084E990E079DE6FE878E088E990E074DEC5
:101510008FE892E090936C0880936B0880E192E0F2
:1015200090936608809365088CEE91E5A0E8B0E49E
:101530008093670890936808A0936908B0936A083D
:1015400080E090E0A0EEB0E48093610890936208A0
:10155000A0936308B093640810927B0810927C08F3
:1015600010927D0810927E088092770890927808F9
:10157000A0927908B0927A086BE778E088E590E06D
:101580003BDE67E778E084E590E036DE42E06BE63C
:1015900078E08CE590E00E94111C42E065E678E07E
:1015A00080E690E00E94111C67E678E084E690E017
:1015B00023DE61E678E088E690E01EDE82EF90E0D0
:1015C0009093600880935F088DE790E090935A08AD
:1015D0008093590881E895E9A3EABFE380935B080B
:1015E00090935C08A0935D08B0935E088AE69CEB3C
:1015F000A0E9B0E48093550890935608A09357084B
:10160000B0935808109273081092740810927508DD
:101610001092760880E090E0AAE7B4E480936F0827
:1016200090937008A0937108B093720863E778E014
:1016300080E790E0E1DD6FE678E08CE690E0DCDDCD
:1016400042E06FE578E084E790E00E94111C42E000
:1016500069E578E088E790E00E94111C6BE578E08E
:101660008CE790E0C9DD65E578E080E890E0C4DDD6
:1016700010926E0841E06EE678E084EC90E0FF9016
:10168000EF90DF90CF90BF90AF909F908F907F9022
:101690006F905F904F900C94111CD4DD8BE09AE01A
:1016A0000E94DE1560E080E00E94C91667E172E0EA
:1016B0008BE09AE0DCD768EE73E080E090E00C9479
:1016C0005424EF92FF920F931F93CF93DF931F92B7
:1016D0001F92CDB7DEB78C017B0142E0BE016F5F88
:1016E0007F4F80EE90E00E94EA1B29813A812150D1
:1016F0003109283031051CF43A83298302C01A824B
:10170000198268E070E09B01201B310B89819A816E
:10171000820F931F0E94EF3B9A83898300E010E0C1
:10172000B701600F711F89819A8124E0880F991F8A
:101730002A95E1F78C519F4F41E0800F911F0E9445
:10174000EA1B0F5F1F4F0031110551F7F701108A97
:101750000F900F90DF91CF911F910F91FF90EF901D
:101760000895CF92DF92EF92FF920F931F93CF9342
:10177000DF931F921F92CDB7DEB78C01F62E8091BA
:10178000BB0A803309F43EC081E368133BC08091FB
:10179000CF0A9091D00AA091D10AB091D20A892B98
:1017A0008A2B8B2B79F580916D08823058F163E498
:1017B00084E199E055D76FE876E084E199E07BD742
:1017C000C090CB0AD090CC0A63E172E086E69BE041
:1017D0004ED7B60186E69BE0CBD76FE072E086E697
:1017E0009BE045D78091CC079091CD07A091CE0783
:1017F000B091CF078093CF0A9093D00AA093D10ADB
:10180000B093D20A80915C0B68018A3048F4EFEF04
:10181000CE1ADE0A4AE0B80180E090E00E94D43F90
:1018200080915C0B4AE0B60190E00E94D43F8FE2C9
:10183000F8018283B8016D5F7F4F80915B0B8A3026
:1018400040F44AE080E090E00E94D43FC801049652
:10185000BC0180915B0B4AE090E00E94D43F80E2A3
:10186000F8018583B8016A5F7F4F80915D0B8A30F4
:1018700040F44AE080E090E00E94D43FC80107961F
:10188000BC0180915D0B4AE090E00E94D43F8AE366
:10189000F8018087B801675F7F4F80915E0B8A30C7
:1018A00040F44AE080E090E00E94D43FC8010A96EC
:1018B000BC0180915E0B4AE090E00E94D43F80E240
:1018C000F8018387F78642E0BE016F5F7F4F80EEAD
:1018D00090E00E94EA1B89819A81089714F01A828D
:1018E0001982E12CF12CB8016E0D7F1D89819A813E
:1018F00024E0880F991F2A95E1F78C519F4F41E012
:101900008E0D9F1D0E94111CFFEFEF1AFF0A80E150
:10191000E816F10441F789819A81019668E070E048
:101920000E94EF3B9A83898342E0BE016F5F7F4F45
:1019300080EE90E00E94111C89819A810F900F9097
:10194000DF91CF911F910F91FF90EF90DF90CF909B
:101950000895CF93DF93EC016BD78E859F858130FF
:10196000910589F18230910581F18430910579F1F9
:10197000089779F18C859D858130910561F18230E0
:10198000910559F18430910551F1089751F18A85FB
:101990009B858130910539F18230910531F1843098
:1019A000910529F1089729F188859985813091055C
:1019B00011F18230910509F18430910501F1089708
:1019C00001F180E01FC08AE21DC087E31BC084E3F1
:1019D00019C081E317C080E315C088E313C085E315
:1019E00011C082E30FC083E20DC089E30BC086E320
:1019F00009C083E307C084E405C083E403C082E434
:101A000001C081E4DF91CF910895CF92DF92EF92F0
:101A1000FF920F931F93CF93DF93EC0109D72E858D
:101A20003F85888599852430310509F049C04C856A
:101A30005D854830510519F421E0209354082A852A
:101A40003B852830310519F462E0609354088830F2
:101A5000910511F4109254084430510519F461E0D5
:101A6000609353082430310519F462E06093530801
:101A70008430910511F4109253084230510519F445
:101A800061E0609352082230310519F462E06093FE
:101A900052088230910511F41092520841305105DC
:101AA00019F441E0409351082130310519F422E046
:101AB00020935108019709F055C01092510852C067
:101AC0008E0101581F4F892B51F48A859B85892BE4
:101AD00031F48C859D85892B11F4232BA1F1F8011C
:101AE00080819181A281B381892B8A2B8B2B39F440
:101AF0000E948C24F8016083718382839383F801B0
:101B0000C080D180E280F380F4EFCF0EF1E0DF1EE1
:101B1000E11CF11C0E948C246C157D058E059F052F
:101B2000B8F4F801C080D180E280F380F8ECCF0EE9
:101B3000D11CE11CF11C0E948C24C616D706E806B5
:101B4000F90630F40FC0F80110821182128213825C
:101B5000CE01DF91CF911F910F91FF90EF90DF9019
:101B6000CF90F7CE80E0DF91CF911F910F91FF9042
:101B7000EF90DF90CF900895FC01E45BFF4F8081F0
:101B8000918143DF813459F0823461F0843469F00B
:101B9000833271F08A3279F080E090E0089583E03A
:101BA00090E0089584E090E0089581E090E0089549
:101BB00082E090E0089585E090E00895CF92DF9272
:101BC000EF92FF920F931F93FC01662381F18485AE
:101BD000882389F14481558166817781C090CC0743
:101BE000D090CD07E090CE07F090CF07452B462B45
:101BF000472B21F4C482D582E682F7824285538541
:101C0000052E000C660B770B048115812681378128
:101C1000400F511F621F731F4C155D056E057F0538
:101C200050F41486148215821682178205C014821D
:101C300015821682178280E01F910F91FF90EF901E
:101C4000DF90CF9008950F931F93FC01662391F1CD
:101C50008485811133C080819181A281B3810091FB
:101C6000CC071091CD072091CE073091CF07892B5B
:101C70008A2B8B2B21F4008311832283338380856D
:101C80009185092E000CAA0BBB0B4081518162810A
:101C90007381840F951FA61FB71F80179107A20796
:101CA000B30760F481E084878587108211821282F5
:101CB000138205C0108211821282138280E01F916C
:101CC0000F9108950895CF92DF92EF92FF920F93B4
:101CD0001F93CF93DF936C017A018B01C0E0D0E0BA
:101CE000CE15DF0589F0D8016D918D01D601ED91FA
:101CF000FC910190F081E02DC6011995892B11F41A
:101D00007E0102C02196ECCFC701DF91CF911F91D8
:101D10000F91FF90EF90DF90CF900895FC01918D8F
:101D2000828D981761F0828DDF01A80FB11D5D963D
:101D30008C91928D9F5F9F73928F90E008958FEFAB
:101D40009FEF0895FC01918D828D981731F0828D5F
:101D5000E80FF11D858D90E008958FEF9FEF0895B6
:101D6000FC01918D228D892F90E0805C9F4F821B1A
:101D700091098F739927089584E199E0F1DF21E0BB
:101D8000892B09F420E0822F0895FC01848DDF0166
:101D9000A80FB11DA35ABF4F2C91848D90E00196DE
:101DA0008F739927848FA689B7892C93A089B189CD
:101DB0008C9180648C93938D848D981306C00288D7
:101DC000F389E02D80818F7D80830895EF92FF92CB
:101DD0000F931F93CF93DF93EC0181E0888F9B8D4E
:101DE0008C8D981305C0E889F989808185FD23C011
:101DF000F62E0B8D10E00F5F1F4F0F731127E02E93
:101E00008C8DE8120BC00FB607FCFACFE889F98970
:101E1000808185FFF5CFCE01B8DFF2CF8B8DFE013B
:101E2000E80FF11DE35AFF4FF0820B8FEA89FB891F
:101E30008081806207C0EE89FF896083E889F98923
:101E400080818064808381E090E0DF91CF911F9159
:101E50000F91FF90EF900895CF93DF93EC01888D61
:101E60008823C1F0EA89FB89808185FD05C0A889A6
:101E7000B9898C9186FD0EC00FB607FCF5CF808125
:101E800085FFF2CFA889B9898C9185FFEDCFCE016E
:101E90007CDFE8CFDF91CF91089580E090E0892B3F
:101EA00019F06ADF811125C080E090E0892B41F0B4
:101EB00080E090E0892B21F00E94000081111CC07D
:101EC00080E090E0892B41F080E090E0892B21F0C8
:101ED0000E940000811113C080E090E0892BA1F0E6
:101EE00080E090E0892B81F00E94000081110AC0FF
:101EF00008950E940000D8CF0E940000E1CF0E9408
:101F00000000EACF0C9400000895DC0126E0629FF7
:101F1000A00DB11D112490965C934E935F9721E024
:101F200091962C939197FC01E459FF4F20813196B3
:101F30000190F081E02D222331F0309749F06111BA
:101F400007C0DC0102C0309719F05C968C9119949F
:101F5000089521E001C0220F6A95EAF7DC011C9682
:101F60002C931C971A965C934E931997ED91FC91C4
:101F70000084F185E02D60E01994DC01ED91FC9185
:101F80000284F385E02D41E0199581E090E0089509
:101F90000E945F3F0F931F93CF93DF93EC010E944A
:101FA0008C24688779878A879B87E881F9810680F6
:101FB000F781E02DCE01199597FF17C00E948C2460
:101FC000088519852A853B85DC01CB01801B910B97
:101FD000A20BB30B0C811D812E813F8180179107CD
:101FE000A207B30710F38FEF9FEFDF91CF911F91FF
:101FF0000F9108956F927F928F929F92AF92BF92AE
:10200000CF92DF92EF92FF921F93CF93DF931F92B5
:10201000CDB7DEB73C01162FFC0186E0689FE00DCE
:10202000F11D112411A2878D90A181309105F1F04D
:102030001CF4892B51F04DC082309105A9F1039712
:1020400009F047C040E050E033C0442309F441C0E8
:1020500041E050E0C30159DF0E948C24F301E85AAB
:10206000FF4F608371838283938333C049830E94CF
:102070008C24F301E85AFF4FC080D180E280F380C6
:102080004B015C018C189D08AE08BF0872968081D8
:102090009181A0E0B0E0498188159905AA05BB05AA
:1020A00018F442E050E004C0411113C043E050E096
:1020B000612FC3010F90DF91CF911F91FF90EF909F
:1020C000DF90CF90BF90AF909F908F907F906F9058
:1020D0001CCF0F90DF91CF911F91FF90EF90DF9079
:1020E000CF90BF90AF909F908F907F906F9008950A
:1020F000862F0C946023862F642F0C948823862FC0
:10210000642F0C94B723CF92DF92EF92FF920F933C
:102110001F93CF93DF9301E010E002C0000F111F67
:102120006A95E2F77C012FE6E20EF11C6C01ECE708
:10213000CE0ED11CF601408150E03197608170E0F5
:10214000C7010E949F1EC7010E94C91AEC01F60137
:102150008081823040F0C7010E94C91A20E030E03F
:10216000382FC22BD32BC023D12381E090E0C0179E
:10217000D10711F080E090E0DF91CF911F910F9196
:10218000FF90EF90DF90CF900895CF92DF92EF9283
:10219000FF920F931F93CF93DF938C0181E090E028
:1021A00002C0880F991F6A95E2F7E801C358DF4F14
:1021B000442329F028813981822B932B06C08095F6
:1021C0009095288139818223932399838883C880BD
:1021D000D980F801E558FF4F808178019FE6E90E2C
:1021E000F11C91E09093CC088093CB081092CA0820
:1021F0001092C908D701ED91FC910190F081E02D7A
:102200006C2DC7011995F801E458FF4F8081823089
:1022100048F0D701ED91FC910190F081E02D6D2DFA
:10222000C7011995C7010E948C1DC882D982DF9110
:10223000CF911F910F91FF90EF90DF90CF90089575
:10224000EF92FF920F931F93CF938C01FC01759631
:1022500084E0C0E060FF02C09081C92B6695815088
:1022600031968111F7CF413011F4F8014489F8011A
:102270008585C82BC42B7801FEE0EF0EF11CF80118
:1022800062896C2BC7010E94E91DF8016289609583
:102290006C23C701CF911F910F91FF90EF900C9489
:1022A000E91D0F931F93CF93DF93062F0F704230DA
:1022B00019F440E0602F0FC0142F262FEC0130E0FE
:1022C000B90184E0759567958A95E1F7CE01B8DF8D
:1022D000412F602FCE01DF91CF911F910F91B0CF91
:1022E000FC0184858823A9F02185328521153105DB
:1022F00019F4611106C007C02130310521F46111C4
:1023000002C0858701C015866585CF010E960C94A5
:10231000E91D0895FF920F931F93CF93DF93EC0174
:10232000162F042FF22E8B85888B81EB99E00E946B
:10233000301F888991E09093CC088093CB0810924D
:10234000CA081092C90881EB99E00E948C1D91E0A7
:10235000811190E0998B992329F081EB99E00E94FB
:10236000C91A8E878989882339F01F861C8260E00C
:10237000CE010E960E94E91D2F2D402F612FCE0118
:10238000DF91CF911F910F91FF900C94E51ACF939D
:10239000DF93FC0124813581232B71F0FB01DC01EB
:1023A000CD91DC9160817181CE010E94923F0097B6
:1023B00019F08C1B9D0B02C08FEF9FEFDF91CF9127
:1023C0000895FC01248135816217730748F48081E8
:1023D0009181009729F0FC01E60FF71F8081089595
:1023E00080E008950F931F93CF93DF938C01EB014F
:1023F0008617970771F1FC01808191810097B1F0F8
:10240000688179816115710579F0428153812C8150
:102410003D814217530740F00E947C3F8C819D8193
:10242000F8019583848313C00E94E33D88819981DC
:10243000F801918380838A819B81938382838C813D
:102440009D8195838483198218821B821A821D8242
:102450001C82C801DF91CF911F910F9108950F93B6
:102460001F93CF93DF93EC0188819981009729F026
:102470002A813B812617370788F48B016F5F7F4FD6
:102480000E947B3E009761F0998388831B830A83B7
:102490002C813D81232B11F4FC01108281E001C0CD
:1024A00080E0DF91CF911F910F910895CF93DF933B
:1024B000EC0188819981009711F00E94E33D198217
:1024C00018821D821C821B821A82DF91CF9108958F
:1024D000EF92FF920F931F93CF93DF93EC017B0159
:1024E0008A01BA01BCDF811103C0CE01DFDF07C062
:1024F0001D830C83B701888199810E947C3FCE01A6
:10250000DF91CF911F910F91FF90EF900895FC0103
:10251000808191810C94E33DFC0111821082138231
:102520001282158214826115710549F0FB01019038
:102530000020E9F73197AF01461B570BC9CF08952B
:10254000BF92CF92DF92EF92FF920F931F93CF93A0
:10255000DF937C016B01EA0189012417350720F420
:102560008D2FE901042F182F61E976E0C701D4DF30
:10257000D60114968D919C911597C817D90738F5F7
:102580008017910708F48C01D601ED91FC91119709
:10259000E00FF11FB08010824D915C91BA016C0F79
:1025A0007D1F6115710559F0FB0101900020E9F7CD
:1025B0003197AF01461B570BC7018ADF02C0C70125
:1025C00075DFD601ED91FC91E00FF11FB082C701DC
:1025D000DF91CF911F910F91FF90EF90DF90CF90FF
:1025E000BF900895CF92DF92EF92FF920F931F93C7
:1025F000CF93DF931F921F92CDB7DEB78C016B0193
:1026000061E976E089DFC601C5DC97FD1DC08983DD
:102610001A82F801E480F580FFEFEF1AFF0AB70194
:10262000C8011DDF882379F3F8012081318184817D
:102630009581BE016F5F7F4F820F931F0E947C3F89
:10264000F801F582E482DFCFC8010F900F90DF918F
:10265000CF911F910F91FF90EF90DF90CF90089551
:10266000DC01ED91FC910190F081E02D1994EF9245
:10267000FF920F931F93CF93DF938C017B01C0E0F8
:10268000D0E0F701EC0FFD1F6491662361F0D801E3
:10269000ED91FC910190F081E02DC8011995892BF5
:1026A00011F02196EECFCE01DF91CF911F910F91C6
:1026B000FF90EF9008956115710579F0FB0101908D
:1026C0000020E9F73197AF01461B570BDC01ED9174
:1026D000FC910280F381E02D199480E090E0089550
:1026E0004F925F926F927F92EF92FF920F931F93A0
:1026F000CF93DF93CDB7DEB7A1970FB6F894DEBFC7
:102700000FBECDBF7C01FA01CB0119A2223008F423
:102710002AE08E010F5D1F4F422E512C612C712C2F
:10272000BF01A30192010E94023CF901CA010150BC
:1027300011096A3014F4605D01C0695CD8016C93C2
:10274000232B242B252B61F7B801C701B4DFA196F9
:102750000FB6F894DEBF0FBECDBFDF91CF911F91B2
:102760000F91FF90EF907F906F905F904F90089542
:10277000A2CF1F920F920FB60F9211240BB60F9299
:102780002F933F934F935F936F937F938F939F9379
:10279000AF93BF93EF93FF9384E199E0F6DAFF9153
:1027A000EF91BF91AF919F918F917F916F915F91C9
:1027B0004F913F912F910F900BBE0F900FBE0F9036
:1027C0001F9018951F920F920FB60F9211240BB6FF
:1027D0000F922F938F939F93EF93FF93E091240990
:1027E000F09125098081E0912A09F0912B0982FD61
:1027F00012C0908180912D098F5F8F7320912E09D7
:10280000821751F0E0912D09F0E0EC5EF64F958FC4
:1028100080932D0901C08081FF91EF919F918F914D
:102820002F910F900BBE0F900FBE0F901F90189519
:102830002F923F924F925F926F927F928F929F92D0
:10284000AF92BF92CF92DF92EF92FF920F931F93BE
:10285000CF93DF93CDB7DEB72A970FB6F894DEBFDC
:102860000FBECDBF9A8789870E948C2429853A851F
:10287000245A3F4F3A832983D9010D911D912D91FF
:102880003C91AB01BC01401B510B620B730BE98502
:10289000FA85E859FF4F80819181A0E0B0E010E017
:1028A00084179507A607B70708F05EC169847A8484
:1028B000F6E66F0E711CE984FA8422E6E20EF11C42
:1028C000D3018C911817A0F4E985FA858081918154
:1028D000F701A081B181A10FB11DFC0120813181DF
:1028E00042E06C9189859A85F90119951F5FE8CFBF
:1028F00010E029843A84B7E62B0E311CE984FA846F
:10290000E4E6EE0EF11C812C912C54018394298570
:102910003A852E593F4F3C832B83F1018081181754
:1029200008F08DC0C12ED12CA985BA858D919C91BE
:10293000F701A081B181AC0DBD1DFC012081318169
:1029400041E06C9189859A85F9011995A985BA8527
:102950008D919C91F701A081B181AC0DBD1DFC0151
:102960002281338140E06C9189859A85F90119951E
:10297000D501C401012E04C0880F991FAA1FBB1FD7
:102980000A94D2F7AC019C012095309500E0F30148
:102990008081A985BA85ED91FC91081770F5802F8B
:1029A00090E0AB81BC816D917C912C01DB01A40D89
:1029B000B51D0480F581E02D6C9189859A852F8362
:1029C00038874D835E831995440C551C2F813885BB
:1029D0004D815E81E985FA85E40DF51D892B29F489
:1029E00080859185842B952B04C0808591858223D9
:1029F0009323918780870F5FCACFD7018D919C91D8
:102A0000DC01AC0DBD1D0280F381E02D41E06C9135
:102A100089859A851995A985BA85ED91FC91D7018B
:102A20008D919C91DC01AC0DBD1D0190F081E02DDC
:102A300040E06C9189859A8519951F5F6ECFE98476
:102A4000FA84FCE1EF0EF11C89859A85885A9F4F24
:102A5000F7012FEF3FEF43815481452B21F4108282
:102A60003283218315823696E817F907A1F7B12C36
:102A7000C984DA8420E6C20ED11C86E0A82EF301B8
:102A80008081B81608F058C0912C09851A850B0D65
:102A9000111D0B0D111D085F1F4FD1018C91981650
:102AA00008F048C0D8014D915C91092C02C05695A0
:102AB00047950A94E2F741705527B89EC00111244A
:102AC000890D911DD601ED91FC91E80FF91FA081B0
:102AD000E985FA8560E0258D368D2817390721F4C0
:102AE000417089859A851CC06F5F36966A3099F768
:102AF000452BF1F0F70160E070E02081211112C058
:102B0000A69EF001A79EF00D112429853A85E20FBB
:102B1000F31FA48F968F858F10A2178E41E0C901F5
:102B200069DA06C06F5F7F4F36966A30710529F704
:102B30009394B3CFB394A3CFE985FA85B1968985F1
:102B40009A85835A9F4F10E02081211111E036961B
:102B5000E817F907C9F70E948C24A981BA816D93FF
:102B60007D938D939C931397812F2A960FB6F8949B
:102B7000DEBF0FBECDBFDF91CF911F910F91FF90B0
:102B8000EF90DF90CF90BF90AF909F908F907F900D
:102B90006F905F904F903F902F900895DC01ED91E2
:102BA000FC910284F385E02D40E01994DC01ED9165
:102BB000FC910084F185E02D6FEF199461E0EEDF68
:102BC0008BE39FE10197F1F708958F929F92AF9267
:102BD000BF92CF92DF92EF92FF92CF93DF93A091BB
:102BE000AE0A882311F03A2F01C030E08091AF0A7D
:102BF00090E0880F991F8A5E964FC090B40AD090DB
:102C0000B50AE090B60AF090B70A40E050E0BA0189
:102C1000FC01C591D49128812A2323130FC04A01B6
:102C20005B012FEF821A920AA20AB20A4C155D05C7
:102C30006E057F0538F4B501A401EACF342F252FA6
:102C4000CB0104C030E020E080E090E0632F722FE1
:102C5000DF91CF91FF90EF90DF90CF90BF90AF903A
:102C60009F908F900895909113099111FCCF91E05E
:102C700090931309909312092FEF2093110910924A
:102C80001009260F20930F0990930E0990910E09B9
:102C9000880F892B80930E0980910D09813061F492
:102CA00010920D0980910E098093BB008091BC00A9
:102CB00083FDF8CF85EC01C085EE8093BC00809148
:102CC00013098130E1F380911009861710F46091A7
:102CD0001009ADEEB8E02DEC38E0F9018E2F821B23
:102CE000861718F48D918193F9CF862F0895CF928E
:102CF000DF92EF92FF920F931F93CF93DF9377FFB3
:102D00001BC06A017B01EC016DE2AADC8C01442747
:102D10005527BA014C195D096E097F092AE0CE01D9
:102D2000DFDC800F911FDF91CF911F910F91FF90FA
:102D3000EF90DF90CF9008952AE0DF91CF911F911F
:102D40000F91FF90EF90DF90CF90CACCFF920F933E
:102D50001F93CF93DF93F82E0AE010E0C0E0D0E09D
:102D60008F2D0E943524C80FD91F01501109C1F7BA
:102D7000CE016AE070E00E94EF3B072E000C880B4A
:102D8000990B0E94A142DF91CF911F910F91FF906B
:102D90000895CF93DF93CDB7DEB728970FB6F89499
:102DA000DEBF0FBECDBF1D8290E49E8324E12F8342
:102DB00024E5288719829A8390E19B8390E59C8380
:102DC0009091120A691710F06FEF690F4091130A82
:102DD000262F30E0FE01E20FF31F403121F4943042
:102DE00011F4918101C09581682F690F60688BE0B3
:102DF0009AE028960FB6F894DEBF0FBECDBFDF91E4
:102E0000CF91CCCE8F929F92AF92BF92CF92DF9212
:102E1000EF92FF920F931F93CF93DF93EC016A0120
:102E20007B019A01AB01C701B6010E944A3D88238C
:102E300019F06CE977E027C046015701E894B7F82C
:102E40002FEF3FEF4FE75FE7C501B4010E944A3D16
:102E500081110DC02FEF3FEF4FE75FE7C501B401D0
:102E60000E949B4218161CF460EA77E00CC02FEF1A
:102E70003FEF4FE75FE4C701B6010E94463D1816D9
:102E800084F464EA77E0CE01DF91CF911F910F9136
:102E9000FF90EF90DF90CF90BF90AF909F908F907A
:102EA0000ACC2FEF3FEF4FE75FECC701B6010E945E
:102EB0009B4287FDE6CF20E030E0A901C701B601C3
:102EC0000E949B4287FF09C06DE2CE01C9DB8C01E5
:102ED000F7FAF094F7F8F09402C000E010E02AE06E
:102EE00037ED43EA5BE3C701B6010E94493C6B0141
:102EF0007C010E941A3D4B015C010E949F429B0194
:102F0000AC01C701B6010E94483C6B017C012AE07C
:102F1000B501A401CE01E4DB080F191F68EA77E0D0
:102F2000CE01C9DB080F191F20E030E040E251E478
:102F3000C701B6010E9400434B015C010E941A3D8B
:102F40006B01E12CF12C2AE0B701A601CE01C8DB10
:102F5000080F191FC701B6010E949F429B01AC01D7
:102F6000C501B4010E94483C20E030E040E251E459
:102F70000E9400430E941A3DAB0160E070E02AE02D
:102F8000CE01AEDB800F911FDF91CF911F910F918A
:102F9000FF90EF90DF90CF90BF90AF909F908F9079
:102FA0000895CF93DF93BC0184E199E060DBEC01ED
:102FB0006FE876E084E199E07EDB8C0F9D1FDF9166
:102FC000CF91089581E08093CC0888E68093CB0868
:102FD0001092CA081092C9086FE081EB99E0CBD338
:102FE00081EB99E099D561E088E63DDE1092C80852
:102FF0008093C70881EB99E0CCC20F931F93E8E759
:10300000F9E06491E2E3F9E0E491882311F0462FBE
:1030100001C040E0F0E0EE0FFF1FEA5EF64F859141
:10302000949100E412E42FE030E00E94E224611564
:1030300071058105910549F0DC01CB010196A11DC7
:10304000B11DBC01CD019F7003C060E070E0CB01F9
:103050001F910F910895CF92DF92EF92FF920F93FD
:103060001F93CF93DF93CDB7DEB7C054D1400FB6D7
:10307000F894DEBF0FBECDBF0E948C240091B00A31
:103080001091B10A2091B20A3091B30A6B017C0110
:10309000C01AD10AE20AF30A40EDC41647E0D4068A
:1030A000E104F10418F48091B80AB8C06093B00A42
:1030B0007093B10A8093B20A9093B30A1092AB0A4C
:1030C0001092AA0A1092A90A1092A80A1092A70AAE
:1030D00061E08091AC0A0E9488236AEF70E080E092
:1030E00090E00E94542461E08091AC0A0E94B723D2
:1030F00060E08091AC0A0E94882364E170E080E087
:1031000090E00E945424F89461E08091AC0A0E94FF
:1031100088238BE990E00197F1F762E08091AC0A97
:103120000E94B72383E290E00197F1F780E04DDD44
:10313000672B682B692B21F41092B80A78943BC056
:1031400081E043DD672B682B692BB1F38E010F5FA4
:103150001F4F6E018FEBC81A8EEFD80A780180E0FE
:1031600034DDF701608371838283938381E02DDDF9
:10317000F7016483758386839783F8E0EF0EF11C73
:10318000EC14FD0461F7789420E030E0F801408110
:10319000518162817381C480D580E680F7804115BA
:1031A00051056105710529F0C114D104E104F10450
:1031B00021F41092B80A80E031C0F90183E0F5955E
:1031C000E7958A95E1F7E955F54F8081880F4C1511
:1031D0005D056E057F0508F4816080832F5F3F4F9A
:1031E000085F1F4F2832310589F62091AB0A30E085
:1031F0004091A70A8091A80A90E0840F911D409108
:10320000A90A840F911D4091AA0A840F911D992744
:103210002817390771F681E08093B80AC05CDE4F49
:103220000FB6F894DEBF0FBECDBFDF91CF911F91D7
:103230000F91FF90EF90DF90CF900895E091E80913
:10324000F091E909309709F019940895CF92DF922F
:10325000EF92FF920F931F93CF93DF93FC01719630
:10326000C491C1503196C590D490E62EF12CF7014F
:10327000EE0FFF1FEC0DFD1D859194919093C809F1
:103280008093C70900E010E0D0E040E150E060E248
:1032900070E08CEE99E00E946C3F21E030E040E06D
:1032A00050E00115110529F460E070E08AEA97E02A
:1032B00004C061E070E08CEA97E0C0DFF801EE0D39
:1032C000FF1DCE17DF0764F0EE0FFF1FEC0DFD1D95
:1032D0006591749140E150E08CEE99E00E94CB3F03
:1032E00020E130E041E050E0B8018CEE99E0A6DF4B
:1032F0000130110519F001E010E0C7CFDF91CF9147
:103300001F910F91FF90EF90DF90CF9008950F9352
:103310001F93CF938C01C62F40E150E060E270E034
:103320008CEE99E00E946C3FC730D9F1C830D9F1DA
:10333000C11107C0F80180814AE06CEE79E090E0AD
:1033400013C0C13049F44AE06CEE79E0F8018081A5
:1033500091810E94D43F35C0C23049F44AE06CEEFE
:1033600079E0F801808191810E940D402AC0C3302C
:1033700059F4F80160817181828193812AE04CEED9
:1033800059E00E94DE3F1DC0C43079F4F80160812D
:103390007181828193812AE04CEE59E00E94EC3FDA
:1033A00010C022E003C023E001C021E042E0420F50
:1033B000F80160817181828193810CEE19E00E9495
:1033C000AC3F20E130E040E050E061E070E08CEEA6
:1033D00099E0CF911F910F9131CF40E150E060E231
:1033E00070E08CEE99E00E946C3F8091FE09813084
:1033F00039F48FE49EE69093ED098093EC0909C0BF
:103400008FE496E6A6E68093EC099093ED09A093ED
:10341000EE0920E130E040E050E061E070E08CEE49
:1034200099E00CCF089508952091B0073091B1072D
:103430002817390771F49091AE078091AF0798175C
:1034400041F0E091AE07F0E0EB55F44F808190E061
:1034500008958FEF9FEF089508951F93CF93DF9303
:10346000DC015C962D913C915D972115310539F475
:1034700081E090E013969C938E9312973DC05196F5
:10348000ED91FC91529750969C915097892F809581
:103490001FB75E964C915E9741FB772770F941FD0F
:1034A0006095F8944081772311F0492B01C048239F
:1034B0004083E9012197F1F748E0508160FF02C0A5
:1034C000592B01C058235083E9012197F1F76695E4
:1034D000415099F7772321F090818923808303C09D
:1034E0008081982B90831FBF5C968D919C915D97F6
:1034F0000197F1F721E030E0C901DF91CF911F91F1
:1035000008952091B0073091B1072817390769F461
:103510008091AF072091AE0790E0805C9F4F821BA7
:10352000910960E470E00C94EF3B80E090E0089536
:103530002091B0073091B10728173907B9F490915D
:10354000AE078091AF07981789F0E091AE07F0E0E1
:10355000EB55F44F80812091AE0730E02F5F3F4F55
:103560002F7333272093AE0790E008958FEF9FEFDE
:1035700008950895E091C8088091C708E81730F4CD
:10358000F0E0E353F74F808190E008958FEF9FEFD5
:1035900008959091C8088091C708981750F4E92FB2
:1035A000F0E0E353F74F208130E09F5F9093C8082D
:1035B00002C02FEF3FEFC90108958091C70890E046
:1035C0002091C808821B910908950F931F93CF93F0
:1035D000DF93EC01423018F08C8188608C834F833C
:1035E0006887222329F0413019F48C8184608C8310
:1035F00064E670E080E090E00E9454246C8164FDF9
:1036000031C0E881F9810284F385E02D42E063E076
:10361000CE0119958BE496E40197F1F7E881F981E1
:103620000284F385E02D42E063E0CE01199503E5C5
:1036300012E0C8010197F1F7E881F9810284F3856E
:10364000E02D42E063E0CE011995C8010197F1F742
:10365000E881F9810284F385E02D42E062E0CE0149
:10366000199514C06062CE0199DA8BE496E4019753
:10367000F1F76C816062CE0191DA03E512E0C801D6
:103680000197F1F76C816062CE0188DAC801019779
:10369000F1F76C816062CE0181DA8BEE90E00197E8
:1036A000F1F784E08D836CE0CE0178DACE0186DA22
:1036B00082E08E8366E0CE0171DACE01DF91CF9198
:1036C0001F910F9173CAEF92FF920F931F93CF93A5
:1036D000DF937C018C01C0E0D0E0F8018689F0D74F
:1036E000892B51F42696CC0FDD1FCC0FDD1FCE0D9C
:1036F000DF1D8881998108C021960C5F1F4FC5305E
:10370000D10559F780E090E0DF91CF911F910F91A3
:10371000FF90EF900895CF92DF92EF92FF920F9378
:103720001F93CF93DF937C01262F972F8A018091DF
:10373000CC08882391F0C62FD72F6E01C40ED51E5A
:10374000CC15DD0571F06991D701ED91FC910190E7
:10375000F081E02DC7011995F3CF642F822F0E94CD
:10376000D408C801DF91CF911F910F91FF90EF9086
:10377000DF90CF900895CF93DF931F92CDB7DEB740
:1037800069832091CC082223D1F02091C9082032EE
:1037900040F021E030E0FC013383228380E090E0C0
:1037A00015C08091CA08E82FF0E0EB57F44F9981DB
:1037B00090838F5F8093CA088093C90805C061E039
:1037C000CE0101960E94D40881E090E00F90DF9135
:1037D000CF910895CF92DF92FF920F931F93CF93D3
:1037E000DF931F92CDB7DEB78C010D5F1F4FF62E12
:1037F0006B018C2D8F19841758F4C80149830E94DE
:10380000B443F60181936F010F5F1F4F4981F1CFE0
:103810000F90DF91CF911F910F91FF90DF90CF908C
:103820000895CF92DF92FF920F931F93CF93DF9370
:103830001F92CDB7DEB78C010D5F1F4FF62E6B01C7
:103840008C2D8F19841758F4F60161916F01C8010E
:1038500049830E94BC430F5F1F4F4981F1CF60E055
:1038600080E090E00F90DF91CF911F910F91FF903A
:10387000DF90CF900C94BC43CF93DF931F92CDB7D2
:10388000DEB769830B96FC0185919491009729F02E
:1038900041E0BE016F5F7F4FC4DF0F90DF91CF919A
:1038A0000895FC01908190539A3008F090E0818156
:1038B00080532AE0929F800D11240895CF92DF92C9
:1038C000EF92FF92CF93DF93EC01CB01BA016058E6
:1038D00073448D4698432CE3C22ED12CE12CF12C5D
:1038E000A70196010E94023C6D83CA01B901A7019C
:1038F00096010E94023C6C83CA01B90128E130E0C4
:1039000040E050E00E94023C6B83188263E97EEF46
:103910008881482F437091E009F090E0492F50E0F2
:10392000FA01E359FE4F2E173F0740F0FB01E41B5D
:10393000F50B2E0F3F1F8F5F8883EACF81E08983CD
:103940008981E82FF0E0E153F64FE491992319F0D3
:10395000823009F4EF5FF0E02E173F0720F02E1BB6
:103960003F0B8F5FECCF2F5F2A83DF91CF91FF90CA
:10397000EF90DF90CF9008950F931F93CF93DF9335
:103980008C01EB018885882331F061E976E0C8017C
:103990000E948C1227C01982188286E69BE0B1DD56
:1039A00028813981892B79F4203E8EE238075CF436
:1039B0006DE070E080E090E077D788819981019692
:1039C00099838883EACF2131374214F081E08887D8
:1039D00086E69BE096DD892B29F066E67BE0C80150
:1039E0000E94F212C801DF91CF911F910F910895AB
:1039F0001F920F920FB60F9211240BB60F922F93B6
:103A00003F934F935F936F937F938F939F93AF9366
:103A1000BF93EF93FF93E091B007F091B107309718
:103A200009F451C0968DA685B785858591FF04C0A0
:103A30009C91892329F447C09C91892309F043C0B4
:103A4000A389B4899C918589809589238C938689E3
:103A500097890197F1F7608D718DA685B78555859A
:103A600038E020E0CB010197F1F7822F90E09595A7
:103A70008795282F4C91452309F02068315091F704
:103A8000868D81FD20958091AF0790E001968F7320
:103A900099273091AE07381749F0A091AF07B0E0F1
:103AA000AB55B44F2C938093AF0703C0868D8160D4
:103AB000868F828D938D0197F1F7A389B4899C91AC
:103AC0008589892B8C93FF91EF91BF91AF919F9145
:103AD0008F917F916F915F914F913F912F910F90B7
:103AE0000BBE0F900FBE0F901F901895E091B0077E
:103AF000F091B107E817F90769F4A389B4899C919B
:103B00008589809589238C931092B1071092B00714
:103B100081E0089580E008952091C9089091CB0834
:103B2000213208F04AC0809113098111FCCF32E0A4
:103B30003093130931E0309312093FEF30931109AC
:103B40001092100920930F09A5E8BBE04DEE58E054
:103B5000FA013E2F341B321718F43D913193F9CFFF
:103B600010920E0920910E09990F922B90930E0935
:103B700090910D09913061F410920D0990910E0908
:103B80009093BB009091BC0093FDF8CF95EC01C0E1
:103B900095EE9093BC00909113099230E1F39091CF
:103BA00011099F3F79F080911109803241F0809195
:103BB0001109803331F084E005C081E003C082E068
:103BC00001C083E01092CA081092C9081092CC0874
:103BD0000895FC0123812223B9F0918190956923F6
:103BE0006083828191E09093CC088093CB081092FF
:103BF000CA081092C90881EB99E0BDDD81EB99E01C
:103C00008BDF282F30E002C020E030E081E090E040
:103C1000232B11F080E090E00895FF920F931F9303
:103C2000CF93DF938C01FF24F394F092CC08D8E675
:103C3000D093CB081092CA081092C90860E081EBBB
:103C400099E099DDF8012581CAE0822F6C2F0E944E
:103C5000CF3B682F660F860F682F660F620F81EBD0
:103C600099E089DDF8012481822F6C2F0E94CF3BDF
:103C7000682F660F860F682F660F620F81EB99E041
:103C80007ADDF8012381822F6C2F0E94CF3B682FB1
:103C9000660F860F682F660F620F81EB99E06BDD70
:103CA00060E081EB99E067DDF8012281822F6C2FC3
:103CB0000E94CF3B682F660F860F682F660F620F3A
:103CC00081EB99E058DDF8012181822F6C2F0E9451
:103CD000CF3B682F660F860F682F660F620F81EB50
:103CE00099E049DDF8012081822F6C2F0E94CF3BA3
:103CF000682F660F860F682F660F620F81EB99E0C1
:103D00003ADD81EB99E008DF5DD9C82FF092CC084D
:103D1000D093CB081092CA081092C9086FE081EBCB
:103D200099E029DD6C2F6F7781EB99E024DD81EB41
:103D300099E0DF91CF911F910F91FF90EDCE862FEB
:103D4000413208F040E2642F0E9433161092C808F6
:103D50008093C7080895CF92DF92EF92FF920F935E
:103D60001F93CF93DF93EC0181E08093CC0888E62A
:103D70008093CB081092CA081092C90860E081EBCA
:103D800099E0F9DC81EB99E0C7DE47E050E068E6B6
:103D900070E081EB99E0D3DF81EB99E0FADB8F777C
:103DA000982F92959F701AEF082F919F000D112464
:103DB00081EB99E0EEDB9C01332794E03595279564
:103DC0009A95E1F7F82E129FF00C112481EB99E0FF
:103DD000E0DB9C01332744E0359527954A95E1F7D0
:103DE000E82E129FE00C112481EB99E0D2DB81EBED
:103DF00099E0CFDB9C01332754E0359527955A9500
:103E0000E1F7D82E129FD00C112481EB99E0C1DB91
:103E10009C01332764E0359527956A95E1F7C82E14
:103E2000129FC00C112481EB99E0B3DB9C01332776
:103E300074E0359527957A95E1F7129F800D11244E
:103E40008883C982DA82EB82FC820D83CE01DF9106
:103E5000CF911F910F91FF90EF90DF90CF90089539
:103E60001092C8081092C7081092CA081092C90888
:103E70001092130981E08093120910920D0961E0FC
:103E800084E146D461E085E143D4E9EBF0E0808150
:103E90008E7F808380818D7F808388E48093B800CB
:103EA00085E48093BC00089590E0FC013197E231F5
:103EB000F10508F04EC08827EB57FF4F8F4F0C9449
:103EC000403C809180008F7703C0809180008F7D7F
:103ED00080938000089580918000877FF9CF84B51A
:103EE0008F7702C084B58F7D84BD08958091B00026
:103EF0008F7703C08091B0008F7D8093B0000895CC
:103F0000809190008F7707C0809190008F7D03C0D3
:103F100080919000877F8093900008958091A00009
:103F20008F7707C08091A0008F7D03C08091A00093
:103F3000877F8093A0000895809120018F7707C02C
:103F4000809120018F7D03C080912001877F809325
:103F5000200108953FB7F8948091E90B9091EA0B06
:103F6000A091EB0BB091EC0B26B5A89B05C02F3FA1
:103F700019F00196A11DB11D3FBFBA2FA92F982F8F
:103F80008827820F911DA11DB11DBC01CD0142E00A
:103F9000660F771F881F991F4A95D1F708951F93C1
:103FA000CF93DF93182FD92FC62F40E150E060E266
:103FB00070E08CEE99E00E946C3FE12FFD2FEC0F3A
:103FC000F11DEC0FF11D659174916F5F7F4F4FE014
:103FD00050E08CEE99E00E94CB3F20E130E040E0E1
:103FE00050E061E070E08CEE99E0DF91CF911F919D
:103FF00025C90F931F93CF93DF93EC01FC017096BB
:104000001491113009F094C01093C40940E150E0BC
:10401000BC018CEE99E00E94CB3F20E130E040E013
:1040200050E060E070E08CEE99E008D9FE017296F5
:1040300085919491FC0164913996A591B491611197
:1040400004C08C918093FE096DC08FEF860F823083
:1040500040F48D919C9111979093040A8093030AE8
:1040600061C08DEF860F823070F40D911D912D91FE
:104070003C9113970093FF091093000A2093010AC3
:104080003093020A4FC0693029F5FD013396C5917E
:10409000D491FD0185919491FC018081FD013296BE
:1040A000A4919E0160E090E09A1761F0F9014591BA
:1040B0005491FA014491481301C0692F9F5F2E5F0C
:1040C0003F4FF2CF6093FE09CE01DF91CF911F9158
:1040D0000F9165CF6A30C9F4FD013196C591D49135
:1040E000FD01A491888190E002C095958795AA95DD
:1040F000E2F780FF03C01093FE0902C01092FE0990
:10410000DF91CF911F910F9168C90D911D912D9154
:104110003C9113970093050A1093060A2093070A0F
:104120003093080ACD01DF91CF911F910F91EFC815
:10413000111134C061112EC02091C9093091CA09F2
:104140008217930739F18091CD099091CE09892B7F
:1041500079F08091CF099091D009892B61F08091FD
:10416000D1099091D209892B79F482E090E005C0C1
:1041700080E090E002C081E090E0880F991FFC0190
:10418000E353F64F31832083D093CA09C093C90902
:104190001092E7096091E709CE0114C01230D1F402
:1041A0006296FE0185919491009711F0FC0119959A
:1041B0008091C309882359F06091E7098091C9096A
:1041C0009091CA09DF91CF911F910F913FC881E073
:1041D0008093C609DF91CF911F910F9108952F927F
:1041E0003F924F925F926F927F928F929F92AF9287
:1041F000BF92CF92DF92EF92FF921F93CF93DF9304
:10420000CDB7DEB764970FB6F894DEBF0FBECDBF53
:104210004296FC0185919491FC011491359685900C
:104220009590A590B490FC0131964590559065907D
:104230007490643009F424C22FEF260F223008F066
:104240004FC141E0613009F440E0193021F5FC0133
:10425000399625913491F9013296949131962591B0
:104260003491EFEFE90F9091FE09442339F0911159
:1042700003C0E093FE090AC0915006C09E1303C01C
:104280001092FE0903C09F5F9093FE096091FE09A2
:10429000C90185DEFDC11A3051F481E09091FE091B
:1042A000913009F480E08093FE0997D8F1C144234E
:1042B00019F02FEF3FEF02C021E030E062017301FF
:1042C0008091FC099091FD09289F1001299F300CD5
:1042D000389F300C11249101032C000C440B550B1A
:1042E000CA01B901298B3A8B4B8B5C8B0E94A1428E
:1042F00029893A894B895C89163029F420E030E01D
:1043000040E251E406C0173039F420E030E048ECD8
:1043100052E40E94AD3C9DC0183029F420E030E00A
:104320004AE754E4F6CF111126C08091FE09820DB0
:1043300081149104A104B10441F4C114D104E10435
:10434000F10419F48093FE0913C090E0A0E0B0E0FE
:10435000C816D906EA06FB064CF02C013D0188156B
:104360009905AA05BB0514F4240135014092FE0904
:104370008EEF99E0B1C0113011F0123071F58091DB
:10438000030A9091040A820D931D81149104A104E3
:10439000B10451F4C114D104E104F10429F490935F
:1043A000040A8093030A16C0092E000CAA0BBB0B4B
:1043B000C816D906EA06FB064CF02C013D0188150B
:1043C0009905AA05BB0514F4240135014092030A9E
:1043D0005092040A83E09AE07FC0133011F0143049
:1043E000C1F58091FF099091000AA091010AB09156
:1043F000020A820F931FA41FB51F81149104A10408
:10440000B10471F4C114D104E104F10449F48093BE
:10441000FF099093000AA093010AB093020A16C004
:10442000C816D906EA06FB064CF06C017D0188151A
:104430009905AA05BB0514F475016401C092FF0932
:10444000D092000AE092010AF092020A8FEF99E0FE
:1044500043C02091050A3091060A4091070A509105
:10446000080A0E94493C2B013C0181149104A104DB
:10447000B10441F4C114D104E104F10419F4CB01F5
:10448000D30120C0C701B6010E94A1426B017C018B
:104490009B01AC01B201C3010E94463D181684F095
:1044A000C501B4010E94A1426B017C019B01AC01DA
:1044B000B201C3010E949B4287FD02C062017301E9
:1044C000C601D7018093050A9093060AA093070AB4
:1044D000B093080A85E09AE0612F0E948719D8C03E
:1044E000633009F0D5C0FC013996A591B49119301B
:1044F00099F4FD013396259134914091FE09F9011B
:10450000E40FF11DE40FF11D65917491FB016491BD
:10451000FD01A591B49129C01A3019F5FD0131961C
:1045200065917491FD01A4912091FE09FB01B08178
:10453000222349F041E050E001C0440FAA95EAF778
:104540004B2B40830AC021E030E001C0220FAA9526
:10455000EAF720952B23FB012083FB0160818CD996
:104560008FC0111104C06091FE096C93F8CF123016
:10457000A9F42091030A3091040A2D933C93388BBF
:104580002F87FC013B9685919491009709F478C0A0
:10459000BE01615F7F4F0E94FF0872C01130A1F41D
:1045A0002091030A3091040A2D933C933E872D8776
:1045B000FC013B9685919491009709F461C042E01B
:1045C000BE01635F7F4F3CC01430E9F44091FF09A6
:1045D0005091000A6091010A7091020A4D935D9317
:1045E0006D937C93139749875A876B877C87FC016F
:1045F0003B9685919491009709F442C044E0BE0136
:10460000675F7F4F1DC01330E9F44091FF0950915F
:10461000000A6091010A7091020A4D935D936D93B7
:104620007C9313974D835E836F837887FC013B9661
:1046300085919491009721F144E0BE016B5F7F4F1B
:10464000F0D81EC01530E0F04091050A5091060ADE
:104650006091070A7091080A4D935D936D937C9366
:10466000139749835A836B837C83FC013B96859126
:104670009491009729F0BE016F5F7F4F0E94FC0864
:104680001092C40961E08091C9099091CA09B1DC16
:1046900064960FB6F894DEBF0FBECDBFDF91CF9109
:1046A0001F91FF90EF90DF90CF90BF90AF909F90C1
:1046B0008F907F906F905F904F903F902F900895D4
:1046C000CF93DF93282F30E0F901EA50F64F849121
:1046D000F901EA58F64FD491F901E05DF64FC49123
:1046E000CC2389F08111E0DBEC2FF0E0EE0FFF1F0F
:1046F000EA5EF64FA591B491EC91ED2381E090E054
:1047000021F480E002C080E090E0DF91CF91089535
:104710001F93CF93DF93282F30E0F901EA50F64F33
:104720008491F901EA58F64FD491F901E05DF64F12
:10473000C491CC23C1F0162F8111B6DBEC2FF0E031
:10474000EE0FFF1FE450F74FA591B4918FB7F89487
:10475000111105C09C91ED2FE095E92302C0EC9169
:10476000ED2BEC938FBFDF91CF911F910895CF93E5
:10477000DF9390E0FC01EA58F64F2491FC01E05DE4
:10478000F64F8491882361F190E0880F991FFC0116
:10479000E452F64FC591D491FC01E450F74FA59136
:1047A000B491611109C09FB7F89488812095822344
:1047B0008883EC912E230BC0623061F49FB7F8948C
:1047C0003881822F809583238883EC912E2B2C9324
:1047D0009FBF06C08FB7F894E8812E2B28838FBF28
:1047E000DF91CF910895EF92FF920F931F93CF9394
:1047F000DF93EC0161E084E0BADF00E010E061E00B
:1048000084E086DF7E01E00EF11ED7018C91B9E6CF
:104810008B9FC0011124823091053CF0880F991FB5
:10482000880F991F05970197F1F760E084E070DF2A
:10483000D7011196EC91B9E6EB9FF0011124E2301B
:10484000F1053CF0EE0FFF1FEE0FFF1F359731977C
:10485000F1F70E5F1F4F0E37110589F6DF91CF91EB
:104860001F910F91FF90EF900895863308F08653C3
:1048700090917B00282F2870977F922B90937B003C
:104880008770806480937C0080917A00806480933C
:104890007A0080917A0086FDFCCF8091780020918B
:1048A000790090E0922B08958F929F92AF92BF92E1
:1048B000CF92DF92EF92FF926B017C014BDB4B01B9
:1048C0005C01C114D104E104F104E9F043DBDC0133
:1048D000CB0188199909AA09BB09883E9340A10513
:1048E000B10578F321E0C21AD108E108F10888EE99
:1048F000880E83E0981EA11CB11CC114D104E104F0
:10490000F10421F7DECFFF90EF90DF90CF90BF90C2
:10491000AF909F908F9008952FB7F8946091E50B1A
:104920007091E60B8091E70B9091E80B2FBF0895F3
:104930001F920F920FB60F9211242F933F938F93D4
:104940009F93AF93BF938091E50B9091E60BA0915D
:10495000E70BB091E80B3091ED0B23E0230F2D37DF
:1049600020F40196A11DB11D05C026E8230F029673
:10497000A11DB11D2093ED0B8093E50B9093E60BE9
:10498000A093E70BB093E80B8091E90B9091EA0BB1
:10499000A091EB0BB091EC0B0196A11DB11D809382
:1049A000E90B9093EA0BA093EB0BB093EC0BBF9148
:1049B000AF919F918F913F912F910F900FBE0F90CC
:1049C0001F901895CF92DF92EF92FF920F931F9353
:1049D000E82FF92F05C0015011092109310961F1B2
:1049E000908196239417B9F305C00150110921094C
:1049F000310911F1908196239413F7CFC12CD12C5A
:104A0000E12CF12C0AC08FEFC81AD80AE80AF80A7C
:104A10000C151D052E053F0579F08081862384172E
:104A200091F36C2D7D2D8E2D9F2D1F910F91FF9059
:104A3000EF90DF90CF90089560E070E080E090E02C
:104A40001F910F91FF90EF90DF90CF900895CF933B
:104A5000DF93CDB7DEB7AE970FB6F894DEBF0FBECB
:104A6000CDBF789484B5826084BD84B5816084BDF7
:104A700085B5826085BD85B5816085BD80916E00FC
:104A8000816080936E00109281008091810082602D
:104A9000809381008091810081608093810080916A
:104AA00080008160809380008091B1008460809359
:104AB000B1008091B00081608093B000809191003E
:104AC0008260809391008091910081608093910039
:104AD000809190008160809390008091A10082601D
:104AE0008093A1008091A10081608093A1008091BA
:104AF000A00081608093A00080912101826080935A
:104B00002101809121018160809321018091200108
:104B100081608093200180917A00846080937A0084
:104B200080917A00826080937A0080917A0081601F
:104B300080937A0080917A00806880937A00109246
:104B4000C10060E082E013DE61E083E010DE60E03F
:104B500088E00DDE61E088E0DBDD61E08DE007DE0E
:104B6000E0912409F091250982E08083E0912009F9
:104B7000F09121091082E0912209F09123098FEC34
:104B8000808310922C09E0912809F091290986E090
:104B90008083E0912609F0912709808180618083DC
:104BA000E0912609F0912709808188608083E09157
:104BB0002609F0912709808180688083E091260989
:104BC000F091270980818F7D808380E090E00E94B2
:104BD000B44381110FC141E064E578E084E090E0E6
:104BE0000E94EA1B65EC78E088E090E00E940509ED
:104BF00063EC78E08CE090E00E94050961EC78E0DD
:104C000080E190E00E9405096FEB78E084E190E09C
:104C10000E94050941E063E578E088E190E00E94A8
:104C2000EA1B6BEB78E08CE190E00E94020967EBF5
:104C300078E080E290E00E94020963EB78E084E88B
:104C400090E00E9402096FEA78E088E890E00E9414
:104C5000020941E062E578E084E290E00E94EA1B0C
:104C60006BEA78E088E290E00E94020967EA78E067
:104C70008CE290E00E94020963EA78E08CE890E020
:104C80000E9402096FE978E080E990E00E94020941
:104C900041E061E578E080E390E00E94EA1B6DE985
:104CA00078E084E390E00E9405096BE978E088E30E
:104CB00090E00E94050969E978E08CE390E00E94A9
:104CC000050967E978E080E490E00E9405096BE857
:104CD00078E084E490E00E94020967E878E088E4E4
:104CE00090E00E94020963E878E08CE490E00E9482
:104CF00002096FE778E080E590E00E94020963E92D
:104D000078E084E990E00E9402096FE878E088E9A1
:104D100090E00E9402096BE778E088E590E00E944D
:104D2000020967E778E084E590E00E94020942E02A
:104D30006BE678E08CE590E00E94EA1B42E065E6D5
:104D400078E080E690E00E94EA1B67E678E084E67F
:104D500090E00E94020961E678E088E690E00E9417
:104D6000020963E778E080E790E00E9402096FE6BD
:104D700078E08CE690E00E94020942E06FE578E07E
:104D800084E790E00E94EA1B42E069E578E088E76A
:104D900090E00E94EA1B6BE578E08CE790E00E94CF
:104DA000020965E578E080E890E00E94020941E0B0
:104DB0006DE678E08CED90E00E94EA1B60E076E022
:104DC00088ED90E00E94050941E06EE678E084EC11
:104DD00090E00E94EA1B08EC10E0B8016F50764F9B
:104DE00041E0C8010E94EA1B0F5F1F4F083D1105FB
:104DF000A1F702C00E94220981EB99E031D81092FC
:104E0000810B1092800B10927F0B10927E0B1092F0
:104E10007D0B10927C0B8DE991E09093830B809336
:104E2000820B8091720B96EF980F943048F02EEC25
:104E3000280F243028F022EC280F283008F070C00A
:104E40002DEB30E030937D0B20937C0B2BE931E090
:104E500030937F0B20937E0B2CE231E03093810B5B
:104E60002093800B943070F02EEC280F243050F0FB
:104E700022EC280F283010F40C949039A0E0B0E018
:104E80000C949239A8E6B0E0E8E6F0E02081943096
:104E900018F08E53883010F081E001C084E0822B3E
:104EA0008C938091720B96EF980F943058F02EEC03
:104EB000280F243038F022EC280F283030F020E082
:104EC00030E005C02BE630E002C02DE630E0309344
:104ED0007A0B2093790B943010F49AEF0BC0823345
:104EE00081F0833381F0843381F092EC980F983015
:104EF00070F492EC980F81E001C0880F9A95EAF760
:104F000007C088E005C084E003C082E001C081E002
:104F100080937B0B8091820B9091830B0197F1F72B
:104F20008091800B9091810B892B21F18091B007AA
:104F30009091B1072BE086369207E1F0009711F0CF
:104F40000E94761D8091840B8E7F8093840B10923B
:104F5000AF071092AE0786E69BE09093B10780936F
:104F6000B007E091790BF0917A0B908180917B0BE7
:104F7000892B80836DE081E0FADB6FEF70E085EDD7
:104F80009AE00E942F1280EF95E09093850A80931B
:104F9000840A83E99AE00E94301F4091A00A50E001
:104FA00060919F0A70E083E99AE00E949F1E83E966
:104FB0009AE00E94C91A9093A20A8093A10A809154
:104FC000A00A823088F083E99AE00E94C91A20E0A2
:104FD00030E0382F8091A10A9091A20A822B932B66
:104FE0009093A20A8093A10A20E042E060E18BE066
:104FF0009AE00E948A1162E08091AC0AB8DB80E3FB
:1050000098EFAFEFBFEF8093B00A9093B10AA093EF
:10501000B20AB093B30A81EB99E00E94301F0E945C
:10502000E21790E0880F892F881F990B892B09F4CC
:1050300067C083E491E00E94D1174BE050E067E342
:1050400071E0CE0101960E94CB3FCE010A960E94EC
:10505000511C8B8BE9818E2FEE0F990BAA0BBB0B8A
:10506000FC01E154F109E331F10550F58827EE58D0
:10507000FF4F8F4F0C94403C8A81813639F08B81F1
:105080008E3611F087E01BC086E019C081E017C0A2
:1050900082E015C08B81823711F088E010C084E077
:1050A0000EC08B81823711F085E009C083E007C014
:1050B00089E005C08AE003C08BE001C08CE08C8BE6
:1050C000CE0105960E94511C8D8B48E050E06EE2A7
:1050D00071E0CE0101960E94CB3FCE0101960E9465
:1050E000511C8E8BCE0104960E94511C8F8BCE01D9
:1050F00007960E94511C888FCE0143960E940D1E78
:10510000CE0101960E94AB1E86E0FE013196AAE513
:10511000BBE001900D928A95E1F7FEDB6093CC072E
:105120007093CD078093CE079093CF0761E382E71A
:1051300096E00E94B10B0E9428068BE697E09093C0
:10514000E9098093E80988E296E09093EB0980935F
:10515000EA0981E08093C3098E010F5F1F4FAE0102
:10516000475E5F4F1A01C8010E94AB1E86E0F8013E
:10517000AAE5BBE001900D928A95E1F7CDDB609343
:10518000CC077093CD078093CE079093CF07809084
:10519000060890900708A0900808B09009087501CB
:1051A000640158EEC50E53E0D51EE11CF11CC61675
:1051B000D706E806F90630F0681579058A059B05DB
:1051C00008F0F6C4209105082223E9F04091010877
:1051D0005091020860910308709104084F5F5F4F7F
:1051E0006F4F7F4F4093010850930208609303086C
:1051F000709304081092FD071092FE071092FF07AB
:10520000109200081CC04091FD075091FE0760916C
:10521000FF07709100084F5F5F4F6F4F7F4F4093C4
:10522000FD075093FE076093FF07709300081092EC
:105230000108109202081092030810920408C50198
:10524000B40125E030E040E050E00E94023CFF2441
:10525000F394672B682B692B09F0F12C809154088B
:105260008330B9F0E090CB07F11004C08091FC07C7
:105270008E1579F0EE2019F08BE695E002C08EEEE7
:1052800094E0B1DAE092FC0762E370E080E090E045
:105290000BDB809153088330B9F0E090CA07F1101E
:1052A00004C08091FB078E1579F0EE2019F081E79C
:1052B00094E002C084EF93E096DAE092FB0762E3A9
:1052C00070E080E090E0F0DA809152088330B9F02D
:1052D000E090C907F11004C08091FA078E1579F0AB
:1052E000EE2019F087E793E002C08AEF92E07BDAC4
:1052F000E092FA0762E370E080E090E0D5DA809116
:1053000051088330B9F0E090C807F11004C08091D3
:10531000F9078E1579F0EE2019F08DE792E002C0C2
:1053200080E092E060DAE092F90762E370E080E00A
:1053300090E0BADA8091F5079091F607A091F7070F
:10534000B091F8070196A11DB11D8093F5079093C8
:10535000F607A093F707B093F8078091C707882353
:1053600019F01092C70703C081E08093C707D4DA11
:1053700060930608709307088093080890930908C3
:105380006EE284E199E00E9430134091CC07509185
:10539000CD076091CE077091CF078091F107909172
:1053A000F207A091F307B091F407805A9541AF4FEF
:1053B000BF4F84179507A607B70708F0F9C3809178
:1053C0006D08882309F4F4C38091CF0A9091D00A24
:1053D000A091D10AB091D20A892B8A2B8B2B09F08C
:1053E000E7C34093F1075093F2076093F30770937C
:1053F000F407E090C90AF090CA0A61E771E086E616
:105400009BE00E94371363E876E0CE0143960E944A
:105410008C12B701C8010E94BC1CBE016D5E7F4F9B
:10542000C8010E94C7116C01C8010E948712CE01F9
:1054300043960E948712CD20C09409F049C068E6C7
:1054400071E086E69BE00E9437132AE045E150E0D8
:1054500060E070E086E69BE00E94701361EC76E00D
:1054600086E69BE00E94B813B701C8010E94BC1CED
:10547000670192E0C90ED11CB801C6010E94F21169
:10548000C8010E94871266E876E0C8010E948C126B
:10549000B801C6010E94C7115C01C8010E948712B1
:1054A000AB20A094A9F01A8E198E1C8E1B8E1E8E16
:1054B0001D8EC214D30489F0F701628173816115D6
:1054C000710559F046815781C1010E94681205C0DB
:1054D00061E976E0C1010E948C128D8D9E8D892B31
:1054E00009F463C3E98DFA8D8081882309F45DC3D3
:1054F000E090C90AF090CA0A63E571E086E69BE095
:105500000E943713B701C8010E94BC1CB801C70133
:1055100002960E94F211C8010E9487126CE876E0A0
:10552000C8010E948C12C8010E94871280916D08E8
:10553000882309F43AC34D8D5E8D698D7A8D84E19F
:1055400099E00E94630E6FE876E084E199E00E94A2
:105550005B1362E976E0C8010E948C12B801C101B8
:105560000E94C7117C01C8010E948712E091CD0AF8
:10557000F091CE0A808191811C8A1B8A1E8A1D8A25
:10558000188E1F8A4AE0B8010E94D43FF8010190AA
:105590000020E9F73197AF01401B510BB801CE0154
:1055A00043960E94681297012A5F3F4FA7014E5F02
:1055B0005F4FB101C8010E94A0122D813E818F89E9
:1055C000988D2817390719F589819A816B897C890B
:1055D000009719F061157105A9F46115710551F075
:1055E0002115310539F0DB018C9190E09195819581
:1055F00091090AC0009769F0232B59F0FC018081C2
:1056000090E002C00E94733F21E0892B19F020E056
:1056100001C021E0C8012EA70E948712CE01439647
:105620000E9487122EA5222309F4BFC265E976E005
:10563000C8010E948C12B801C1010E94C7116C01FF
:10564000C8010E948712D7FE20C069E976E0C80130
:105650000E948C12B801C1010E94C7117C01C801CF
:105660000E948712F7FC58C0B7016E5F7F4FC101DF
:105670000E94E111805380936D0841E06DE678E06F
:105680008CED90E00E94111C47C0E090CB0AF09096
:10569000CC0A2D8D3E8DA6014F5F5F4FB101C80131
:1056A0000E94A012E114F104C9F0CD80DE80C11483
:1056B000D10419F4D7011C9211C0BFE0CB16D1045C
:1056C00018F03FE0C32ED12C69817A81A601C70171
:1056D0000E94833FF701EC0DFD1D1082C8010E945E
:1056E0008712E091CB0AF091CC0A1686E12CF12CBE
:1056F0006091CB0A7091CC0A6E0D7F1D41E0C7010D
:1057000088539F4F0E94111CEFEFEE1AFE0AF0E142
:10571000EF16F10469F799CF6CE976E0C8010E94B1
:105720008C12B801C1010E94C7117C01C8010E94FE
:105730008712F7FC14C0B7016E5F7F4FC1010E9452
:10574000E111813419F41092540809C0803311F426
:1057500081E003C0813319F482E0809354086FE93B
:1057600076E0C8010E948C12B801C1010E94C711E5
:105770007C01C8010E948712F7FC14C0B7016E5F5C
:105780007F4FC1010E94E111813419F41092530836
:1057900009C0803311F481E003C0813319F482E041
:1057A0008093530862EA76E0C8010E948C12B80127
:1057B000C1010E94C7117C01C8010E948712F7FC39
:1057C00014C0B7016E5F7F4FC1010E94E1118134A7
:1057D00019F41092520809C0803311F481E003C01B
:1057E000813319F482E08093520865EA76E0C801BB
:1057F0000E948C12B801C1010E94C7117C01C8012E
:105800000E948712F7FC14C0B7016E5F7F4FC10181
:105810000E94E111813419F41092510809C08033BB
:1058200011F481E003C0813319F482E080935108C0
:1058300068EA76E0C8010E948C12B801C1010E949A
:10584000C7117C01C8010E948712F7FCAEC18CE72A
:1058500091E00E94D117A090CB0AB090CC0AE090C2
:10586000C90AF090CA0A6BEA76E086E69BE00E94DD
:10587000B813B701C8010E94BC1C670122E0C20E28
:10588000D11CB801C6010E94F211C8010E94871202
:1058900066EB76E086E69BE00E94B813B50186E6EB
:1058A0009BE00E94B81360EC76E086E69BE00E94E5
:1058B000B813B701C8010E94BC1CB801C6010E9400
:1058C000F211C8010E94871260E976E086E69BE04B
:1058D0000E94B8138091580B882331F063EC76E076
:1058E00086E69BE00E94B81380914A0B882331F032
:1058F00068EC76E086E69BE00E94B81380913C0B52
:10590000882331F06DEC76E086E69BE00E94B813C8
:1059100080912E0B882331F062ED76E086E69BE0E5
:105920000E94B8138091200B882331F067ED76E058
:1059300086E69BE00E94B8136091540880910508A8
:105940000E941B098093CB07609153088091E40764
:105950000E941B098093CA07609152088091E30757
:105960000E941B098093C907609151088091E2074A
:105970000E941B098093C8076DE976E086E69BE0EC
:105980000E94B8138091CB07882311F061E301C016
:1059900060E386E69BE00E943013809154088823E0
:1059A00011F06DE401C061E486E69BE00E943013D3
:1059B0006CED76E086E69BE00E94B8138091CA0702
:1059C000882311F061E301C060E386E69BE00E945A
:1059D000301380915308882311F06DE401C061E415
:1059E00086E69BE00E9430136FED76E086E69BE052
:1059F0000E94B8138091C907882311F061E301C0A8
:105A000060E386E69BE00E94301380915208882371
:105A100011F06DE401C061E486E69BE00E94301362
:105A200062EE76E086E69BE00E94B8138091C8079C
:105A3000882311F061E301C060E386E69BE00E94E9
:105A4000301380915108882311F06DE401C061E4A6
:105A500086E69BE00E94301360E976E086E69BE0F4
:105A60000E94B81365EE76E086E69BE00E94B813CC
:105A70004091BF075091C0076091C1077091C20764
:105A800086E69BE00E94021769EE76E086E69BE0E0
:105A90000E94B8134091BB075091BC076091BD07AD
:105AA0007091BE0786E69BE00E9402176DEE76E0DD
:105AB00086E69BE00E94B8134091B7075091B80763
:105AC0006091B9077091BA0786E69BE00E940217C1
:105AD00061EF76E086E69BE00E94B81388E00E94C2
