:10000000D0C60000FFC60000FDC60000FBC6000011
:10001000F9C60000F7C60000F5C60000F3C60000F0
:10002000F1C600000C94A3430C94A3430C94A34387
:10003000E9C60000E7C60000E5C60000E3C6000010
:10004000E1C60000DFC60000DDC60000DBC6000020
:10005000D9C60000D7C60000D5C600000C94D8242D
:10006000D1C600000C94FC390C94D339CBC60000E7
:10007000C9C60000C7C60000C5C60000C3C6000050
:10008000C1C60000BFC60000BDC60000BBC6000060
:10009000B9C60000B7C60000B5C600000C94C6443F
:1000A000B1C60000AFC60000ADC60000ABC6000080
:1000B000A9C60000A7C60000A5C60000A3C6000090
:1000C000A1C600009FC600009DC600000C94AA397E
:1000D0000C94813997C6000095C6000093C60000B5
:1000E00091C60000FE230124F023F423FA233824D0
:1000F000052409240F24132417241D242124252436
:1001000038242B242F24332469497F497F497D4992
:100110007F4967497F497F497F495B497F497F49DB
:1001200070497B4979497F497F497F4977496174A3
:100130002B636D6764613D2264656C20616C6C2289
:100140000A0D0041542B434D47523D0041542B436F
:100150004D47463D310D00534D53004154480D0A63
:1001600000574946495F4150493A00574946495F5F
:10017000504153533A00574946495F535349443A13
:10018000003B0D0A004154440030363A33313A32D4
:100190003100466562202038203230313700525419
:1001A00043204C4F535420504F57455221000000DC
:1001B0002100240027002A002D0030003300010117
:1001C0000000040107010A01535349443A0054480E
:1001D000494E47535045414B204B45593A004552F3
:1001E000524F5200434F4E4E454354454400434FF7
:1001F0004E4E454354494E472E2E2E0050415353E8
:10020000574F52443A002059454152004D4F4E54E9
:10021000480020204441590020204D494E002048EC
:100220004F55520053455420434C4F434B004C45CF
:1002300056454C5B2D5D3A00204E494748542020DE
:100240000020444159202A202000504F5745525B3E
:10025000255D3A0054454D50325B435D3A002045E0
:100260004320585B2D5D3A0020504820585B2D5D9F
:100270003A0045585420205B255D3A004C494748D8
:10028000545B2D5D3A0045435B532F4D5D3A005062
:1002900048205B50485D3A0048554D495B255D3A22
:1002A0000054454D505B435D3A0020202020202023
:1002B00020200000000A0B02090C0D0E08070304A1
:1002C000010000000000000000000000000000002D
:1002D000000000000000000000000000000000120C
:1002E00011100000000000000000000000000000ED
:1002F0000000000000000000000344495341424C4C
:100300004520524144494F0000024F4E2100000059
:10031000000000000000000000014F4646210000E0
:10032000000000000000000000004155544F210073
:10033000000000000000000000290319030903F970
:1003400002CE09043903CF09043903D00904390363
:10035000D109043903050000000000000000D209A3
:100360008000020000000000000000D609780005AF
:100370000000000000000000D8097C00020000001E
:100380000000000000DC097400050E000000000001
:100390000000DE09680002FF03000000000000E228
:1003A000096000050E00000000000000E409640080
:1003B00002FF03000000000000E8095C00020F27B4
:1003C0000000E80300000006D80000030000000061
:1003D000000000EA09DC000002000000000000004C
:1003E000EB09C400050000000000000000EC096CEF
:1003F00000050000000000000000F0097000050E7C
:1004000000000000000000F4095400050E00000088
:1004100000000000F8095800066600000000000017
:1004200000FC095000066600000000000000000A01
:100430004C0006630000009DFFFFFF040A980006C1
:10044000630000009DFFFFFF080A94000500000004
:1004500000000000000C0AA00005000000000000E1
:100460000000100A9C0006630000009DFFFFFF14BF
:100470000A480006630000009DFFFFFF180A4400C1
:100480000200000000000000001C0A400002000002
:100490000000000000001E0A3C00020000000000F6
:1004A000000000200A3800020000000000000000E8
:1004B000220A34000900000000000000004103008F
:1004C0000006630000009DFFFFFF240A9000066302
:1004D0000000009DFFFFFF280A8C0006630000005B
:1004E0009DFFFFFF2C0A2C0006630000009DFFFF0C
:1004F000FF300A2800090000000000000000460349
:100500000000066300000000000000340A880006B6
:100510006300000000000000380A84000663000049
:1005200000000000003C0A200006630000000000FC
:100530000000400A1C000900000000000000004B01
:10054000030000023B00000000000000440A140009
:10055000021700000000000000460A1000023B00E5
:10056000000000000000480A0C0002170000000014
:100570000000004A0A080009000000000000000016
:100580005003040053415645202620434F4E4E450C
:1005900043542100020092284B45592D3E00000093
:1005A00000000000000000000200382850415353B2
:1005B000574F52442D3E00000000000002000B285F
:1005C000535349442D3E000000000000000000008D
:1005D00002006528454320484947482059205B537D
:1005E0002F4D5D00010055034543204849474820F1
:1005F000582020205B2D5D00010062034543204C04
:100600004F57202059205B532F4D5D0001006F0391
:100610004543204C4F572020582020205B2D5D0063
:1006200001007C0350482048494748205920205B5E
:1006300050485D0001008903504820484947482040
:10064000582020205B2D5D00010096035048204C6F
:100650004F5720205920205B50485D000100A30324
:100660005048204C4F572020582020205B2D5D0003
:100670000100B00347534D20434F44452D3E000039
:10068000000000000100BD0347534D204D4F44457D
:100690002D3E0000000000000100CA0345585445EB
:1006A000524E414C00000000000000000100D70342
:1006B000454320484947482020205B532F4D5D008B
:1006C0000100E4034543204C4F57202020205B537A
:1006D0002F4D5D000100F103504820484947482054
:1006E0002020205B50485D000100FE035048204C54
:1006F0004F5720202020205B50485D0001000B0454
:100700004C494748204C4F570000000000000000B3
:10071000010018044C494748204849474800000058
:10072000000000000100250454454D50204C4F5757
:1007300020204E205B435D000100320454454D50A3
:100740002048494748204E205B435D0001003F049C
:1007500048554D49204C4F57202020205B255D00F7
:1007600001004C0448554D49204849474820202065
:100770005B255D000100590454454D50204C4F57F6
:10078000202020205B435D000100660454454D504D
:1007900020484947482020205B435D000100730446
:1007A0004359434C4552204F464620205B535D0041
:1007B000010080044359434C4552204F46462020B7
:1007C0005B4D5D0001008D044359434C4552204F61
:1007D0004E2020205B535D0001009A044359434C96
:1007E0004552204F4E2020205B4D5D000100A704A4
:1007F0004359434C455220434F4E54524F4C0000F6
:100800000100B40446414E204F4646204E20205B56
:10081000435D00000100C10446414E204F4E2020A0
:100820004E20205B435D00000100CE0446414E2077
:100830004F4646202020205B435D00000100DB0482
:1008400046414E204F4E20202020205B435D00007B
:100850000100E80446414E20434F4E54524F4C0095
:10086000000000000100F504484541544552204F66
:1008700046204E205B435D0001000205484541547F
:100880004552204F4E204E205B435D0001000F0576
:10089000484541544552204F464620205B435D0069
:1008A00001001C05484541544552204F4E20202050
:1008B0005B435D00010029054845415445522043F2
:1008C0004F4E54524F4C0000010036054C494748EA
:1008D00054204F46462020205B4D5D00010043051B
:1008E0004C49474854204F46462020205B485D0035
:1008F000010050054C49474854204F4E20202020ED
:100900005B4D5D0001005D054C49474854204F4E4A
:10091000202020205B485D0001006A054C494748C3
:100920005420434F4E54524F4C00000001007705B5
:10093000C005AC05980584051006FC05E805D4053E
:1009400060064C0638062406880674068C0778076D
:10095000640750073C07280714070007EC06D80671
:10096000C406B0069C06F007DC07C807B407A0075A
:10097000540840082C0818080408B808A40890086F
:100980007C0868081C090809F408E008CC085749E5
:1009900046492D3E00000000000000000000000459
:1009A000300952455345542100000000000000006A
:1009B000000002006A4645432D3E00000000000092
:1009C0000000000000000004380950482D3E0000DF
:1009D0000000000000000000000000044009475330
:1009E0004D2D3E000000000000000000000000024D
:1009F000480953455420434C4F434B2D3E000000C3
:100A000000000200FD45414C41524D205345542DFC
:100A10003E0000000000000D4C094359434C455274
:100A20002D3E000000000000000000056609464160
:100A30004E2D3E00000000000000000000000005F8
:100A400070094845415445522D3E00000000000009
:100A5000000000057A094C494748542D3E0000002B
:100A600000000000000000058409560A420A2E0A10
:100A70001A0A060AF209DE09CA09B609A2098E098C
:100A800000002200250028002B002E003100340039
:100A900002010000050108010B01000020002300F5
:100AA000260029002C002F00320000010000030165
:100AB00006010901050505050705080808080202E1
:100AC00002020A0A080804040404010101010101E8
:100AD00001010303030303030303040707070C0CCB
:100AE0000C0C0C0C0C0C0202020206060606060692
:100AF00006060B0B0B0B0B0B0B0B01021020200837
:100B00000810204010204080020102010804020168
:100B100001020408102040808040201008040201D7
:100B20008004020180402010080402010804020130
:100B300001020408102040800102040810204080B7
:100B4000526F6F7400000000000000000000000001
:100B5000000B6A0A1F1C1F1E1F1E1F1F1E1F1E1FA9
:100B6000005EBCE2613FDD83C29C7E20A3FD1F418D
:100B70009DC3217FFCA2401E5F01E3BD3E6082DC7D
:100B8000237D9FC1421CFEA0E1BF5D0380DE3C626D
:100B9000BEE0025CDF81633D7C22C09E1D43A1FF5D
:100BA0004618FAA427799BC584DA3866E5BB59074D
:100BB000DB856739BAE406581947A5FB7826C49A3D
:100BC000653BD987045AB8E6A7F91B45C6987A242D
:100BD000F8A6441A99C7257B3A6486D85B05E7B91D
:100BE0008CD2306EEDB3510F4E10F2AC2F7193CD0D
:100BF000114FADF3702ECC92D38D6F31B2EC0E50FD
:100C0000AFF1134DCE90722C6D33D18F0C52B0EEEC
:100C1000326C8ED0530DEFB1F0AE4C1291CF2D73DC
:100C2000CA947628ABF517490856B4EA6937D58BCC
:100C30005709EBB536688AD495CB2977F4AA4816BC
:100C4000E9B7550B88D6346A2B7597C94A14F6A8AC
:100C5000742AC896154BA9F7B6E80A54D7896B359C
:100C60005245534554204F4B004E414E494E495436
:100C700059494E46CDCCCC3D0AD7233C17B7D13885
:100C800077CC2B329595E6241FB14F0A0000204106
:100C90000000C84200401C4620BCBE4CCA1B0E5A75
:100CA000AEC59D7400407A10F35A00A0724E180928
:100CB0000010A5D4E80000E87648170000E40B54C3
:100CC000020000CA9A3B000000E1F5050000809692
:100CD0009800000040420F000000A08601000000C4
:100CE000102700000000E80300000000640000007E
:100CF00000000A00000000000100000000002C7647
:100D0000D888DC674F0823DFC1DFAE59E1B1B79661
:100D1000E5E3E453C63AE651997696E8E6C28426BE
:100D2000EB898C9B62ED407C6FFCEFBC9C9F40F29A
:100D3000BAA56FA5F490055A2AF75C936B6CF96716
:100D40006DC11BFCE0E40D47FEF520E6B500D0EDDB
:100D5000902E0300943577050080841E0800002043
:100D60004E0A000000C80C333333330F986E1283E1
:100D70001141EF8D2114893BE65516CFFEE6DB18B5
:100D8000D1844B381BF77C1D901DA4BBE42420327A
:100D900084725E228100C9F124ECA1E53D27294A35
:100DA000184A11241FBECFEFD1E2DEBFCDBF00E055
:100DB0000CBF19E0A0E0B2E0ECEEFDEA00E00BBFF2
:100DC00002C007900D92A031B107D9F72EE0A0E143
:100DD000B9E001C01D92AB3BB207E1F716E0C0EDF0
:100DE000D6E000E006C021970109802FFE010E9495
:100DF000664DCF3CD10780E00807A9F70E94DD4689
:100E00000C94E456FDC84F925F926F927F928F923E
:100E10009F92AF92BF92CF92DF92EF92FF920F9389
:100E20001F93CF93DF93CDB7DEB7E0970FB6F8945B
:100E3000DEBF0FBECDBFA895CE0101960E948040B7
:100E400086E0FE013196A5EDBDE001900D928A95F8
:100E5000E1F70E94CC246093460970934709809380
:100E6000480990934909009136091091370920915A
:100E70003809309139094801590148EE840E43E0A0
:100E8000941EA11CB11C86169706A806B90638F058
:100E9000601771078207930710F00C942910809156
:100EA00035098F5F8093350968E70E94F54C9111F1
:100EB00002C00E94C11A809135096AE00E94F54C77
:100EC0009111D0C160E083E00E94E5328091030D72
:100ED0009091040D0E94BA3F40E06CEC8091030DAC
:100EE0009091040D0E940F3F4091FE0C64E48091AC
:100EF000030D9091040D0E940F3F8091000D8823F7
:100F0000E9F08091FF0C8A3049F08B3061F0893034
:100F100079F46EE570E080E090E00EC06CEB70E07C
:100F200080E090E009C067E771E080E090E004C0F5
:100F30006EEE72E080E090E00E949424E091030D58
:100F4000F091040D138615861486DF011B96CF01E0
:100F500003961E92A817B907E1F7BE016D5E7F4F99
:100F6000CF010E94F03F882329F067E0CE0143962D
:100F70000E94023FBE016F5F7F4FCE0143960E94E9
:100F8000312E68E0CE0101960E94023F99858913B7
:100F90008FC039812A81832F90E0922B2B892232B6
:100FA000F1F1A8F5203109F090C01885BC017595C4
:100FB0006795072E000C880B990B0E949F5520E027
:100FC00030E040E85EE30E946E4D6B017C01812FB2
:100FD00090E02F81821B9109BC01990F880B990B1E
:100FE0000E949F554B015C01612F70E080E090E012
:100FF0000E949D559B01AC01C501B4010E94DA4DD0
:101000009B01AC01C701B6010E946F4D3EC0283262
:1010100031F02B3309F059C030FD51C01CC02D8177
:101020002F33B1F1A0F42F3109F04FC0BC0183E0A0
:10103000759567958A95E1F7072E000C880B990B3B
:101040000E949F5520E030E040E05FE31CC02F3558
:1010500069F02F37D1F5BC01990F880B990B0E94CD
:101060009F5520E030E040E85DE30DC0BC01759580
:101070006795072E000C880B990B0E949F5520E066
:1010800030E040E05EE30E94FE556B017C011DC034
:10109000BC017595679575956795072E000C880BB3
:1010A000990B0E949F5520E030E040E85EE3EBCFD3
:1010B000C12CD12CBEEFEB2EB2ECFB2E06C0C12C06
:1010C000D12CA0ECEA2EAFE7FA2EC0929809D0926C
:1010D0009909E0929A09F0929B0980E00E948E3271
:1010E0006B017C0181E00E948E32DC01CB018C0D12
:1010F0009D1DAE1DBF1DB695A79597958795BC0103
:10110000CD016E5F7F4F8F4F9F4F0E949D55609323
:101110009C0970939D0980939E0990939F0981E09B
:101120000E948E326DA37EA38FA398A780E00E94B9
:101130008E3269A77AA78BA79CA78091D809909136
:10114000D909A091DA09B091DB0989A39AA3ABA3CD
:10115000BCA36091DC097091DD09072E000C880B9F
:10116000990B0E949F554B015C0129A13AA14BA10B
:101170005CA16091D2097091D3098091D4099091BA
:10118000D5090E946E4D6B017C016091D60970916A
:10119000D709072E000C880B990B0E949F559B01C5
:1011A000AC0160E070E080E89FE30E94DA4D2B0123
:1011B0003C01A501940160E070E080E89FE30E949B
:1011C000DA4D9B01AC01C301B2010E946E4D9B013F
:1011D000AC01C701B6010E94DA4D6B017C0169A523
:1011E0007AA58BA59CA52DA13EA14FA158A5620F64
:1011F000731F841F951F22E030E040E050E00E9402
:101200004A4DCA01B9016E5F7F4F8F4F9F4F0E94B9
:101210009F559B01AC01C701B6010E94DA4D2B011D
:101220003C01A5019401C701B6010E94DA4D9B0162
:10123000AC0169A17AA18BA19CA10E946E4D9B017A
:10124000AC01C301B2010E946F4D6093A409709379
:10125000A5098093A6099093A70961E083E00E9405
:10126000E53278C10E945833882309F441C0809147
:10127000CF0C8B3029F0E0F18551823058F038C026
:101280006091CB0C70E080E090E00E949D556B0176
:101290007C0134C01091CB0C612F6F7770E080E03F
:1012A00090E00E949F5520E030E040E853E40E9427
:1012B000FE556B017C018091CC0C682F70E080E0C2
:1012C00090E00E949F559B01AC01C701B6010E94AE
:1012D0006F4D2DEC3CEC4CEC5DE30E94FE556B0138
:1012E0007C0117FF0BC0F7FAF094F7F8F09406C0F2
:1012F000C12CD12CE0ECEE2EEFE7FE2E0E945833ED
:10130000882309F445C08091CF0C8B3041F188F1DE
:101310008551823070F56091C90C70E080E090E0FA
:101320000E949D5520E030E040E853E40E94FE55C5
:101330004B015C018091CA0C682F70E080E090E066
:101340000E949F559B01AC01C501B4010E946F4DE5
:101350002DEC3CEC4CEC5DE30E94FE5507C0609127
:10136000C90C70E080E090E00E949D554B015C014B
:1013700006C0812C912C70ECA72E7FE7B72EA70119
:101380009601C701B6010E94844E882379F016C0E9
:10139000A7019601C701B6010E94844E81111EC0AB
:1013A000812C912C60ECA62E6FE7B62EC092C1095D
:1013B000D092C209E092C309F092C409A501940138
:1013C000C501B4010E94844E811108C08092BD09FC
:1013D0009092BE09A092BF09B092C00986E390E046
:1013E0000E94743C24E13EEA43E251E40E94DA4D5B
:1013F0009B01AC0160E070E088EC92E40E946E4DCD
:101400006093B9097093BA098093BB099093BC09A2
:101410008AE390E00E94743C24E13EEA43E251E416
:101420000E94DA4D6093A0097093A1098093A209EC
:101430009093A30988E390E00E94743C24E13EEA83
:1014400043E251E40E94DA4D609394097093950948
:10145000809396099093970987E390E00E94743CEB
:101460009B01AC010091E2091091E309C090DE09F3
:10147000D090DF09E090E009F090E109B801012E79
:10148000000C880B990B2DA73EA74FA758AB0E94C5
:101490009F552DA53EA54FA558A90E946E4D4B0105
:1014A0005C018091E8099091E909801B910BBC01D6
:1014B000990F880B990B0E949F552B013C0120919D
:1014C000E4093091E5094091E6095091E709C70127
:1014D000B6010E946E4D9B01AC01C301B2010E9496
:1014E000DA4D9B01AC01C501B4010E94DA4DA701A0
:1014F00096010E946F4D6093A8097093A90980938B
:10150000AA099093AB0989E390E00E94743C24E11E
:101510003EEA43E251E40E94DA4D20E030E048E444
:1015200052E40E94804E18166CF480E090E0A0E82F
:10153000BFE380938F0990939009A0939109B09392
:10154000920908C010928F09109290091092910987
:1015500010929209809193098823E1F080913109DA
:1015600090913209A0913309B09134090196A11DDF
:10157000B11D8093310990933209A0933309B09340
:10158000340910922D0910922E0910922F091092F1
:1015900030091BC080912D0990912E09A0912F092F
:1015A000B09130090196A11DB11D80932D09909332
:1015B0002E09A0932F09B09330091092310910928F
:1015C0003209109233091092340900913509802FA5
:1015D0006AE00E94F54C11E0911110E08091D10970
:1015E0008330D9F08091B809111104C090912C0971
:1015F000981799F0882319F08BE695E002C08EEEDB
:1016000094E00E9415338091B80980932C0962E31D
:1016100070E080E090E00E9494248091D0098330B3
:10162000D9F08091B709111104C090912B09981736
:1016300099F0882319F081E794E002C084EF93E0E9
:101640000E9415338091B70980932B0962E370E003
:1016500080E090E00E9494248091CF098330D9F0FB
:101660008091B609111104C090912A09981799F038
:10167000882319F087E793E002C08AEF92E00E9486
:1016800015338091B60980932A0962E370E080E007
:1016900090E00E9494248091CE098330D9F080910B
:1016A000B509111104C090912909981799F0882360
:1016B00019F08DE792E002C080E092E00E941533BD
:1016C0008091B5098093290962E370E080E090E0A1
:1016D0000E94942440912509509126096091270980
:1016E000709128094F5F5F4F6F4F7F4F40932509DF
:1016F0005093260960932709709328098091C509A2
:10170000882319F01092C50903C081E08093C509B0
:101710000E94CC246093360970933709809338096E
:1017200090933909802F6CE30E94F54C993009F0B1
:1017300090C48091EA09882309F48BC48091F10C4C
:101740009091F20CA091F30CB091F40C892B8A2BA0
:101750008B2B09F07EC40091EB0C1091EC0C6CE427
:1017600071E081EE9DE00E945D3962E776E0CE0196
:1017700043960E944526B801CE0101960E9463431C
:10178000BE016D5E7F4FCE0101960E942D257C012A
:10179000CE0101960E941126CE0143960E94112689
:1017A000EF20E09409F046C063E471E081EE9DE033
:1017B0000E945D392AE045E150E060E070E081EE92
:1017C0009DE00E9400386DEA76E081EE9DE00E9487
:1017D0005C39B801CE0101960E9463430E5F1F4F32
:1017E000BE016F5F7F4FC8010E94BF25CE010196E9
:1017F0000E94112665E776E0CE0101960E944526FB
:10180000BE016F5F7F4FC8010E942D257C01CE0174
:1018100001960E941126EF20E09461F01C8E1B8E31
:101820001E8E1D8E18A21F8EB801CE014B960E94EF
:10183000FC2506C067E978E0CE014B960E9445265C
:101840008F8D98A1892B09F400C4EB8DFC8D8081CC
:10185000882309F4FAC30091EB0C1091EC0C6EE2B2
:1018600071E081EE9DE00E945D39B801CE010196E4
:101870000E946343BE016F5F7F4FC80102960E94C2
:10188000BF25CE0101960E9411266BE776E0CE01BE
:1018900001960E944526CE0101960E941126809154
:1018A000EA09882309F4D1C3BE01655E7F4F80E356
:1018B0009BE00E945B386EE776E0CE0101960E94C5
:1018C0004526BE016F5F7F4FCE014B960E942D25AE
:1018D0008C01CE0101960E941126E091EF0CF0914F
:1018E000F00C808191811C8A1B8A1E8A1D8A188EA9
:1018F0001F8A4AE0BE016F5F7F4F0E943751BE01D1
:101900006F5F7F4FCE0143960E94AA2598012A5F00
:101910003F4FA8014E5F5F4FBE01655E7F4FCE0116
:1019200001960E9459262D813E818F89988D281716
:10193000390719F589819A816B897C89009719F09B
:1019400061157105A9F46115710551F02115310575
:1019500039F0DB018C9190E09195819591090AC055
:10196000009769F0232B59F0FC01808190E002C0C0
:101970000E94AD5011E0892B19F010E001C011E078
:10198000CE0101960E941126CE0143960E94112697
:10199000112309F45AC361E876E0CE0101960E9452
:1019A0004526BE016F5F7F4FCE014B960E942D25CD
:1019B0008C01CE0101960E94112617FF15C065E823
:1019C00076E0CE0101960E944526BE016F5F7F4FF3
:1019D000CE014B960E942D257C01CE0101960E94DE
:1019E0001126F7FE46C061C0E090ED0CF090EE0CC1
:1019F000A8014F5F5F4FBE01655E7F4FCE0101962C
:101A00000E945923E114F104B9F00D811E810115E2
:101A1000110519F4D7011C920FC00F30110510F0F9
:101A20000FE010E069817A81A801C7010E94BD50D2
:101A3000F701E00FF11F1082CE0101960E941126DE
:101A4000E091ED0CF091EE0C168600E010E0609154
:101A5000ED0C7091EE0C600F711F41E0C8018853CE
:101A60009F4F0E94C23E0F5F1F4F0031110579F753
:101A7000A6CFB2E0EB0EF11C8F8D98A1E816F90607
:101A800048F48B8D9C8D009729F0FC01EE0DFF1D15
:101A9000808101C080E080538093EA0941E06AEED2
:101AA00079E08CED90E00E94C23E41ED59E068E89B
:101AB00076E0CE014B960E94413D40ED59E06BE847
:101AC00076E0CE014B960E94413D4FEC59E06EE826
:101AD00076E0CE014B960E94413D4EEC59E061E923
:101AE00076E0CE014B960E94413D64E976E0CE015E
:101AF00001960E944526BE016F5F7F4FCE014B9637
:101B00000E942D258C01CE0101960E94112617FD01
:101B10009CC267E571E080E39BE00E945D3980E351
:101B20009BE00E944838C090ED0CD090EE0C0091E4
:101B3000EB0C1091EC0C67E976E081EE9DE00E94E1
:101B40005C39B801CE0101960E9463437801E2E05E
:101B5000EE0EF11CBE016F5F7F4FC7010E94BF25D3
:101B6000CE0101960E94112662EA76E081EE9DE0A8
:101B70000E945C39B60181EE9DE00E945C396CEAFE
:101B800076E081EE9DE00E945C39B801CE010196BD
:101B90000E946343BE016F5F7F4FC7010E94BF2554
:101BA000CE0101960E9411266AE081EE9DE00E941E
:101BB00077388091D30D882341F06FEA76E08091E9
:101BC000EB0C9091EC0C0E94CD228091C50D8823E6
:101BD00041F063EB76E08091EB0C9091EC0C0E946D
:101BE000CD228091B70D882341F067EB76E080919C
:101BF000EB0C9091EC0C0E94CD228091A90D8823D2
:101C000041F06BEB76E08091EB0C9091EC0C0E9434
:101C1000CD2280919B0D882341F06FEB76E080917F
:101C2000EB0C9091EC0C0E94CD228091550D8823F5
:101C300041F063EC76E08091EB0C9091EC0C0E940B
:101C4000CD228091470D882341F067EC76E08091AA
:101C5000EB0C9091EC0C0E94CD2280912B0D8823EF
:101C600041F06BEC76E08091EB0C9091EC0C0E94D3
:101C7000CD2280911D0D882341F06FEC76E080919C
:101C8000EB0C9091EC0C0E94CD228091390D8823B1
:101C900041F063ED76E08091EB0C9091EC0C0E94AA
:101CA000CD226091D109809193090E94711C80938B
:101CB000B8096091D009809124090E94711C809319
:101CC000B7096091CF09809123090E94711C80930C
:101CD000B6096091CE09809122090E94711C8093FF
:101CE000B50969E876E081EE9DE00E945C3980915B
:101CF000B809882311F061E301C060E381EE9DE043
:101D00000E9477388091D109882311F06DE401C0D9
:101D100061E481EE9DE00E94773867ED76E081EE28
:101D20009DE00E945C398091B709882311F061E33E
:101D300001C060E381EE9DE00E9477388091D00978
:101D4000882311F06DE401C061E481EE9DE00E9402
:101D500077386AED76E081EE9DE00E945C398091F3
:101D6000B609882311F061E301C060E381EE9DE0D4
:101D70000E9477388091CF09882311F06DE401C06B
:101D800061E481EE9DE00E9477386DED76E081EEB2
:101D90009DE00E945C398091B509882311F061E3D0
:101DA00001C060E381EE9DE00E9477388091CE090A
:101DB000882311F06DE401C061E481EE9DE00E9492
:101DC00077386AE081EE9DE00E94773860EE76E039
:101DD00081EE9DE00E945C394091C1095091C20999
:101DE0006091C3097091C4098091EB0C9091EC0C47
:101DF0000E94A0436AE081EE9DE00E94773864EE85
:101E000076E081EE9DE00E945C394091BD095091E1
:101E1000BE096091BF097091C0098091EB0C90914F
:101E2000EC0C0E94A0436AE081EE9DE00E947738AE
:101E300068EE76E081EE9DE00E945C394091B90940
:101E40005091BA096091BB097091BC098091EB0C6B
:101E50009091EC0C0E94A0436AE081EE9DE00E940C
:101E600077386CEE76E081EE9DE00E945C3940911F
:101E7000A0095091A1096091A2097091A3098091D4
:101E8000EB0C9091EC0C0E94A0436AE081EE9DE087
:101E90000E94773860EF76E081EE9DE00E945C3929
:101EA0004091940950919509609196097091970914
:101EB0008091EB0C9091EC0C0E94A0436AE081EEC3
:101EC0009DE00E94773864EF76E081EE9DE00E940D
:101ED0005C39409198095091990960919A097091E3
:101EE0009B098091EB0C9091EC0C0E94A0436AE05E
:101EF00081EE9DE00E94773868EF76E081EE9DE00C
:101F00000E945C394091A8095091A9096091AA09E1
:101F10007091AB098091EB0C9091EC0C0E94A04366
:101F20006AE081EE9DE00E9477386CEF76E081EE0A
:101F30009DE00E945C394091A4095091A5096091EF
:101F4000A6097091A7098091EB0C9091EC0C0E946E
:101F5000A0436AE081EE9DE00E94773860E077E080
:101F600081EE9DE00E945C3940918F09509190096B
:101F700060919109709192098091EB0C9091EC0C19
:101F80000E94A0436AE081EE9DE00E94773864E001
:101F900077E081EE9DE00E945C394091EA0950E0D3
:101FA00060E070E081EE9DE00E94453C66E978E0EB
:101FB00081EE9DE00E945C3900E010E066E978E087
:101FC00081EE9DE00E945C39BE016F5F7F4FC801CA
:101FD0000E945520BE016F5F7F4F81EE9DE00E9401
:101FE0005C390F5F1F4F0032110541F70091EB0C78
:101FF0001091EC0C6DEA76E081EE9DE00E945C3978
:1020000064E670E080E090E00E9494246AE181EE52
:102010009DE00E947738B801CE0143960E94634349
:10202000BE016D5E7F4FC80102960E94BF25CE01A2
:1020300043960E94112668E077E0CE0143960E9405
:102040004526CE0143960E941126CE014B960E9452
:1020500011268091E70B811108C08091AE09909103
:10206000AF09892B11F40E94AA2686E49CE00E9405
:10207000F621833261F41092AF091092AE091092EA
:10208000AD091092AC0981E08093E50B2AC087333B
:1020900029F41092E50B81E090E006C08833D9F472
:1020A0001092E50B83E090E09093AF098093AE0926
:1020B0001092AD091092AC091092B1091092B209B8
:1020C0001092B3091092B4091092B0098DE29CE00D
:1020D0000E94EB3B06C08091E50B811102C00E947B
:1020E000F62880911A0981110DC00E94CC246093BA
:1020F000160970931709809318099093190981E0C4
:1021000080931A098091E80B882371F08091E50B88
:10211000882351F01092E80B6091090C8091EB0B31
:102120009091EC0B0E94C52E8091E10B81113FC074
:102130008091E20B0E9475246091E30B7091E40B97
:102140002091100930911109281B390B37FF03C06A
:10215000319521953109621773072CF49093110979
:102160008093100921C0EFEDFBE020E030E04689CC
:102170005789DA01A61BB70BA817B9077CF4460FDD
:10218000571F8417950754F4220F331F220F331F54
:10219000F901E950F44FE080F18014C02F5F3F4F08
:1021A00034962530310519F7E12CF12C0BC0E09164
:1021B000DF0BF091E00B0190F081E02D8FED9BE0C3
:1021C00019957C018091150990E0E816F906C9F08F
:1021D000E0921509109214090E94CC24609316090C
:1021E0007093170980931809909319091092130995
:1021F0001092120981E090E090931F0C80931E0CC6
:10220000E3C00E94CC240091160910911709209177
:10221000180930911909DC01CB01801B910BA20B2D
:10222000B30B89379105A105B10508F4CDC00E9413
:10223000CC24609316097093170980931809909322
:102240001909E114F10421F08091E50B81110DC011
:10225000109213091092120981E090E090931F0CE4
:1022600080931E0C10921409AFC0F5E0EF16F10434
:1022700019F481E08093E70B8091E70B882309F440
:10228000A3C08091140990E0E816F906A9F48091A2
:1022900012099091130901969093130980931209E2
:1022A0006AE070E00E94014D892B71F080911E0C54
:1022B00090911F0C029604C0E092140981E090E016
:1022C00090931F0C80931E0C8E2D2091E60B35E011
:1022D000E316F10419F0EA94EF2889F48091E90BF0
:1022E0009091EA0B222311F063E018C060E00097A0
:1022F00009F04FC08091ED0B9091EE0B4AC08330F6
:1023000021F0843021F462E003C061E001C064E0A8
:10231000222339F08091E90B9091EA0B0E941C3046
:1023200053C02091EB0B3091EC0BF9017196E491C5
:10233000E150643089F51092EA0B1092E90B80911C
:10234000F30B9091F40B009789F48091F10B90912D
:10235000F20B009771F48091EF0B9091F00B0097C6
:1023600011F40C94921A20E030E005C022E030E035
:1023700002C021E030E0220F331FF901E151F44F98
:10238000118210829093EC0B8093EB0B1092090C4E
:1023900061E00E94262F18C09091090C613011F065
:1023A00061E001C06FEF690FE61730F481E06F3F25
:1023B00009F080E0682F61956F3F09F46E2F6093FC
:1023C000090CC9010E94C52E8091F10C9091F20C6C
:1023D000A091F30CB091F40C0097A105B10509F49C
:1023E00040C0805D9A48AF4FBF4F40914609509121
:1023F0004709609148097091490984179507A60714
:10240000B70778F588E40E94363C0091EB0C1091F8
:10241000EC0C6BE571E081EE9DE00E945D39B80146
:10242000CE0101960E946343BE016F5F7F4FC801DA
:1024300002960E94BF25CE0101960E9411266BE7ED
:1024400076E0CE0101960E944526CE0101960E94BB
:1024500011261092F10C1092F20C1092F30C1092C3
:10246000F40C2091D80D6CE38091D90D90E05CE3E1
:10247000259F800D911D112420914A0A30914B0A0D
:10248000629FA001639F500D11242091480A309152
:10249000490A420F531F2091460A3091470A629F12
:1024A000F001639FF00D11242091440A3091450AF8
:1024B0002E0F3F1F4217530740F48417950760F013
:1024C00041E08217930758F007C08417950730F44E
:1024D00041E02817390718F440E001C041E040937B
:1024E0009309109193096091D109812F0E94711C69
:1024F0008093B809C090C109D090C209E090C30987
:10250000F090C4092091400A3091410A4091420A5A
:102510005091430AC701B6010E94995587FF03C035
:1025200081E08093240920913C0A30913D0A40913A
:102530003E0A50913F0AC701B6010E94804E18160C
:1025400014F4109224096091D009809124090E940A
:10255000711C8093B7092091300A3091310A409163
:10256000320A5091330AC701B6010E94804E1816F4
:102570001CF481E08093230920912C0A30912D0ACC
:1025800040912E0A50912F0AC701B6010E94995519
:1025900087FD109223096091CF09809123090E9441
:1025A000711C8093B60980912209882349F180919A
:1025B000220A9091230A4CE3489F9001499F300DD5
:1025C00011248091200A9091210A820F931FA0E08C
:1025D000B0E040912509509126096091270970913A
:1025E0002809481759076A077B0750F010922509F8
:1025F0001092260910922709109228091092220998
:102600008091220981112AC080911E0A90911F0A8F
:102610002CE3289FA001299F500D112420911C0A12
:1026200030911D0A420F531F60E070E08091250930
:1026300090912609A0912709B09128098417950740
:10264000A607B70758F01092250910922609109294
:1026500027091092280981E0809322096091CE0910
:10266000809122090E94711C8093B509112331F1D8
:102670004090080A5090090A60900A0A70900B0A6C
:102680008090040A9090050AA090060AB090070A6C
:102690008091310990913209A0913309B0913409A8
:1026A00088309740A105B10570F58090140A90908C
:1026B000150AA090160AB090170A25C04090180A73
:1026C0005090190A60901A0A70901B0A8090140AA0
:1026D0009090150AA090160AB090170A80912D09C3
:1026E00090912E09A0912F09B09130098830974020
:1026F000A105B10540F44090080A5090090A609085
:102700000A0A70900B0A11E0A3019201C701B601F9
:102710000E94804E18160CF010E0612F87EC9DE0AF
:102720000E941823882329F061E38DE097E00E943E
:10273000A52020E030E040E05FE3C301B2010E9449
:102740006E4D9B01AC016091C1097091C2098091ED
:10275000C3099091C4090E949955682F661F662786
:10276000661F87EC9DE00E94D622882329F060E353
:102770008DE097E00E94A520A50194016091C10918
:102780007091C2098091C3099091C4090E94995522
:10279000682F661F6627661F89EB9DE00E9418233D
:1027A000882329F061E38EE197E00E94A52020E0D4
:1027B00030E040E05FE3C501B4010E946F4D9B0132
:1027C000AC0111E06091C1097091C2098091C30907
:1027D0009091C4090E94804E18160CF010E0612FF1
:1027E00089EB9DE00E94D622882329F060E38EE1E8
:1027F00097E00E94A5206091B8096623B1F020916E
:10280000FC093091FD094091FE095091FF0960914A
:10281000B9097091BA098091BB099091BC090E94D5
:102820009955682F661F6627661F8DE99DE00E94F7
:102830001823882329F061E38FE297E00E94A52006
:102840008091B8098823F9F020E030E040E251E4BB
:102850006091FC097091FD098091FE099091FF093A
:102860000E946F4D9B01AC0111E06091B90970911C
:10287000BA098091BB099091BC090E94804E18163C
:102880001CF010E001C011E0612F8DE99DE00E9475
:10289000D622882329F060E38FE297E00E94A520EA
:1028A0008091B809811115C011E02091000A309182
:1028B000010A4091020A5091030A6091B90970918E
:1028C000BA098091BB099091BC090E94804E1816EC
:1028D0000CF010E0612F8BEA9DE00E941823882302
:1028E00029F061E380E497E00E94A5206091B80997
:1028F00061111EC020E030E040E251E46091000A26
:102900007091010A8091020A9091030A0E946E4D13
:102910009B01AC016091B9097091BA098091BB0922
:102920009091BC090E949955682F661F6627661F03
:102930008BEA9DE00E94D622882329F060E380E4A0
:1029400097E00E94A52011E020E030E048E452E446
:102950006091A0097091A1098091A2099091A309A9
:102960000E94804E18160CF010E08091EB09811146
:1029700003C081E0182703C0823009F410E0612F02
:1029800061708FE89DE00E941823882329F061E39D
:1029900081E597E00E94A520612F609561708FE826
:1029A0009DE00E94D622882329F060E381E597E02C
:1029B0000E94A52020E030E048E452E460919409B0
:1029C0007091950980919609909197090E94995567
:1029D000182F111F1127111F612F8DE29DE00E94FA
:1029E0001823882329F061E382E697E00E94A5205E
:1029F00091E0612F69278DE29DE00E94D622882315
:102A000029F060E382E697E00E94A52011E0209182
:102A1000F4093091F5094091F6095091F709609158
:102A2000A8097091A9098091AA099091AB090E9407
:102A3000804E18160CF010E0612F81E89DE00E9496
:102A40001823882329F061E383E797E00E94A520FB
:102A50002DEC3CEC4CE45EE36091F4097091F509D7
:102A60008091F6099091F7090E946E4D9B01AC018F
:102A70006091A8097091A9098091AA099091AB0968
:102A80000E949955682F661F6627661F81E89DE0A2
:102A90000E94D622882329F060E383E797E00E9412
:102AA000A5202091F8093091F9094091FA09509137
:102AB000FB096091A8097091A9098091AA099091D8
:102AC000AB090E949955682F661F6627661F83E72A
:102AD0009DE00E941823882329F061E384E897E0B1
:102AE0000E94A5202DEC3CEC4CE45EE36091F809DB
:102AF0007091F9098091FA099091FB090E946F4D3C
:102B00009B01AC0111E06091A8097091A909809125
:102B1000AA099091AB090E94804E18160CF010E0A3
:102B2000612F83E79DE00E94D622882329F060E38D
:102B300084E897E00E94A52011E02091EC093091F3
:102B4000ED094091EE095091EF096091A40970914F
:102B5000A5098091A6099091A7090E94804E181698
:102B60000CF010E0612F85E69DE00E941823882379
:102B700029F061E385E997E00E94A5202DEC3CEC6B
:102B80004CE45EE36091EC097091ED098091EE09EF
:102B90009091EF090E946E4D9B01AC016091A409D8
:102BA0007091A5098091A6099091A7090E94995555
:102BB000682F661F6627661F85E69DE00E94D62265
:102BC000882329F060E385E997E00E94A520209101
:102BD000F0093091F1094091F2095091F3096091A7
:102BE000A4097091A5098091A6099091A7090E9456
:102BF0009955682F661F6627661F87E59DE00E942E
:102C00001823882329F061E386EA97E00E94A52033
:102C10002DEC3CEC4CE45EE36091F0097091F1091D
:102C20008091F2099091F3090E946F4D9B01AC01D4
:102C300011E06091A4097091A5098091A609909175
:102C4000A7090E94804E18160CF010E0612F87E54E
:102C50009DE00E94D622882329F060E386EA97E06F
:102C60000E94A52011E02091100A3091110A409194
:102C7000120A5091130A6091BD097091BE098091AA
:102C8000BF099091C0090E94804E18160CF010E008
:102C9000612F89E49DE00E941823882329F061E3D5
:102CA00087EB97E00E94A52020E030E040E05FE362
:102CB0006091100A7091110A8091120A9091130A82
:102CC0000E946E4D9B01AC016091BD097091BE09DF
:102CD0008091BF099091C0090E949955682F661F85
:102CE0006627661F89E49DE00E94D622882329F08A
:102CF00060E387EB97E00E94A52020910C0A3091B9
:102D00000D0A40910E0A50910F0A6091BD09709111
:102D1000BE098091BF099091C0090E949955682F02
:102D2000661F6627661F8BE39DE00E941823882399
:102D300029F061E388EC97E00E94A52020E030E0D4
:102D400040E05FE360910C0A70910D0A80910E0AD9
:102D500090910F0A0E946F4D9B01AC0111E06091B0
:102D6000BD097091BE098091BF099091C0090E9470
:102D7000804E18160CF010E0612F8BE39DE00E944E
:102D8000D622882329F060E388EC97E00E94A520F2
:102D900020E030E040E85FE360918F097091900996
:102DA00080919109909192090E949955682F661F10
:102DB0006627661F81E19DE00E941823882329F081
:102DC00061E388EC97E00E94A52011E020E030E06C
:102DD000A90160918F09709190098091910990915A
:102DE00092090E94804E18160CF010E0612F81E1CC
:102DF0009DE00E94D622882329F060E388EC97E0CA
:102E00000E94A52086E49CE00E9499218823E1F09D
:102E10001092D40D1092C60D1092B80D1092AA0DFA
:102E200010929C0D10928E0D1092800D1092720DCA
:102E30001092640D1092560D1092480D10922C0DA8
:102E400010921E0D10923A0D80E39BE00E94AF3469
:102E5000181619060CF07DC360E37BE0CE014396A3
:102E60000E94D73769ED77E0CE0101960E94452692
:102E7000BE016F5F7F4FCE0143960E942D258C01CE
:102E8000CE0101960E94112617FD57C00FB6F89487
:102E9000A895809160008861809360001092600026
:102EA0000FBE6DED77E080E39BE00E944B38A89564
:102EB00060EF77E0CE0101960E944526BE016F5F6C
:102EC0007F4F83E99AE00E945B38BE016F5F7F4FBE
:102ED00080E39BE00E945B38A89568E873E180E09E
:102EE00090E00E949424A8958BE796E00E94973C7E
:102EF000CE0101960E9411269ED443D383E99AE025
:102F00000E94AF34892B49F083E99AE00E948D3406
:102F1000682F80E39BE00E94EE3480E39BE00E94F8
:102F2000AF34892B59F380E39BE00E948D34682FE6
:102F300083E99AE00E94EE34E1CF41ED59E068E880
:102F400076E0CE0143960E94413D40ED59E06BE8AA
:102F500076E0CE0143960E94413D4FEC59E06EE889
:102F600076E0CE0143960E94413D4EEC59E061E986
:102F700076E0CE0143960E94413D69EF77E0CE01B5
:102F800001960E944526BE016F5F7F4FCE0143969A
:102F90000E942D258C01CE0101960E94112617FD5D
:102FA0002CC0A8014C5F5F4FBE016D5E7F4FCE010C
:102FB00001960E945923CE0101960E942225DC0130
:102FC000CB0142E0BE01655E7F4F0E949B3E4B8D70
:102FD0005C8D052E000C660B770B80E39BE00E9456
:102FE000453C80E39BE00E94483880E39BE00E94E0
:102FF0004838CE0101960E9411266EEF77E0CE018F
:1030000001960E944526BE016F5F7F4FCE01439619
:103010000E942D258C01CE0101960E94112617FDDC
:103020002FC0A8014C5F5F4FBE016D5E7F4FCE0188
:1030300001960E94592389819A81009719F00E9474
:10304000055103C060E070E0CB010E944B4EDC01F3
:10305000CB01BE01655E7F4F0E94F3286B8D7C8D96
:103060008D8D9E8D0E941E2E80E39BE00E9448382D
:1030700080E39BE00E944838CE0101960E94112611
:1030800063E078E0CE0101960E944526BE016F5FA5
:103090007F4FCE0143960E942D258C01CE010196D3
:1030A0000E94112617FD2FC0A8014C5F5F4FBE0183
:1030B0006D5E7F4FCE0101960E945923CE0101968D
:1030C0000E9422256B017C01CE0101960E941126EF
:1030D000A801475F5F4FBE016D5E7F4FCE01019635
:1030E0000E945923CE0101960E9422257C8F6B8F6E
:1030F000CE0101960E94112642E0BE01655E7F4F1F
:10310000C6010E94C23E68E078E0CE0101960E94AE
:103110004526BE016F5F7F4FCE0143960E942D254D
:103120008C01CE0101960E94112617FD36C0A80120
:103130004C5F5F4FBE016D5E7F4FCE0101960E94D6
:103140005923CE0101960E9422256B017C01CE01FC
:1031500001960E941126A801475F5F4FBE016D5E78
:103160007F4FCE0101960E94592389819A81009751
:1031700019F00E94055103C060E070E0CB016B8F35
:103180007C8F8D8F9E8FCE0101960E941126BE01ED
:10319000655E7F4FC6010E94F7456DE078E0CE0185
:1031A00001960E944526BE016F5F7F4FCE01439678
:1031B0000E942D258C01CE0101960E94112617FF39
:1031C00020D664E976E0CE0101960E944526BE0134
:1031D0006F5F7F4FCE0143960E942D258C01CE015B
:1031E00001960E9411260F3F1F4F09F496C180E3FC
:1031F0009BE00E9448386091D1098091930971D376
:103200008093B8096091D009809124096AD3809392
:10321000B7096091CF098091230963D38093B609E0
:103220006091CE09809122095CD38093B50962E157
:1032300078E080E39BE00E945C398091B8098823A4
:1032400011F061E301C060E380E39BE00E94773806
:103250008091D109882311F08DE401C081E40E949E
:10326000363C65E178E080E39BE00E945C39809128
:10327000B709882311F061E301C060E380E39BE0BC
:103280000E9477388091D009882311F08DE401C025
:1032900081E40E94363C68E178E080E39BE00E9494
:1032A0005C398091B609882311F061E301C060E3C5
:1032B00080E39BE00E9477388091CF09882311F04A
:1032C0008DE401C081E40E94363C6BE178E080E34C
:1032D0009BE00E945C398091B509882311F061E37D
:1032E00001C060E380E39BE00E9477388091CE09C3
:1032F000882311F08DE401C081E40E94363C80E314
:103300009BE00E94483860EE76E080E39BE00E94FC
:103310005C396091C1097091C2098091C309909193
:10332000C4090E941E2E64EE76E080E39BE00E94BA
:103330005C396091BD097091BE098091BF0990917F
:10334000C0090E941E2E68EE76E080E39BE00E949A
:103350005C396091B9097091BA098091BB0990916B
:10336000BC090E941E2E6CEE76E080E39BE00E947A
:103370005C396091A0097091A1098091A209909196
:10338000A3090E941E2E60EF76E080E39BE00E947E
:103390005C3960919409709195098091960990919A
:1033A00097090E941E2E68EF76E080E39BE00E9462
:1033B0005C396091A8097091A9098091AA0990913E
:1033C000AB090E941E2E6CEF76E080E39BE00E942A
:1033D0005C396091A4097091A5098091A60990912A
:1033E000A7090E941E2E64EF76E080E39BE00E9416
:1033F0005C39609198097091990980919A0990912E
:103400009B090E941E2E60E077E080E39BE00E9413
:103410005C3960918F097091900980919109909128
:1034200092090E941E2E80E39BE00E94483864E0CF
:1034300077E080E39BE00E945C394091EA0950E02C
:1034400060E070E02AE080E39BE00E94003860E2E8
:1034500080E39BE00E9477386BED7CE080E39BE0AB
:103460000E945C3960E280E39BE00E9477384091E3
:1034700000065091010660E070E02AE080E39BE0E6
:103480000E94003880E39BE00E94483880E39BE084
:103490000E94483866E771E080E39BE00E945D3956
:1034A00067E679E080E39BE00E944B386BE671E0D1
:1034B00080E39BE00E945D396BE779E080E39BE06D
:1034C0000E944B3861E671E080E39BE00E945D3929
:1034D00063E579E080E39BE00E944B3880E39BE06A
:1034E0000E94483800E010E0BE016F5F7F4FC801C6
:1034F000DCD5BE016F5F7F4F80E39BE00E944B38BD
:103500000F5F1F4F0032110579F780E39BE00E94A7
:10351000483880E39BE00E944838CE0143960E94E1
:10352000112617C08091ED0B9091EE0B9093EC0B50
:103530008093EB0B1092090C1092E70BE0910C0CAE
:10354000F0910D0C309711F40C94E41119950C9432
:10355000E411E0960FB6F894DEBF0FBECDBFDF9149
:10356000CF911F910F91FF90EF90DF90CF90BF9080
:10357000AF909F908F907F906F905F904F90089545
:103580000895CF93DF93CDB7DEB7EC970FB6F894DD
:10359000DEBF0FBECDBF6EE178E0CE0101960E9486
:1035A000452662E378E0CE0101960E949C2562E404
:1035B00078E0CE0101960E949C25BE016F5F7F4F8F
:1035C00083E99AE00E945B38A89560ED77E080E09F
:1035D00090E00E949424A89587E498E00E94973C8C
:1035E00081111CC1409194095091950960919609EF
:1035F0007091970922E0CE01C7960E94162640914D
:103600008F0950919009609191097091920922E07F
:10361000CE01C1960E9416264091980950919909B1
:1036200060919A0970919B0922E0CE018B960E94CD
:1036300016264091A4095091A5096091A6097091A0
:10364000A70922E0CE0185960E9416264091A8097E
:103650005091A9096091AA097091AB0922E0CE01AD
:103660004F960E9416264091B9095091BA0960916F
:10367000BB097091BC0922E0CE0149960E94162632
:103680004091BD095091BE096091BF097091C00978
:1036900022E0CE0143960E9416264091C109509126
:1036A000C2096091C3097091C40922E0CE010D9650
:1036B0000E94162618861F821A8619861C861B866B
:1036C00069ED7BE0CE0107960E94FC2563E579E079
:1036D000CE0107960E9474256DE478E00E9474255F
:1036E000BE01635F7F4F0E948B2566E578E00E94F4
:1036F0007425BE016D5E7F4F0E948B256FE578E0DB
:103700000E947425BE01675E7F4F0E948B2568E68C
:1037100078E00E947425BE01615E7F4F0E948B2578
:1037200061E778E00E947425BE016B5D7F4F0E94C7
:103730008B256AE778E00E947425BE01655D7F4FA6
:103740000E948B2563E878E00E947425BE016F5CBF
:103750007F4F0E948B256CE878E00E947425BE01A3
:10376000695C7F4F0E948B2565E978E00E94742593
:10377000BC01CE0101960E94FC25CE0107960E9455
:103780001126CE010D960E941126CE0143960E946D
:103790001126CE0149960E941126CE014F960E9415
:1037A0001126CE0185960E941126CE018B960E948D
:1037B0001126CE01C1960E941126CE01C7960E9405
:1037C000112668E978E083E99AE00E945C394D812E
:1037D0005E8160E070E02AE083E99AE00E940038B0
:1037E00083E99AE00E94483884EA98E00E94973C76
:1037F000882349F04D815E8169817A8183E99AE06D
:103800000E94493406C066EA78E083E99AE00E94A3
:103810004B388BE796E00E94973CA895CE01019625
:103820000E941126EC960FB6F894DEBF0FBECDBFF6
:10383000DF91CF9108951F93CF93DF9300D000D0F5
:10384000CDB7DEB7A89562EB78E083E99AE00E94F5
:103850004B3860ED77E080E090E00E949424A895DA
:103860006EEB78E0CE0101960E94452667E679E08E
:10387000CE0101960E949C256EE278E0CE01019671
:103880000E949C256BE779E0CE0101960E949C2561
:1038900060E378E0CE0101960E949C25BE016F5F37
:1038A0007F4F83E99AE00E945B38A89568E873E14E
:1038B00080E090E00E949424A8958BE796E00E9417
:1038C000973C182FCE0101960E941126812F269633
:1038D0000FB6F894DEBF0FBECDBFDF91CF911F9121
:1038E0000895662321F081E0623009F080E00895B8
:1038F0004F925F926F927F928F929F92AF92BF9200
:10390000CF92DF92EF92FF921092D10986E090E081
:1039100090934B0A80934A0A1092490A1092480ADF
:1039200086E190E09093470A8093460A1092450AF8
:103930001092440A41E061ED79E084E090E00E9459
:10394000C23E6AE47AE088E090E00E94F94568E4CB
:103950007AE08CE090E00E94F94566E47AE080E14C
:1039600090E00E94F94564E47AE084E190E00E94EE
:10397000F9451092D009C12CD12C80E7E82E81E4C2
:10398000F82EC092400AD092410AE092420AF09288
:10399000430A80E090E0A0E8B1E480933C0A909371
:1039A0003D0AA0933E0AB0933F0A412C512C90E26D
:1039B000692E91E4792E4092380A5092390A609229
:1039C0003A0A70923B0A80E090E0A0E3B1E4809371
:1039D000340A9093350AA093360AB093370A41E02F
:1039E00060ED79E088E190E00E94C23E60E47AE018
:1039F0008CE190E00E94F7456CE37AE080E290E091
:103A00000E94F74568E37AE084E890E00E94F74579
:103A100064E37AE088E890E00E94F7451092CF09CD
:103A200080E090E0A0EAB1E48093300A9093310AFC
:103A3000A093320AB093330A80E090E0A8E9B1E4A1
:103A400080932C0A90932D0AA0932E0AB0932F0AEC
:103A5000C092280AD092290AE0922A0AF0922B0AF0
:103A6000812C912C20E6A22E21E4B22E8092240AF1
:103A70009092250AA092260AB092270A41E06FECA4
:103A800079E084E290E00E94C23E60E37AE088E25E
:103A900090E00E94F7456CE27AE08CE290E00E94B0
:103AA000F74568E27AE08CE890E00E94F74564E22E
:103AB0007AE080E990E00E94F7451092CE091092DA
:103AC000230A1092220A8EE190E09093210A8093BB
:103AD000200A10921F0A10921E0A90931D0A8093CA
:103AE0001C0A41E06EEC79E080E390E00E94C23E67
:103AF00062E27AE084E390E00E94F94560E27AE0D5
:103B000088E390E00E94F9456EE17AE08CE390E072
:103B10000E94F9456CE17AE080E490E00E94F9456A
:103B200080E090E0A8EAB1E48093080A9093090A43
:103B3000A0930A0AB0930B0A80E090E0A8E9B1E4F0
:103B40008093040A9093050AA093060AB093070A8B
:103B500080E090E0A0E2B2E48093000A9093010A32
:103B6000A093020AB093030A80E090E0A0E7B2E4D9
:103B70008093FC099093FD09A093FE09B093FF097F
:103B8000C092180AD092190AE0921A0AF0921B0AFF
:103B90004092140A5092150A6092160A7092170AFF
:103BA00068E07AE084E490E00E94F74564E07AE01F
:103BB00088E490E00E94F74560E07AE08CE490E0D1
:103BC0000E94F7456CEF79E080E590E00E94F745B0
:103BD00068E17AE084E990E00E94F74564E17AE0E8
:103BE00088E990E00E94F7458FE892E09093E90918
:103BF0008093E80980E192E09093E3098093E209E1
:103C00008CEE91E5A0E8B0E48093E4099093E50997
:103C1000A093E609B093E70980E090E0A0EEB0E45D
:103C20008093DE099093DF09A093E009B093E10946
:103C30001092F8091092F9091092FA091092FB09F2
:103C40008092F4099092F509A092F609B092F709D2
:103C500068EF79E088E590E00E94F74564EF79E04D
:103C600084E590E00E94F74542E068EE79E08CE55B
:103C700090E00E94C23E42E062EE79E080E690E091
:103C80000E94C23E64EE79E084E690E00E94F7452F
:103C90006EED79E088E690E00E94F74582EF90E0D3
:103CA0009093DD098093DC098DE790E09093D7092C
:103CB0008093D60981E895E9A3EABFE38093D80908
:103CC0009093D909A093DA09B093DB098AE69CEBBB
:103CD000A0E9B0E48093D2099093D309A093D409CA
:103CE000B093D5091092F0091092F1091092F209DF
:103CF0001092F30980E090E0AAE7B4E48093EC0925
:103D00009093ED09A093EE09B093EF0960EF79E08D
:103D100080E790E00E94F7456CEE79E08CE690E059
:103D20000E94F74542E06CED79E084E790E00E9464
:103D3000C23E42E066ED79E088E790E00E94C23E34
:103D400068ED79E08CE790E00E94F74562ED79E05C
:103D500080E890E00E94F74510920C0A10920D0A3C
:103D600010920E0A10920F0A80E090E0A8ECB2E4E4
:103D70008093100A9093110AA093120AB093130A29
:103D800060E17AE08CE990E00E94F7456CE07AE02F
:103D900080EA90E00E94F74580E090E0A8E4B3EC70
:103DA00080933E0990933F09A0934009B093410945
:103DB00010923A0910923B0910923C0910923D0969
:103DC0006AE379E084EA90E00E94F7456EE379E0E7
:103DD00088EA90E00E94F7451092EB0941E06BEE13
:103DE00079E084EC90E0FF90EF90DF90CF90BF906F
:103DF000AF909F908F907F906F905F904F900C94BA
:103E0000C23ECF93DF9341E061ED79E084E090E042
:103E10000E949B3E6AE47AE088E090E00E94FB45C5
:103E200068E47AE08CE090E00E94FB4566E47AE08A
:103E300080E190E00E94FB4564E47AE084E190E058
:103E40000E94FB4541E060ED79E088E190E00E944E
:103E50009B3E60E47AE08CE190E00E94F3286CE302
:103E60007AE080E290E00E94F32868E37AE084E858
:103E700090E00E94F32864E37AE088E890E00E94F2
:103E8000F32841E06FEC79E084E290E00E949B3EF1
:103E900060E37AE088E290E00E94F3286CE27AE046
:103EA0008CE290E00E94F32868E27AE08CE890E0EF
:103EB0000E94F32864E27AE080E990E00E94F3280F
:103EC00041E06EEC79E080E390E00E949B3E62E28C
:103ED0007AE084E390E00E94FB4560E27AE088E3C8
:103EE00090E00E94FB456EE17AE08CE390E00E9456
:103EF000FB456CE17AE080E490E00E94FB4568E0DD
:103F00007AE084E490E00E94F32864E07AE088E4B8
:103F100090E00E94F32860E07AE08CE490E00E9458
:103F2000F3286CEF79E080E590E00E94F32868E1E7
:103F30007AE084E990E00E94F32864E17AE088E97D
:103F400090E00E94F32868EF79E088E590E00E9415
:103F5000F32864EF79E084E590E00E94F32842E0E2
:103F600068EE79E08CE590E00E949B3E42E062EED4
:103F700079E080E690E00E949B3E64EE79E084E682
:103F800090E00E94F3286EED79E088E690E00E94D0
:103F9000F32860EF79E080E790E00E94F3286CEE70
:103FA00079E08CE690E00E94F32842E06CED79E045
:103FB00084E790E00E949B3E42E066ED79E088E76E
:103FC00090E00E949B3E68ED79E08CE790E00E94D3
:103FD000F32862ED79E080E890E00E94F32841E068
:103FE0006AEE79E08CED90E00E949B3E60E076E026
:103FF00088ED90E00E94FB4541E06BEE79E084ECB7
:1040000090E00E949B3E60E17AE08CE990E00E94A3
:10401000F3286CE07AE080EA90E00E94F3286AE3FB
:1040200079E084EA90E00E94F3286EE379E088EA80
:1040300090E00E94F328C8ECD0E0BE016D5E734FA3
:1040400041E0CE010E949B3E2196C83DD105A9F7D3
:10405000C0E2D3E0BE01695B794F41E0CE010E942E
:104060009B3E2196C03383E0D807A1F7C4E3D3E099
:10407000BE01695B794F41E0CE010E949B3E2196D3
:10408000C43483E0D807A1F7C8E4D3E0BE01655F7C
:10409000794F41E0CE010E949B3E2196C83583E0D6
:1040A000D807A1F7DF91CF910895EF92FF920F9378
:1040B0001F93CF93DF931F921F92CDB7DEB78C0172
:1040C0007B0142E0BE016F5F7F4F80EE90E00E9477
:1040D0009B3E29813A8121503109203231051CF45F
:1040E0003A83298302C01A82198260E270E09B0140
:1040F000201B310B89819A81820F931F0E94154DDD
:104100009A83898300E010E0B701600F711F8981F5
:104110009A8124E0880F991F2A95E1F78C519F4FCF
:1041200041E0800F911F0E949B3E0F5F1F4F0031A7
:10413000110551F7F701108A0F900F90DF91CF9181
:104140001F910F91FF90EF900895CF92DF92EF9221
:10415000FF920F931F93CF93DF931F921F92CDB7C0
:10416000DEB78C01F62E8091DD0C8033D9F181E32E
:10417000681338C08091F10C9091F20CA091F30C6F
:10418000B091F40C892B8A2B8B2B61F58091EA0975
:10419000823040F183E40E94363CC090ED0CD09018
:1041A000EE0C65E871E081EE9DE00E945D39B6019C
:1041B00081EE9DE00E945C3961E871E081EE9DE056
:1041C0000E945D398091460990914709A091480964
:1041D000B09149098093F10C9093F20CA093F30CE9
:1041E000B093F40C8091D70D68018A3048F4EFEF5A
:1041F000CE1ADE0A4AE0B80180E090E00E94375112
:104200008091D70D4AE0B60190E00E9437518FE2CD
:10421000F8018283B8016D5F7F4F8091D60D8A309F
:1042200040F44AE080E090E00E943751C8010496D3
:10423000BC018091D60D4AE090E00E94375180E2A7
:10424000F8018583B8016A5F7F4F8091D80D8A306D
:1042500040F44AE080E090E00E943751C8010796A0
:10426000BC018091D80D4AE090E00E9437518AE36A
:10427000F8018087B801675F7F4F8091D90D8A3040
:1042800040F44AE080E090E00E943751C8010A966D
:10429000BC018091D90D4AE090E00E94375180E244
:1042A000F8018387F78642E0BE016F5F7F4F80EEA3
:1042B00090E00E949B3E89819A81809714F01A8237
:1042C0001982E12CF12CB8016E0D7F1D89819A8134
:1042D00024E0880F991F2A95E1F78C519F4F41E008
:1042E0008E0D9F1D0E94C23EFFEFEF1AFF0A80E174
:1042F000E816F10441F789819A81019660E270E045
:104300000E94154D9A83898342E0BE016F5F7F4F03
:1043100080EE90E00E94C23E89819A810F900F90BA
:10432000DF91CF911F910F91FF90EF90DF90CF9091
:104330000895CF93DF93EC010E94253A8E859F85E7
:104340008130910589F18230910581F184309105A8
:1043500079F1089779F18C859D858130910561F11E
:104360008230910559F18430910551F1089751F14E
:104370008A859B858130910539F18230910531F133
:104380008430910529F1089729F188859985813034
:10439000910511F18230910509F18430910501F107
:1043A000089701F180E01FC08AE21DC087E31BC0AF
:1043B00084E319C081E317C080E315C088E313C00C
:1043C00085E311C082E30FC083E20DC089E30BC017
:1043D00086E309C083E307C084E405C083E403C027
:1043E00082E401C081E4DF91CF910895CF92DF9202
:1043F000EF92FF920F931F93CF93DF93EC010E94F4
:10440000253A2E853F85888599852430310509F028
:1044100049C04C855D854830510519F421E0209351
:10442000D1092A853B852830310519F462E0609373
:10443000D1098830910511F41092D1094430510509
:1044400019F461E06093D0092430310519F462E079
:104450006093D0098430910511F41092D009423054
:10446000510519F461E06093CF092230310519F448
:1044700062E06093CF098230910511F41092CF0968
:104480004130510519F441E04093CE092130310506
:1044900019F422E02093CE09019709F052C010923E
:1044A000CE094FC08E0101581F4F892B51F48A85C8
:1044B0009B85892B31F48C859D85892B11F4232BC9
:1044C00089F1F80180819181A281B381892B8A2BA6
:1044D0008B2B31F461D2F8016083718382839383E3
:1044E000F801C080D180E280F380F4EFCF0EF1E0DC
:1044F000DF1EE11CF11C50D26C157D058E059F0559
:10450000B0F4F801C080D180E280F380F8ECCF0EE7
:10451000D11CE11CF11C40D2C616D706E806F906EC
:1045200030F40FC0F8011082118212821382CE0182
:10453000DF91CF911F910F91FF90EF90DF90CF907F
:10454000F8CE80E0DF91CF911F910F91FF90EF9017
:10455000DF90CF900895FC01E45BFF4F8081918153
:1045600045DF813459F0823461F0843469F083325C
:1045700071F08A3279F080E090E0089583E090E075
:10458000089584E090E0089581E090E0089582E04D
:1045900090E0089585E090E0089581EE9DE00E940E
:1045A0005C396AE081EE9DE00C947738CF92DF921F
:1045B000EF92FF921F93CF93DF93EC01662351F1AB
:1045C0001C85112359F18C819D81AE81BF81892B7E
:1045D0008A2B8B2B29F4E0D16C837D838E839F8380
:1045E000CA84DB840D2C000CEE08FF088C819D81B1
:1045F000AE81BF81C80ED91EEA1EFB1ECDD1C616E4
:10460000D706E806F90650F41C861C821D821E821D
:104610001F8205C01C821D821E821F8210E0812F16
:10462000DF91CF911F91FF90EF90DF90CF90089591
:10463000CF92DF92EF92FF92CF93DF93EC0166234C
:1046400061F18C8581112DC088819981AA81BB81FE
:10465000892B8A2B8B2B29F49FD1688379838A83BA
:104660009B83C884D9840D2C000CEE08FF08888138
:104670009981AA81BB81C80ED91EEA1EFB1E8CD16E
:10468000C616D706E806F90660F481E08C878D87A8
:10469000188219821A821B8205C0188219821A8216
:1046A0001B8280E0DF91CF91FF90EF90DF90CF9061
:1046B0000895CF93DF93EC01FB0124813581F9D27A
:1046C000CE01DF91CF9108953FB7F89480914F09C3
:1046D00090915009A0915109B091520926B5A89B1B
:1046E00005C02F3F19F00196A11DB11D3FBFBA2F84
:1046F000A92F982F8827820F911DA11DB11DBC01E4
:10470000CD0142E0660F771F881F991F4A95D1F7A8
:1047100008950E949950CF93DF93EC01888199818D
:10472000009711F00E941D4F198218821D821C8271
:104730001B821A82DF91CF9108950F931F93CF931D
:10474000DF93EC0188819981009729F02A813B81D0
:104750002617370788F48B016F5F7F4F0E94B54F94
:10476000009761F0998388831B830A832C813D81A4
:10477000232B11F4FC01108281E001C080E0DF9165
:10478000CF911F910F910895EF92FF920F931F9376
:10479000CF93DF93EC017B018A01BA01CEDF811157
:1047A00003C0CE01B8DF07C01D830C83B701888129
:1047B00099810E94B650CE01DF91CF911F910F9148
:1047C000FF90EF90089590E0FC013197E231F10500
:1047D00008F04EC08827EE58FF4F8F4F0C94664D5F
:1047E000809180008F7703C0809180008F7D8093BF
:1047F0008000089580918000877FF9CF84B58F77FE
:1048000002C084B58F7D84BD08958091B0008F77FC
:1048100003C08091B0008F7D8093B0000895809197
:1048200090008F7707C0809190008F7D03C08091AA
:104830009000877F8093900008958091A0008F77EB
:1048400007C08091A0008F7D03C08091A000877F6A
:104850008093A0000895809120018F7707C08091F8
:1048600020018F7D03C080912001877F80932001EC
:104870000895CF93DF9390E0FC01E650F54F24912B
:10488000FC01EC54F54F8491882361F190E0880F8E
:10489000991FFC01E255FE4FC591D491FC01E058EF
:1048A000F54FA591B491611109C09FB7F894888123
:1048B000209582238883EC912E230BC0623061F413
:1048C0009FB7F8943881822F809583238883EC9159
:1048D0002E2B2C939FBF06C08FB7F894E8812E2B08
:1048E00028838FBFDF91CF910895863308F08653D8
:1048F00090917B00282F2870977F922B90937B00BC
:104900008770806480937C0080917A0080648093BB
:104910007A0080917A0086FDFCCF8091780020910A
:10492000790090E0922B08958F929F92AF92BF9260
:10493000CF92DF92EF92FF926B017C01C5DE4B01BB
:104940005C01C114D104E104F104E9F0BDDEDC0135
:10495000CB0188199909AA09BB09883E9340A10592
:10496000B10578F321E0C21AD108E108F10888EE18
:10497000880E83E0981EA11CB11CC114D104E1046F
:10498000F10421F7DECFFF90EF90DF90CF90BF9042
:10499000AF909F908F9008952FB7F89460914B0936
:1049A00070914C0980914D0990914E092FBF089547
:1049B0001F920F920FB60F9211242F933F938F9354
:1049C0009F93AF93BF9380914B0990914C09A09115
:1049D0004D09B0914E0930914A0923E0230F2D373C
:1049E00020F40196A11DB11D05C026E8230F0296F3
:1049F000A11DB11D20934A0980934B0990934C0946
:104A0000A0934D09B0934E0980914F0990915009A0
:104A1000A0915109B09152090196A11DB11D809339
:104A20004F0990935009A0935109B0935209BF9137
:104A3000AF919F918F913F912F910F900FBE0F904B
:104A40001F901895FC0180819181009711F00C94C2
:104A5000085160E070E0CB010895CF93DF93FC0133
:104A600024813581232B71F0FB01DC01CD91DC9198
:104A700060817181CE010E94CC50009719F08C1B8F
:104A80009D0B02C08FEF9FEFDF91CF910895EF92C2
:104A9000FF920F931F93CF93DF93FC012481358105
:104AA0006115710511F480E018C041155105A1F0A0
:104AB0007B01EC018A01020F131FB8013EDE88233F
:104AC00091F3288139818C819D81B701820F931FD9
:104AD0000E94B6501D830C8381E0DF91CF911F911E
:104AE0000F91FF90EF900895CF93DF93EC01611544
:104AF000710559F0FB0101900020E9F73197AF01F2
:104B0000461B570BC4DF811102C0CE0104DECE016B
:104B1000DF91CF910895CF93DF93EC01FB014481A6
:104B2000558160817181B3DF811102C0CE01F3DD57
:104B3000CE01DF91CF9108956115710549F0FB0118
:104B400001900020E9F73197AF01461B570B9FCF2B
:104B500080E00895CF93DF93EC016115710551F06A
:104B6000FB0101900020E9F73197AF01461B570B7D
:104B70000BDE01C0D0DDCE01DF91CF9108950F9300
:104B80001F93CF93DF938C01EB018617970771F189
:104B9000FC01808191810097B1F068817981611574
:104BA000710579F0428153812C813D814217530771
:104BB00040F00E94B6508C819D81F80195838483DA
:104BC00013C00E941D4F88819981F80191838083D1
:104BD0008A819B81938382838C819D819583848349
:104BE000198218821B821A821D821C82C801DF91E1
:104BF000CF911F910F910895CF93DF93EC01FB01AB
:104C00008617970751F0608171816115710521F058
:104C100044815581B9DD01C07EDDCE01DF91CF91A8
:104C20000895FC01808191810C941D4FEF92FF92B9
:104C30000F931F93CF93DF93CDB7DEB7A1970FB636
:104C4000F894DEBF0FBECDBF7C01CB01BA01F701E6
:104C500011821082138212821582148242E0420F66
:104C60008E010F5F1F4F0E94E650BC01C70172DF2B
:104C7000A1960FB6F894DEBF0FBECDBFDF91CF91E6
:104C80001F910F91FF90EF900895FC011182108207
:104C900013821282158214826115710549F0FB019D
:104CA00001900020E9F73197AF01461B570B6CCDFF
:104CB0000895BF92CF92DF92EF92FF920F931F93CE
:104CC000CF93DF937C016B018A01E901241735073B
:104CD00020F4812F8901C42FD82F67E978E0C7011C
:104CE000D4DFD60114968D919C911597081719075A
:104CF000C8F48C179D0708F4EC01D601ED91FC91E6
:104D00001197EC0FFD1FB08010824D915C91BA019C
:104D1000600F711FC7011EDFD601ED91FC91EC0FF2
:104D2000FD1FB082C701DF91CF911F910F91FF90BE
:104D3000EF90DF90CF90BF900895882311F06BE241
:104D400005C0662311F06DE201C060E28DE29CE0D7
:104D50000C9477388091D40D811134C08091C60DA8
:104D6000811130C08091B80D81112CC08091AA0DA5
:104D7000811128C080919C0D811124C080918E0DDD
:104D8000811120C08091800D81111CC08091720D15
:104D9000811118C08091640D811114C08091560D4D
:104DA000811110C08091480D81110CC080913A0D85
:104DB000811108C080912C0D811104C080911E0DBD
:104DC000882321F08091C509882329F08DE29CE099
:104DD0000E94E33B0BC0E0912D0CF0912E0C00845F
:104DE000F185E02D60E08DE29CE0199560E080E0C7
:104DF0000E94063D8091D30D882331F08091C50932
:104E0000882331F06BE20BC08091C50D811102C087
:104E100060E205C08091C5098823D1F36DE28DE27F
:104E20009CE00E94773864E78DE29CE00E9477382E
:104E30006091C1097091C2098091C3099091C40920
:104E40000E944B4E675F7F4F6331710528F460E32A
:104E50008DE29CE00E9477384091C1095091C209CF
:104E60006091C3097091C4098DE29CE00E943F3DAE
:104E700060E086E00E94063D6AED78E08DE29CE00D
:104E80000E945C396091C1097091C2098091C30987
:104E90009091C4090E944B4E675F7F4F633171054B
:104EA00028F460E38DE29CE00E9477384091BD09D0
:104EB0005091BE096091BF097091C0098DE29CE0DC
:104EC0000E943F3D60E08AE00E94063D60E28DE284
:104ED0009CE00E9477388091D80D8A3028F460E3F6
:104EE0008DE29CE00E9477384091D80D50E060E060
:104EF00070E02AE08DE29CE00E9400388091C509B4
:104F0000882341F080919B0D882311F061E203C05A
:104F10006AE301C060E28DE29CE00E9477388091F4
:104F2000D90D8A3028F460E38DE29CE00E94773846
:104F30004091D90D50E060E070E02AE08DE29CE005
:104F40000E94003861E080E00E94063D8091B70D2C
:104F5000882341F08091C509882311F06BE221C0BC
:104F600060E21FC08091A90D882331F08091C509AE
:104F70008823B1F36DE215C02091FC093091FD0941
:104F80004091FE095091FF096091B9097091BA09E9
:104F90008091BB099091BC090E94804E181604F7BD
:104FA0006AE28DE29CE00E94773869E876E08DE263
:104FB0009CE00E945C396091D1098091B8090E94FF
:104FC000804667ED76E08DE29CE00E945C3960915E
:104FD000D0098091B7090E9480466AED76E08DE2A3
:104FE0009CE00E945C396091CF098091B6090E94D3
:104FF00080466DED76E08DE29CE00E945C39609128
:10500000CE098091B5090C9480466AEA72E08DE27F
:105010009CE00C945D391092E50B84E090E0909355
:10502000AF098093AE091092AD091092AC091092AD
:10503000B1091092B2091092B3091092B4091092FA
:10504000B0098DE29CE00E94EB3B6CEF71E08DE2D9
:105050009CE00E945D398BE799E09093C7098093AB
:10506000C60940E150E0BC018DED98E00C94BD50C4
:105070001092E50B84E090E09093AF098093AE0925
:105080001092AD091092AC091092B1091092B209B8
:105090001092B3091092B4091092B0098DE29CE00D
:1050A0000E94EB3B6EEC71E08DE29CE00E945D396A
:1050B00083E599E09093C7098093C60940E150E0E9
:1050C000BC018DED98E00C94BD501092E50B84E08E
:1050D00090E09093AF098093AE091092AD091092C1
:1050E000AC091092B1091092B2091092B309109252
:1050F000B4091092B0098DE29CE00E94EB3B68EC91
:1051000071E08DE29CE00E945D3987E699E0909322
:10511000C7098093C60940E150E0BC018DED98E0DD
:105120000C94BD50CF93DF938DE29CE00E94EB3B4B
:105130006EEE71E08DE29CE00E945D3961E080E0FE
:105140000E94063D0E941B1C882319F064EE71E04A
:1051500002C06EED71E08DE29CE00E945D3968EE68
:1051600073E080E090E0E0DB67E679E080E39BE0DD
:105170000E944B38C0E2D3E0BE01695B794F41E049
:10518000CE010E94C23E2196C03383E0D807A1F72A
:105190006BE779E080E39BE00E944B38C4E3D3E007
:1051A000BE01695B794F41E0CE010E94C23E21966B
:1051B000C43483E0D807A1F763E579E080E39BE09E
:1051C0000E944B38C8E4D3E0BE01655F794F41E0EF
:1051D000CE010E94C23E2196C83583E0D807A1F7D0
:1051E000DF91CF91089544E00C949B3E8F929F9263
:1051F000BF92CF92DF92EF92FF920F931F93CF93C4
:10520000DF93CDB7DEB761970FB6F894DEBF0FBE60
:10521000CDBF8DE29CE00E94E33B86E49CE089D810
:10522000182F882309F442C08091B1099091B209E6
:10523000A091B309B091B409409146095091470932
:105240006091480970914909892B8A2B8B2B41F475
:105250004093B1095093B2096093B3097093B409B4
:105260008091B1099091B209A091B309B091B409AC
:105270006C017D0128E7C20ED11CE11CF11C4C150C
:105280005D056E057F0538F02091B009211103C03E
:105290001093B00901C010E0885A9D4FAF4FBF4F27
:1052A00084179507A607B70758F408C01092B109EC
:1052B0001092B2091092B3091092B4091092B00979
:1052C0008091AE099091AF09039709F05CC180917C
:1052D000AC099091AD09113411F4019703C0123457
:1052E00029F401969093AD098093AC098091AC09A3
:1052F0009091AD0997FF02C080E090E08630910563
:1053000014F085E090E09093AD098093AC0960E0E3
:10531000009799F580E00E94063D6091C50D80914F
:10532000D30D0BDD61EA72E08DE29CE00E945D39F5
:105330004091C1095091C2096091C3097091C4099B
:105340008DE29CE00E943F3D60DE61E080E00E94D3
:10535000063D6091470D8091550DEFDC68E972E0E4
:105360008DE29CE00E945D394091BD095091BE09DB
:105370006091BF097091C00901C18130910599F513
:1053800080E00E94063D60917F0D80918D0DD5DCFF
:105390006FE872E08DE29CE00E945D394091A809BF
:1053A0005091A9096091AA097091AB098DE29CE026
:1053B0000E943F3D2ADE61E080E00E94063D609150
:1053C000630D8091710DB9DC66E872E08DE29CE0BE
:1053D0000E945D394091A4095091A5096091A609E8
:1053E0007091A709CBC082309105C1F580E00E9481
:1053F000063D6091A90D8091B70D9FDC6CE772E0CE
:105400008DE29CE00E945D396091B9097091BA0902
:105410008091BB099091BC090E944B4EAB01770F64
:10542000660B770B8DE29CE00E94453CEEDD61E06F
:1054300080E00E94063D60919B0D80E07EDC62E78B
:1054400072E08DE29CE00E945D396091A00970914C
:10545000A1098091A2099091A3095DC083309105B3
:1054600039F580E00E94063D68E672E08DE29CE03E
:105470000E945D3987E390E00E94743CAB01BC015F
:105480008DE29CE00E943F3DC0DD61E080E00E9433
:10549000063D6EE572E08DE29CE00E945D39409130
:1054A0009C0950919D0960919E0970919F0966C069
:1054B0000497E1F580E00E94063D60E28DE29CE009
:1054C0000E94773864E572E08DE29CE00E945D39CD
:1054D000409198095091990960919A0970919B099E
:1054E0008DE29CE00E943F3D90DD61E080E00E9403
:1054F000063D6091390D80E020DC6AE472E08DE2C7
:105500009CE00E945D3960919409709195098091A9
:105510009609909197090E944B4EAB01770F660B4D
:10552000770B8DE29CE00E94453C2CC080E00E94FD
:10553000063D80919309882319F061E472E002C06E
:1055400068E372E08DE29CE00E945D395EDD61E01F
:1055500080E00E94063D60911D0D80912B0DEDDBDA
:105560006EE272E08DE29CE00E945D3940918F090D
:105570005091900960919109709192098DE29CE09F
:105580000E943F3D42DD8091AE099091AF090197A5
:1055900009F049C08091AC099091AD09113411F422
:1055A000019703C0123429F401969093AD098093BA
:1055B000AC098091AC099091AD098F31910514F03F
:1055C0008EE190E097FF02C080E090E09093AD09FB
:1055D0008093AC0960E080E00E94063DBE016F5FF1
:1055E0007F4F8091AC099091AD090E945520BE017A
:1055F0006F5F7F4F8DE29CE00E945C3961E080E04C
:105600000E94063D8091AC099091AD09BE016F5F8B
:105610007F4F01960E945520BE016F5F7F4F8DE244
:105620009CE00E945C398091AE099091AF0902978D
:1056300009F046C1143449F48091AC099091AD0948
:1056400001969093AD098093AC0960E080E00E94E0
:10565000063D64E272E08DE29CE00E945D3980913B
:10566000AC099091AD0997FF02C080E090E08530D1
:10567000910514F084E090E09093AD098093AC091B
:10568000F090DE0DB090DF0DC090DD0DD090DC0D00
:105690008090DB0D912C80E3881A88EF980A60E0F7
:1056A0008BE00E94063D8091AC099091AD09892B59
:1056B00069F4113411F4F39403C0123409F4FA9428
:1056C0006EE172E08DE29CE00E945D398091AC0950
:1056D0009091AD09019769F4113411F4B39403C0AA
:1056E000123409F4BA9468E172E08DE29CE00E9401
:1056F0005D398091AC099091AD09029769F411343C
:1057000011F4C39403C0123409F4CA9462E172E044
:105710008DE29CE00E945D398091AC099091AD09C9
:10572000039769F4113411F4D39403C0123409F4CB
:10573000DA946CE072E08DE29CE00E945D39809129
:10574000AC099091AD09049789F4113421F42FEF3D
:10575000821A920A05C0123419F481E0881A91085D
:1057600066E072E08DE29CE00E945D390F2D083109
:1057700008F007E12BE32B1510F43BE3B32E8FE188
:105780008C1518F42FE1C22E04C0C11002C0CC2425
:10579000C3942CE02D1518F49CE0D92E04C0D11030
:1057A00002C0DD24D394C40120E1821627E29206D0
:1057B00010F08FE097E27C0180EDE81687E0F806B4
:1057C00020F480EDE82E87E0F82EC701805D974039
:1057D0008093DB0DD092DC0DC092DD0D0093DE0DC9
:1057E000B092DF0D1092E00D61E080E00E94063D76
:1057F0000A3028F460E38DE29CE00E947738402F65
:1058000050E060E070E02AE08DE29CE00E94003809
:105810006AE38DE29CE00E94773829E02B1528F09E
:1058200060E38DE29CE00E9477384B2D50E060E011
:1058300070E02AE08DE29CE00E94003860E28DE298
:105840009CE00E94773889E08C1528F060E38DE2B7
:105850009CE00E9477384C2D50E060E070E02AE038
:105860008DE29CE00E9400386FE28DE29CE00E9495
:10587000773829E02D1528F060E38DE29CE00E9446
:1058800077384D2D50E060E070E02AE08DE29CE03A
:105890000E9400386FE28DE29CE00E947738A701F9
:1058A00060E070E02AE08DE29CE00E9400381A324D
:1058B00039F48BED9DE00E94054181E08093E50B7A
:1058C0008091AE099091AF09049709F07BC060E028
:1058D00080E00E94063D8091AC099091AD0913349F
:1058E00011F4019603C0143429F401979093AD0983
:1058F0008093AC098091AC099091AD0997FF02C0EB
:1059000080E090E08031910514F08FE090E090937A
:10591000AD098093AC09FC01E352F74F808111344B
:1059200011F48F5F03C0123409F48150803208F4FF
:1059300080E28F3708F08EE7808361E080E00E948C
:10594000063D6DED78E08DE29CE00E945C395DDB08
:105950005CDB8091C509882351F061E08091AC093E
:105960000E94063D6FE58DE29CE00E9477381A3276
:1059700049F58091AC099091AD09FC01E252F74FD5
:10598000108202962FEF8031910534F4FC01E3522E
:10599000F74F20830196F7CF1092ED086DED78E078
:1059A00080E39BE00E944B38A091C609B091C709E3
:1059B00080E1EDEDF8E001900D928A95E1F781E04C
:1059C0008093E50B61960FB6F894DEBF0FBECDBF96
:1059D000DF91CF911F910F91FF90EF90DF90CF90CB
:1059E000BF909F908F900895E0910A0CF0910B0C5E
:1059F000309709F0199408958F929F92AF92BF92B9
:105A0000CF92DF92EF92FF92CF93DF93A091D00CD1
:105A1000882311F03A2F01C030E08091D10C90E042
:105A2000880F991F8656954FC090D60CD090D70CF2
:105A3000E090D80CF090D90C40E050E0BA01FC01A5
:105A4000C591D49128812A2323130FC04A015B01F9
:105A50002FEF821A920AA20AB20A4C155D056E0552
:105A60007F0538F4B501A401EACF342F252FCB01EF
:105A700004C030E020E080E090E0632F722FDF91DF
:105A8000CF91FF90EF90DF90CF90BF90AF909F901D
:105A90008F9008951F93CF93DF93182FD92FC62F80
:105AA00040E150E060E270E08EE09CE00E94A65091
:105AB000E12FFD2FEC0FF11DEC0FF11D659174919D
:105AC0006F5F7F4F4FE050E08EE09CE00E942E51D0
:105AD00020E130E040E050E061E070E08EE09CE0EA
