:10000000D7C6000006C7000004C7000002C70000F2
:1000100000C70000FEC60000FCC60000FAC60000D3
:10002000F8C600000C94242D0C94242D0C94242D3F
:10003000F0C60000EEC60000ECC60000EAC60000F4
:10004000E8C60000E6C60000E4C60000E2C6000004
:10005000E0C60000DEC60000DCC600000C94CA3317
:10006000D8C600000C9444230C941B23D2C6000075
:10007000D0C60000CEC60000CCC60000CAC6000034
:10008000C8C60000C6C60000C4C60000C2C6000044
:10009000C0C60000BEC60000BCC600000C945F2FA6
:1000A000B8C60000B6C60000B4C60000B2C6000064
:1000B000B0C60000AEC60000ACC60000AAC6000074
:1000C000A8C60000A6C60000A4C600000C94F22238
:1000D0000C94C9229EC600009CC600009AC600006F
:1000E00098C6000009101F101F101D101F100710C8
:1000F0001F101F101F10FB0F1F101F1010101B10C0
:1001000019101F101F101F10171039133C132B1339
:100110002F1335137313401344134A134E13521302
:1001200058135C136013731366136A136E136174B0
:100130002B636D6764613D2264656C20616C6C2289
:100140000A0D0041542B434D47523D0041542B436F
:100150004D47463D310D00534D53004154480D0A63
:1001600000574946495F4150493A00574946495F5F
:10017000504153533A00574946495F535349443A13
:10018000005741544348444F472054455354003B83
:100190000D0A004154440030363A35373A343500C0
:1001A0004A756E20313520323031370052544320A9
:1001B0004C4F535420504F57455221005245534500
:1001C00054204F4B00535349443A0000002100246F
:1001D0000027002A002D0030003300010100000438
:1001E0000107010A0100000A0B02090C0D0E0807A5
:1001F00003040100000000000000000000000000F7
:1002000000000000000000000000000000000000EE
:1002100000121110000000000000000000000000AB
:100220000000000000000000000000005EBCE26171
:100230003FDD83C29C7E20A3FD1F419DC3217FFC27
:10024000A2401E5F01E3BD3E6082DC237D9FC14270
:100250001CFEA0E1BF5D0380DE3C62BEE0025CDF0D
:1002600081633D7C22C09E1D43A1FF4618FAA4274E
:10027000799BC584DA3866E5BB5907DB856739BAEF
:10028000E406581947A5FB7826C49A653BD987042C
:100290005AB8E6A7F91B45C6987A24F8A6441A99D5
:1002A000C7257B3A6486D85B05E7B98CD2306EED02
:1002B000B3510F4E10F2AC2F7193CD114FADF370BF
:1002C0002ECC92D38D6F31B2EC0E50AFF1134DCED8
:1002D00090722C6D33D18F0C52B0EE326C8ED053A5
:1002E0000DEFB1F0AE4C1291CF2D73CA947628ABBE
:1002F000F517490856B4EA6937D58B5709EBB53677
:10030000688AD495CB2977F4AA4816E9B7550B88A3
:10031000D6346A2B7597C94A14F6A8742AC896155C
:100320004BA9F7B6E80A54D7896B350344495341C2
:10033000424C4520524144494F0000024F4E21009B
:100340000000000000000000000000014F464621B0
:100350000000000000000000000000004155544F64
:1003600021000000000000000000005B034B033B85
:10037000032B03D309046B03D409046B03D50904CD
:100380006B03D609046B03060000000000000000A8
:10039000D7098000020000000000000000DB09789F
:1003A00000060000000000000000DD097C000200E3
:1003B00000000000000000E1097400060E000000CB
:1003C00000000000E309680002FF030000000000D5
:1003D00000E7096000060E00000000000000E909C7
:1003E000640002FF03000000000000ED095C000251
:1003F0000F270000E80300000006D80000030000FB
:100400000000000000EF09DC000002000000000016
:100410000000F009C400050000000000000000F129
:10042000096C00050000000000000000F5097000E4
:10043000050E00000000000000F9095400050E0040
:10044000000000000000FD095800066600000000E2
:10045000000000010A5000066600000000000000D5
:10046000050A4C0006630000009DFFFFFF090A9883
:100470000006630000009DFFFFFF0D0A94000500C9
:1004800000000000000000110AA0000500000000AC
:1004900000000000150A9C0006630000009DFFFF9D
:1004A000FF190A480006630000009DFFFFFF1D0AB8
:1004B0004400020000000000000000210A40000289
:1004C0000000000000000000230A3C0002000000C1
:1004D0000000000000250A380002000000000000B3
:1004E0000000270A3400090000000000000000732B
:1004F00003000006630000009DFFFFFF290A900033
:1005000006630000009DFFFFFF2D0A8C00066300BC
:1005100000009DFFFFFF310A2C0006630000009DD4
:10052000FFFFFF350A28000900000000000000005E
:1005300078030000066300000000000000390A880C
:10054000000663000000000000003D0A840006630E
:1005500000000000000000410A20000663000000C7
:1005600000000000450A1C00090000000000000017
:10057000007D030000023B00000000000000490A6B
:1005800014000217000000000000004B0A100002D7
:100590003B000000000000004D0A0C0002170000A4
:1005A00000000000004F0A080009000000000000E1
:1005B00000008203040053415645202620434F4E3D
:1005C0004E45435421000200D7264B45592D3E008D
:1005D000000000000000000000000200AB265041B7
:1005E0005353574F52442D3E0000000000000200BC
:1005F0007F26535349442D3E0000000000000000B8
:10060000000002000B074543204849474820592075
:100610005B532F4D5D000100870345432048494748
:100620004820582020205B2D5D00010094034543A5
:10063000204C4F57202059205B532F4D5D00010067
:10064000A1034543204C4F572020582020205B2DEC
:100650005D000100AE03504820484947482059201A
:10066000205B50485D000100BB03504820484947CB
:100670004820582020205B2D5D000100C803504811
:10068000204C4F5720205920205B50485D0001002E
:10069000D5035048204C4F572020582020205B2D58
:1006A0005D000100E20347534D20434F44452D3E7A
:1006B0000000000000000100EF0347534D204D4FA4
:1006C00044452D3E0000000000000100FC03455899
:1006D0005445524E414C0000000000000000010053
:1006E0000904454320484947482020205B532F4DAB
:1006F0005D00010016044543204C4F572020202068
:100700005B532F4D5D0001002304504820484947AA
:1007100048202020205B50485D00010030045048F4
:10072000204C4F5720202020205B50485D000100C6
:100730003D044C494748204C4F5700000000000042
:10074000000001004A044C494748204849474800F6
:100750000000000000000100570454454D50204C9B
:100760004F5720204E205B435D0001006404544538
:100770004D502048494748204E205B435D00010012
:10078000710448554D49204C4F57202020205B25AF
:100790005D0001007E0448554D49204849474820E6
:1007A00020205B255D0001008B0454454D50204CFA
:1007B0004F57202020205B435D00010098045445E2
:1007C0004D5020484947482020205B435D000100F0
:1007D000A5044359434C4552204F464620205B53C5
:1007E0005D000100B2044359434C4552204F464638
:1007F00020205B4D5D000100BF044359434C45522E
:10080000204F4E2020205B535D000100CC04435953
:10081000434C4552204F4E2020205B4D5D0001008F
:10082000D9044359434C455220434F4E54524F4CE8
:1008300000000100E60446414E204F4646204E206F
:10084000205B435D00000100F30446414E204F4E03
:1008500020204E20205B435D000001000005464142
:100860004E204F4646202020205B435D00000100C3
:100870000D0546414E204F4E20202020205B435D39
:10088000000001001A0546414E20434F4E54524F7E
:100890004C00000000000100270548454154455226
:1008A000204F46204E205B435D0001003405484543
:1008B00041544552204F4E204E205B435D000100C5
:1008C0004105484541544552204F464620205B4350
:1008D0005D0001004E05484541544552204F4E20D1
:1008E00020205B435D0001005B05484541544552B3
:1008F00020434F4E54524F4C0000010068054C49B4
:10090000474854204F46462020205B4D5D000100A3
:1009100075054C49474854204F46462020205B48E7
:100920005D00010082054C49474854204F4E20206D
:1009300020205B4D5D0001008F054C494748542045
:100940004F4E202020205B485D0001009C054C4953
:1009500047485420434F4E54524F4C000000010072
:10096000A905F205DE05CA05B60542062E061A06D9
:10097000060692067E066A065606BA06A606BE0752
:10098000AA07960782076E075A07460732071E070F
:100990000A07F606E206CE0622080E08FA07E60760
:1009A000D207860872085E084A083608EA08D608A0
:1009B000C208AE089A084E093A0926091209FE082B
:1009C000574946492D3E000000000000000000008D
:1009D0000004620952455345542100000000000004
:1009E0000000000002002F0A45432D3E00000000D9
:1009F000000000000000000000046A0950482D3E7D
:100A00000000000000000000000000000004720967
:100A100047534D2D3E000000000000000000000084
:100A200000027A0953455420434C4F434B2D3E005E
:100A30000000000002003807414C41524D20534550
:100A4000542D3E0000000000000D7E094359434C28
:100A500045522D3E000000000000000000059809EE
:100A600046414E2D3E000000000000000000000046
:100A70000005A2094845415445522D3E00000000A2
:100A8000000000000005AC094C494748542D3E00C9
:100A900000000000000000000005B609880A740A82
:100AA000600A4C0A380A240A100AFC09E809D40929
:100AB000C00900002200250028002B002E00310074
:100AC000340002010000050108010B0100002000B4
:100AD0002300260029002C002F0032000001000016
:100AE00003010601090105050505070508080808B1
:100AF000020202020A0A08080404040401010101B6
:100B000001010101030303030303030304070707B0
:100B10000C0C0C0C0C0C0C0C020202020606060655
:100B2000060606060B0B0B0B0B0B0B0B0102102022
:100B30002008081020401020408002010201080413
:100B400002010102040810204080804020100804A7
:100B50000201800402018040201008040201080400
:100B60000201010204081020408001020408102044
:100B70004080526F6F740000000000000000000011
:100B80000000000B9C0A5448494E47535045414BC6
:100B9000204B45593A004552524F5200434F4E4E5A
:100BA000454354454400434F4E4E454354494E47F8
:100BB0002E2E2E0050415353574F52443A00205985
:100BC000454152004D4F4E544800202044415900A9
:100BD00020204D494E0020484F5552005345542087
:100BE000434C4F434B004C4556454C5B2D5D3A0002
:100BF000204E4947485420200020444159202A20B3
:100C00002000504F5745525B255D3A0054454D50EA
:100C1000325B435D3A0020454320585B2D5D3A002E
:100C200020504820585B2D5D3A0045585420205BE9
:100C3000255D3A004C494748545B2D5D3A004543D9
:100C40005B532F4D5D3A005048205B50485D3A00A1
:100C500048554D495B255D3A0054454D505B435D19
:100C60003A002020202020202020001F1C1F1E1FB3
:100C70001E1F1F1E1F1E1F4E414E494E49545949EB
:100C80004E46CDCCCC3D0AD7233C17B7D13877CCD4
:100C90002B329595E6241FB14F0A00002041000039
:100CA000C84200401C4620BCBE4CCA1B0E5AAEC5F2
:100CB0009D7400407A10F35A00A0724E180900107B
:100CC000A5D4E80000E87648170000E40B540200C1
:100CD00000CA9A3B000000E1F505000080969800EC
:100CE000000040420F000000A08601000000102715
:100CF00000000000E80300000000640000000000A5
:100D00000A00000000000100000000002C76D888D6
:100D1000DC674F0823DFC1DFAE59E1B1B796E5E3E9
:100D2000E453C63AE651997696E8E6C28426EB8902
:100D30008C9B62ED407C6FFCEFBC9C9F40F2BAA59F
:100D40006FA5F490055A2AF75C936B6CF9676DC137
:100D50001BFCE0E40D47FEF520E6B500D0ED902E3B
:100D60000300943577050080841E080000204E0A99
:100D7000000000C80C333333330F986E12831141D7
:100D8000EF8D2114893BE65516CFFEE6DB18D184A2
:100D90004B381BF77C1D901DA4BBE42420328472C9
:100DA0005E228100C9F124ECA1E53D27B546A346AA
:100DB00011241FBECFEFD1E2DEBFCDBF00E00CBFDC
:100DC00019E0A0E0B2E0E8E1F7EA00E00BBF02C002
:100DD00007900D92A632B107D9F72EE0A6E2B9E04E
:100DE00001C01D92AD3DB207E1F716E0C7EDD6E0B8
:100DF00000E006C021970109802FFE010E94FC49F6
:100E0000C63DD10780E00807A9F70E9414340C946E
:100E10007A53F6C808951092F00B84E090E0909316
:100E20007A098093790910927809109277091092C3
:100E30002709109228091092290910922A09109264
:100E400026098BEB9CE00E94D73165EC71E08BEBBF
:100E50009CE00E94A52283E599E090932A0E80935E
:100E6000290E40E150E0BC018BEB98E00C94534D0F
:100E7000CF93DF9300D000D0CDB7DEB71092F00B48
:100E800082E090E090937A0980937909CE010196EF
:100E90000E94B42E86E0FE013196A6EEBDE00190E0
:100EA0000D928A95E1F710927809109277091092C5
:100EB0002709109228091092290910922A091092E4
:100EC00026098BEB9CE00E94D73126960FB6F8944A
:100ED000DEBF0FBECDBFDF91CF910895CF92DF92DD
:100EE000EF92FF920F931F93CF93DF931F921F9266
:100EF000CDB7DEB78C0179018BEB9CE04A83698327
:100F00000E94CF3169814A81842F0E94921B68011F
:100F1000C601801B910B8E159F056CF4F601619143
:100F20006F018FED860F8E3508F060E28BEB9CE051
:100F30000E94AC30EDCF0F900F90DF91CF911F91B9
:100F40000F91FF90EF90DF90CF9008954F925F92B6
:100F50006F927F928F929F92AF92BF92CF92DF92C9
:100F6000EF92FF921092D60986E090E09093500A9B
:100F700080934F0A10924E0A10924D0A86E190E03B
:100F800090934C0A80934B0A10924A0A1092490A95
:100F900041E066ED79E084E090E00E94BB326FE4CE
:100FA0007AE088E090E00E9492306DE47AE08CE094
:100FB00090E00E9492306BE47AE080E190E00E9441
:100FC000923069E47AE084E190E00E9492301092DD
:100FD000D509C12CD12C80E7E82E81E4F82EC092EF
:100FE000450AD092460AE092470AF092480A80E009
:100FF00090E0A0E8B1E48093410A9093420AA09364
:10100000430AB093440A412C512C90E2692E91E49A
:10101000792E40923D0A50923E0A60923F0A7092A9
:10102000400A80E090E0A0E3B1E48093390A909315
:101030003A0AA0933B0AB0933C0A41E065ED79E09F
:1010400088E190E00E94BB3265E47AE08CE190E0B8
:101050000E94903061E47AE080E290E00E9490305B
:101060006DE37AE084E890E00E94903069E37AE0F2
:1010700088E890E00E9490301092D40980E090E0DF
:10108000A0EAB1E48093350A9093360AA093370A18
:10109000B093380A80E090E0A8E9B1E48093310A87
:1010A0009093320AA093330AB093340AC0922D0A67
:1010B000D0922E0AE0922F0AF092300A812C912CC5
:1010C00020E6A22E21E4B22E8092290A90922A0ACA
:1010D000A0922B0AB0922C0A41E064ED79E084E200
:1010E00090E00E94BB3265E37AE088E290E00E94E3
:1010F000903061E37AE08CE290E00E9490306DE203
:101100007AE08CE890E00E94903069E27AE080E931
:1011100090E00E9490301092D3091092280A109209
:10112000270A8EE190E09093260A8093250A109278
:10113000240A1092230A9093220A8093210A41E004
:1011400063ED79E080E390E00E94BB3267E27AE0F1
:1011500084E390E00E94923065E27AE088E390E0D8
:101160000E94923063E27AE08CE390E00E94923039
:1011700061E27AE080E490E00E94923080E090E0CA
:10118000A8EAB1E480930D0A90930E0AA0930F0A87
:10119000B093100A80E090E0A8E9B1E48093090AD6
:1011A00090930A0AA0930B0AB0930C0A80E090E097
:1011B000A0E2B2E48093050A9093060AA093070A7E
:1011C000B093080A80E090E0A0E7B2E48093010ABF
:1011D0009093020AA093030AB093040AC0921D0AD6
:1011E000D0921E0AE0921F0AF092200A4092190A39
:1011F00050921A0A60921B0A70921C0A6DE07AE003
:1012000084E490E00E94903069E07AE088E490E025
:101210000E94903065E07AE08CE490E00E9490308B
:1012200061E07AE080E590E00E9490306DE17AE044
:1012300084E990E00E94903069E17AE088E990E0EA
:101240000E9490308FE892E09093EE098093ED0930
:1012500080E192E09093E8098093E7098CEE91E5B4
:10126000A0E8B0E48093E9099093EA09A093EB0920
:10127000B093EC0980E090E0A0EEB0E48093E30945
:101280009093E409A093E509B093E6091092FD0953
:101290001092FE091092FF091092000A8092F9093B
:1012A0009092FA09A092FB09B092FC096DEF79E0E7
:1012B00088E590E00E94903069EF79E084E590E065
:1012C0000E94903042E06DEE79E08CE590E00E9463
:1012D000BB3242E067EE79E080E690E00E94BB32EC
:1012E00069EE79E084E690E00E94903063EE79E068
:1012F00088E690E00E94903082EF90E09093E209BF
:101300008093E1098DE790E09093DC098093DB09FD
:1013100081E895E9A3EABFE38093DD099093DE09B4
:10132000A093DF09B093E0098AE69CEBA0E9B0E462
:101330008093D7099093D809A093D909B093DA097B
:101340001092F5091092F6091092F7091092F80917
:1013500080E090E0AAE7B4E48093F1099093F20969
:10136000A093F309B093F40965EF79E080E790E08A
:101370000E94903061EF79E08CE690E00E9490301E
:1013800042E061EE79E084E790E00E94BB3242E007
:101390006BED79E088E790E00E94BB326DED79E07B
:1013A0008CE790E00E94903067ED79E080E890E073
:1013B0000E9490301092110A1092120A1092130A91
:1013C0001092140A80E090E0A8ECB2E48093150A31
:1013D0009093160AA093170AB093180A65E17AE071
:1013E0008CE990E00E94903061E17AE080EA90E040
:1013F0000E94903080E090E0A8E4B3EC8093C709AD
:101400009093C809A093C909B093CA091092C3095F
:101410001092C4091092C5091092C60963EC79E0D4
:1014200084EA90E00E94903067EC79E088EA90E0EE
:101430000E9490301092F00941E060EF79E084EC76
:1014400090E0FF90EF90DF90CF90BF90AF909F9093
:101450008F907F906F905F904F900C94BB3276DDB1
:101460008BEB9CE00E94D73160E080E00E94921BF1
:101470006CEB71E08BEB9CE00E94A52268EE73E0C0
:1014800080E090E00C945019CF93C62F482F50E085
:1014900060E070E08BEB9CE00E94D21AC11102C0A8
:1014A00061E405C0C33010F46DE401C068E58BEB66
:1014B0009CE0CF910C94BF211F93CF93DF9300D07A
:1014C00000D0CDB7DEB7A8956CEC78E08EE99AE055
:1014D0000E94932160ED77E080E090E00E94501937
:1014E000A89568ED78E0CE0101960E949B2063E507
:1014F00079E0CE0101960E94102062E178E0CE01F1
:1015000001960E9410206FE379E0CE0101960E94BF
:10151000102064E178E0CE0101960E941020BE0107
:101520006F5F7F4F8EE99AE00E94A321A89568E83B
:1015300073E180E090E00E945019A8958BE796E057
:101540000E94231B182FCE0101960E946720812F35
:1015500026960FB6F894DEBF0FBECDBFDF91CF91B8
:101560001F910895662321F081E0623009F080E048
:101570000895CF93DF9341E066ED79E084E090E059
:101580000E9494326FE47AE088E090E00E94943008
:101590006DE47AE08CE090E00E9494306BE47AE0B5
:1015A00080E190E00E94943069E47AE084E190E088
:1015B0000E94943041E065ED79E088E190E00E947E
:1015C000943265E47AE08CE190E00E94963061E428
:1015D0007AE080E290E00E9496306DE37AE084E861
:1015E00090E00E94963069E37AE088E890E00E94FB
:1015F000963041E064ED79E084E290E00E9494321C
:1016000065E37AE088E290E00E94963061E37AE058
:101610008CE290E00E9496306DE27AE08CE890E0F7
:101620000E94963069E27AE080E990E00E9496306C
:1016300041E063ED79E080E390E00E94943267E25C
:101640007AE084E390E00E94943065E27AE088E3F7
:1016500090E00E94943063E27AE08CE390E00E9494
:10166000943061E27AE080E490E00E9494306DE092
:101670007AE084E490E00E94963069E07AE088E4C1
:1016800090E00E94963065E07AE08CE490E00E9461
:10169000963061E07AE080E590E00E9496306DE15E
:1016A0007AE084E990E00E94963069E17AE088E986
:1016B00090E00E9496306DEF79E088E590E00E941E
:1016C000963069EF79E084E590E00E94963042E040
:1016D0006DEE79E08CE590E00E94943242E067EE96
:1016E00079E080E690E00E94943269EE79E084E649
:1016F00090E00E94963063EE79E088E690E00E94E8
:10170000963065EF79E080E790E00E94963061EFD7
:1017100079E08CE690E00E94963042E061EE79E05C
:1017200084E790E00E94943242E06BED79E088E734
:1017300090E00E9494326DED79E08CE790E00E9499
:10174000963067ED79E080E890E00E94963041E0C5
:101750006FEE79E08CED90E00E94943260E076E0EC
:1017600088ED90E00E94943041E060EF79E084ECF5
:1017700090E00E94943265E17AE08CE990E00E946A
:10178000963061E17AE080EA90E00E94963063EC66
:1017900079E084EA90E00E94963067EC79E088EA8C
:1017A00090E00E949630C8ECD0E0BE01625E734FBC
:1017B00041E0CE010E9494322196C83DD105A9F79F
:1017C000C0E2D3E0BE016D5C794F41E0CE010E94E2
:1017D00094322196C03383E0D807A1F7C4E3D3E065
:1017E000BE01655F794F41E0CE010E94943221969F
:1017F000C43483E0D807A1F7C8E4D3E0BE016D513B
:101800007A4F41E0CE010E9494322196C83583E0A0
:10181000D807A1F7DF91CF910895EF92FF920F9330
:101820001F93CF93DF931F921F92CDB7DEB78C012A
:101830007B0142E0BE016F5F7F4F80EE90E00E942F
:10184000943229813A8121503109203231051CF42A
:101850003A83298302C01A82198260E270E09B01F8
:10186000201B310B89819A81820F931F0E94C749E7
:101870009A83898300E010E0B701600F711F8981AE
:101880009A8124E0880F991F2A95E1F78C519F4F88
:1018900041E0800F911F0E9494320F5F1F4F003173
:1018A000110551F7F701108A0F900F90DF91CF913A
:1018B0001F910F91FF90EF900895CF92DF92EF92DA
:1018C000FF920F931F93CF93DF931F921F92CDB779
:1018D000DEB78C01F62E8091E80C8033D9F181E3DC
:1018E000681338C08091FC0C9091FD0CA091FE0C07
:1018F000B091FF0C892B8A2B8B2B61F58091EF091E
:10190000823040F183E40E94C31AC090F80CD0905A
:10191000F90C63E971E08CEE9DE00E94A522B6010E
:101920008CEE9DE00E94A4226FE871E08CEE9DE0B9
:101930000E94A5228091950990919609A0919709FE
:10194000B09198098093FC0C9093FD0CA093FE0C31
:10195000B093FF0C8091E20D68018A3048F4EFEFFC
:10196000CE1ADE0A4AE0B80180E090E00E94CD4D38
:101970008091E20D4AE0B60190E00E94CD4D8FE2E9
:10198000F8018283B8016D5F7F4F8091E10D8A304D
:1019900040F44AE080E090E00E94CD4DC8010496FA
:1019A000BC018091E10D4AE090E00E94CD4D80E2C3
:1019B000F8018583B8016A5F7F4F8091E30D8A301B
:1019C00040F44AE080E090E00E94CD4DC8010796C7
:1019D000BC018091E30D4AE090E00E94CD4D8AE386
:1019E000F8018087B801675F7F4F8091E40D8A30EE
:1019F00040F44AE080E090E00E94CD4DC8010A9694
:101A0000BC018091E40D4AE090E00E94CD4D80E25F
:101A1000F8018387F78642E0BE016F5F7F4F80EE5B
:101A200090E00E94943289819A81809714F01A8202
:101A30001982E12CF12CB8016E0D7F1D89819A81EC
:101A400024E0880F991F2A95E1F78C519F4F41E0C0
:101A50008E0D9F1D0E94BB32FFEFEF1AFF0A80E13F
:101A6000E816F10441F789819A81019660E270E0FD
:101A70000E94C7499A83898342E0BE016F5F7F4F0E
:101A800080EE90E00E94BB3289819A810F900F9086
:101A9000DF91CF911F910F91FF90EF90DF90CF904A
:101AA00008955F926F927F928F929F92AF92BF92B2
:101AB000CF92DF92EF92FF920F931F93CF93DF931A
:101AC000CDB7DEB764970FB6F894DEBF0FBECDBFBB
:101AD00080EE93E99093BF0D8093BE0D80E69AEE61
:101AE0009093B10D8093B00DE0910E0DF0910F0D1C
:101AF000138615861486DF011B9633961E92AE1749
:101B0000BF07E1F710920D0DAA24A3949924939492
:101B10007E012CE0E20EF11C6E0184E1C80ED11CA6
:101B200037E0832E8E0C00910E0D10910F0DF801F1
:101B30008585811160C0C8010E949433811105C060
:101B4000F801138615861486B5C060EFC8010E949F
:101B5000581C77247394612C512CBB24B394C80176
:101B60000E942633682FC8016C8B0E9426336C8933
:101B7000613019F48130C1F435C0262D30E068138E
:101B80001CC0F8018385B81630F4E20FF31F83817F
:101B9000872151F402C0B81639F060E0F8E0FB1577
:101BA00058F0F801B48608C0F801E60DF11D8381F4
:101BB0008729838361E009C05B2CF801E20FF31FE2
:101BC0009381872D809589238383C8010E94653383
:101BD000B394770C19F4639477247394F7E0F615B3
:101BE00008F0BDCF20E42B1530F4F80153865110D6
:101BF000CBC2A586C9C2F80113861586148680E07B
:101C0000D8011396F7019D919193EC15FD05D9F735
:101C1000882309F44FC0D701E0E08A1639F08D918E
:101C2000E827F0E0E55DFD4FE491F7CF8B89E813FD
:101C30007ACF8091090D811124C080910E0D909171
:101C40000F0D0E949433B70180910E0D90910F0DEE
:101C50000E94FB3264EB80910E0D90910F0D0E945B
:101C6000581C80910E0D90910F0D0E942633182F55
:101C700080910E0D90910F0D0E949433112309F461
:101C800080C2BE016F5F7F4FC7010E94871C109109
:101C90000A0DC70103D6811718F480910A0D02C0FE
:101CA000C701FCD580930A0D80910D0D8F5F809345
:101CB0000D0D39CF60E08CE00E94B31861E087E041
:101CC0000E94B31862E082E00E94B31861E083E0F2
:101CD0000E94B31860E088E00E94B31861E088E0D9
:101CE0000E94841861E08DE00E94B318E0914B0BD4
:101CF000F0914C0B82E08083E091470BF091480B10
:101D00001082E091490BF0914A0B8FEC8083109286
:101D1000530BE0914F0BF091500B86E08083E091E4
:101D20004D0BF0914E0B808180618083E0914D0BD3
:101D3000F0914E0B808188608083E0914D0BF09193
:101D40004E0B808180688083E0914D0BF0914E0BAB
:101D500080818F7D808380E090E00E944B538111D1
:101D600002C007DC01C0F2D888ED9BE00E94392F49
:101D70001092070E1092060E1092050E1092040E8D
:101D80001092030E1092020E8DE991E09093090ECD
:101D90008093080E8091F80D96EF980F943048F0DC
:101DA0002EEC280F243028F022EC280F283008F0E1
:101DB0006EC02DEB30E03093030E2093020E2BE922
:101DC00031E03093050E2093040E2CE231E0309385
:101DD000070E2093060E943060F02EEC280F24306E
:101DE00040F022EC280F283008F4D5C1A0E0B0E084
:101DF000D4C1A8E6B0E0E8E6F0E02081943018F025
:101E00008E53883010F081E001C084E0822B8C93E7
:101E10008091F80D96EF980F943058F02EEC280F23
:101E2000243038F022EC280F283030F020E030E069
:101E300005C02BE630E002C02DE630E03093000E06
:101E40002093FF0D943010F49AEF0BC0823381F091
:101E5000833381F0843381F092EC980F983070F4E2
:101E600092EC980F81E001C0880F9A95EAF707C0BD
:101E700088E005C084E003C082E001C081E0809377
:101E8000010E8091080E9091090E0197F1F7809153
:101E9000060E9091070E892B21F180912D0E9091C5
:101EA0002E0EFDE08C3E9F07E1F0009711F00E949E
:101EB000A22D80910A0E8E7F80930A0E10922B0E17
:101EC00010922C0E8CEE9DE090932E0E80932D0E92
:101ED000E091FF0DF091000E90818091010E892B11
:101EE00080836DE081E00E94B3186FEF70E082E0C4
:101EF0009DE00E94941F80EF95E09093990C809351
:101F0000980C87EA9CE00E94392F4091B40C50E075
:101F10006091B30C70E087EA9CE00E94A82E87EAEB
:101F20009CE00E94CD2B9093B60C8093B50C8091D1
:101F3000B40C823088F087EA9CE00E94CD2B20E030
:101F400030E0382F8091B50C9091B60C822B932BFA
:101F50009093B60C8093B50C20E042E060E18BEBEF
:101F60009CE00E945C3262E08091D90C0E94B31820
:101F700080E398EFAFEFBFEF8093DD0C9093DE0C22
:101F8000A093DF0CB093E00C88ED9BE00E94392F0A
:101F90000E94291C90E0880F892F881F990B892B9C
:101FA00009F46DC06CEA71E08BE39BE00E94A5220E
:101FB0008BE39BE00E9490214BE050E060EA71E0EF
:101FC000CE0101960E94C44DCE010A960E94782C43
:101FD0008C87E9818E2FEE0F990BAA0BBB0BFC01AE
:101FE000E154F109E331F10550F58827EE58FF4F30
:101FF0008F4F0C94FC498A81813639F08B818E3663
:1020000011F087E01BC086E019C081E017C082E0B4
:1020100015C08B81823711F088E010C084E00EC0BB
:102020008B81823711F085E009C083E007C089E029
:1020300005C08AE003C08BE001C08CE08D87CE0133
:1020400005960E94782C8E8748E050E067E971E0A1
:10205000CE0101960E94C44DCE0101960E94782CBB
:102060008F87CE0104960E94782C888BCE0107962C
:102070000E94782C898BCE010C960E94152ECE01E1
:1020800001960E94B42E86E0FE013196A0EEBDE0DE
:1020900001900D928A95E1F70E9488196093950945
:1020A00070939609809397099093980961E383EE62
:1020B00098E003DC0E942F258EE697E09093160CA3
:1020C0008093150C8FE295E29093180C8093170C77
:1020D00081E08093F00BE091AE0AF091AF0A82E0CC
:1020E0008083E091AA0AF091AB0A1082E091AC0AD9
:1020F000F091AD0A80E180831092B60AE091B20AB5
:10210000F091B30A86E08083E091B00AF091B10AC1
:10211000808180618083E091B00AF091B10A808172
:1021200088608083E091B00AF091B10A8081806874
:102130008083E091B00AF091B10A80818F7D808325
:10214000BBD999E288E10FB6F894A8958093600016
:102150000FBE9093600064960FB6F894DEBF0FBE7A
:10216000CDBFDF91CF911F910F91FF90EF90DF9046
:10217000CF90BF90AF909F908F907F906F905F9027
:1021800008959092090D7DCDF8018381882309F48B
:1021900032CD81E035CDA8E6B0E0283008F42BCE72
:1021A000E0E0F0E02ACECF93DF93EC010E946D23B4
:1021B0008E859F858130910589F18230910581F16D
:1021C0008430910579F1089779F18C859D8581306E
:1021D000910561F18230910559F18430910551F1F9
:1021E000089751F18A859B858130910539F18230BC
:1021F000910531F18430910529F1089729F18885FD
:1022000099858130910511F18230910509F1843071
:10221000910501F1089701F180E01FC08AE21DC01D
:1022200087E31BC084E319C081E317C080E315C0B6
:1022300088E313C085E311C082E30FC083E20DC0C1
:1022400089E30BC086E309C083E307C084E405C0CB
:1022500083E403C082E401C081E4DF91CF9108955B
:10226000CF92DF92EF92FF920F931F93CF93DF9362
:10227000EC010E946D238E859F85089729F588853E
:102280009985089791F420E042E060E18BEB9CE0B7
:102290000E945C3264EF78E08BEB9CE00E94A42209
:1022A00064EF71E080E090E0FBD78A859B8508971A
:1022B00059F48BEB9CE00E94D73161E871E08BEB25
:1022C0009CE00E94A522FFCF2E853F8588859985B9
:1022D0002430310509F049C04C855D8548305105F1
:1022E00019F421E02093D6092A853B852830310551
:1022F00019F462E06093D6098830910511F41092C8
:10230000D6094430510519F461E06093D5092430B1
:10231000310519F462E06093D5098430910511F418
:102320001092D5094230510519F461E06093D40947
:102330002230310519F462E06093D40982309105AE
:1023400011F41092D4094130510519F441E0409341
:10235000D3092130310519F422E02093D3090197E4
:1023600009F052C01092D3094FC08E0101581F4F7F
:10237000892B51F48A859B85892B31F48C859D8529
:10238000892B11F4232B89F1F80180819181A2819D
:10239000B381892B8A2B8B2B31F4BAD7F801608358
:1023A000718382839383F801C080D180E280F380BF
:1023B000F4EFCF0EF1E0DF1EE11CF11CA9D76C1584
:1023C0007D058E059F05B0F4F801C080D180E280C4
:1023D000F380F8ECCF0ED11CE11CF11C99D7C61686
:1023E000D706E806F90630F40FC0F8011082118212
:1023F00012821382CE01DF91CF911F910F91FF9036
:10240000EF90DF90CF90CFCE80E0DF91CF911F9102
:102410000F91FF90EF90DF90CF900895FC01E45B67
:10242000FF4F808191811CDF813459F0823461F04B
:10243000843469F0833271F08A3279F080E090E080
:10244000089583E090E0089584E090E0089581E0AD
:1024500090E0089582E090E0089585E090E008958E
:102460008CEE9DE00E94A4226AE08CEE9DE00C942C
:10247000BF21CF92DF92EF92FF921F93CF93DF9312
:10248000EC01662351F11C85112359F18C819D814A
:10249000AE81BF81892B8A2B8B2B29F439D76C8392
:1024A0007D838E839F83CA84DB840D2C000CEE0811
:1024B000FF088C819D81AE81BF81C80ED91EEA1EA6
:1024C000FB1E26D7C616D706E806F90650F41C866A
:1024D0001C821D821E821F8205C01C821D821E82DC
:1024E0001F8210E0812FDF91CF911F91FF90EF901D
:1024F000DF90CF900895CF92DF92EF92FF92CF932B
:10250000DF93EC01662361F18C8581112DC08881F8
:102510009981AA81BB81892B8A2B8B2B29F4F8D630
:10252000688379838A839B83C884D9840D2C000CAB
:10253000EE08FF0888819981AA81BB81C80ED91E47
:10254000EA1EFB1EE5D6C616D706E806F90660F4B5
:1025500081E08C878D87188219821A821B8205C0C0
:10256000188219821A821B8280E0DF91CF91FF903E
:10257000EF90DF90CF900895CF93DF93EC01FB01B4
:10258000248135810E94AF20CE01DF91CF91089543
:10259000E091150CF091160C309709F019940895FC
:1025A0008F929F92AF92BF92CF92DF92EF92FF9263
:1025B000CF93DF93A091DB0C882311F03A2F01C059
:1025C00030E08091DC0C90E0880F991F8453954F88
:1025D000C090E10CD090E20CE090E30CF090E40CA1
:1025E00040E050E0BA01FC01C591D49128812A2332
:1025F00023130FC04A015B012FEF821A920AA20A2D
:10260000B20A4C155D056E057F0538F4B501A401CD
:10261000EACF342F252FCB0104C030E020E080E04A
:1026200090E0632F722FDF91CF91FF90EF90DF90BA
:10263000CF90BF90AF909F908F90089590E0FC0155
:102640003197E231F10508F04EC08827EB57FF4F74
:102650008F4F0C94FC49809180008F7703C080914C
:1026600080008F7D80938000089580918000877F17
:10267000F9CF84B58F7702C084B58F7D84BD08956E
:102680008091B0008F7703C08091B0008F7D8093E0
:10269000B0000895809190008F7707C080919000DE
:1026A0008F7D03C080919000877F80939000089574
:1026B0008091A0008F7707C08091A0008F7D03C01C
:1026C0008091A000877F8093A000089580912001D1
:1026D0008F7707C0809120018F7D03C080912001FA
:1026E000877F8093200108953FB7F8948091CF09A8
:1026F0009091D009A091D109B091D20926B5A89B9B
:1027000005C02F3F19F00196A11DB11D3FBFBA2F83
:10271000A92F982F8827820F911DA11DB11DBC01E3
:10272000CD0142E0660F771F881F991F4A95D1F7A8
:1027300008951F93CF93DF93182FD92FC62F40E111
:1027400050E060E270E089E19CE00E943C4DE12FA6
:10275000FD2FEC0FF11DEC0FF11D659174916F5F72
:102760007F4F4FE050E089E19CE00E94C44D20E1A2
:1027700030E040E050E061E070E089E19CE0DF9112
:10278000CF911F9105CF0F931F93CF938C01C62F2D
:1027900040E150E060E270E089E19CE00E943C4D45
:1027A000C730D9F1C830D9F1C11107C0F801808113
:1027B0004AE069E17CE090E013C0C13049F44AE0AE
:1027C00069E17CE0F801808191810E94CD4D35C0A6
:1027D000C23049F44AE069E17CE0F80180819181EE
:1027E0000E941B4E2AC0C33059F4F80160817181E8
:1027F000828193812AE049E15CE00E94D74D1DC0AF
:10280000C43079F4F80160817181828193812AE07A
:1028100049E15CE00E94FA4D10C022E003C023E0D1
:1028200001C021E042E0420FF801608171818281A4
:10283000938109E11CE00E947C4D20E130E040E002
:1028400050E061E070E089E19CE0CF911F910F9131
:102850009FCE40E150E060E270E089E19CE00E94A0
:102860003C4D80912B0C813039F48FE49EE690939F
:102870001A0C8093190C09C08FE496E6A6E68093A3
:10288000190C90931A0CA0931B0C20E130E040E04F
:1028900050E061E070E089E19CE07ACECF93DF9375
:1028A000CDB7DEB729970FB6F894DEBF0FBECDBF08
:1028B000FC012081203169F1BE016F5F7F4F0E94D2
:1028C000871CDE011196E0E088E08A0F8A1739F054
:1028D0009D91E927F0E0E55DFD4FE491F7CF898513
:1028E000E81315C08D818F3359F018F48F3189F0BA
:1028F00009C08F3519F08F3741F004C08BE00AC052
:102900008AE008C0807F803F11F48CE003C080E043
:1029100001C089E029960FB6F894DEBF0FBECDBF87
:10292000DF91CF910895CF92DF92EF92FF920F93B4
:102930001F93CF93DF93FC017196C491C1503196E0
:10294000C590D490E62EF12CF701EE0FFF1FEC0D91
:10295000FD1D859194919093F50B8093F40B00E00D
:1029600010E0D0E040E150E060E270E089E19CE0FE
:102970000E943C4D21E030E040E050E0011511059F
:1029800029F460E070E088E898E004C061E070E05D
:1029900081E099E0FDDDF801EE0DFF1DCE17DF07A8
:1029A00064F0EE0FFF1FEC0DFD1D6591749140E189
:1029B00050E089E19CE00E94C44D20E130E041E01C
:1029C00050E0B80189E19CE0E3DD0130110519F028
:1029D00001E010E0C7CFDF91CF911F910F91FF90E1
:1029E000EF90DF90CF9008950F931F93CF93DF93D5
:1029F000EC01FC0170961491113009F094C0109311
:102A0000F10B40E150E0BC0189E19CE00E94C44D23
:102A100020E130E040E050E060E070E089E19CE0DF
:102A2000B7DDFE01729685919491FC01649139960F
:102A3000A591B491611104C08C9180932B0C6DC051
:102A40008FEF860F823040F48D919C911197909377
:102A5000310C8093300C61C08DEF860F823070F4A2
:102A60000D911D912D913C91139700932C0C109377
:102A70002D0C20932E0C30932F0C4FC0693029F56C
:102A8000FD013396C591D491FD0185919491FC018E
:102A90008081FD013296A4919E0160E090E09A173A
:102AA00061F0F90145915491FA014491481301C034
:102AB000692F9F5F2E5F3F4FF2CF60932B0CCE01AB
:102AC000DF91CF911F910F9134CE6A30C9F4FD018F
:102AD0003196C591D491FD01A491888190E002C006
:102AE00095958795AA95E2F780FF03C010932B0C6C
:102AF00002C010922B0CDF91CF911F910F91A9CEA4
:102B00000D911D912D913C9113970093320C1093D0
:102B1000330C2093340C3093350CCD01DF91CF91E1
:102B20001F910F9130CE111134C061112EC0209130
:102B3000F60B3091F70B8217930739F18091FA0B5E
:102B40009091FB0B892B79F08091FC0B9091FD0B00
:102B5000892B61F08091FE0B9091FF0B892B79F40A
:102B600082E090E005C080E090E002C081E090E06B
:102B7000880F991FFC01E650F44F31832083D093D6
:102B8000F70BC093F60B1092140C6091140CCE014D
:102B900014C01230D1F46296FE0185919491009791
:102BA00011F0FC0119958091F00B882359F0609188
:102BB000140C8091F60B9091F70BDF91CF911F9140
:102BC0000F91B1CE81E08093F30BDF91CF911F91F4
:102BD0000F9108952F923F924F925F926F927F9242
:102BE0008F929F92AF92BF92CF92DF92EF92FF921D
:102BF0001F93CF93DF93CDB7DEB764970FB6F894EA
:102C0000DEBF0FBECDBF4296FC0185919491FC01C1
:102C10001491359685909590A590B490FC013196CD
:102C20004590559065907490643009F425C22FEF5B
:102C3000260F223008F04EC141E0613009F440E037
:102C4000193021F5FC01399625913491F90132961C
:102C50009491319625913491EFEFE90F90912B0CDF
:102C6000442339F0911103C0E0932B0C0AC091501A
:102C700006C09E1303C010922B0C03C09F5F90935D
:102C80002B0C60912B0CC90154DDFEC11A3051F49C
:102C900081E090912B0C913009F480E080932B0C13
:102CA000D8DDF2C1442319F02FEF3FEF02C021E03D
:102CB00030E0620173018091290C90912A0C289FC9
:102CC0001001299F300C389F300C11249101032CE6
:102CD000000C440B550BCA01B901298B3A8B4B8B65
:102CE0005C8B0E94355229893A894B895C89163060
:102CF00029F420E030E040E251E406C0173039F416
:102D000020E030E048EC52E40E94704A9DC0183048
:102D100029F420E030E04AE754E4F6CF111126C050
:102D200080912B0C820D81149104A104B10441F413
:102D3000C114D104E104F10419F480932B0C13C0E5
:102D400090E0A0E0B0E0C816D906EA06FB064CF019
:102D50002C013D0188159905AA05BB0514F4240131
:102D6000350140922B0C8BE29CE0B1C0113011F088
:102D7000123071F58091300C9091310C820D931DC1
:102D800081149104A104B10451F4C114D104E104EB
:102D9000F10429F49093310C8093300C16C0092E65
:102DA000000CAA0BBB0BC816D906EA06FB064CF0B2
:102DB0002C013D0188159905AA05BB0514F42401D1
:102DC00035014092300C5092310C80E39CE07FC082
:102DD000133011F01430C1F580912C0C90912D0C12
:102DE000A0912E0CB0912F0C820F931FA41FB51F22
:102DF00081149104A104B10471F4C114D104E1045B
:102E0000F10449F480932C0C90932D0CA0932E0C7C
:102E1000B0932F0C16C0C816D906EA06FB064CF074
:102E20006C017D0188159905AA05BB0514F475018F
:102E30006401C0922C0CD0922D0CE0922E0CF092DA
:102E40002F0C8CE29CE043C02091320C3091330C6B
:102E50004091340C5091350C0E94054A2B013C01E5
:102E600081149104A104B10441F4C114D104E1041A
:102E7000F10419F4CB01D30120C0C701B6010E94AF
:102E800035526B017C019B01AC01B201C3010E9470
:102E9000164B181684F0C501B4010E9435526B011F
:102EA0007C019B01AC01B201C3010E942F5287FD3E
:102EB00002C062017301C601D7018093320C909366
:102EC000330CA093340CB093350C82E39CE0612F5B
:102ED0005ADCDAC0633009F0D7C0FC013996A591FD
:102EE000B491193099F4FD013396259134914091B4
:102EF0002B0CF901E40FF11DE40FF11D65917491A4
:102F0000FB016491FD01A591B4912AC01A3021F50D
:102F1000FD01319665917491FD01A49120912B0CD6
:102F2000FB01B081222349F041E050E001C0440F91
:102F3000AA95EAF74B2B40830AC021E030E001C09C
:102F4000220FAA95EAF720952B23FB012083FB0192
:102F500060810E94E63290C0111104C060912B0C78
:102F60006C93F7CF1230A9F42091300C3091310CD2
:102F70002D933C93388B2F87FC013B968591949140
:102F8000009709F479C0BE01615F7F4F0E949230C3
:102F900073C01130A1F42091300C3091310C2D937D
:102FA0003C933E872D87FC013B9685919491009739
:102FB00009F462C042E0BE01635F7F4F3CC0143041
:102FC000E9F440912C0C50912D0C60912E0C7091D5
:102FD0002F0C4D935D936D937C93139749875A877C
:102FE0006B877C87FC013B9685919491009709F44F
:102FF00043C044E0BE01675F7F4F1DC01330F1F452
:1030000040912C0C50912D0C60912E0C70912F0C36
:103010004D935D936D937C9313974D835E836F8384
:103020007887FC013B9685919491009729F144E0C3
:10303000BE016B5F7F4F0E94BB321EC01530E0F0B7
:103040004091320C5091330C6091340C7091350CDE
:103050004D935D936D937C93139749835A836B8350
:103060007C83FC013B9685919491009729F0BE01E9
:103070006F5F7F4F0E9490301092F10B61E0809162
:10308000F60B9091F70BB0DC64960FB6F894DEBFA8
:103090000FBECDBFDF91CF911F91FF90EF90DF90DA
:1030A000CF90BF90AF909F908F907F906F905F90E8
:1030B0004F903F902F900895CF93DF93282F30E0CB
:1030C000F901EB51FE4F8491F901E45DF44FD49185
:1030D000F901EA51F54FC491CC2389F08111AEDAA0
:1030E000EC2FF0E0EE0FFF1FE453F54FA591B491E4
:1030F000EC91ED2381E090E021F480E002C080E0DB
:1031000090E0DF91CF9108951F93CF93DF93282F05
:1031100030E0F901EB51FE4F8491F901E45DF44F89
:10312000D491F901EA51F54FC491CC23C1F0162F87
:10313000811184DAEC2FF0E0EE0FFF1FEE54F54F13
:10314000A591B4918FB7F894111105C09C91ED2F02
:10315000E095E92302C0EC91ED2BEC938FBFDF915A
:10316000CF911F910895CF93DF9390E0FC01E45D30
:10317000F44F2491FC01EA51F54F8491882361F1C9
:1031800090E0880F991FFC01E553FE4FC591D49143
:10319000FC01EE54F54FA591B491611109C09FB7A0
:1031A000F8948881209582238883EC912E230BC08C
:1031B000623061F49FB7F8943881822F8095832321
:1031C0008883EC912E2B2C939FBF06C08FB7F89469
:1031D000E8812E2B28838FBFDF91CF910895EF9246
:1031E000FF920F931F93CF93DF93EC0161E084E094
:1031F000BADF00E010E061E084E086DF7E01E00EEF
:10320000F11ED7018C91B9E68B9FC0011124823049
:1032100091053CF0880F991F880F991F059701971A
:10322000F1F760E084E070DFD7011196EC91B9E628
:10323000EB9FF0011124E230F1053CF0EE0FFF1F8F
:10324000EE0FFF1F35973197F1F70E5F1F4F0E37C7
:10325000110589F6DF91CF911F910F91FF90EF90AB
:103260000895863308F0865390917B00282F2870AC
:10327000977F922B90937B008770806480937C0073
:1032800080917A00806480937A0080917A0086FD34
:10329000FCCF809178002091790090E0922B0895E6
:1032A0008F929F92AF92BF92CF92DF92EF92FF9256
:1032B0006B017C0119DA4B015C01C114D104E104FA
:1032C000F104E9F011DADC01CB0188199909AA09A6
:1032D000BB09883E9340A105B10578F321E0C21AED
:1032E000D108E108F10888EE880E83E0981EA11C41
:1032F000B11CC114D104E104F10421F7DECFFF9029
:10330000EF90DF90CF90BF90AF909F908F900895F7
:103310002FB7F8946091CB097091CC098091CD09B9
:103320009091CE092FBF0895CF92DF92EF92FF9236
:103330000F931F93CF93DF93CDB7DEB7C054D14027
:103340000FB6F894DEBF0FBECDBFE2DF0091DD0CFB
:103350001091DE0C2091DF0C3091E00C6B017C01B0
:10336000C01AD10AE20AF30A40EDC41647E0D406B7
:10337000E104F10418F48091E50CB1C06093DD0C18
:103380007093DE0C8093DF0C9093E00C1092D80CBD
:103390001092D70C1092D60C1092D50C1092D40C1F
:1033A00061E08091D90CB0DE6AEF70E080E090E0DF
:1033B00077DF61E08091D90CD6DE60E08091D90C96
:1033C000A3DE64E170E080E090E06ADFF89461E001
:1033D0008091D90C99DE8BE990E00197F1F762E0DA
:1033E0008091D90CC0DE83E290E00197F1F780E094
:1033F000D7D8672B682B692B21F41092E50C7894B1
:103400003BC081E0CDD8672B682B692BB1F38E01CF
:103410000F5F1F4F6E018FEBC81A8EEFD80A78012D
:1034200080E0BED8F701608371838283938381E05B
:10343000B7D8F7016483758386839783F8E0EF0E2E
:10344000F11CEC14FD0461F7789420E030E0F80101
:103450004081518162817381C480D580E680F7808C
:10346000411551056105710529F0C114D104E1042C
:10347000F10421F41092E50C80E031C0F90183E001
:10348000F595E7958A95E1F7EC52F34F8081880F27
:103490004C155D056E057F0508F4816080832F5F04
:1034A0003F4F085F1F4F2832310589F62091D80C15
:1034B00030E04091D40C8091D50C90E0840F911DA8
:1034C0004091D60C840F911D4091D70C840F911D13
:1034D00099272817390771F681E08093E50CC05CC5
:1034E000DE4F0FB6F894DEBF0FBECDBFDF91CF9198
:1034F0001F910F91FF90EF90DF90CF9008959091E2
:103500009D0A9111FCCF91E090939D0A90939C0AA3
:103510002FEF20939B0A10929A0A260F2093990A64
:103520009093980A9091980A880F892B8093980A13
:103530008091970A813061F41092970A8091980ADD
:103540008093BB008091BC0083FDF8CF85EC01C067
:1035500085EE8093BC0080919D0A8130E1F38091DB
:103560009A0A861710F460919A0AA7E7BAE027E54D
:103570003AE0F9018E2F821B861718F48D91819302
:10358000F9CF862F0895CF93DF93682F8BE39BE0CD
:10359000F6D6EC018BE39BE0C3D68C0F9D1FDF9129
:1035A000CF910895CF92DF92EF92FF920F931F93E6
:1035B000CF93DF9377FF1BC06A017B01EC016DE2C3
:1035C000DED68C0144275527BA014C195D096E09D6
:1035D0007F092AE0CE015CD6800F911FDF91CF9149
:1035E0001F910F91FF90EF90DF90CF9008952AE008
:1035F000DF91CF911F910F91FF90EF90DF90CF90CF
:1036000047C6FF920F931F93CF93DF93F82E0AE0E4
:1036100010E0C0E0D0E08F2D24DEC80FD91F01508C
:103620001109C9F7CE016AE070E00E94C749072E70
:10363000000C880B990B0E943552DF91CF911F919E
:103640000F91FF900895CF92DF92EF92FF920F9328
:103650001F93CF93DF93FC0101900020E9F731978E
:103660008F01081B190B19F420E030E04EC0EC016B
:10367000E12CF12C8EE99AE0B6D597FD44C0FE010D
:10368000EE0DFF1D2081022E000C330B82179307D5
:1036900099F1E114F10421F420E030E07901EACF5E
:1036A0009701A90141505109FE01E40FF51F608106
:1036B000062E000C770B86179707D1F4411551059C
:1036C00069F3DE01F701E41BF50BEC0FFD1F60E071
:1036D00070E0CD90D190CD1429F064177507F1F208
:1036E0009A01DFCF6F5F7F4F6417750790F3F5CFB7
:1036F00041155105A9F7D0CF97012F5F3F4F2017F4
:10370000310761F6B1CF2FEF3FEF81E0232B09F0B6
:1037100080E0DF91CF911F910F91FF90EF90DF90AC
:10372000CF900895CF93DF93CDB7DEB728970FB62C
:10373000F894DEBF0FBECDBF1D8290E49E8324E1CE
:103740002F8324E5288719829A8390E19B8390E553
:103750009C839091C20C691710F06FEF690F409134
:10376000C30C262F30E0FE01E20FF31F403121F49D
:10377000943011F4918101C09581682F690F6068C0
:103780008BEB9CE028960FB6F894DEBF0FBECDBF42
:10379000DF91CF910C94C73122E0F8C5AF92BF9270
:1037A000CF92DF92EF92FF920F931F93CF93DF930D
:1037B00000D000D0CDB7DEB76C015B017A01CE013D
:1037C0000196B9D4BE016F5F7F4FC60156D38C01FD
:1037D000CE0101967CD417FD28C0F5010190002090
:1037E000E9F73197EA19FB090E0F1F1FF6018481D3
:1037F000958108171907D8F4808191810097B9F055
:10380000FC01E00FF11F8081813419F4F70110826F
:103810000EC0803321F481E0F701808309C0813339
:1038200031F482E0F701808302C080E001C081E0D2
:1038300026960FB6F894DEBF0FBECDBFDF91CF91B5
:103840001F910F91FF90EF90DF90CF90BF90AF90BE
:10385000089581E08093560A88E68093550A109275
:10386000540A1092530A6FE088ED9BE00E944A2CA4
:1038700088ED9BE00E94B82D61E088E640DE109262
:10388000520A8093510A88ED9BE00C94CD2BCF9384
:10389000DF93AB01BC0122E08BE39BE077D5EC0129
:1038A0008BE39BE03DD58C0F9D1FDF91CF91089559
:1038B000EF92FF920F931F93CF93DF93EC01E62ECD
:1038C00008E010E0FF24F39461E08F2D8E2109F4CD
:1038D00060E0CE010E946533FF0C01501109A1F791
:1038E000F894E981FA819181888180958923818387
:1038F000E981FA81928188818095892382837894F5
:10390000DF91CF911F910F91FF90EF900895EF926B
:10391000FF920F931F93CF93DF937C018B01C9E03C
:10392000DDE08D819E810E949433B7018D819E815F
:103930000E94FB326EEB8D819E81BADF8D819E816C
:103940000E944A33F80180838D819E810E944A3310
:10395000F80181838D819E810E944A33F801828320
:103960008D819E810E944A33F80183838D819E81DF
:103970000E944A33F80184838D819E810E944A33DC
:10398000F80185838D819E810E944A33F8018683E8
:103990008D819E810E944A33F80187838D819E81AB
:1039A0000E944A33F80180878D819E81DF91CF91FB
:1039B0001F910F91FF90EF900C9494330895CF9244
:1039C000DF92EF92FF920F931F93CF93DF936C01DF
:1039D0007A018B01C0E0D0E0CE15DF0589F0D80177
:1039E0006D918D01D601ED91FC910190F081E02D5A
:1039F000C6011995892B11F47E0102C02196ECCFE6
:103A0000C701DF91CF911F910F91FF90EF90DF9051
:103A1000CF900895FC01A089B1898C91A689B789BE
:103A200082FD0FC09C91818D8F5F8F73228D8217D5
:103A300049F0218DDF01A20FB11D5D969C93818F0E
:103A400008958C910895FC01918D828D981761F0F5
:103A5000828DDF01A80FB11D5D968C91928D9F5FC5
:103A60009F73928F90E008958FEF9FEF0895FC0170
:103A7000918D828D981731F0828DE80FF11D858D23
:103A800090E008958FEF9FEF0895FC01918D228DB6
:103A9000892F90E0805C9F4F821B91098F7399273B
:103AA00008958EE99AE0F1DF21E0892B09F420E006
:103AB000822F08958BE39BE0E8DF21E0892B09F456
:103AC00020E0822F0895FC01848DDF01A80FB11D35
:103AD000A35ABF4F2C91848D90E001968F73992744
:103AE000848FA689B7892C93A089B1898C91806431
:103AF0008C93938D848D981306C00288F389E02DF2
:103B000080818F7D80830895EF92FF920F931F93A2
:103B1000CF93DF93EC0181E0888F9B8D8C8D981380
:103B200005C0E889F989808185FD23C0F62E0B8DBB
:103B300010E00F5F1F4F0F731127E02E8C8DE812DE
:103B40000BC00FB607FCFACFE889F989808185FFA1
:103B5000F5CFCE01B8DFF2CF8B8DFE01E80FF11D5E
:103B6000E35AFF4FF0820B8FEA89FB8980818062E4
:103B700007C0EE89FF896083E889F98980818064C4
:103B8000808381E090E0DF91CF911F910F91FF90B2
:103B9000EF900895CF93DF93EC01888D8823C1F0D7
:103BA000EA89FB89808185FD05C0A889B9898C9146
:103BB00086FD0EC00FB607FCF5CF808185FFF2CFE2
:103BC000A889B9898C9185FFEDCFCE017CDFE8CF44
:103BD000DF91CF91089580E090E0892B19F06ADFA2
:103BE000811120C080E090E0892B41F080E090E0DE
:103BF000892B21F00E940000811117C080E090E025
:103C0000892B19F04EDF811113C080E090E0892BE1
:103C1000A1F080E090E0892B81F00E9400008111EA
:103C20000AC008950E940000DDCF0E940000E6CF88
:103C30000E940000EACF0C94000008950895DC0172
:103C400026E0629FA00DB11D112490965C934E93C7
:103C50005F9721E091962C939197FC01E459FF4FD7
:103C6000208131960190F081E02D222331F03097B0
:103C700049F0611107C0DC0102C0309719F05C9671
:103C80008C91199408950E942F4D6115710579F05A
:103C9000FB0101900020E9F73197AF01461B570B5C
:103CA000DC01ED91FC910280F381E02D199480E01C
:103CB00090E00895CF93DF93EC018881998100977C
:103CC00011F00E94B34B198218821D821C821B8244
:103CD0001A82DF91CF9108956F927F928F929F9277
:103CE000AF92BF92CF92DF92EF92FF921F93CF934A
:103CF000DF931F92CDB7DEB73C01162FFC0186E0A3
:103D0000689FE00DF11D112411A2878D90A18130D3
:103D10009105E9F01CF4892B51F04BC082309105DC
:103D200099F1039709F045C040E050E031C04423C9
:103D300009F43FC041E050E0C30181DFE9DAF3015B
:103D4000E85AFF4F608371838283938332C0498333
:103D5000DFDAF301E85AFF4FC080D180E280F380C0
:103D60004B015C018C189D08AE08BF0872968081DB
:103D70009181A0E0B0E0498188159905AA05BB05AD
:103D800018F442E050E004C0411113C043E050E099
:103D9000612FC3010F90DF91CF911F91FF90EF90A2
:103DA000DF90CF90BF90AF909F908F907F906F905B
:103DB00046CF0F90DF91CF911F91FF90EF90DF9052
:103DC000CF90BF90AF909F908F907F906F9008950D
:103DD000862F72C9862F642F97C9862F642FC3C977
:103DE000CF92DF92EF92FF920F931F93CF93DF93C7
:103DF00001E010E002C0000F111F6A95E2F77C019C
:103E00002FE6E20EF11C6C01ECE7CE0ED11CF601A0
:103E1000408150E03197608170E0C7010E94A82E78
:103E2000C7010E94CD2BEC01F6018081823040F069
:103E3000C7010E94CD2B20E030E0382FC22BD32BBE
:103E4000C023D12381E090E0C017D10711F080E0BA
:103E500090E0DF91CF911F910F91FF90EF90DF9055
:103E6000CF900895FC0180819181009711F00C940E
:103E70009E4D60E070E0CB010895CF93DF93FC018D
:103E800024813581232B71F0FB01DC01CD91DC9184
:103E900060817181CE010E94624D009719F08C1BE8
:103EA0009D0B02C08FEF9FEFDF91CF9108950F938D
:103EB0001F93CF93DF938C01EB018617970771F166
:103EC000FC01808191810097B1F068817981611551
:103ED000710579F0428153812C813D81421753074E
:103EE00040F00E944C4D8C819D81F8019583848324
:103EF00013C00E94B34B88819981F801918380831C
:103F00008A819B81938382838C819D819583848325
:103F1000198218821B821A821D821C82C801DF91BD
:103F2000CF911F910F9108950F931F93CF93DF931C
:103F3000EC0188819981009729F02A813B8126171D
:103F4000370788F48B016F5F7F4F0E944B4C0097BF
:103F500061F0998388831B830A832C813D81232B05
:103F600011F4FC01108281E001C080E0DF91CF916B
:103F70001F910F910895EF92FF920F931F93CF938C
:103F8000DF93FC01248135816115710511F480E016
:103F900018C041155105A1F07B01EC018A01020F07
:103FA000131FB801C1DF882391F3288139818C81E7
:103FB0009D81B701820F931F0E944C4D1D830C837E
:103FC00081E0DF91CF911F910F91FF90EF900895C5
:103FD000CF93DF93EC016115710559F0FB0101905E
:103FE0000020E9F73197AF01461B570BC4DF811161
:103FF00002C0CE015FDECE01DF91CF910895CF9355
:10400000DF93EC01FB014481558160817181B3DF55
:10401000811102C0CE014EDECE01DF91CF91089515
:104020006115710549F0FB0101900020E9F7319716
:10403000AF01461B570B9FCF80E00895EF92FF9290
:104040000F931F93CF93DF93EC017B018A01BA0199
:104050006BDF811103C0CE012DDE07C01D830C83F1
:10406000B701888199810E944C4DCE01DF91CF919B
:104070001F910F91FF90EF900895CF93DF93EC0184
:104080006115710551F0FB0101900020E9F73197AE
:10409000AF01461B570BD2DF01C00CDECE01DF9112
:1040A000CF910895CF93DF93EC01FB01861797071B
:1040B00051F0608171816115710521F04481558154
:1040C000BDDF01C0F7DDCE01DF91CF910895FC0186
:1040D000808191810C94B34BEF92FF920F931F93C9
:1040E000CF93DF93CDB7DEB7A1970FB6F894DEBFBD
:1040F0000FBECDBF7C01CB01BA01F7011182108246
:10410000138212821582148242E0420F8E010F5FE9
:104110001F4F0E947C4DBC01C701AFDFA1960FB6B7
:10412000F894DEBF0FBECDBFDF91CF911F910F91ED
:10413000FF90EF900895FC01118210821382128289
:10414000158214826115710549F0FB010190002070
:10415000E9F73197AF01461B570B70CF0895BF9217
:10416000CF92DF92EF92FF920F931F93CF93DF9343
:104170007C016B018A01E9012417350720F4812FA6
:104180008901C42FD82F6BE778E0C701D4DFD601AF
:1041900014968D919C91159708171907C8F48C17E0
:1041A0009D0708F4EC01D601ED91FC911197EC0FFD
:1041B000FD1FB08010824D915C91BA01600F711F9C
:1041C000C7015BDFD601ED91FC91EC0FFD1FB082C2
:1041D000C701DF91CF911F910F91FF90EF90DF907A
:1041E000CF90BF9008950F931F93CF93DF93EC016F
:1041F0008FD8688779878A879B87E881F9810680CD
:10420000F781E02DCE01199597FF16C081D808855A
:1042100019852A853B85DC01CB01801B910BA20B04
:10422000B30B0C811D812E813F8180179107A2075E
:10423000B30718F38FEF9FEFDF91CF911F910F918D
:104240000895EF92FF920F931F93CF93DF931F92E6
:104250001F92CDB7DEB78C017B016BE778E06BDF97
:10426000C701C1DF97FD0AC089831A8241E050E08F
:10427000BE016F5F7F4FC8017EDEF2CFC8010F9095
:104280000F90DF91CF911F910F91FF90EF900895C4
:104290004F925F926F927F92EF92FF920F931F93D4
:1042A000CF93DF93CDB7DEB7A1970FB6F894DEBFFB
:1042B0000FBECDBF7C01FA01CB0119A2223008F458
:1042C0002AE08E010F5D1F4F422E512C612C712C64
:1042D000BF01A30192010E94DA49F901CA0101500C
:1042E00011096A3014F4605D01C0695CD8016C93F7
:1042F000232B242B252B61F7B801C701C6DCA1961F
:104300000FB6F894DEBF0FBECDBFDF91CF911F91E6
:104310000F91FF90EF907F906F905F904F90089576
:1043200069E778E0B2CC0F931F93CF93DF93EC0152
:10433000ACDC8C01CE01F4DF800F911FDF91CF91B7
:104340001F910F9108950F931F93CF93DF93EC016B
:10435000E881F981DB0114964D915C9115976D917F
:104360007C910280F381E02D19958C01CE01D8DF7C
:10437000800F911FDF91CF911F910F910895DC0164
:10438000ED91FC910190F081E02D19944F925F9294
:104390006F927F928F929F92AF92BF92CF92DF9255
:1043A000EF92FF92CF93DF93EC016A017B01B22E73
:1043B0009A01AB01C701B6010E941A4B882319F07C
:1043C00064E179E027C026013701E89477F82FEF00
:1043D0003FEF4FE75FE7C301B2010E941A4B811123
:1043E0000DC02FEF3FEF4FE75FE7C301B2010E941F
:1043F0002F5218161CF468E179E00CC02FEF3FEF44
:104400004FE75FE4C701B6010E94164B181694F4FB
:104410006CE179E0CE01DF91CF91FF90EF90DF90DA
:10442000CF90BF90AF909F908F907F906F905F9054
:104430004F902BCC2FEF3FEF4FE75FECC701B6015A
:104440000E942F5287FDE4CF20E030E0A901C70190
:10445000B6010E942F5287FF09C06DE2CE018FDFA7
:104460004C01F7FAF094F7F8F09402C0812C912CEB
:10447000A12C60E070E080E09FE3AB1441F020E00D
:1044800030E040E251E40E94704AA394F6CF9B01D1
:10449000AC01C701B6010E94054A2B013C010E94F4
:1044A000E74A6B017C010E9433529B01AC01C301BE
:1044B000B2010E94044A2B013C012AE0B701A60187
:1044C000CE01E6DE7C01E80CF91CBB2031F060E295
:1044D00079E0CE01DADBE80EF91EDB2CDD2021F1DC
:1044E00020E030E040E251E4C301B2010E94945266
:1044F0002B013C010E94E74A4B01A12CB12C2AE080
:10450000B501A401CE01C4DEE80EF91EC501B40157
:104510000E9433529B01AC01C301B2010E94044AC4
:104520002B013C01DA94DACFC701DF91CF91FF90E4
:10453000EF90DF90CF90BF90AF909F908F907F9043
:104540006F905F904F900895A0CBEF92FF920F93E2
:104550001F93CF93DF938C017B01C0E0D0E0F70184
:10456000EC0FFD1F6491662361F0D801ED91FC9181
:104570000190F081E02DC8011995892B11F0219649
:10458000EECFCE01DF91CF911F910F91FF90EF9071
:1045900008951F920F920FB60F9211240BB60F922F
:1045A0002F933F934F935F936F937F938F939F933B
:1045B000AF93BF93EF93FF938EE99AE084DAFF9174
:1045C000EF91BF91AF919F918F917F916F915F918B
:1045D0004F913F912F910F900BBE0F900FBE0F90F8
:1045E0001F9018951F920F920FB60F9211240BB6C1
:1045F0000F922F933F934F935F936F937F938F937C
:104600009F93AF93BF93EF93FF938EE99AE002DA03
:10461000FF91EF91BF91AF919F918F917F916F919A
:104620005F914F913F912F910F900BBE0F900FBE56
:104630000F901F9018951F920F920FB60F92112492
:104640000BB60F922F933F934F935F936F937F938C
:104650008F939F93AF93BF93EF93FF938BE39BE075
:1046600032DAFF91EF91BF91AF919F918F917F913E
:104670006F915F914F913F912F910F900BBE0F90D3
:104680000FBE0F901F9018951F920F920FB60F92AA
:1046900011240BB60F922F933F934F935F936F9319
:1046A0007F938F939F93AF93BF93EF93FF938BE38E
:1046B0009BE0B0D9FF91EF91BF91AF919F918F9106
:1046C0007F916F915F914F913F912F910F900BBE12
:1046D0000F900FBE0F901F9018952F923F924F9200
:1046E0005F926F927F928F929F92AF92BF92CF9282
:1046F000DF92EF92FF920F931F93CF93DF93CDB78B
:10470000DEB72A970FB6F894DEBF0FBECDBF9A87EB
:1047100089870E94881929853A85245A3F4F3A8310
:104720002983D9010D911D912D913C91AB01BC01C3
:10473000401B510B620B730BE985FA85E859FF4F5B
:1047400080819181A0E0B0E010E084179507A60772
:10475000B70708F05EC169847A84F6E66F0E711CB3
:10476000E984FA8422E6E20EF11CD3018C91181739
:10477000A0F4E985FA8580819181F701A081B1815A
:10478000A10FB11DFC012081318142E06C9189852E
:104790009A85F90119951F5FE8CF10E029843A84C2
:1047A000B7E62B0E311CE984FA84E4E6EE0EF11C28
:1047B000812C912C5401839429853A852E593F4FA1
:1047C0003C832B83F1018081181708F08DC0C12E26
:1047D000D12CA985BA858D919C91F701A081B181D9
:1047E000AC0DBD1DFC012081318141E06C918985BA
:1047F0009A85F9011995A985BA858D919C91F70142
:10480000A081B181AC0DBD1DFC012281338140E04E
:104810006C9189859A85F9011995D501C401012EFC
:1048200004C0880F991FAA1FBB1F0A94D2F7AC01BE
:104830009C012095309500E0F3018081A985BA851F
:10484000ED91FC91081770F5802F90E0AB81BC8151
:104850006D917C912C01DB01A40DB51D0480F581C7
:10486000E02D6C9189859A852F8338874D835E83EF
:104870001995440C551C2F8138854D815E81E98541
:10488000FA85E40DF51D892B29F480859185842B0B
:10489000952B04C0808591858223932391878087FF
:1048A0000F5FCACFD7018D919C91DC01AC0DBD1D6E
:1048B0000280F381E02D41E06C9189859A851995FC
:1048C000A985BA85ED91FC91D7018D919C91DC0170
:1048D000AC0DBD1D0190F081E02D40E06C9189850B
:1048E0009A8519951F5F6ECFE984FA84FCE1EF0E7B
:1048F000F11C89859A85885A9F4FF7012FEF3FEF6A
:1049000043815481452B21F4108232832183158207
:104910003696E817F907A1F7B12CC984DA8420E6A6
:10492000C20ED11C86E0A82EF3018081B81608F0D3
:1049300058C0912C09851A850B0D111D0B0D111DE9
:10494000085F1F4FD1018C91981608F048C0D8011C
:104950004D915C91092C02C0569547950A94E2F757
:1049600041705527B89EC0011124890D911DD601B3
:10497000ED91FC91E80FF91FA081E985FA8560E0CF
:10498000258D368D2817390721F4417089859A8540
:104990001CC06F5F36966A3099F7452BF1F0F7012E
:1049A00060E070E02081211112C0A69EF001A79E58
:1049B000F00D112429853A85E20FF31FA48F968FFD
:1049C000858F10A2178E41E0C90186D906C06F5F9E
:1049D0007F4F36966A30710529F79394B3CFB3941D
:1049E000A3CFE985FA85B19689859A85835A9F4F29
:1049F00010E02081211111E03696E817F907C9F778
:104A00000E948819A981BA816D937D938D939C939F
:104A10001397812F2A960FB6F894DEBF0FBECDBF35
:104A2000DF91CF911F910F91FF90EF90DF90CF908A
:104A3000BF90AF909F908F907F906F905F904F90BE
:104A40003F902F900895882311F06BE205C06623F4
:104A500011F06DE201C060E28BEB9CE090CC8091A4
:104A6000DF0D811134C08091D10D811130C0809152
:104A7000C30D81112CC08091B50D811128C080918A
:104A8000A70D811124C08091990D811120C08091C2
:104A90008B0D81111CC080917D0D811118C08091FA
:104AA0006F0D811114C08091610D811110C0809132
:104AB000530D81110CC08091450D811108C080916A
:104AC000370D811104C08091290D882321F0809138
:104AD0007B09882329F08BEB9CE00E94CF310BC02F
:104AE000E091BB0CF091BC0C0084F185E02D60E0FE
:104AF0008BEB9CE0199560E080E00E94921B809116
:104B0000DE0D882331F080917B09882331F06BE240
:104B10000BC08091D00D811102C060E205C0809170
:104B20007B098823D1F36DE28BEB9CE028DC64E702
:104B30008BEB9CE024DC609191097091920980914B
:104B40009309909194090E94E14A675F7F4F633116
:104B5000710520F460E38BEB9CE011DC409191093E
:104B60005091920960919309709194098BEB9CE0AC
:104B70000E94CC1B60E086E00E94921B62E279E01A
:104B80008BEB9CE0E1DC609191097091920980913E
:104B90009309909194090E94E14A675F7F4F6331C6
:104BA000710520F460E38BEB9CE0E9DB40918D091B
:104BB00050918E0960918F09709190098BEB9CE068
:104BC0000E94CC1B60E08AE00E94921B60E28BEBAB
:104BD0009CE0D5DB8091E30D8A3020F460E38BEB21
:104BE0009CE0CDDB4091E30D50E060E070E02AE016
:104BF0008BEB9CE04DDB80917B09882341F0809119
:104C0000A60D882311F061E203C06AE301C060E2EF
:104C10008BEB9CE0B4DB8091E40D8A3020F460E300
:104C20008BEB9CE0ACDB4091E40D50E060E070E089
:104C30002AE08BEB9CE02CDB61E080E00E94921B81
:104C40008091C20D882341F080917B09882311F067
:104C50006BE221C060E21FC08091B40D882331F067
:104C600080917B098823B1F36DE215C02091010A80
:104C70003091020A4091030A5091040A6091890917
:104C800070918A0980918B0990918C090E94164B32
:104C9000181604F76AE28BEB9CE071DB69E876E0BA
:104CA0008BEB9CE051DC6091D60980917F090E94DA
:104CB000440A60EE76E08BEB9CE046DC6091D5091F
:104CC00080917E090E94440A63EE76E08BEB9CE0C3
:104CD0003BDC6091D40980917D090E94440A66EE14
:104CE00076E08BEB9CE030DC6091D30980917C090D
:104CF0000C94440A62E67CE08BEB9CE026CC10929C
:104D0000F00B84E090E090937A09809379091092F7
:104D100078091092770910922709109228091092A9
:104D2000290910922A09109226098BEB9CE00E9417
:104D3000D73164EB7BE08BEB9CE007DC8FE399E001
:104D400090932A0E8093290E40E150E0BC018BEB3A
:104D500098E00C94534D1092F00B84E090E0909307
:104D60007A09809379091092780910927709109244
:104D70002709109228091092290910922A091092E5
:104D800026098BEB9CE00E94D73166E87BE08BEB39
:104D90009CE0DBDB8BE299E090932A0E8093290E56
:104DA00040E150E0BC018BEB98E00C94534DCF9365
:104DB000DF938BEB9CE00E94D73166EA7BE08BEBC4
:104DC0009CE0C3DB61E080E00E94921B0E945C0AD1
:104DD000882319F06CE97BE002C066E97BE08BEB8D
:104DE0009CE0B3DB68EE73E080E090E00E94501935
:104DF00063E579E08BE39BE096DAC0E2D3E0BE01A5
:104E00006D5C794F41E0CE010E94BB322196C033E8
:104E100083E0D807A1F76FE379E08BE39BE083DAC7
:104E2000C4E3D3E0BE01655F794F41E0CE010E944B
:104E3000BB322196C43483E0D807A1F76BE279E056
:104E40008BE39BE070DAC8E4D3E0BE016D517A4F8A
:104E500041E0CE010E94BB322196C83583E0D807DD
:104E6000A1F7DF91CF9108958F929F92BF92CF9239
:104E7000DF92EF92FF920F931F93CF93DF93CDB703
:104E8000DEB761970FB6F894DEBF0FBECDBF8BEBD8
:104E90009CE00E94CF3188E39CE00E94D310182F41
:104EA000882309F442C08091270990912809A09194
:104EB0002909B0912A09409195095091960960916C
:104EC000970970919809892B8A2B8B2B41F4409379
:104ED0002709509328096093290970932A09809122
:104EE000270990912809A0912909B0912A096C01FC
:104EF0007D0128E7C20ED11CE11CF11C4C155D059B
:104F00006E057F0538F020912609211103C010930A
:104F1000260901C010E0885A9D4FAF4FBF4F84173C
:104F20009507A607B70758F408C0109227091092F2
:104F300028091092290910922A09109226098091B5
:104F4000790990917A09039709F04AC1809177090C
:104F500090917809113411F4019703C0123429F4A7
:104F600001969093780980937709809177099091C1
:104F7000780997FF02C080E090E08630910514F038
:104F800085E090E0909378098093770960E000973E
:104F900089F580E00E94921B6091D00D8091DE0D1A
:104FA00052DD69E57CE08BEB9CE0CFDA4091910922
:104FB0005091920960919309709194098BEB9CE058
:104FC0000E94CC1B97DE61E080E00E94921B609102
:104FD000520D8091600D37DD60E57CE08BEB9CE04D
:104FE000B4DA40918D0950918E0960918F097091CA
:104FF0009009F1C08130910589F580E00E94921BF3
:1050000060918A0D8091980D1EDD67E47CE08BEB4A
:105010009CE09BDA40917309509174096091750985
:10502000709176098BEB9CE00E94CC1B63DE61E003
:1050300080E00E94921B60916E0D80917C0D03DDDB
:105040006EE37CE08BEB9CE080DA40916F0950913D
:1050500070096091710970917209BDC0823091052B
:10506000B1F580E00E94921B6091B40D8091C20D59
:10507000EADC64E37CE08BEB9CE067DA6091890911
:1050800070918A0980918B0990918C090E94E14A64
:10509000AB01770F660B770B8BEB9CE00E94D21A6B
:1050A00029DE61E080E00E94921B6091A60D80E005
:1050B000CADC6AE27CE08BEB9CE047DA6091850910
:1050C00070918609809187099091880953C0833037
:1050D000910501F580E00E94921B60E27CE08BEB81
:1050E0009CE033DA87E390E00E94011BAB01BC0136
:1050F0008BEB9CE00E94CC1BFDDD61E080E00E9418
:10510000921B66E17CE08BEB9CE01FDA40E050E014
:10511000BA0161C00497C9F580E00E94921B60E269
:105120008BEB9CE02CD96CE07CE08BEB9CE00DDA07
:1051300040916709509168096091690970916A0905
:105140008BEB9CE00E94CC1BD5DD61E080E00E94EF
:10515000921B6091440D80E076DC62E07CE08BEB9A
:105160009CE0F3D960918109709182098091830953
:10517000909184090E94E14AAB01770F660B770B8F
:105180008BEB9CE00E94D21A2AC080E00E94921B06
:1051900080918009882319F069EF7BE002C060EFFD
:1051A0007BE08BEB9CE0D1D9A5DD61E080E00E9443
:1051B000921B6091280D8091360D45DC66EE7BE0F8
:1051C0008BEB9CE0C2D940916B0950916C096091C6
:1051D0006D0970916E098BEB9CE00E94CC1B8ADDFF
:1051E0008091790990917A09019709F047C08091DF
:1051F000770990917809113411F4019703C01234A2
:1052000029F4019690937809809377098091770922
:10521000909178098F31910514F08EE190E097FF1D
:1052200002C080E090E0909378098093770960E075
:1052300080E00E94921BBE016F5F7F4F80917709D3
:10524000909178090E940D0CBE016F5F7F4F8BEB30
:105250009CE07AD961E080E00E94921B80917709FE
:1052600090917809BE016F5F7F4F01960E940D0CEF
:10527000BE016F5F7F4F8BEB9CE066D9809179090F
:1052800090917A09029709F03FC1143449F4809152
:10529000770990917809019690937809809377091E
:1052A00060E080E00E94921B6CED7BE08BEB9CE069
:1052B0004CD9809177099091780997FF02C080E0DE
:1052C00090E08530910514F084E090E090937809A7
:1052D00080937709F090E90DB090EA0DC090E80D49
:1052E000D090E70D8090E60D912C80E3881A88EF2E
:1052F000980A60E08BE00E94921B80917709909160
:105300007809892B61F4113411F4F39403C0123439
:1053100009F4FA9466ED7BE08BEB9CE016D9809162
:10532000770990917809019761F4113411F4B394DD
:1053300003C0123409F4BA9460ED7BE08BEB9CE07F
:1053400004D98091770990917809029761F411341A
:1053500011F4C39403C0123409F4CA946AEC7BE0DC
:105360008BEB9CE0F2D880917709909178090397B4
:1053700061F4113411F4D39403C0123409F4DA94B3
:1053800064EC7BE08BEB9CE0E0D880917709909116
:105390007809049781F4113421F42FEF821A920ACC
:1053A00005C0123419F481E0881A91086EEB7BE095
:1053B0008BEB9CE0CAD80F2D083108F007E12BE3F6
:1053C0002B1510F43BE3B32E8FE18C1518F42FE16D
:1053D000C22E04C0C11002C0CC24C3942CE02D15F1
:1053E00018F49CE0D92E04C0D11002C0DD24D3945F
:1053F000C40120E1821627E2920610F08FE097E2C6
:105400007C0180EDE81687E0F80620F480EDE82EB8
:1054100087E0F82EC701805D97408093E60DD0921B
:10542000E70DC092E80D0093E90DB092EA0D1092DD
:10543000EB0D61E080E00E94921B0A3028F460E3EB
:105440008BEB9CE00E94BF21402F50E060E070E0B9
:105450002AE08BEB9CE00E9448216AE38BEB9CE006
:105460000E94BF2129E02B1528F060E38BEB9CE024
:105470000E94BF214B2D50E060E070E02AE08BEBF2
:105480009CE00E94482160E28BEB9CE00E94BF21DF
:1054900089E08C1528F060E38BEB9CE00E94BF2133
:1054A0004C2D50E060E070E02AE08BEB9CE00E9425
:1054B00048216FE28BEB9CE00E94BF2129E02D1573
:1054C00028F060E38BEB9CE00E94BF214D2D50E063
:1054D00060E070E02AE08BEB9CE00E9448216FE2E4
:1054E0008BEB9CE00E94BF21A70160E070E02AE006
:1054F0008BEB9CE00E9448211A3231F486EE9DE04D
:1055000094D381E08093F00B8091790990917A098E
:10551000049709F07BC060E080E00E94921B8091BC
:10552000770990917809133411F4019603C014346B
:1055300029F40197909378098093770980917709EE
:105540009091780997FF02C080E090E0803191054A
:1055500014F08FE090E09093780980937709FC0134
:10556000E554F74F8081113411F48F5F03C012347A
:1055700009F48150803208F480E28F3708F08EE71A
:10558000808361E080E00E94921B6BEB78E08BEB04
:105590009CE00E94A422AEDBADDB80917B098823D6
:1055A00051F061E0809177090E94921B6FE58BEBCF
:1055B0009CE00E94BF211A3249F5809177099091B1
:1055C0007809FC01E454F74F108202962FEF8031E6
:1055D000910534F4FC01E554F74F20830196F7CF91
:1055E0001092CB086BEB78E08BE39BE00E94932159
:1055F000A091290EB0912A0E80E1EBEBF8E001902A
:105600000D928A95E1F781E08093F00B61960FB6D9
:10561000F894DEBF0FBECDBFDF91CF911F910F91E8
:10562000FF90EF90DF90CF90BF909F908F90089564
:1056300020912D0E30912E0E2817390771F490917C
:105640002C0E80912B0E981741F0E0912C0EF0E07B
:10565000EA56F14F808190E008958FEF9FEF089513
:1056600008951F93CF93DF93DC015C962D913C91BD
:105670005D972115310539F481E090E013969C93F4
:105680008E9312973DC05196ED91FC915297509692
:105690009C915097892F80951FB75E964C915E978D
:1056A00041FB772770F941FD6095F894408177239D
:1056B00011F0492B01C048234083E9012197F1F7FC
:1056C00048E0508160FF02C0592B01C0582350832D
:1056D000E9012197F1F76695415099F7772321F079
:1056E00090818923808303C08081982B90831FBF82
:1056F0005C968D919C915D970197F1F721E030E0E8
:10570000C901DF91CF911F91089520912D0E309105
:105710002E0E2817390769F480912B0E20912C0E3C
:1057200090E0805C9F4F821B910960E470E00C94D4
:10573000C74980E090E0089520912D0E30912E0E03
:1057400028173907B9F490912C0E80912B0E9817D9
:1057500089F0E0912C0EF0E0EA56F14F8081209123
:105760002C0E30E02F5F3F4F2F73332720932C0EEA
:1057700090E008958FEF9FEF08950895E091520A09
:105780008091510AE81730F4F0E0E95AF54F808132
:1057900090E008958FEF9FEF08959091520A8091C5
:1057A000510A981750F4E92FF0E0E95AF54F20819B
:1057B00030E09F5F9093520A02C02FEF3FEFC90184
:1057C00008958091510A90E02091520A821B91091C
:1057D000089585ED8093BC008091BC0084FDFCCFD2
:1057E00010929D0A08954091510E262F30E0240F0B
:1057F000311D21323105DCF420919D0A2430C9F499
:10580000FC0180E090E0861758F43091510E219110
:10581000DC01A15DB14FA30FB11D2C930196F3CF15
:105820008091510E680F6093510E80E0089581E0E1
:10583000089582E00895CF92DF92EF92FF920F9346
:105840001F93CF93DF937C01262F972F8A0180919E
:10585000560A882391F0C62FD72F6E01C40ED51E8D
:10586000CC15DD0569F06991D701ED91FC910190AE
:10587000F081E02DC7011995F3CF642F822FB3DF9C
:10588000C801DF91CF911F910F91FF90EF90DF90B2
:10589000CF900895CF93DF931F92CDB7DEB7698382
:1058A0002091560A2223D1F02091530A203240F051
:1058B00021E030E0FC013383228380E090E014C0DB
:1058C0008091540AE82FF0E0EA58F14F99819083D3
:1058D0008F5F8093540A8093530A04C061E0CE0125
:1058E000019681DF81E090E00F90DF91CF910895E4
:1058F000FC01908190539A3008F090E081818053B0
:105900002AE0929F800D11240895CF92DF92EF92AA
:10591000FF92CF93DF93EC01CB01BA01605873443F
:105920008D4698432CE3C22ED12CE12CF12CA701FB
:1059300096010E94DA496D83CA01B901A701960157
:105940000E94DA496C83CA01B90128E130E040E0E5
:1059500050E00E94DA496B83188263E97EEF888108
:10596000482F437091E009F090E0492F50E0FA0190
:10597000E359FE4F2E173F0740F0FB01E41BF50BE8
:105980002E0F3F1F8F5F8883EACF81E08983898153
:10599000E82FF0E0E659F34FE491992319F08230B3
:1059A00009F4EF5FF0E02E173F0720F02E1B3F0BAE
:1059B0008F5FECCF2F5F2A83DF91CF91FF90EF9025
:1059C000DF90CF9008950F931F93CF93DF938C01B7
:1059D000EB018885882331F062E776E0C8010E94F8
:1059E0009B2028C0198218828CEE9DE08EDE2881D3
:1059F0003981892B81F4203A8FE0380764F46DE017
:105A000070E080E090E00E945019888199810196B1
:105A100099838883E9CF293D3E4014F081E088874F
:105A20008CEE9DE072DE892B29F06CEE7DE0C801E2
:105A30000E942121C801DF91CF911F910F910895FC
:105A40008CEE9DE00C94CC1B1F920F920FB60F9220
:105A500011240BB60F922F933F934F935F936F9345
:105A60007F938F939F93AF93BF93EF93FF93E091B7
:105A70002D0EF0912E0E309709F451C0968DA6850B
:105A8000B785858591FF04C09C91892329F447C07F
:105A90009C91892309F043C0A389B4899C9185898D
:105AA000809589238C93868997890197F1F7608D7A
:105AB000718DA685B785558538E020E0CB0101972B
:105AC000F1F7822F90E095958795282F4C914523EB
:105AD00009F02068315091F7868D81FD20958091E5
