:100000008EC60000BDC60000BBC60000B9C6000019
:10001000B7C60000B5C60000B3C60000B1C60000F8
:10002000AFC600000C94B73C0C94B73C0C94B73CA2
:10003000A7C60000A5C60000A3C60000A1C6000018
:100040009FC600009DC600009BC6000099C6000028
:1000500097C6000095C6000093C600000C948C243F
:100060008FC600000C945E330C94353389C60000B3
:1000700087C6000085C6000083C6000081C6000058
:100080007FC600007DC600007BC6000079C6000068
:1000900077C6000075C6000073C600000C94F13EE0
:1000A0006FC600006DC600006BC6000069C6000088
:1000B00067C6000065C6000063C6000061C6000098
:1000C0005FC600005DC600005BC600000C940C33E8
:1000D0000C94E33255C6000053C6000051C6000020
:1000E0004FC60000B223B523A423A823AE23EC23DC
:1000F000B923BD23C323C723CB23D123D523D9239E
:10010000EC23DF23E323E723AA47C047C047BE47CA
:10011000C047A847C047C047C0479C47C047C047E3
:10012000B147BC47BA47C047C047C047B8476174EA
:100130002B636D6764613D2264656C20616C6C2289
:100140000A0D0041542B434D47523D0041542B436F
:100150004D47463D310D00534D53004154480D0A63
:10016000003B0D0A004154440030383A32363A32EE
:10017000340046656220203420323031370052543A
:1001800043204C4F535420504F57455221000000FC
:100190002100240027002A002D0030003300010137
:1001A0000000040107010A0100000A0B02090C0DFE
:1001B0000E0807030401000000000000000000001A
:1001C000000000000000000000000000000000002F
:1001D00000000000121110000000000000000000EC
:1001E0000000000000000000000000000000205996
:1001F000454152004D4F4E54480020204441590083
:1002000020204D494E0020484F5552005345542060
:10021000434C4F434B004C4556454C5B434D5D3A78
:1002200000204E4947485420200020444159202AAC
:10023000202000504F5745525B255D3A0054454DF4
:1002400050325B435D3A0020454320585B2D5D3AB8
:100250000020504820585B2D5D3A0045585420201E
:100260005B255D3A004C494748545B2D5D3A00459B
:10027000435B532F4D5D3A005048205B50485D3A38
:100280000048554D495B255D3A0054454D505B4350
:100290005D3A002020202020202020001F1C1F1E4F
:1002A0001F1E1F1F1E1F1E1F0344495341424C4562
:1002B00020524144494F0000024F4E2100000000EF
:1002C0000000000000000000014F46462100000031
:1002D0000000000000000000004155544F210000C4
:1002E0000000000000000000D802C802B802A80206
:1002F000750A04E802760A04E802770A04E802783C
:100300000A04E802050000000000000000790A80ED
:10031000000200000000000000007D0A78000500D7
:10032000000000000000007F0A7C000200000000C6
:1003300000000000830A7400050E000000000000A9
:1003400000850A680002FF03000000000000890A1F
:100350006000050E000000000000008B0A6400022F
:10036000FF030000000000008F0A5C00020F27005E
:1003700000E80300000006D80000030000000000B1
:100380000000910ADC000002000000000000009262
:100390000AC400050000000038FFFFFF930AA40014
:1003A000050000000038FFFFFF970AA800050000C5
:1003B0000000000000009B0A6C0005000000000027
:1003C0000000009F0A7000050E0000000000000001
:1003D000A30A5400050E00000000000000A70A5800
:1003E00000066600000000000000AB0A5000066630
:1003F00000000000000000AF0A4C0006630000008F
:100400009DFFFFFFB30A980006630000009DFFFFF9
:10041000FFB70A9400050000000000000000BB0ABE
:10042000A000050000000000000000BF0A9C0006BC
:10043000630000009DFFFFFFC30A48000663000041
:10044000009DFFFFFFC70A440002000000000000FB
:100450000000CB0A4000020000000000000000CDB8
:100460000A3C00020000000000000000CF0A380033
:10047000020000000000000000D10A340009000062
:10048000000000000000F002000006630000009D74
:10049000FFFFFFD30A900006630000009DFFFFFFEF
:1004A000D70A8C0006630000009DFFFFFFDB0A2CCB
:1004B0000006630000009DFFFFFFDF0A280009001F
:1004C00000000000000000F50200000663000000CC
:1004D00000000000E30A880006630000000000003E
:1004E00000E70A8400066300000000000000EB0A39
:1004F0002000066300000000000000EF0A1C000955
:100500000000000000000000FA020000023B0000B2
:100510000000000000F30A140002170000000000B1
:100520000000F50A1000023B00000000000000F788
:100530000A0C00021700000000000000F90A080081
:10054000090000000000000000FF020400454320F5
:10055000484947482059205B532F4D5D0001000456
:10056000034543204849474820582020205B2D5D03
:1005700000010011034543204C4F57202059205BB8
:10058000532F4D5D0001001E034543204C4F572063
:1005900020582020205B2D5D0001002B03504820B7
:1005A00048494748205920205B50485D00010038E9
:1005B000035048204849474820582020205B2D5DA3
:1005C00000010045035048204C4F5720205920205F
:1005D0005B50485D00010052035048204C4F5720AB
:1005E00020582020205B2D5D0001005F0347534D04
:1005F00020434F44452D3E00000000000001006CE8
:100600000347534D204D4F44452D3E000000000050
:10061000000100790345585445524E414C000000FA
:100620000000000000010086034C4556454C204860
:10063000494748205B434D5D00010093034C4556FC
:10064000454C204C4F5720205B434D5D000100A0DE
:1006500003454320484947482020205B532F4D5DE8
:10066000000100AD034543204C4F57202020205B64
:10067000532F4D5D000100BA0350482048494748B8
:10068000202020205B50485D000100C70350482017
:100690004C4F5720202020205B50485D000100D4A3
:1006A000034C494748204C4F570000000000000011
:1006B000000100E1034C49474820484947480000F1
:1006C00000000000000100EE0354454D50204C4F47
:1006D0005720204E205B435D000100FB0354454D35
:1006E000502048494748204E205B435D00010008E8
:1006F0000448554D49204C4F57202020205B255D54
:10070000000100150448554D49204849474820201C
:10071000205B255D000100220454454D50204C4FC4
:1007200057202020205B435D0001002F0454454DDD
:100730005020484947482020205B435D0001003C91
:10074000044359434C4552204F464620205B535D9D
:1007500000010049044359434C4552204F4646206E
:10076000205B4D5D00010056044359434C45522027
:100770004F4E2020205B535D00010063044359432A
:100780004C4552204F4E2020205B4D5D00010070F3
:10079000044359434C455220434F4E54524F4C0052
:1007A0000001007D0446414E204F4646204E202049
:1007B0005B435D000001008A0446414E204F4E20FD
:1007C000204E20205B435D00000100970446414E0F
:1007D000204F4646202020205B435D00000100A4FE
:1007E0000446414E204F4E20202020205B435D00D8
:1007F000000100B10446414E20434F4E54524F4C2D
:1008000000000000000100BE04484541544552204C
:100810004F46204E205B435D000100CB044845411C
:10082000544552204F4E204E205B435D000100D8BE
:1008300004484541544552204F464620205B435DC5
:10084000000100E504484541544552204F4E202008
:10085000205B435D000100F20448454154455220AD
:10086000434F4E54524F4C00000100FF044C494787
:100870004854204F46462020205B4D5D0001000C6F
:10088000054C49474854204F46462020205B485D90
:1008900000010019054C49474854204F4E202020A4
:1008A000205B4D5D00010026054C49474854204F10
:1008B0004E202020205B485D00010033054C494755
:1008C000485420434F4E54524F4C0000000100400A
:1008D000058905750561054D05D905C505B1059D58
:1008E000050106ED052D0719070507F106DD06C907
:1008F00006B506A1068D067906650651063D062950
:1009000006150691077D07690755074107F507E1B9
:1009100007CD07B907A5075908450831081D08097B
:1009200008BD08A908950881086D0852455345542B
:1009300021000000000000000000000200C144454A
:10094000432D3E00000000000000000000000000F9
:1009500004D10850482D3E000000000000000000B7
:100960000000000004D90847534D2D3E0000000050
:10097000000000000000000002E10853455420433D
:100980004C4F434B2D3E00000000000200C2364198
:100990004C41524D205345542D3E000000000000B4
:1009A0000FE5084359434C45522D3E00000000001E
:1009B0000000000005030946414E2D3E00000000E6
:1009C0000000000000000000050D094845415445A5
:1009D000522D3E0000000000000000000517094CE9
:1009E000494748542D3E0000000000000000000070
:1009F000052109DF09CB09B709A3098F097B09671D
:100A00000953093F092B0900002200250028002B6B
:100A1000002E003100340002010000050108010B26
:100A200001000020002300260029002C002F0032A6
:100A30000000010000030106010901050505050785
:100A40000508080808020202020A0A080804040449
:100A50000401010101010101010303030303030375
:100A600003040707070C0C0C0C0C0C0C0C02020204
:100A70000206060606060606060B0B0B0B0B0B0BF7
:100A80000B01021020200808102040102040800296
:100A900001020108040201010204081020408080C4
:100AA0004020100804020180040201804020100848
:100AB0000402010804020101020408102040800120
:100AC00002040810204080526F6F74000000000084
:100AD00000000000000000000AF309005EBCE261B3
:100AE0003FDD83C29C7E20A3FD1F419DC3217FFC6F
:100AF000A2401E5F01E3BD3E6082DC237D9FC142B8
:100B00001CFEA0E1BF5D0380DE3C62BEE0025CDF54
:100B100081633D7C22C09E1D43A1FF4618FAA42795
:100B2000799BC584DA3866E5BB5907DB856739BA36
:100B3000E406581947A5FB7826C49A653BD9870473
:100B40005AB8E6A7F91B45C6987A24F8A6441A991C
:100B5000C7257B3A6486D85B05E7B98CD2306EED49
:100B6000B3510F4E10F2AC2F7193CD114FADF37006
:100B70002ECC92D38D6F31B2EC0E50AFF1134DCE1F
:100B800090722C6D33D18F0C52B0EE326C8ED053EC
:100B90000DEFB1F0AE4C1291CF2D73CA947628AB05
:100BA000F517490856B4EA6937D58B5709EBB536BE
:100BB000688AD495CB2977F4AA4816E9B7550B88EB
:100BC000D6346A2B7597C94A14F6A8742AC89615A4
:100BD0004BA9F7B6E80A54D7896B355245534554AB
:100BE000204F4B004E414E494E495459494E46CD37
:100BF000CCCC3D0AD7233C17B7D13877CC2B3295D4
:100C000095E6241FB14F0A000020410000C84200B1
:100C1000401C4620BCBE4CCA1B0E5AAEC59D74007B
:100C2000407A10F35A00A0724E18090010A5D4E8BB
:100C30000000E87648170000E40B54020000CA9A4E
:100C40003B000000E1F505000080969800000040A0
:100C5000420F000000A086010000001027000000E5
:100C600000E803000000006400000000000A00002B
:100C70000000000100000000002C76D888DC674FDF
:100C80000823DFC1DFAE59E1B1B796E5E3E453C60F
:100C90003AE651997696E8E6C28426EB898C9B6207
:100CA000ED407C6FFCEFBC9C9F40F2BAA56FA5F4B1
:100CB00090055A2AF75C936B6CF9676DC11BFCE0D9
:100CC000E40D47FEF520E6B500D0ED902E0300942C
:100CD0003577050080841E080000204E0A000000C1
:100CE000C80C333333330F986E12831141EF8D21CB
:100CF00014893BE65516CFFEE6DB18D1844B381B32
:100D0000F77C1D901DA4BBE424203284725E2281F6
:100D100000C9F124ECA1E53D27006F485D4811248E
:100D20001FBECFEFD1E2DEBFCDBF00E00CBF19E0A8
:100D3000A0E0B2E0E8E7FAEA00E00BBF02C00790EB
:100D40000D92AA35B107D9F72EE0AAE5B9E001C0A6
:100D50001D92A33CB207E1F716E0CEE8D6E000E032
:100D600006C021970109802FFE010E94AC4BCD38AF
:100D7000D10780E00807A9F70E941B450C942A556B
:100D80003FC94F925F926F927F928F929F92AF92E4
:100D9000BF92CF92DF92EF92FF920F931F93CF9368
:100DA000DF93CDB7DEB7E0970FB6F894DEBF0FBE86
:100DB000CDBFA895CE0101960E94463E86E0FE0179
:100DC0003196A4E8BEE001900D928A95E1F70E9469
:100DD0008024609388097093890980938A0990938D
:100DE0008B0900918009109181092091820930912D
:100DF00083094801590148EE840E43E0941EA11C6A
:100E0000B11C86169706A806B90638F06017710758
:100E10008207930710F00C94A00F80917F098F5FD9
:100E200080937F096CE30E943B4B911102C00E94AA
:100E3000511A80917F096AE00E943B4B911108C1D1
:100E40008091B20D9091B30D0E94FB4340E06CEC99
:100E50008091B20D9091B30D0E9450434091AD0D21
:100E600064E48091B20D9091B30D0E945043809143
:100E7000AF0D8823E9F08091AE0D8A3049F08B30B8
:100E800061F0893079F46EE570E080E090E00EC0AA
:100E90006CEB70E080E090E009C067E771E080E013
:100EA00090E004C06EEE72E080E090E00E94482482
:100EB000E091B20DF091B30D138615861486DF0113
:100EC0001B96CF0103961E92A817B907E1F7BE0142
:100ED0006D5E7F4FCF010E943144882329F067E087
:100EE000CE0143960E944343BE016F5F7F4FCE0108
:100EF00043960E94BC2768E0CE0101960E944343BE
:100F0000998589138FC039812A81832F90E0922B94
:100F10002B892232F1F1A8F5203109F090C0188513
:100F2000BC0175956795072E000C880B990B0E94E4
:100F3000E55320E030E040E85EE30E94B44B6B01F3
:100F40007C01812F90E02F81821B9109BC01990FB8
:100F5000880B990B0E94E5534B015C01612F70E0F7
:100F600080E090E00E94E3539B01AC01C501B40115
:100F70000E94204C9B01AC01C701B6010E94B54BF9
:100F80003EC0283231F02B3309F059C030FD51C03A
:100F90001CC02D812F33B1F1A0F42F3109F04FC0C7
:100FA000BC0113E0759567951A95E1F7072E000CC3
:100FB000880B990B0E94E55320E030E040E05FE3AE
:100FC0001CC02F3569F02F37D1F5BC01990F880B64
:100FD000990B0E94E55320E030E040E85DE30DC04E
:100FE000BC0175956795072E000C880B990B0E9424
:100FF000E55320E030E040E05EE30E9444546B01A2
:101000007C011DC0BC017595679575956795072E88
:10101000000C880B990B0E94E55320E030E040E87B
:101020005EE3EBCFC12CD12CAEEFEA2EA2ECFA2E70
:1010300006C0C12CD12CF0ECEF2EFFE7FF2EC092A2
:10104000A409D092A509E092A609F092A709F9C1D6
:101050000E94B52C882309F441C080917E0D8B300D
:1010600029F0E0F18551823058F038C060917A0D56
:1010700070E080E090E00E94E3536B017C0134C09B
:1010800010917A0D612F6F7770E080E090E00E9400
:10109000E55320E030E040E853E40E9444546B0103
:1010A0007C0180917B0D682F70E080E090E00E94D1
:1010B000E5539B01AC01C701B6010E94B54B2DEC75
:1010C0003CEC4CEC5DE30E9444546B017C0117FF47
:1010D0000BC0F7FAF094F7F8F09406C0C12CD12CAD
:1010E000E0ECEE2EEFE7FE2E0E94B52C882309F4EB
:1010F00045C080917E0D8B3041F188F18551823061
:1011000070F56091780D70E080E090E00E94E3530C
:1011100020E030E040E853E40E9444544B015C017D
:101120008091790D682F70E080E090E00E94E55397
:101130009B01AC01C501B4010E94B54B2DEC3CEC08
:101140004CEC5DE30E94445407C06091780D70E060
:1011500080E090E00E94E3534B015C0106C0812CCB
:10116000912C70ECA72E7FE7B72EA7019601C7013F
:10117000B6010E94CA4C882379F016C0A7019601D7
:10118000C701B6010E94CA4C81111EC0812C912C4E
:1011900060ECA62E6FE7B62EC092C909D092CA099C
:1011A000E092CB09F092CC09A5019401C501B401EC
:1011B0000E94CA4C811108C08092C5099092C6094C
:1011C000A092C709B092C80986E390E00E94AA40A5
:1011D00024E13EEA43E251E40E94204C6093C109BD
:1011E0007093C2098093C3099093C40988E390E087
:1011F0000E94AA4024E13EEA43E251E40E94204CCE
:101200006093A8097093A9098093AA099093AB09E8
:1012100089E390E00E94AA4024E13EEA43E251E4DF
:101220000E94204C6093A0097093A1098093A209A9
:101230009093A30987E390E00E94AA409B01AC0130
:101240000091890A10918A0AC090850AD090860A76
:10125000E090870AF090880AB801012E000C880BF4
:10126000990B2DA73EA74FA758AB0E94E5532DA57C
:101270003EA54FA558A90E94B44B4B015C0180913B
:101280008F0A9091900A801B910BBC01990F880BDB
:10129000990B0E94E5532B013C0120918B0A309160
:1012A0008C0A40918D0A50918E0AC701B6010E94A6
:1012B000B44B9B01AC01C301B2010E94204C9B01C5
:1012C000AC01C501B4010E94204CA70196010E9407
:1012D000B54B6093B0097093B1098093B2099093B4
:1012E000B30981E00E947B276DA37EA38FA398A7FB
:1012F00080E00E947B2769A77AA78BA79CA7809193
:101300007F0A9091800AA091810AB091820A89A3F4
:101310009AA3ABA3BCA36091830A7091840A072EA1
:10132000000C880B990B0E94E5534B015C0129A12D
:101330003AA14BA15CA16091790A70917A0A8091DF
:101340007B0A90917C0A0E94B44B6B017C016091F6
:101350007D0A70917E0A072E000C880B990B0E9463
:10136000E5539B01AC0160E070E080E89FE30E94E0
:10137000204C2B013C01A501940160E070E080E865
:101380009FE30E94204C9B01AC01C301B2010E946B
:10139000B44B9B01AC01C701B6010E94204C6B010C
:1013A0007C0169A57AA58BA59CA52DA13EA14FA185
:1013B00058A5620F731F841F951F22E030E040E0A4
:1013C00050E00E94904BCA01B9016E5F7F4F8F4F72
:1013D0009F4F0E94E5539B01AC01C701B6010E94DB
:1013E000204C2B013C01A5019401C701B6010E94CC
:1013F000204C9B01AC0169A17AA18BA19CA10E9408
:10140000B44B9B01AC01C301B2010E94B54B609388
:10141000AC097093AD098093AE099093AF0980E455
:1014200090E00E94AA4024E13EEA43E251E40E9497
:10143000204C60939B0970939C0980939D09909325
:101440009E0980919F098823E1F080917B0990910A
:101450007C09A0917D09B0917E090196A11DB11D65
:1014600080937B0990937C09A0937D09B0937E09BA
:1014700010927709109278091092790910927A09DE
:101480001BC08091770990917809A0917909B0915A
:101490007A090196A11DB11D80937709909378096F
:1014A000A0937909B0937A0910927B0910927C0974
:1014B00010927D0910927E0900917F09802F6AE0C9
:1014C0000E943B4B11E0911110E08091780A83302B
:1014D000D9F08091C009111104C090917609981734
:1014E00099F0882319F08BE695E002C08EEE94E027
:1014F0000E94722C8091C0098093760962E370E0AB
:1015000080E090E00E9448248091770A8330D9F0EF
:101510008091BF09111104C090917509981799F035
:10152000882319F081E794E002C084EF93E00E94E1
:10153000722C8091BF098093750962E370E080E0AE
:1015400090E00E9448248091760A8330D9F08091FF
:10155000BE09111104C090917409981799F088235D
:1015600019F087E793E002C08AEF92E00E94722CA4
:101570008091BE098093740962E370E080E090E09E
:101580000E9448248091750A8330D9F08091BD096A
:10159000111104C090917309981799F0882319F0DC
:1015A0008DE792E002C080E092E00E94722C809170
:1015B000BD098093730962E370E080E090E00E94CF
:1015C000482440916F0950917009609171097091A0
:1015D00072094F5F5F4F6F4F7F4F40936F0950937A
:1015E000700960937109709372098091CD09882305
:1015F00019F01092CD0903C081E08093CD090E94BB
:10160000802460938009709381098093820990936C
:101610008309802F6CE30E943B4B993009F090C402
:101620008091910A882309F48BC48091A00D909138
:10163000A10DA091A20DB091A30D892B8A2B8B2B0C
:1016400009F07EC400919A0D10919B0D6CE471E03D
:1016500080E99EE00E94BF3262E776E0CE014396C9
:101660000E94F925B801CE0101960E94773CBE0187
:101670006D5E7F4FCE0101960E94E1247C01CE0178
:1016800001960E94C525CE0143960E94C525EF20F4
:10169000E09409F046C063E471E080E99EE00E94B6
:1016A000BF322AE045E150E060E070E080E99EE072
:1016B0000E9462316AEA76E080E99EE00E94BE32D2
:1016C000B801CE0101960E94773C0E5F1F4FBE010C
:1016D0006F5F7F4FC8010E947325CE0101960E9463
:1016E000C52565E776E0CE0101960E94F925BE0189
:1016F0006F5F7F4FC8010E94E1247C01CE010196FB
:101700000E94C525EF20E09461F01C8E1B8E1E8E7A
:101710001D8E18A21F8EB801CE014B960E94B025D7
:1017200006C06CE978E0CE014B960E94F9258F8DBA
:1017300098A1892B09F400C4EB8DFC8D808188234E
:1017400009F4FAC300919A0D10919B0D6EE271E0BD
:1017500080E99EE00E94BF32B801CE0101960E944E
:10176000773CBE016F5F7F4FC80102960E947325D0
:10177000CE0101960E94C52561EC78E0CE0101966C
:101780000E94F925CE0101960E94C5258091910AFB
:10179000882309F4D1C3BE01655E7F4F8FED9BE0C6
:1017A0000E94BD316BE776E0CE0101960E94F925DB
:1017B000BE016F5F7F4FCE014B960E94E1248C01EA
:1017C000CE0101960E94C525E0919E0DF0919F0DDE
:1017D000808191811C8A1B8A1E8A1D8A188E1F8A0D
:1017E0004AE0BE016F5F7F4F0E947D4FBE016F5F79
:1017F0007F4FCE0143960E945E2598012A5F3F4F9E
:10180000A8014E5F5F4FBE01655E7F4FCE0101961E
:101810000E940D262D813E818F89988D28173907CA
:1018200019F589819A816B897C89009719F0611576
:101830007105A9F46115710551F02115310539F0D3
:10184000DB018C9190E09195819591090AC00097F8
:1018500069F0232B59F0FC01808190E002C00E94C6
:10186000F34E11E0892B19F010E001C011E0CE0118
:1018700001960E94C525CE0143960E94C5251123DD
:1018800009F45AC36EE776E0CE0101960E94F9256D
:10189000BE016F5F7F4FCE014B960E94E1248C0109
:1018A000CE0101960E94C52517FF15C062E876E0BB
:1018B000CE0101960E94F925BE016F5F7F4FCE01D8
:1018C0004B960E94E1247C01CE0101960E94C52521
:1018D000F7FE46C061C0E0909C0DF0909D0DA80100
:1018E0004F5F5F4FBE01655E7F4FCE0101960E9444
:1018F0000D23E114F104B9F00D811E8101151105CC
:1019000019F4D7011C920FC00F30110510F00FE031
:1019100010E069817A81A801C7010E94034FF70195
:10192000E00FF11F1082CE0101960E94C525E091C3
:101930009C0DF0919D0D168600E010E060919C0DCD
:1019400070919D0D600F711F41E0C80188539F4F3A
:101950000E9403430F5F1F4F0031110579F7A6CF97
:10196000B2E0EB0EF11C8F8D98A1E816F90648F451
:101970008B8D9C8D009729F0FC01EE0DFF1D808161
:1019800001C080E080538093910A41E061E97AE0F0
:101990008CED90E00E94034348E75AE065E876E06A
:1019A000CE014B960E947A4147E75AE068E876E01C
:1019B000CE014B960E947A4146E75AE06BE876E00A
:1019C000CE014B960E947A4145E75AE06EE876E0F8
:1019D000CE014B960E947A4161E976E0CE010196F4
:1019E0000E94F925BE016F5F7F4FCE014B960E948A
:1019F000E1248C01CE0101960E94C52517FD9CC2F1
:101A000067E571E08FED9BE00E94BF328FED9BE0B8
:101A10000E94AA31C0909C0DD0909D0D00919A0D0E
:101A200010919B0D64E976E080E99EE00E94BE3251
:101A3000B801CE0101960E94773C7801E2E0EE0EFB
:101A4000F11CBE016F5F7F4FC7010E947325CE015D
:101A500001960E94C5256FE976E080E99EE00E942C
:101A6000BE32B60180E99EE00E94BE3269EA76E0AD
:101A700080E99EE00E94BE32B801CE0101960E942C
:101A8000773CBE016F5F7F4FC7010E947325CE0177
:101A900001960E94C5256AE080E99EE00E94D93146
:101AA0008091820E882341F06CEA76E080919A0D55
:101AB00090919B0D0E9481228091740E882341F0A9
:101AC00060EB76E080919A0D90919B0D0E948122AF
:101AD0008091660E882341F064EB76E080919A0D48
:101AE00090919B0D0E9481228091580E882341F095
:101AF00068EB76E080919A0D90919B0D0E94812277
:101B000080914A0E882341F06CEB76E080919A0D2B
:101B100090919B0D0E9481228091040E882341F0B8
:101B20006CEA76E080919A0D90919B0D0E94812243
:101B30008091F60D882341F060EB76E080919A0D5C
:101B400090919B0D0E9481228091DA0D882341F0B3
:101B500060EC76E080919A0D90919B0D0E9481221D
:101B60008091CC0D882341F064EC76E080919A0D51
:101B700090919B0D0E9481228091E80D882341F075
:101B800068EC76E080919A0D90919B0D0E948122E5
:101B90006091780A80919F090E944F1C8093C00930
:101BA0006091770A80916E090E944F1C8093BF0953
:101BB0006091760A80916D090E944F1C8093BE0946
:101BC0006091750A80916C090E944F1C8093BD0939
:101BD00066E876E080E99EE00E94BE328091C0090E
:101BE000882311F061E301C060E380E99EE00E9478
:101BF000D9318091780A882311F06DE401C061E445
:101C000080E99EE00E94D9316CEC76E080E99EE0AC
:101C10000E94BE328091BF09882311F061E301C0A8
:101C200060E380E99EE00E94D9318091770A8823A1
:101C300011F06DE401C061E480E99EE00E94D931B9
:101C40006FEC76E080E99EE00E94BE328091BE0992
:101C5000882311F061E301C060E380E99EE00E9407
:101C6000D9318091760A882311F06DE401C061E4D6
:101C700080E99EE00E94D93162ED76E080E99EE045
:101C80000E94BE328091BD09882311F061E301C03A
:101C900060E380E99EE00E94D9318091750A882333
:101CA00011F06DE401C061E480E99EE00E94D93149
:101CB0006AE080E99EE00E94D93165ED76E080E936
:101CC0009EE00E94BE324091C9095091CA096091BC
:101CD000CB097091CC0980919A0D90919B0D0E9437
:101CE000B43C6AE080E99EE00E94D93169ED76E07B
:101CF00080E99EE00E94BE324091C5095091C6091C
:101D00006091C7097091C80980919A0D90919B0DBF
:101D10000E94B43C6AE080E99EE00E94D9316DEDFA
:101D200076E080E99EE00E94BE324091C109509168
:101D3000C2096091C3097091C40980919A0D909174
:101D40009B0D0E94B43C6AE080E99EE00E94D9317C
:101D500061EE76E080E99EE00E94BE324091A809E3
:101D60005091A9096091AA097091AB0980919A0DCF
:101D700090919B0D0E94B43C6AE080E99EE00E9435
:101D8000D93165EE76E080E99EE00E94BE32409156
:101D9000A0095091A1096091A2097091A3098091B5
:101DA0009A0D90919B0D0E94B43C6AE080E99EE000
:101DB0000E94D93169EE76E080E99EE00E94BE3251
:101DC0004091A4095091A5096091A6097091A709B5
:101DD00080919A0D90919B0D0E94B43C6AE080E93D
:101DE0009EE00E94D9316DEE76E080E99EE00E948F
:101DF000BE324091B0095091B1096091B209709121
:101E0000B30980919A0D90919B0D0E94B43C6AE0B9
:101E100080E99EE00E94D93161EF76E080E99EE0A2
:101E20000E94BE324091AC095091AD096091AE095B
:101E30007091AF0980919A0D90919B0D0E94B43CD6
:101E40006AE080E99EE00E94D93165EF76E080E9A2
:101E50009EE00E94BE3240919B0950919C09609186
:101E60009D0970919E0980919A0D90919B0D0E9401
:101E7000B43C6AE080E99EE00E94D93169EF76E0E7
:101E800080E99EE00E94BE324091910A50E060E0FD
:101E900070E080E99EE00E9478406BE978E080E99C
:101EA0009EE00E94BE3200E010E06BE978E080E93D
:101EB0009EE00E94BE32BE016F5F7F4FC8010E944C
:101EC0000920BE016F5F7F4F80E99EE00E94BE3215
:101ED0000F5F1F4F0032110541F700919A0D1091CD
:101EE0009B0D6AEA76E080E99EE00E94BE3264E6DD
:101EF00070E080E090E00E9448246AE180E99EE082
:101F00000E94D931B801CE0143960E94773CBE01B0
:101F10006D5E7F4FC80102960E947325CE014396E5
:101F20000E94C5256DEF76E0CE0143960E94F9250B
:101F3000CE0143960E94C525CE014B960E94C52531
:101F40008091960C811108C08091B6099091B709D3
:101F5000892B11F40E947C3585EF9CE00E94AA2118
:101F6000833261F41092B7091092B6091092B50944
:101F70001092B40981E08093940C2AC0873329F42D
:101F80001092940C81E090E006C08833D9F410924E
:101F9000940C83E090E09093B7098093B609109277
:101FA000B5091092B4091092B9091092BA091092A9
:101FB000BB091092BC091092B8098CED9CE00E94FC
:101FC0004D3506C08091940C811102C00E946B3780
:101FD0008091640981110DC00E9480246093600982
:101FE00070936109809362099093630981E0809303
:101FF00064098091970C882371F08091940C882358
:1020000051F01092970C6091B80C80919A0C9091BD
:102010009B0C0E9450288091900C81113FC08091B0
:10202000910C0E9429246091920C7091930C209144
:102030005A0930915B09281B390B37FF03C03195D2
:1020400021953109621773072CF490935B098093F3
:102050005A0921C0EEE8FCE020E030E046895789CB
:10206000DA01A61BB70BA817B9077CF4460F571F58
:102070008417950754F4220F331F220F331FF901E1
:10208000EA55F34FE080F18014C02F5F3F4F349644
:102090002530310519F7E12CF12C0BC0E0918E0CA5
:1020A000F0918F0C0190F081E02D8EE89CE0199565
:1020B0007C0180915F0990E0E816F906C9F0E09292
:1020C0005F0910925E090E948024609360097093FA
:1020D0006109809362099093630910925D091092DF
:1020E0005C0981E090E09093CE0C8093CD0CE3C02E
:1020F0000E94802400916009109161092091620979
:1021000030916309DC01CB01801B910BA20BB30B57
:1021100089379105A105B10508F4CDC00E9480243E
:1021200060936009709361098093620990936309D9
:10213000E114F10421F08091940C81110DC01092F2
:102140005D0910925C0981E090E09093CE0C809341
:10215000CD0C10925E09AFC0F5E0EF16F10419F452
:1021600081E08093960C8091960C882309F4A3C09B
:1021700080915E0990E0E816F906A9F480915C0967
:1021800090915D09019690935D0980935C096AE0E6
:1021900070E00E94474B892B71F08091CD0C90919B
:1021A000CE0C029604C0E0925E0981E090E090932C
:1021B000CE0C8093CD0C8E2D2091950C35E0E3163E
:1021C000F10419F0EA94EF2889F48091980C909129
:1021D000990C222311F063E018C060E0009709F029
:1021E0004FC080919C0C90919D0C4AC0833021F08F
:1021F000843021F462E003C061E001C064E0222386
:1022000039F08091980C9091990C0E94A72953C0A5
:1022100020919A0C30919B0CF9017196E491E15058
:10222000643089F51092990C1092980C8091A20C50
:102230009091A30C009789F48091A00C9091A10C2F
:10224000009771F480919E0C90919F0C009711F46F
:102250000C94221A20E030E005C022E030E002C0F9
:1022600021E030E0220F331FF901E256F34F1182D3
:10227000108290939B0C80939A0C1092B80C61E0A2
:102280000E94B12818C09091B80C613011F061E043
:1022900001C06FEF690FE61730F481E06F3F09F07E
:1022A00080E0682F61956F3F09F46E2F6093B80C42
:1022B000C9010E9450288091A00D9091A10DA0917C
:1022C000A20DB091A30D0097A105B10509F440C07E
:1022D000805D9A48AF4FBF4F40918809509189095E
:1022E00060918A0970918B0984179507A607B70733
:1022F00078F588E40E94674000919A0D10919B0D3B
:102300006BE571E080E99EE00E94BF32B801CE012A
:1023100001960E94773CBE016F5F7F4FC801029615
:102320000E947325CE0101960E94C52561EC78E0DC
:10233000CE0101960E94F925CE0101960E94C52585
:102340001092A00D1092A10D1092A20D1092A30D4B
:102350002091870E6CE38091880E90E05CE3259FCE
:10236000800D911D11242091F90A3091FA0A629F83
:10237000A001639F500D11242091F70A3091F80AB3
:10238000420F531F2091F50A3091F60A629FF00127
:10239000639FF00D11242091F30A3091F40A2E0F5F
:1023A0003F1F4217530740F48417950760F041E040
:1023B0008217930758F007C08417950730F441E05F
:1023C0002817390718F440E001C041E040939F0905
:1023D00010919F096091780A812F0E944F1C809371
:1023E000C009C090C909D090CA09E090CB09F0900B
:1023F000CC092091EF0A3091F00A4091F10A5091F6
:10240000F20AC701B6010E94DF5387FF03C081E0D3
:1024100080936E092091EB0A3091EC0A4091ED0A0D
:102420005091EE0AC701B6010E94C64C181614F46A
:1024300010926E096091770A80916E090E944F1C7C
:102440008093BF092091DF0A3091E00A4091E10AB0
:102450005091E20AC701B6010E94C64C18161CF43E
:1024600081E080936D092091DB0A3091DC0A409174
:10247000DD0A5091DE0AC701B6010E94DF5387FDD5
:1024800010926D096091760A80916D090E944F1C2F
:102490008093BE0980916C09882349F18091D10A0B
:1024A0009091D20A4CE3489F9001499F300D11242E
:1024B0008091CF0A9091D00A820F931FA0E0B0E0E4
:1024C00040916F0950917009609171097091720982
:1024D000481759076A077B0750F010926F0910924E
:1024E0007009109271091092720910926C09809112
:1024F0006C0981112AC08091CD0A9091CE0A2CE3FB
:10250000289FA001299F500D11242091CB0A3091C2
:10251000CC0A420F531F60E070E080916F099091E8
:102520007009A0917109B091720984179507A607E7
:10253000B70758F010926F09109270091092710944
:102540001092720981E080936C096091750A809104
:102550006C090E944F1C8093BD09112331F14090FA
:10256000B70A5090B80A6090B90A7090BA0A809081
:10257000B30A9090B40AA090B50AB090B60A8091C0
:102580007B0990917C09A0917D09B0917E098830EA
:102590009740A105B10570F58090C30A9090C40AD8
:1025A000A090C50AB090C60A25C04090C70A5090B6
:1025B000C80A6090C90A7090CA0A8090C30A9090B5
:1025C000C40AA090C50AB090C60A8091770990917C
:1025D0007809A0917909B0917A0988309740A105CE
:1025E000B10540F44090B70A5090B80A6090B90A1B
:1025F0007090BA0A11E0A3019201C701B6010E94CE
:10260000C64C18160CF010E0612F86E79EE00E9481
:10261000CC22882329F061E382E097E00E945920D0
:1026200020E030E040E05FE3C301B2010E94B44B20
:102630009B01AC016091C9097091CA098091CB09D5
:102640009091CC090E94DF53682F661F6627661F92
:1026500086E79EE00E948A22882329F060E382E0D8
:1026600097E00E945920A50194016091C9097091D9
:10267000CA098091CB099091CC090E94DF53682F41
:10268000661F6627661F88E69EE00E94CC2288238C
:1026900029F061E383E197E00E94592020E030E0D7
:1026A00040E05FE3C501B4010E94B54B9B01AC0162
:1026B00011E06091C9097091CA098091CB0990918C
:1026C000CC090E94C64C18160CF010E0612F88E669
:1026D0009EE00E948A22882329F060E383E197E04C
:1026E0000E9459206091C0096623B1F02091AB0A85
:1026F0003091AC0A4091AD0A5091AE0A6091C10987
:102700007091C2098091C3099091C4090E94DF535E
:10271000682F661F6627661F8CE49EE00E94CC220D
:10272000882329F061E384E297E00E945920809198
:10273000C0098823F9F020E030E040E251E46091E4
:10274000AB0A7091AC0A8091AD0A9091AE0A0E94DA
:10275000B54B9B01AC0111E06091C1097091C209B8
:102760008091C3099091C4090E94C64C18161CF0B0
:1027700010E001C011E0612F8CE49EE00E948A22EB
:10278000882329F060E384E297E00E945920809139
:10279000C009811115C011E02091AF0A3091B00A33
:1027A0004091B10A5091B20A6091C1097091C20979
:1027B0008091C3099091C4090E94C64C18160CF070
:1027C00010E0612F8AE59EE00E94CC22882329F048
:1027D00061E385E397E00E9459206091C00961118F
:1027E0001EC020E030E040E251E46091AF0A7091F9
:1027F000B00A8091B10A9091B20A0E94B44B9B0139
:10280000AC016091C1097091C2098091C309909196
:10281000C4090E94DF53682F661F6627661F8AE57A
:102820009EE00E948A22882329F060E385E397E0F6
:102830000E94592011E020E030E048E452E4609129
:10284000A8097091A9098091AA099091AB090E94E9
:10285000C64C18160CF010E08091920A811103C04A
:1028600081E0182703C0823009F410E0612F617005
:102870008EE39EE00E94CC22882329F061E386E467
:1028800097E00E945920612F609561708EE39EE071
:102890000E948A22882329F060E386E497E00E9460
:1028A000592020E030E048E452E46091A0097091A2
:1028B000A1098091A2099091A3090E94DF53182FCA
:1028C000111F1127111F612F8CED9DE00E94CC225A
:1028D000882329F061E387E597E00E94592091E081
:1028E000612F69278CED9DE00E948A22882329F0C0
:1028F00060E387E597E00E94592011E02091A30A48
:102900003091A40A4091A50A5091A60A6091B0099D
:102910007091B1098091B2099091B3090E94C64C9F
:1029200018160CF010E0612F80E39EE00E94CC228C
:10293000882329F061E388E697E00E9459202DEC76
:102940003CEC4CE45EE36091A30A7091A40A809190
:10295000A50A9091A60A0E94B44B9B01AC0160911C
:10296000B0097091B1098091B2099091B3090E94A8
:10297000DF53682F661F6627661F80E39EE00E9474
:102980008A22882329F060E388E697E00E94592094
:102990002091A70A3091A80A4091A90A5091AA0A49
:1029A0006091B0097091B1098091B2099091B30919
:1029B0000E94DF53682F661F6627661F82E29EE033
:1029C0000E94CC22882329F061E389E797E00E94E6
:1029D00059202DEC3CEC4CE45EE36091A70A709129
:1029E000A80A8091A90A9091AA0A0E94B54B9B015E
:1029F000AC0111E06091B0097091B1098091B20908
:102A00009091B3090E94C64C18160CF010E0612F8B
:102A100082E29EE00E948A22882329F060E389E70F
:102A200097E00E94592011E020919B0A30919C0A66
:102A300040919D0A50919E0A6091AC097091AD0938
:102A40008091AE099091AF090E94C64C18160CF007
:102A500010E0612F84E19EE00E94CC22882329F0BF
:102A600061E38AE897E00E9459202DEC3CEC4CE4AD
:102A70005EE360919B0A70919C0A80919D0A9091FF
:102A80009E0A0E94B44B9B01AC016091AC0970910D
:102A9000AD098091AE099091AF090E94DF53682F74
:102AA000661F6627661F84E19EE00E948A228823B3
:102AB00029F060E38AE897E00E94592020919F0A5C
:102AC0003091A00A4091A10A5091A20A6091AC09EC
:102AD0007091AD098091AE099091AF090E94DF53CA
:102AE000682F661F6627661F86E09EE00E94CC2244
:102AF000882329F061E38BE997E00E9459202DECAF
:102B00003CEC4CE45EE360919F0A7091A00A8091D6
:102B1000A10A9091A20A0E94B54B9B01AC0111E061
:102B20006091AC097091AD098091AE099091AF09A7
:102B30000E94C64C18160CF010E0612F86E09EE053
:102B40000E948A22882329F060E38BE997E00E94A3
:102B5000592011E02091BF0A3091C00A4091C10A6A
:102B60005091C20A6091C5097091C6098091C70948
:102B70009091C8090E94C64C18160CF010E0612F05
:102B800088EF9DE00E94CC22882329F061E38CEA43
:102B900097E00E94592020E030E040E05FE3609140
:102BA000BF0A7091C00A8091C10A9091C20A0E9426
:102BB000B44B9B01AC016091C5097091C60980912D
:102BC000C7099091C8090E94DF53682F661F6627C6
:102BD000661F88EF9DE00E948A22882329F060E327
:102BE0008CEA97E00E9459202091BB0A3091BC0AE0
:102BF0004091BD0A5091BE0A6091C5097091C60905
:102C00008091C7099091C8090E94DF53682F661F01
:102C10006627661F8AEE9DE00E94CC22882329F059
:102C200061E38DEB97E00E94592020E030E040E026
:102C30005FE36091BB0A7091BC0A8091BD0A9091DC
:102C4000BE0A0E94B54B9B01AC0111E06091C50921
:102C50007091C6098091C7099091C8090E94C64C1D
:102C600018160CF010E0612F8AEE9DE00E948A2277
:102C7000882329F060E38DEB97E00E94592011E052
:102C80002091930A3091940A4091950A5091960AA6
:102C900060919B0970919C0980919D0990919E097A
:102CA0000E94C64C18160CF010E0612F8EEC9DE0CF
:102CB0000E94CC22882329F061E38CEA97E00E94ED
:102CC000592020E030E040E05FE36091930A70918A
:102CD000940A8091950A9091960A0E94B44B9B01A8
:102CE000AC0160919B0970919C0980919D09909124
:102CF0009E090E94DF53682F661F6627661F8EECB1
:102D00009DE00E948A22882329F060E38CEA97E004
:102D10000E9459202091970A3091980A4091990A6F
:102D200050919A0A60919B0970919C0980919D092C
:102D300090919E090E94DF53682F661F6627661FC9
:102D400080EC9DE00E94CC22882329F061E38DEB8A
:102D500097E00E94592020E030E040E05FE360917E
:102D6000970A7091980A8091990A90919A0A0E9404
:102D7000B54B9B01AC0111E060919B0970919C09DE
:102D800080919D0990919E090E94C64C18160CF0E6
:102D900010E0612F80EC9DE00E948A22882329F0B8
:102DA00060E38DEB97E00E94592085EF9CE00E9444
:102DB0004D218823E1F01092830E1092750E10922F
:102DC000670E1092590E10924B0E10923D0E1092FB
:102DD0002F0E1092210E1092130E1092050E1092CB
:102DE000F70D1092DB0D1092CD0D1092E90D8FEDC5
:102DF0009BE00E940C2E181619060CF03AC36FEDDA
:102E00007BE0CE0143960E9439316EEC77E0CE0133
:102E100001960E94F925BE016F5F7F4FCE01439658
:102E20000E94E1248C01CE0101960E94C52517FD68
:102E300057C00FB6F894A895809160008861809380
:102E40006000109260000FBE62ED77E08FED9BE0B6
:102E50000E94AD31A89565EE77E0CE0101960E9403
:102E6000F925BE016F5F7F4F82E49BE00E94BD3178
:102E7000BE016F5F7F4F8FED9BE00E94BD31A89533
:102E800068E873E180E090E00E944824A89581EC16
:102E900098E00E94CD40CE0101960E94C52597D4AE
:102EA00000D382E49BE00E940C2E892B49F082E43F
:102EB0009BE00E94EA2D682F8FED9BE00E944B2E35
:102EC0008FED9BE00E940C2E892B59F38FED9BE038
:102ED0000E94EA2D682F82E49BE00E944B2EE1CFF6
:102EE00048E75AE065E876E0CE0143960E947A41D1
:102EF00047E75AE068E876E0CE0143960E947A41BF
:102F000046E75AE06BE876E0CE0143960E947A41AC
:102F100045E75AE06EE876E0CE0143960E947A419A
:102F20006EEE77E0CE0101960E94F925BE016F5F3B
:102F30007F4FCE0143960E94E1248C01CE01019681
:102F40000E94C52517FD2CC0A8014C5F5F4FBE0134
:102F50006D5E7F4FCE0101960E940D23CE0101963A
:102F60000E94D624DC01CB0142E0BE01655E7F4FAA
:102F70000E94DC424B8D5C8D052E000C660B770B9E
:102F80008FED9BE00E9478408FED9BE00E94AA317C
:102F90008FED9BE00E94AA31CE0101960E94C525CB
:102FA00063EF77E0CE0101960E94F925BE016F5FC5
:102FB0007F4FCE0143960E94E1248C01CE01019601
:102FC0000E94C52517FD2FC0A8014C5F5F4FBE01B1
:102FD0006D5E7F4FCE0101960E940D2389819A81FB
:102FE000009719F00E944B4F03C060E070E0CB01E6
:102FF0000E94914CDC01CB01BE01655E7F4F0E94B7
:1030000068376B8D7C8D8D8D9E8D0E94A9278FEDED
:103010009BE00E94AA318FED9BE00E94AA31CE0175
:1030200001960E94C52568EF77E0CE0101960E94C7
:10303000F925BE016F5F7F4FCE0143960E94E124C8
:103040008C01CE0101960E94C52517FD2FC0A80155
:103050004C5F5F4FBE016D5E7F4FCE0101960E94B7
:103060000D23CE0101960E94D6246B017C01CE0176
:1030700001960E94C525A801475F5F4FBE016D5EA6
:103080007F4FCE0101960E940D23CE0101960E9432
:10309000D6247C8F6B8FCE0101960E94C52542E01D
:1030A000BE01655E7F4FC6010E9403436DEF77E06E
:1030B000CE0101960E94F925BE016F5F7F4FCE01C0
:1030C00043960E94E1248C01CE0101960E94C52501
:1030D00017FD36C0A8014C5F5F4FBE016D5E7F4F8C
:1030E000CE0101960E940D23CE0101960E94D624A6
:1030F0006B017C01CE0101960E94C525A801475FA6
:103100005F4FBE016D5E7F4FCE0101960E940D2381
:1031100089819A81009719F00E944B4F03C060E0AB
:1031200070E0CB016B8F7C8F8D8F9E8FCE010196CF
:103130000E94C525BE01655E7F4FC6010E945F37B4
:1031400062E078E0CE0101960E94F925BE016F5F32
:103150007F4FCE0143960E94E1248C01CE0101965F
:103160000E94C52517FF2BD661E976E0CE010196B6
:103170000E94F925BE016F5F7F4FCE0143960E94EA
:10318000E1248C01CE0101960E94C5250F3F1F4FFF
:1031900009F453C18FED9BE00E94AA316091780A37
:1031A00080919F097CD38093C0096091770A8091B8
:1031B0006E0975D38093BF096091760A80916D097D
:1031C0006ED38093BE096091750A80916C0967D3B4
:1031D0008093BD0967E078E08FED9BE00E94BE32EE
:1031E0008091C009882311F061E301C060E38FED95
:1031F0009BE00E94D9318091780A882311F08DE4F8
:1032000001C081E40E9467406AE078E08FED9BE0B6
:103210000E94BE328091BF09882311F061E301C092
:1032200060E38FED9BE00E94D9318091770A88237B
:1032300011F08DE401C081E40E9467406DE078E008
:103240008FED9BE00E94BE328091BE09882311F071
:1032500061E301C060E38FED9BE00E94D931809172
:10326000760A882311F08DE401C081E40E94674052
:1032700060E178E08FED9BE00E94BE328091BD0955
:10328000882311F061E301C060E38FED9BE00E94B1
:10329000D9318091750A882311F08DE401C081E451
:1032A0000E9467408FED9BE00E94AA3165ED76E0B9
:1032B0008FED9BE00E94BE326091C9097091CA09EE
:1032C0008091CB099091CC090E94A92769ED76E005
:1032D0008FED9BE00E94BE326091C5097091C609D6
:1032E0008091C7099091C8090E94A9276DED76E0E9
:1032F0008FED9BE00E94BE326091C1097091C209BE
:103300008091C3099091C4090E94A92761EE76E0DB
:103310008FED9BE00E94BE326091A8097091A909CF
:103320008091AA099091AB090E94A92765EE76E0E9
:103330008FED9BE00E94BE326091A0097091A109BF
:103340008091A2099091A3090E94A9276DEE76E0D1
:103350008FED9BE00E94BE326091B0097091B1097F
:103360008091B2099091B3090E94A92761EF76E09C
:103370008FED9BE00E94BE326091AC097091AD0967
:103380008091AE099091AF090E94A92769EE76E07D
:103390008FED9BE00E94BE326091A4097091A50957
:1033A0008091A6099091A7090E94A92765EF76E070
:1033B0008FED9BE00E94BE3260919B0970919C0949
:1033C00080919D0990919E090E94A9278FED9BE015
:1033D0000E94AA3169EF76E08FED9BE00E94BE3239
:1033E0004091910A50E060E070E02AE08FED9BE0B0
:1033F0000E94623160E28FED9BE00E94D9316AE861
:103400007DE08FED9BE00E94BE3260E28FED9BE09D
:103410000E94D931409100065091010660E070E0B1
:103420002AE08FED9BE00E9462318FED9BE00E94CD
:10343000AA318FED9BE00E94AA31CE0143960E94F3
:10344000C52517C080919C0C90919D0C90939B0C6E
:1034500080939A0C1092B80C1092960CE091BB0CD1
:10346000F091BC0C309711F40C945B1119950C94ED
:103470005B11E0960FB6F894DEBF0FBECDBFDF91B3
:10348000CF911F910F91FF90EF90DF90CF90BF9061
:10349000AF909F908F907F906F905F904F90089526
:1034A0000895CF93DF93CDB7DEB7EC970FB6F894BE
:1034B000DEBF0FBECDBF63E178E0CE0101960E9472
:1034C000F92567E278E0CE0101960E94502567E376
:1034D00078E0CE0101960E945025BE016F5F7F4FBC
:1034E00082E49BE00E94BD31BE016F5F7F4F8FED94
:1034F0009BE00E94BD31A89560ED77E080E090E010
:103500000E944824A8958FE099E00E94CD4088232E
:1035100039F06CE378E08FED9BE00E94BE324AC147
:103520004091A0095091A1096091A2097091A3094D
:1035300022E0CE01C7960E94CA2540919B09509176
:103540009C0960919D0970919E0922E0CE01C1966F
:103550000E94CA254091A4095091A5096091A6092D
:103560007091A70922E0CE018B960E94CA25409156
:10357000AC095091AD096091AE097091AF0922E09C
:10358000CE0185960E94CA254091B0095091B1099B
:103590006091B2097091B30922E0CE014F960E946A
:1035A000CA254091C1095091C2096091C309709127
:1035B000C40922E0CE0149960E94CA254091C5095E
:1035C0005091C6096091C7097091C80922E0CE01E7
:1035D00043960E94CA254091C9095091CA09609139
:1035E000CB097091CC0922E0CE010D960E94CA252C
:1035F00018861F821A8619861C861B8668E87CE05E
:10360000CE0107960E94B02562E578E0CE010796CC
:103610000E942825BE01635F7F4F0E943F256BE516
:1036200078E00E942825BE016D5E7F4F0E943F25F5
:1036300064E678E00E942825BE01675E7F4F0E9405
:103640003F256DE678E00E942825BE01615E7F4F30
:103650000E943F2566E778E00E942825BE016B5D49
:103660007F4F0E943F256FE778E00E942825BE012A
:10367000655D7F4F0E943F2568E878E00E9428251D
:10368000BE016F5C7F4F0E943F2561E978E00E9498
:103690002825BE01695C7F4F0E943F256AE978E0DA
:1036A0000E942825BC01CE0101960E94B025CE01C2
:1036B00007960E94C525CE010D960E94C525CE0114
:1036C00043960E94C525CE0149960E94C525CE018C
:1036D0004F960E94C525CE0185960E94C525CE0134
:1036E0008B960E94C525CE01C1960E94C525CE01AC
:1036F000C7960E94C5256DE978E082E49BE00E94B0
:10370000BE326DE978E08FED9BE00E94BE324D81C4
:103710005E8160E070E02AE082E49BE00E9462311A
:1037200082E49BE00E94AA314D815E8160E070E0FE
:103730002AE08FED9BE00E9462318FED9BE00E94BA
:10374000AA3189EA98E00E94CD408823B9F069EA5D
:1037500078E08FED9BE00E94BE324D815E816981F1
:103760007A818FED9BE00E94A62D4D815E8169815B
:103770007A8182E49BE00E94A62D0CC06BEA78E07F
:1037800082E49BE00E94AD316BEA78E08FED9BE034
:103790000E94AD3181EC98E00E94CD40882319F061
:1037A00067EB78E002C064EC78E08FED9BE00E946C
:1037B000AD31A895CE0101960E94C525EC960FB6B5
:1037C000F894DEBF0FBECDBFDF91CF9108951F9358
:1037D000CF93DF9300D000D0CDB7DEB7A8956AEDC8
:1037E00078E082E49BE00E94AD3160ED77E080E01C
:1037F00090E00E944824A89566EE78E0CE010196FC
:103800000E94F92561EF78E0CE0101960E945025D3
:1038100063E278E0CE0101960E9450256CEF78E0DB
:10382000CE0101960E94502565E278E0CE01019616
:103830000E945025BE016F5F7F4F82E49BE00E9493
:10384000BD31BE016F5F7F4F8FED9BE00E94BD31A8
:10385000A89568E873E180E090E00E944824A8956C
:1038600081EC98E00E94CD40182F882319F067EB77
:1038700078E002C065E079E08FED9BE00E94AD3119
:10388000CE0101960E94C525812F26960FB6F89489
:10389000DEBF0FBECDBFDF91CF911F91089566238C
:1038A00021F081E0623009F080E008954F925F924C
:1038B0006F927F928F929F92AF92BF92CF92DF9240
:1038C000EF92FF921092780A86E090E09093FA0AC5
:1038D0008093F90A1092F80A1092F70A86E190E0B4
:1038E0009093F60A8093F50A1092F40A1092F30A64
:1038F00041E068E77AE084E090E00E94034369EFEA
:103900007AE088E090E00E94623767EF7AE08CE02E
:1039100090E00E94623765EF7AE080E190E00E94DB
:10392000623763EF7AE084E190E00E9462371092A0
:10393000770AC12CD12C80E7E82E81E4F82EC092C2
:10394000EF0AD092F00AE092F10AF092F20A80E0D7
:1039500090E0A0E8B1E48093EB0A9093EC0AA09386
:10396000ED0AB093EE0A412C512C90E2692E91E4BD
:10397000792E4092E70A5092E80A6092E90A709222
:10398000EA0A80E090E0A0E3B1E48093E30A909338
:10399000E40AA093E50AB093E60A41E067E77AE01B
:1039A00088E190E00E9403436FEE7AE08CE190E0C2
:1039B0000E945F376BEE7AE080E290E00E945F3712
:1039C00067EE7AE084E890E00E945F3763EE7AE089
:1039D00088E890E00E945F371092760A80E090E0DD
:1039E000A0EAB1E48093DF0A9093E00AA093E10A91
:1039F000B093E20A80E090E0A8E9B1E48093DB0AAA
:103A00009093DC0AA093DD0AB093DE0AC092D70A35
:103A1000D092D80AE092D90AF092DA0A812C912C3D
:103A200020E6A22E21E4B22E8092D30A9092D40AEC
:103A3000A092D50AB092D60A41E066E77AE084E225
:103A400090E00E9403436FED7AE088E290E00E94EC
:103A50005F376BED7AE08CE290E00E945F3767EDB4
:103A60007AE08CE890E00E945F3763ED7AE080E9CD
:103A700090E00E945F371092750A1092D20A10925D
:103A8000D10A8EE190E09093D00A8093CF0A1092F1
:103A9000CE0A1092CD0A9093CC0A8093CB0A41E0D3
:103AA00065E77AE080E390E00E94034361ED7AE00D
:103AB00084E390E00E9462376FEC7AE088E390E064
:103AC0000E9462376DEC7AE08CE390E00E946237EE
:103AD0006BEC7AE080E490E00E94623780E090E056
:103AE000A8EAB1E48093B70A9093B80AA093B90A00
:103AF000B093BA0A80E090E0A8E9B1E48093B30AF9
:103B00009093B40AA093B50AB093B60A80E090E00F
:103B1000A0E2B2E48093AF0A9093B00AA093B10AF6
:103B2000B093B20A80E090E0A0E7B2E48093AB0AE1
:103B30009093AC0AA093AD0AB093AE0AC092C70AA4
:103B4000D092C80AE092C90AF092CA0A4092C30A07
:103B50005092C40A6092C50A7092C60A67EB7AE076
:103B600084E490E00E945F3763EB7AE088E490E0C1
:103B70000E945F376FEA7AE08CE490E00E945F3742
:103B80006BEA7AE080E590E00E945F3767EC7AE0CC
:103B900084E990E00E945F3763EC7AE088E990E086
:103BA0000E945F378FE892E09093900A80938F0A8B
:103BB00080E192E090938A0A8093890A8CEE91E5E5
:103BC000A0E8B0E480938B0A90938C0AA0938D0AAE
:103BD000B0938E0A80E090E0A0EEB0E48093850A76
:103BE0009093860AA093870AB093880A1092A70A36
:103BF0001092A80A1092A90A1092AA0A8092A30A07
:103C00009092A40AA092A50AB092A60A67EA7AE066
:103C100088E590E00E945F3763EA7AE084E590E00F
:103C20000E945F3742E06FE87AE08CE590E00E9406
:103C3000034342E069E87AE080E690E00E940343B3
:103C40006BE87AE084E690E00E945F3765E87AE00E
:103C500088E690E00E945F3782EF90E09093840ABC
:103C60008093830A8DE790E090937E0A80937D0A8B
:103C700081E895E9A3EABFE380937F0A9093800AE5
:103C8000A093810AB093820A8AE69CEBA0E9B0E493
:103C90008093790A90937A0AA0937B0AB0937C0A66
:103CA00010929F0A1092A00A1092A10A1092A20AE2
:103CB00080E090E0AAE7B4E480939B0A90939C0A8A
:103CC000A0939D0AB0939E0A6FE97AE080E790E0A6
:103CD0000E945F376BE97AE08CE690E00E945F37E4
:103CE00042E063E87AE084E790E00E94034342E028
:103CF0006DE77AE088E790E00E9403436FE77AE09F
:103D00008CE790E00E945F3769E77AE080E890E016
:103D10000E945F371092BB0A1092BC0A1092BD0A33
:103D20001092BE0A80E090E0A8ECB2E48093BF0A53
:103D30009093C00AA093C10AB093C20A6FEB7AE0D5
:103D40008CE990E00E945F376BEB7AE080EA90E0CC
:103D50000E945F3780E090E0A8E4B3EC8093970A7C
:103D60009093980AA093990AB0939A0A1092930A92
:103D70001092940A1092950A1092960A63E97AE0DA
:103D800084EA90E00E945F3767E97AE088EA90E091
:103D90000E945F371092920A41E062E97AE084EC77
:103DA00090E0FF90EF90DF90CF90BF90AF909F900A
:103DB0008F907F906F905F904F900C940343CF93C0
:103DC000DF9341E068E77AE084E090E00E94DC4223
:103DD00069EF7AE088E090E00E94653767EF7AE06B
:103DE0008CE090E00E94653765EF7AE080E190E03A
:103DF0000E94653763EF7AE084E190E00E946537C6
:103E000041E067E77AE088E190E00E94DC426FEEF3
:103E10007AE08CE190E00E9468376BEE7AE080E215
:103E200090E00E94683767EE7AE084E890E00E94B4
:103E3000683763EE7AE088E890E00E94683741E0F6
:103E400066E77AE084E290E00E94DC426FED7AE07F
:103E500088E290E00E9468376BED7AE08CE290E0B7
:103E60000E94683767ED7AE08CE890E00E9468373E
:103E700063ED7AE080E990E00E94683741E065E711
:103E80007AE080E390E00E94DC4261ED7AE084E336
:103E900090E00E9465376FEC7AE088E390E00E9442
:103EA00065376DEC7AE08CE390E00E9465376BEC4F
:103EB0007AE080E490E00E94653767EB7AE084E482
:103EC00090E00E94683763EB7AE088E490E00E941B
:103ED00068376FEA7AE08CE490E00E9468376BEA1A
:103EE0007AE080E590E00E94683767EC7AE084E948
:103EF00090E00E94683763EC7AE088E990E00E94E5
:103F0000683767EA7AE088E590E00E94683763EAFC
:103F10007AE084E590E00E94683742E06FE87AE05A
:103F20008CE590E00E94DC4242E069E87AE080E6BD
:103F300090E00E94DC426BE87AE084E690E00E9428
:103F4000683765E87AE088E690E00E9468376FE9B4
:103F50007AE080E790E00E9468376BE97AE08CE6CF
:103F600090E00E94683742E063E87AE084E790E0FE
:103F70000E94DC4242E06DE77AE088E790E00E9430
:103F8000DC426FE77AE08CE790E00E94683769E7EF
:103F90007AE080E890E00E94683741E061E97AE0E9
:103FA0008CED90E00E94DC4260E076E088ED90E0ED
:103FB0000E94653741E062E97AE084EC90E00E947B
:103FC000DC426FEB7AE08CE990E00E9468376BEBA3
:103FD0007AE080EA90E00E94683763E97AE084EA58
:103FE00090E00E94683767E97AE088EA90E00E94F2
:103FF0006837C8ECD0E0BE016E53734F41E0CE018C
:104000000E94DC422196C83DD105A9F7DF91CF91EE
:104010000895EF92FF920F931F93CF93DF931F9218
:104020001F92CDB7DEB78C017B0142E0BE016F5F0E
:104030007F4F80EE90E00E94DC4229813A8121503E
:104040003109203231051CF43A83298302C01A82D7
:10405000198260E270E09B01201B310B89819A81FB
:10406000820F931F0E945B4B9A83898300E010E0CC
:10407000B701600F711F89819A8124E0880F991F11
:104080002A95E1F78C519F4F41E0800F911F0E94CC
:10409000DC420F5F1F4F0031110551F7F701108A05
:1040A0000F900F90DF91CF911F910F91FF90EF90A4
:1040B0000895CF92DF92EF92FF920F931F93CF93C9
:1040C000DF931F921F92CDB7DEB78C01F62E809141
:1040D0008C0D8033D9F181E3681338C08091A00D35
:1040E0009091A10DA091A20DB091A30D892B8A2BC7
:1040F0008B2B61F58091910A823040F183E40E941C
:104100006740C0909C0DD0909D0D65E671E080E900
:104110009EE00E94BF32B60180E99EE00E94BE325E
:1041200061E671E080E99EE00E94BF3280918809DB
:1041300090918909A0918A09B0918B098093A00D73
:104140009093A10DA093A20DB093A30D8091860E24
:1041500068018A3048F4EFEFCE1ADE0A4AE0B8016F
:1041600080E090E00E947D4F8091860E4AE0B6018B
:1041700090E00E947D4F8FE2F8018283B8016D5F6D
:104180007F4F8091850E8A3040F44AE080E090E0D5
:104190000E947D4FC8010496BC018091850E4AE0C3
:1041A00090E00E947D4F80E2F8018583B8016A5F4C
:1041B0007F4F8091870E8A3040F44AE080E090E0A3
:1041C0000E947D4FC8010796BC018091870E4AE08E
:1041D00090E00E947D4F8AE3F8018087B801675F15
:1041E0007F4F8091880E8A3040F44AE080E090E072
:1041F0000E947D4FC8010A96BC018091880E4AE05A
:1042000090E00E947D4F80E2F8018387F78642E0CC
:10421000BE016F5F7F4F80EE90E00E94DC4289819B
:104220009A81809714F01A821982E12CF12CB8013E
:104230006E0D7F1D89819A8124E0880F991F2A9530
:10424000E1F78C519F4F41E08E0D9F1D0E9403436B
:10425000FFEFEF1AFF0A80E1E816F10441F78981C8
:104260009A81019660E270E00E945B4B9A83898399
:1042700042E0BE016F5F7F4F80EE90E00E940343FB
:1042800089819A810F900F90DF91CF911F910F91AB
:10429000FF90EF90DF90CF900895CF93DF93EC01E4
:1042A0000E9487338E859F858130910589F1823008
:1042B000910581F18430910579F1089779F18C8528
:1042C0009D858130910561F18230910559F18430ED
:1042D000910551F1089751F18A859B8581309105AF
:1042E00039F18230910531F18430910529F1089737
:1042F00029F1888599858130910511F182309105E8
:1043000009F18430910501F1089701F180E01FC0A7
:104310008AE21DC087E31BC084E319C081E317C094
:1043200080E315C088E313C085E311C082E30FC0AA
:1043300083E20DC089E30BC086E309C083E307C0B5
:1043400084E405C083E403C082E401C081E4DF911A
:10435000CF910895CF92DF92EF92FF920F931F9328
:10436000CF93DF93EC010E9487332E853F858885AC
:1043700099852430310509F049C04C855D85483068
:10438000510519F421E02093780A2A853B852830CD
:10439000310519F462E06093780A8830910511F4D0
:1043A0001092780A4430510519F461E06093770A5D
:1043B0002430310519F462E06093770A8430910566
:1043C00011F41092770A4230510519F461E06093BC
:1043D000760A2230310519F462E06093760A823061
:1043E000910511F41092760A4130510519F441E01B
:1043F0004093750A2130310519F422E02093750AA3
:10440000019709F052C01092750A4FC08E010158F1
:104410001F4F892B51F48A859B85892B31F48C851C
:104420009D85892B11F4232B89F1F80180819181DD
:10443000A281B381892B8A2B8B2B31F461D2F801B5
:104440006083718382839383F801C080D180E2808E
:10445000F380F4EFCF0EF1E0DF1EE11CF11C50D22F
:104460006C157D058E059F05B0F4F801C080D180E4
:10447000E280F380F8ECCF0ED11CE11CF11C40D29D
:10448000C616D706E806F90630F40FC0F801108208
:10449000118212821382CE01DF91CF911F910F9171
:1044A000FF90EF90DF90CF90F8CE80E0DF91CF913A
:1044B0001F910F91FF90EF90DF90CF900895FC0136
:1044C000E45BFF4F8081918145DF813459F0823474
:1044D00061F0843469F0833271F08A3279F080E0DF
:1044E00090E0089583E090E0089584E090E00895DE
:1044F00081E090E0089582E090E0089585E090E00A
:10450000089580E99EE00E94BE326AE080E99EE064
:104510000C94D931CF92DF92EF92FF921F93CF93F9
:10452000DF93EC01662351F11C85112359F18C8135
:104530009D81AE81BF81892B8A2B8B2B29F4E0D101
:104540006C837D838E839F83CA84DB840D2C000C57
:10455000EE08FF088C819D81AE81BF81C80ED91EF7
:10456000EA1EFB1ECDD1C616D706E806F90650F4A2
:104570001C861C821D821E821F8205C01C821D8219
:104580001E821F8210E0812FDF91CF911F91FF903B
:10459000EF90DF90CF900895CF92DF92EF92FF924D
:1045A000CF93DF93EC01662361F18C8581112DC0DF
:1045B00088819981AA81BB81892B8A2B8B2B29F435
:1045C0009FD1688379838A839B83C884D9840D2C87
:1045D000000CEE08FF0888819981AA81BB81C80E72
:1045E000D91EEA1EFB1E8CD1C616D706E806F906B0
:1045F00060F481E08C878D87188219821A821B8271
:1046000005C0188219821A821B8280E0DF91CF9147
:10461000FF90EF90DF90CF900895CF93DF93EC0160
:10462000FB0124813581F9D2CE01DF91CF9108952C
:104630003FB7F8948091910990919209A0919309C4
:10464000B091940926B5A89B05C02F3F19F001969B
:10465000A11DB11D3FBFBA2FA92F982F8827820F08
:10466000911DA11DB11DBC01CD0142E0660F771F58
:10467000881F991F4A95D1F708950E94DF4ECF9366
:10468000DF93EC0188819981009711F00E94634DBE
:10469000198218821D821C821B821A82DF91CF919F
:1046A00008950F931F93CF93DF93EC018881998135
:1046B000009729F02A813B812617370788F48B0160
:1046C0006F5F7F4F0E94FB4D009761F09983888355
:1046D0001B830A832C813D81232B11F4FC01108262
:1046E00081E001C080E0DF91CF911F910F9108958B
:1046F000EF92FF920F931F93CF93DF93EC017B0117
:104700008A01BA01CEDF811103C0CE01B8DF07C034
:104710001D830C83B701888199810E94FC4ECE01D4
:10472000DF91CF911F910F91FF90EF90089590E04E
:10473000FC013197E231F10508F04EC08827EE58B0
:10474000FF4F8F4F0C94AC4B809180008F7703C04C
:10475000809180008F7D80938000089580918000FB
:10476000877FF9CF84B58F7702C084B58F7D84BDF4
:1047700008958091B0008F7703C08091B0008F7D45
:104780008093B0000895809190008F7707C080914A
:1047900090008F7D03C080919000877F8093900070
:1047A00008958091A0008F7707C08091A0008F7D31
:1047B00003C08091A000877F8093A000089580911E
:1047C00020018F7707C0809120018F7D03C08091E9
:1047D0002001877F809320010895CF93DF9390E09D
:1047E000FC01EF57F54F2491FC01E55CF54F8491F6
:1047F000882361F190E0880F991FFC01E257FE4F7A
:10480000C591D491FC01E95FF54FA591B491611177
:1048100009C09FB7F8948881209582238883EC9102
:104820002E230BC0623061F49FB7F8943881822F39
:10483000809583238883EC912E2B2C939FBF06C0F9
:104840008FB7F894E8812E2B28838FBFDF91CF910B
:104850000895863308F0865390917B00282F2870A6
:10486000977F922B90937B008770806480937C006D
:1048700080917A00806480937A0080917A0086FD2E
:10488000FCCF809178002091790090E0922B0895E0
:104890008F929F92AF92BF92CF92DF92EF92FF9250
:1048A0006B017C01C5DE4B015C01C114D104E10444
:1048B000F104E9F0BDDEDC01CB0188199909AA09F0
:1048C000BB09883E9340A105B10578F321E0C21AE7
:1048D000D108E108F10888EE880E83E0981EA11C3B
:1048E000B11CC114D104E104F10421F7DECFFF9023
:1048F000EF90DF90CF90BF90AF909F908F900895F2
:104900002FB7F89460918D0970918E0980918F096D
:10491000909190092FBF08951F920F920FB60F929A
:1049200011242F933F938F939F93AF93BF938091C5
:104930008D0990918E09A0918F09B09190093091C5
:104940008C0923E0230F2D3720F40196A11DB11D02
:1049500005C026E8230F0296A11DB11D20938C09E6
:1049600080938D0990938E09A0938F09B09390093D
:104970008091910990919209A0919309B091940925
:104980000196A11DB11D8093910990939209A09366
:104990009309B0939409BF91AF919F918F913F91EB
:1049A0002F910F900FBE0F901F901895FC018081E2
:1049B0009181009711F00C944E4F60E070E0CB01B4
:1049C0000895CF93DF93FC0124813581232B71F06F
:1049D000FB01DC01CD91DC9160817181CE010E94EF
:1049E000124F009719F08C1B9D0B02C08FEF9FEFA9
:1049F000DF91CF910895EF92FF920F931F93CF9382
:104A0000DF93FC01248135816115710511F480E08B
:104A100018C041155105A1F07B01EC018A01020F7C
:104A2000131FB8013EDE882391F3288139818C81E0
:104A30009D81B701820F931F0E94FC4E1D830C8342
:104A400081E0DF91CF911F910F91FF90EF9008953A
:104A5000CF93DF93EC016115710559F0FB010190D3
:104A60000020E9F73197AF01461B570BC4DF8111D6
:104A700002C0CE0104DECE01DF91CF910895CF9325
:104A8000DF93EC01FB014481558160817181B3DFCB
:104A9000811102C0CE01F3DDCE01DF91CF910895E7
:104AA0006115710549F0FB0101900020E9F731978C
:104AB000AF01461B570B9FCF80E00895CF93DF9344
:104AC000EC016115710551F0FB0101900020E9F73F
:104AD0003197AF01461B570B0BDE01C0D0DDCE0175
:104AE000DF91CF9108950F931F93CF93DF938C01A4
:104AF000EB018617970771F1FC0180819181009786
:104B0000B1F0688179816115710579F04281538135
:104B10002C813D814217530740F00E94FC4E8C814E
:104B20009D81F8019583848313C00E94634D888121
:104B30009981F801918380838A819B819383828309
:104B40008C819D8195838483198218821B821A82AD
:104B50001D821C82C801DF91CF911F910F91089592
:104B6000CF93DF93EC01FB018617970751F060812B
:104B700071816115710521F044815581B9DD01C054
:104B80007EDDCE01DF91CF910895FC01808191817E
:104B90000C94634DEF92FF920F931F93CF93DF938B
:104BA000CDB7DEB7A1970FB6F894DEBF0FBECDBF6D
:104BB0007C01CB01BA01F7011182108213821282AB
:104BC0001582148242E0420F8E010F5F1F4F0E9438
:104BD0002C4FBC01C70172DFA1960FB6F894DEBF5F
:104BE0000FBECDBFDF91CF911F910F91FF90EF903E
:104BF0000895FC01118210821382128215821482A0
:104C00006115710549F0FB0101900020E9F731972A
:104C1000AF01461B570B6CCD0895BF92CF92DF9228
:104C2000EF92FF920F931F93CF93DF937C016B0161
:104C30008A01E9012417350720F4812F8901C42F47
:104C4000D82F6CE978E0C701D4DFD60114968D9196
:104C50009C91159708171907C8F48C179D0708F43D
:104C6000EC01D601ED91FC911197EC0FFD1FB08086
:104C700010824D915C91BA01600F711FC7011EDF58
:104C8000D601ED91FC91EC0FFD1FB082C701DF91C1
:104C9000CF911F910F91FF90EF90DF90CF90BF9039
:104CA0000895E091B90CF091BA0C309709F019947D
:104CB00008958F929F92AF92BF92CF92DF92EF9220
:104CC000FF92CF93DF93A0917F0D882311F03A2FAD
:104CD00001C030E08091800D90E0880F991F8F5DBA
:104CE000954FC090850DD090860DE090870DF09087
:104CF000880D40E050E0BA01FC01C591D4912881B3
:104D00002A2323130FC04A015B012FEF821A920A54
:104D1000A20AB20A4C155D056E057F0538F4B5018F
:104D2000A401EACF342F252FCB0104C030E020E0CE
:104D300080E090E0632F722FDF91CF91FF90EF9092
:104D4000DF90CF90BF90AF909F908F9008951F936A
:104D5000CF93DF93182FD92FC62F40E150E060E2A8
:104D600070E08DEB9CE00E94EC4EE12FFD2FEC0FEC
:104D7000F11DEC0FF11D659174916F5F7F4F4FE056
:104D800050E08DEB9CE00E94744F20E130E040E069
:104D900050E061E070E08DEB9CE0DF91CF911F91DE
:104DA00080CF0F931F93CF938C01C62F40E150E02B
:104DB00060E270E08DEB9CE00E94EC4EC730D9F1D0
:104DC000C830D9F1C11107C0F80180814AE06DEB0C
:104DD0007CE090E013C0C13049F44AE06DEB7CE028
:104DE000F801808191810E947D4F35C0C23049F425
:104DF0004AE06DEB7CE0F801808191810E94CB4F0D
:104E00002AC0C33059F4F801608171818281938195
:104E10002AE04DEB5CE00E94874F1DC0C43079F45E
:104E2000F80160817181828193812AE04DEB5CE021
:104E30000E94AA4F10C022E003C023E001C021E07D
:104E400042E0420FF80160817181828193810DEB14
:104E50001CE00E942C4F20E130E040E050E061E097
:104E600070E08DEB9CE0CF911F910F911ACF40E144
:104E700050E060E270E08DEB9CE00E94EC4E80918F
:104E8000CF0C813039F48FE49EE69093BE0C809372
:104E9000BD0C09C08FE496E6A6E68093BD0C909306
:104EA000BE0CA093BF0C20E130E040E050E061E098
:104EB00070E08DEB9CE0F5CE81E080939A0988E666
:104EC0008093990910929809109297096FE08CE7E6
:104ED0009CE00E94DE3B8CE79CE00E944B3D61E041
:104EE00088E60E94234010929609809395098CE7EA
:104EF0009CE00C94933B0F931F93E3E8FAE06491DA
:104F0000EDE3FAE0E491882311F0462F01C040E080
:104F1000F0E0EE0FFF1FEF5DF54F8591949100E4F7
:104F200012E42FE030E00E94D6446115710581053E
:104F3000910549F0DC01CB010196A11DB11DBC0119
:104F4000CD019F7003C060E070E0CB011F910F9115
:104F50000895CF93DF93AB01BC0122E08FED9BE07E
:104F60000E94E031EC018FED9BE00E94AA318C0F92
:104F70009D1FDF91CF910895EF92FF920F931F93A2
:104F8000CF93DF937C018B01CDEADDE08D819E81A3
:104F90000E94FB43B7018D819E810E94914340E0B6
:104FA0006EEB8D819E810E9450438D819E810E9477
:104FB000E043F80180838D819E810E94E043F801E7
:104FC00081838D819E810E94E043F80182838D81DF
:104FD0009E810E94E043F80183838D819E810E941F
:104FE000E043F80184838D819E810E94E043F801B3
:104FF00085838D819E810E94E043F80186838D81A7
:105000009E810E94E043F80187838D819E810E94EA
:10501000E043F80180878D819E81DF91CF911F91C0
:105020000F91FF90EF900C94FB43CF93DF93CDB79C
:10503000DEB729970FB6F894DEBF0FBECDBFFC01D7
:105040002081203119F1BE016F5F7F4F95DF68E04D
:10505000CE0101960E9443439985891315C08D8125
:105060008F3359F018F48F3189F009C08F3519F05A
:105070008F3741F004C08BE00AC08AE008C0807F0F
:10508000803F11F48CE003C080E001C089E02996E4
:105090000FB6F894DEBF0FBECDBFDF91CF9108955C
:1050A000CF92DF92EF92FF920F931F93CF93DF93F4
:1050B000FC017196C491C1503196C590D490E62EF2
:1050C000F12CF701EE0FFF1FEC0DFD1D8591949162
:1050D0009093990C8093980C00E010E0D0E040E1B0
:1050E00050E060E270E08DEB9CE00E94EC4E21E02D
:1050F00030E040E050E00115110529F460E070E077
:1051000089EA98E004C061E070E086E299E0C9DDD8
:10511000F801EE0DFF1DCE17DF0764F0EE0FFF1F45
:10512000EC0DFD1D6591749140E150E08DEB9CE02C
:105130000E94744F20E130E041E050E0B8018DEB77
:105140009CE0AFDD0130110519F001E010E0C7CFA0
:10515000DF91CF911F910F91FF90EF90DF90CF9053
:1051600008950F931F93CF93DF93EC01FC0170968A
:105170001491113009F094C01093950C40E150E067
:10518000BC018DEB9CE00E94744F20E130E040E0D8
:1051900050E060E070E08DEB9CE083DDFE017296F4
:1051A00085919491FC0164913996A591B491611116
:1051B00004C08C918093CF0C6DC08FEF860F82302E
:1051C00040F48D919C9111979093D50C8093D40CC1
:1051D00061C08DEF860F823070F40D911D912D917D
:1051E0003C9113970093D00C1093D10C2093D20CC8
:1051F0003093D30C4FC0693029F5FD013396C5912A
:10520000D491FD0185919491FC018081FD0132963C
:10521000A4919E0160E090E09A1761F0F901459138
:105220005491FA014491481301C0692F9F5F2E5F8A
:105230003F4FF2CF6093CF0CCE01DF91CF911F9102
:105240000F9185CD6A30C9F4FD013196C591D49195
:10525000FD01A491888190E002C095958795AA955B
:10526000E2F780FF03C01093CF0C02C01092CF0C66
:10527000DF91CF911F910F91FACD0D911D912D913D
:105280003C9113970093D60C1093D70C2093D80C15
:105290003093D90CCD01DF91CF911F910F9181CD2A
:1052A000111134C061112EC020919A0C30919B0CC9
:1052B0008217930739F180919E0C90919F0C892B56
:1052C00079F08091A00C9091A10C892B61F08091D4
:1052D000A20C9091A30C892B79F482E090E005C098
:1052E00080E090E002C081E090E0880F991FFC010F
:1052F000E256F34F31832083D0939B0CC0939A0CDA
:105300001092B80C6091B80CCE0114C01230D1F4D8
:105310006296FE0185919491009711F0FC01199518
:105320008091940C882359F06091B80C80919A0C6C
:1053300090919B0CDF91CF911F910F91B1CE81E0A5
:105340008093970CDF91CF911F910F9108952F9229
:105350003F924F925F926F927F928F929F92AF9205
:10536000BF92CF92DF92EF92FF921F93CF93DF9382
:10537000CDB7DEB764970FB6F894DEBF0FBECDBFD2
:105380004296FC0185919491FC011491359685908B
:105390009590A590B490FC013196459055906590FC
:1053A0007490643009F425C22FEF260F223008F0E4
:1053B0004EC141E0613009F440E0193021F5FC01B3
:1053C000399625913491F90132969491319625912F
:1053D0003491EFEFE90F9091CF0C442339F0911104
:1053E00003C0E093CF0C0AC0915006C09E1303C0C7
:1053F0001092CF0C03C09F5F9093CF0C6091CF0CA5
:10540000C901A5DCFEC11A3051F481E09091CF0CA6
:10541000913009F480E08093CF0C29DDF2C1442360
:1054200019F02FEF3FEF02C021E030E0620173017D
:105430008091CD0C9091CE0C289F1001299F300CAB
:10544000389F300C11249101032C000C440B550B98
:10545000CA01B901298B3A8B4B8B5C8B0E94E553B7
:1054600029893A894B895C89163029F420E030E09B
:1054700040E251E406C0173039F420E030E048EC57
:1054800052E40E94204C9DC0183029F420E030E006
:105490004AE754E4F6CF111126C08091CF0C820D5B
:1054A00081149104A104B10441F4C114D104E104B4
:1054B000F10419F48093CF0C13C090E0A0E0B0E0A9
:1054C000C816D906EA06FB064CF02C013D018815EA
:1054D0009905AA05BB0514F4240135014092CF0CAF
:1054E0008FEC9CE0B1C0113011F0123071F5809159
:1054F000D40C9091D50C820D931D81149104A104BC
:10550000B10451F4C114D104E104F10429F49093DD
:10551000D50C8093D40C16C0092E000CAA0BBB0B23
:10552000C816D906EA06FB064CF02C013D01881589
:105530009905AA05BB0514F4240135014092D40C49
:105540005092D50C84ED9CE07FC0133011F01430E4
:10555000C1F58091D00C9091D10CA091D20CB0915A
:10556000D30C820F931FA41FB51F81149104A104B3
:10557000B10471F4C114D104E104F10449F480933D
:10558000D00C9093D10CA093D20CB093D30C16C036
:10559000C816D906EA06FB064CF06C017D01881599
:1055A0009905AA05BB0514F475016401C092D00CDD
:1055B000D092D10CE092D20CF092D30C80ED9CE012
:1055C00043C02091D60C3091D70C4091D80C50910B
:1055D000D90C0E94B54B2B013C0181149104A1040C
:1055E000B10441F4C114D104E104F10419F4CB0174
:1055F000D30120C0C701B6010E94E5536B017C01B5
:105600009B01AC01B201C3010E94C64C181684F084
:10561000C501B4010E94E5536B017C019B01AC0103
:10562000B201C3010E94DF5387FD02C06201730112
:10563000C601D7018093D60C9093D70CA093D80CB9
:10564000B093D90C86ED9CE0612FABDBDAC0633000
:1056500009F0D7C0FC013996A591B491193099F49D
:10566000FD013396259134914091CF0CF901E40F5F
:10567000F11DE40FF11D65917491FB016491FD0131
:10568000A591B4912AC01A3021F5FD01319665919A
:105690007491FD01A4912091CF0CFB01B0812223D4
:1056A00049F041E050E001C0440FAA95EAF74B2BC6
:1056B00040830AC021E030E001C0220FAA95EAF73A
:1056C00020952B23FB012083FB0160810E942E4348
:1056D00090C0111104C06091CF0C6C93F7CF1230C1
:1056E000A9F42091D40C3091D50C2D933C93388B98
:1056F0002F87FC013B9685919491009709F479C01E
:10570000BE01615F7F4F0E94623773C01130A1F408
:105710002091D40C3091D50C2D933C933E872D874E
:10572000FC013B9685919491009709F462C042E098
:10573000BE01635F7F4F3CC01430E9F44091D00C50
:105740005091D10C6091D20C7091D30C4D935D931C
:105750006D937C93139749875A876B877C87FC01ED
:105760003B9685919491009709F443C044E0BE01B3
:10577000675F7F4F1DC01330F1F44091D00C509102
:10578000D10C6091D20C7091D30C4D935D936D93BD
:105790007C9313974D835E836F837887FC013B96E0
:1057A00085919491009729F144E0BE016B5F7F4F92
:1057B0000E9403431EC01530E0F04091D60C50917A
:1057C000D70C6091D80C7091D90C4D935D936D936B
:1057D0007C93139749835A836B837C83FC013B96AC
:1057E00085919491009729F0BE016F5F7F4F0E94D1
:1057F0005F371092950C61E080919A0C90919B0C10
:10580000B0DC64960FB6F894DEBF0FBECDBFDF915B
:10581000CF911F91FF90EF90DF90CF90BF90AF900E
:105820009F908F907F906F905F904F903F902F90C0
:105830000895CF93DF93282F30E0F901E855FE4F0C
:105840008491F901EF57F54FD491F901E55CF54FDB
:10585000C491CC2391F081110E949723EC2FF0E0AA
:10586000EE0FFF1FEF5DF54FA591B491EC91ED2385
:1058700081E090E021F480E002C080E090E0DF91E0
:10588000CF9108951F93CF93DF93282F30E0F90134
:10589000E855FE4F8491F901EF57F54FD491F90186
:1058A000E55CF54FC491CC23C9F0162F81110E94FD
:1058B0009723EC2FF0E0EE0FFF1FE95FF54FA59166
:1058C000B4918FB7F894111105C09C91ED2FE0951C
:1058D000E92302C0EC91ED2BEC938FBFDF91CF91C8
:1058E0001F910895EF92FF920F931F93CF93DF9331
:1058F000EC0161E084E00E94ED2300E010E061E053
:1059000084E0C0DF7E01E00EF11ED7018C91B9E684
:105910008B9FC0011124823091053CF0880F991FA4
:10592000880F991F05970197F1F760E084E0AADFDF
:10593000D7011196EC91B9E6EB9FF0011124E2300A
:10594000F1053CF0EE0FFF1FEE0FFF1F359731976B
:10595000F1F70E5F1F4F0E37110589F6DF91CF91DA
:105960001F910F91FF90EF900895CF92DF92EF92E9
:10597000FF920F931F93CF93DF93CDB7DEB7C05441
:10598000D1400FB6F894DEBF0FBECDBF0E94802479
:105990000091810D1091820D2091830D3091840D25
:1059A0006B017C01C01AD10AE20AF30A40EDC41669
:1059B00047E0D406E104F10418F48091890DB5C0E4
:1059C0006093810D7093820D8093830D9093840D6D
:1059D00010927C0D10927B0D10927A0D1092790D21
:1059E0001092780D61E080917D0D4CDF6AEF70E0E0
:1059F00080E090E00E94482461E080917D0D0E944B
:105A0000ED2360E080917D0D3DDF64E170E080E09A
:105A100090E00E944824F89461E080917D0D32DF8F
:105A20008BE990E00197F1F762E080917D0D0E9493
:105A3000ED2383E290E00197F1F780E03AD9672BFC
:105A4000682B692B21F41092890D78943BC081E07A
:105A500030D9672B682B692BB1F38E010F5F1F4F75
:105A60006E018FEBC81A8EEFD80A780180E021D939
:105A7000F701608371838283938381E01AD9F701F0
:105A80006483758386839783F8E0EF0EF11CEC1432
:105A9000FD0461F7789420E030E0F8014081518105
:105AA00062817381C480D580E680F78041155105FD
:105AB0006105710529F0C114D104E104F10421F458
:105AC0001092890D80E031C0F90183E0F595E795EA
:105AD0008A95E1F7E858F24F8081880F4C155D05F3
