:100000000C945C030C9484030C9484030C94800E75
:100010000C94800E0C94800E0C9484030C94840336
:100020000C9484030C9484030C9484030C94840334
:100030000C9484030C9484030C9484030C94840324
:100040000C94801F0C9484030C946D090C94470944
:100050000C9484030C9484030C9484030C94840304
:100060000C9410130C9484037A23902390238E23F2
:10007000902378239023902390236C239023902324
:1000800081238C238A239023902390238823313546
:100090003A31313A3436004F6374203232203230F4
:1000A000313600525443204C4F535420504F574543
:1000B00052210061742B636D6764613D2264656C3D
:1000C00020616C6C220A0D0041542B434D47523D78
:1000D0000041542B434D47463D310D0053454E449E
:1000E000494E4720534D53002059454152004D4F32
:1000F0004E54480020204441590020204D494E00D4
:1001000020484F55520053455420434C4F434B0019
:100110004154480D0A004F4B001F1C1F1E1F1E1F7D
:100120001F1E1F1E1F0D0A0041544400024F4E2186
:10013000000000000000000000000000014F4646E3
:1001400021000000000000000000000000415554A4
:100150004F21000000000000000000004C013C01A5
:100160002C016D03035C016E03035C016F03035CF0
:10017000017003035C01020F270000E80300001870
:10018000017400000300000000000000710376000D
:100190000002000000000000007203540006660028
:1001A000000000000000730350000666000000001D
:1001B00000000077034C0006630000009DFFFFFF76
:1001C0007B03480006630000009DFFFFFF7F0344A0
:1001D0000002000000000000000083034000020055
:1001E0000000000000000085033C00020000000049
:1001F000000000008703380002000000000000003B
:1002000000890334000900000000000000006201C2
:10021000000006630000009DFFFFFF8B032C00061B
:10022000630000009DFFFFFF8F032800090000000E
:1002300000000000006701000006630000000000ED
:1002400000009303200006630000000000000097F8
:10025000031C000900000000000000006C01000009
:10026000023B000000000000009B03140002170086
:100270000000000000009D031000023B0000000091
:100280000000009F030C00021700000000000000A7
:10029000A103080009000000000000000071010433
:1002A0000047534D20434F44452D3E0000000000C1
:1002B000000100760147534D204D4F44452D3E002F
:1002C00000000000000100830145585445524E4192
:1002D0004C0000000000000000010090014C494764
:1002E00048204C4F57000000000000000001009D16
:1002F000014C494748204849474800000000000099
:10030000000100AA0154454D50204C4F5720202099
:10031000205B435D000100B70154454D5020484922
:1003200047482020205B435D000100C4014359433E
:100330004C4552204F464620205B535D000100D1C2
:10034000014359434C4552204F464620205B4D5DAA
:10035000000100DE014359434C4552204F4E2020FE
:10036000205B535D000100EB014359434C45522093
:100370004F4E2020205B4D5D000100F801435943A2
:100380004C455220434F4E54524F4C000001000543
:100390000246414E204F4646202020205B435D0010
:1003A000000100120246414E204F4E202020202006
:1003B0005B435D000001001F0246414E20434F4E4B
:1003C00054524F4C000000000001002C02484541EF
:1003D000544552204F464620205B435D00010039C2
:1003E00002484541544552204F4E2020205B435D3A
:1003F000000100460248454154455220434F4E54A7
:10040000524F4C0000010053024C49474854204FC2
:1004100046462020205B4D5D00010060024C4947AC
:100420004854204F46462020205B485D0001006D67
:10043000024C49474854204F4E202020205B4D5D00
:100440000001007A024C49474854204F4E2020209A
:10045000205B485D00010087024C49474854204317
:100460004F4E54524F4C00000001009402B502A1BF
:100470000219030503F102DD02C9027D0369035578
:100480000341032D03B903A5039103F503E103CD54
:10049000035904450431041D04090447534D2D3EFE
:1004A000000000000000000000000000026D045386
:1004B000455420434C4F434B2D3E000000000002AA
:1004C000002F11414C41524D204C4953542D3E00B8
:1004D00000000002001511414C41524D205345547B
:1004E0002D3E0000000000000571044359434C45B7
:1004F000522D3E000000000000000000057B044675
:10050000414E2D3E000000000000000000000000F1
:100510000385044845415445522D3E00000000002B
:1005200000000000038B044C494748542D3E000056
:10053000000000000000000005910427051305FFDE
:1005400004EB04D704C304AF049B0400000000259F
:100550000028002B000000000023002600290004D2
:10056000040404040404040202020202020303035A
:100570000303030102040810204080010204081054
:1005800020010204081020526F6F74000000000068
:100590000000000000000000083B050000000024EF
:1005A0000027002A000000000800020100000304E8
:1005B00007000000000000000000407A10F35A001D
:1005C000A0724E18090010A5D4E80000E87648177C
:1005D0000000E40B54020000CA9A3B000000E1F561
:1005E00005000080969800000040420F000000A027
:1005F0008601000000102700000000E80300000052
:10060000006400000000000A00000000000100007B
:100610000000002C76D888DC674F0823DFC1DFAEEE
:1006200059E1B1B796E5E3E453C63AE651997696B7
:10063000E8E6C28426EB898C9B62ED407C6FFCEF80
:10064000BC9C9F40F2BAA56FA5F490055A2AF75CAE
:10065000936B6CF9676DC11BFCE0E40D47FEF52060
:10066000E6B500D0ED902E03009435770500808428
:100670001E080000204E0A000000C80C333333333C
:100680000F986E12831141EF8D2114893BE65516A8
:10069000CFFEE6DB18D1844B381BF77C1D901DA4E0
:1006A000BBE424203284725E228100C9F124ECA1D3
:1006B000E53D27000731F93011241FBECFEFD8E008
:1006C000DEBFCDBF12E0A0E0B1E0E2E8F6E702C095
:1006D00005900D92A238B107D9F726E0A2E8B2E062
:1006E00001C01D92A633B207E1F713E0CBE5D3E0DA
:1006F00004C02197FE010E946433CA35D107C9F7AF
:100700000E94CA1F0C94343B0C9400000895CF92B1
:10071000DF92EF92FF920F931F93CF93DF936C01C1
:100720007A018B01C0E0D0E0CE15DF0589F0D80159
:100730006D918D01D601ED91FC910190F081E02D3C
:10074000C6010995892B11F47E0102C02196ECCFD8
:10075000C701DF91CF911F910F91FF90EF90DF9034
:10076000CF900895FC01918D828D981761F0828D54
:10077000DF01A80FB11D5D968C91928D9F5F9F73D5
:10078000928F90E008958FEF9FEF0895FC01918D77
:10079000828D981731F0828DE80FF11D858D90E0E4
:1007A00008958FEF9FEF0895FC01918D228D892F81
:1007B00090E0805C9F4F821B91098F739927089569
:1007C00080EF93E00E94D40321E0892B09F420E01C
:1007D000822F0895FC01848DDF01A80FB11DA35A5B
:1007E000BF4F2C91848D90E001968F739927848F51
:1007F000A689B7892C93A089B1898C9180648C9348
:10080000938D848D981306C00288F389E02D808132
:100810008F7D80830895EF92FF920F931F93CF9364
:10082000DF93EC0181E0888F9B8D8C8D981305C040
:10083000E889F989808185FD24C0F62E0B8D10E0B2
:100840000F5F1F4F0F731127E02E8C8DE8120CC025
:100850000FB607FCFACFE889F989808185FFF5CFCB
:10086000CE010E94EA03F1CF8B8DFE01E80FF11D4E
:10087000E35AFF4FF0820B8FEA89FB898081806207
:1008800007C0EE89FF896083E889F98980818064E7
:10089000808381E090E0DF91CF911F910F91FF90D5
:1008A000EF900895CF93DF93EC01888D8823C9F0F2
:1008B000EA89FB89808185FD05C0A889B9898C9169
:1008C00086FD0FC00FB607FCF5CF808185FFF2CF04
:1008D000A889B9898C9185FFEDCFCE010E94EA03EA
:1008E000E7CFDF91CF91089580E090E0892B29F048
:1008F0000E94E00381110C9400000895DC0126E0C1
:10090000629FA00DB11D112490965C934E935F974A
:1009100021E091962C939197FC01E459FF4F20819F
:1009200031960190F081E02D222331F0309749F08B
:10093000611107C0DC0102C0309719F05C968C9100
:10094000099408950E9480360F931F93CF93DF93ED
:10095000EC010E94741F688779878A879B87E881EA
:10096000F9810680F781E02DCE01099597FF17C028
:100970000E94741F088519852A853B85DC01CB01FF
:10098000801B910BA20BB30B0C811D812E813F812B
:1009900080179107A207B30710F38FEF9FEFDF9146
:1009A000CF911F910F9108956F927F928F929F9296
:1009B000AF92BF92CF92DF92EF92FF921F93CF93AD
:1009C000DF931F92CDB7DEB73C01162FFC0186E006
:1009D000689FE00DF11D112411A2878D90A1813037
:1009E0009105F9F01CF4892B51F04FC0823091052C
:1009F000B1F1039709F049C040E050E034C044230E
:100A000009F443C041E050E0C3010E947E040E940B
:100A1000741FF301E85AFF4F6083718382839383CD
:100A200034C049830E94741FF301E85AFF4FC0800D
:100A3000D180E280F3804B015C018C189D08AE08E8
:100A4000BF08729680819181A0E0B0E0498188154D
:100A50009905AA05BB0518F442E050E004C0411115
:100A600014C043E050E0612FC3010F90DF91CF919C
:100A70001F91FF90EF90DF90CF90BF90AF909F902D
:100A80008F907F906F900C947E040F90DF91CF91A8
:100A90001F91FF90EF90DF90CF90BF90AF909F900D
:100AA0008F907F906F900895862F0C948E1E862FC6
:100AB000642F0C94B71E862F642F0C94E71ECF92E0
:100AC000DF92EF92FF920F931F93CF93DF9301E09A
:100AD00010E002C0000F111F6A95E2F77C012FE6BB
:100AE000E20EF11C6C01ECE7CE0ED11CF601408148
:100AF00050E03197608170E0C7010E946F10C7011C
:100B00000E942D0CEC01F6018081823040F0C7017B
:100B10000E942D0C20E030E0382FC22BD32BC023B5
:100B2000D12381E090E0C017D10711F080E090E080
:100B3000DF91CF911F910F91FF90EF90DF90CF90B9
:100B40000895CF92DF92EF92FF920F931F93CF936E
:100B5000DF938C0181E090E002C0880F991F6A95B5
:100B6000E2F7E801C358DF4F442329F02881398197
:100B7000822B932B06C08095909528813981822302
:100B8000932399838883C880D980F801E558FF4F63
:100B9000808178019FE6E90EF11C91E09093A80313
:100BA0008093A7031092A6031092A503D701ED919D
:100BB000FC910190F081E02D6C2DC7010995F801A1
:100BC000E458FF4F8081823048F0D701ED91FC91CD
:100BD0000190F081E02D6D2DC7010995C7010E949C
:100BE000100FC882D982DF91CF911F910F91FF9092
:100BF000EF90DF90CF900895EF92FF920F931F93A5
:100C0000CF938C01FC01759684E0C0E060FF02C0C8
:100C10009081C92B6695815031968111F7CF413073
:100C200011F4F8014489F8018585C82BC42B78019B
:100C3000FEE0EF0EF11CF80162896C2BC7010E94E7
:100C40006D0FF801628960956C23C701CF911F91E8
:100C50000F91FF90EF900C946D0F0F931F93CF9314
:100C6000DF93062F0F70423019F440E0602F10C060
:100C7000142F262FEC0130E0B90184E075956795BB
:100C80008A95E1F7CE010E94FC05412F602FCE012D
:100C9000DF91CF911F910F910C94FC05FC0184858D
:100CA0008823A9F0218532852115310519F46111B8
:100CB00006C007C02130310521F4611102C08587CB
:100CC00001C015866585CF010E960C946D0F0895B1
:100CD000CF93DF93FC0124813581232B71F0FB013D
:100CE000DC01CD91DC9160817181CE010E94B4362E
:100CF000009719F08C1B9D0B02C08FEF9FEFDF91C7
:100D0000CF910895FC01248135816217730748F45F
:100D100080819181009729F0FC01E60FF71F808107
:100D2000089580E008950F931F93CF93DF938C0174
:100D3000EB018617970771F1FC0180819181009783
:100D4000B1F0688179816115710579F04281538133
:100D50002C813D814217530740F00E949E368C81C2
:100D60009D81F8019583848313C00E941E3588817C
:100D70009981F801918380838A819B819383828307
:100D80008C819D8195838483198218821B821A82AB
:100D90001D821C82C801DF91CF911F910F91089590
:100DA0000F931F93CF93DF93EC0188819981009774
:100DB00029F02A813B812617370788F48B016F5F62
:100DC0007F4F0E94B635009761F0998388831B831B
:100DD0000A832C813D81232B11F4FC01108281E0D8
:100DE00001C080E0DF91CF911F910F910895CF93C3
:100DF000DF93EC0188819981009711F00E941E35E4
:100E0000198218821D821C821B821A82DF91CF9167
:100E10000895EF92FF920F931F93CF93DF93EC010E
:100E20007B018A01BA010E94D006811104C0CE0163
:100E30000E94F70607C01D830C83B7018881998142
:100E40000E949E36CE01DF91CF911F910F91FF90AE
:100E5000EF900895FC01808191810C941E35FC0176
:100E6000118210821382128215821482611571051B
:100E700051F0FB0101900020E9F73197AF01461BCB
:100E8000570B0C9409070895BF92CF92DF92EF920F
:100E9000FF920F931F93CF93DF937C016B01EA01C5
:100EA00089012417350720F48D2FE901042F182F0D
:100EB00069EA71E0C7010E942F07D60114968D914F
:100EC0009C911597C817D90748F58017910708F422
:100ED0008C01D601ED91FC911197E00FF11FB080CC
:100EE00010824D915C91BA016C0F7D1F61157105E7
:100EF00061F0FB0101900020E9F73197AF01461B3B
:100F0000570BC7010E94090703C0C7010E94F706DB
:100F1000D601ED91FC91E00FF11FB082C701DF9186
:100F2000CF911F910F91FF90EF90DF90CF90BF90E6
:100F30000895CF92DF92EF92FF920F931F93CF937A
:100F4000DF9300D0CDB7DEB78C016B0169EA71E0A9
:100F50000E942F07C6010E94A40497FD1EC089832A
:100F60001A82F801E480F580FFEFEF1AFF0AB7015B
:100F7000C8010E94D006882369F3F80120813181DD
:100F800084819581BE016F5F7F4F820F931F0E9406
:100F90009E36F801F582E482DDCFC8010F900F90F4
:100FA000DF91CF911F910F91FF90EF90DF90CF9045
:100FB0000895DC01ED91FC910190F081E02D099400
:100FC000EF92FF920F931F93CF93DF938C017B01DE
:100FD000C0E0D0E0F701EC0FFD1F6491662361F0E3
:100FE000D801ED91FC910190F081E02DC8010995A7
:100FF000892B11F02196EECFCE01DF91CF911F9179
:101000000F91FF90EF9008956115710579F0FB0144
:1010100001900020E9F73197AF01461B570BDC0127
:10102000ED91FC910280F381E02D099480E090E045
:1010300008954F925F926F927F92EF92FF920F937B
:101040001F93CF93DF93CDB7DEB7A1970FB6F89478
:10105000DEBF0FBECDBF7C01FA01CB0119A2223049
:1010600008F42AE08E010F5D1F4F422E512C612C97
:10107000712CBF01A30192010E944233F901CA0100
:10108000015011096A3014F4605D01C0695CD80137
:101090006C93232B242B252B61F7B801C7010E94E9
:1010A0000408A1960FB6F894DEBF0FBECDBFDF9146
:1010B000CF911F910F91FF90EF907F906F905F9075
:1010C0004F9008954F925F926F927F928F929F926E
:1010D000AF92BF92CF92DF92EF92FF92CF93DF93C6
:1010E000EC016A017B01B22E9A01AB01C701B60186
:1010F0000E948434882319F06DE672E027C026012F
:101100003701E89477F82FEF3FEF4FE75FE7C30130
:10111000B2010E94843481110DC02FEF3FEF4FE7E1
:101120005FE7C301B2010E94C33918161CF461E7DE
:1011300072E00CC02FEF3FEF4FE75FE4C701B6014D
:101140000E947F3418169CF465E772E0CE01DF91AF
:10115000CF91FF90EF90DF90CF90BF90AF909F9096
:101160008F907F906F905F904F900C9404082FEFBA
:101170003FEF4FE75FECC701B6010E94C33987FD1F
:10118000E3CF20E030E0A901C701B6010E94C339D6
:1011900087FF0AC06DE2CE010E94D9074C01F7FA21
:1011A000F094F7F8F09402C0812C912CA12C60E00F
:1011B00070E080E09FE3AB1441F020E030E040E2DB
:1011C00051E40E94D733A394F6CF9B01AC01C70131
:1011D000B6010E946B332B013C010E9450346B011D
:1011E0007C010E94C8399B01AC01C301B2010E947D
:1011F0006A332B013C012AE0B701A601CE010E940F
:1012000019087C01E80CF91CBB2039F069E772E091
:10121000CE010E940408E80EF91EDB2CDD2029F126
:1012200020E030E040E251E4C301B2010E94293ADB
:101230002B013C010E9450344B01A12CB12C2AE01F
:10124000B501A401CE010E941908E80EF91EC501DE
:10125000B4010E94C8399B01AC01C301B2010E94D4
:101260006A332B013C01DA94D9CFC701DF91CF91CA
:10127000FF90EF90DF90CF90BF90AF909F908F90B6
:101280007F906F905F904F9008950C9404081F9288
:101290000F920FB60F9211242F933F934F935F93AA
:1012A0006F937F938F939F93AF93BF93EF93FF932E
:1012B00080EF93E00E94EA03FF91EF91BF91AF911D
:1012C0009F918F917F916F915F914F913F912F915E
:1012D0000F900FBE0F901F9018951F920F920FB690
:1012E0000F9211242F938F939F93EF93FF93E0918D
:1012F0000004F09101048081E0910604F09107045C
:1013000082FD12C09081809109048F5F8F732091BC
:101310000A04821751F0E0910904F0E0E051FC4F1B
:10132000958F8093090401C08081FF91EF919F9177
:101330008F912F910F900FBE0F901F9018952F92A5
:101340003F924F925F926F927F928F929F92AF9255
:10135000BF92CF92DF92EF92FF920F931F93CF93A2
:10136000DF93CDB7DEB72A970FB6F894DEBF0FBE76
:10137000CDBF9A8789870E94741F29853A85245A90
:101380003F4F3A832983D9010D911D912D913C91B5
:10139000AB01BC01401B510B620B730BE985FA8555
:1013A000E859FF4F80819181A0E0B0E010E0841700
:1013B0009507A607B70708F05FC169847A84F6E647
:1013C0006F0E711CE984FA8422E6E20EF11CD3014F
:1013D0008C911817A0F4E985FA8580819181F70135
:1013E000A081B181A10FB11DFC012081318142E0BA
:1013F0006C9189859A85F90109951F5FE8CF10E006
:1014000029843A84B7E62B0E311CE984FA84E4E699
:10141000EE0EF11C812C912C5401839429853A8580
:101420002E593F4F3C832B83F1018081181708F020
:101430008DC0C12ED12CA985BA858D919C91F701C3
:10144000A081B181AC0DBD1DFC012081318141E045
:101450006C9189859A85F9010995A985BA858D913F
:101460009C91F701A081B181AC0DBD1DFC012281D1
:10147000338140E06C9189859A85F9010995D50100
:10148000C401012E04C0880F991FAA1FBB1F0A9414
:10149000D2F7AC019C012095309500E0F3018081EA
:1014A000A985BA85ED91FC91081770F5802F90E021
:1014B000AB81BC816D917C912C01DB01A40DB51D2C
:1014C0000480F581E02D6C9189859A852F8338877A
:1014D0004D835E830995440C551C2F8138854D81C1
:1014E0005E81E985FA85E40DF51D892B29F4808557
:1014F0009185842B952B04C080859185822393232D
:10150000918780870F5FCACFD7018D919C91DC01B5
:10151000AC0DBD1D0280F381E02D41E06C91898509
:101520009A850995A985BA85ED91FC91D7018D9190
:101530009C91DC01AC0DBD1D0190F081E02D40E0DF
:101540006C9189859A8509951F5F6ECFE984FA842D
:10155000FCE1EF0EF11C89859A85885A9F4FF701AF
:101560002FEF3FEF43815481452B21F410823283CA
:10157000218315823696E817F907A1F7B12CC984A3
:10158000DA8420E6C20ED11C86E0A82EF301808109
:10159000B81608F059C0912C09851A850B0D111D3C
:1015A0000B0D111D085F1F4FD1018C91981608F08B
:1015B00049C0D8014D915C91092C02C056954795C0
:1015C0000A94E2F741705527B89EC0011124890D95
:1015D000911DD601ED91FC91E80FF91FA081E985DD
:1015E000FA8560E0258D368D2817390721F4417082
:1015F00089859A851CC06F5F36966A3099F7452BAE
:10160000F9F0F70160E070E02081211113C0A69E7F
:10161000F001A79EF00D112429853A85E20FF31FF2
:10162000A48F968F858F10A2178E41E0C9010E946A
:10163000D40406C06F5F7F4F36966A30710521F77C
:101640009394B2CFB394A2CFE985FA85B1968985F8
:101650009A85835A9F4F10E02081211111E0369620
:10166000E817F907C9F70E94741FA981BA816D9321
:101670007D938D939C931397812F2A960FB6F894A0
:10168000DEBF0FBECDBFDF91CF911F910F91FF90B5
:10169000EF90DF90CF90BF90AF909F908F907F9012
:1016A0006F905F904F903F902F90089521E001C080
:1016B000220F6A95EAF7DC011C962C931C971A9668
:1016C0005C934E931997ED91FC910084F185E02D88
:1016D00060E00994DC01ED91FC910284F385E02D3A
:1016E00041E0099581E090E00895089508952091E2
:1016F0008402309185022817390771F49091820293
:1017000080918302981741F0E0918202F0E0EA5163
:10171000FD4F808190E008958FEF9FEF0895089529
:101720001F93CF93DF93DC015C962D913C915D97E5
:101730002115310539F481E090E013969C938E9346
:1017400012973DC05196ED91FC91529750969C9105
:101750005097892F80951FB75E964C915E9741FBFD
:10176000772770F941FD6095F8944081772311F057
:10177000492B01C048234083E9012197F1F748E054
:10178000508160FF02C0592B01C058235083E901EA
:101790002197F1F76695415099F7772321F09081D1
:1017A0008923808303C08081982B90831FBF5C9620
:1017B0008D919C915D970197F1F721E030E0C9018F
:1017C000DF91CF911F91089520918402309185027D
:1017D0002817390771F4809183022091820290E0EA
:1017E000805C9F4F821B910960E470E00E942E3361
:1017F000089580E090E00895209184023091850260
:1018000028173907B9F490918202809183029817C2
:1018100089F0E0918202F0E0EA51FD4F8081209151
:10182000820230E02F5F3F4F2F73332720938202D5
:1018300090E008958FEF9FEF08950895E091A4033D
:101840008091A303E81730F4F0E0E755FC4F808166
:1018500090E008958FEF9FEF08959091A4038091F9
:10186000A303981750F4E92FF0E0E755FC4F2081CF
:1018700030E09F5F9093A40302C02FEF3FEFC901B8
:1018800008958091A30390E02091A403821B910905
:101890000895EF92FF920F931F93CF93DF937C01F4
:1018A0008C01C0E0D0E0F80186890E948E1E892B51
:1018B00051F42696CC0FDD1FCC0FDD1FCE0DDF1DA2
:1018C0008881998108C021960C5F1F4FC530D105D2
:1018D00051F780E090E0DF91CF911F910F91FF9041
:1018E000EF900895CF92DF92EF92FF920F931F93A4
:1018F000CF93DF937C01262F972F8A018091A80335
:10190000882391F0C62FD72F6E01C40ED51ECC159B
:10191000DD0571F06991D701ED91FC910190F081A5
:10192000E02DC7010995F3CF642F822F0E943E144A
:10193000C801DF91CF911F910F91FF90EF90DF9041
:10194000CF900895CF93DF931F92CDB7DEB7698311
:101950002091A8032223D1F02091A503203240F04A
:1019600021E030E0FC013383228380E090E015C069
:101970008091A603E82FF0E0EA53FD4F9981908310
:101980008F5F8093A6038093A50305C061E0CE011D
:1019900001960E943E1481E090E00F90DF91CF917C
:1019A0000895DC01ED91FC910284F385E02D40E087
:1019B0000994DC01ED91FC910084F185E02D6FEF3D
:1019C000099461E00E94D10C8BE39FE10197F1F74C
:1019D00008950F931F93CF93DF93EC01423018F0DB
:1019E0008C8188608C834F836887222329F0413063
:1019F00019F48C8184608C8364E670E080E090E070
:101A00000E943A1F6C8164FD31C0E881F981028433
:101A1000F385E02D42E063E0CE0109958BE496E486
:101A20000197F1F7E881F9810284F385E02D42E026
:101A300063E0CE01099503E512E0C8010197F1F7D3
:101A4000E881F9810284F385E02D42E063E0CE0174
:101A50000995C8010197F1F7E881F9810284F385BE
:101A6000E02D42E062E0CE01099517C06062CE0130
:101A70000E94D10C8BE496E40197F1F76C816062CF
:101A8000CE010E94D10C03E512E0C8010197F1F7E5
:101A90006C816062CE010E94D10CC8010197F1F700
:101AA0006C816062CE010E94D10C8BEE90E00197B8
:101AB000F1F784E08D836CE0CE010E94D10CCE0161
:101AC0000E94E10C82E08E8366E0CE010E94D10C80
:101AD000CE01DF91CF911F910F910C94D90CCF9231
:101AE000DF92FF920F931F93CF93DF931F92CDB797
:101AF000DEB78C010D5F1F4FF62E6B018C2D8F19F9
:101B0000841758F4C80149830E94E73AF60181938B
:101B10006F010F5F1F4F4981F1CF0F90DF91CF9180
:101B20001F910F91FF90DF90CF900895CF92DF9299
:101B3000FF920F931F93CF93DF931F92CDB7DEB722
:101B40008C010D5F1F4FF62E6B018C2D8F198417A2
:101B500058F4F60161916F01C80149830E94EF3A80
:101B60000F5F1F4F4981F1CF60E080E090E00F9060
:101B7000DF91CF911F910F91FF90DF90CF900C9448
:101B8000EF3ACF93DF931F92CDB7DEB769830B9601
:101B9000FC0185919491009729F0BE016F5F7F4F02
:101BA0000E9472140F90DF91CF910895FC019081F3
:101BB00090539A3008F090E0818180532AE0929F00
:101BC000800D11240895CF92DF92EF92FF92CF9370
:101BD000DF93EC01CB01BA01605873448D46984302
:101BE0002CE3C22ED12CE12CF12CA70196010E94EE
:101BF00042336D83CA01B901A70196010E944233A5
:101C00006C83CA01B90128E130E040E050E00E9455
:101C100042336B83188263E97EEF8881482F4370DB
:101C200091E009F090E0492F50E0FA01E359FE4FAE
:101C30002E173F0740F0FB01E41BF50B2E0F3F1F53
:101C40008F5F8883EACF81E089838981E82FF0E084
:101C5000E85EFE4FE491992319F0823009F4EF5FBA
:101C6000F0E02E173F0720F02E1B3F0B8F5FECCFCD
:101C70002F5F2A83DF91CF91FF90EF90DF90CF907D
:101C800008950F931F93CF93DF938C01EB01888509
:101C9000882331F069EA71E0C8010E942F072AC049
:101CA000198218828AE096E00E94E40B288139812B
:101CB000892B81F4203E8EE2380764F46DE070E0F9
:101CC00080E090E00E943A1F888199810196998373
:101CD0008883E8CF2131374214F081E088878AE099
:101CE00096E00E94E40B892B29F06AE076E0C801B7
:101CF0000E949907C801DF91CF911F910F9108951C
:101D00001F920F920FB60F9211242F933F934F9370
:101D10005F936F937F938F939F93AF93BF93EF9353
:101D2000FF93E0918402F0918502309709F451C04D
:101D3000968DA685B785858591FF04C09C918923E2
:101D400029F447C09C91892309F043C0A389B48931
:101D50009C918589809589238C93868997890197A1
:101D6000F1F7608D718DA685B785558538E020E047
:101D7000CB010197F1F7822F90E095958795282F59
:101D80004C91452309F02068315091F7868D81FDF3
:101D900020958091830290E001968F73992730916E
:101DA0008202381749F0A0918302B0E0AA51BD4FDA
:101DB0002C938093830203C0868D8160868F828DF1
:101DC000938D0197F1F7A389B4899C918589892B1B
:101DD0008C93FF91EF91BF91AF919F918F917F91E4
:101DE0006F915F914F913F912F910F900FBE0F9088
:101DF0001F901895E0918402F0918502E817F90789
:101E000069F4A389B4899C918589809589238C93F1
:101E1000109285021092840281E0089580E0089576
:101E20002091A5039091A703213208F04AC0809128
:101E3000EF038111FCCF32E03093EF0331E03093B8
:101E4000EE033FEF3093ED031092EC032093EB038E
:101E5000A6ECB2E049EC53E0FA013E2F341B3217F6
:101E600018F43D913193F9CF1092EA032091EA03DF
:101E7000990F922B9093EA039091E903913061F4CA
:101E80001092E9039091EA039093BB009091BC00FB
:101E900093FDF8CF95EC01C095EE9093BC00909126
:101EA000EF039230E1F39091ED039F3F79F0809141
:101EB000ED03803241F08091ED03803331F084E016
:101EC00005C081E003C082E001C083E01092A60358
:101ED0001092A5031092A8030895FC0123812223E8
:101EE000C9F09181909569236083828191E09093FC
:101EF000A8038093A7031092A6031092A5038DE870
:101F000094E00E94A20C8DE894E00E94100F282F0C
:101F100030E002C020E030E081E090E0232B11F0BF
:101F200080E090E00895FF920F931F93CF93DF938B
:101F3000EC01162F042FF22E8B85888B8DE894E010
:101F40000E94EA12888991E09093A8038093A703E6
:101F50001092A6031092A5038DE894E00E94100F42
:101F600091E0811190E0998B992329F08DE894E01C
:101F70000E942D0C8E878989882339F01F861C8248
:101F800060E0CE010E960E946D0F2F2D402F612F25
:101F9000CE01DF91CF911F910F91FF900C94E90C2E
:101FA000FF920F931F93CF93DF938C01FF24F39441
:101FB000F092A803D8E6D093A7031092A60310923C
:101FC000A50360E08DE894E00E94A20CF801258151
:101FD000CAE0822F6C2F0E940E33682F660F860F87
:101FE000682F660F620F8DE894E00E94A20CF80142
:101FF0002481822F6C2F0E940E33682F660F860F6C
:10200000682F660F620F8DE894E00E94A20CF80121
:102010002381822F6C2F0E940E33682F660F860F4C
:10202000682F660F620F8DE894E00E94A20C60E0BA
:102030008DE894E00E94A20CF8012281822F6C2F7F
:102040000E940E33682F660F860F682F660F620F8F
:102050008DE894E00E94A20CF8012181822F6C2F60
:102060000E940E33682F660F860F682F660F620F6F
:102070008DE894E00E94A20CF8012081822F6C2F41
:102080000E940E33682F660F860F682F660F620F4F
:102090008DE894E00E94A20C8DE894E00E94100F5D
:1020A0000E949518C82FF092A803D093A70310920E
:1020B000A6031092A5036FE08DE894E00E94A20CA5
:1020C0006C2F6F778DE894E00E94A20C8DE894E06D
:1020D000DF91CF911F910F91FF900C94100F862FDD
:1020E000413208F040E2642F0E94D2171092A403FC
:1020F0008093A3030895CF92DF92EF92FF920F9304
:102100001F93CF93DF93EC0181E08093A80388E6CF
:102110008093A7031092A6031092A50360E08DE8B8
:1021200094E00E94A20C8DE894E00E94100F47E01A
:1021300050E068E670E08DE894E00E946F108DE852
:1021400094E00E942D0C8F77982F92959F701AEF34
:10215000082F919F000D11248DE894E00E942D0C12
:102160009C01332794E0359527959A95E1F7F82E51
:10217000129FF00C11248DE894E00E942D0C9C011C
:10218000332744E0359527954A95E1F7E82E129FCD
:10219000E00C11248DE894E00E942D0C8DE894E071
:1021A0000E942D0C9C01332754E0359527955A95B4
:1021B000E1F7D82E129FD00C11248DE894E00E94F4
:1021C0002D0C9C01332764E0359527956A95E1F73E
:1021D000C82E129FC00C11248DE894E00E942D0C93
:1021E0009C01332774E0359527957A95E1F7129F86
:1021F000800D11248883C982DA82EB82FC820D83F0
:10220000CE01DF91CF911F910F91FF90EF90DF9062
:10221000CF90089585ED8093BC008091BC0084FD33
:10222000FCCF1092EF030895089510929F0481E06F
:1022300090E090939E0280939D0210929C021092D7
:102240009B021092870210928802109289021092CB
:102250008A021092860287EE94E00C94E10CCF93F0
:10226000DF9300D000D000D0CDB7DEB710929F042E
:1022700082E090E090939E0280939D02CE010196B1
:102280000E947B1086E0FE013196A4E0B6E001904A
:102290000D928A95E1F710929C0210929B02109287
:1022A0008702109288021092890210928A0210927C
:1022B000860287EE94E00E94E10C26960FB6F89411
:1022C000DEBF0FBECDBFDF91CF910895CF93C62F54
:1022D000482F50E060E070E087EE94E00E9416180E
:1022E000CC2311F06DE401C061E487EE94E0CF915E
:1022F0000C94D9078091FD05811110C08091EF05E4
:1023000081110CC08091E105811108C08091D30535
:10231000811104C08091C505882321F080919F021E
:10232000882329F087EE94E00E94D90C0BC0E0913D
:10233000E704F091E8040084F185E02D60E087EE89
:1023400094E0099560E080E00E9448188091FC05C7
:10235000882331F080919F02882331F06BE20BC01B
:102360008091EE05811102C060E205C080919F025C
:102370008823D1F36DE287EE94E00E94D90764E7E9
:1023800087EE94E00E94D9076091970270919802BD
:102390008091990290919A020E944934675F7F4F21
:1023A0006331710528F460E387EE94E00E94D90759
:1023B00040919702509198026091990270919A020F
:1023C00022E087EE94E00E94620860E086E00E94CE
:1023D00048186BE772E087EE94E00E94450960912F
:1023E0009702709198028091990290919A020E94AE
:1023F0004934675F7F4F6331710528F460E387EEEE
:1024000094E00E94D9074091930250919402609108
:1024100095027091960222E087EE94E00E94620895
:1024200060E08AE00E94481860E287EE94E00E9433
:10243000D907809101068A3028F460E387EE94E0A2
:102440000E94D9074091010650E060E070E02AE068
:1024500087EE94E00E94190880919F02882341F042
:102460008091C405882311F061E203C06AE301C0D2
:1024700060E287EE94E00E94D907809102068A30DC
:1024800028F460E387EE94E00E94D90740910206A9
:1024900050E060E070E02AE087EE94E00E941908C6
:1024A00061E080E00E9448188091E005882341F0B7
:1024B00080919F02882311F06BE221C060E21FC06F
:1024C0008091D205882331F080919F028823B1F357
:1024D0006DE215C020917303309174034091750330
:1024E0005091760360918F027091900280919102D9
:1024F000909192020E947F34181604F76AE287EEE8
:1025000094E00E94D90765EB71E087EE94E00E94A9
:1025100045096091700380918E020E94661164EFFC
:1025200071E087EE94E00E94450960916F0380910D
:102530008D020E94661167EF71E087EE94E00E94C1
:10254000450960916E0380918C020E9466116AEFCA
:1025500071E087EE94E00E94450960916D038091DF
:102560008B020C946611CF92DF92EF92FF920F9341
:102570001F93CF93DF9300D0CDB7DEB78C017901E5
:1025800087EE94E04A8369830E94D90C69814A816D
:10259000842F0E9448186801C601801B910B8E157C
:1025A0009F056CF4F60161916F018FED860F8E35FA
:1025B00008F060E287EE94E00E946A0BEDCF0F9086
:1025C0000F90DF91CF911F910F91FF90EF90DF90CF
:1025D000CF9008951092A4031092A3031092A60323
:1025E0001092A5031092EF0381E08093EE03109206
:1025F000E90361E082E10E94B71E61E083E10E948D
:10260000B71EE9EBF0E080818E7F808380818D7F33
:10261000808388E48093B80085E48093BC000895AB
:102620001F920F920FB60F9211242F933F934F9347
:102630005F936F937F938F939F93AF93BF93EF932A
:10264000FF938091B900887F803609F49CC068F5BB
:10265000883209F45BC090F4803109F454C038F436
:10266000882309F4F6C0883009F44DC0F6C08831DB
:1026700009F44CC0803209F45DC0EFC0803409F425
:1026800068C048F4803309F455C0883309F0E5C0C8
:102690008093ED03D8C0803509F44FC0883509F424
:1026A0005DC0883409F0D9C0D6C0883909F4C7C0E4
:1026B000A8F4883709F467C038F4883609F463C091
:1026C000803709F460C0C9C0883809F4B8C08039BF
:1026D00009F45FC0803809F0C0C05BC0803B09F4DA
:1026E00086C038F4803A09F466C0883A09F47FC09D
:1026F000B4C0803C09F4A7C0883C09F4A4C0883B5E
:1027000009F48AC0AAC08091EA0310C09091EC033A
:102710008091EB03981770F5E091EC0381E08E0F48
:102720008093EC03F0E0E753FC4F80818093BB0083
:1027300085EC86C08093ED038EC0E091EC0381E0D0
:102740008E0F8093EC038091BB00F0E0E753FC4FC9
:1027500080839091EC038091EB036EC0E091EC03D9
:1027600081E08E0F8093EC038091BB00F0E0E75393
:10277000FC4F80838091EE0381116DC081E08093D6
:10278000E90384EA61C083E08093EF0310926C0355
:10279000CFCF80916C03803208F051C0E0916C0380
:1027A00081E08E0F80936C038091BB00F0E0E45BCE
:1027B000FC4F8083BDCF85EC8093BC001092EF036B
:1027C00080916C03803230F4E0916C03F0E0E45BC4
:1027D000FC4F108260916C0370E0E0914A03F0912D
:1027E0004B038CE493E0099510926C0336C084E0AF
:1027F0008093EF031092490310924803E09146033F
:10280000F0914703099580914803811105C081E04B
:102810008093480310922603E091490381E08E0FD4
:1028200080934903F0E0EA5DFC4F80818093BB0018
:102830009091490380914803981708F479CF85E86F
:102840008093BC000AC085EC8093BC001092EF031B
:1028500004C01092ED030E940A11FF91EF91BF9105
:10286000AF919F918F917F916F915F914F913F9128
:102870002F910F900FBE0F901F9018954091480315
:10288000262F30E0240F311D21323105DCF4209158
:10289000EF032430C9F4FC0180E090E0861758F47F
:1028A000309148032191DC01AA5DBC4FA30FB11DFB
:1028B0002C930196F3CF80914803680F60934803EF
:1028C00080E0089581E0089582E0089544E00C944A
:1028D000960D42E00C94960D44E00C946F0D42E08E
:1028E0000C946F0D41E00C94960D662321F081E06D
:1028F000623009F080E00895EF92FF920F931F93EA
:10290000CF93DF9300D0CDB7DEB78C017B0142E0DF
:10291000BE016F5F7F4F88E790E00E946F0D2981B5
:102920003A8121503109283031051CF43A8329833A
:1029300002C01A82198268E070E09B01201B310BF3
:1029400089819A81820F931F0E942E339A838983F3
:1029500000E010E0B701600F711F89819A8124E0C7
:10296000880F991F2A95E1F784589F4F41E0800F07
:10297000911F0E946F0D0F5F1F4F0031110551F71E
:10298000F701108A0F900F90DF91CF911F910F9157
:10299000FF90EF900895CF92DF92EF92FF920F9306
:1029A0001F93CF93DF9300D0CDB7DEB78C01F62E07
:1029B00080919705803309F443C081E3681340C0D8
:1029C0008091AB059091AC05A091AD05B091AE059D
:1029D000892B8A2B8B2BA1F580917103823080F19A
:1029E00063E480EF93E00E94D90767EA71E080EF2B
:1029F00093E00E940408C090A705D090A80568E263
:102A000071E08AE096E00E94E007B6018AE096E075
:102A10000E94450965E271E08AE096E00E94E007C5
:102A20008091A0029091A102A091A202B091A30274
:102A30008093AB059093AC05A093AD05B093AE0524
:102A40008091000668018A3048F4EFEFCE1ADE0A62
:102A50004AE0B80180E090E00E94F73680910006DD
:102A60004AE0B60190E00E94F7368FE2F8018283D7
:102A7000B8016D5F7F4F8091FF058A3040F44AE0D6
:102A800080E090E00E94F736C8010496BC01809176
:102A9000FF054AE090E00E94F73680E2F801858366
:102AA000B8016A5F7F4F809101068A3040F44AE0A6
:102AB00080E090E00E94F736C8010796BC01809143
:102AC00001064AE090E00E94F7368AE3F801808729
:102AD000B801675F7F4F809102068A3040F44AE078
:102AE00080E090E00E94F736C8010A96BC01809110
:102AF00002064AE090E00E94F73680E2F801838700
:102B0000F78642E0BE016F5F7F4F88E790E00E944A
:102B10006F0D89819A81089714F01A821982E12C2D
:102B2000F12CB8016E0D7F1D89819A8124E0880FF8
:102B3000991F2A95E1F784589F4F41E08E0D9F1D04
:102B40000E94960DFFEFEF1AFF0A80E1E816F104EC
:102B500041F789819A81019668E070E00E942E33E6
:102B60009A83898342E0BE016F5F7F4F88E790E0E0
:102B70000E94960D89819A810F900F90DF91CF91DD
:102B80001F910F91FF90EF90DF90CF900895CF931A
:102B9000DF93EC010E949F098E859F85813091050E
:102BA00089F18230910581F18430910579F108979E
:102BB00079F18C859D858130910561F18230910597
:102BC00059F18430910551F1089751F18A859B851F
:102BD0008130910539F18230910531F184309105D0
:102BE00029F1089729F1888599858130910511F19E
:102BF0008230910509F18430910501F1089701F1C6
:102C000080E01FC08AE21DC087E31BC084E319C0B7
:102C100081E317C080E315C088E313C085E311C0CA
:102C200082E30FC083E20DC089E30BC086E309C0D5
:102C300083E307C084E405C083E403C082E401C0E9
:102C400081E4DF91CF910895CF92DF92EF92FF92CE
:102C50000F931F93CF93DF93EC010E949F092E8562
:102C60003F85888599852430310509F049C04C8518
:102C70005D854830510519F421E0209370032A85C1
:102C80003B852830310519F462E060937003883089
:102C9000910511F4109270034430510519F461E06C
:102CA00060936F032430310519F462E060936F0381
:102CB0008430910511F410926F034230510519F4DC
:102CC00061E060936E032230310519F462E0609395
:102CD0006E038230910511F410926E03413051055C
:102CE00019F441E040936D032130310519F422E0DD
:102CF00020936D03019709F056C010926D0353C0E5
:102D00008E0101581F4F892B51F48A859B85892B91
:102D100031F48C859D85892B11F4232BA1F1F801C9
:102D200080819181A281B381892B8A2B8B2B39F4ED
:102D30000E94741FF8016083718382839383F8017A
:102D4000C080D180E280F380F4EFCF0EF1E0DF1E8F
:102D5000E11CF11C0E94741F6C157D058E059F05FA
:102D6000B8F4F801C080D180E280F380F8ECCF0E97
:102D7000D11CE11CF11C0E94741FC616D706E80680
:102D8000F90630F410C0F801108211821282138209
:102D9000CE01DF91CF911F910F91FF90EF90DF90C7
:102DA000CF900C94C71580E0DF91CF911F910F91C8
:102DB000FF90EF90DF90CF900895FC01E45BFF4F10
:102DC000808191810E942416813459F0823461F00F
:102DD000843469F0833271F08A3279F080E090E0D7
:102DE000089583E090E0089584E090E0089581E004
:102DF00090E0089582E090E0089585E090E00895E5
:102E0000CF92DF92EF92FF920F931F93FC01662304
:102E100081F18485882389F1448155816681778198
:102E2000C090A002D090A102E090A202F090A30274
:102E3000452B462B472B21F4C482D582E682F782AC
:102E400042855385052E000C660B770B0481158196
:102E500026813781400F511F621F731F4C155D057E
:102E60006E057F0550F4148614821582168217822F
:102E700005C0148215821682178280E01F910F917F
:102E8000FF90EF90DF90CF9008950F931F93FC0178
:102E9000662391F18485811133C080819181A28163
:102EA000B3810091A0021091A1022091A202309161
:102EB000A302892B8A2B8B2B21F40083118322837D
:102EC000338380859185092E000CAA0BBB0B4081B2
:102ED000518162817381840F951FA61FB71F8017D0
:102EE0009107A207B30760F481E084878587108289
:102EF00011821282138205C0108211821282138203
:102F000080E01F910F9108958F929F92AF92BF9290
:102F1000CF92DF92EF92FF92CF93DF93A0918A0539
:102F2000882311F03A2F01C030E080918B0590E0AA
:102F3000880F991F8B5A9A4FC0909005D090910599
:102F4000E0909205F090930540E050E0BA01FC015A
:102F5000C591D49128812A2323130FC04A015B0114
:102F60002FEF821A920AA20AB20A4C155D056E056D
:102F70007F0538F4B501A401EACF342F252FCB010A
:102F800004C030E020E080E090E0632F722FDF91FA
:102F9000CF91FF90EF90DF90CF90BF90AF909F9038
:102FA0008F9008959091EF039111FCCF91E0909351
:102FB000EF039093EE032FEF2093ED031092EC03B9
:102FC000260F2093EB039093EA039091EA03880F76
:102FD000892B8093EA038091E903813061F4109298
:102FE000E9038091EA038093BB008091BC0083FDDC
:102FF000F8CF85EC01C085EE8093BC008091EF0393
:103000008130E1F38091EC03861710F46091EC03BA
:10301000A9ECB3E029EA33E0F9018E2F821B861771
:1030200018F48D918193F9CF862F0895CF92DF9276
:10303000EF92FF920F931F93CF93DF9377FF1DC003
:103040006A017B01EC016DE20E94D9078C014427E3
:103050005527BA014C195D096E097F092AE0CE0196
:103060000E941908800F911FDF91CF911F910F913E
:10307000FF90EF90DF90CF9008952AE0DF91CF91FD
:103080001F910F91FF90EF90DF90CF900C94190853
:10309000CF93DF93CDB7DEB728970FB6F894DEBF96
:1030A0000FBECDBF1D8290E49E8324E12F8324E5D3
:1030B000288719829A8390E19B8390E59C83909165
:1030C000EE04691710F06FEF690F4091EF04262F9F
:1030D00030E0FE01E20FF31F403121F4943011F48F
:1030E000918101C09581682F690F606887EE94E037
:1030F00028960FB6F894DEBF0FBECDBFDF91CF91FB
:103100000C94D10CCF93DF93BC0180EF93E00E942D
:10311000E007EC0167EA71E080EF93E00E940408A9
:103120008C0F9D1FDF91CF91089581E08093A803BC
:1031300088E68093A7031092A6031092A5036FE080
:103140008DE894E00E94A20C8DE894E00E94100F9C
:1031500061E088E60E94D2171092A4038093A30333
:103160008DE894E00E942D0C0895CF92DF92EF92AB
:10317000FF920F931F93CF93DF93CDB7DEB7C05469
:10318000D1400FB6F894DEBF0FBECDBF0E94741FB2
:1031900000918C0510918D0520918E0530918F0541
:1031A0006B017C01C01AD10AE20AF30A40EDC41691
:1031B00047E0D406E104F10418F480919405BCC002
:1031C00060938C0570938D0580938E0590938F0589
:1031D000109287051092860510928505109284053D
:1031E0001092830561E0809188050E94B71E6AEF06
:1031F00070E080E090E00E943A1F61E080918805D5
:103200000E94E71E60E0809188050E94B71E64E17D
:1032100070E080E090E00E943A1FF89461E08091B5
:1032200088050E94B71E8BE990E00197F1F762E0F4
:10323000809188050E94E71E83E290E00197F1F7F4
:1032400080E00E948417672B682B692B21F4109271
:10325000940578943EC081E00E948417672B682B08
:10326000692BA9F38E010F5F1F4F6E018FEBC81AF8
:103270008EEFD80A780180E00E948417F7016083FE
:1032800071838283938381E00E948417F7016483B2
:10329000758386839783F8E0EF0EF11CEC14FD0430
:1032A00051F7789420E030E0F8014081518162814B
:1032B0007381C480D580E680F78041155105610592
:1032C000710529F0C114D104E104F10421F4109234
:1032D000940580E031C0F90183E0F595E7958A9582
:1032E000E1F7ED57FA4F8081880F4C155D056E05AB
:1032F0007F0508F4816080832F5F3F4F085F1F4F79
:103300002832310589F62091870530E04091830508
:103310008091840590E0840F911D40918505840F74
:10332000911D40918605840F911D99272817390713
:1033300071F681E080939405C05CDE4F0FB6F8947F
:10334000DEBF0FBECDBFDF91CF911F910F91FF90D8
:10335000EF90DF90CF900895E091C404F091C50400
:10336000309709F009940895CF92DF92EF92FF927F
:103370000F931F93CF93DF93FC017196C491C150BB
:103380003196C590D490E62EF12CF701EE0FFF1F79
:10339000EC0DFD1D859194919093A4048093A3045A
:1033A00000E010E0D0E040E150E060E270E088EC46
:1033B00094E00E948E3621E030E040E050E00115BC
:1033C000110529F460E070E08EE792E004C061E04E
:1033D00070E080E892E00E94AC19F801EE0DFF1D4C
:1033E000CE17DF0764F0EE0FFF1FEC0DFD1D65919A
:1033F000749140E150E088EC94E00E94EE3620E1C8
:1034000030E041E050E0B80188EC94E00E94AC1953
:103410000130110519F001E010E0C5CFDF91CF9127
:103420001F910F91FF90EF90DF90CF9008950F9331
:103430001F93CF938C01C62F40E150E060E270E013
:1034400088EC94E00E948E36C730D9F1C830D9F1AB
:10345000C11107C0F80180814AE068EC74E090E097
:1034600013C0C13049F44AE068EC74E0F80180818F
:1034700091810E94F73635C0C23049F44AE068ECC9
:1034800074E0F801808191810E9433372AC0C330F3
:1034900059F4F80160817181828193812AE048ECBE
:1034A00054E00E9402371DC0C43079F4F8016081F5
:1034B0007181828193812AE048EC54E00E941137A7
:1034C00010C022E003C023E001C021E042E0420F2F
:1034D000F801608171818281938108EC14E00E947F
:1034E000CE3620E130E040E050E061E070E088EC72
:1034F00094E0CF911F910F910C94AC1940E150E0F2
:1035000060E270E088EC94E00E948E368091DA04EC
:10351000813039F48FE49EE69093C9048093C80407
:1035200009C08FE496E6A6E68093C8049093C90488
:10353000A093CA0420E130E040E050E061E070E098
:1035400088EC94E00C94AC19833081F028F481303D
:1035500099F08230A1F008958730A9F08830B9F051
:103560008430D1F4809180008F7D03C080918000F1
:103570008F7780938000089584B58F7702C084B5DB
:103580008F7D84BD08958091B0008F7703C08091B6
:10359000B0008F7D8093B00008953FB7F89480917C
:1035A000290690912A06A0912B06B0912C0626B5EB
:1035B000A89B05C02F3F19F00196A11DB11D3FBF6B
:1035C000BA2FA92F982F8827820F911DA11DB11DF9
:1035D000BC01CD0142E0660F771F881F991F4A95F5
:1035E000D1F708951F93CF93DF93182FD92FC62FAC
:1035F00040E150E060E270E088EC94E00E948E369A
:10360000E12FFD2FEC0FF11DEC0FF11D6591749171
:103610006F5F7F4F4FE050E088EC94E00E94EE3601
:1036200020E130E040E050E061E070E088EC94E0C0
:10363000DF91CF911F910C94AC190F931F93CF93EF
:10364000DF93EC01FC0170961491113009F098C0E1
:103650001093A00440E150E0BC0188EC94E00E948B
:10366000EE3620E130E040E050E060E070E088ECD1
:1036700094E00E94AC19FE01729685919491FC0130
:1036800064913996A591B491611104C08C91809395
:10369000DA046FC08FEF860F823040F48D919C91D9
:1036A00011979093E0048093DF0463C08DEF860F41
:1036B000823070F40D911D912D913C9113970093E0
:1036C000DB041093DC042093DD043093DE0451C04E
:1036D000693031F5FD013396C591D491FD01859195
:1036E0009491FC018081FD013296A4919E0160E0DD
:1036F00090E09A1761F0F90145915491FA014491D3
:10370000481301C0692F9F5F2E5F3F4FF2CF609338
:10371000DA04CE01DF91CF911F910F910C94F21A30
:103720006A30D1F4FD013196C591D491FD01A49187
:10373000888190E002C095958795AA95E2F780FF71
:1037400003C01093DA0402C01092DA04DF91CF9123
:103750001F910F910C947E1A0D911D912D913C910A
:1037600013970093E1041093E2042093E304309351
:10377000E404CD01DF91CF911F910F910C94171AA2
:10378000111134C061112EC02091A5043091A604FE
:103790008217930739F18091A9049091AA04892B8B
:1037A00079F08091AB049091AC04892B61F0809109
:1037B000AD049091AE04892B79F482E090E005C0CD
:1037C00080E090E002C081E090E0880F991FFC014A
:1037D000E755FB4F31832083D093A604C093A50403
:1037E0001092C3046091C304CE0114C01230D9F406
:1037F0006296FE0185919491009711F0FC01099564
:1038000080919F04882361F06091C3048091A50496
:103810009091A604DF91CF911F910F910C94B41950
:1038200081E08093A204DF91CF911F910F910895C1
:103830002F923F924F925F926F927F928F929F92C0
:10384000AF92BF92CF92DF92EF92FF921F93CF93EE
:10385000DF93CDB7DEB764970FB6F894DEBF0FBE27
:10386000CDBF4296FC0185919491FC01149135964F
:1038700085909590A590B490FC0131964590559017
:1038800065907490643009F428C22FEF260F22301F
:1038900008F051C141E0613009F440E0193029F5E8
:1038A000FC01399625913491F90132969491319623
:1038B00025913491EFEFE90F9091DA04442339F028
:1038C000911103C0E093DA040AC0915006C09E1320
:1038D00003C01092DA0403C09F5F9093DA046091F2
:1038E000DA04C9010E94F21A01C21A3059F481E0C7
:1038F0009091DA04913009F480E08093DA040E9418
:103900007E1AF4C1442319F02FEF3FEF02C021E0EB
:1039100030E0620173018091D8049091D904289F0E
:103920001001299F300C389F300C11249101032C79
:10393000000C440B550BCA01B901298B3A8B4B8BF8
:103940005C8B0E94CA3929893A894B895C89163077
:1039500029F420E030E040E251E406C0173039F4A9
:1039600020E030E048EC52E40E94D7339DC018308C
:1039700029F420E030E04AE754E4F6CF111126C0E4
:103980008091DA04820D81149104A104B10441F400
:10399000C114D104E104F10419F48093DA0413C0D2
:1039A00090E0A0E0B0E0C816D906EA06FB064CF0AD
:1039B0002C013D0188159905AA05BB0514F42401C5
:1039C00035014092DA048AED94E0B1C0113011F073
:1039D000123071F58091DF049091E004820D931D07
:1039E00081149104A104B10451F4C114D104E1047F
:1039F000F10429F49093E0048093DF0416C0092EAB
:103A0000000CAA0BBB0BC816D906EA06FB064CF045
:103A10002C013D0188159905AA05BB0514F4240164
:103A200035014092DF045092E0048FED94E07FC0B6
:103A3000133011F01430C1F58091DB049091DC0457
:103A4000A091DD04B091DE04820F931FA41FB51F67
:103A500081149104A104B10471F4C114D104E104EE
:103A6000F10449F48093DB049093DC04A093DD041B
:103A7000B093DE0416C0C816D906EA06FB064CF061
:103A80006C017D0188159905AA05BB0514F4750123
:103A90006401C092DB04D092DC04E092DD04F09279
:103AA000DE048BED94E043C02091E1043091E20408
:103AB0004091E3045091E4040E946B332B013C01DC
:103AC00081149104A104B10441F4C114D104E104AE
:103AD000F10419F4CB01D30120C0C701B6010E9443
:103AE000CA396B017C019B01AC01B201C3010E9488
:103AF0007F34181684F0C501B4010E94CA396B01E5
:103B00007C019B01AC01B201C3010E94C33987FD56
:103B100002C062017301C601D7018093E104909352
:103B2000E204A093E304B093E40481EE94E0612FF7
:103B30000E94171ADBC0633009F0D8C0FC01399627
:103B4000A591B491193099F4FD01339625913491E2
:103B50004091DA04F901E40FF11DE40FF11D6591C4
:103B60007491FB016491FD01A591B4912AC01A30B2
:103B700021F5FD01319665917491FD01A49120918B
:103B8000DA04FB01B081222349F041E050E001C09A
:103B9000440FAA95EAF74B2B40830AC021E030E09E
:103BA00001C0220FAA95EAF720952B23FB01208361
:103BB000FB0160810E94C10D90C0111104C0609191
:103BC000DA046C93F7CF1230A9F42091DF0430911E
:103BD000E0042D933C93388B2F87FC013B96859115
:103BE0009491009709F479C0BE01615F7F4F0E94F4
:103BF000691473C01130A1F42091DF043091E00406
:103C00002D933C933E872D87FC013B9685919491A3
:103C1000009709F462C042E0BE01635F7F4F3CC081
:103C20001430E9F44091DB045091DC046091DD0430
:103C30007091DE044D935D936D937C931397498748
:103C40005A876B877C87FC013B96859194910097FE
:103C500009F443C044E0BE01675F7F4F1DC01330CD
:103C6000F1F44091DB045091DC046091DD0470912B
:103C7000DE044D935D936D937C9313974D835E8328
:103C80006F837887FC013B9685919491009729F189
:103C900044E0BE016B5F7F4F0E94960D1EC0153041
:103CA000E0F04091E1045091E2046091E3047091EE
:103CB000E4044D935D936D937C93139749835A83EA
:103CC0006B837C83FC013B9685919491009729F04E
:103CD000BE016F5F7F4F0E9466141092A00461E0E6
:103CE0008091A5049091A6040E941D1B64960FB6B6
:103CF000F894DEBF0FBECDBFDF91CF911F91FF9033
:103D0000EF90DF90CF90BF90AF909F908F907F907B
:103D10006F905F904F903F902F900895CF93DF93D7
:103D2000282F30E0F901EB55FA4F8491F901ED5855
:103D3000FA4FD491F901E15AFA4FC491CC2391F092
:103D400081110E94A41AEC2FF0E0EE0FFF1FEB5A36
:103D5000FA4FA591B491EC91ED2381E090E021F42C
:103D600080E002C080E090E0DF91CF9108951F9342
:103D7000CF93DF93282F30E0F901EB55FA4F849170
:103D8000F901ED58FA4FD491F901E15AFA4FC49173
:103D9000CC23C9F0162F81110E94A41AEC2FF0E059
:103DA000EE0FFF1FE55BFA4FA591B4918FB7F89422
:103DB000111105C09C91ED2FE095E92302C0EC9113
:103DC000ED2BEC938FBFDF91CF911F910895CF938F
:103DD000DF9390E0FC01ED58FA4F2491FC01E15A89
:103DE000FA4F8491882361F190E0880F991FFC01BC
:103DF000E556FA4FC591D491FC01E55BFA4FA591C8
:103E0000B491611109C09FB7F894888120958223ED
:103E10008883EC912E230BC0623061F49FB7F89435
:103E20003881822F809583238883EC912E2B2C93CD
:103E30009FBF06C08FB7F894E8812E2B28838FBFD1
:103E4000DF91CF9108958E3008F08E508770806496
:103E500080937C0080917A00806480937A008091C6
:103E60007A0086FDFCCF809178002091790090E067
:103E7000922B08958F929F92AF92BF92CF92DF9232
:103E8000EF92FF926B017C010E94CD1A4B015C0105
:103E9000C114D104E104F104F1F00E94CD1ADC0157
:103EA000CB0188199909AA09BB09883E9340A1054D
:103EB000B10570F321E0C21AD108E108F10888EEDB
:103EC000880E83E0981EA11CB11CC114D104E1042A
:103ED000F10419F7DDCFFF90EF90DF90CF90BF9006
:103EE000AF909F908F9008952FB7F89460912E0611
:103EF00070912F0680913006909131062FBF089562
:103F00001F920F920FB60F9211242F933F938F930E
:103F10009F93AF93BF9380912E0690912F06A0910F
:103F20003006B091310630912D0623E0230F2D3756
:103F300020F40196A11DB11D05C026E8230F0296AD
:103F4000A11DB11D20932D0680932E0690932F0660
:103F5000A0933006B09331068091290690912A06ED
:103F6000A0912B06B0912C060196A11DB11D809346
:103F7000290690932A06A0932B06B0932C06BF9196
:103F8000AF919F918F913F912F910F900FBE0F9006
:103F90001F901895CF93DF93CDB7DEB76F970FB60D
:103FA000F894DEBF0FBECDBF789484B5826084BD27
:103FB00084B5816084BD85B5826085BD85B581602D
:103FC00085BD80916E00816080936E0010928100AB
:103FD0008091810082608093810080918100816066
:103FE0008093810080918000816080938000809127
:103FF000B10084608093B1008091B00081608093B3
:10400000B00080917A00846080937A0080917A0079
:10401000826080937A0080917A00816080937A0038
:1040200080917A00806880937A001092C10060E0ED
:1040300088E00E94E71E61E088E00E94B71E1092AF
:10404000C1051092C00561E08DE00E94E71E61E0AD
:1040500089E00E94E71E61E08AE00E94E71E61E0BD
:104060008BE00E94E71E61E08CE00E94E71EE09179
:104070000004F091010482E08083E091FC03F09160
:10408000FD031082E091FE03F091FF038FEC80832B
:1040900010920804E0910404F091050486E0808306
:1040A000E0910204F0910304808180618083E091BB
:1040B0000204F0910304808188608083E09102040F
:1040C000F0910304808180688083E0910204F09184
:1040D000030480818F7D808380E090E00E94E73A36
:1040E00081119FC041E060E773E084E090E00E94AE
:1040F0006F0D61EA73E088E090E00E946F146FE951
:1041000073E08CE090E00E946F146DE973E080E151
:1041100090E00E946F146BE973E084E190E00E94EC
:104120006F1441E06FE673E088E190E00E946F0D4C
:1041300067E973E08CE190E00E946C1463E973E03E
:1041400080E290E00E946C1441E06EE673E084E24D
:1041500090E00E946F0D6FE873E088E290E00E94AB
:104160006C146BE873E08CE290E00E946C1441E008
:104170006DE673E080E390E00E946F0D69E873E004
:1041800084E390E00E946F1467E873E088E390E0B6
:104190000E946F1465E873E08CE390E00E946F1456
:1041A00063E873E080E490E00E946F146FE773E0CF
:1041B00084E490E00E946C146BE773E088E490E084
:1041C0000E946C1467E773E08CE490E00E946C142A
:1041D00063E773E080E590E00E946C1441E061E7E2
:1041E00073E086E790E00E946F0D68E171E084E77C
:1041F00090E00E946F1441E062E773E084E590E094
:104200000E946F0D04E610E0B8016F5C7A4F41E048
:10421000C8010E946F0D0F5F1F4F04371105A1F7F2
:104220003BC11092700386E090E09093A2038093CC
:10423000A1031092A00310929F0386E190E0909357
:104240009E0380939D0310929C0310929B0360E752
:1042500073E084E090E00E94721461EA73E088E009
:1042600090E00E9469146FE973E08CE090E00E9496
:1042700069146DE973E080E190E00E9469146BE9D4
:1042800073E084E190E00E94691410926F03109231
:104290009703109298031092990310929A03C12CDD
:1042A000D12C58EAE52E51E4F52EC0929303D0921A
:1042B0009403E0929503F09296036FE673E088E131
:1042C00090E00E94721467E973E08CE190E00E9434
:1042D000661463E973E080E290E00E946614109235
:1042E0006E0380E090E0A8EBB1E480938F0390939D
:1042F0009003A0939103B093920380938B039093C8
:104300008C03A0938D03B0938E036EE673E084E27A
:1043100090E00E9472146FE873E088E290E00E94DF
:1043200066146BE873E08CE290E00E9466141092D1
:104330006D0310928A03109289038EE190E09093AE
:1043400088038093870310928603109285039093CD
:104350008403809383036DE673E080E390E00E9422
:10436000721469E873E084E390E00E94691467E8DE
:1043700073E088E390E00E94691465E873E08CE3E1
:1043800090E00E94691463E873E080E490E00E948A
:104390006914C0927F03D0928003E0928103F0926F
:1043A000820380E090E0A8E9B1E480937B039093DE
:1043B0007C03A0937D03B0937E0380E090E0A0E2B5
:1043C000B2E48093770390937803A0937903B0933A
:1043D0007A0380E090E0A0E7B2E4809373039093C7
:1043E0007403A0937503B09376036FE773E084E4DE
:1043F00090E00E9466146BE773E088E490E00E940E
:10440000661467E773E08CE490E00E94661463E74B
:1044100073E080E590E00E9466141A82198242E0FF
:10442000BE016F5F7F4F88E790E00E94960D80E3AA
:10443000898F04E610E041E0BE01675E7F4FC8014E
:104440000E94960D0F5F1F4F03371105A1F71B8ABE
:1044500041E0BE016D5E7F4F83E790E00E94960DC4
:10446000109271038FE097E29093190180931801E5
:1044700061E773E086E790E00E94721468E171E002
:1044800084E790E00E9469141092720362E773E07F
:1044900084E590E00E9472148DE894E00E94EA1294
:1044A00010922506109224061092230610922206DE
:1044B00010922106109220068DE991E09093270634
:1044C0008093260690911606963108F057C02DEB82
:1044D00030E030932106209320062BE931E0309321
:1044E0002306209322062CE231E030932506209308
:1044F000240620916800983050F031E09E3008F496
:1045000030E081E001C0880F3A95EAF701C084E00D
:10451000822B80936800983038F09E3040F09631BE
:1045200048F020E030E008C02DE630E005C02BE682
:1045300030E002C02CE630E030931E0620931D06CA
:10454000983030F481E001C0880F9A95EAF70EC0E8
:10455000292F30E09E3018F42850310902C02E5027
:10456000310981E001C0880F2A95EAF780931F0680
:1045700080912606909127060197F1F780912406F5
:1045800090912506892B21F18091840290918502DA
:1045900026E08A309207E1F0009711F00E94FA0EAF
:1045A000809128068E7F80932806109283021092B5
:1045B00082028AE096E09093850280938402E091E3
:1045C0001D06F0911E06908180911F06892B808325
:1045D0006DE081E00E94E71E6FEF70E081EB95E0F7
:1045E0000E94D00688E091E0909361058093600579
:1045F0008FE695E00E94EA1240917C0550E06091C0
:104600007B0570E08FE695E00E946F108FE695E0E5
:104610000E942D0C90937E0580937D0580917C05F2
:10462000823088F08FE695E00E942D0C20E030E08B
:10463000382F80917D0590917E05822B932B90934E
:104640007E0580937D0520E042E060E187EE94E006
:104650000E94930F62E0809188050E94E71E80E32C
:1046600098EFAFEFBFEF80938C0590938D05A093EB
:104670008E05B0938F058DE894E00E94EA120E94A7
:10468000951890E0880F892F881F990B8E010F5F76
:104690001F4F892B09F462C083EA90E00E948218C0
:1046A0004BE050E067E970E0C8010E94EE36CE01B1
:1046B0000A960E94D60D8B8BE9818E2FEE0F990BF7
:1046C000AA0BBB0BFC01E154F109E331F10540F504
:1046D000EC5CFF4F0C9464338A81813639F08B8116
:1046E0008E3611F087E01BC086E019C081E017C04C
:1046F00082E015C08B81823711F088E010C084E021
:104700000EC08B81823711F085E009C083E007C0BD
:1047100089E005C08AE003C08BE001C08CE08C8B8F
:10472000CE0105960E94D60D8D8B48E050E06EE8D4
:1047300070E0C8010E94EE36C8010E94D60D8E8B33
:10474000CE0104960E94D60D8F8BCE0107960E9453
:10475000D60D888FCE0143960E94D00FC8010E94CB
:104760007B1086E0F801AEEFB5E001900D928A95DE
:10477000E1F70E94741F6093A0027093A1028093DE
:10478000A2029093A30261E38AE891E00E94CB1415
:104790000E947A1183EB92E19093C5048093C40444
:1047A0008AE791E19093C7048093C60481E08093E7
:1047B0009F04CE0149967C01CC24C394D12C3AE0CD
:1047C000232E312CC8010E947B1086E0F801AEEF49
:1047D000B5E001900D928A95E1F70E94741F6093F5
:1047E000A0027093A1028093A2029093A3028090F2
:1047F000C2029090C302A090C402B090C5022401EE
:104800003501E8EE4E0EE3E05E1E611C711C46169B
:1048100057066806790630F0681579058A059B0504
:1048200008F051C48091BE029091BF02A091C002D5
:10483000B091C1020196A11DB11D8093BE0290935B
:10484000BF02A093C002B093C10280919F0288234F
:1048500019F010929F0203C081E080939F020E9492
:10486000741F6093C2027093C3028093C40290933A
:10487000C5026EE280EF93E00E94D9074091A0024A
:104880005091A1026091A2027091A3028091BA029C
:104890009091BB02A091BC02B091BD02805A95419B
:1048A000AF4FBF4F84179507A607B70708F00BC493
:1048B00080917103882309F406C48091AB0590911F
:1048C000AC05A091AD05B091AE05892B8A2B8B2B41
:1048D00009F0F9C34093BA025093BB026093BC0243
:1048E0007093BD02A090A505B090A60561ED70E0A3
:1048F0008AE096E00E94E0076BE971E0CE01439602
:104900000E942F07B501C8010E94410EBE016D5ED5
:104910007F4FC8010E9468064C01C8010E942A0707
:10492000CE0143960E942A078920809409F049C04D
:1049300068EC70E08AE096E00E94E0072AE045E13A
:1049400050E060E070E08AE096E00E94190869EDAE
:1049500071E08AE096E00E944509B501C8010E9415
:10496000410E450122E0820E911CB801C4010E9453
:104970009306C8010E942A076EE971E0C8010E94EF
:104980002F07B801C4010E9468063C01C8010E94BB
:104990002A0767206094A9F01A8E198E1C8E1B8E30
:1049A0001E8E1D8E8E149F0489F0F5016281738125
:1049B0006115710559F046815781C7010E940907A9
:1049C00005C069EA71E0C7010E942F078D8D9E8D99
:1049D000892B09F475C3E98DFA8D8081882309F448
:1049E0006FC3A090A505B090A60563EB70E08AE0C8
:1049F00096E00E94E007B501C8010E94410EB8018F
:104A0000C50102960E949306C8010E942A0764EA23
:104A100071E0C8010E942F07C8010E942A078091F7
:104A20007103882309F44CC34D8D5E8D698D7A8D99
:104A300080EF93E00E94870367EA71E080EF93E0E4
:104A40000E9404086AEA71E0C8010E942F07B801B9
:104A5000C7010E9468065C01C8010E942A07E09114
:104A6000A905F091AA05808191811C8A1B8A1E8A62
:104A70001D8A188E1F8A4AE0B8010E94F736F80195
:104A800001900020E9F73197AF01401B510BB801AD
:104A9000CE0143960E94090795012A5F3F4FA50169
:104AA0004E5F5F4FB701C8010E9444072D813E81D0
:104AB0008F89988D2817390719F589819A816B8913
:104AC0007C89009719F061157105A9F461157105CC
:104AD00051F02115310539F0FB01808190E091956D
:104AE000819591090AC0009769F0232B59F0FC01C8
:104AF000808190E002C00E94953621E0892B19F058
:104B000020E001C021E0C8012F8F0E942A07CE01BA
:104B100043960E942A072F8D222309F4D1C26DEA01
:104B200071E0C8010E942F07B801C7010E94680602
:104B30004C01C8010E942A0797FE1FC061EB71E07B
:104B4000C8010E942F07B801C7010E9468065C01D6
:104B5000C8010E942A07B7FC51C0B5016E5F7F4FA4
:104B6000C7010E94820680538093710361E773E05E
:104B700086E790E00E94721441C0A090A705B09013
:104B8000A8052D8D3E8DA4014F5F5F4FB701C80171
:104B90000E944407A114B104C1F08D809E8081144D
:104BA000910411F4F50110C0FFE08F16910418F084
:104BB0009FE0892E912C69817A81A401C5010E9410
:104BC000A536F501E80DF91D1082C8010E942A07DB
:104BD000A12CB12C6091A7057091A8056A0D7B1DD1
:104BE00041E0C5018C599F4F0E94960D2FEFA21AEC
:104BF000B20A40E1A416B10469F7A0CF64EB71E0FA
:104C0000C8010E942F07B801C7010E9468065C0115
:104C1000C8010E942A07B7FC1AC0B5016E5F7F4F1A
:104C2000C7010E948206813419F41092700309C0F2
:104C3000803311F481E003C0813319F482E0809362
:104C4000700360E773E084E090E00E94721467EB09
:104C500071E0C8010E942F07B801C7010E946806D1
:104C60005C01C8010E942A07B7FC1AC0B5016E5F3B
:104C70007F4FC7010E948206813419F410926F039E
:104C800009C0803311F481E003C0813319F482E05C
:104C900080936F036FE673E088E190E00E947214E6
:104CA0006AEB71E0C8010E942F07B801C7010E949A
:104CB00068065C01C8010E942A07B7FC1AC0B5014A
:104CC0006E5F7F4FC7010E948206813419F41092F3
:104CD0006E0309C0803311F481E003C0813319F4FD
:104CE00082E080936E036EE673E084E290E00E94BF
:104CF00072146DEB71E0C8010E942F07B801C70163
:104D00000E9468065C01C8010E942A07B7FC1AC00D
:104D1000B5016E5F7F4FC7010E948206813419F48E
:104D200010926D0309C0803311F481E003C0813318
:104D300019F482E080936D036DE673E080E390E008
:104D40000E94721460EC71E0C8010E942F07B80144
:104D5000C7010E9468065C01C8010E942A07B7FCCF
:104D6000AFC18CED90E00E9482188090A7059090D2
:104D7000A805A090A505B090A60563EC71E08AE0B7
:104D800096E00E944509B501C8010E94410E350117
:104D900082E0680E711CB801C3010E949306C8012D
:104DA0000E942A076EEC71E08AE096E00E944509B5
:104DB000B4018AE096E00E94450968ED71E08AE05E
:104DC00096E00E944509B501C8010E94410EB80154
:104DD000C3010E949306C8010E942A0768EA71E095
:104DE0008AE096E00E9445098091FC05882331F015
:104DF0006BED71E08AE096E00E9445098091EE0536
:104E0000882331F060EE71E08AE096E00E94450967
:104E10008091E005882331F065EE71E08AE096E04C
:104E20000E9445098091D205882331F06AEE71E035
:104E30008AE096E00E9445098091C405882331F0FC
:104E40006FEE71E08AE096E00E9445096091700380
:104E50008091B9020E94751480938E0260916F0355
:104E60008091B8020E94751480938D0260916E0348
:104E70008091B7020E94751480938C0260916D033B
:104E80008091B6020E94751480938B0265EB71E0ED
:104E90008AE096E00E94450980918E02882311F0F5
:104EA00061E301C060E38AE096E00E94D907809147
:104EB0007003882311F06DE401C061E48AE096E09C
:104EC0000E94D90764EF71E08AE096E00E944509EC
:104ED00080918D02882311F061E301C060E38AE0D4
:104EE00096E00E94D90780916F03882311F06DE44A
:104EF00001C061E48AE096E00E94D90767EF71E0A3
:104F00008AE096E00E94450980918C02882311F086
:104F100061E301C060E38AE096E00E94D9078091D6
:104F20006E03882311F06DE401C061E48AE096E02D
:104F30000E94D9076AEF71E08AE096E00E94450975
:104F400080918B02882311F061E301C060E38AE065
:104F500096E00E94D90780916D03882311F06DE4DB
:104F600001C061E48AE096E00E94D90768EA71E036
:104F70008AE096E00E9445096DEF71E08AE096E0D4
:104F80000E944509409197025091980260919902C0
:104F900070919A0222E08AE096E00E94620861E045
:104FA00072E08AE096E00E94450940919302509198
:104FB0009402609195027091960222E08AE096E058
:104FC0000E94620865E072E08AE096E00E9445096E
:104FD00040918F02509190026091910270919202E3
:104FE00022E08AE096E00E94620869E072E08AE0CE
:104FF00096E00E94450988E00E948E1EAC01990F40
:10500000660B770B8AE096E00E9416186DE072E05E
:105010008AE096E00E9445094091710350E060E00B
:1050200070E08AE096E00E94161868EA71E08AE073
:1050300096E00E944509A12CB12C68EA71E08AE053
:1050400096E00E944509BE016F5F7F4FC5010E9437
:105050007C14BE016F5F7F4F8AE096E00E94450995
:105060009FEFA91AB90AE8E0AE16B10431F7A09093
:10507000A505B090A60564E670E080E090E00E948F
:105080003A1F6AE18AE096E00E94D907B501CE0195
:1050900043960E94410EBE016D5E7F4FC501029690
:1050A0000E949306CE0143960E942A0763E172E0B4
:1050B000CE0143960E942F07CE0143960E942A07F5
:1050C000C7010E942A078091A104811108C0809124
:1050D0009D0290919E02892B11F40E947A1180E02A
:1050E00095E00E942416833249F410929E02109299
:1050F0009D0210929C0210929B024AC2873319F4BF
:105100000E94151148C28833D9F410929F0483E09D
:1051100090E090939E0280939D0210929C021092C8
:105120009B021092870210928802109289021092BC
:105130008A021092860287EE94E00E94E10C2BC254
:1051400080919F04811127C287EE94E00E94D90CC0
:1051500080E095E00E94C715B82E882309F442C06C
:105160008091870290918802A0918902B0918A0271
:105170004091A0025091A1026091A2027091A302FD
:10518000892B8A2B8B2B41F4409387025093880202
:105190006093890270938A028091870290918802BD
:1051A000A0918902B0918A022C013D01E8E74E0EE0
:1051B000511C611C711C441555056605770538F0B6
:1051C00020918602211103C0B092860201C0B12C49
:1051D000885A9D4FAF4FBF4F84179507A607B70753
:1051E00058F408C010928702109288021092890227
:1051F00010928A021092860280919D0290919E02E6
:10520000039721F587EE94E00E94E10C60E080E0D6
:105210000E94481840918F02509190026091910233
:105220007091920222E087EE94E00E94620861E0B1
:1052300080E00E94481888E00E948E1EAC01990F01
:10524000660B770B87EE94E00E94161880919D0202
:1052500090919E02019709F043C080919B0290912A
:105260009C02F1E4BF1202C0019704C022E4B21212
:1052700005C0019690939C0280939B0280919B02B3
:1052800090919C028730910514F086E090E097FFA2
:1052900002C080E090E090939C0280939B0260E0CB
:1052A00080E00E944818B80180919B0290919C0276
:1052B0000E947C14B80187EE94E00E94450961E0E9
:1052C00080E00E94481880919B0290919C02B80156
:1052D00001960E947C14B80187EE94E00E94450973
:1052E00080919D0290919E02029709F054C144E47E
:1052F000B41209C080919B0290919C0201969093F8
:105300009C0280939B0260E080E00E94481866E067
:1053100071E087EE94E00E94E00780919B029091FB
:105320009C0297FF02C080E090E08530910514F068
:1053300084E090E090939C0280939B02509007063B
:105340006090080670900606A090050680900406FE
:10535000912C80E3881A88EF980A60E08BE00E9425
:10536000481880919B0290919C02892B79F491E4DA
:10537000B91202C0539404C0E2E4BE1201C05A94B0
:1053800060E071E087EE94E00E94E00780919B026C
:1053900090919C02019779F4F1E4BF1202C06394EA
:1053A00004C022E4B21201C06A946AEF70E087EE92
:1053B00094E00E94E00780919B0290919C020297EA
:1053C00079F441E4B41202C0739404C082E4B812C8
:1053D00001C07A9464EF70E087EE94E00E94E007E9
:1053E00080919B0290919C02039779F491E4B91209
:1053F00002C0A39404C0E2E4BE1201C0AA946EEEFF
:1054000070E087EE94E00E94E00780919B0290910B
:105410009C02049799F4F1E4BF1204C02FEF821AA2
:10542000920A06C042E4B41203C081E0881A9108CF
:1054300068EE70E087EE94E00E94E00797E1951532
:1054400010F487E1582EEBE3E61510F4BBE36B2E66
:10545000FFE1F71518F4AFE17A2E04C0711002C015
:10546000772473942CE02A1518F4FCE0AF2E04C0C6
:10547000A11002C0AA24A39440E1841647E2940636
:1054800020F0EFE08E2EE7E29E2E80ED881687E07A
:10549000980620F470ED872E77E0972EC401805D8A
:1054A000974080930406A0920506709206065092DB
:1054B0000706609208061092090661E080E00E94EB
:1054C000481899E0951528F060E387EE94E00E9473
:1054D000D907452D50E060E070E02AE087EE94E0C7
:1054E0000E9419086AE387EE94E00E94D907E9E078
:1054F000E61528F060E387EE94E00E94D907462D78
:1055000050E060E070E02AE087EE94E00E94190825
:1055100060E287EE94E00E94D907F9E0F71528F0E1
:1055200060E387EE94E00E94D907472D50E060E0E9
:1055300070E02AE087EE94E00E9419086FE287EE9F
:1055400094E00E94D90729E02A1528F060E387EE4D
:1055500094E00E94D9074A2D50E060E070E02AE014
:1055600087EE94E00E9419086FE287EE94E00E94B3
:10557000D907A40160E070E02AE087EE94E00E9481
:1055800019084AE2B41207C084E096E00E94D00FE6
:1055900081E080939F048091AE0281110DC00E9432
:1055A000741F6093AA027093AB028093AC02909335
:1055B000AD0281E08093AE028091A204882371F055
:1055C00080919F04882351F01092A2046091C3043B
:1055D0008091A5049091A6040E94B41980919B0427
:1055E00081113FC080919C040E94231F60919D0403
:1055F00070919E042091A4023091A502281B390BC2
:1056000037FF03C0319521953109621773072CF4D8
:105610009093A5028093A40221C0E9E9F4E020E080
:1056200030E046895789DA01A61BB70BA817B907DE
:105630007CF4460F571F8417950754F4220F331F2D
:10564000220F331FF901EF54FB4FA080B18014C02B
:105650002F5F3F4F34962530310519F7A12CB12C1F
:105660000BC0E0919904F0919A040190F081E02D33
:1056700089E994E009955C018091A90290E0A8165F
:10568000B906B9F0A092A9021092A8020E94741F54
:105690006093AA027093AB028093AC029093AD0228
:1056A0001092A7021092A602D092D904C092D804F8
:1056B000E1C00E94741F4090AA025090AB0260901B
:1056C000AC027090AD02DC01CB0184199509A609EA
:1056D000B70989379105A105B10508F4CBC00E942F
:1056E000741F6093AA027093AB028093AC029093F4
:1056F000AD02A114B10421F080919F0481110BC06F
:105700001092A7021092A602D092D904C092D80497
:105710001092A802AFC085E0A816B10419F481E088
:105720008093A1048091A104882309F4A3C08091EF
:10573000A80290E0A816B906C1F48091A602909143
:10574000A70201969093A7028093A602B1010E943E
:105750001A33892B81F08091D8049091D904029654
:105760009093D9048093D80406C0A092A802D09246
:10577000D904C092D8042091A00495E0A916B104E0
:1057800021F08A2DAA94AB2889F48091A3049091EA
:10579000A404222311F063E018C060E0009709F030
:1057A0004EC08091A7049091A80449C0833021F095
:1057B000843021F462E003C061E001C064E0222390
:1057C00039F08091A3049091A4040E94181C52C047
:1057D0002091A5043091A604F9017196E491E1505D
:1057E000643081F51092A4041092A3048091AD045A
:1057F0009091AE04009781F48091AB049091AC0439
:10580000009769F48091A9049091AA04009709F483
:10581000DBC420E030E005C022E030E002C021E03F
:1058200030E0220F331FF901E755FB4F1182108240
:105830009093A6048093A5041092C30461E00E9493
:105840001D1B18C09091C304613011F061E001C0CC
:105850006FEF690FE61730F481E06F3F09F080E0E9
:10586000682F61956F3F09F46E2F6093C304C901DF
:105870000E94B4198091AB059091AC05A091AD0543
:10588000B091AE050097A105B10509F442C0805D55
:105890009A48AF4FBF4F4091A0025091A102609132
:1058A000A2027091A30284179507A607B70788F58F
:1058B00068E480EF93E00E94D90767EA71E080EF27
:1058C00093E00E940408A090A505B090A60560E1B1
:1058D00071E08AE096E00E94E007B501C8010E94ED
:1058E000410EB801C50102960E949306C8010E94AC
:1058F0002A0764EA71E0C8010E942F07C8010E94CC
:105900002A071092AB051092AC051092AD051092CB
:10591000AE050E94B518882309F440C0809189051E
:105920008B3029F0D8F18551823058F037C0609122
:10593000850570E080E090E00E94C8394B015C0171
:1059400033C070908505672D6F7770E080E090E040
:105950000E94CA3920E030E040E853E40E94293A2E
:105960004B015C016091860570E080E090E00E9450
:10597000CA399B01AC01C501B4010E946B332DEC07
:105980003CEC4CEC5DE30E94293A4B015C0177FE54
:105990000BC0B7FAB094B7F8B09406C0812C912C24
:1059A00040ECA42E4FE7B42E0E94B518882309F4CA
:1059B00044C0809189058B3039F180F18551823066
:1059C00068F56091830570E080E090E00E94C8393E
:1059D00020E030E040E853E40E94293A2B013C01EA
:1059E0006091840570E080E090E00E94CA399B01DC
:1059F000AC01C301B2010E946B332DEC3CEC4CECCA
:105A00005DE30E94293A07C06091830570E080E061
:105A100090E00E94C8392B013C0106C0412C512C5A
:105A200030EC632E3FE7732EA5019401C501B4014C
:105A30000E948434882379F016C0A5019401C50121
:105A4000B4010E94843481111EC0412C512C20ECE1
:105A5000622E2FE7722E8092970290929802A09267
:105A60009902B0929A02A3019201C301B2010E946D
:105A70008434811108C04092930250929402609243
:105A800095027092960294E6A92EB12C8EE00E94A7
:105A9000231FB1010E942E33072E000C880B990B97
:105AA0000E94CA3920918F02309190024091910258
:105AB000509192020E946B3360938F027093900218
:105AC0008093910290939202F1E0AF1AB108F1F63F
:105AD00020E030E048EC52E40E94D7339B01AC0157
