:1000000072C60000A1C600009FC600009DC6000089
:100010009BC6000099C6000097C6000095C6000068
:1000200093C600000C9488290C9488290C94882984
:100030008BC6000089C6000087C6000085C6000088
:1000400083C6000081C600007FC600007DC6000098
:100050007BC6000079C6000077C600000C94E82B30
:1000600073C600000C94C1170C9498176DC600005D
:100070006BC6000069C6000067C6000065C60000C8
:1000800063C6000061C600005FC600005DC60000D8
:100090005BC6000059C6000057C600000C94AB2A8E
:1000A00053C6000051C600004FC600004DC60000F8
:1000B0004BC6000049C6000047C6000045C6000008
:1000C00043C6000041C600003FC600003DC6000018
:1000D0003BC6000039C6000037C6000035C6000028
:1000E00033C6000024303A303A3038303A302230CB
:1000F0003A303A303A3016303A303A302B303630E7
:1001000034303A303A303A303230991C9C1C8B1CD7
:100110008F1C951CD31CA01CA41CAA1CAE1CB21CBA
:10012000B81CBC1CC01CD31CC61CCA1CCE1C323242
:100130003A33383A33340044656320313520323065
:10014000313600525443204C4F535420504F5745A2
:1001500052210061742B636D6764613D2264656C9C
:1001600020616C6C220A0D0041542B434D47523DD7
:100170000041542B434D47463D310D00534D530034
:100180004154480D0A004F4B003B0D0A00415444B6
:10019000005245534554204F4B00205945415200D1
:1001A0004D4F4E54480020204441590020204D49D5
:1001B0004E0020484F55520053455420434C4F4366
:1001C0004B004C4556454C5B434D5D3A00204E4933
:1001D00047485420200020444159202A2020005024
:1001E0004F5745525B255D3A0054454D50325B43B5
:1001F0005D3A0020454320585B2D5D3A0020504871
:1002000020585B2D5D3A0045585420205B255D3A0F
:10021000004C494748545B2D5D3A0045435B532FE2
:100220004D5D3A005048205B50485D3A0048554DBE
:10023000495B255D3A0054454D505B435D3A0020D3
:1002400020202020202020000344495341424C45D7
:1002500020524144494F0000024F4E21000000004F
:100260000000000000000000014F46462100000091
:100270000000000000000000004155544F21000024
:1002800000000000000000007802680258024802E6
:100290005F0804880260080488026108048802621A
:1002A00008048802050000000000000000630880C8
:1002B0000002000000000000000067087800050050
:1002C0000000000000000069087C0002000000003F
:1002D000000000006D087400050E00000000000022
:1002E000006F08680002FF030000000000007308B0
:1002F0006000050E000000000000007508640002A8
:10030000FF0300000000000079085C00020F2700D6
:1003100000E80300000006D8000003000000000011
:1003200000007B08DC000002000000000000007CF0
:1003300008C400050000000038FFFFFF7D08A4008E
:10034000050000000038FFFFFF8108A8000500003D
:1003500000000000000085086C000500000000009F
:1003600000000089087000050E0000000000000079
:100370008D085400050E0000000000000091085890
:1003800000066600000000000000950850000666A8
:100390000000000000000099084C00066300000007
:1003A0009DFFFFFF9D08980006630000009DFFFF72
:1003B000FFA1089400050000000000000000A5084F
:1003C000A000050000000000000000A9089C000635
:1003D000630000009DFFFFFFAD08480006630000BA
:1003E000009DFFFFFFB10844000200000000000074
:1003F0000000B5084000020000000000000000B747
:10040000083C00020000000000000000B9083800AD
:10041000020000000000000000BB083400090000DA
:100420000000000000009002000006630000009D34
:10043000FFFFFFBD08900006630000009DFFFFFF67
:10044000C1088C0006630000009DFFFFFFC5082C5B
:100450000006630000009DFFFFFFC9082800090097
:10046000000000000000009502000006630000008C
:1004700000000000CD0888000663000000000000B6
:1004800000D1088400066300000000000000D508C9
:100490002000066300000000000000D9081C0009CD
:1004A00000000000000000009A020000023B000073
:1004B0000000000000DD081400021700000000002A
:1004C0000000DF081000023B00000000000000E117
:1004D000080C00021700000000000000E3080800FC
:1004E0000900000000000000009F020400454320B6
:1004F000484947482059205B532F4D5D000100A417
:10050000024543204849474820582020205B2D5D64
:10051000000100B1024543204C4F57202059205B79
:10052000532F4D5D000100BE024543204C4F572024
:1005300020582020205B2D5D000100CB0250482078
:1005400048494748205920205B50485D000100D8A9
:10055000025048204849474820582020205B2D5D04
:10056000000100E5025048204C4F57202059202020
:100570005B50485D000100F2025048204C4F57206C
:1005800020582020205B2D5D000100FF0247534DC5
:1005900020434F44452D3E00000000000001000CA8
:1005A0000347534D204D4F44452D3E0000000000B1
:1005B000000100190345585445524E414C000000BB
:1005C0000000000000010026034C4556454C204821
:1005D000494748205B434D5D00010033034C4556BD
:1005E000454C204C4F5720205B434D5D000100409F
:1005F00003454320484947482020205B532F4D5D49
:100600000001004D034543204C4F57202020205B24
:10061000532F4D5D0001005A035048204849474878
:10062000202020205B50485D0001006703504820D7
:100630004C4F5720202020205B50485D0001007463
:10064000034C494748204C4F570000000000000071
:1006500000010081034C49474820484947480000B1
:10066000000000000001008E0354454D50204C4F07
:100670005720204E205B435D0001009B0354454DF5
:10068000502048494748204E205B435D000100A8A8
:100690000348554D49204C4F57202020205B255DB5
:1006A000000100B50348554D4920484947482020DE
:1006B000205B255D000100C20354454D50204C4F86
:1006C00057202020205B435D000100CF0354454D9F
:1006D0005020484947482020205B435D000100DC52
:1006E000034359434C4552204F464620205B535DFF
:1006F000000100E9034359434C4552204F46462030
:10070000205B4D5D000100F6034359434C455220E8
:100710004F4E2020205B535D0001000304435943EA
:100720004C4552204F4E2020205B4D5D00010010B3
:10073000044359434C455220434F4E54524F4C00B2
:100740000001001D0446414E204F4646204E202009
:100750005B435D000001002A0446414E204F4E20BD
:10076000204E20205B435D00000100370446414ECF
:10077000204F4646202020205B435D0000010044BE
:100780000446414E204F4E20202020205B435D0038
:10079000000100510446414E20434F4E54524F4CED
:1007A000000000000001005E04484541544552200D
:1007B0004F46204E205B435D0001006B04484541DD
:1007C000544552204F4E204E205B435D000100787F
:1007D00004484541544552204F464620205B435D26
:1007E0000001008504484541544552204F4E2020C9
:1007F000205B435D0001009204484541544552206E
:10080000434F4E54524F4C000001009F044C494747
:100810004854204F46462020205B4D5D000100AC2F
:10082000044C49474854204F46462020205B485DF1
:10083000000100B9044C49474854204F4E20202065
:10084000205B4D5D000100C6044C49474854204FD1
:100850004E202020205B485D000100D3044C494716
:10086000485420434F4E54524F4C0000000100E0CA
:1008700004290515050105ED047905650551053DBA
:1008800005A1058D05CD06B906A50691067D06696B
:1008900006550641062D0619060506F105DD05C9B2
:1008A00005B50531071D070907F506E1069507811E
:1008B000076D0759074507F907E507D107BD07A9E0
:1008C000075D084908350821080D0852455345546D
:1008D00021000000000000000000000200100B4595
:1008E000432D3E000000000000000000000000005A
:1008F00004710850482D3E00000000000000000078
:100900000000000004790847534D2D3E0000000010
:1009100000000000000000000281085345542043FD
:100920004C4F434B2D3E00000000000200280841C0
:100930004C41524D205345542D3E00000000000014
:100940000F85084359434C45522D3E0000000000DE
:100950000000000005A30846414E2D3E00000000A7
:10096000000000000000000005AD08484541544566
:10097000522D3E00000000000000000005B7084CAA
:10098000494748542D3E00000000000000000000D0
:1009900005C1087F096B09570943092F091B09077E
:1009A00009F308DF08CB0800002200250028002BEF
:1009B000002E003100340002010000050108010B87
:1009C00001000020002300260029002C002F003207
:1009D00000000100000301060109010505050507E6
:1009E0000508080808020202020A0A0808040404AA
:1009F00004010101010101010103030303030303D6
:100A000003040707070C0C0C0C0C0C0C0C02020264
:100A10000206060606060606060B0B0B0B0B0B0B57
:100A20000B010210202008081020401020408002F6
:100A30000102010804020101020408102040808024
:100A400040201008040201800402018040201008A8
:100A50000402010804020101020408102040800180
:100A600002040810204080526F6F740000000000E4
:100A700000000000000000000A930900002100248B
:100A80000027002A002D003000330001010000047F
:100A90000107010A0100000A0B02090C0D0E0807EC
:100AA000030401000000000000000000000000003E
:100AB0000000000000000000000000000000000036
:100AC00000121110000000000000000000000000F3
:100AD0000000000000000000000000005EBCE261B9
:100AE0003FDD83C29C7E20A3FD1F419DC3217FFC6F
:100AF000A2401E5F01E3BD3E6082DC237D9FC142B8
:100B00001CFEA0E1BF5D0380DE3C62BEE0025CDF54
:100B100081633D7C22C09E1D43A1FF4618FAA42795
:100B2000799BC584DA3866E5BB5907DB856739BA36
:100B3000E406581947A5FB7826C49A653BD9870473
:100B40005AB8E6A7F91B45C6987A24F8A6441A991C
:100B5000C7257B3A6486D85B05E7B98CD2306EED49
:100B6000B3510F4E10F2AC2F7193CD114FADF37006
:100B70002ECC92D38D6F31B2EC0E50AFF1134DCE1F
:100B800090722C6D33D18F0C52B0EE326C8ED053EC
:100B90000DEFB1F0AE4C1291CF2D73CA947628AB05
:100BA000F517490856B4EA6937D58B5709EBB536BE
:100BB000688AD495CB2977F4AA4816E9B7550B88EB
:100BC000D6346A2B7597C94A14F6A8742AC89615A4
:100BD0004BA9F7B6E80A54D7896B351F1C1F1E1F97
:100BE0001E1F1F1E1F1E1F00407A10F35A00A07206
:100BF0004E18090010A5D4E80000E8764817000058
:100C0000E40B54020000CA9A3B000000E1F5050025
:100C10000080969800000040420F000000A086016E
:100C2000000000102700000000E80300000000643E
:100C300000000000000A00000000000100000000A9
:100C4000002C76D888DC674F0823DFC1DFAE59E17E
:100C5000B1B796E5E3E453C63AE651997696E8E6ED
:100C6000C28426EB898C9B62ED407C6FFCEFBC9CC0
:100C70009F40F2BAA56FA5F490055A2AF75C936BD2
:100C80006CF9676DC11BFCE0E40D47FEF520E6B58D
:100C900000D0ED902E0300943577050080841E0867
:100CA0000000204E0A000000C80C333333330F9885
:100CB0006E12831141EF8D2114893BE65516CFFE4C
:100CC000E6DB18D1844B381BF77C1D901DA4BBE4D8
:100CD00024203284725E228100C9F124ECA1E53D1A
:100CE00027003F42314211241FBECFEFD1E2DEBFC9
:100CF000CDBF00E00CBF17E0A0E0B2E0ECEAF9E9FC
:100D000000E00BBF02C007900D92AA3FB107D9F7D0
:100D10002CE0AAEFB7E001C01D92AE3BB207E1F7AD
:100D200016E0C2E7D6E000E006C021970109802F57
:100D3000FE010E943B45C137D10780E00807A9F7B3
:100D40000E94772C0C94C54C5BC90895882311F040
:100D50006BE205C0662311F06DE201C060E289E23A
:100D60009AE00C9431166FE372E089E29AE00C94F9
:100D70003816CF93C62F482F50E060E070E089E22C
:100D80009AE00E94F619C11102C061E405C0C330A7
:100D900010F46DE401C068E589E29AE0CF910C940B
:100DA00031168091D00B811134C08091C20B81111A
:100DB00030C08091B40B81112CC08091A60B8111A1
:100DC00028C08091980B811124C080918A0B8111D9
:100DD00020C080917C0B81111CC080916E0B811111
:100DE00018C08091600B811114C08091520B811149
:100DF00010C08091440B81110CC08091360B811181
:100E000008C08091280B811104C080911A0B88239F
:100E100021F080910708882329F089E29AE00E9456
:100E200098230BC0E091290AF0912A0A0084F185E9
:100E3000E02D60E089E29AE0199560E080E00E9490
:100E4000471A8091CF0B882331F0809107088823BF
:100E500031F06BE20BC08091C10B811102C060E2E6
:100E600005C0809107088823D1F36DE289E29AE0FA
:100E70000E94311664E789E29AE00E94311660917F
:100E800025087091260880912708909128080E94D3
:100E90001046675F7F4F6331710528F460E389E294
:100EA0009AE00E94311640912508509126086091E1
:100EB00027087091280889E29AE00E94811A60E070
:100EC00086E00E94471A62EE77E089E29AE00E948B
:100ED00097176091250870912608809127089091B6
:100EE00028080E941046675F7F4F6331710528F420
:100EF00060E389E29AE00E94311640912108509106
:100F00002208609123087091240889E29AE00E94E7
:100F1000811A60E08AE00E94471A60E289E29AE062
:100F20000E9431168091D40B8A3028F460E389E264
:100F30009AE00E9431164091D40B50E060E070E0DE
:100F40002AE089E29AE00E947116809107088823BE
:100F500041F08091970B882311F061E203C06AE3AE
:100F600001C060E289E29AE00E9431168091D50BBF
:100F70008A3028F460E389E29AE00E9431164091B9
:100F8000D50B50E060E070E02AE089E29AE00E9430
:100F9000711661E080E00E94471A8091B30B8823AC
:100FA00041F080910708882311F06BE221C060E2D4
:100FB0001FC08091A50B882331F0809107088823FA
:100FC000B1F36DE215C020919508309196084091DB
:100FD00097085091980860911D0870911E088091A3
:100FE0001F08909120080E944146181604F76AE2F3
:100FF00089E29AE00E9431166AE976E089E29AE095
:101000000E9497176091620880910B08B2DE60EE33
:1010100076E089E29AE00E949717609161088091DA
:101020000A08A7DE63EE76E089E29AE00E9497174D
:1010300060916008809109089CDE66EE76E089E2A6
:101040009AE00E94971760915F088091080891CEFE
:10105000CF93DF9300D000D0CDB7DEB71092E10977
:1010600082E090E09093060880930508CE010196F7
:101070000E94652686E0FE013196A7EDBBE0019057
:101080000D928A95E1F710920408109203081092CD
:10109000FF071092000810920108109202081092A7
:1010A000FE0789E29AE00E94A02326960FB6F894E4
:1010B000DEBF0FBECDBFDF91CF910895CF92DF92FB
:1010C000EF92FF920F931F93CF93DF931F921F9284
:1010D000CDB7DEB78C01790189E29AE04A83698352
:1010E0000E94982369814A81842F0E94471A6801CF
:1010F000C601801B910B8E159F056CF4F601619162
:101100006F018FED860F8E3508F060E289E29AE07C
:101110000E942C23EDCF0F900F90DF91CF911F9164
:101120000F91FF90EF90DF90CF90089544E00C94E2
:10113000A72442E00C94A72444E00C94802442E0CD
:101140000C948024662321F081E0623009F080E075
:1011500008954F925F926F927F928F929F92AF927B
:10116000BF92CF92DF92EF92FF921092620886E0D8
:1011700090E09093E4088093E3081092E2081092C4
:10118000E10886E190E09093E0088093DF081092F8
:10119000DE081092DD0841E062E678E084E090E04D
:1011A0000E94A72463EE78E088E090E0C2DF61EE61
:1011B00078E08CE090E0BDDF6FED78E080E190E0DA
:1011C000B8DF6DED78E084E190E0B3DF1092610864
:1011D000C12CD12C80E7E82E81E4F82EC092D908EA
:1011E000D092DA08E092DB08F092DC0880E090E030
:1011F000A0E8B1E48093D5089093D608A093D708CF
:10120000B093D808412C512C90E2692E91E4792EAC
:101210004092D1085092D2086092D3087092D408BC
:1012200080E090E0A0E3B1E48093CD089093CE08F5
:10123000A093CF08B093D00841E061E678E088E160
:1012400090E00E94A72469ED78E08CE190E06EDFE9
:1012500065ED78E080E290E069DF61ED78E084E8B8
:1012600090E064DF6DEC78E088E890E05FDF10925A
:10127000600880E090E0A0EAB1E48093C908909310
:10128000CA08A093CB08B093CC0880E090E0A8E90E
:10129000B1E48093C5089093C608A093C708B093A3
:1012A000C808C092C108D092C208E092C308F09268
:1012B000C408812C912C20E6A22E21E4B22E80922B
:1012C000BD089092BE08A092BF08B092C00841E04D
:1012D00060E678E084E290E00E94A72469EC78E080
:1012E00088E290E023DF65EC78E08CE290E01EDF9E
:1012F00061EC78E08CE890E019DF6DEB78E080E954
:1013000090E014DF10925F081092BC081092BB08A6
:101310008EE190E09093BA088093B9081092B808D3
:101320001092B7089093B6088093B50841E06FE536
:1013300078E080E390E00E94A7246BEB78E084E300
:1013400090E0F7DE69EB78E088E390E0F2DE67EBAF
:1013500078E08CE390E0EDDE65EB78E080E490E00F
:10136000E8DE80E090E0A8EAB1E48093A1089093E1
:10137000A208A093A308B093A40880E090E0A8E995
:10138000B1E480939D0890939E08A0939F08B0932A
:10139000A00880E090E0A0E2B2E4809399089093E6
:1013A0009A08A0939B08B0939C0880E090E0A0E787
:1013B000B2E48093950890939608A0939708B09311
:1013C0009808C092B108D092B208E092B308F092A7
:1013D000B4084092AD085092AE086092AF08709287
:1013E000B00861EA78E084E490E0A0DE6DE978E09E
:1013F00088E490E09BDE69E978E08CE490E096DE9A
:1014000065E978E080E590E091DE61EB78E084E9E1
:1014100090E08CDE6DEA78E088E990E087DE8FE886
:1014200092E090937A088093790880E192E090931B
:101430007408809373088CEE91E5A0E8B0E4809383
:10144000750890937608A0937708B093780880E0A9
:1014500090E0A0EEB0E480936F0890937008A093A2
:101460007108B0937208109291081092920810922D
:1014700093081092940880928D0890928E08A09202
:101480008F08B092900861E978E088E590E04EDE40
:101490006DE878E084E590E049DE42E069E778E0D5
:1014A0008CE590E00E94A72442E063E778E080E6C4
:1014B00090E00E94A72465E778E084E690E036DEBD
:1014C0006FE678E088E690E031DE82EF90E090937E
:1014D0006E0880936D088DE790E090936808809384
:1014E000670881E895E9A3EABFE3809369089093D0
:1014F0006A08A0936B08B0936C088AE69CEBA0E99D
:10150000B0E48093630890936408A0936508B09357
:1015100066081092890810928A0810928B0810921F
:101520008C0880E090E0AAE7B4E48093850890936B
:101530008608A0938708B093880869E878E080E778
:1015400090E0F4DD65E878E08CE690E0EFDD42E0E5
:101550006DE678E084E790E00E94A72442E067E629
:1015600078E088E790E00E94A72469E678E08CE7BD
:1015700090E0DCDD63E678E080E890E0D7DD109273
:10158000A5081092A6081092A7081092A80880E05B
:1015900090E0A8ECB2E48093A9089093AA08A093E5
:1015A000AB08B093AC0869EA78E08CE990E0BEDD66
:1015B00065EA78E080EA90E0B9DD80E090E0A8E4B8
:1015C000B3EC8093810890938208A0938308B09332
:1015D000840810927D0810927E0810927F08109265
:1015E00080086DE778E084EA90E0A0DD61E878E0CB
:1015F00088EA90E09BDD10927C0841E06CE778E09F
:1016000084EC90E0FF90EF90DF90CF90BF90AF9090
:101610009F908F907F906F905F904F900C94A72435
:1016200098DD89E29AE00E94A02360E080E00E94B9
:10163000471A61E971E089E29AE00E94381668EE83
:1016400073E080E090E00C940822EF92FF920F93F9
:101650001F93CF93DF931F921F92CDB7DEB78C01FC
:101660007B0142E0BE016F5F7F4F80EE90E00E9401
:10167000802429813A8121503109283031051CF418
:101680003A83298302C01A82198268E070E09B01C4
:10169000201B310B89819A81820F931F0E94EA449B
:1016A0009A83898300E010E0B701600F711F898180
:1016B0009A8124E0880F991F2A95E1F78C519F4F5A
:1016C00041E0800F911F0E9480240F5F1F4F003167
:1016D000110551F7F701108A0F900F90DF91CF910C
:1016E0001F910F91FF90EF900895CF92DF92EF92AC
:1016F000FF920F931F93CF93DF931F921F92CDB74B
:10170000DEB78C01F62E8091D90A803309F43FC0F0
:1017100081E368133CC08091ED0A9091EE0AA0919C
:10172000EF0AB091F00A892B8A2B8B2B81F58091DF
:101730007B08823060F163E482E399E00E94311615
:101740000E94F119C090E90AD090EA0A6DE871E0B0
:101750008DED9BE00E943816B6018DED9BE00E9456
:10176000971769E871E08DED9BE00E943816809133
:10177000310890913208A0913308B09134088093D9
:10178000ED0A9093EE0AA093EF0AB093F00A8091CD
:10179000D30B68018A3048F4EFEFCE1ADE0A4AE034
:1017A000B80180E090E00E94CF488091D30B4AE0DE
:1017B000B60190E00E94CF488FE2F8018283B80121
:1017C0006D5F7F4F8091D20B8A3040F44AE080E019
:1017D00090E00E94CF48C8010496BC018091D20BD2
:1017E0004AE090E00E94CF4880E2F8018583B8018A
:1017F0006A5F7F4F8091D40B8A3040F44AE080E0EA
:1018000090E00E94CF48C8010796BC018091D40B9C
:101810004AE090E00E94CF488AE3F8018087B8014F
:10182000675F7F4F8091D50B8A3040F44AE080E0BB
:1018300090E00E94CF48C8010A96BC018091D50B68
:101840004AE090E00E94CF4880E2F8018387F78663
:1018500042E0BE016F5F7F4F80EE90E00E948024E7
:1018600089819A81089714F01A821982E12CF12C4F
:10187000B8016E0D7F1D89819A8124E0880F991F20
:101880002A95E1F78C519F4F41E08E0D9F1D0E94DC
:10189000A724FFEFEF1AFF0A80E1E816F10441F7F1
:1018A00089819A81019668E070E00E94EA449A83F7
:1018B000898342E0BE016F5F7F4F80EE90E00E941F
:1018C000A72489819A810F900F90DF91CF911F916A
:1018D0000F91FF90EF90DF90CF900895CF93DF931B
:1018E000EC010E94F7178E859F858130910589F163
:1018F0008230910581F18430910579F1089779F171
:101900008C859D858130910561F18230910559F179
:101910008430910551F1089751F18A859B8581307A
:10192000910539F18230910531F18430910529F129
:10193000089729F1888599858130910511F18230C8
:10194000910509F18430910501F1089701F180E0DA
:101950001FC08AE21DC087E31BC084E319C081E376
:1019600017C080E315C088E313C085E311C082E38C
:101970000FC083E20DC089E30BC086E309C083E397
:1019800007C084E405C083E403C082E401C081E4AD
:10199000DF91CF9108958F929F92BF92CF92DF9265
:1019A000EF92FF920F931F93CF93DF93CDB7DEB7E4
:1019B00061970FB6F894DEBF0FBECDBF89E29AE003
:1019C0000E94982382E49AE089DF182F882309F483
:1019D00042C08091FF0790910008A0910108B0914A
:1019E000020840913108509132086091330870919B
:1019F0003408892B8A2B8B2B41F44093FF0750939B
:101A0000000860930108709302088091FF0790918D
:101A10000008A0910108B09102086C017D0128E73F
:101A2000C20ED11CE11CF11C4C155D056E057F0535
:101A300038F02091FE07211103C01093FE0701C06A
:101A400010E0885A9D4FAF4FBF4F84179507A607E8
:101A5000B70758F408C01092FF07109200081092C0
:101A60000108109202081092FE07809105089091DB
:101A70000608039709F06DC180910308909104084E
:101A8000113411F4019703C0123429F40196909394
:101A9000040880930308809103089091040897FF3D
:101AA00002C080E090E08630910514F085E090E07F
:101AB000909304088093030860E0009799F580E014
:101AC0000E94471A6091C10B8091CF0B3FD966E30A
:101AD00072E089E29AE00E94381640912508509100
:101AE0002608609127087091280889E29AE00E94F0
:101AF000811A39D961E080E00E94471A6091430B56
:101B00008091510B23D96DE272E089E29AE00E9444
:101B10003816409121085091220860912308709155
:101B2000240812C18130910599F580E00E94471A7E
:101B300060917B0B8091890B09D964E272E089E2A4
:101B40009AE00E9438164091110850911208609155
:101B500013087091140889E29AE00E94811A03D94F
:101B600061E080E00E94471A60915F0B80916D0BED
:101B7000EDD86BE172E089E29AE00E94381640915C
:101B80000D0850910E0860910F0870911008DCC08C
:101B900082309105C1F580E00E94471A6091A50B43
:101BA0008091B30BD3D861E172E089E29AE00E94A0
:101BB000381660911D0870911E0880911F08909141
:101BC00020080E941046AB01770F660B770B89E265
:101BD0009AE00E94F619C7D861E080E00E94471A97
:101BE0006091970B80E0B2D867E072E089E29AE0FA
:101BF0000E9438166091190870911A0880911B088C
:101C000090911C0870C083309105E9F580E00E9436
:101C1000471A6DEF71E089E29AE00E94381687E377
:101C200090E00E94251AAB01BC0189E29AE00E9473
:101C3000811A99D861E080E00E94471A63EF71E051
:101C400089E29AE00E94381660E082E00E94F21A6F
:101C50006B017C0161E082E00E94F21ADC01CB01A1
:101C60008C0D9D1DAE1DBF1DB695A79597958795AB
:101C7000BC01CD016E5F7F4F8F4F9F4F0E949A4BEB
:101C8000AB01BC0161C00497C9F580E00E94471A0E
:101C900060E289E29AE0E5D769EE71E089E29AE0D4
:101CA000E7D740912D0850912E0860912F08709130
:101CB000300889E29AE00E94811A55D861E080E0FC
:101CC0000E94471A6091350B80E040D86FED71E0BB
:101CD00089E29AE0CDD7609115087091160880913D
:101CE0001708909118080E941046AB01770F660BF9
:101CF000770B89E29AE00E94F6192AC080E00E94E0
:101D0000471A80910C08882319F066ED71E002C033
:101D10006DEC71E089E29AE0ABD725D861E080E014
:101D20000E94471A6091190B8091270B0FD862EC23
:101D300071E089E29AE09CD74091290850912A08E5
:101D400060912B0870912C0889E29AE00E94811A18
:101D50000AD88091050890910608019709F047C0BC
:101D60008091030890910408113411F4019703C085
:101D7000123429F40196909304088093030880910B
:101D80000308909104088730910514F086E090E0F4
:101D900097FF02C080E090E09093040880930308CE
:101DA00060E080E00E94471ABE016F5F7F4F809124
:101DB00003089091040849DCBE016F5F7F4F89E200
:101DC0009AE00E94971761E080E00E94471A809194
:101DD000030890910408BE016F5F7F4F019635DCC8
:101DE000BE016F5F7F4F89E29AE00E949717809152
:101DF000050890910608029709F033C1143449F49C
:101E000080910308909104080196909304088093B0
:101E1000030860E080E00E94471A68EB71E089E205
:101E20009AE026D7809103089091040897FF02C09A
:101E300080E090E08530910514F084E090E090938C
:101E4000040880930308F090DA0BB090DB0BC0908D
:101E5000D90BD090D80B8090D70B912C80E3881AA7
:101E600088EF980A60E08BE00E94471A809103088F
:101E700090910408892B61F4113411F4F39403C098
:101E8000123409F4FA9462EB71E089E29AE0F0D638
:101E90008091030890910408019761F4113411F4C2
:101EA000B39403C0123409F4BA946CEA71E089E285
:101EB0009AE0DED68091030890910408029761F4BD
:101EC000113411F4C39403C0123409F4CA9466EABD
:101ED00071E089E29AE0CCD68091030890910408E1
:101EE000039761F4113411F4D39403C0123409F44C
:101EF000DA9460EA71E089E29AE0BAD68091030848
:101F000090910408049781F4113421F42FEF821A80
:101F1000920A05C0123419F481E0881A91086AE91E
:101F200071E089E29AE0A4D60F2D083108F007E1AC
:101F30002BE32B1510F43BE3B32E8FE18C1518F433
:101F40002FE1C22E04C0C11002C0CC24C3942CE0E7
:101F50002D1518F49CE0D92E04C0D11002C0DD2448
:101F6000D394C40120E1821627E2920610F08FE09C
:101F700097E27C0180EDE81687E0F80620F480ED1A
:101F8000E82E87E0F82EC701805D97408093D70B3D
:101F9000D092D80BC092D90B0093DA0BB092DB0B26
:101FA0001092DC0B61E080E00E94471A0A3020F4B6
:101FB00060E389E29AE055D6402F50E060E070E09F
:101FC0002AE089E29AE08DD66AE389E29AE049D66E
:101FD00029E02B1520F060E389E29AE042D64B2DF0
:101FE00050E060E070E02AE089E29AE07AD660E2B0
:101FF00089E29AE036D689E08C1520F060E389E228
:102000009AE02FD64C2D50E060E070E02AE089E2A3
:102010009AE067D66FE289E29AE023D629E02D158F
:1020200020F060E389E29AE01CD64D2D50E060E09C
:1020300070E02AE089E29AE054D66FE289E29AE001
:1020400010D6A70160E070E02AE089E29AE049D664
:102050001A3239F487ED9BE00E94EA2681E08093F2
:10206000E10961960FB6F894DEBF0FBECDBFDF91D8
:10207000CF911F910F91FF90EF90DF90CF90BF9085
:102080009F908F900895CF92DF92EF92FF920F93DF
:102090001F93CF93DF93EC01AAD72E853F858885C8
:1020A00099852430310509F049C04C855D8548305B
:1020B000510519F421E0209362082A853B852830D8
:1020C000310519F462E0609362088830910511F4DB
:1020D000109262084430510519F461E06093610880
:1020E0002430310519F462E0609361088430910571
:1020F00011F4109261084230510519F461E06093C7
:1021000060082230310519F462E060936008823083
:10211000910511F4109260084130510519F441E025
:1021200040935F082130310519F422E020935F08C5
:10213000019709F055C010925F0852C08E010158F6
:102140001F4F892B51F48A859B85892B31F48C850F
:102150009D85892B11F4232BA1F1F80180819181B8
:10216000A281B381892B8A2B8B2B39F40E94DC2B23
:10217000F8016083718382839383F801C080D180EA
:10218000E280F380F4EFCF0EF1E0DF1EE11CF11CE2
:102190000E94DC2B6C157D058E059F05B8F4F801B7
:1021A000C080D180E280F380F8ECCF0ED11CE11C1E
:1021B000F11C0E94DC2BC616D706E806F90630F49F
:1021C0000FC0F8011082118212821382CE01DF91BA
:1021D000CF911F910F91FF90EF90DF90CF907ECB2A
:1021E00080E0DF91CF911F910F91FF90EF90DF90F2
:1021F000CF900895FC01E45BFF4F8081918143DF24
:10220000813459F0823461F0843469F0833271F0A2
:102210008A3279F080E090E0089583E090E00895BC
:1022200084E090E0089581E090E0089582E090E0FD
:10223000089585E090E008958DED9BE078D66AE002
:102240008DED9BE00EC5CF92DF92EF92FF921F9330
:10225000CF93DF93EC01662361F11C85112369F1B3
:102260008C819D81AE81BF81892B8A2B8B2B31F490
:102270000E94DC2B6C837D838E839F83CA84DB84E6
:102280000D2C000CEE08FF088C819D81AE81BF8172
:10229000C80ED91EEA1EFB1E0E94DC2BC616D706EE
:1022A000E806F90650F41C861C821D821E821F82DD
:1022B00005C01C821D821E821F8210E0812FDF91CB
:1022C000CF911F91FF90EF90DF90CF900895CF9224
:1022D000DF92EF92FF92CF93DF93EC01662371F1CF
:1022E0008C8581112FC088819981AA81BB81892B1E
:1022F0008A2B8B2B31F40E94DC2B688379838A83B1
:102300009B83C884D9840D2C000CEE08FF088881BB
:102310009981AA81BB81C80ED91EEA1EFB1E0E94AC
:10232000DC2BC616D706E806F90660F481E08C8738
:102330008D87188219821A821B8205C01882198221
:102340001A821B8280E0DF91CF91FF90EF90DF90A7
:10235000CF9008950895CF92DF92EF92FF920F935E
:102360001F93CF93DF936C017A018B01C0E0D0E023
:10237000CE15DF0589F0D8016D918D01D601ED9163
:10238000FC910190F081E02DC6011995892B11F483
:102390007E0102C02196ECCFC701DF91CF911F9142
:1023A0000F91FF90EF90DF90CF900895FC01918DF9
:1023B000828D981761F0828DDF01A80FB11D5D96A7
:1023C0008C91928D9F5F9F73928F90E008958FEF15
:1023D0009FEF0895FC01918D828D981731F0828DC9
:1023E000E80FF11D858D90E008958FEF9FEF089520
:1023F000FC01918D228D892F90E0805C9F4F821B84
:1024000091098F739927089582E399E0F1DF21E024
:10241000892B09F420E0822F0895FC01848DDF01CF
:10242000A80FB11DA35ABF4F2C91848D90E0019647
:102430008F739927848FA689B7892C93A089B18936
:102440008C9180648C93938D848D981306C0028840
:10245000F389E02D80818F7D80830895EF92FF9234
:102460000F931F93CF93DF93EC0181E0888F9B8DB7
:102470008C8D981305C0E889F989808185FD23C07A
:10248000F62E0B8D10E00F5F1F4F0F731127E02EFC
:102490008C8DE8120BC00FB607FCFACFE889F989DA
:1024A000808185FFF5CFCE01B8DFF2CF8B8DFE01A5
:1024B000E80FF11DE35AFF4FF0820B8FEA89FB8989
:1024C0008081806207C0EE89FF896083E889F9898D
:1024D00080818064808381E090E0DF91CF911F91C3
:1024E0000F91FF90EF900895CF93DF93EC01888DCB
:1024F0008823C1F0EA89FB89808185FD05C0A88910
:10250000B9898C9186FD0EC00FB607FCF5CF80818E
:1025100085FFF2CFA889B9898C9185FFEDCFCE01D7
:102520007CDFE8CFDF91CF91089580E090E0892BA8
:1025300019F06ADF811125C080E090E0892B41F01D
:1025400080E090E0892B21F00E94000081111CC0E6
:1025500080E090E0892B41F080E090E0892B21F031
:102560000E940000811113C080E090E0892BA1F04F
:1025700080E090E0892B81F00E94000081110AC068
:1025800008950E940000D8CF0E940000E1CF0E9471
:102590000000EACF0C94000008950895DC0126E0C5
:1025A000629FA00DB11D112490965C934E935F978E
:1025B00021E091962C939197FC01E459FF4F2081E3
:1025C00031960190F081E02D222331F0309749F0CF
:1025D000611107C0DC0102C0309719F05C968C9144
:1025E0001994089521E001C0220F6A95EAF7DC01F1
:1025F0001C962C931C971A965C934E931997ED9109
:10260000FC910084F185E02D60E019940E945A4805
:102610000F931F93CF93DF93EC010E94DC2B68870D
:1026200079878A879B87E881F9810680F781E02D89
:10263000CE01199597FF17C00E94DC2B08851985DC
:102640002A853B85DC01CB01801B910BA20BB30BD0
:102650000C811D812E813F8180179107A207B3074E
:1026600010F38FEF9FEFDF91CF911F910F9108959E
:102670006F927F928F929F92AF92BF92CF92DF9292
:10268000EF92FF921F93CF93DF931F92CDB7DEB7E8
:102690003C01162FFC0186E0689FE00DF11D11241E
:1026A00011A2878D90A181309105F1F01CF4892B46
:1026B00051F04DC082309105A9F1039709F047C050
:1026C00040E050E033C0442309F441C041E050E011
:1026D000C30164DF0E94DC2BF301E85AFF4F6083E3
:1026E00071838283938333C049830E94DC2BF3017F
:1026F000E85AFF4FC080D180E280F3804B015C013B
:102700008C189D08AE08BF08729680819181A0E068
:10271000B0E0498188159905AA05BB0518F442E087
:1027200050E004C0411113C043E050E0612FC301E9
:102730000F90DF91CF911F91FF90EF90DF90CF909E
:10274000BF90AF909F908F907F906F9027CF0F900A
:10275000DF91CF911F91FF90EF90DF90CF90BF90CE
:10276000AF909F908F907F906F900895862F0C94DC
:102770001421862F642F0C943C21862F642F0C94F7
:102780006B21CF92DF92EF92FF920F931F93CF9323
:10279000DF9301E010E002C0000F111F6A95E2F71D
:1027A0007C012FE6E20EF11C6C01ECE7CE0ED11C91
:1027B000F601408150E03197608170E0C7010E94CE
:1027C000792AC7010E943228EC01F601808182300B
:1027D00040F0C7010E94322820E030E0382FC22BA1
:1027E000D32BC023D12381E090E0C017D10711F093
:1027F00080E090E0DF91CF911F910F91FF90EF90DB
:10280000DF90CF900895CF92DF92EF92FF920F93D7
:102810001F93CF93DF938C0181E090E002C0880F7B
:10282000991F6A95E2F7E801C358DF4F442329F066
:1028300028813981822B932B06C080959095288121
:1028400039818223932399838883C880D980F801B2
:10285000E558FF4F808178019FE6E90EF11C91E079
:102860009093EA088093E9081092E8081092E7082C
:10287000D701ED91FC910190F081E02D6C2DC70105
:102880001995F801E458FF4F8081823048F0D70154
:10289000ED91FC910190F081E02D6D2DC70119950E
:1028A000C7010E941C2AC882D982DF91CF911F9153
:1028B0000F91FF90EF90DF90CF900895EF92FF92ED
:1028C0000F931F93CF938C01FC01759684E0C0E0B9
:1028D00060FF02C09081C92B6695815031968111AD
:1028E000F7CF413011F4F8014489F8018585C82BF0
:1028F000C42B7801FEE0EF0EF11CF80162896C2B0D
:10290000C7010E942424F801628960956C23C701E5
:10291000CF911F910F91FF90EF900C9424240F936F
:102920001F93CF93DF93062F0F70423019F440E0CE
:10293000602F0FC0142F262FEC0130E0B90184E086
:10294000759567958A95E1F7CE01B8DF412F602F25
:10295000CE01DF91CF911F910F91B0CFFC01848503
:102960008823A9F0218532852115310519F46111DB
:1029700006C007C02130310521F4611102C08587EE
:1029800001C015866585CF010E960C942424089508
:10299000CF93DF93FC0124813581232B71F0FB0160
:1029A000DC01CD91DC9160817181CE010E948D4866
:1029B000009719F08C1B9D0B02C08FEF9FEFDF91EA
:1029C000CF910895FC01248135816217730748F483
:1029D00080819181009729F0FC01E60FF71F80812B
:1029E000089580E008950F931F93CF93DF938C0198
:1029F000EB018617970771F1FC01808191810097A7
:102A0000B1F0688179816115710579F04281538156
:102A10002C813D814217530740F00E9477488C81FA
:102A20009D81F8019583848313C00E94DE468881CE
:102A30009981F801918380838A819B81938382832A
:102A40008C819D8195838483198218821B821A82CE
:102A50001D821C82C801DF91CF911F910F910895B3
:102A60000F931F93CF93DF93EC0188819981009797
:102A700029F02A813B812617370788F48B016F5F85
:102A80007F4F0E947647009761F0998388831B836C
:102A90000A832C813D81232B11F4FC01108281E0FB
:102AA00001C080E0DF91CF911F910F910895CF93E6
:102AB000DF93EC0188819981009711F00E94DE4636
:102AC000198218821D821C821B821A82DF91CF918B
:102AD0000895EF92FF920F931F93CF93DF93EC0132
:102AE0007B018A01BA01BCDF811103C0CE01DFDFA7
:102AF00007C01D830C83B701888199810E947748A4
:102B0000CE01DF91CF911F910F91FF90EF9008952B
:102B1000FC01808191810C94DE46FC0111821082BF
:102B200013821282158214826115710549F0FB012E
:102B300001900020E9F73197AF01461B570BC9CF31
:102B40000895BF92CF92DF92EF92FF920F931F935F
:102B5000CF93DF937C016B01EA01890124173507CC
:102B600020F48D2FE901042F182F65EF77E0C701BE
:102B7000D4DFD60114968D919C911597C817D9076B
:102B800038F58017910708F48C01D601ED91FC917E
:102B90001197E00FF11FB08010824D915C91BA0146
:102BA0006C0F7D1F6115710559F0FB01019000202C
:102BB000E9F73197AF01461B570BC7018ADF02C007
:102BC000C70175DFD601ED91FC91E00FF11FB082D6
:102BD000C701DF91CF911F910F91FF90EF90DF9090
:102BE000CF90BF900895CF92DF92EF92FF920F9314
:102BF0001F93CF93DF931F921F92CDB7DEB78C0147
:102C00006B0165EF77E089DFC60102DD97FD1DC02E
:102C100089831A82F801E480F580FFEFEF1AFF0A3A
:102C2000B701C8011DDF882379F3F80120813181C4
:102C300084819581BE016F5F7F4F820F931F0E9439
:102C40007748F801F582E482DFCFC8010F900F903A
:102C5000DF91CF911F910F91FF90EF90DF90CF9078
:102C60000895DC01ED91FC910190F081E02D199423
:102C7000EF92FF920F931F93CF93DF938C017B0111
:102C8000C0E0D0E0F701EC0FFD1F6491662361F016
:102C9000D801ED91FC910190F081E02DC8011995CA
:102CA000892B11F02196EECFCE01DF91CF911F91AC
:102CB0000F91FF90EF9008956115710579F0FB0178
:102CC00001900020E9F73197AF01461B570BDC015B
:102CD000ED91FC910280F381E02D199480E090E069
:102CE00008954F925F926F927F92EF92FF920F93AF
:102CF0001F93CF93DF93CDB7DEB7A1970FB6F894AC
:102D0000DEBF0FBECDBF7C01FA01CB0119A222307C
:102D100008F42AE08E010F5D1F4F422E512C612CCA
:102D2000712CBF01A30192010E94FD44F901CA0167
:102D3000015011096A3014F4605D01C0695CD8016A
:102D40006C93232B242B252B61F7B801C701B4DF2B
:102D5000A1960FB6F894DEBF0FBECDBFDF91CF9125
:102D60001F910F91FF90EF907F906F905F904F9029
:102D700008954F925F926F927F928F929F92AF923F
:102D8000BF92CF92DF92EF92FF92CF93DF93EC014D
:102D90006A017B01B22E9A01AB01C701B6010E9404
:102DA0004546882319F065EE77E027C026013701F4
:102DB000E89477F82FEF3FEF4FE75FE7C301B201E9
:102DC0000E94454681110DC02FEF3FEF4FE75FE7AF
:102DD000C301B2010E94964B18161CF469EE77E00D
:102DE0000CC02FEF3FEF4FE75FE4C701B6010E9431
:102DF0004146181694F46DEE77E0CE01DF91CF9145
:102E0000FF90EF90DF90CF90BF90AF909F908F900A
:102E10007F906F905F904F904FCF2FEF3FEF4FE736
:102E20005FECC701B6010E94964B87FDE4CF20E01E
:102E300030E0A901C701B6010E94964B87FF09C087
:102E40006DE2CE010EDF4C01F7FAF094F7F8F09442
:102E500002C0812C912CA12C60E070E080E09FE307
:102E6000AB1441F020E030E040E251E40E94A8457C
:102E7000A394F6CF9B01AC01C701B6010E94444563
:102E80002B013C010E9415466B017C010E949A4B6C
:102E90009B01AC01C301B2010E9443452B013C01DF
:102EA0002AE0B701A601CE011CDF7C01E80CF91C69
:102EB000BB2031F061EF77E0CE01FEDEE80EF91EB7
:102EC000DB2CDD2021F120E030E040E251E4C301C1
:102ED000B2010E94FB4B2B013C010E9415464B01A5
:102EE000A12CB12C2AE0B501A401CE01FADEE80E36
:102EF000F91EC501B4010E949A4B9B01AC01C301AC
:102F0000B2010E9443452B013C01DA94DACFC7019C
:102F1000DF91CF91FF90EF90DF90CF90BF90AF9077
:102F20009F908F907F906F905F904F900895C4CE48
:102F30001F920F920FB60F9211240BB60F922F9380
:102F40003F934F935F936F937F938F939F93AF9331
:102F5000BF93EF93FF9382E399E05FDAFF91EF91E4
:102F6000BF91AF919F918F917F916F915F914F91A1
:102F70003F912F910F900BBE0F900FBE0F901F909F
:102F800018951F920F920FB60F9211240BB60F9245
:102F90002F938F939F93EF93FF93E0914209F091CA
:102FA00043098081E0914809F091490982FD12C0EE
:102FB000908180914B098F5F8F7320914C0982170C
:102FC00051F0E0914B09F0E0EE5CF64F958F809365
:102FD0004B0901C08081FF91EF919F918F912F91BB
:102FE0000F900BBE0F900FBE0F901F9018952F9251
:102FF0003F924F925F926F927F928F929F92AF9289
:10300000BF92CF92DF92EF92FF920F931F93CF93D5
:10301000DF93CDB7DEB72A970FB6F894DEBF0FBEA9
:10302000CDBF9A8789870E94DC2B29853A85245A4F
:103030003F4F3A832983D9010D911D912D913C91E8
:10304000AB01BC01401B510B620B730BE985FA8588
:10305000E859FF4F80819181A0E0B0E010E0841733
:103060009507A607B70708F05EC169847A84F6E67B
:103070006F0E711CE984FA8422E6E20EF11CD30182
:103080008C911817A0F4E985FA8580819181F70168
:10309000A081B181A10FB11DFC012081318142E0ED
:1030A0006C9189859A85F90119951F5FE8CF10E029
:1030B00029843A84B7E62B0E311CE984FA84E4E6CD
:1030C000EE0EF11C812C912C5401839429853A85B4
:1030D0002E593F4F3C832B83F1018081181708F054
:1030E0008DC0C12ED12CA985BA858D919C91F701F7
:1030F000A081B181AC0DBD1DFC012081318141E079
:103100006C9189859A85F9011995A985BA858D9162
:103110009C91F701A081B181AC0DBD1DFC01228104
:10312000338140E06C9189859A85F9011995D50123
:10313000C401012E04C0880F991FAA1FBB1F0A9447
:10314000D2F7AC019C012095309500E0F30180811D
:10315000A985BA85ED91FC91081770F5802F90E054
:10316000AB81BC816D917C912C01DB01A40DB51D5F
:103170000480F581E02D6C9189859A852F833887AD
:103180004D835E831995440C551C2F8138854D81E4
:103190005E81E985FA85E40DF51D892B29F480858A
:1031A0009185842B952B04C0808591858223932360
:1031B000918780870F5FCACFD7018D919C91DC01E9
:1031C000AC0DBD1D0280F381E02D41E06C9189853D
:1031D0009A851995A985BA85ED91FC91D7018D91B4
:1031E0009C91DC01AC0DBD1D0190F081E02D40E013
:1031F0006C9189859A8519951F5F6ECFE984FA8451
:10320000FCE1EF0EF11C89859A85885A9F4FF701E2
:103210002FEF3FEF43815481452B21F410823283FD
:10322000218315823696E817F907A1F7B12CC984D6
:10323000DA8420E6C20ED11C86E0A82EF30180813C
:10324000B81608F058C0912C09851A850B0D111D70
:103250000B0D111D085F1F4FD1018C91981608F0BE
:1032600048C0D8014D915C91092C02C056954795F4
:103270000A94E2F741705527B89EC0011124890DC8
:10328000911DD601ED91FC91E80FF91FA081E98510
:10329000FA8560E0258D368D2817390721F44170B5
:1032A00089859A851CC06F5F36966A3099F7452BE1
:1032B000F1F0F70160E070E02081211112C0A69EBC
:1032C000F001A79EF00D112429853A85E20FF31F26
:1032D000A48F968F858F10A2178E41E0C901C8D99F
:1032E00006C06F5F7F4F36966A30710529F7939459
:1032F000B3CFB394A3CFE985FA85B19689859A8532
:10330000835A9F4F10E02081211111E03696E81773
:10331000F907C9F70E94DC2BA981BA816D937D93CF
:103320008D939C931397812F2A960FB6F894DEBF46
:103330000FBECDBFDF91CF911F910F91FF90EF9006
:10334000DF90CF90BF90AF909F908F907F906F90C5
:103350005F904F903F902F90089590913109911177
:10336000FCCF91E090933109909330092FEF209397
:103370002F0910922E09260F20932D0990932C09C6
:1033800090912C09880F892B80932C0980912B090F
:10339000813061F410922B0980912C098093BB003D
:1033A0008091BC0083FDF8CF85EC01C085EE809351
:1033B000BC00809131098130E1F380912E0986179C
:1033C00010F460912E09ABE0B9E02BEE38E0F90182
:1033D0008E2F821B861718F48D918193F9CF862F3B
:1033E000089563EF77E082E399E066CCCF92DF92B5
:1033F000EF92FF920F931F93CF93DF9377FF1BC042
:103400006A017B01EC016DE22CDC8C01442755271D
:10341000BA014C195D096E097F092AE0CE0161DC11
:10342000800F911FDF91CF911F910F91FF90EF902F
:10343000DF90CF9008952AE0DF91CF911F910F91F7
:10344000FF90EF90DF90CF904CCCFF920F931F93A3
:10345000CF93DF93F82E0AE010E0C0E0D0E08F2D8C
:10346000B8D7C80FD91F01501109C9F7CE016AE0BA
:1034700070E00E94EA44072E000C880B990B0E9412
:103480009C4BDF91CF911F910F91FF900895CF93A7
:10349000DF93CDB7DEB728970FB6F894DEBF0FBE27
:1034A000CDBF1D8290E49E8324E12F8324E52887ED
:1034B00019829A8390E19B8390E59C839091300AD6
:1034C000691710F06FEF690F4091310A262F30E035
:1034D000FE01E20FF31F403121F4943011F4918189
:1034E00001C09581682F690F606889E29AE028968B
:1034F0000FB6F894DEBF0FBECDBFDF91CF910C9415
:10350000902322E036CCCF92DF92EF92FF920F937E
:103510001F93CF93DF9300D000D0CDB7DEB76C01FF
:103520007A01CE010196F9DABE016F5F7F4FC601C5
:103530002FDA8C01CE010196EBDA17FD16C0B80127
:103540006E5F7F4FC6013EDA813419F4F7011082B5
:103550000EC0803321F481E0F701808309C08133FC
:1035600031F482E0F701808302C080E001C081E095
:1035700026960FB6F894DEBF0FBECDBFDF91CF9178
:103580001F910F91FF90EF90DF90CF900895CF9310
:10359000DF93BC0182E399E06BDBEC0122DF8C0F4F
:1035A0009D1FDF91CF91089581E08093EA0888E61E
:1035B0008093E9081092E8081092E7086FE08FEC1A
:1035C00099E00E94AF288FEC99E00E941C2A61E0EC
:1035D00088E6C3DE1092E6088093E5088FEC99E058
:1035E0000C9432280F931F93262F90E0FC01EF5D7F
:1035F000F54F6491FC01E552F64FE491222311F05E
:10360000462F01C040E0F0E0EE0FFF1FEF53F64FF2
:103610008591949100E412E42FE030E00E94322C76
:10362000611571058105910549F0DC01CB01019619
:10363000A11DB11DBC01CD019F7003C060E070E011
:10364000CB011F910F910895EF92FF920F931F935B
:10365000CF93DF937C018B01CAEFDAE08D819E81ED
:103660000E949F25B7018D819E810E94352540E0F3
:103670006EEB8D819E810E94F4248D819E810E943B
:103680008425F80180838D819E810E948425F80124
:1036900081838D819E810E948425F80182838D81A2
:1036A0009E810E948425F80183838D819E810E94E2
:1036B0008425F80184838D819E810E948425F801F0
:1036C00085838D819E810E948425F80186838D816A
:1036D0009E810E948425F80187838D819E810E94AE
:1036E0008425F80180878D819E81DF91CF911F9184
:1036F0000F91FF90EF900C949F25CF93DF93CDB760
:10370000DEB729970FB6F894DEBF0FBECDBFFC0120
:103710002081203119F1BE016F5F7F4F95DF68E096
:10372000CE0101960E94E7249985891315C08D81E9
:103730008F3359F018F48F3189F009C08F3519F0A3
:103740008F3741F004C08BE00AC08AE008C0807F58
:10375000803F11F48CE003C080E001C089E029962D
:103760000FB6F894DEBF0FBECDBFDF91CF910895A5
:10377000CF93DF93AB01BC0122E082E399E0F9DA59
:10378000EC012FDE8C0F9D1FDF91CF910895E0910A
:10379000060AF091070A309709F019940895CF921C
:1037A000DF92EF92FF920F931F93CF93DF93FC0171
:1037B0007196C491C1503196C590D490E62EF12CEB
:1037C000F701EE0FFF1FEC0DFD1D85919491909375
:1037D000E6098093E50900E010E0D0E040E150E028
:1037E00060E270E08AE09AE00E94674821E030E001
:1037F00040E050E00115110529F460E070E086EF2B
:1038000097E004C061E070E088EF97E0C0DFF80166
:10381000EE0DFF1DCE17DF0764F0EE0FFF1FEC0D5E
:10382000FD1D6591749140E150E08AE09AE00E94AC
:10383000C64820E130E041E050E0B8018AE09AE07B
:10384000A6DF0130110519F001E010E0C7CFDF91CC
:10385000CF911F910F91FF90EF90DF90CF9008953F
:103860008F929F92AF92BF92CF92DF92EF92FF9290
:10387000CF93DF93A091CC0A882311F03A2F01C097
:1038800030E08091CD0A90E0880F991F8F53964FBA
:10389000C090D20AD090D30AE090D40AF090D50A12
:1038A00040E050E0BA01FC01C591D49128812A235F
:1038B00023130FC04A015B012FEF821A920AA20A5A
:1038C000B20A4C155D056E057F0538F4B501A401FB
:1038D000EACF342F252FCB0104C030E020E080E078
:1038E00090E0632F722FDF91CF91FF90EF90DF90E8
:1038F000CF90BF90AF909F908F90089590E0FC0183
:103900003197E231F10508F04EC08827EB57FF4FA1
:103910008F4F0C943B45809180008F7703C080913E
:1039200080008F7D80938000089580918000877F44
:10393000F9CF84B58F7702C084B58F7D84BD08959B
:103940008091B0008F7703C08091B0008F7D80930D
:10395000B0000895809190008F7707C0809190000B
:103960008F7D03C080919000877F809390000895A1
:103970008091A0008F7707C08091A0008F7D03C049
:103980008091A000877F8093A000089580912001FE
:103990008F7707C0809120018F7D03C08091200127
:1039A000877F8093200108953FB7F89480910A0C97
:1039B00090910B0CA0910C0CB0910D0C26B5A89B0E
:1039C00005C02F3F19F00196A11DB11D3FBFBA2FB1
:1039D000A92F982F8827820F911DA11DB11DBC0111
:1039E000CD0142E0660F771F881F991F4A95D1F7D6
:1039F00008950F931F93CF938C01C62F40E150E0A1
:103A000060E270E08AE09AE00E946748C730D9F12E
:103A1000C830D9F1C11107C0F80180814AE06AE0DD
:103A20007AE090E013C0C13049F44AE06AE07AE0FD
:103A3000F801808191810E94CF4835C0C23049F49D
:103A40004AE06AE07AE0F801808191810E940849A9
:103A50002AC0C33059F4F801608171818281938159
:103A60002AE04AE05AE00E94D9481DC0C43079F4E7
:103A7000F80160817181828193812AE04AE05AE0F5
:103A80000E94E74810C022E003C023E001C021E00B
:103A900042E0420FF80160817181828193810AE0E6
:103AA0001AE00E94A74820E130E040E050E061E0E9
:103AB00070E08AE09AE0CF911F910F9168CE40E1CB
:103AC00050E060E270E08AE09AE00E9467488091EE
:103AD0001C0A813039F48FE49EE690930B0A8093A0
:103AE0000A0A09C08FE496E6A6E680930A0A909334
:103AF0000B0AA0930C0A20E130E040E050E061E0C6
:103B000070E08AE09AE043CE1F93CF93DF93182FA3
:103B1000D92FC62F40E150E060E270E08AE09AE0E1
:103B20000E946748E12FFD2FEC0FF11DEC0FF11DF6
:103B3000659174916F5F7F4F4FE050E08AE09AE0AB
:103B40000E94C64820E130E040E050E061E070E0D3
:103B50008AE09AE0DF91CF911F9119CE0F931F93C6
:103B6000CF93DF93EC01FC0170961491113009F0B2
:103B700094C01093E20940E150E0BC018AE09AE071
:103B80000E94C64820E130E040E050E060E070E094
:103B90008AE09AE0FCDDFE01729685919491FC0129
:103BA00064913996A591B491611104C08C91809370
:103BB0001C0A6DC08FEF860F823040F48D919C916E
:103BC00011979093220A8093210A61C08DEF860F8E
:103BD000823070F40D911D912D913C9113970093BB
:103BE0001D0A10931E0A20931F0A3093200A4FC00B
:103BF000693029F5FD013396C591D491FD01859178
:103C00009491FC018081FD013296A4919E0160E0B7
:103C100090E09A1761F0F90145915491FA014491AD
:103C2000481301C0692F9F5F2E5F3F4FF2CF609313
:103C30001C0ACE01DF91CF911F910F9165CF6A30A1
:103C4000C9F4FD013196C591D491FD01A4918881FB
:103C500090E002C095958795AA95E2F780FF03C092
:103C600010931C0A02C010921C0ADF91CF911F9181
:103C70000F9125CF0D911D912D913C91139700939C
:103C8000230A1093240A2093250A3093260ACD0193
:103C9000DF91CF911F910F91ACCE111134C0611102
:103CA0002EC02091E7093091E8098217930739F176
:103CB0008091EB099091EC09892B79F08091ED09C5
:103CC0009091EE09892B61F08091EF099091F009B4
:103CD000892B79F482E090E005C080E090E002C09A
:103CE00081E090E0880F991FFC01E551F64F318388
:103CF0002083D093E809C093E7091092050A6091E8
:103D0000050ACE0114C01230D1F46296FE018591ED
:103D10009491009711F0FC0119958091E109882395
:103D200059F06091050A8091E7099091E809DF91C7
:103D3000CF911F910F9133CD81E08093E409DF9102
:103D4000CF911F910F9108952F923F924F925F92C2
:103D50006F927F928F929F92AF92BF92CF92DF929B
:103D6000EF92FF921F93CF93DF93CDB7DEB76497A7
:103D70000FB6F894DEBF0FBECDBF4296FC01859111
:103D80009491FC011491359685909590A590B490EE
:103D9000FC0131964590559065907490643009F41B
:103DA00023C22FEF260F223008F04EC141E06130D0
:103DB00009F440E0193021F5FC0139962591349140
:103DC000F90132969491319625913491EFEFE90FF4
:103DD00090911C0A442339F0911103C0E0931C0A0E
:103DE0000AC0915006C09E1303C010921C0A03C063
:103DF0009F5F90931C0A60911C0AC90185DEFCC17B
:103E00001A3051F481E090911C0A913009F480E05D
:103E100080931C0A54DEF0C1442319F02FEF3FEFCA
:103E200002C021E030E06201730180911A0A909192
:103E30001B0A289F1001299F300C389F300C112439
:103E40009101032C000C440B550BCA01B901298BBD
:103E50003A8B4B8B5C8B0E949C4B29893A894B890E
:103E60005C89163029F420E030E040E251E406C0DD
:103E7000173039F420E030E048EC52E40E94A845C5
:103E80009DC0183029F420E030E04AE754E4F6CF32
:103E9000111126C080911C0A820D81149104A10485
:103EA000B10441F4C114D104E104F10419F4809384
:103EB0001C0A13C090E0A0E0B0E0C816D906EA06DC
:103EC000FB064CF02C013D0188159905AA05BB05A0
:103ED00014F42401350140921C0A8CE19AE0B1C02F
:103EE000113011F0123071F58091210A9091220A5F
:103EF000820D931D81149104A104B10451F4C114E5
:103F0000D104E104F10429F49093220A8093210A58
:103F100016C0092E000CAA0BBB0BC816D906EA0660
:103F2000FB064CF02C013D0188159905AA05BB053F
:103F300014F4240135014092210A5092220A81E2B0
:103F40009AE07FC0133011F01430C1F580911D0A42
:103F500090911E0AA0911F0AB091200A820F931F10
:103F6000A41FB51F81149104A104B10471F4C114FC
:103F7000D104E104F10449F480931D0A90931E0AD0
:103F8000A0931F0AB093200A16C0C816D906EA06E5
:103F9000FB064CF06C017D0188159905AA05BB054F
:103FA00014F475016401C0921D0AD0921E0AE092B9
:103FB0001F0AF092200A8DE19AE043C02091230A63
:103FC0003091240A4091250A5091260A0E944445C6
:103FD0002B013C0181149104A104B10441F4C114EA
:103FE000D104E104F10419F4CB01D30120C0C701CD
:103FF000B6010E949C4B6B017C019B01AC01B2019C
:10400000C3010E944146181684F0C501B4010E9404
:104010009C4B6B017C019B01AC01B201C3010E946E
:10402000964B87FD02C062017301C601D7018093E0
:10403000230A9093240AA093250AB093260A83E2C8
:104040009AE0612FD6DCD8C0633009F0D5C0FC01FE
:104050003996A591B491193099F4FD0133962591C3
:10406000349140911C0AF901E40FF11DE40FF11D98
:1040700065917491FB016491FD01A591B49129C0F2
:104080001A3019F5FD01319665917491FD01A491E5
:1040900020911C0AFB01B081222349F041E050E04D
:1040A00001C0440FAA95EAF74B2B40830AC021E0D8
:1040B00030E001C0220FAA95EAF720952B23FB01DF
:1040C0002083FB0160816ED48FC0111104C0609108
:1040D0001C0A6C93F8CF1230A9F42091210A309178
:1040E000220A2D933C93388B2F87FC013B968591B8
:1040F0009491009709F478C0BE01615F7F4F0E94E0
:10410000990872C01130A1F42091210A3091220A3D
:104110002D933C933E872D87FC013B96859194918E
:10412000009709F461C042E0BE01635F7F4F3CC06D
:104130001430E9F440911D0A50911E0A60911F0A43
:104140007091200A4D935D936D937C9313974987EB
:104150005A876B877C87FC013B96859194910097E9
:1041600009F442C044E0BE01675F7F4F1DC01330B9
:10417000E9F440911D0A50911E0A60911F0A709146
:10418000200A4D935D936D937C9313974D835E83CB
:104190006F837887FC013B9685919491009721F17C
:1041A00044E0BE016B5F7F4FD2D31EC01530E0F0FC
:1041B0004091230A5091240A6091250A7091260AA1
:1041C0004D935D936D937C93139749835A836B83CF
:1041D0007C83FC013B9685919491009729F0BE0168
:1041E0006F5F7F4F0E9496081092E20961E0809114
:1041F000E7099091E809B2DC64960FB6F894DEBF47
:104200000FBECDBFDF91CF911F91FF90EF90DF9058
:10421000CF90BF90AF909F908F907F906F905F9066
:104220004F903F902F900895CF93DF93282F30E049
:10423000F901EB56F54F8491F901EF5DF54FD491FB
:10424000F901E552F64FC491CC2389F0811156DB78
:10425000EC2FF0E0EE0FFF1FEF53F64FA591B49156
:10426000EC91ED2381E090E021F480E002C080E059
:1042700090E0DF91CF9108951F93CF93DF93282F84
:1042800030E0F901EB56F54F8491F901EF5DF54F00
:10429000D491F901E552F64FC491CC23C1F0162F09
:1042A00081112CDBEC2FF0E0EE0FFF1FE955F64FEC
:1042B000A591B4918FB7F894111105C09C91ED2F81
:1042C000E095E92302C0EC91ED2BEC938FBFDF91D9
:1042D000CF911F910895CF93DF9390E0FC01EF5DA4
:1042E000F54F2491FC01E552F64F8491882361F14A
:1042F00090E0880F991FFC01E558F54FC591D491C6
:10430000FC01E955F64FA591B491611109C09FB721
:10431000F8948881209582238883EC912E230BC00A
:10432000623061F49FB7F8943881822F809583239F
:104330008883EC912E2B2C939FBF06C08FB7F894E7
:10434000E8812E2B28838FBFDF91CF910895EF92C4
:10435000FF920F931F93CF93DF93EC0161E084E012
:10436000BADF00E010E061E084E086DF7E01E00E6D
:10437000F11ED7018C91B9E68B9FC00111248230C8
:1043800091053CF0880F991F880F991F0597019799
:10439000F1F760E084E070DFD7011196EC91B9E6A7
:1043A000EB9FF0011124E230F1053CF0EE0FFF1F0E
:1043B000EE0FFF1F35973197F1F70E5F1F4F0E3746
:1043C000110589F6DF91CF911F910F91FF90EF902A
:1043D0000895863308F0865390917B00282F28702B
:1043E000977F922B90937B008770806480937C00F2
:1043F00080917A00806480937A0080917A0086FDB3
:10440000FCCF809178002091790090E0922B089564
:104410008F929F92AF92BF92CF92DF92EF92FF92D4
:104420006B017C01C1DA4B015C01C114D104E104D0
:10443000F104E9F0B9DADC01CB0188199909AA097C
:10444000BB09883E9340A105B10578F321E0C21A6B
:10445000D108E108F10888EE880E83E0981EA11CBF
:10446000B11CC114D104E104F10421F7DECFFF90A7
:10447000EF90DF90CF90BF90AF909F908F90089576
:10448000CF92DF92EF92FF920F931F93CF93DF9320
:10449000CDB7DEB7C054D1400FB6F894DEBF0FBE23
:1044A000CDBF0E94DC2B0091CE0A1091CF0A209143
:1044B000D00A3091D10A6B017C01C01AD10AE20AFC
:1044C000F30A40EDC41647E0D406E104F10418F401
:1044D0008091D60AB1C06093CE0A7093CF0A8093C0
:1044E000D00A9093D10A1092C90A1092C80A109269
:1044F000C70A1092C60A1092C50A61E08091CA0AE2
:10450000BBDE6AEF70E080E090E082DF61E08091E6
:10451000CA0AE1DE60E08091CA0AAEDE64E170E0C2
:1045200080E090E075DFF89461E08091CA0AA4DE33
:104530008BE990E00197F1F762E08091CA0ACBDE47
:1045400083E290E00197F1F780E08AD9672B682B2E
:10455000692B21F41092D60A78943BC081E080D96F
:10456000672B682B692BB1F38E010F5F1F4F6E0114
:104570008FEBC81A8EEFD80A780180E071D9F70165
:10458000608371838283938381E06AD9F7016483B6
:10459000758386839783F8E0EF0EF11CEC14FD041D
:1045A00061F7789420E030E0F80140815181628128
:1045B0007381C480D580E680F7804115510561057F
:1045C000710529F0C114D104E104F10421F4109221
:1045D000D60A80E031C0F90183E0F595E7958A9528
:1045E000E1F7EB53F54F8081880F4C155D056E05A3
:1045F0007F0508F4816080832F5F3F4F085F1F4F66
:104600002832310589F62091C90A30E04091C50A67
:104610008091C60A90E0840F911D4091C70A840FD3
:10462000911D4091C80A840F911D992728173907B9
:1046300071F681E08093D60AC05CDE4F0FB6F89425
:10464000DEBF0FBECDBFDF91CF911F910F91FF90C5
:10465000EF90DF90CF900895DC01ED91FC91028402
:10466000F385E02D41E0199581E090E008950895EB
:104670000895FC0190810180F281E02D892F8095C1
:1046800060FF12C0F8942281822382838181892B6A
:104690008183A3E2B0E01197F1F78281982B928396
:1046A000789487ED90E011C0F89422818223828370
:1046B0008181892B8183AFEFB0E01197F1F782817F
:1046C000982B928378948FE090E00197F1F708950A
:1046D000EF92FF920F931F93CF93DF937C018C0196
:1046E000C0E0D0E0F80186899FDD892B51F4269641
:1046F000CC0FDD1FCC0FDD1FCE0DDF1D8881998112
:1047000008C021960C5F1F4FC530D10559F780E0D6
:1047100090E0DF91CF911F910F91FF90EF9008955E
:10472000DC01ED91FC910284F385E02D40E01994C9
:10473000DC01ED91FC910084F185E02D6FEF19947F
:1047400061E0EEDF8BE39FE10197F1F708950F93AE
:104750001F93CF93DF93EC01423018F08C81886077
:104760008C834F836887222329F0413019F48C8190
:1047700084608C8364E670E080E090E049DE6C81C8
:1047800064FD31C0E881F9810284F385E02D42E0C7
:1047900063E0CE0119958BE496E40197F1F7E88187
:1047A000F9810284F385E02D42E063E0CE011995A2
:1047B00003E512E0C8010197F1F7E881F98102846D
:1047C000F385E02D42E063E0CE011995C801019721
:1047D000F1F7E881F9810284F385E02D42E062E09F
:1047E000CE01199514C06062CE019ADF8BE496E485
:1047F0000197F1F76C816062CE0192DF03E512E070
:10480000C8010197F1F76C816062CE0189DFC801B0
:104810000197F1F76C816062CE0182DF8BEE90E050
:104820000197F1F784E08D836CE0CE0179DFCE0152
:1048300087DF82E08E8366E0CE0172DFCE01DF91FA
:10484000CF911F910F9174CFFC0123812223B9F0E6
:104850009181909569236083828191E09093EA0829
:104860008093E9081092E8081092E7088FEC99E02D
:1048700076D48FEC99E0E0D5282F30E002C020E01C
:1048800030E081E090E0232B11F080E090E008958B
:10489000FF920F931F93CF93DF93EC01162F042FFA
:1048A000F22E8B85888B8FEC99E02FD6888991E04A
:1048B0009093EA088093E9081092E8081092E708BC
:1048C0008FEC99E0B9D591E0811190E0998B992313
:1048D00021F08FEC99E0C6D38E878989882331F047
:1048E0001F861C8260E0CE010E96AEDF2F2D402F7A
:1048F000612FCE01DF91CF911F910F91FF9027CFB4
:10490000CF92DF92FF920F931F93CF93DF931F926B
:10491000CDB7DEB78C010D5F1F4FF62E6B018C2DCE
:104920008F19841758F4C80149830E94AF4CF601CF
:1049300081936F010F5F1F4F4981F1CF0F90DF917E
:10494000CF911F910F91FF90DF90CF900895CF925C
:10495000DF92FF920F931F93CF93DF931F92CDB7F8
:10496000DEB78C010D5F1F4FF62E6B018C2D8F195A
:10497000841758F4F60161916F01C80149830E94C0
:10498000B74C0F5F1F4F4981F1CF60E080E090E0AE
:104990000F90DF91CF911F910F91FF90DF90CF90FB
:1049A0000C94B74CCF93DF931F92CDB7DEB76983DA
:1049B0000B96FC0185919491009729F041E0BE018E
:1049C0006F5F7F4FC4DF0F90DF91CF910895DC01BF
:1049D000E0E0615038F08D91E827F0E0E552F54FC6
:1049E000E491F7CF8E2F0895CF92DF92EF92FF924E
:1049F0000F931F93CF93DF931F92CDB7DEB76C0158
:104A0000E62E08E010E0FF24F39461E08F2D8E2164
:104A100009F460E0C60149832CDEFF0C0150110946
:104A200049810115110589F7411115C0F894D60186
:104A30001196ED91FC91129791818C91809589232B
:104A400081831196ED91FC91129792818C918095C2
:104A50008923828378940F90DF91CF911F910F91DA
:104A6000FF90EF90DF90CF900895CF92DF92EF927A
:104A7000FF920F931F93CF93DF931F92CDB7DEB7B3
:104A80008C01F62E40E065E57983AEDFCF2C79818D
:104A9000D72E760188E0E80EF11CF60161916F01D6
:104AA00040E0C801A1DFCE14DF04B9F70F90DF9119
:104AB000CF911F910F91FF90EF90DF90CF900895CD
:104AC000FC0190810180F281E02DF8948181892B95
:104AD00081832281892F809528232283A7E0B0E05B
:104AE0001197F1F7218182238183A3E2B0E011972E
:104AF000F1F780817894EFECF0E03197F1F79823AB
:104B000081E009F480E00895EF92FF920F931F93E4
:104B1000CF93DF937C0108E010E0C0E0D1E0C70153
:104B2000CFDF8111CD2BDD0F01501109C1F78C2F83
:104B3000DF91CF911F910F91FF90EF900895FC01AD
:104B400090810180F281E02DF8948181292F2095B8
:104B50008223818378948DE743E050E0815021F1F6
:104B6000DA011197F1F730813923C1F3F89482818A
:104B7000822382838181892B81837894ABE7B7E09C
:104B80001197F1F7F894818128232183A3E1B1E003
:104B90001197F1F78081982381E009F080E0789403
:104BA000E3E6F6E03197F1F70895AF92BF92CF9226
:104BB000DF92EF92FF920F931F93CF93DF931F9299
:104BC000CDB7DEB75C01E62ED72EFC0185858111BD
:104BD00058C0C501B4DF811105C0F50113861586E3
:104BE000148667C040E060EFC501FEDE01E0F12CF5
:104BF000C12C11E0C50164DF682FC501698360DF46
:104C00006981613019F48130B9F432C04F2D50E020
:104C100068131BC0F5018385181730F4E40FF51FE6
:104C20008381802349F402C0181731F060E0193005
:104C300058F4F501148708C0F501EF0DF11D8381CB
:104C4000802B838361E009C0C12EF501E40FF51FBD
:104C50009381802F809589238383C5010ADD1F5F9F
:104C6000000F11F4F39401E0F7E0FF1508F0C2CF54
:104C7000113438F0F501C386C11015C081E0858775
:104C800012C0F50113861586148680E0D5011396AF
:104C9000EE2DFD2D9501255F3F4F9D919193A2171C
:104CA000B307D9F706C0F5018381882351F381E06A
:104CB000EDCF0F90DF91CF911F910F91FF90EF906B
:104CC000DF90CF90BF90AF900895CF92DF92EF9298
:104CD000FF920F931F93CF93DF93EC0181E08093BA
:104CE000EA0888E68093E9081092E8081092E7083D
:104CF00060E08FEC99E033D28FEC99E09DD347E0F0
:104D000050E068E670E08FEC99E0F3D38FEC99E027
:104D1000A9D18F77982F92959F701AEF082F919FA6
:104D2000000D11248FEC99E09DD19C01332794E074
:104D3000359527959A95E1F7F82E129FF00C1124DE
:104D40008FEC99E08FD19C01332744E0359527956E
:104D50004A95E1F7E82E129FE00C11248FEC99E0C0
:104D600081D18FEC99E07ED19C01332754E03595B9
:104D700027955A95E1F7D82E129FD00C11248FEC6D
:104D800099E070D19C01332764E0359527956A95A9
:104D9000E1F7C82E129FC00C11248FEC99E062D16C
:104DA0009C01332774E0359527957A95E1F7129F9A
:104DB000800D11248883C982DA82EB82FC820D8304
:104DC000CE01DF91CF911F910F91FF90EF90DF9077
:104DD000CF900895FF920F931F93CF93DF938C0191
:104DE000FF24F394F092EA08D8E6D093E9081092F1
:104DF000E8081092E70860E08FEC99E0B0D1F80184
:104E00002581CAE0822F6C2F0E94CA44682F660F4A
:104E1000860F682F660F620F8FEC99E0A0D1F80122
:104E20002481822F6C2F0E94CA44682F660F860F40
:104E3000682F660F620F8FEC99E091D1F801238102
:104E4000822F6C2F0E94CA44682F660F860F682F2E
:104E5000660F620F8FEC99E082D160E08FEC99E0F1
:104E60007ED1F8012281822F6C2F0E94CA44682FC4
:104E7000660F860F682F660F620F8FEC99E06FD177
:104E8000F8012181822F6C2F0E94CA44682F660F7F
:104E9000860F682F660F620F8FEC99E060D1F801E2
:104EA0002081822F6C2F0E94CA44682F660F860FC4
:104EB000682F660F620F8FEC99E051D18FEC99E06B
:104EC000BBD20E94D41AC82FF092EA08D093E90806
:104ED0001092E8081092E7086FE08FEC99E03FD15C
:104EE0006C2F6F778FEC99E03AD18FEC99E0DF91DE
:104EF000CF911F910F91FF909FC22091FC0730919D
:104F0000FD072817390771F49091FA078091FB0784
:104F1000981741F0E091FA07F0E0EB58F34F8081E9
:104F200090E008958FEF9FEF089508951F93CF931A
:104F3000DF93DC015C962D913C915D972115310545
:104F400039F481E090E013969C938E9312973DC0C4
:104F50005196ED91FC91529750969C915097892FC4
:104F600080951FB75E964C915E9741FB772770F94D
:104F700041FD6095F8944081772311F0492B01C0E1
:104F800048234083E9012197F1F748E0508160FF11
:104F900002C0592B01C058235083E9012197F1F732
:104FA0006695415099F7772321F09081892380837A
:104FB00003C08081982B90831FBF5C968D919C913C
:104FC0005D970197F1F721E030E0C901DF91CF91C2
:104FD0001F9108952091FC073091FD07281739078C
:104FE00069F48091FB072091FA0790E0805C9F4F65
:104FF000821B910960E470E00C94EA4480E090E048
:1050000008952091FC073091FD0728173907B9F45E
:105010009091FA078091FB07981789F0E091FA07C1
:10502000F0E0EB58F34F80812091FA0730E02F5FDA
:105030003F4F2F7333272093FA0790E008958FEFA7
:105040009FEF08950895E091E6088091E508E8173C
:1050500030F4F0E0E551F74F808190E008958FEF54
:105060009FEF08959091E6088091E508981750F415
:10507000E92FF0E0E551F74F208130E09F5F9093FA
:10508000E60802C02FEF3FEFC90108958091E508BF
:1050900090E02091E608821B9109089585ED8093A8
:1050A000BC008091BC0084FDFCCF109231090895B2
:1050B0004091300C262F30E0240F311D2132310574
:1050C000DCF4209131092430C9F4FC0180E090E047
:1050D000861758F43091300C2191DC01A25FB34F58
:1050E000A30FB11D2C930196F3CF8091300C680F64
:1050F0006093300C80E0089581E0089582E0089587
:10510000CF92DF92EF92FF920F931F93CF93DF9393
:105110007C01262F972F8A018091EA08882391F03D
:10512000C62FD72F6E01C40ED51ECC15DD0569F034
:105130006991D701ED91FC910190F081E02DC701BB
:105140001995F3CF642F822FB3DFC801DF91CF9180
:105150001F910F91FF90EF90DF90CF900895CF9324
:10516000DF931F92CDB7DEB769832091EA0822232F
:10517000D1F02091E708203240F021E030E0FC013E
:105180003383228380E090E014C08091E808E82F08
:10519000F0E0EB5AF34F998190838F5F8093E8089A
:1051A0008093E70804C061E0CE01019681DF81E0D1
:1051B00090E00F90DF91CF910895FC019081905382
:1051C0009A3008F090E0818180532AE0929F800D10
:1051D00011240895CF92DF92EF92FF92CF93DF9345
:1051E000EC01CB01BA01605873448D4698432CE31F
:1051F000C22ED12CE12CF12CA70196010E94FD4476
:105200006D83CA01B901A70196010E94FD446C8318
:10521000CA01B90128E130E040E050E00E94FD44BD
:105220006B83188263E97EEF8881482F437091E099
:1052300009F090E0492F50E0FA01E359FE4F2E1794
:105240003F0740F0FB01E41BF50B2E0F3F1F8F5F64
:105250008883EACF81E089838981E82FF0E0E652F4
:10526000F44FE491992319F0823009F4EF5FF0E0F4
:105270002E173F0720F02E1B3F0B8F5FECCF2F5FC9
:105280002A83DF91CF91FF90EF90DF90CF90089528
:105290000F931F93CF93DF938C01EB0188858823B5
:1052A00031F065EF77E0C8010E948D1527C01982A3
:1052B00018828DED9BE08EDE28813981892B79F46F
:1052C000203E8EE238075CF46DE070E080E090E014
:1052D0009FD888819981019699838883EACF21316B
:1052E000374214F081E088878DED9BE073DE892BD7
:1052F00029F06DED7BE0C8010E94F315C801DF9134
:10530000CF911F910F9108958DED9BE00C94811A20
:105310001F920F920FB60F9211240BB60F922F937C
:105320003F934F935F936F937F938F939F93AF932D
:10533000BF93EF93FF93E091FC07F091FD07309747
:1053400009F451C0968DA685B785858591FF04C067
:105350009C91892329F447C09C91892309F043C07B
:10536000A389B4899C918589809589238C938689AA
:1053700097890197F1F7608D718DA685B785558561
:1053800038E020E0CB010197F1F7822F90E095956E
:105390008795282F4C91452309F02068315091F7CB
:1053A000868D81FD20958091FB0790E001968F739B
:1053B00099273091FA07381749F0A091FB07B0E020
:1053C000AB58B34F2C938093FB0703C0868D81604D
:1053D000868F828D938D0197F1F7A389B4899C9173
:1053E0008589892B8C93FF91EF91BF91AF919F910C
:1053F0008F917F916F915F914F913F912F910F907E
:105400000BBE0F900FBE0F901F901895E091FC07F8
:10541000F091FD07E817F90769F4A389B4899C9115
:105420008589809589238C931092FD071092FC0743
:1054300081E0089580E008952091E7089091E908BF
:10544000213208F04AC0809131098111FCCF32E04D
:105450003093310931E0309330093FEF30932F0919
:1054600010922E0920932D09A5E5BCE04BE059E0F0
:10547000FA013E2F341B321718F43D913193F9CFC6
:1054800010922C0920912C09990F922B90932C09A2
:1054900090912B09913061F410922B0990912C0975
:1054A0009093BB009091BC0093FDF8CF95EC01C0A8
:1054B00095EE9093BC00909131099230E1F3909178
:1054C0002F099F3F79F080912F09803241F0809120
:1054D0002F09803331F084E005C081E003C082E011
:1054E00001C083E01092E8081092E7081092EA08E1
:1054F0000895862F413208F040E2642F0E94AD19D2
:105500001092E6088093E50808951092E60810923C
:10551000E5081092E8081092E7081092310981E03E
:105520008093300910922B0961E084E10E943C21B4
:1055300061E085E10E943C21E9EBF0E080818E7F13
:10554000808380818D7F808388E48093B80085E4A8
:105550008093BC0008951F920F920FB60F921124F2
:105560000BB60F922F933F934F935F936F937F935D
:105570008F939F93AF93BF93EF93FF938091B90065
:10558000887F803609F49CC068F5883209F45BC0D6
:1055900090F4803109F454C038F4882309F4F6C03B
:1055A000883009F44DC0F5C0883109F44CC0803210
:1055B00009F45DC0EEC0803409F468C048F480335B
:1055C00009F455C0883309F0E4C080932F09D8C08E
:1055D000803509F44FC0883509F45DC0883409F07E
:1055E000D8C0D6C0883909F4C7C0A8F4883709F4F0
:1055F00067C038F4883609F463C0803709F460C0A6
:10560000C8C0883809F4B8C0803909F45FC0803850
:1056100009F0BFC05BC0803B09F486C038F4803A13
:1056200009F466C0883A09F47FC0B3C0803C09F42D
:10563000A7C0883C09F4A4C0883B09F48AC0A9C06B
:1056400080912C0910C090912E0980912D099817F6
:1056500070F5E0912E0981E08E0F80932E09F0E025
:10566000E55FF64F80818093BB0085EC86C0809318
:105670002F098EC0E0912E0981E08E0F80932E09B4
:105680008091BB00F0E0E55FF64F808390912E099A
:1056900080912D096EC0E0912E0981E08E0F8093DC
:1056A0002E098091BB00F0E0E55FF64F808380918A
:1056B000300981116DC081E080932B0984EA61C0BB
:1056C00083E0809331091092540CCFCF8091540C19
:1056D000803208F051C0E091540C81E08E0F80932D
:1056E000540C8091BB00F0E0EC5CF34F8083BDCFA5
:1056F00085EC8093BC00109231098091540C80326B
:1057000030F4E091540CF0E0EC5CF34F10826091C7
:10571000540C70E0E091320CF091330C84E39CE087
:1057200019951092540C35C084E080933109109281
:10573000310C1092300CE0912E0CF0912F0C199539
:105740008091300C811105C081E08093300C109263
:105750000E0CE091310C81E08E0F8093310CF0E063
:10576000E25FF34F80818093BB009091310C809178
:10577000300C981708F479CF85E88093BC0009C0F5
:1057800085EC8093BC001092310903C010922F0960
:1057900085DCFF91EF91BF91AF919F918F917F91A8
:1057A0006F915F914F913F912F910F900BBE0F9092
:1057B0000FBE0F901F9018952FB7F8946091B60CFC
:1057C0007091B70C8091B80C9091B90C2FBF0895CF
:1057D0001F920F920FB60F9211242F933F938F9326
:1057E0009F93AF93BF938091B60C9091B70CA0910B
:1057F000B80CB091B90C3091B50C23E0230F2D37C4
:1058000020F40196A11DB11D05C026E8230F0296C4
:10581000A11DB11D2093B50C8093B60C9093B70CCD
:10582000A093B80CB093B90C80910A0C90910B0C1A
:10583000A0910C0CB0910D0C0196A11DB11D80938F
:105840000A0C90930B0CA0930C0CB0930D0CBF9111
:10585000AF919F918F913F912F910F900FBE0F901D
:105860001F901895CF92DF92EF92FF920F931F93A4
:10587000E82FF92F05C0015011092109310961F103
:10588000908196239417B9F305C00150110921099D
:10589000310911F1908196239413F7CFC12CD12CAB
:1058A000E12CF12C0AC08FEFC81AD80AE80AF80ACE
:1058B0000C151D052E053F0579F080818623841780
:1058C00091F36C2D7D2D8E2D9F2D1F910F91FF90AB
:1058D000EF90DF90CF90089560E070E080E090E07E
:1058E0001F910F91FF90EF90DF90CF900895CF938D
:1058F000DF93CDB7DEB7E4970FB6F894DEBF0FBEE7
:10590000CDBF789484B5826084BD84B5816084BD48
:1059100085B5826085BD85B5816085BD80916E004D
:10592000816080936E00109281008091810082607E
:1059300080938100809181008160809381008091BB
:1059400080008160809380008091B10084608093AA
:10595000B1008091B00081608093B000809191008F
:10596000826080939100809191008160809391008A
:10597000809190008160809390008091A10082606E
:105980008093A1008091A10081608093A10080910B
:10599000A00081608093A0008091210182608093AB
:1059A000210180912101816080932101809120015A
:1059B00081608093200180917A00846080937A00D6
:1059C00080917A00826080937A0080917A00816071
:1059D00080937A0080917A00806880937A00109298
:1059E000C100E091FF0AF091000B13861586148622
:1059F000DF011B9633961E92AE17BF07E1F7109298
:105A0000FE0A11E0BE016D5E7F4F8091FF0A90910A
:105A1000000BCBD8882309F44EC067E0CE01439633
:105A20000E94E7249A8D8913EDCF8091FA0A8111A3
:105A300024C08091FF0A9091000B81D8BE016D5E59
:105A40007F4F8091FF0A9091000B0FD840E064EBEC
:105A50008091FF0A9091000B0E94F4248091FF0A2C
:105A60009091000B2DD8082F8091FF0A9091000B88
:105A700066D8002311F40C940E42BE016F5F7F4F75
:105A8000CE0143960E94241B0091FB0ACE0143964F
:105A90000E947D1B801718F48091FB0A04C0CE0180
:105AA00043960E947D1B8093FB0A8091FE0A8F5FC4
:105AB0008093FE0AA7CF60E08DE00E946B2161E039
:105AC0008CE00E946B2162E082E00E946B2161E029
:105AD00083E00E946B2160E088E00E946B2161E01E
