:1000000049C6000078C6000076C6000074C600002D
:1000100072C6000070C600006EC600006CC600000C
:100020006AC600000C94971E0C94971E0C94971EA1
:1000300062C6000060C600005EC600005CC600002C
:100040005AC6000058C6000056C6000054C600003C
:1000500052C6000050C600004EC600000C94562A3E
:100060004AC600000C9476170C944D1744C6000045
:1000700042C6000040C600003EC600003CC600006C
:100080003AC6000038C6000036C6000034C600007C
:1000900032C6000030C600002EC600000C94CE20F0
:1000A0002AC6000028C6000026C6000024C600009C
:1000B00022C6000020C600001EC600001CC60000AC
:1000C0001AC6000018C6000016C6000014C60000BC
:1000D00012C6000010C600000EC600000CC60000CC
:1000E0000AC600000A2E202E202E1E2E202E082E9C
:1000F000202E202E202EFC2D202E202E112E1C2EC8
:100100001A2E202E202E202E182E202223221222BC
:1001100016221C225A2227222B2231223522392252
:100120003F22432247225A224D2251225522313862
:100130003A33363A34350044656320203720323074
:10014000313600525443204C4F535420504F5745A2
:10015000522100005EBCE2613FDD83C29C7E20A391
:10016000FD1F419DC3217FFCA2401E5F01E3BD3EF8
:100170006082DC237D9FC1421CFEA0E1BF5D038045
:10018000DE3C62BEE0025CDF81633D7C22C09E1DDE
:1001900043A1FF4618FAA427799BC584DA3866E59F
:1001A000BB5907DB856739BAE406581947A5FB78C0
:1001B00026C49A653BD987045AB8E6A7F91B45C6F9
:1001C000987A24F8A6441A99C7257B3A6486D85BA6
:1001D00005E7B98CD2306EEDB3510F4E10F2AC2F53
:1001E0007193CD114FADF3702ECC92D38D6F31B290
:1001F000EC0E50AFF1134DCE90722C6D33D18F0CAD
:1002000052B0EE326C8ED0530DEFB1F0AE4C129175
:10021000CF2D73CA947628ABF517490856B4EA690E
:1002200037D58B5709EBB536688AD495CB2977F447
:10023000AA4816E9B7550B88D6346A2B7597C94A70
:1002400014F6A8742AC896154BA9F7B6E80A54D72D
:10025000896B3561742B636D6764613D2264656CE5
:1002600020616C6C220A0D0041542B434D47523DD6
:100270000041542B434D47463D310D00534D530033
:100280004154480D0A004F4B003B0D0A00415444B5
:10029000005245534554204F4B00205945415200D0
:1002A0004D4F4E54480020204441590020204D49D4
:1002B0004E0020484F55520053455420434C4F4365
:1002C0004B00204E494748542020002044415920EB
:1002D0002A202000504F5745525B255D3A00544577
:1002E0004D50325B435D3A0020454320585B2D5D05
:1002F0003A0020504820585B2D5D3A004558542064
:10030000205B255D3A004C494748545B2D5D3A001F
:1003100045435B532F4D5D3A005048205B50485D8C
:100320003A0048554D495B255D3A0054454D505BB8
:10033000435D3A0020202020202020200003444953
:100340005341424C4520524144494F0000024F4E18
:1003500021000000000000000000000000014F46E6
:100360004621000000000000000000000000415590
:10037000544F21000000000000000000006D035DEC
:10038000034D033D037E08047D037F08047D038045
:1003900008047D038108047D0305000000000000BF
:1003A00000008208800002000000000000000086BB
:1003B00008780005000000000000000088087C00AC
:1003C0000200000000000000008C087400050E0010
:1003D0000000000000008E08680002FF030000001B
:1003E00000000092086000050E0000000000000000
:1003F0009408640002FF0300000000000098085CFD
:1004000000020F270000E80300000006D8000003E8
:10041000000000000000009A08DC0000020000005C
:10042000000000009B08C400050000000000000060
:10043000009C086C00050000000000000000A008FF
:100440007000050E00000000000000A40854000524
:100450000E00000000000000A8085800066600001A
:100460000000000000AC085000066600000000001C
:100470000000B0084C0006630000009DFFFFFFB4C1
:1004800008980006630000009DFFFFFFB808940075
:10049000050000000000000000BC08A000050000EE
:1004A000000000000000C0089C0006630000009DE2
:1004B000FFFFFFC408480006630000009DFFFFFF28
:1004C000C8084400020000000000000000CC084002
:1004D00000020000000000000000CE083C00020006
:1004E00000000000000000D00838000200000000FA
:1004F00000000000D20834000900000000000000E5
:10050000008503000006630000009DFFFFFFD40884
:10051000900006630000009DFFFFFFD8088C0006D6
:10052000630000009DFFFFFFDC082C000663000055
:10053000009DFFFFFFE00828000900000000000008
:1005400000008A030000066300000000000000E4D1
:10055000088800066300000000000000E80884002E
:10056000066300000000000000EC082000066300A5
:10057000000000000000F0081C000900000000005E
:100580000000008F030000023B000000000000009C
:10059000F4081400021700000000000000F6081024
:1005A00000023B00000000000000F8080C000217E9
:1005B00000000000000000FA080800090000000028
:1005C00000000000940304004543204849474820A8
:1005D00059205B532F4D5D0001009903454320488E
:1005E00049474820582020205B2D5D000100A603CC
:1005F0004543204C4F57202059205B532F4D5D0021
:100600000100B3034543204C4F57202058202020A1
:100610005B2D5D000100C003504820484947482039
:100620005920205B50485D000100CD035048204810
:1006300049474820582020205B2D5D000100DA0347
:100640005048204C4F5720205920205B50485D00D7
:100650000100E7035048204C4F572020582020200D
:100660005B2D5D000100F40347534D20434F44458B
:100670002D3E0000000000000100010447534D2002
:100680004D4F44452D3E00000000000001000E04C7
:1006900045585445524E414C0000000000000000F7
:1006A00001001B04454320484947482020205B5354
:1006B0002F4D5D00010028044543204C4F5720205A
:1006C00020205B532F4D5D00010035045048204829
:1006D000494748202020205B50485D00010042042B
:1006E0005048204C4F5720202020205B50485D0070
:1006F00001004F044C494748204C4F570000000070
:100700000000000001005C044C494748204849476C
:1007100048000000000000000100690454454D50ED
:10072000204C4F5720204E205B435D000100760493
:1007300054454D502048494748204E205B435D00BA
:100740000100830448554D49204C4F57202020205C
:100750005B255D000100900448554D4920484947FC
:10076000482020205B255D0001009D0454454D502C
:10077000204C4F57202020205B435D000100AA043D
:1007800054454D5020484947482020205B435D0098
:100790000100B7044359434C4552204F46462020A0
:1007A0005B535D000100C4044359434C4552204F44
:1007B000464620205B4D5D000100D1044359434C67
:1007C0004552204F4E2020205B535D000100DE0487
:1007D0004359434C4552204F4E2020205B4D5D0035
:1007E0000100EB044359434C455220434F4E5452B1
:1007F0004F4C00000100F80446414E204F46462071
:100800004E20205B435D00000100050546414E205F
:100810004F4E20204E20205B435D0000010012055A
:1008200046414E204F4646202020205B435D00007D
:1008300001001F0546414E204F4E20202020205B06
:10084000435D000001002C0546414E20434F4E54AD
:10085000524F4C000000000001003905484541544A
:100860004552204F46204E205B435D000100460567
:10087000484541544552204F4E204E205B435D0079
:1008800001005305484541544552204F464620201B
:100890005B435D0001006005484541544552204FCF
:1008A0004E2020205B435D0001006D05484541540A
:1008B000455220434F4E54524F4C000001007A05E0
:1008C0004C49474854204F46462020205B4D5D0050
:1008D000010087054C49474854204F4646202020B8
:1008E0005B485D00010094054C49474854204F4E39
:1008F000202020205B4D5D000100A1054C494748A8
:1009000054204F4E202020205B485D000100AE05A2
:100910004C4947485420434F4E54524F4C0000001E
:100920000100BB050406F005DC05C80554064006B9
:100930002C0618067C06680680076C0758074407D3
:1009400030071C070807F406E006CC06B806A40624
:100950009006E407D007BC07A807940748083408A6
:1009600020080C08F807AC089808840870085C0890
:100970001009FC08E808D408C00852455345542122
:10098000000000000000000000000200350B45439D
:100990002D3E0000000000000000000000000004E8
:1009A000240950482D3E0000000000000000000017
:1009B000000000042C0947534D2D3E0000000000AC
:1009C0000000000000000002340953455420434C4D
:1009D0004F434B2D3E00000000000200F707414C42
:1009E00041524D205345542D3E0000000000000DA3
:1009F00038094359434C45522D3E00000000000089
:100A000000000005520946414E2D3E000000000046
:100A100000000000000000055C09484541544552B3
:100A20002D3E0000000000000000000566094C4952
:100A30004748542D3E000000000000000000000563
:100A400070092E0A1A0A060AF209DE09CA09B6094D
:100A5000A2098E097A0900002200250028002B0037
:100A60002E003100340002010000050108010B01D5
:100A7000000020002300260029002C002F00320057
:100A80000001000003010601090105050505070530
:100A900008080808020202020A0A080804040404FA
:100AA0000101010101010101030303030303030326
:100AB000040707070C0C0C0C0C0C0C0C02020202B5
:100AC00006060606060606060B0B0B0B0B0B0B0B9E
:100AD0000102102020080810204010204080020150
:100AE0000201080402010102040810204080804035
:100AF0002010080402018004020180402010080434
:100B000002010804020101020408102040800102D1
:100B1000040810204080526F6F7400000000000035
:100B2000000000000000000A420A1F1C1F1E1F1EBA
:100B30001F1F1E1F1E1F00002100240027002A0067
:100B40002D003000330001010000040107010A01FB
:100B500000000A0B02090C0D0E0807030401000037
:100B60000000000000000000000000000000000085
:100B70000000000000000000000000001211100042
:100B80000000000000000000000000000000000065
:100B900000000000000000407A10F35A00A0724EDE
:100BA00018090010A5D4E80000E87648170000E412
:100BB0000B54020000CA9A3B000000E1F50500005A
:100BC00080969800000040420F000000A0860100BF
:100BD0000000102700000000E8030000000064008F
:100BE000000000000A0000000000010000000000FA
:100BF0002C76D888DC674F0823DFC1DFAE59E1B11E
:100C0000B796E5E3E453C63AE651997696E8E6C22C
:100C10008426EB898C9B62ED407C6FFCEFBC9C9F33
:100C200040F2BAA56FA5F490055A2AF75C936B6C55
:100C3000F9676DC11BFCE0E40D47FEF520E6B50049
:100C4000D0ED902E0300943577050080841E0800B7
:100C500000204E0A000000C80C333333330F986E67
:100C600012831141EF8D2114893BE65516CFFEE624
:100C7000DB18D1844B381BF77C1D901DA4BBE424EA
:100C8000203284725E228100C9F124ECA1E53D2767
:100C9000523F443F11241FBECFEFD1E2DEBFCDBF94
:100CA00000E00CBF18E0A0E0B2E0E2E8F3E900E009
:100CB0000BBF02C007900D92AA31B107D9F72CE003
:100CC000AAE1B8E001C01D92A63AB207E1F716E02A
:100CD000C9E4D6E000E006C021970109802FFE019B
:100CE0000E942642C834D10780E00807A9F70E9475
:100CF000E52A0C94B04984C90895882311F06BE269
:100D000005C0662311F06DE201C060E280E49AE064
:100D10000C94E61564E373E080E49AE00C94ED151E
:100D2000CF93C62F482F50E060E070E080E49AE057
:100D30000E94F919C11102C061E405C0C33010F46A
:100D40006DE401C068E580E49AE0CF910C94E6156B
:100D50008091C60B81112CC08091B80B811128C0E5
:100D60008091AA0B811124C080919C0B811120C01D
:100D700080918E0B81111CC08091800B811118C055
:100D80008091720B811114C08091640B811110C08D
:100D90008091560B81110CC08091480B811108C0C5
:100DA00080913A0B811104C080912C0B882321F093
:100DB00080914308882329F080E49AE00E94A527C7
:100DC0000BC0E091400AF091410A0084F185E02DCA
:100DD00060E080E49AE0199560E080E00E944B1AA0
:100DE0008091C50B882331F080914308882331F02E
:100DF0006BE20BC08091B70B811102C060E205C0AD
:100E0000809143088823D1F36DE280E49AE00E9448
:100E1000E61564E780E49AE00E94E61560913B08DD
:100E200070913C0880913D0890913E080E94FB42E1
:100E3000675F7F4F6331710528F460E380E49AE0D7
:100E40000E94E61540913B0850913C0860913D0896
:100E500070913E0880E49AE00E94851A60E086E086
:100E60000E944B1A61E078E080E49AE00E944C17FF
:100E700060913B0870913C0880913D0890913E083C
:100E80000E94FB42675F7F4F6331710528F460E386
:100E900080E49AE00E94E6154091370850913808A6
:100EA0006091390870913A0880E49AE00E94851AAE
:100EB00060E08AE00E944B1A60E280E49AE00E94BF
:100EC000E6158091CA0B8A3028F460E380E49AE04A
:100ED0000E94E6154091CA0B50E060E070E02AE005
:100EE00080E49AE00E94261680914308882341F00E
:100EF00080918D0B882311F061E203C06AE301C089
:100F000060E280E49AE00E94E6158091CB0B8A3083
:100F100028F460E380E49AE00E94E6154091CB0B50
:100F200050E060E070E02AE080E49AE00E9426163B
:100F300061E080E00E944B1A8091A90B882341F068
:100F400080914308882311F06BE221C060E21FC04A
:100F500080919B0B882331F0809143088823B1F363
:100F60006DE215C02091AC083091AD084091AE08FB
:100F70005091AF0860913308709134088091350822
:100F8000909136080E942C43181604F76AE280E418
:100F90009AE00E94E61565EC76E080E49AE00E9413
:100FA0004C176091810880914708BADE63E077E0D2
:100FB00080E49AE00E944C17609180088091460876
:100FC000AFDE66E077E080E49AE00E944C17609123
:100FD0007F0880914508A4DE69E077E080E49AE02C
:100FE0000E944C1760917E088091440899CECF935F
:100FF000DF9300D000D0CDB7DEB71092F80982E0C1
:1010000090E09093420880934108CE0101960E949F
:10101000252086E0FE013196ADECBBE001900D92FB
:101020008A95E1F71092400810923F0810921F082D
:1010300010922008109221081092220810921E0887
:1010400080E49AE00E94AD2726960FB6F894DEBFA2
:101050000FBECDBFDF91CF910895CF92DF92EF9277
:10106000FF920F931F93CF93DF931F921F92CDB7E1
:10107000DEB78C01790180E49AE04A8369830E949B
:10108000A52769814A81842F0E944B1A6801C601F5
:10109000801B910B8E159F056CF4F60161916F0119
:1010A0008FED860F8E3508F060E280E49AE00E94B2
:1010B0006827EDCF0F900F90DF91CF911F910F9187
:1010C000FF90EF90DF90CF900895CF93DF93EC01E6
:1010D0000E94AC178E859F858130910589F1823001
:1010E000910581F18430910579F1089779F18C852A
:1010F0009D858130910561F18230910559F18430EF
:10110000910551F1089751F18A859B8581309105B0
:1011100039F18230910531F18430910529F1089738
:1011200029F1888599858130910511F182309105E9
:1011300009F18430910501F1089701F180E01FC0A9
:101140008AE21DC087E31BC084E319C081E317C096
:1011500080E315C088E313C085E311C082E30FC0AC
:1011600083E20DC089E30BC086E309C083E307C0B7
:1011700084E405C083E403C082E401C081E4DF911C
:10118000CF91089542E00C949128662321F081E0EC
:10119000623009F080E008954F925F926F927F92E3
:1011A0008F929F92AF92BF92CF92DF92EF92FF9277
:1011B0001092810886E090E09093FB088093FA08F3
:1011C0001092F9081092F80886E190E09093F708E1
:1011D0008093F6081092F5081092F40841E061E857
:1011E00078E084E090E00E94B8286AEF78E088E038
:1011F00090E00E94012268EF78E08CE090E00E948D
:10120000012266EF78E080E190E00E94012264EF25
:1012100078E084E190E00E94012210928008C12CC5
:10122000D12C80E7E82E81E4F82EC092F008D0920D
:10123000F108E092F208F092F30880E090E0A0E874
:10124000B1E48093EC089093ED08A093EE08B0937E
:10125000EF08412C512C90E2692E91E4792E4092B6
:10126000E8085092E9086092EA087092EB0880E082
:1012700090E0A0E3B1E48093E4089093E508A093A4
:10128000E608B093E70841E060E878E088E190E0A4
:101290000E94B82860EF78E08CE190E00E94FF2186
:1012A0006CEE78E080E290E00E94FF2168EE78E04A
:1012B00084E890E00E94FF2164EE78E088E890E006
:1012C0000E94FF2110927F0880E090E0A0EAB1E444
:1012D0008093E0089093E108A093E208B093E308BC
:1012E00080E090E0A8E9B1E48093DC089093DD0809
:1012F000A093DE08B093DF08C092D808D092D90836
:10130000E092DA08F092DB08812C912C20E6A22EE4
:1013100021E4B22E8092D4089092D508A092D608EB
:10132000B092D70841E06FE778E084E290E00E9455
:10133000B82860EE78E088E290E00E94FF216CED32
:1013400078E08CE290E00E94FF2168ED78E08CE884
:1013500090E00E94FF2164ED78E080E990E00E9437
:10136000FF2110927E081092D3081092D2088EE1CD
:1013700090E09093D1088093D0081092CF081092FB
:10138000CE089093CD088093CC0841E06EE778E0DA
:1013900080E390E00E94B82862ED78E084E390E07A
:1013A0000E94012260ED78E088E390E00E94012233
:1013B0006EEC78E08CE390E00E9401226CEC78E027
:1013C00080E490E00E94012280E090E0A8EAB1E48D
:1013D0008093B8089093B908A093BA08B093BB085B
:1013E00080E090E0A8E9B1E48093B4089093B50858
:1013F000A093B608B093B70880E090E0A0E2B2E412
:101400008093B0089093B108A093B208B093B3084A
:1014100080E090E0A0E7B2E48093AC089093AD0840
:10142000A093AE08B093AF08C092C808D092C90884
:10143000E092CA08F092CB084092C4085092C508C6
:101440006092C6087092C70868EB78E084E490E088
:101450000E94FF2164EB78E088E490E00E94FF2185
:1014600060EB78E08CE490E00E94FF216CEA78E089
:1014700080E590E00E94FF2168EC78E084E990E04C
:101480000E94FF2164EC78E088E990E00E94FF214F
:101490008FE892E0909399088093980880E192E019
:1014A00090939308809392088CEE91E5A0E8B0E4C5
:1014B0008093940890939508A0939608B09397080A
:1014C00080E090E0A0EEB0E480938E0890938F08C7
:1014D000A0939008B09391081092A8081092A908C0
:1014E0001092AA081092AB088092A4089092A508C6
:1014F000A092A608B092A70868EA78E088E590E094
:101500000E94FF2164EA78E084E590E00E94FF21D8
:1015100042E068E978E08CE590E00E94B82842E07B
:1015200062E978E080E690E00E94B82864E978E01B
:1015300084E690E00E94FF216EE878E088E690E083
:101540000E94FF2182EF90E090938D0880938C0899
:101550008DE790E0909387088093860881E895E96D
:10156000A3EABFE38093880890938908A0938A0830
:10157000B0938B088AE69CEBA0E9B0E480938208E4
:1015800090938308A0938408B09385081092A008D4
:101590001092A1081092A2081092A30880E090E097
:1015A000AAE7B4E480939C0890939D08A0939E08BA
:1015B000B0939F0860EA78E080E790E00E94FF2106
:1015C0006CE978E08CE690E00E94FF2142E06CE854
:1015D00078E084E790E00E94B82842E066E878E08E
:1015E00088E790E00E94B82868E878E08CE790E00F
:1015F0000E94FF2162E878E080E890E00E94FF21ED
:101600001092BC081092BD081092BE081092BF083C
:1016100080E090E0A8ECB2E48093C0089093C10809
:10162000A093C208B093C30860EC78E08CE990E026
:101630000E94FF216CEB78E080EA90E00E94FF219D
:1016400010929B0841E06BE978E084EC90E0FF9019
:10165000EF90DF90CF90BF90AF909F908F907F9052
:101660006F905F904F900C94B82896DD80E49AE0DC
:101670000E94AD2760E080E00E944B1A61E972E0B1
:1016800080E49AE00E94ED1568EE73E080E090E05F
:101690000C94122AEF92FF920F931F93CF93DF9334
:1016A0001F921F92CDB7DEB78C017B0142E0BE01D5
:1016B0006F5F7F4F80EE90E00E94912829813A81F0
:1016C00021503109283031051CF43A83298302C0A6
:1016D0001A82198268E070E09B01201B310B89811E
:1016E0009A81820F931F0E94D5419A83898300E0DB
:1016F00010E0B701600F711F89819A8124E0880F83
:10170000991F2A95E1F78C519F4F41E0800F911F5F
:101710000E9491280F5F1F4F0031110551F7F7010B
:10172000108A0F900F90DF91CF911F910F91FF9032
:10173000EF9008958F929F92BF92CF92DF92EF9297
:10174000FF920F931F93CF93DF93CDB7DEB76197CF
:101750000FB6F894DEBF0FBECDBF80E49AE00E94C2
:10176000A52789E59AE0B1DC182F882309F442C047
:1017700080911F0890912008A0912108B091220823
:1017800040914D0850914E0860914F08709150085B
:10179000892B8A2B8B2B41F440931F0850932008F0
:1017A000609321087093220880911F08909120086F
:1017B000A0912108B09122086C017D0128E7C20E9A
:1017C000D11CE11CF11C4C155D056E057F0538F040
:1017D00020911E08211103C010931E0801C010E0C3
:1017E000885A9D4FAF4FBF4F84179507A607B7077D
:1017F00058F408C010921F08109220081092210877
:101800001092220810921E0880914108909142087F
:10181000039709F05FC180913F089091400811340F
:1018200011F4019703C0123429F4019690934008F3
:1018300080933F0880913F089091400897FF02C035
:1018400080E090E08630910514F085E090E0909380
:10185000400880933F0860E0009799F580E00E947F
:101860004B1A6091B70B8091C50B47DA6BE273E0BE
:1018700080E49AE00E94ED1540913B0850913C08AD
:1018800060913D0870913E0880E49AE00E94851ABC
:1018900041DA61E080E00E944B1A6091390B80913F
:1018A000470B2BDA62E273E080E49AE00E94ED15C8
:1018B00040913708509138086091390870913A0882
:1018C000AFC08130910599F580E00E944B1A60917C
:1018D000710B80917F0B11DA69E173E080E49AE08B
:1018E0000E94ED1540912708509128086091290821
:1018F00070912A0880E49AE00E94851A0BDA61E070
:1019000080E00E944B1A6091550B8091630BF5D9D2
:1019100060E173E080E49AE00E94ED1540912308B5
:1019200050912408609125087091260879C0823072
:101930009105C1F580E00E944B1A60919B0B80914C
:10194000A90BDBD966E073E080E49AE00E94ED1514
:101950006091330870913408809135089091360871
:101960000E94FB42AB01770F660B770B80E49AE095
:101970000E94F919CFD961E080E00E944B1A609172
:101980008D0B80E0BAD96CEF72E080E49AE00E949F
:10199000ED1560912F087091300880913108909179
:1019A000320876C08330910509F03FC080E00E9484
:1019B0004B1A62EF72E080E49AE00E94ED1587E333
:1019C00090E00E94281AAB01BC0180E49AE00E94DA
:1019D000851AA0D961E080E00E944B1A68EE72E09F
:1019E00080E49AE00E94ED1580E00E94F31A6B01FA
:1019F0007C0181E00E94F31ADC01CB018C0D9D1D5E
:101A0000AE1DBF1DB695A79597958795BC01CD01D5
:101A10006E5F7F4F8F4F9F4F0E948548AB01BC0187
:101A200080E49AE00E94851A54C00497E1F580E0B2
:101A30000E944B1A60E280E49AE00E94E6156EED87
:101A400072E080E49AE00E94ED15409149085091BF
:101A50004A0860914B0870914C0880E49AE00E941B
:101A6000851A58D961E080E00E944B1A60912B0BD7
:101A700080E043D964ED72E080E49AE00E94ED15C5
:101A800060912B0870912C0880912D0890912E0860
:101A90000E94FB42AB01770F660B770B80E49AE064
:101AA0000E94F91916C080E00E944B1A80914808E4
:101AB000882319F06BEC72E002C062EC72E080E403
:101AC0009AE00E94ED1526D961E080E00E944B1A51
:101AD00021D920D98091410890914208019709F0BD
:101AE00047C080913F0890914008113411F401974C
:101AF00003C0123429F401969093400880933F0864
:101B000080913F08909140088730910514F086E05D
:101B100090E097FF02C080E090E0909340088093AF
:101B20003F0860E080E00E944B1ABE016F5F7F4F6C
:101B300080913F0890914008ADDDBE016F5F7F4FFF
:101B400080E49AE00E944C1761E080E00E944B1A0A
:101B500080913F0890914008BE016F5F7F4F0196D2
:101B600099DDBE016F5F7F4F80E49AE00E944C17C1
:101B70008091410890914208029709F034C11434D1
:101B800049F480913F089091400801969093400855
:101B900080933F0860E080E00E944B1A68EB72E09F
:101BA00080E49AE00E94ED1580913F0890914008F2
:101BB00097FF02C080E090E08530910514F084E04A
:101BC00090E09093400880933F08F090D00BB09045
:101BD000D10BC090CF0BD090CE0B8090CD0B912C21
:101BE00080E3881A88EF980A60E08BE00E944B1A25
:101BF00080913F0890914008892B61F4113411F4D1
:101C0000F39403C0123409F4FA9462EB72E080E4B6
:101C10009AE0E3D780913F0890914008019761F4E2
:101C2000113411F4B39403C0123409F4BA946CEA79
:101C300072E080E49AE0D1D780913F08909140080B
:101C4000029761F4113411F4C39403C0123409F4FF
:101C5000CA9466EA72E080E49AE0BFD780913F08B8
:101C600090914008039761F4113411F4D39403C0A8
:101C7000123409F4DA9460EA72E080E49AE0ADD7B5
:101C800080913F0890914008049781F4113421F429
:101C90002FEF821A920A05C0123419F481E0881AD3
:101CA00091086AE972E080E49AE097D70F2D083135
:101CB00008F007E12BE32B1510F43BE3B32E8FE183
:101CC0008C1518F42FE1C22E04C0C11002C0CC2420
:101CD000C3942CE02D1518F49CE0D92E04C0D1102B
:101CE00002C0DD24D394C40120E1821627E29206CB
:101CF00010F08FE097E27C0180EDE81687E0F806AF
:101D000020F480EDE82E87E0F82EC701805D974033
:101D10008093CD0BD092CE0BC092CF0B0093D00B03
:101D2000B092D10B1092D20B61E080E00E944B1A6E
:101D30000A3020F460E380E49AE048D7402F50E076
:101D400060E070E02AE080E49AE080D76AE380E413
:101D50009AE03CD729E02B1520F060E380E49AE07C
:101D600035D74B2D50E060E070E02AE080E49AE047
:101D70006DD760E280E49AE029D789E08C1520F0E5
:101D800060E380E49AE022D74C2D50E060E070E000
:101D90002AE080E49AE05AD76FE280E49AE016D70E
:101DA00029E02D1520F060E380E49AE00FD74D2D57
:101DB00050E060E070E02AE080E49AE047D76FE20C
:101DC00080E49AE003D7A70160E070E02AE080E4B5
:101DD0009AE03CD71A3239F48DEC9BE00E94881FC0
:101DE00081E08093F80961960FB6F894DEBF0FBECC
:101DF000CDBFDF91CF911F910F91FF90EF90DF90BA
:101E0000CF90BF909F908F900895CF92DF92EF92E6
:101E1000FF920F931F93CF93DF931F921F92CDB723
:101E2000DEB78C01F62E8091F00A803309F43CC0B5
:101E300081E3681339C08091040B9091050BA09148
:101E4000060BB091070B892B8A2B8B2B69F58091A0
:101E50009A08823048F163E489E499E0B7D60E9499
:101E6000F419C090000BD090010B6DE872E083ED87
:101E70009BE0B3D6B60183ED9BE00E944C1769E866
:101E800072E083ED9BE0A9D680914D0890914E08B9
:101E9000A0914F08B09150088093040B9093050BCC
:101EA000A093060BB093070B8091C90B68018A3091
:101EB00048F4EFEFCE1ADE0A4AE0B80180E090E085
:101EC0000E94BA458091C90B4AE0B60190E00E9499
:101ED000BA458FE2F8018283B8016D5F7F4F809130
:101EE000C80B8A3040F44AE080E090E00E94BA4596
:101EF000C8010496BC018091C80B4AE090E00E94A2
:101F0000BA4580E2F8018583B8016A5F7F4F80910E
:101F1000CA0B8A3040F44AE080E090E00E94BA4563
:101F2000C8010796BC018091CA0B4AE090E00E946C
:101F3000BA458AE3F8018087B801675F7F4F8091D7
:101F4000CB0B8A3040F44AE080E090E00E94BA4532
:101F5000C8010A96BC018091CB0B4AE090E00E9438
:101F6000BA4580E2F8018387F78642E0BE016F5FE1
:101F70007F4F80EE90E00E94912889819A81089796
:101F800014F01A821982E12CF12CB8016E0D7F1D1C
:101F900089819A8124E0880F991F2A95E1F78C5155
:101FA0009F4F41E08E0D9F1D0E94B828FFEFEF1A52
:101FB000FF0A80E1E816F10441F789819A810196D0
:101FC00068E070E00E94D5419A83898342E0BE01B7
:101FD0006F5F7F4F80EE90E00E94B82889819A81E0
:101FE0000F900F90DF91CF911F910F91FF90EF9085
:101FF000DF90CF900895CF92DF92EF92FF920F93F0
:102000001F93CF93DF93EC01A7D72E853F8588855B
:1020100099852430310509F049C04C855D854830EB
:10202000510519F421E0209381082A853B85283049
:10203000310519F462E0609381088830910511F44C
:10204000109281084430510519F461E060938008D2
:102050002430310519F462E06093800884309105E2
:1020600011F4109280084230510519F461E0609338
:102070007F082230310519F462E060937F088230D6
:10208000910511F410927F084130510519F441E097
:1020900040937E082130310519F422E020937E0818
:1020A000019709F056C010927E0853C08E01015866
:1020B0001F4F892B51F48A859B85892B31F48C85A0
:1020C0009D85892B11F4232BA1F1F8018081918149
:1020D000A281B381892B8A2B8B2B39F40E944A2A47
:1020E000F8016083718382839383F801C080D1807B
:1020F000E280F380F4EFCF0EF1E0DF1EE11CF11C73
:102100000E944A2A6C157D058E059F05B8F4F801DA
:10211000C080D180E280F380F8ECCF0ED11CE11CAE
:10212000F11C0E944A2AC616D706E806F90630F4C2
:1021300010C0F8011082118212821382CE01DF9149
:10214000CF911F910F91FF90EF90DF90CF900C9463
:10215000650880E0DF91CF911F910F91FF90EF9084
:10216000DF90CF900895FC01E45BFF4F8081918167
:1021700042DF813459F0823461F0843469F0833273
:1021800071F08A3279F080E090E0089583E090E089
:10219000089584E090E0089581E090E0089582E061
:1021A00090E0089585E090E0089583ED9BE074D67B
:1021B0006AE083ED9BE00AC5CF92DF92EF92FF9237
:1021C0000F931F93FC01662381F18485882389F195
:1021D0004481558166817781C0904D08D0904E082A
:1021E000E0904F08F0905008452B462B472B21F4E8
:1021F000C482D582E682F78242855385052E000C83
:10220000660B770B0481158126813781400F511FA2
:10221000621F731F4C155D056E057F0550F4148613
:10222000148215821682178205C0148215821682C6
:10223000178280E01F910F91FF90EF90DF90CF9079
:1022400008950F931F93FC01662391F184858111FA
:1022500033C080819181A281B38100914D0810919A
:102260004E0820914F0830915008892B8A2B8B2BD8
:1022700021F4008311832283338380859185092E85
:10228000000CAA0BBB0B4081518162817381840FCA
:10229000951FA61FB71F80179107A207B30760F409
:1022A00081E084878587108211821282138205C0A3
:1022B000108211821282138280E01F910F91089583
:1022C0000895CF92DF92EF92FF920F931F93CF93D7
:1022D000DF936C017A018B01C0E0D0E0CE15DF0501
:1022E00089F0D8016D918D01D601ED91FC9101909D
:1022F000F081E02DC6011995892B11F47E0102C0F1
:102300002196ECCFC701DF91CF911F910F91FF90E4
:10231000EF90DF90CF900895FC01918D828D9817FA
:1023200061F0828DDF01A80FB11D5D968C91928DB9
:102330009F5F9F73928F90E008958FEF9FEF0895B6
:10234000FC01918D828D981731F0828DE80FF11D7F
:10235000858D90E008958FEF9FEF0895FC01918D9A
:10236000228D892F90E0805C9F4F821B91098F7393
:102370009927089589E499E0F1DF21E0892B09F498
:1023800020E0822F0895FC01848DDF01A80FB11D8C
:10239000A35ABF4F2C91848D90E001968F7399279B
:1023A000848FA689B7892C93A089B1898C91806488
:1023B0008C93938D848D981306C00288F389E02D49
:1023C00080818F7D80830895EF92FF920F931F93FA
:1023D000CF93DF93EC0181E0888F9B8D8C8D9813D8
:1023E00005C0E889F989808185FD23C0F62E0B8D13
:1023F00010E00F5F1F4F0F731127E02E8C8DE81236
:102400000BC00FB607FCFACFE889F989808185FFF8
:10241000F5CFCE01B8DFF2CF8B8DFE01E80FF11DB5
:10242000E35AFF4FF0820B8FEA89FB89808180623B
:1024300007C0EE89FF896083E889F989808180641B
:10244000808381E090E0DF91CF911F910F91FF9009
:10245000EF900895CF93DF93EC01888D8823C1F02E
:10246000EA89FB89808185FD05C0A889B9898C919D
:1024700086FD0EC00FB607FCF5CF808185FFF2CF39
:10248000A889B9898C9185FFEDCFCE017CDFE8CF9B
:10249000DF91CF91089580E090E0892B19F06ADFF9
:1024A000811125C080E090E0892B41F080E090E030
:1024B000892B21F00E94000081111CC080E090E077
:1024C000892B41F080E090E0892B21F00E940000F0
:1024D000811113C080E090E0892BA1F080E090E0B2
:1024E000892B81F00E94000081110AC008950E948A
:1024F0000000D8CF0E940000E1CF0E940000EACF88
:102500000C9400000895DC0126E0629FA00DB11D2F
:10251000112490965C934E935F9721E091962C93B3
:102520009197FC01E459FF4F208131960190F08191
:10253000E02D222331F0309749F0611107C0DC0112
:1025400002C0309719F05C968C911994089521E09F
:1025500001C0220F6A95EAF7DC011C962C931C97A8
:102560001A965C934E931997ED91FC910084F18536
:10257000E02D60E019940E9445450F931F93CF937F
:10258000DF93EC010E944A2A688779878A879B87B4
:10259000E881F9810680F781E02DCE01199597FF3A
:1025A00017C00E944A2A088519852A853B85DC01C7
:1025B000CB01801B910BA20BB30B0C811D812E81D3
:1025C0003F8180179107A207B30710F38FEF9FEFAA
:1025D000DF91CF911F910F9108956F927F928F920B
:1025E0009F92AF92BF92CF92DF92EF92FF921F9392
:1025F000CF93DF931F92CDB7DEB73C01162FFC01BE
:1026000086E0689FE00DF11D112411A2878D90A135
:1026100081309105F1F01CF4892B51F04DC08230CE
:102620009105A9F1039709F047C040E050E033C09D
:10263000442309F441C041E050E0C30164DF0E943B
:102640004A2AF301E85AFF4F6083718382839383A0
:1026500033C049830E944A2AF301E85AFF4FC080E1
:10266000D180E280F3804B015C018C189D08AE089C
:10267000BF08729680819181A0E0B0E04981881501
:102680009905AA05BB0518F442E050E004C04111C9
:1026900013C043E050E0612FC3010F90DF91CF9151
:1026A0001F91FF90EF90DF90CF90BF90AF909F90E1
:1026B0008F907F906F9027CF0F90DF91CF911F91D8
:1026C000FF90EF90DF90CF90BF90AF909F908F9052
:1026D0007F906F900895862F0C947426862F642F18
:1026E0000C949C26862F642F0C94CB26CF92DF92DD
:1026F000EF92FF920F931F93CF93DF9301E010E0CF
:1027000002C0000F111F6A95E2F77C012FE6E20E6E
:10271000F11C6C01ECE7CE0ED11CF601408150E0BB
:102720003197608170E0C7010E941A20C7010E94A2
:10273000411DEC01F6018081823040F0C7010E940A
:10274000411D20E030E0382FC22BD32BC023D123F2
:1027500081E090E0C017D10711F080E090E0DF91B8
:10276000CF911F910F91FF90EF90DF90CF90089540
:10277000CF92DF92EF92FF920F931F93CF93DF934D
:102780008C0181E090E002C0880F991F6A95E2F702
:10279000E801C358DF4F442329F028813981822B77
:1027A000932B06C0809590952881398182239323AD
:1027B00099838883C880D980F801E558FF4F8081CC
:1027C00078019FE6E90EF11C91E090930109809356
:1027D00000091092FF081092FE08D701ED91FC91BC
:1027E0000190F081E02D6C2DC7011995F801E45896
:1027F000FF4F8081823048F0D701ED91FC9101902C
:10280000F081E02D6D2DC7011995C7010E942B1F86
:10281000C882D982DF91CF911F910F91FF90EF90E5
:10282000DF90CF900895EF92FF920F931F93CF9375
:102830008C01FC01759684E0C0E060FF02C09081CD
:10284000C92B6695815031968111F7CF413011F433
:10285000F8014489F8018585C82BC42B7801FEE076
:10286000EF0EF11CF80162896C2BC7010E94312820
:10287000F801628960956C23C701CF911F910F9178
:10288000FF90EF900C9431280F931F93CF93DF9319
:10289000062F0F70423019F440E0602F0FC0142F44
:1028A000262FEC0130E0B90184E0759567958A9593
:1028B000E1F7CE01B8DF412F602FCE01DF91CF913C
:1028C0001F910F91B0CFFC0184858823A9F0218549
:1028D00032852115310519F4611106C007C0213078
:1028E000310521F4611102C0858701C01586658517
:1028F000CF010E960C9431280895CF93DF93FC01FD
:1029000024813581232B71F0FB01DC01CD91DC9119
:1029100060817181CE010E947845009719F08C1B6F
:102920009D0B02C08FEF9FEFDF91CF910895FC01C7
:10293000248135816217730748F480819181009763
:1029400029F0FC01E60FF71F8081089580E00895CB
:102950000F931F93CF93DF938C01EB01861797079B
:1029600071F1FC01808191810097B1F068817981DA
:102970006115710579F0428153812C813D814217A7
:10298000530740F00E9462458C819D81F801958338
:10299000848313C00E94C94388819981F80191837F
:1029A00080838A819B81938382838C819D8195839F
:1029B0008483198218821B821A821D821C82C8019C
:1029C000DF91CF911F910F9108950F931F93CF9394
:1029D000DF93EC0188819981009729F02A813B815E
:1029E0002617370788F48B016F5F7F4F0E94614481
:1029F000009761F0998388831B830A832C813D8132
:102A0000232B11F4FC01108281E001C080E0DF91F2
:102A1000CF911F910F910895CF93DF93EC0188819F
:102A20009981009711F00E94C943198218821D8272
:102A30001C821B821A82DF91CF910895EF92FF9240
:102A40000F931F93CF93DF93EC017B018A01BA01AF
:102A5000BCDF811103C0CE01DFDF07C01D830C8303
:102A6000B701888199810E946245CE01DF91CF91A3
:102A70001F910F91FF90EF900895FC01808191814B
:102A80000C94C943FC0111821082138212821582B8
:102A900014826115710549F0FB0101900020E9F7EE
:102AA0003197AF01461B570BC9CF0895BF92CF9204
:102AB000DF92EF92FF920F931F93CF93DF937C01EE
:102AC0006B01EA0189012417350720F48D2FE901F4
:102AD000042F182F64E178E0C701D4DFD6011496E3
:102AE0008D919C911597C817D90738F580179107D4
:102AF00008F48C01D601ED91FC911197E00FF11FC4
:102B0000B08010824D915C91BA016C0F7D1F6115F0
:102B1000710559F0FB0101900020E9F73197AF01F1
:102B2000461B570BC7018ADF02C0C70175DFD601FC
:102B3000ED91FC91E00FF11FB082C701DF91CF91C1
:102B40001F910F91FF90EF90DF90CF90BF9008956D
:102B5000CF92DF92EF92FF920F931F93CF93DF9369
:102B60001F921F92CDB7DEB78C016B0164E178E054
:102B700089DFC60102DD97FD1DC089831A82F80135
:102B8000E480F580FFEFEF1AFF0AB701C8011DDFEF
:102B9000882379F3F8012081318184819581BE01F8
:102BA0006F5F7F4F820F931F0E946245F801F5828D
:102BB000E482DFCFC8010F900F90DF91CF911F917A
:102BC0000F91FF90EF90DF90CF900895DC01ED9191
:102BD000FC910190F081E02D1994EF92FF920F93F8
:102BE0001F93CF93DF938C017B01C0E0D0E0F7010E
:102BF000EC0FFD1F6491662361F0D801ED91FC910B
:102C00000190F081E02DC8011995892B11F02196D2
:102C1000EECFCE01DF91CF911F910F91FF90EF90FA
:102C200008956115710579F0FB0101900020E9F725
:102C30003197AF01461B570BDC01ED91FC910280EF
:102C4000F381E02D199480E090E008954F925F9217
:102C50006F927F92EF92FF920F931F93CF93DF9328
:102C6000CDB7DEB7A1970FB6F894DEBF0FBECDBFCC
:102C70007C01FA01CB0119A2223008F42AE08E016E
:102C80000F5D1F4F422E512C612C712CBF01A301EF
:102C900092010E94E841F901CA01015011096A300C
:102CA00014F4605D01C0695CD8016C93232B242B64
:102CB000252B61F7B801C701B4DFA1960FB6F894D0
:102CC000DEBF0FBECDBFDF91CF911F910F91FF905F
:102CD000EF907F906F905F904F9008954F925F922A
:102CE0006F927F928F929F92AF92BF92CF92DF921C
:102CF000EF92FF92CF93DF93EC016A017B01B22E3A
:102D00009A01AB01C701B6010E943043882319F034
:102D100064E078E027C026013701E89477F82FEFC8
:102D20003FEF4FE75FE7C301B2010E9430438111DB
:102D30000DC02FEF3FEF4FE75FE7C301B2010E94E5
:102D4000814818161CF468E078E00CC02FEF3FEFC4
:102D50004FE75FE4C701B6010E942C43181694F4B4
:102D60006CE078E0CE01DF91CF91FF90EF90DF90A3
:102D7000CF90BF90AF909F908F907F906F905F901B
:102D80004F904FCF2FEF3FEF4FE75FECC701B601FA
:102D90000E94814887FDE4CF20E030E0A901C7010F
:102DA000B6010E94814887FF09C06DE2CE010EDFA7
:102DB0004C01F7FAF094F7F8F09402C0812C912CB2
:102DC000A12C60E070E080E09FE3AB1441F020E0D4
:102DD00030E040E251E40E949342A394F6CF9B017D
:102DE000AC01C701B6010E942F422B013C010E9499
:102DF00000436B017C010E9485489B01AC01C3012B
:102E0000B2010E942E422B013C012AE0B701A6012B
:102E1000CE011CDF7C01E80CF91CBB2031F060E125
:102E200078E0CE01FEDEE80EF91EDB2CDD2021F17C
:102E300020E030E040E251E4C301B2010E94E648E4
:102E40002B013C010E9400434B01A12CB12C2AE034
:102E5000B501A401CE01FADEE80EF91EC501B401E8
:102E60000E9485489B01AC01C301B2010E942E4221
:102E70002B013C01DA94DACFC701DF91CF91FF90AB
:102E8000EF90DF90CF90BF90AF909F908F907F900A
:102E90006F905F904F900895C4CE1F920F920FB61F
:102EA0000F9211240BB60F922F933F934F935F9382
:102EB0006F937F938F939F93AF93BF93EF93FF9302
:102EC00089E499E060DAFF91EF91BF91AF919F9112
:102ED0008F917F916F915F914F913F912F910F90C3
:102EE0000BBE0F900FBE0F901F9018951F920F9260
:102EF0000FB60F9211240BB60F922F938F939F93BF
:102F0000EF93FF93E0915909F0915A098081E09184
:102F10005F09F091600982FD12C090818091620981
:102F20008F5F8F7320916309821751F0E0916209DE
:102F3000F0E0E75BF64F958F8093620901C08081D6
:102F4000FF91EF919F918F912F910F900BBE0F905A
:102F50000FBE0F901F9018952F923F924F925F9245
:102F60006F927F928F929F92AF92BF92CF92DF9299
:102F7000EF92FF920F931F93CF93DF93CDB7DEB7FE
:102F80002A970FB6F894DEBF0FBECDBF9A87898708
:102F90000E944A2A29853A85245A3F4F3A83298339
:102FA000D9010D911D912D913C91AB01BC01401BAC
:102FB000510B620B730BE985FA85E859FF4F80814D
:102FC0009181A0E0B0E010E084179507A607B7074D
:102FD00008F05EC169847A84F6E66F0E711CE9849C
:102FE000FA8422E6E20EF11CD3018C911817A0F4AA
:102FF000E985FA8580819181F701A081B181A10FD6
:10300000B11DFC012081318142E06C9189859A8556
:10301000F90119951F5FE8CF10E029843A84B7E6DB
:103020002B0E311CE984FA84E4E6EE0EF11C812CAF
:10303000912C5401839429853A852E593F4F3C8326
:103040002B83F1018081181708F08DC0C12ED12C7F
:10305000A985BA858D919C91F701A081B181AC0DB4
:10306000BD1DFC012081318141E06C9189859A85EB
:10307000F9011995A985BA858D919C91F701A081D7
:10308000B181AC0DBD1DFC012281338140E06C910A
:1030900089859A85F9011995D501C401012E04C0CD
:1030A000880F991FAA1FBB1F0A94D2F7AC019C017D
:1030B0002095309500E0F3018081A985BA85ED91D6
:1030C000FC91081770F5802F90E0AB81BC816D9169
:1030D0007C912C01DB01A40DB51D0480F581E02D50
:1030E0006C9189859A852F8338874D835E831995E6
:1030F000440C551C2F8138854D815E81E985FA8508
:10310000E40DF51D892B29F480859185842B952B61
:1031100004C08085918582239323918780870F5FE8
:10312000CACFD7018D919C91DC01AC0DBD1D0280F1
:10313000F381E02D41E06C9189859A851995A985E7
:10314000BA85ED91FC91D7018D919C91DC01AC0D7C
:10315000BD1D0190F081E02D40E06C9189859A853C
:1031600019951F5F6ECFE984FA84FCE1EF0EF11C24
:1031700089859A85885A9F4FF7012FEF3FEF43814A
:103180005481452B21F41082328321831582369697
:10319000E817F907A1F7B12CC984DA8420E6C20E3A
:1031A000D11C86E0A82EF3018081B81608F058C023
:1031B000912C09851A850B0D111D0B0D111D085F32
:1031C0001F4FD1018C91981608F048C0D8014D913D
:1031D0005C91092C02C0569547950A94E2F741701C
:1031E0005527B89EC0011124890D911DD601ED917E
:1031F000FC91E80FF91FA081E985FA8560E0258D33
:10320000368D2817390721F4417089859A851CC0AD
:103210006F5F36966A3099F7452BF1F0F70160E061
:1032200070E02081211112C0A69EF001A79EF00D32
:10323000112429853A85E20FF31FA48F968F858F7D
:1032400010A2178E41E0C901C8D906C06F5F7F4F39
:1032500036966A30710529F79394B3CFB394A3CF10
:10326000E985FA85B19689859A85835A9F4F10E042
:103270002081211111E03696E817F907C9F70E945D
:103280004A2AA981BA816D937D938D939C9313975C
:10329000812F2A960FB6F894DEBF0FBECDBFDF9107
:1032A000CF911F910F91FF90EF90DF90CF90BF9043
:1032B000AF909F908F907F906F905F904F903F90D6
:1032C0002F9008958F929F92AF92BF92CF92DF92EC
:1032D000EF92FF92CF93DF93A091E30A882311F03E
:1032E0003A2F01C030E08091E40A90E0880F991FE6
:1032F0008059954FC090E90AD090EA0AE090EB0A15
:10330000F090EC0A40E050E0BA01FC01C591D49184
:1033100028812A2323130FC04A015B012FEF821A51
:10332000920AA20AB20A4C155D056E057F0538F4B3
:10333000B501A401EACF342F252FCB0104C030E022
:1033400020E080E090E0632F722FDF91CF91FF901B
:10335000EF90DF90CF90BF90AF909F908F900895A7
:10336000909148099111FCCF91E090934809909376
:1033700047092FEF2093460910924509260F209305
:1033800044099093430990914309880F892B8093B6
:10339000430980914209813061F410924209809181
:1033A00043098093BB008091BC0083FDF8CF85EC7E
:1033B00001C085EE8093BC00809148098130E1F323
:1033C00080914509861710F460914509A2E2B9E0A1
:1033D00022E039E0F9018E2F821B861718F48D91B7
:1033E0008193F9CF862F089562E178E089E499E02E
:1033F00018CCCF92DF92EF92FF920F931F93CF934F
:10340000DF9377FF1BC06A017B01EC016DE2DEDB1D
:103410008C0144275527BA014C195D096E097F09B3
:103420002AE0CE0113DC800F911FDF91CF911F9115
:103430000F91FF90EF90DF90CF9008952AE0DF91F9
:10344000CF911F910F91FF90EF90DF90CF90FECB27
:10345000FF920F931F93CF93DF93F82E0AE010E0B3
:10346000C0E0D0E08F2D0E944927C80FD91F01501E
:103470001109C1F7CE016AE070E00E94D541072E24
:10348000000C880B990B0E948748DF91CF911F9108
:103490000F91FF900895CF93DF93CDB7DEB72897B4
:1034A0000FB6F894DEBF0FBECDBF1D8290E49E83A1
:1034B00024E12F8324E5288719829A8390E19B8356
:1034C00090E59C839091470A691710F06FEF690FA0
:1034D0004091480A262F30E0FE01E20FF31F4031F1
:1034E00021F4943011F4918101C09581682F690F06
:1034F000606880E49AE028960FB6F894DEBF0FBEAD
:10350000CDBFDF91CF910C949D2722E0E7CBCF92E6
:10351000DF92EF92FF920F931F93CF93DF9300D030
:1035200000D0CDB7DEB76C017A01CE010196AADAE0
:10353000BE016F5F7F4FC601E0D98C01CE010196BD
:103540009CDA17FD16C0B8016E5F7F4FC601EFD938
:10355000813419F4F70110820EC0803321F481E028
:10356000F701808309C0813331F482E0F701808361
:1035700002C080E001C081E026960FB6F894DEBF5D
:103580000FBECDBFDF91CF911F910F91FF90EF90B4
:10359000DF90CF900895CF93DF93BC0189E499E049
:1035A0001CDBEC0121DF8C0F9D1FDF91CF91089573
:1035B00081E08093010988E6809300091092FF085A
:1035C0001092FE086FE086EE99E0D8D286EE99E080
:1035D00042D461E088E6C4DE1092FD088093FC08C6
:1035E00086EE99E04EC20F931F93E2EDFAE06491EC
:1035F000ECE8FAE0E491882311F0462F01C040E0A6
:10360000F0E0EE0FFF1FE059F54F8591949100E433
:1036100012E42FE030E00E94A02A611571058105B7
:10362000910549F0DC01CB010196A11DB11DBC0142
:10363000CD019F7003C060E070E0CB011F910F913E
:103640000895CF93DF93AB01BC0122E089E499E0B8
:1036500045DBEC01C9DE8C0F9D1FDF91CF910895F2
:10366000CF92DF92EF92FF920F931F93CF93DF934E
:10367000CDB7DEB7C054D1400FB6F894DEBF0FBE51
:10368000CDBF0E944A2A0091E50A1091E60A2091D6
:10369000E70A3091E80A6B017C01C01AD10AE20AFC
:1036A000F30A40EDC41647E0D406E104F10418F42F
:1036B0008091ED0AB8C06093E50A7093E60A8093A2
:1036C000E70A9093E80A1092E00A1092DF0A10923B
:1036D000DE0A1092DD0A1092DC0A61E08091E10AB4
:1036E0000E949C266AEF70E080E090E00E94122A1F
:1036F00061E08091E10A0E94CB2660E08091E10ABE
:103700000E949C2664E170E080E090E00E94122A12
:10371000F89461E08091E10A0E949C268BE990E098
:103720000197F1F762E08091E10A0E94CB2683E2E3
:1037300090E00197F1F780E0C5DD672B682B692BDE
:1037400021F41092ED0A78943BC081E0BBDD672B39
:10375000682B692BB1F38E010F5F1F4F6E018FEB4A
:10376000C81A8EEFD80A780180E0ACDDF7016083DB
:1037700071838283938381E0A5DDF7016483758380
:1037800086839783F8E0EF0EF11CEC14FD0461F7DB
:10379000789420E030E0F8014081518162817381AA
:1037A000C480D580E680F78041155105610571051B
:1037B00029F0C114D104E104F10421F41092ED0ABE
:1037C00080E031C0F90183E0F595E7958A95E1F74E
:1037D000E452F54F8081880F4C155D056E057F051D
:1037E00008F4816080832F5F3F4F085F1F4F2832AE
:1037F000310589F62091E00A30E04091DC0A8091A1
:10380000DD0A90E0840F911D4091DE0A840F911D26
:103810004091DF0A840F911D99272817390771F607
:1038200081E08093ED0AC05CDE4F0FB6F894DEBFF6
:103830000FBECDBFDF91CF911F910F91FF90EF9001
:10384000DF90CF900895E0911D0AF0911E0A309705
:1038500009F019940895CF92DF92EF92FF920F939F
:103860001F93CF93DF93FC017196C491C1503196A1
:10387000C590D490E62EF12CF701EE0FFF1FEC0D52
:10388000FD1D859194919093FD098093FC0900E0C2
:1038900010E0D0E040E150E060E270E081E29AE0C8
:1038A0000E94524521E030E040E050E00115110552
:1038B00029F460E070E085E198E004C061E070E028
:1038C00087E198E0C0DFF801EE0DFF1DCE17DF079E
:1038D00064F0EE0FFF1FEC0DFD1D6591749140E14A
:1038E00050E081E29AE00E94B14520E130E041E001
:1038F00050E0B80181E29AE0A6DF0130110519F02D
:1039000001E010E0C7CFDF91CF911F910F91FF90A1
:10391000EF90DF90CF90089520911C0830911D0802
:103920002817390771F490911A0880911B0898178D
:1039300041F0E0911A08F0E0E75AF34F808190E0FF
:1039400008958FEF9FEF089508951F93CF93DF930E
:10395000DC015C962D913C915D972115310539F480
:1039600081E090E013969C938E9312973DC0519600
:10397000ED91FC91529750969C915097892F80958C
:103980001FB75E964C915E9741FB772770F941FD1A
:103990006095F8944081772311F0492B01C04823AA
:1039A0004083E9012197F1F748E0508160FF02C0B0
:1039B000592B01C058235083E9012197F1F76695EF
:1039C000415099F7772321F090818923808303C0A8
:1039D0008081982B90831FBF5C968D919C915D9701
:1039E0000197F1F721E030E0C901DF91CF911F91FC
:1039F000089520911C0830911D082817390769F493
:103A000080911B0820911A0890E0805C9F4F821BD8
:103A1000910960E470E00C94D54180E090E0089555
:103A200020911C0830911D0828173907B9F490918E
:103A30001A0880911B08981789F0E0911A08F0E0A5
:103A4000E75AF34F808120911A0830E02F5F3F4FF3
:103A50002F73332720931A0890E008958FEF9FEF7C
:103A600008950895E091FD088091FC08E81730F46E
:103A7000F0E0EE5FF64F808190E008958FEF9FEFCA
:103A800008959091FD088091FC08981750F4E92F53
:103A9000F0E0EE5FF64F208130E09F5F9093FD08ED
:103AA00002C02FEF3FEFC90108958091FC0890E01C
:103AB0002091FD08821B9109089585ED8093BC003B
:103AC0008091BC0084FDFCCF10924809089540917C
:103AD000140C262F30E0240F311D21323105DCF487
:103AE000209148092430C9F4FC0180E090E0861759
:103AF00058F43091140C2191DC01AE50B44FA30F57
:103B0000B11D2C930196F3CF8091140C680F609334
:103B1000140C80E0089581E0089582E00895CF922A
:103B2000DF92EF92FF920F931F93CF93DF937C016D
:103B3000262F972F8A0180910109882391F0C62FA3
:103B4000D72F6E01C40ED51ECC15DD0569F0699125
:103B5000D701ED91FC910190F081E02DC7011995FD
:103B6000F3CF642F822FB3DFC801DF91CF911F9174
:103B70000F91FF90EF90DF90CF900895CF93DF9358
:103B80001F92CDB7DEB76983209101092223D1F0BE
:103B90002091FE08203240F021E030E0FC01338328
:103BA000228380E090E014C08091FF08E82FF0E0CD
:103BB000E75CF34F998190838F5F8093FF08809338
:103BC000FE0804C061E0CE01019681DF81E090E053
:103BD0000F90DF91CF910895FC01908190539A301E
:103BE00008F090E0818180532AE0929F800D11249B
:103BF0000895CF92DF92EF92FF92CF93DF93EC0183
:103C0000CB01BA01605873448D4698432CE3C22E11
:103C1000D12CE12CF12CA70196010E94E8416D8383
:103C2000CA01B901A70196010E94E8416C83CA014B
:103C3000B90128E130E040E050E00E94E8416B83A8
:103C4000188263E97EEF8881482F437091E009F084
:103C500090E0492F50E0FA01E359FE4F2E173F073D
:103C600040F0FB01E41BF50B2E0F3F1F8F5F888395
:103C7000EACF81E089838981E82FF0E0E75DF44FA6
:103C8000E491992319F0823009F4EF5FF0E02E17E8
:103C90003F0720F02E1B3F0B8F5FECCF2F5F2A8357
:103CA000DF91CF91FF90EF90DF90CF9008950F9329
:103CB0001F93CF93DF938C01EB018885882331F02C
:103CC00064E178E0C8010E94421528C01982188278
:103CD00083ED9BE08EDE28813981892B81F4203EA3
:103CE0008EE2380764F46DE070E080E090E00E94BE
:103CF000122A88819981019699838883E9CF21319D
:103D0000374214F081E0888783ED9BE072DE892BD7
:103D100029F063ED7BE0C8010E94A815C801DF917E
:103D2000CF911F910F91089583ED9BE0EECB1F92F1
:103D30000F920FB60F9211240BB60F922F933F9351
:103D40004F935F936F937F938F939F93AF93BF93A3
:103D5000EF93FF93E0911C08F0911D08309709F450
:103D600051C0968DA685B785858591FF04C09C912D
:103D7000892329F447C09C91892309F043C0A38972
:103D8000B4899C918589809589238C9386899789AC
:103D90000197F1F7608D718DA685B785558538E05F
:103DA00020E0CB010197F1F7822F90E09595879560
:103DB000282F4C91452309F02068315091F7868DCA
:103DC00081FD209580911B0890E001968F739927C3
:103DD00030911A08381749F0A0911B08B0E0A75A93
:103DE000B34F2C9380931B0803C0868D8160868F10
:103DF000828D938D0197F1F7A389B4899C91858970
:103E0000892B8C93FF91EF91BF91AF919F918F91EF
:103E10007F916F915F914F913F912F910F900BBECA
:103E20000F900FBE0F901F901895E0911C08F09115
:103E30001D08E817F90769F4A389B4899C9185895D
:103E4000809589238C9310921D0810921C0881E0A4
:103E5000089580E008952091FE0890910009213294
:103E600008F04AC0809148098111FCCF32E03093BC
:103E7000480931E0309347093FEF309346091092EB
:103E8000450920934409A9E3BCE042E259E0FA0164
:103E90003E2F341B321718F43D913193F9CF109215
:103EA000430920914309990F922B909343099091D4
:103EB0004209913061F41092420990914309909324
:103EC000BB009091BC0093FDF8CF95EC01C095EE3E
:103ED0009093BC00909148099230E1F3909146098B
:103EE0009F3F79F080914609803241F080914609E8
:103EF000803331F084E005C081E003C082E001C07E
:103F000083E01092FF081092FE08109201090895B4
:103F1000FF920F931F93CF93DF938C01FF24F394B1
:103F2000F0920109D8E6D09300091092FF08109290
:103F3000FE0860E086EE99E021DEF8012581CAE006
:103F4000822F6C2F0E94B541682F660F860F682F55
:103F5000660F620F86EE99E011DEF8012481822F50
:103F60006C2F0E94B541682F660F860F682F660F71
:103F7000620F86EE99E002DEF8012381822F6C2F1A
:103F80000E94B541682F660F860F682F660F620F7B
:103F900086EE99E0F3DD60E086EE99E0EFDDF80172
:103FA0002281822F6C2F0E94B541682F660F860FE9
:103FB000682F660F620F86EE99E0E0DDF80121813F
:103FC000822F6C2F0E94B541682F660F860F682FD5
:103FD000660F620F86EE99E0D1DDF8012081822F15
:103FE0006C2F0E94B541682F660F860F682F660FF1
:103FF000620F86EE99E0C2DD86EE99E02CDFD8DA1A
:10400000C82FF0920109D09300091092FF08109276
:10401000FE086FE086EE99E0B1DD6C2F6F7786EEDB
:1040200099E0ACDD86EE99E0DF91CF911F910F9181
:10403000FF9011CF862F413208F040E2642F90D9D3
:104040001092FD088093FC080895CF92DF92EF92C2
:10405000FF920F931F93CF93DF93EC0181E0809346
:10406000010988E6809300091092FF081092FE086B
:1040700060E086EE99E082DD86EE99E0ECDE47E0D6
:1040800050E068E670E086EE99E0D4DF86EE99E0D5
:10409000F8DC8F77982F92959F701AEF082F919FD9
:1040A000000D112486EE99E0ECDC9C01332794E0AE
:1040B000359527959A95E1F7F82E129FF00C11246B
:1040C00086EE99E0DEDC9C01332744E035952795A8
:1040D0004A95E1F7E82E129FE00C112486EE99E054
:1040E000D0DC86EE99E0CDDC9C01332754E0359599
:1040F00027955A95E1F7D82E129FD00C112486EE01
:1041000099E0BFDC9C01332764E0359527956A95DB
:10411000E1F7C82E129FC00C112486EE99E0B1DCA5
:104120009C01332774E0359527957A95E1F7129F26
:10413000800D11248883C982DA82EB82FC820D8390
:10414000CE01DF91CF911F910F91FF90EF90DF9003
:10415000CF9008951092FD081092FC081092FF086D
:104160001092FE081092480981E08093470910924E
:10417000420961E084E1E0D561E085E1DDD5E9EB6C
:10418000F0E080818E7F808380818D7F808388E4D2
:104190008093B80085E48093BC0008951F920F922D
:1041A0000FB60F9211240BB60F922F933F934F939C
:1041B0005F936F937F938F939F93AF93BF93EF938F
:1041C000FF938091B900887F803609F49CC068F520
:1041D000883209F45BC090F4803109F454C038F49B
:1041E000882309F4F6C0883009F44DC0F5C0883141
:1041F00009F44CC0803209F45DC0EEC0803409F48B
:1042000068C048F4803309F455C0883309F0E4C02D
:1042100080934609D8C0803509F44FC0883509F429
:104220005DC0883409F0D8C0D6C0883909F4C7C049
:10423000A8F4883709F467C038F4883609F463C0F5
:10424000803709F460C0C8C0883809F4B8C0803924
:1042500009F45FC0803809F0BFC05BC0803B09F43F
:1042600086C038F4803A09F466C0883A09F47FC001
:10427000B3C0803C09F4A7C0883C09F4A4C0883BC3
:1042800009F48AC0A9C08091430910C090914509E2
:1042900080914409981770F5E091450981E08E0FEF
:1042A00080934509F0E0EE5DF64F80818093BB007E
:1042B00085EC86C0809346098EC0E091450981E077
:1042C0008E0F809345098091BB00F0E0EE5DF64FC4
:1042D000808390914509809144096EC0E091450921
:1042E00081E08E0F809345098091BB00F0E0EE5D88
:1042F000F64F80838091470981116DC081E08093E2
:10430000420984EA61C083E0809348091092380C26
:10431000CFCF8091380C803208F051C0E091380C3A
:1043200081E08E0F8093380C8091BB00F0E0E85E56
:10433000F34F8083BDCF85EC8093BC001092480979
:104340008091380C803230F4E091380CF0E0E85E77
:10435000F34F10826091380C70E0E091160CF091F0
:10436000170C88E19CE019951092380C35C084E058
:10437000809348091092150C1092140CE091120CC5
:10438000F091130C19958091140C811105C081E0F6
:104390008093140C1092F20BE091150C81E08E0FBB
:1043A0008093150CF0E0EE50F44F80818093BB00B9
:1043B0009091150C8091140C981708F479CF85E82A
:1043C0008093BC0009C085EC8093BC001092480922
:1043D00003C01092460971DBFF91EF91BF91AF913D
:1043E0009F918F917F916F915F914F913F912F910D
:1043F0000F900BBE0F900FBE0F901F90189544E0CA
:10440000B7C642E0B5C644E08CC690E0FC013197E7
:10441000E231F10508F04EC08827EB57FF4F8F4F70
:104420000C942642809180008F7703C08091800099
:104430008F7D80938000089580918000877FF9CFE1
:1044400084B58F7702C084B58F7D84BD0895809137
:10445000B0008F7703C08091B0008F7D8093B00053
:104460000895809190008F7707C0809190008F7D94
:1044700003C080919000877F809390000895809181
:10448000A0008F7707C08091A0008F7D03C080912E
:10449000A000877F8093A0000895809120018F77EE
:1044A00007C0809120018F7D03C080912001877F0C
:1044B0008093200108950F931F93CF938C01C62FF3
:1044C00040E150E060E270E081E29AE00E945245F3
:1044D000C730D9F1C830D9F1C11107C0F8018081C6
:1044E0004AE061E27AE090E013C0C13049F44AE06A
:1044F00061E27AE0F801808191810E94BA4535C07D
:10450000C23049F44AE061E27AE0F80180819181A9
:104510000E94F3452AC0C33059F4F80160817181CB
:10452000828193812AE041E25AE00E94C4451DC085
:10453000C43079F4F80160817181828193812AE02D
:1045400041E25AE00E94D24510C022E003C023E0BD
:1045500001C021E042E0420FF80160817181828157
:10456000938101E21AE00E94924520E130E040E0B0
:1045700050E061E070E081E29AE0CF911F910F91ED
:1045800062C940E150E060E270E081E29AE00E949E
:1045900052458091330A813039F48FE49EE690933E
:1045A000220A8093210A09C08FE496E6A6E680934A
:1045B000210A9093220AA093230A20E130E040E0F0
:1045C00050E061E070E081E29AE03DC91F93CF9333
:1045D000DF93182FD92FC62F40E150E060E270E042
:1045E00081E29AE00E945245E12FFD2FEC0FF11D70
:1045F000EC0FF11D659174916F5F7F4F4FE050E0BC
:1046000081E29AE00E94B14520E130E040E050E0D4
:1046100061E070E081E29AE0DF91CF911F9113C9D0
:104620000F931F93CF93DF93EC01FC0170961491CD
:10463000113009F094C01093F90940E150E0BC0139
:1046400081E29AE00E94B14520E130E040E050E094
:1046500060E070E081E29AE0F6D8FE017296859102
:104660009491FC0164913996A591B491611104C0B3
:104670008C918093330A6DC08FEF860F823040F4A7
:104680008D919C9111979093390A8093380A61C05B
:104690008DEF860F823070F40D911D912D913C911C
:1046A00013970093340A1093350A2093360A3093F7
:1046B000370A4FC0693029F5FD013396C591D49171
:1046C000FD0185919491FC018081FD013296A491B8
:1046D0009E0160E090E09A1761F0F90145915491D4
:1046E000FA014491481301C0692F9F5F2E5F3F4F2D
:1046F000F2CF6093330ACE01DF91CF911F910F91DA
:1047000065CF6A30C9F4FD013196C591D491FD01A0
:10471000A491888190E002C095958795AA95E2F7CB
:1047200080FF03C01093330A02C01092330ADF9156
:10473000CF911F910F9125CF0D911D912D913C91FE
:10474000139700933A0A10933B0A20933C0A309344
:104750003D0ACD01DF91CF911F910F91ACCE111188
:1047600034C061112EC02091FE093091FF098217DB
:10477000930739F18091020A9091030A892B79F00D
:104780008091040A9091050A892B61F08091060AB4
:104790009091070A892B79F482E090E005C080E0CF
:1047A00090E002C081E090E0880F991FFC01EE5F6D
:1047B000F54F31832083D093FF09C093FE091092F7
:1047C0001C0A60911C0ACE0114C01230D1F462960A
:1047D000FE0185919491009711F0FC01199580914B
:1047E000F809882359F060911C0A8091FE09909184
:1047F000FF09DF91CF911F910F912DC881E0809328
:10480000FB09DF91CF911F910F9108952F923F9255
:104810004F925F926F927F928F929F92AF92BF92D0
:10482000CF92DF92EF92FF921F93CF93DF93CDB79A
:10483000DEB764970FB6F894DEBF0FBECDBF4296C9
:10484000FC0185919491FC01149135968590959089
:10485000A590B490FC013196459055906590749068
:10486000643009F421C22FEF260F223008F04EC128
:1048700041E0613009F440E0193021F5FC0139963E
:1048800025913491F9013296949131962591349184
:10489000EFEFE90F9091330A442339F0911103C0EF
:1048A000E093330A0AC0915006C09E1303C01092D1
:1048B000330A03C09F5F9093330A6091330AC901A2
:1048C00085DEFAC11A3051F481E09091330A9130BB
:1048D00009F480E08093330A54DEEEC1442319F0DA
:1048E0002FEF3FEF02C021E030E0620173018091C1
:1048F000310A9091320A289F1001299F300C389F6D
:10490000300C11249101032C000C440B550BCA01EF
:10491000B901298B3A8B4B8B5C8B0E948748298984
:104920003A894B895C89163029F420E030E040E276
:1049300051E406C0173039F420E030E048EC52E48E
:104940000E9493429DC0183029F420E030E04AE7ED
:1049500054E4F6CF111126C08091330A820D8114E0
:104960009104A104B10441F4C114D104E104F1049F
:1049700019F48093330A13C090E0A0E0B0E0C816A9
:10498000D906EA06FB064CF02C013D018815990575
:10499000AA05BB0514F4240135014092330A83E3D0
:1049A0009AE0B1C0113011F0123071F58091380ADF
:1049B0009091390A820D931D81149104A104B104D0
:1049C00051F4C114D104E104F10429F49093390A9B
:1049D0008093380A16C0092E000CAA0BBB0BC81610
:1049E000D906EA06FB064CF02C013D018815990515
:1049F000AA05BB0514F4240135014092380A5092EF
:104A0000390A88E39AE07FC0133011F01430C1F501
:104A10008091340A9091350AA091360AB091370AF4
:104A2000820F931FA41FB51F81149104A104B10428
:104A300071F4C114D104E104F10449F48093340AFF
:104A40009093350AA093360AB093370A16C0C81659
:104A5000D906EA06FB064CF06C017D018815990524
:104A6000AA05BB0514F475016401C092340AD09202
:104A7000350AE092360AF092370A84E39AE043C09E
:104A800020913A0A30913B0A40913C0A50913D0AEC
:104A90000E942F422B013C0181149104A104B10416
:104AA00041F4C114D104E104F10419F4CB01D301A0
:104AB00020C0C701B6010E9487486B017C019B01A1
:104AC000AC01B201C3010E942C43181684F0C50149
:104AD000B4010E9487486B017C019B01AC01B201CB
:104AE000C3010E94814887FD02C062017301C601B3
:104AF000D70180933A0A90933B0AA0933C0AB09363
:104B00003D0A8AE39AE0612FD6DCD6C0633009F013
:104B1000D3C0FC013996A591B491193099F4FD01E7
:104B20003396259134914091330AF901E40FF11D38
:104B3000E40FF11D65917491FB016491FD01A59154
:104B4000B49129C01A3019F5FD013196659174911F
:104B5000FD01A4912091330AFB01B081222349F089
:104B600041E050E001C0440FAA95EAF74B2B408387
:104B70000AC021E030E001C0220FAA95EAF7209593
:104B80002B23FB012083FB0160811DD38DC01111FC
:104B900004C06091330A6C93F8CF1230A1F42091D5
:104BA000380A3091390A2D933C93388B2F87FC01BA
:104BB0003B9685919491009709F476C0BE01615FA0
:104BC0007F4F1FDC71C01130A1F42091380A309161
:104BD000390A2D933C933E872D87FC013B968591A6
:104BE0009491009709F460C042E0BE01635F7F4F7B
:104BF0003CC01430E9F44091340A5091350A609178
:104C0000360A7091370A4D935D936D937C93139799
:104C100049875A876B877C87FC013B9685919491E5
:104C2000009709F441C044E0BE01675F7F4F1DC09B
:104C30001330E9F44091340A5091350A6091360AF4
:104C40007091370A4D935D936D937C9313974D83C9
:104C50005E836F837887FC013B96859194910097E2
:104C600019F144E0BE016B5F7F4F82D21DC0153049
:104C7000D8F040913A0A50913B0A60913C0A7091F9
:104C80003D0A4D935D936D937C93139749835A83AB
:104C90006B837C83FC013B9685919491009721F076
:104CA000BE016F5F7F4FABDB1092F90961E080912D
:104CB000FE099091FF09B4DC64960FB6F894DEBF4C
:104CC0000FBECDBFDF91CF911F91FF90EF90DF908E
:104CD000CF90BF90AF909F908F907F906F905F909C
:104CE0004F903F902F900895CF93DF93282F30E07F
:104CF000F901E05BF44F8491F901E053F54FD49151
:104D0000F901E657F54FC491CC2389F081117DDB81
:104D1000EC2FF0E0EE0FFF1FE059F54FA591B49195
:104D2000EC91ED2381E090E021F480E002C080E08E
:104D300090E0DF91CF9108951F93CF93DF93282FB9
:104D400030E0F901E05BF44F8491F901E053F54F55
:104D5000D491F901E657F54FC491CC23C1F0162F39
:104D6000811153DBEC2FF0E0EE0FFF1FEA5AF54FF5
:104D7000A591B4918FB7F894111105C09C91ED2FB6
:104D8000E095E92302C0EC91ED2BEC938FBFDF910E
:104D9000CF911F910895CF93DF9390E0FC01E053F2
:104DA000F54F2491FC01E657F54F8491882361F17A
:104DB00090E0880F991FFC01EA5CF44FC591D491F3
:104DC000FC01EA5AF54FA591B491611109C09FB752
:104DD000F8948881209582238883EC912E230BC040
:104DE000623061F49FB7F8943881822F80958323D5
:104DF0008883EC912E2B2C939FBF06C08FB7F8941D
:104E0000E8812E2B28838FBFDF91CF910895EF92F9
:104E1000FF920F931F93CF93DF93EC0161E084E047
:104E2000BADF00E010E061E084E086DF7E01E00EA2
:104E3000F11ED7018C91B9E68B9FC00111248230FD
:104E400091053CF0880F991F880F991F05970197CE
:104E5000F1F760E084E070DFD7011196EC91B9E6DC
:104E6000EB9FF0011124E230F1053CF0EE0FFF1F43
:104E7000EE0FFF1F35973197F1F70E5F1F4F0E377B
:104E8000110589F6DF91CF911F910F91FF90EF905F
:104E90000895863308F0865390917B00282F287060
:104EA000977F922B90937B008770806480937C0027
:104EB00080917A00806480937A0080917A0086FDE8
:104EC000FCCF809178002091790090E0922B08959A
:104ED000DC01ED91FC910284F385E02D41E0199510
:104EE00081E090E0089508950895EF92FF920F9366
:104EF0001F93CF93DF937C018C01C0E0D0E0F801D9
:104F00008689F2DE892B51F42696CC0FDD1FCC0F5B
:104F1000DD1FCE0DDF1D8881998108C021960C5FB1
:104F20001F4FC530D10559F780E090E0DF91CF9158
:104F30001F910F91FF90EF900895DC01ED91FC918E
:104F40000284F385E02D40E01994DC01ED91FC91A1
:104F50000084F185E02D6FEF199461E0EEDF8BE3C3
:104F60009FE10197F1F708950F931F93CF93DF937C
:104F7000EC01423018F08C8188608C834F83688705
:104F8000222329F0413019F48C8184608C8364E6FB
:104F900070E080E090E046D26C8164FD31C0E88131
:104FA000F9810284F385E02D42E063E0CE0119959A
:104FB0008BE496E40197F1F7E881F9810284F385A7
:104FC000E02D42E063E0CE01199503E512E0C8014F
:104FD0000197F1F7E881F9810284F385E02D42E041
:104FE00063E0CE011995C8010197F1F7E881F981D5
:104FF0000284F385E02D42E062E0CE01199514C0F1
:105000006062CE019ADF8BE496E40197F1F76C8140
:105010006062CE0192DF03E512E0C8010197F1F76B
:105020006C816062CE0189DFC8010197F1F76C8164
:105030006062CE0182DF8BEE90E00197F1F784E0B1
:105040008D836CE0CE0179DFCE0187DF82E08E8335
:1050500066E0CE0172DFCE01DF91CF911F910F91FB
:1050600074CFFC0123812223C9F09181909569239B
:105070006083828191E090930109809300091092EE
:10508000FF081092FE0886EE99E00E94BE1D86EE93
:1050900099E00E942B1F282F30E002C020E030E072
:1050A00081E090E0232B11F080E090E00895FF92E2
:1050B0000F931F93CF93DF93EC01162F042FF22E43
:1050C0008B85888B86EE99E045D8888991E090930E
:1050D0000109809300091092FF081092FE0886EEE5
:1050E00099E00E942B1F91E0811190E0998B992308
:1050F00029F086EE99E00E94411D8E8789898823D8
:1051000031F01F861C8260E0CE010E96AADF2F2DA3
:10511000402F612FCE01DF91CF911F910F91FF9012
:1051200023CFCF92DF92FF920F931F93CF93DF9302
:105130001F92CDB7DEB78C010D5F1F4FF62E6B01AE
:105140008C2D8F19841758F4C80149830E949A49FD
:10515000F60181936F010F5F1F4F4981F1CF0F90CF
:10516000DF91CF911F910F91FF90DF90CF90089525
:10517000CF92DF92FF920F931F93CF93DF931F92F3
:10518000CDB7DEB78C010D5F1F4FF62E6B018C2D56
:105190008F19841758F4F60161916F01C801498392
:1051A0000E94A2490F5F1F4F4981F1CF60E080E06C
:1051B00090E00F90DF91CF911F910F91FF90DF90C2
:1051C000CF900C94A249CF93DF931F92CDB7DEB757
:1051D00069830B96FC0185919491009729F041E039
:1051E000BE016F5F7F4FC4DF0F90DF91CF910895B5
:1051F000FC0190810180F281E02DF8948181892B5E
:1052000081832281892F809528232283A7E0B0E023
:105210001197F1F7218182238183A3E2B0E01197F6
:10522000F1F780817894EFECF0E03197F1F7982373
:1052300081E009F480E00895FC0190810180F28111
:10524000E02D892F809560FF12C0F894228182237F
:1052500082838181892B8183A3E2B0E01197F1F7EA
:105260008281982B9283789487ED90E011C0F89416
:105270002281822382838181892B8183AFEFB0E0F9
:105280001197F1F78281982B928378948FE090E0C8
:105290000197F1F70895CF92DF92EF92FF920F936B
:1052A0001F93CF93DF931F92CDB7DEB76C01E62E2D
:1052B00008E010E0FF24F39461E08F2D8E2109F4C3
:1052C00060E0C6014983B8DFFF0C01501109498134
:1052D0000115110589F7411115C0F894D6011196F1
:1052E000ED91FC91129791818C9180958923818316
:1052F0001196ED91FC91129792818C918095892362
:10530000828378940F90DF91CF911F910F91FF903E
:10531000EF90DF90CF900895CF92DF92EF92FF92BF
:105320000F931F93CF93DF931F92CDB7DEB78C01FE
:10533000F62E40E065E57983AEDFCF2C7981D72E5C
:10534000760188E0E80EF11CF60161916F0140E002
:10535000C801A1DFCE14DF04B9F70F90DF91CF9120
:105360001F910F91FF90EF90DF90CF900895FC0177
:1053700090810180F281E02DF8948181292F209580
:105380008223818378948DE743E050E0815021F1BE
:10539000DA011197F1F730813923C1F3F894828152
:1053A000822382838181892B81837894ABE7B7E064
:1053B0001197F1F7F894818128232183A3E1B1E0CB
:1053C0001197F1F78081982381E009F080E07894CB
:1053D000E3E6F6E03197F1F708953FB7F89480914E
:1053E0009E0C90919F0CA091A00CB091A10C26B5A1
:1053F000A89B05C02F3F19F00196A11DB11D3FBF0D
:10540000BA2FA92F982F8827820F911DA11DB11D9A
:10541000BC01CD0142E0660F771F881F991F4A9596
:10542000D1F708958F929F92AF92BF92CF92DF9261
:10543000EF92FF926B017C01D0DF4B015C01C11444
:10544000D104E104F104E9F0C8DFDC01CB018819E3
:105450009909AA09BB09883E9340A105B10578F3D3
:1054600021E0C21AD108E108F10888EE880E83E035
:10547000981EA11CB11CC114D104E104F10421F750
:10548000DECFFF90EF90DF90CF90BF90AF909F90D6
:105490008F9008952FB7F89460919A0C70919B0C9F
:1054A00080919C0C90919D0C2FBF08951F920F929C
:1054B0000FB60F9211242F933F938F939F93AF9327
:1054C000BF9380919A0C90919B0CA0919C0CB091F1
:1054D0009D0C3091990C23E0230F2D3720F4019679
:1054E000A11DB11D05C026E8230F0296A11DB11D07
:1054F0002093990C80939A0C90939B0CA0939C0CF6
:10550000B0939D0C80919E0C90919F0CA091A00C4B
:10551000B091A10C0196A11DB11D80939E0C90939A
:105520009F0CA093A00CB093A10CBF91AF919F9141
:105530008F913F912F910F900FBE0F901F90189554
:10554000CF92DF92EF92FF920F931F93E82FF92FE4
:1055500005C0015011092109310961F1908196239B
:105560009417B9F305C0015011092109310911F14E
:10557000908196239413F7CFC12CD12CE12CF12CE0
:105580000AC08FEFC81AD80AE80AF80A0C151D05D8
:105590002E053F0579F080818623841791F36C2DC9
:1055A0007D2D8E2D9F2D1F910F91FF90EF90DF90FD
:1055B000CF90089560E070E080E090E01F910F913F
:1055C000FF90EF90DF90CF900895CF93DF93CDB70A
:1055D000DEB7C354D1090FB6F894DEBF0FBECDBFFE
:1055E000789484B5826084BD84B5816084BD85B5BE
:1055F000826085BD85B5816085BD80916E008160CA
:1056000080936E001092810080918100826080936F
:105610008100809181008160809381008091800071
:105620008160809380008091B10084608093B1009C
:105630008091B00081608093B00080919100826081
:10564000809391008091910081608093910080917E
:1056500090008160809390008091A100826080938F
:10566000A1008091A10081608093A1008091A000A1
:1056700081608093A000809121018260809321014C
:1056800080912101816080932101809120018160BE
:105690008093200180917A00846080937A008091C9
:1056A0007A00826080937A0080917A008160809392
:1056B0007A0080917A00806880937A001092C1000D
:1056C00062E082E068DB61E083E065DB60E088E067
:1056D00062DB61E088E030DB61E08DE05CDBE09183
:1056E0005909F0915A0982E08083E0915509F091BF
:1056F00056091082E0915709F09158098FEC808388
:1057000010926109E0915D09F0915E0986E0808365
:10571000E0915B09F0915C09808180618083E09178
:105720005B09F0915C09808188608083E0915B096E
:10573000F0915C09808180688083E0915B09F09141
:105740005C0980818F7D808380E090E00E949A498F
:10575000811110C141E061E878E084E090E0E1DC93
:105760006AEF78E088E090E00E94C20868EF78E095
:105770008CE090E00E94C20866EF78E080E190E063
:105780000E94C20864EF78E084E190E00E94C208C1
:1057900041E060E878E088E190E0C3DC60EF78E029
:1057A0008CE190E00E9403226CEE78E080E290E0D1
:1057B0000E94032268EE78E084E890E00E940322D1
:1057C00064EE78E088E890E00E94032241E06FE711
:1057D00078E084E290E0A5DC60EE78E088E290E09A
:1057E0000E9403226CED78E08CE290E00E9403229C
:1057F00068ED78E08CE890E00E94032264ED78E0A8
:1058000080E990E00E94032241E06EE778E080E3C7
:1058100090E087DC62ED78E084E390E00E94C208CB
:1058200060ED78E088E390E00E94C2086EEC78E0DA
:105830008CE390E00E94C2086CEC78E080E490E099
:105840000E94C20868EB78E084E490E00E940322A2
:1058500064EB78E088E490E00E94032260EB78E05B
:105860008CE490E00E9403226CEA78E080E590E00E
:105870000E94032268EC78E084E990E00E94032211
:1058800064EC78E088E990E00E94032268EA78E01E
:1058900088E590E00E94032264EA78E084E590E0E5
:1058A0000E94032242E068E978E08CE590E039DC70
:1058B00042E062E978E080E690E033DC64E978E099
:1058C00084E690E00E9403226EE878E088E690E0AB
:1058D0000E94032260EA78E080E790E00E940322C1
:1058E0006CE978E08CE690E00E94032242E06CE8EC
:1058F00078E084E790E015DC42E066E878E088E74D
:1059000090E00FDC68E878E08CE790E00E940322EA
:1059100062E878E080E890E00E94032241E06AE9D2
:1059200078E08CED90E0FDDB60E076E088ED90E0E3
:105930000E94C20841E06BE978E084EC90E0F1DB82
:1059400060EC78E08CE990E00E9403226CEB78E058
:1059500080EA90E00E94032208EC10E0B8016A5D42
:10596000754F41E0C801DDDB0F5F1F4F083D11059A
:10597000A9F702C00E94CC0886EE99E00E94AA20F6
:105980001092EE0B1092ED0B1092EC0B1092EB0BB1
:105990001092EA0B1092E90B8DE991E09093F00BD5
:1059A0008093EF0B8091DF0B96EF980F943048F0C7
:1059B0002EEC280F243028F022EC280F283008F095
:1059C00070C02DEB30E03093EA0B2093E90B2BE90C
:1059D00031E03093EC0B2093EB0B2CE231E0309371
:1059E000EE0B2093ED0B943070F02EEC280F24304A
:1059F00050F022EC280F283010F40C943A3FA0E02D
:105A0000B0E00C943C3FA8E6B0E0E8E6F0E020818E
:105A1000943018F08E53883010F081E001C084E09B
:105A2000822B8C938091DF0B96EF980F943058F077
:105A30002EEC280F243038F022EC280F283030F0DC
:105A400020E030E005C02BE630E002C02DE630E07B
:105A50003093E70B2093E60B943010F49AEF0BC0D1
:105A6000823381F0833381F0843381F092EC980F9C
:105A7000983070F492EC980F81E001C0880F9A95ED
:105A8000EAF707C088E005C084E003C082E001C0F7
:105A900081E08093E80B8091EF0B9091F00B0197E0
:105AA000F1F78091ED0B9091EE0B892B21F1809114
:105AB0001C0890911D082BE0833D9207E1F00097B0
:105AC00011F00E94151F8091F10B8E7F8093F10BD6
:105AD00010921B0810921A0883ED9BE090931D080A
