:10000000D0C60000FFC60000FDC60000FBC6000011
:10001000F9C60000F7C60000F5C60000F3C60000F0
:10002000F1C600000C948B430C948B430C948B43CF
:10003000E9C60000E7C60000E5C60000E3C6000010
:10004000E1C60000DFC60000DDC60000DBC6000020
:10005000D9C60000D7C60000D5C600000C94AE2457
:10006000D1C600000C94E4390C94BB39CBC6000017
:10007000C9C60000C7C60000C5C60000C3C6000050
:10008000C1C60000BFC60000BDC60000BBC6000060
:10009000B9C60000B7C60000B5C600000C94AE4457
:1000A000B1C60000AFC60000ADC60000ABC6000080
:1000B000A9C60000A7C60000A5C60000A3C6000090
:1000C000A1C600009FC600009DC600000C94923996
:1000D0000C94693997C6000095C6000093C60000CD
:1000E00091C60000D423D723C623CA23D0230E24CD
:1000F000DB23DF23E523E923ED23F323F723FB238E
:100100000E2401240524092451496749674965499A
:1001100067494F496749674967494349674967499B
:100120005849634961496749674967495F4961744B
:100130002B636D6764613D2264656C20616C6C2289
:100140000A0D0041542B434D47523D0041542B436F
:100150004D47463D310D00534D53004154480D0A63
:1001600000574946495F4150493A00574946495F5F
:10017000504153533A00574946495F535349443A13
:10018000003B0D0A004154440031343A35313A30D5
:10019000310046656220203620323031370052541B
:1001A00043204C4F535420504F57455221000000DC
:1001B0002100240027002A002D0030003300010117
:1001C0000000040107010A01535349443A0054480E
:1001D000494E47535045414B204B45593A004552F3
:1001E000524F5200434F4E4E454354454400434FF7
:1001F0004E4E454354494E472E2E2E0050415353E8
:10020000574F52443A002059454152004D4F4E54E9
:10021000480020204441590020204D494E002048EC
:100220004F55520053455420434C4F434B004C45CF
:1002300056454C5B2D5D3A00204E494748542020DE
:100240000020444159202A202000504F5745525B3E
:10025000255D3A0054454D50325B435D3A002045E0
:100260004320585B2D5D3A0020504820585B2D5D9F
:100270003A0045585420205B255D3A004C494748D8
:10028000545B2D5D3A0045435B532F4D5D3A005062
:1002900048205B50485D3A0048554D495B255D3A22
:1002A0000054454D505B435D3A0020202020202023
:1002B00020200000000A0B02090C0D0E08070304A1
:1002C000010000000000000000000000000000002D
:1002D000000000000000000000000000000000120C
:1002E00011100000000000000000000000000000ED
:1002F0000000000000000000000344495341424C4C
:100300004520524144494F0000024F4E2100000059
:10031000000000000000000000014F4646210000E0
:10032000000000000000000000004155544F210073
:10033000000000000000000000290319030903F970
:1003400002CA09043903CB09043903CC090439036F
:10035000CD09043903050000000000000000CE09AB
:100360008000020000000000000000D209780005B3
:100370000000000000000000D4097C000200000022
:100380000000000000D8097400050E000000000005
:100390000000DA09680002FF03000000000000DE30
:1003A000096000050E00000000000000E009640084
:1003B00002FF03000000000000E4095C00020F27B8
:1003C0000000E80300000006D80000030000000061
:1003D000000000E609DC0000020000000000000050
:1003E000E709C400050000000000000000E8096CF7
:1003F00000050000000000000000EC097000050E80
:1004000000000000000000F0095400050E0000008C
:1004100000000000F409580006660000000000001B
:1004200000F8095000066600000000000000FC090A
:100430004C0006630000009DFFFFFF000A980006C5
:10044000630000009DFFFFFF040A94000500000008
:100450000000000000080AA00005000000000000E5
:1004600000000C0A9C0006630000009DFFFFFF10C7
:100470000A480006630000009DFFFFFF140A4400C5
:10048000020000000000000000180A400002000006
:100490000000000000001A0A3C00020000000000FA
:1004A0000000001C0A3800020000000000000000EC
:1004B0001E0A340009000000000000000041030093
:1004C0000006630000009DFFFFFF200A9000066306
:1004D0000000009DFFFFFF240A8C0006630000005F
:1004E0009DFFFFFF280A2C0006630000009DFFFF10
:1004F000FF2C0A280009000000000000000046034D
:100500000000066300000000000000300A880006BA
:100510006300000000000000340A8400066300004D
:100520000000000000380A20000663000000000000
:1005300000003C0A1C000900000000000000004B05
:10054000030000023B00000000000000400A14000D
:10055000021700000000000000420A1000023B00E9
:10056000000000000000440A0C0002170000000018
:10057000000000460A08000900000000000000001A
:100580005003040053415645202620434F4E4E450C
:1005900043542100020068284B45592D3E000000BD
:1005A000000000000000000002000E2850415353DC
:1005B000574F52442D3E0000000000000200E1278A
:1005C000535349442D3E000000000000000000008D
:1005D00002003B28454320484947482059205B53A7
:1005E0002F4D5D00010055034543204849474820F1
:1005F000582020205B2D5D00010062034543204C04
:100600004F57202059205B532F4D5D0001006F0391
:100610004543204C4F572020582020205B2D5D0063
:1006200001007C0350482048494748205920205B5E
:1006300050485D0001008903504820484947482040
:10064000582020205B2D5D00010096035048204C6F
:100650004F5720205920205B50485D000100A30324
:100660005048204C4F572020582020205B2D5D0003
:100670000100B00347534D20434F44452D3E000039
:10068000000000000100BD0347534D204D4F44457D
:100690002D3E0000000000000100CA0345585445EB
:1006A000524E414C00000000000000000100D70342
:1006B000454320484947482020205B532F4D5D008B
:1006C0000100E4034543204C4F57202020205B537A
:1006D0002F4D5D000100F103504820484947482054
:1006E0002020205B50485D000100FE035048204C54
:1006F0004F5720202020205B50485D0001000B0454
:100700004C494748204C4F570000000000000000B3
:10071000010018044C494748204849474800000058
:10072000000000000100250454454D50204C4F5757
:1007300020204E205B435D000100320454454D50A3
:100740002048494748204E205B435D0001003F049C
:1007500048554D49204C4F57202020205B255D00F7
:1007600001004C0448554D49204849474820202065
:100770005B255D000100590454454D50204C4F57F6
:10078000202020205B435D000100660454454D504D
:1007900020484947482020205B435D000100730446
:1007A0004359434C4552204F464620205B535D0041
:1007B000010080044359434C4552204F46462020B7
:1007C0005B4D5D0001008D044359434C4552204F61
:1007D0004E2020205B535D0001009A044359434C96
:1007E0004552204F4E2020205B4D5D000100A704A4
:1007F0004359434C455220434F4E54524F4C0000F6
:100800000100B40446414E204F4646204E20205B56
:10081000435D00000100C10446414E204F4E2020A0
:100820004E20205B435D00000100CE0446414E2077
:100830004F4646202020205B435D00000100DB0482
:1008400046414E204F4E20202020205B435D00007B
:100850000100E80446414E20434F4E54524F4C0095
:10086000000000000100F504484541544552204F66
:1008700046204E205B435D0001000205484541547F
:100880004552204F4E204E205B435D0001000F0576
:10089000484541544552204F464620205B435D0069
:1008A00001001C05484541544552204F4E20202050
:1008B0005B435D00010029054845415445522043F2
:1008C0004F4E54524F4C0000010036054C494748EA
:1008D00054204F46462020205B4D5D00010043051B
:1008E0004C49474854204F46462020205B485D0035
:1008F000010050054C49474854204F4E20202020ED
:100900005B4D5D0001005D054C49474854204F4E4A
:10091000202020205B485D0001006A054C494748C3
:100920005420434F4E54524F4C00000001007705B5
:10093000C005AC05980584051006FC05E805D4053E
:1009400060064C0638062406880674068C0778076D
:10095000640750073C07280714070007EC06D80671
:10096000C406B0069C06F007DC07C807B407A0075A
:10097000540840082C0818080408B808A40890086F
:100980007C0868081C090809F408E008CC085749E5
:1009900046492D3E00000000000000000000000459
:1009A000300952455345542100000000000000006A
:1009B00000000200524645432D3E000000000000AA
:1009C0000000000000000004380950482D3E0000DF
:1009D0000000000000000000000000044009475330
:1009E0004D2D3E000000000000000000000000024D
:1009F000480953455420434C4F434B2D3E000000C3
:100A000000000200E545414C41524D205345542D14
:100A10003E0000000000000D4C094359434C455274
:100A20002D3E000000000000000000056609464160
:100A30004E2D3E00000000000000000000000005F8
:100A400070094845415445522D3E00000000000009
:100A5000000000057A094C494748542D3E0000002B
:100A600000000000000000058409560A420A2E0A10
:100A70001A0A060AF209DE09CA09B609A2098E098C
:100A800000002200250028002B002E003100340039
:100A900002010000050108010B01000020002300F5
:100AA000260029002C002F00320000010000030165
:100AB00006010901050505050705080808080202E1
:100AC00002020A0A080804040404010101010101E8
:100AD00001010303030303030303040707070C0CCB
:100AE0000C0C0C0C0C0C0202020206060606060692
:100AF00006060B0B0B0B0B0B0B0B01021020200837
:100B00000810204010204080020102010804020168
:100B100001020408102040808040201008040201D7
:100B20008004020180402010080402010804020130
:100B300001020408102040800102040810204080B7
:100B4000526F6F7400000000000000000000000001
:100B5000000B6A0A1F1C1F1E1F1E1F1F1E1F1E1FA9
:100B6000005EBCE2613FDD83C29C7E20A3FD1F418D
:100B70009DC3217FFCA2401E5F01E3BD3E6082DC7D
:100B8000237D9FC1421CFEA0E1BF5D0380DE3C626D
:100B9000BEE0025CDF81633D7C22C09E1D43A1FF5D
:100BA0004618FAA427799BC584DA3866E5BB59074D
:100BB000DB856739BAE406581947A5FB7826C49A3D
:100BC000653BD987045AB8E6A7F91B45C6987A242D
:100BD000F8A6441A99C7257B3A6486D85B05E7B91D
:100BE0008CD2306EEDB3510F4E10F2AC2F7193CD0D
:100BF000114FADF3702ECC92D38D6F31B2EC0E50FD
:100C0000AFF1134DCE90722C6D33D18F0C52B0EEEC
:100C1000326C8ED0530DEFB1F0AE4C1291CF2D73DC
:100C2000CA947628ABF517490856B4EA6937D58BCC
:100C30005709EBB536688AD495CB2977F4AA4816BC
:100C4000E9B7550B88D6346A2B7597C94A14F6A8AC
:100C5000742AC896154BA9F7B6E80A54D7896B359C
:100C60005245534554204F4B004E414E494E495436
:100C700059494E46CDCCCC3D0AD7233C17B7D13885
:100C800077CC2B329595E6241FB14F0A0000204106
:100C90000000C84200401C4620BCBE4CCA1B0E5A75
:100CA000AEC59D7400407A10F35A00A0724E180928
:100CB0000010A5D4E80000E87648170000E40B54C3
:100CC000020000CA9A3B000000E1F5050000809692
:100CD0009800000040420F000000A08601000000C4
:100CE000102700000000E80300000000640000007E
:100CF00000000A00000000000100000000002C7647
:100D0000D888DC674F0823DFC1DFAE59E1B1B79661
:100D1000E5E3E453C63AE651997696E8E6C28426BE
:100D2000EB898C9B62ED407C6FFCEFBC9C9F40F29A
:100D3000BAA56FA5F490055A2AF75C936B6CF96716
:100D40006DC11BFCE0E40D47FEF520E6B500D0EDDB
:100D5000902E0300943577050080841E0800002043
:100D60004E0A000000C80C333333330F986E1283E1
:100D70001141EF8D2114893BE65516CFFEE6DB18B5
:100D8000D1844B381BF77C1D901DA4BBE42420327A
:100D900084725E228100C9F124ECA1E53D27114A4D
:100DA000004A11241FBECFEFD1E2DEBFCDBF00E06D
:100DB0000CBF19E0A0E0B2E0ECEBFDEA00E00BBFF5
:100DC00002C007900D92A031B107D9F72EE0A0E143
:100DD000B9E001C01D92A73BB207E1F716E0C0EDF4
:100DE000D6E000E006C021970109802FFE010E9495
:100DF0004E4DCF3CD10780E00807A9F70E94C546B9
:100E00000C94CC56FDC84F925F926F927F928F9256
:100E10009F92AF92BF92CF92DF92EF92FF920F9389
:100E20001F93CF93DF93CDB7DEB7E0970FB6F8945B
:100E3000DEBF0FBECDBFA895CE0101960E946840CF
:100E400086E0FE013196A1EDBDE001900D928A95FC
:100E5000E1F70E94A22460934609709347098093AA
:100E6000480990934909009136091091370920915A
:100E70003809309139094801590148EE840E43E0A0
:100E8000941EA11CB11C86169706A806B90638F058
:100E9000601771078207930710F00C94FF0F809181
:100EA00035098F5F8093350968E70E94DD4C911109
:100EB00002C00E94971A809135096AE00E94DD4CB9
:100EC000911108C18091FF0C9091000D0E94A23FEA
:100ED00040E06CEC8091FF0C9091000D0E94F73E79
:100EE0004091FA0C64E48091FF0C9091000D0E94F7
:100EF000F73E8091FC0C8823E9F08091FB0C8A304E
:100F000049F08B3061F0893079F46EE570E080E073
:100F100090E00EC06CEB70E080E090E009C067E705
:100F200071E080E090E004C06EEE72E080E090E05E
:100F30000E946A24E091FF0CF091000D1386158643
:100F40001486DF011B96CF0103961E92A817B907DE
:100F5000E1F7BE016D5E7F4FCF010E94D83F88232D
:100F600029F067E0CE0143960E94EA3EBE016F5F22
:100F70007F4FCE0143960E94472E68E0CE01019636
:100F80000E94EA3E998589138FC039812A81832F77
:100F900090E0922B2B892232F1F1A8F5203109F053
:100FA00090C01885BC0175956795072E000C880BBD
:100FB000990B0E94875520E030E040E85EE30E94F4
:100FC000564D6B017C01812F90E02F81821B91098E
:100FD000BC01990F880B990B0E9487554B015C014E
:100FE000612F70E080E090E00E9485559B01AC018C
:100FF000C501B4010E94C24D9B01AC01C701B601FD
:101000000E94574D3EC0283231F02B3309F059C0B1
:1010100030FD51C01CC02D812F33B1F1A0F42F3110
:1010200009F04FC0BC0113E0759567951A95E1F77B
:10103000072E000C880B990B0E94875520E030E0AA
:1010400040E05FE31CC02F3569F02F37D1F5BC01BC
:10105000990F880B990B0E94875520E030E040E8FB
:101060005DE30DC0BC0175956795072E000C880BDC
:10107000990B0E94875520E030E040E05EE30E943B
:10108000E6556B017C011DC0BC0175956795759592
:101090006795072E000C880B990B0E94875520E05E
:1010A00030E040E85EE3EBCFC12CD12CAEEFEA2E6E
:1010B000A2ECFA2E06C0C12CD12CF0ECEF2EFFE7EB
:1010C000FF2EC0929809D0929909E0929A09F09265
:1010D0009B0916C20E944033882309F441C08091C5
:1010E000CB0C8B3029F0E0F18551823058F038C0BC
:1010F0006091C70C70E080E090E00E9485556B0124
:101100007C0134C01091C70C612F6F7770E080E0D4
:1011100090E00E94875520E030E040E853E40E94D0
:10112000E6556B017C018091C80C682F70E080E06F
:1011300090E00E9487559B01AC01C701B6010E9457
:10114000574D2DEC3CEC4CEC5DE30E94E6556B01F9
:101150007C0117FF0BC0F7FAF094F7F8F09406C083
:10116000C12CD12CE0ECEE2EEFE7FE2E0E94403396
:10117000882309F445C08091CB0C8B3041F188F174
:101180008551823070F56091C50C70E080E090E090
:101190000E94855520E030E040E853E40E94E65587
:1011A0004B015C018091C60C682F70E080E090E0FC
:1011B0000E9487559B01AC01C501B4010E94574DA7
:1011C0002DEC3CEC4CEC5DE30E94E65507C06091D1
:1011D000C50C70E080E090E00E9485554B015C01F9
:1011E00006C0812C912C70ECA72E7FE7B72EA701AB
:1011F0009601C701B6010E946C4E882379F016C093
:10120000A7019601C701B6010E946C4E81111EC054
:10121000812C912C60ECA62E6FE7B62EC092BD09F2
:10122000D092BE09E092BF09F092C009A5019401D5
:10123000C501B4010E946C4E811108C08092B909A9
:101240009092BA09A092BB09B092BC0986E390E0E3
:101250000E945C3C24E13EEA43E251E40E94C24D1C
:101260009B01AC0160E070E088EC92E40E94564D76
:101270006093B5097093B6098093B7099093B80944
:101280008AE390E00E945C3C24E13EEA43E251E4C0
:101290000E94C24D60939C0970939D0980939E09A2
:1012A00090939F0988E390E00E945C3C24E13EEA31
:1012B00043E251E40E94C24D6093940970939509F2
:1012C000809396099093970987E390E00E945C3C95
:1012D0009B01AC010091DE091091DF09C090DA0991
:1012E000D090DB09E090DC09F090DD09B801012E17
:1012F000000C880B990B2DA73EA74FA758AB0E9457
:1013000087552DA53EA54FA558A90E94564D4B01C6
:101310005C018091E4099091E509801B910BBC016F
:10132000990F880B990B0E9487552B013C01209146
:10133000E0093091E1094091E2095091E309C701C8
:10134000B6010E94564D9B01AC01C301B2010E943F
:10135000C24D9B01AC01C501B4010E94C24DA70161
:1013600096010E94574D6093A4097093A50980933C
:10137000A6099093A70981E00E94062E6DA37EA383
:101380008FA398A780E00E94062E69A77AA78BA753
:101390009CA78091D4099091D509A091D609B091CC
:1013A000D70989A39AA3ABA3BCA36091D809709174
:1013B000D909072E000C880B990B0E9487554B0109
:1013C0005C0129A13AA14BA15CA16091CE09709169
:1013D000CF098091D0099091D1090E94564D6B019F
:1013E0007C016091D2097091D309072E000C880B03
:1013F000990B0E9487559B01AC0160E070E080E88A
:101400009FE30E94C24D2B013C01A501940160E0C5
:1014100070E080E89FE30E94C24D9B01AC01C301D4
:10142000B2010E94564D9B01AC01C701B6010E945A
:10143000C24D6B017C0169A57AA58BA59CA52DA148
:101440003EA14FA158A5620F731F841F951F22E074
:1014500030E040E050E00E94324DCA01B9016E5FB9
:101460007F4F8F4F9F4F0E9487559B01AC01C70153
:10147000B6010E94C24D2B013C01A5019401C70198
:10148000B6010E94C24D9B01AC0169A17AA18BA15A
:101490009CA10E94564D9B01AC01C301B2010E9468
:1014A000574D6093A0097093A1098093A20990936E
:1014B000A30989E390E00E945C3C24E13EEA43E218
:1014C00051E40E94C24D20E030E048E452E40E9422
:1014D000684E18166CF480E090E0A0E8BFE38093BB
:1014E0008F0990939009A0939109B093920908C035
:1014F00010928F09109290091092910910929209FE
:10150000809193098823E1F080913109909132090B
:10151000A0913309B09134090196A11DB11D8093AA
:10152000310990933209A0933309B0933409109292
:101530002D0910922E0910922F09109230091BC00C
:1015400080912D0990912E09A0912F09B091300919
:101550000196A11DB11D80932D0990932E09A09392
:101560002F09B0933009109231091092320910926C
:1015700033091092340900913509802F6AE00E94E6
:10158000DD4C11E0911110E08091CD098330D9F04C
:101590008091B409111104C090912C09981799F009
:1015A000882319F08BE695E002C08EEE94E00E944D
:1015B000FD328091B40980932C0962E370E080E0F1
:1015C00090E00E946A248091CC098330D9F0809108
:1015D000B309111104C090912B09981799F0882331
:1015E00019F081E794E002C084EF93E00E94FD329D
:1015F0008091B30980932B0962E370E080E090E072
:101600000E946A248091CB098330D9F08091B2097D
:10161000111104C090912A09981799F0882319F0A4
:1016200087E793E002C08AEF92E00E94FD3280914A
:10163000B20980932A0962E370E080E090E00E94A2
:101640006A248091CA098330D9F08091B1091111BF
:1016500004C090912909981799F0882319F08DE713
:1016600092E002C080E092E00E94FD328091B109D8
:101670008093290962E370E080E090E00E946A2490
:1016800040912509509126096091270970912809F8
:101690004F5F5F4F6F4F7F4F40932509509326094F
:1016A00060932709709328098091C109882319F054
:1016B0001092C10903C081E08093C1090E94A22455
:1016C00060933609709337098093380990933909EC
:1016D000802F6CE30E94DD4C993009F090C480911A
:1016E000E609882309F48BC48091ED0C9091EE0CEF
:1016F000A091EF0CB091F00C892B8A2B8B2B09F069
:101700007EC40091E70C1091E80C6CE471E08DED63
:101710009DE00E94453962E776E0CE0143960E9443
:101720001B26B801CE0101960E944B43BE016D5E9F
:101730007F4FCE0101960E9403257C01CE010196C8
:101740000E94E725CE0143960E94E725EF20E09412
:1017500009F046C063E471E08DED9DE00E944539DB
:101760002AE045E150E060E070E08DED9DE00E94F0
:10177000E8376DEA76E08DED9DE00E944439B801CE
:10178000CE0101960E944B430E5F1F4FBE016F5F5B
:101790007F4FC8010E949525CE0101960E94E72542
:1017A00065E776E0CE0101960E941B26BE016F5FC1
:1017B0007F4FC8010E9403257C01CE0101960E9443
:1017C000E725EF20E09461F01C8E1B8E1E8E1D8E8F
:1017D00018A21F8EB801CE014B960E94D22506C0DA
:1017E00067E978E0CE014B960E941B268F8D98A169
:1017F000892B09F400C4EB8DFC8D8081882309F4CA
:10180000FAC30091E70C1091E80C6EE271E08DEDE7
:101810009DE00E944539B801CE0101960E944B43DC
:10182000BE016F5F7F4FC80102960E949525CE01D1
:1018300001960E94E7256BE776E0CE0101960E94B3
:101840001B26CE0101960E94E7258091E609882398
:1018500009F4D1C3BE01655E7F4F8CE29BE00E941C
:1018600043386EE776E0CE0101960E941B26BE014A
:101870006F5F7F4FCE014B960E9403258C01CE01F6
:1018800001960E94E725E091EB0CF091EC0C808131
:1018900091811C8A1B8A1E8A1D8A188E1F8A4AE023
:1018A000BE016F5F7F4F0E941F51BE016F5F7F4F70
:1018B000CE0143960E94802598012A5F3F4FA801E0
:1018C0004E5F5F4FBE01655E7F4FCE0101960E9465
:1018D0002F262D813E818F89988D2817390719F57C
:1018E00089819A816B897C89009719F0611571054E
:1018F000A9F46115710551F02115310539F0DB01AD
:101900008C9190E09195819591090AC0009769F0BA
:10191000232B59F0FC01808190E002C00E94955079
:1019200011E0892B19F010E001C011E0CE01019601
:101930000E94E725CE0143960E94E725112309F472
:101940005AC361E876E0CE0101960E941B26BE01D3
:101950006F5F7F4FCE014B960E9403258C01CE0115
:1019600001960E94E72517FF15C065E876E0CE01D5
:1019700001960E941B26BE016F5F7F4FCE014B96E2
:101980000E9403257C01CE0101960E94E725F7FE07
:1019900046C061C0E090E90CF090EA0CA8014F5FEE
:1019A0005F4FBE01655E7F4FCE0101960E942F23DF
:1019B000E114F104B9F00D811E810115110519F42E
:1019C000D7011C920FC00F30110510F00FE010E08E
:1019D00069817A81A801C7010E94A550F701E00F33
:1019E000F11F1082CE0101960E94E725E091E90CDB
:1019F000F091EA0C168600E010E06091E90C70911D
:101A0000EA0C600F711F41E0C80188539F4F0E948C
:101A1000AA3E0F5F1F4F0031110579F7A6CFB2E044
:101A2000EB0EF11C8F8D98A1E816F90648F48B8D0A
:101A30009C8D009729F0FC01EE0DFF1D808101C0F7
:101A400080E080538093E60941E066EE79E08CED1A
:101A500090E00E94AA3E4DEC59E068E876E0CE01A5
:101A60004B960E94293D4CEC59E06BE876E0CE01A4
:101A70004B960E94293D4BEC59E06EE876E0CE0192
:101A80004B960E94293D4AEC59E061E976E0CE018F
:101A90004B960E94293D64E976E0CE0101960E94B2
:101AA0001B26BE016F5F7F4FCE014B960E94032520
:101AB0008C01CE0101960E94E72517FD9CC267E5C7
:101AC00071E08CE29BE00E9445398CE29BE00E9431
:101AD0003038C090E90CD090EA0C0091E70C1091DE
:101AE000E80C67E976E08DED9DE00E944439B8018D
:101AF000CE0101960E944B437801E2E0EE0EF11C0C
:101B0000BE016F5F7F4FC7010E949525CE010196F0
:101B10000E94E72562EA76E08DED9DE00E9444395F
:101B2000B6018DED9DE00E9444396CEA76E08DEDC2
:101B30009DE00E944439B801CE0101960E944B43BA
:101B4000BE016F5F7F4FC7010E949525CE010196B0
:101B50000E94E7256AE08DED9DE00E945F3880914C
:101B6000CF0D882341F06FEA76E08091E70C9091E9
:101B7000E80C0E94A3228091C10D882341F063EB01
:101B800076E08091E70C9091E80C0E94A32280916E
:101B9000B30D882341F067EB76E08091E70C9091DC
:101BA000E80C0E94A3228091A50D882341F06BEBE5
:101BB00076E08091E70C9091E80C0E94A32280913E
:101BC000970D882341F06FEB76E08091E70C9091C0
:101BD000E80C0E94A3228091510D882341F063EC10
:101BE00076E08091E70C9091E80C0E94A32280910E
:101BF000430D882341F067EC76E08091E70C9091EB
:101C0000E80C0E94A3228091270D882341F06BEC01
:101C100076E08091E70C9091E80C0E94A3228091DD
:101C2000190D882341F06FEC76E08091E70C9091DC
:101C3000E80C0E94A3228091350D882341F063EDCA
:101C400076E08091E70C9091E80C0E94A3226091CD
:101C5000CD09809193090E94471C8093B40960913B
:101C6000CC09809124090E94471C8093B30960919C
:101C7000CB09809123090E94471C8093B20960918F
:101C8000CA09809122090E94471C8093B10969E822
:101C900076E08DED9DE00E9444398091B40988235F
:101CA00011F061E301C060E38DED9DE00E945F38BB
:101CB0008091CD09882311F06DE401C061E48DEDC0
:101CC0009DE00E945F3867ED76E08DED9DE00E941B
:101CD00044398091B309882311F061E301C060E3C6
:101CE0008DED9DE00E945F388091CC09882311F032
:101CF0006DE401C061E48DED9DE00E945F386AED06
:101D000076E08DED9DE00E9444398091B2098823F0
:101D100011F061E301C060E38DED9DE00E945F384A
:101D20008091CB09882311F06DE401C061E48DED51
:101D30009DE00E945F386DED76E08DED9DE00E94A4
:101D400044398091B109882311F061E301C060E357
:101D50008DED9DE00E945F388091CA09882311F0C3
:101D60006DE401C061E48DED9DE00E945F386AE0A2
:101D70008DED9DE00E945F3860EE76E08DED9DE098
:101D80000E9444394091BD095091BE096091BF093C
:101D90007091C0098091E70C9091E80C0E948843F3
:101DA0006AE08DED9DE00E945F3864EE76E08DED97
:101DB0009DE00E9444394091B9095091BA0960915F
:101DC000BB097091BC098091E70C9091E80C0E94CE
:101DD00088436AE08DED9DE00E945F3868EE76E012
:101DE0008DED9DE00E9444394091B5095091B609AE
:101DF0006091B7097091B8098091E70C9091E80C57
:101E00000E9488436AE08DED9DE00E945F386CEE91
:101E100076E08DED9DE00E94443940919C095091FF
:101E20009D0960919E0970919F098091E70C9091A6
:101E3000E80C0E9488436AE08DED9DE00E945F38C7
:101E400060EF76E08DED9DE00E9444394091940969
:101E50005091950960919609709197098091E70CCE
:101E60009091E80C0E9488436AE08DED9DE00E940D
:101E70005F3864EF76E08DED9DE00E94443940913B
:101E800098095091990960919A0970919B098091E4
:101E9000E70C9091E80C0E9488436AE08DED9DE08C
:101EA0000E945F3868EF76E08DED9DE00E94443936
:101EB0004091A4095091A5096091A6097091A709C4
:101EC0008091E70C9091E80C0E9488436AE08DEDC8
:101ED0009DE00E945F386CEF76E08DED9DE00E9402
:101EE00044394091A0095091A1096091A2097091D3
:101EF000A3098091E70C9091E80C0E9488436AE066
:101F00008DED9DE00E945F3860E077E08DED9DE013
:101F10000E94443940918F09509190096091910934
:101F2000709192098091E70C9091E80C0E9488438F
:101F30006AE08DED9DE00E945F3864E077E08DED12
:101F40009DE00E9444394091E60950E060E070E075
:101F50008DED9DE00E942D3C66E978E08DED9DE0E1
:101F60000E94443900E010E066E978E08DED9DE0E4
:101F70000E944439BE016F5F7F4FC8010E942B2031
:101F8000BE016F5F7F4F8DED9DE00E9444390F5F72
:101F90001F4F0032110541F70091E70C1091E80C3A
:101FA0006DEA76E08DED9DE00E94443964E670E0D4
:101FB00080E090E00E946A246AE18DED9DE00E943D
:101FC0005F38B801CE0143960E944B43BE016D5E5F
:101FD0007F4FC80102960E949525CE0143960E942C
:101FE000E72568E077E0CE0143960E941B26CE01EC
:101FF00043960E94E725CE014B960E94E7258091EB
:10200000E30B811108C08091AA099091AB09892B3B
:1020100011F40E94802682E49CE00E94CC2183324D
:1020200061F41092AB091092AA091092A9091092BA
:10203000A80981E08093E10B2AC0873329F410922C
:10204000E10B81E090E006C08833D9F41092E10BF7
:1020500083E090E09093AB098093AA091092A909BC
:102060001092A8091092AD091092AE091092AF0912
:102070001092B0091092AC0989E29CE00E94D33B17
:1020800006C08091E10B811102C00E94CC28809192
:102090001A0981110DC00E94A22460931609709341
:1020A0001709809318099093190981E080931A0900
:1020B0008091E40B882371F08091E10B882351F02B
:1020C0001092E40B6091050C8091E70B9091E80B66
:1020D0000E94DB2E8091DD0B81113FC08091DE0BD1
:1020E0000E944B246091DF0B7091E00B209110094E
:1020F00030911109281B390B37FF03C03195219509
:102100003109621773072CF4909311098093100919
:1021100021C0EBEDFBE020E030E046895789DA0191
:10212000A61BB70BA817B9077CF4460F571F8417D7
:10213000950754F4220F331F220F331FF901ED507E
:10214000F44FE080F18014C02F5F3F4F349625306C
:10215000310519F7E12CF12C0BC0E091DB0BF0916C
:10216000DC0B0190F081E02D8BED9BE019957C015B
:102170008091150990E0E816F906C9F0E09215097A
:10218000109214090E94A2246093160970931709F3
:10219000809318099093190910921309109212094B
:1021A00081E090E090931B0C80931A0CE3C00E9496
:1021B000A224009116091091170920911809309155
:1021C0001909DC01CB01801B910BA20BB30B8937E2
:1021D0009105A105B10508F4CDC00E94A224609329
:1021E0001609709317098093180990931909E1143F
:1021F000F10421F08091E10B81110DC010921309BF
:102200001092120981E090E090931B0C80931A0CBD
:1022100010921409AFC0F5E0EF16F10419F481E053
:102220008093E30B8091E30B882309F4A3C0809192
:10223000140990E0E816F906A9F48091120990912A
:102240001309019690931309809312096AE070E0D4
:102250000E94E94C892B71F080911A0C90911B0C13
:10226000029604C0E092140981E090E090931B0C68
:1022700080931A0C8E2D2091E20B35E0E316F104C9
:1022800019F0EA94EF2889F48091E50B9091E60B20
:10229000222311F063E018C060E0009709F04FC0FE
:1022A0008091E90B9091EA0B4AC0833021F0843091
:1022B00021F462E003C061E001C064E0222339F050
:1022C0008091E50B9091E60B0E94323053C0209133
:1022D000E70B3091E80BF9017196E491E15064301D
:1022E00089F51092E60B1092E50B8091EF0B90911F
:1022F000F00B009789F48091ED0B9091EE0B009715
:1023000071F48091EB0B9091EC0B009711F40C940D
:10231000681A20E030E005C022E030E002C021E091
:1023200030E0220F331FF901E551F44F1182108282
:102330009093E80B8093E70B1092050C61E00E94EC
:102340003C2F18C09091050C613011F061E001C084
:102350006FEF690FE61730F481E06F3F09F080E01E
:10236000682F61956F3F09F46E2F6093050CC901CA
:102370000E94DB2E8091ED0C9091EE0CA091EF0C61
:10238000B091F00C0097A105B10509F440C0805D43
:102390009A48AF4FBF4F409146095091470960910D
:1023A00048097091490984179507A607B70778F57A
:1023B00088E40E941E3C0091E70C1091E80C6BE54C
:1023C00071E08DED9DE00E944539B801CE01019686
:1023D0000E944B43BE016F5F7F4FC80102960E946F
:1023E0009525CE0101960E94E7256BE776E0CE01A8
:1023F00001960E941B26CE0101960E94E7251092AD
:10240000ED0C1092EE0C1092EF0C1092F00C20914B
:10241000D40D6CE38091D50D90E05CE3259F800D99
:10242000911D11242091460A3091470A629FA00114
:10243000639F500D11242091440A3091450A420FA8
:10244000531F2091420A3091430A629FF001639F1B
:10245000F00D11242091400A3091410A2E0F3F1FA8
:102460004217530740F48417950760F041E0821744
:10247000930758F007C08417950730F441E02817F8
:10248000390718F440E001C041E0409393091091EE
:1024900093096091CD09812F0E94471C8093B40954
:1024A000C090BD09D090BE09E090BF09F090C0096E
:1024B00020913C0A30913D0A40913E0A50913F0ADA
:1024C000C701B6010E94815587FF03C081E0809358
:1024D00024092091380A3091390A40913A0A5091E2
:1024E0003B0AC701B6010E94684E181614F41092F8
:1024F00024096091CC09809124090E94471C809393
:10250000B30920912C0A30912D0A40912E0A509146
:102510002F0AC701B6010E94684E18161CF481E00C
:10252000809323092091280A3091290A40912A0A90
:1025300050912B0AC701B6010E94815587FD109268
:1025400023096091CB09809123090E94471C809345
:10255000B20980912209882349F180911E0A909145
:102560001F0A4CE3489F9001499F300D1124809130
:102570001C0A90911D0A820F931FA0E0B0E04091C9
:10258000250950912609609127097091280948175B
:1025900059076A077B0750F0109225091092260907
:1025A000109227091092280910922209809122097D
:1025B00081112AC080911A0A90911B0A2CE3289F4E
:1025C000A001299F500D11242091180A3091190A59
:1025D000420F531F60E070E0809125099091260919
:1025E000A0912709B091280984179507A607B70776
:1025F00058F010922509109226091092270910927E
:10260000280981E0809322096091CA0980912209FA
:102610000E94471C8093B109112331F14090040AB4
:102620005090050A6090060A7090070A8090000A90
:102630009090010AA090020AB090030A809131099B
:1026400090913209A0913309B091340988309740B4
:10265000A105B10570F58090100A9090110AA09024
:10266000120AB090130A25C04090140A5090150A1F
:102670006090160A7090170A8090100A9090110AC4
:10268000A090120AB090130A80912D0990912E0902
:10269000A0912F09B091300988309740A105B1056C
:1026A00040F44090040A5090050A6090060A709029
:1026B000070A11E0A3019201C701B6010E94684E0A
:1026C00018160CF010E0612F83EC9DE00E94EE22C2
:1026D000882329F061E38DE097E00E947B2020E0D1
:1026E00030E040E05FE3C301B2010E94564D9B0120
:1026F000AC016091BD097091BE098091BF099091B4
:10270000C0090E948155682F661F6627661F83ECEB
:102710009DE00E94AC22882329F060E38DE097E0E1
:102720000E947B20A50194016091BD097091BE09B2
:102730008091BF099091C0090E948155682F661F42
:102740006627661F85EB9DE00E94EE22882329F014
:1027500061E38EE197E00E947B2020E030E040E0E2
:102760005FE3C501B4010E94574D9B01AC0111E02C
:102770006091BD097091BE098091BF099091C00917
:102780000E94684E18160CF010E0612F85EB9DE05A
:102790000E94AC22882329F060E38EE197E00E943A
:1027A0007B206091B4096623B1F02091F809309143
:1027B000F9094091FA095091FB096091B5097091AE
:1027C000B6098091B7099091B8090E948155682F88
:1027D000661F6627661F89E99DE00E94EE22882316
:1027E00029F061E38FE297E00E947B208091B40999
:1027F0008823F9F020E030E040E251E46091F809EC
:102800007091F9098091FA099091FB090E94574D46
:102810009B01AC0111E06091B5097091B6098091FE
:10282000B7099091B8090E94684E18161CF010E084
:1028300001C011E0612F89E99DE00E94AC2288234C
:1028400029F060E38FE297E00E947B208091B40939
:10285000811115C011E02091FC093091FD094091D2
:10286000FE095091FF096091B5097091B6098091F8
:10287000B7099091B8090E94684E18160CF010E044
:10288000612F87EA9DE00E94EE22882329F061E310
:1028900080E497E00E947B206091B40961111EC022
:1028A00020E030E040E251E46091FC097091FD09C4
:1028B0008091FE099091FF090E94564D9B01AC0149
:1028C0006091B5097091B6098091B7099091B809E6
:1028D0000E948155682F661F6627661F87EA9DE064
:1028E0000E94AC22882329F060E380E497E00E94F4
:1028F0007B2011E020E030E048E452E460919C0944
:1029000070919D0980919E0990919F090E94684E47
:1029100018160CF010E08091E709811103C081E0E6
:10292000182703C0823009F410E0612F61708BE832
:102930009DE00E94EE22882329F061E381E597E083
:102940000E947B20612F609561708BE89DE00E9462
:10295000AC22882329F060E381E597E00E947B2088
:1029600020E030E048E452E46091940970919509C8
:1029700080919609909197090E948155182F111FF7
:102980001127111F612F89E29DE00E94EE2288230A
:1029900029F061E382E697E00E947B2091E0612FBD
:1029A000692789E29DE00E94AC22882329F060E338
:1029B00082E697E00E947B2011E02091F00930919F
:1029C000F1094091F2095091F3096091A4097091C5
:1029D000A5098091A6099091A7090E94684E181632
:1029E0000CF010E0612F8DE79DE00E94EE2288231D
:1029F00029F061E383E797E00E947B202DEC3CEC1B
:102A00004CE45EE36091F0097091F1098091F20964
:102A10009091F3090E94564D9B01AC016091A4096D
:102A20007091A5098091A6099091A7090E948155EE
:102A3000682F661F6627661F8DE79DE00E94AC2207
:102A4000882329F060E383E797E00E947B202091B0
:102A5000F4093091F5094091F6095091F709609118
:102A6000A4097091A5098091A6099091A7090E94D7
:102A70008155682F661F6627661F8FE69DE00E94BE
:102A8000EE22882329F061E384E897E00E947B200E
:102A90002DEC3CEC4CE45EE36091F4097091F50997
:102AA0008091F6099091F7090E94574D9B01AC0166
:102AB00011E06091A4097091A5098091A6099091F7
:102AC000A7090E94684E18160CF010E0612F8FE6DF
:102AD0009DE00E94AC22882329F060E384E897E01F
:102AE0000E947B2011E02091E8093091E909409192
:102AF000EA095091EB096091A0097091A1098091B8
:102B0000A2099091A3090E94684E18160CF010E0DB
:102B1000612F81E69DE00E94EE22882329F061E387
:102B200085E997E00E947B202DEC3CEC4CE45EE3D1
:102B30006091E8097091E9098091EA099091EB09A7
:102B40000E94564D9B01AC016091A0097091A109B2
:102B50008091A2099091A3090E948155682F661F58
:102B60006627661F81E69DE00E94AC22882329F03B
:102B700060E385E997E00E947B202091EC09309189
:102B8000ED094091EE095091EF096091A009709113
:102B9000A1098091A2099091A3090E948155682FF3
:102BA000661F6627661F83E59DE00E94EE2288234C
:102BB00029F061E386EA97E00E947B202DEC3CEC53
:102BC0004CE45EE36091EC097091ED098091EE09AF
:102BD0009091EF090E94574D9B01AC0111E060916B
:102BE000A0097091A1098091A2099091A3090E9466
:102BF000684E18160CF010E0612F83E59DE00E94EE
:102C0000AC22882329F060E386EA97E00E947B20CB
:102C100011E020910C0A30910D0A40910E0A50915A
:102C20000F0A6091B9097091BA098091BB0990911E
:102C3000BC090E94684E18160CF010E0612F85E464
:102C40009DE00E94EE22882329F061E387EB97E064
:102C50000E947B2020E030E040E05FE360910C0ABE
:102C600070910D0A80910E0A90910F0A0E94564DA4
:102C70009B01AC016091B9097091BA098091BB09BF
:102C80009091BC090E948155682F661F6627661FB8
:102C900085E49DE00E94AC22882329F060E387EB65
:102CA00097E00E947B202091080A3091090A409108
:102CB0000A0A50910B0A6091B9097091BA09809182
:102CC000BB099091BC090E948155682F661F662739
:102CD000661F87E39DE00E94EE22882329F061E3CE
:102CE00088EC97E00E947B2020E030E040E05FE34A
:102CF0006091080A7091090A80910A0A90910B0A62
:102D00000E94574D9B01AC0111E06091B90970918F
:102D1000BA098091BB099091BC090E94684E1816AF
:102D20000CF010E0612F87E39DE00E94AC22882325
:102D300029F060E388EC97E00E947B2020E030E0FF
:102D400040E85FE360918F0970919009809191094B
:102D5000909192090E948155682F661F6627661F11
:102D60008DE09DE00E94EE22882329F061E388EC4B
:102D700097E00E947B2011E020E030E0A901609103
:102D80008F097091900980919109909192090E9408
:102D9000684E18160CF010E0612F8DE09DE00E9447
:102DA000AC22882329F060E388EC97E00E947B2026
:102DB00082E49CE00E946F218823E1F01092D00D04
:102DC0001092C20D1092B40D1092A60D1092980D93
:102DD00010928A0D10927C0D10926E0D1092600D63
:102DE0001092520D1092440D1092280D10921A0D4F
:102DF0001092360D8CE29BE00E949734181619064B
:102E00000CF07DC36CE27BE0CE0143960E94BF379D
:102E100069ED77E0CE0101960E941B26BE016F5F2F
:102E20007F4FCE0143960E9403258C01CE0101966F
:102E30000E94E72517FD57C00FB6F894A89580911A
:102E40006000886180936000109260000FBE6DED9D
:102E500077E08CE29BE00E943338A89560EF77E042
:102E6000CE0101960E941B26BE016F5F7F4F8FE847
:102E70009AE00E944338BE016F5F7F4F8CE29BE077
:102E80000E944338A89568E873E180E090E00E94D2
:102E90006A24A8958BE796E00E947F3CCE010196BC
:102EA0000E94E7259ED443D38FE89AE00E9497348E
:102EB000892B49F08FE89AE00E947534682F8CE2E4
:102EC0009BE00E94D6348CE29BE00E949734892BD1
:102ED00059F38CE29BE00E947534682F8FE89AE0EA
:102EE0000E94D634E1CF4DEC59E068E876E0CE019F
:102EF00043960E94293D4CEC59E06BE876E0CE0108
:102F000043960E94293D4BEC59E06EE876E0CE01F5
:102F100043960E94293D4AEC59E061E976E0CE01F2
:102F200043960E94293D69EF77E0CE0101960E9409
:102F30001B26BE016F5F7F4FCE0143960E94032583
:102F40008C01CE0101960E94E72517FD2CC0A80137
:102F50004C5F5F4FBE016D5E7F4FCE0101960E94B8
:102F60002F23CE0101960E94F824DC01CB0142E020
:102F7000BE01655E7F4F0E94833E4B8D5C8D052EAA
:102F8000000C660B770B8CE29BE00E942D3C8CE2E0
:102F90009BE00E9430388CE29BE00E943038CE01EA
:102FA00001960E94E7256EEF77E0CE0101960E9420
:102FB0001B26BE016F5F7F4FCE0143960E94032503
:102FC0008C01CE0101960E94E72517FD2FC0A801B4
:102FD0004C5F5F4FBE016D5E7F4FCE0101960E9438
:102FE0002F2389819A81009719F00E94ED5003C028
:102FF00060E070E0CB010E94334EDC01CB01BE01EA
:10300000655E7F4F0E94C9286B8D7C8D8D8D9E8D56
:103010000E94342E8CE29BE00E9430388CE29BE0D0
:103020000E943038CE0101960E94E72563E078E0E7
:10303000CE0101960E941B26BE016F5F7F4FCE011D
:1030400043960E9403258C01CE0101960E94E7253C
:1030500017FD2FC0A8014C5F5F4FBE016D5E7F4F13
:10306000CE0101960E942F23CE0101960E94F824E2
:103070006B017C01CE0101960E94E725A801475F04
:103080005F4FBE016D5E7F4FCE0101960E942F23E0
:10309000CE0101960E94F8247C8F6B8FCE010196A1
:1030A0000E94E72542E0BE01655E7F4FC6010E9497
:1030B000AA3E68E078E0CE0101960E941B26BE0180
:1030C0006F5F7F4FCE0143960E9403258C01CE0196
:1030D00001960E94E72517FD36C0A8014C5F5F4F9F
:1030E000BE016D5E7F4FCE0101960E942F23CE015F
:1030F00001960E94F8246B017C01CE0101960E948A
:10310000E725A801475F5F4FBE016D5E7F4FCE018F
:1031100001960E942F2389819A81009719F00E94BD
:10312000ED5003C060E070E0CB016B8F7C8F8D8F22
:103130009E8FCE0101960E94E725BE01655E7F4FFE
:10314000C6010E94DF456DE078E0CE0101960E9445
:103150001B26BE016F5F7F4FCE0143960E94032561
:103160008C01CE0101960E94E72517FF20D664E965
:1031700076E0CE0101960E941B26BE016F5F7F4F55
:10318000CE0143960E9403258C01CE0101960E9438
:10319000E7250F3F1F4F09F496C18CE29BE00E9488
:1031A00030386091CD098091930971D38093B4092F
:1031B0006091CC09809124096AD38093B30960910E
:1031C000CB098091230963D38093B2096091CA0926
:1031D000809122095CD38093B10962E178E08CE2AE
:1031E0009BE00E9444398091B409882311F061E387
:1031F00001C060E38CE29BE00E945F388091CD09C2
:10320000882311F08DE401C081E40E941E3C65E139
:1032100078E08CE29BE00E9444398091B3098823D6
:1032200011F061E301C060E38CE29BE00E945F3833
:103230008091CC09882311F08DE401C081E40E94C3
:103240001E3C68E178E08CE29BE00E94443980916A
:10325000B209882311F061E301C060E38CE29BE0D6
:103260000E945F388091CB09882311F08DE401C062
:1032700081E40E941E3C6BE178E08CE29BE00E94BE
:1032800044398091B109882311F061E301C060E302
:103290008CE29BE00E945F388091CA09882311F07C
:1032A0008DE401C081E40E941E3C8CE29BE00E9400
:1032B000303860EE76E08CE29BE00E944439609109
:1032C000BD097091BE098091BF099091C0090E940B
:1032D000342E64EE76E08CE29BE00E9444396091EB
:1032E000B9097091BA098091BB099091BC090E94FB
:1032F000342E68EE76E08CE29BE00E9444396091C7
:10330000B5097091B6098091B7099091B8090E94EA
:10331000342E6CEE76E08CE29BE00E9444396091A2
:103320009C0970919D0980919E0990919F090E942E
:10333000342E60EF76E08CE29BE00E94443960918D
:1033400094097091950980919609909197090E942E
:10335000342E68EF76E08CE29BE00E944439609165
:10336000A4097091A5098091A6099091A7090E94CE
:10337000342E6CEF76E08CE29BE00E944439609141
:10338000A0097091A1098091A2099091A3090E94BE
:10339000342E64EF76E08CE29BE00E944439609129
:1033A00098097091990980919A0990919B090E94BE
:1033B000342E60E077E08CE29BE00E94443960911B
:1033C0008F097091900980919109909192090E94C2
:1033D000342E8CE29BE00E94303864E077E08CE28F
:1033E0009BE00E9444394091E60950E060E070E0C3
:1033F0002AE08CE29BE00E94E83760E28CE29BE0EE
:103400000E945F3867ED7CE08CE29BE00E944439CB
:1034100060E28CE29BE00E945F3840910006509190
:10342000010660E070E02AE08CE29BE00E94E83751
:103430008CE29BE00E9430388CE29BE00E943038A6
:1034400066E771E08CE29BE00E94453967E679E02F
:103450008CE29BE00E9433386BE671E08CE29BE0EB
:103460000E9445396BE779E08CE29BE00E9433389B
:1034700061E671E08CE29BE00E94453963E579E00A
:103480008CE29BE00E9433388CE29BE00E94303853
:1034900000E010E0BE016F5F7F4FC801DCD5BE01C8
:1034A0006F5F7F4F8CE29BE00E9433380F5F1F4FAE
:1034B0000032110579F78CE29BE00E9430388CE2F3
:1034C0009BE00E943038CE0143960E94E72517C04A
:1034D0008091E90B9091EA0B9093E80B8093E70BB6
:1034E0001092050C1092E30BE091080CF091090C7E
:1034F000309711F40C94BA1119950C94BA11E09606
:103500000FB6F894DEBF0FBECDBFDF91CF911F91F4
:103510000F91FF90EF90DF90CF90BF90AF909F9072
:103520008F907F906F905F904F9008950895CF9304
:10353000DF93CDB7DEB7EC970FB6F894DEBF0FBEC2
:10354000CDBF6EE178E0CE0101960E941B2662E3BA
:1035500078E0CE0101960E94722562E478E0CE0107
:1035600001960E947225BE016F5F7F4F8FE89AE03F
:103570000E944338A89560ED77E080E090E00E94DB
:103580006A24A89587E498E00E947F3C81111CC1C1
:10359000409194095091950960919609709197090D
:1035A00022E0CE01C7960E94EC2540918F095091F0
:1035B0009009609191097091920922E0CE01C19623
:1035C0000E94EC25409198095091990960919A09BF
:1035D00070919B0922E0CE018B960E94EC254091D0
:1035E000A0095091A1096091A2097091A30922E05C
:1035F000CE0185960E94EC254091A4095091A50921
:103600006091A6097091A70922E0CE014F960E9411
:10361000EC254091B5095091B6096091B7097091B8
:10362000B80922E0CE0149960E94EC254091B909E3
:103630005091BA096091BB097091BC0922E0CE019A
:1036400043960E94EC254091BD095091BE096091BE
:10365000BF097091C00922E0CE010D960E94EC25B1
:1036600018861F821A8619861C861B8665ED7BE0EC
:10367000CE0107960E94D22563E579E0CE01079638
:103680000E944A256DE478E00E944A25BE01635FEE
:103690007F4F0E94612566E578E00E944A25BE01C1
:1036A0006D5E7F4F0E9461256FE578E00E944A259C
:1036B000BE01675E7F4F0E94612568E678E00E9448
:1036C0004A25BE01615E7F4F0E94612561E778E077
:1036D0000E944A25BE016B5D7F4F0E9461256AE70B
:1036E00078E00E944A25BE01655D7F4F0E946125FA
:1036F00063E878E00E944A25BE016F5C7F4F0E941C
:1037000061256CE878E00E944A25BE01695C7F4F24
:103710000E94612565E978E00E944A25BC01CE013E
:1037200001960E94D225CE0107960E94E725CE0180
:103730000D960E94E725CE0143960E94E725CE0113
:1037400049960E94E725CE014F960E94E725CE01BB
:1037500085960E94E725CE018B960E94E725CE0133
:10376000C1960E94E725CE01C7960E94E72568E929
:1037700078E08FE89AE00E9444394D815E8160E0F4
:1037800070E02AE08FE89AE00E94E8378FE89AE03C
:103790000E94303884EA98E00E947F3C882349F0F8
:1037A0004D815E8169817A818FE89AE00E9431348F
:1037B00006C066EA78E08FE89AE00E9433388BE72B
:1037C00096E00E947F3CA895CE0101960E94E725D5
:1037D000EC960FB6F894DEBF0FBECDBFDF91CF9150
:1037E00008951F93CF93DF9300D000D0CDB7DEB7FD
:1037F000A89562EB78E08FE89AE00E94333860ED9C
:1038000077E080E090E00E946A24A8956EEB78E073
:10381000CE0101960E941B2667E679E0CE01019653
:103820000E9472256EE278E0CE0101960E94722518
:103830006BE779E0CE0101960E94722560E378E0A3
:10384000CE0101960E947225BE016F5F7F4F8FE807
:103850009AE00E944338A89568E873E180E090E020
:103860000E946A24A8958BE796E00E947F3C182F5F
:10387000CE0101960E94E725812F26960FB6F89477
:10388000DEBF0FBECDBFDF91CF911F91089566239C
:1038900021F081E0623009F080E008954F925F925C
:1038A0006F927F928F929F92AF92BF92CF92DF9250
:1038B000EF92FF921092CD0986E090E09093470A34
:1038C0008093460A1092450A1092440A86E190E0DD
:1038D0009093430A8093420A1092410A1092400A40
:1038E00041E06DEC79E084E090E00E94AA3E66E45D
:1038F0007AE088E090E00E94E14564E47AE08CE0C0
:1039000090E00E94E14562E47AE080E190E00E946C
:10391000E14560E47AE084E190E00E94E1451092A4
:10392000CC09C12CD12C80E7E82E81E4F82EC0927E
:103930003C0AD0923D0AE0923E0AF0923F0A80E0B3
:1039400090E0A0E8B1E48093380A9093390AA093FC
:103950003A0AB0933B0A412C512C90E2692E91E433
:10396000792E4092340A5092350A6092360A70924B
:10397000370A80E090E0A0E3B1E48093300A9093AE
:10398000310AA093320AB093330A41E06CEC79E03B
:1039900088E190E00E94AA3E6CE37AE08CE190E03E
:1039A0000E94DF4568E37AE080E290E00E94DF4514
:1039B00064E37AE084E890E00E94DF4560E37AE027
:1039C00088E890E00E94DF451092CB0980E090E00B
:1039D000A0EAB1E480932C0A90932D0AA0932E0ABA
:1039E000B0932F0A80E090E0A8E9B1E48093280A20
:1039F0009093290AA0932A0AB0932B0AC092240A12
:103A0000D092250AE092260AF092270A812C912C66
:103A100020E6A22E21E4B22E8092200A9092210A62
:103A2000A092220AB092230A41E06BEC79E084E292
:103A300090E00E94AA3E6CE27AE088E290E00E9468
:103A4000DF4568E27AE08CE290E00E94DF4564E2C4
:103A50007AE08CE890E00E94DF4560E27AE080E95D
:103A600090E00E94DF451092CA0910921F0A10923E
:103A70001E0A8EE190E090931D0A80931C0A10921A
:103A80001B0A10921A0A9093190A8093180A41E0AF
:103A90006AEC79E080E390E00E94AA3E6EE17AE071
:103AA00084E390E00E94E1456CE17AE088E390E0F5
:103AB0000E94E1456AE17AE08CE390E00E94E145F2
:103AC00068E17AE080E490E00E94E14580E090E0E7
:103AD000A8EAB1E48093040A9093050AA093060A29
:103AE000B093070A80E090E0A8E9B1E48093000A6F
:103AF0009093010AA093020AB093030A80E090E039
:103B0000A0E2B2E48093FC099093FD09A093FE0922
:103B1000B093FF0980E090E0A0E7B2E48093F80959
:103B20009093F909A093FA09B093FB09C092140A83
:103B3000D092150AE092160AF092170A4092100AE3
:103B40005092110A6092120A7092130A64E07AE0AD
:103B500084E490E00E94DF4560E07AE088E490E051
:103B60000E94DF456CEF79E08CE490E00E94DF4535
:103B700068EF79E080E590E00E94DF4564E17AE05B
:103B800084E990E00E94DF4560E17AE088E990E016
:103B90000E94DF458FE892E09093E5098093E40965
:103BA00080E192E09093DF098093DE098CEE91E54D
:103BB000A0E8B0E48093E0099093E109A093E209C2
:103BC000B093E30980E090E0A0EEB0E48093DA09DE
:103BD0009093DB09A093DC09B093DD091092F409FE
:103BE0001092F5091092F6091092F7098092F009E7
:103BF0009092F109A092F209B092F30964EF79E092
:103C000088E590E00E94DF4560EF79E084E590E090
:103C10000E94DF4542E064EE79E08CE590E00E948E
:103C2000AA3E42E06EED79E080E690E00E94AA3E76
:103C300060EE79E084E690E00E94DF456AED79E08D
:103C400088E690E00E94DF4582EF90E09093D909EA
:103C50008093D8098DE790E09093D3098093D2099F
:103C600081E895E9A3EABFE38093D4099093D5094D
:103C7000A093D609B093D7098AE69CEBA0E9B0E4FB
:103C80008093CE099093CF09A093D009B093D10926
:103C90001092EC091092ED091092EE091092EF09C2
:103CA00080E090E0AAE7B4E48093E8099093E90902
:103CB000A093EA09B093EB096CEE79E080E790E01D
:103CC0000E94DF4568EE79E08CE690E00E94DF45D7
:103CD00042E068ED79E084E790E00E94AA3E42E08D
:103CE00062ED79E088E790E00E94AA3E64ED79E019
:103CF0008CE790E00E94DF456EEC79E080E890E090
:103D00000E94DF451092080A1092090A10920A0ACE
:103D100010920B0A80E090E0A8ECB2E480930C0AC9
:103D200090930D0AA0930E0AB0930F0A6CE07AE00C
:103D30008CE990E00E94DF4568E07AE080EA90E05C
:103D40000E94DF4580E090E0A8E4B3EC80933E0958
:103D500090933F09A0934009B093410910923A090A
:103D600010923B0910923C0910923D096AE379E0F8
:103D700084EA90E00E94DF456EE379E088EA90E013
:103D80000E94DF451092E70941E067EE79E084EC9C
:103D900090E0FF90EF90DF90CF90BF90AF909F901A
:103DA0008F907F906F905F904F900C94AA3ECF932E
:103DB000DF9341E06DEC79E084E090E00E94833E87
:103DC00066E47AE088E090E00E94E34564E47AE00B
:103DD0008CE090E00E94E34562E47AE080E190E0CC
:103DE0000E94E34560E47AE084E190E00E94E345CC
:103DF00041E06CEC79E088E190E00E94833E6CE366
:103E00007AE08CE190E00E94C92868E37AE080E2E1
:103E100090E00E94C92864E37AE084E890E00E9480
:103E2000C92860E37AE088E890E00E94C92841E070
:103E30006BEC79E084E290E00E94833E6CE27AE0F1
:103E400088E290E00E94C92868E27AE08CE290E083
:103E50000E94C92864E27AE08CE890E00E94C928B8
:103E600060E27AE080E990E00E94C92841E06AECD3
:103E700079E080E390E00E94833E6EE17AE084E3A3
:103E800090E00E94E3456CE17AE088E390E00E94D4
:103E9000E3456AE17AE08CE390E00E94E34568E163
:103EA0007AE080E490E00E94E34564E07AE084E414
:103EB00090E00E94C92860E07AE088E490E00E94E7
:103EC000C9286CEF79E08CE490E00E94C92868EF83
:103ED00079E080E590E00E94C92864E17AE084E915
:103EE00090E00E94C92860E17AE088E990E00E94B1
:103EF000C92864EF79E088E590E00E94C92860EF66
:103F000079E084E590E00E94C92842E064EE79E01F
:103F10008CE590E00E94833E42E06EED79E080E621
:103F200090E00E94833E60EE79E084E690E00E949B
:103F3000C9286AED79E088E690E00E94C9286CEE15
:103F400079E080E790E00E94C92868EE79E08CE68D
:103F500090E00E94C92842E068ED79E084E790E0B3
:103F60000E94833E42E062ED79E088E790E00E94A3
:103F7000833E64ED79E08CE790E00E94C9286EEC06
:103F800079E080E890E00E94C92841E066EE79E09F
:103F90008CED90E00E94833E60E076E088ED90E05A
:103FA0000E94E34541E067EE79E084EC90E00E94F6
:103FB000833E6CE07AE08CE990E00E94C92868E0DA
:103FC0007AE080EA90E00E94C9286AE379E084EA16
:103FD00090E00E94C9286EE379E088EA90E00E94B0
:103FE000C928C8ECD0E0BE01615F734F41E0CE014B
:103FF0000E94833E2196C83DD105A9F7C0E2D3E0D7
:10400000BE01695B794F41E0CE010E94833E21965B
:10401000C03383E0D807A1F7C4E3D3E0BE01695BF6
:10402000794F41E0CE010E94833E2196C43483E063
:10403000D807A1F7C8E4D3E0BE01655F794F41E03E
:10404000CE010E94833E2196C83583E0D807A1F7B0
:10405000DF91CF910895EF92FF920F931F93CF932B
:10406000DF931F921F92CDB7DEB78C017B0142E038
:10407000BE016F5F7F4F80EE90E00E94833E2981FA
:104080003A8121503109203231051CF43A832983C9
:1040900002C01A82198260E270E09B01201B310B82
:1040A00089819A81820F931F0E94FD4C9A83898394
:1040B00000E010E0B701600F711F89819A8124E050
:1040C000880F991F2A95E1F78C519F4F41E0800F8F
:1040D000911F0E94833E0F5F1F4F0031110551F762
:1040E000F701108A0F900F90DF91CF911F910F91E0
:1040F000FF90EF900895CF92DF92EF92FF920F938F
:104100001F93CF93DF931F921F92CDB7DEB78C0121
:10411000F62E8091D90C8033D9F181E3681338C031
:104120008091ED0C9091EE0CA091EF0CB091F00C01
:10413000892B8A2B8B2B61F58091E609823040F127
:1041400083E40E941E3CC090E90CD090EA0C65E824
:1041500071E08DED9DE00E944539B6018DED9DE049
:104160000E94443961E871E08DED9DE00E9445397F
:104170008091460990914709A0914809B091490959
:104180008093ED0C9093EE0CA093EF0CB093F00C99
:104190008091D30D68018A3048F4EFEFCE1ADE0A21
:1041A0004AE0B80180E090E00E941F518091D30D59
:1041B0004AE0B60190E00E941F518FE2F80182832D
:1041C000B8016D5F7F4F8091D20D8A3040F44AE094
:1041D00080E090E00E941F51C8010496BC018091CC
:1041E000D20D4AE090E00E941F5180E2F8018583E1
:1041F000B8016A5F7F4F8091D40D8A3040F44AE065
:1042000080E090E00E941F51C8010796BC01809198
:10421000D40D4AE090E00E941F518AE3F8018087A4
:10422000B801675F7F4F8091D50D8A3040F44AE036
:1042300080E090E00E941F51C8010A96BC01809165
:10424000D50D4AE090E00E941F5180E2F80183877B
:10425000F78642E0BE016F5F7F4F80EE90E00E94E4
:10426000833E89819A81809714F01A821982E12C09
:10427000F12CB8016E0D7F1D89819A8124E0880F91
:10428000991F2A95E1F78C519F4F41E08E0D9F1D9C
:104290000E94AA3EFFEFEF1AFF0A80E1E816F10440
:1042A00041F789819A81019660E270E00E94FD4C9D
:1042B0009A83898342E0BE016F5F7F4F80EE90E07A
:1042C0000E94AA3E89819A810F900F90DF91CF9131
:1042D0001F910F91FF90EF90DF90CF900895CF93B3
:1042E000DF93EC010E940D3A8E859F858130910508
:1042F00089F18230910581F18430910579F1089737
:1043000079F18C859D858130910561F1823091052F
:1043100059F18430910551F1089751F18A859B85B7
:104320008130910539F18230910531F18430910568
:1043300029F1089729F1888599858130910511F136
:104340008230910509F18430910501F1089701F15E
:1043500080E01FC08AE21DC087E31BC084E319C050
:1043600081E317C080E315C088E313C085E311C063
:1043700082E30FC083E20DC089E30BC086E309C06E
:1043800083E307C084E405C083E403C082E401C082
:1043900081E4DF91CF910895CF92DF92EF92FF9267
:1043A0000F931F93CF93DF93EC010E940D3A2E855C
:1043B0003F85888599852430310509F049C04C85B1
:1043C0005D854830510519F421E02093CD092A85F7
:1043D0003B852830310519F462E06093CD098830BF
:1043E000910511F41092CD094430510519F461E0A2
:1043F0006093CC092430310519F462E06093CC0954
:104400008430910511F41092CC094230510519F411
:1044100061E06093CB092230310519F462E06093CA
:10442000CB098230910511F41092CB09413051052E
:1044300019F441E04093CA092130310519F422E012
:104440002093CA09019709F052C01092CA094FC0BF
:104450008E0101581F4F892B51F48A859B85892B2A
:1044600031F48C859D85892B11F4232B89F1F8017A
:1044700080819181A281B381892B8A2B8B2B31F48E
:1044800061D2F8016083718382839383F801C080D5
:10449000D180E280F380F4EFCF0EF1E0DF1EE11C6B
:1044A000F11C50D26C157D058E059F05B0F4F80106
:1044B000C080D180E280F380F8ECCF0ED11CE11CEB
:1044C000F11C40D2C616D706E806F90630F40FC034
:1044D000F8011082118212821382CE01DF91CF91F6
:1044E0001F910F91FF90EF90DF90CF90F8CE80E07A
:1044F000DF91CF911F910F91FF90EF90DF90CF90C0
:104500000895FC01E45BFF4F8081918145DF813498
:1045100059F0823461F0843469F0833271F08A3268
:1045200079F080E090E0089583E090E0089584E0E1
:1045300090E0089581E090E0089582E090E0089591
:1045400085E090E008958DED9DE00E9444396AE099
:104550008DED9DE00C945F38CF92DF92EF92FF9249
:104560001F93CF93DF93EC01662351F11C85112338
:1045700059F18C819D81AE81BF81892B8A2B8B2B38
:1045800029F4E0D16C837D838E839F83CA84DB848E
:104590000D2C000CEE08FF088C819D81AE81BF813F
:1045A000C80ED91EEA1EFB1ECDD1C616D706E806D8
:1045B000F90650F41C861C821D821E821F8205C0D3
:1045C0001C821D821E821F8210E0812FDF91CF91FD
:1045D0001F91FF90EF90DF90CF900895CF92DF92E0
:1045E000EF92FF92CF93DF93EC01662361F18C850C
:1045F00081112DC088819981AA81BB81892B8A2B49
:104600008B2B29F49FD1688379838A839B83C88409
:10461000D9840D2C000CEE08FF0888819981AA81AD
:10462000BB81C80ED91EEA1EFB1E8CD1C616D7064A
:10463000E806F90660F481E08C878D87188219827C
:104640001A821B8205C0188219821A821B8280E09E
:10465000DF91CF91FF90EF90DF90CF900895CF93AF
:10466000DF93EC01FB0124813581F9D2CE01DF918A
:10467000CF9108953FB7F89480914F0990915009D8
:10468000A0915109B091520926B5A89B05C02F3FB2
:1046900019F00196A11DB11D3FBFBA2FA92F982F68
:1046A0008827820F911DA11DB11DBC01CD0142E0E3
:1046B000660F771F881F991F4A95D1F708950E94AA
:1046C0008150CF93DF93EC0188819981009711F09D
:1046D0000E94054F198218821D821C821B821A8239
:1046E000DF91CF9108950F931F93CF93DF93EC0148
:1046F00088819981009729F02A813B812617370705
:1047000088F48B016F5F7F4F0E949D4F009761F08F
:10471000998388831B830A832C813D81232B11F489
:10472000FC01108281E001C080E0DF91CF911F91F8
:104730000F910895EF92FF920F931F93CF93DF9302
:10474000EC017B018A01BA01CEDF811103C0CE01E9
:10475000B8DF07C01D830C83B701888199810E944F
:104760009E50CE01DF91CF911F910F91FF90EF905E
:10477000089590E0FC013197E231F10508F04EC058
:104780008827EE58FF4F8F4F0C944E4D809180003C
:104790008F7703C0809180008F7D80938000089583
:1047A00080918000877FF9CF84B58F7702C084B570
:1047B0008F7D84BD08958091B0008F7703C0809174
:1047C000B0008F7D8093B0000895809190008F7726
:1047D00007C0809190008F7D03C080919000877FFB
:1047E0008093900008958091A0008F7707C08091FA
:1047F000A0008F7D03C08091A000877F8093A000E0
:104800000895809120018F7707C0809120018F7DCE
:1048100003C080912001877F809320010895CF936A
:10482000DF9390E0FC01E650F54F2491FC01EC543D
:10483000F54F8491882361F190E0880F991FFC0166
:10484000E255FE4FC591D491FC01E058F54FA5917A
:10485000B491611109C09FB7F89488812095822393
:104860008883EC912E230BC0623061F49FB7F894DB
:104870003881822F809583238883EC912E2B2C9373
:104880009FBF06C08FB7F894E8812E2B28838FBF77
:10489000DF91CF910895863308F0865390917B0085
:1048A000282F2870977F922B90937B0087708064CD
:1048B00080937C0080917A00806480937A0080915C
:1048C0007A0086FDFCCF809178002091790090E0FD
:1048D000922B08958F929F92AF92BF92CF92DF92C8
:1048E000EF92FF926B017C01C5DE4B015C01C114AC
:1048F000D104E104F104E9F0BDDEDC01CB0188194B
:104900009909AA09BB09883E9340A105B10578F32E
:1049100021E0C21AD108E108F10888EE880E83E090
:10492000981EA11CB11CC114D104E104F10421F7AB
:10493000DECFFF90EF90DF90CF90BF90AF909F9031
:104940008F9008952FB7F89460914B0970914C099E
:1049500080914D0990914E092FBF08951F920F929B
:104960000FB60F9211242F933F938F939F93AF9382
:10497000BF9380914B0990914C09A0914D09B09142
:104980004E0930914A0923E0230F2D3720F4019678
:10499000A11DB11D05C026E8230F0296A11DB11D62
:1049A00020934A0980934B0990934C09A0934D0999
:1049B000B0934E0980914F0990915009A0915109EF
:1049C000B09152090196A11DB11D80934F0990939A
:1049D0005009A0935109B0935209BF91AF919F9193
:1049E0008F913F912F910F900FBE0F901F901895B0
:1049F000FC0180819181009711F00C94F05060E0EF
:104A000070E0CB010895CF93DF93FC0124813581C1
:104A1000232B71F0FB01DC01CD91DC916081718170
:104A2000CE010E94B450009719F08C1B9D0B02C060
:104A30008FEF9FEFDF91CF910895EF92FF920F9349
:104A40001F93CF93DF93FC0124813581611571059C
:104A500011F480E018C041155105A1F07B01EC0173
:104A60008A01020F131FB8013EDE882391F32881CB
:104A700039818C819D81B701820F931F0E949E50C6
:104A80001D830C8381E0DF91CF911F910F91FF90E7
:104A9000EF900895CF93DF93EC016115710559F004
:104AA000FB0101900020E9F73197AF01461B570B3E
:104AB000C4DF811102C0CE0104DECE01DF91CF91AF
:104AC0000895CF93DF93EC01FB0144815581608110
:104AD0007181B3DF811102C0CE01F3DDCE01DF9120
:104AE000CF9108956115710549F0FB0101900020F7
:104AF000E9F73197AF01461B570B9FCF80E0089530
:104B0000CF93DF93EC016115710551F0FB0101902A
:104B10000020E9F73197AF01461B570B0BDE01C0B0
:104B2000D0DDCE01DF91CF9108950F931F93CF93E6
:104B3000DF938C01EB018617970771F1FC018081EF
:104B400091810097B1F0688179816115710579F0E3
:104B5000428153812C813D814217530740F00E94CE
:104B60009E508C819D81F8019583848313C00E949F
:104B7000054F88819981F801918380838A819B8187
:104B8000938382838C819D8195838483198218828B
:104B90001B821A821D821C82C801DF91CF911F9156
:104BA0000F910895CF93DF93EC01FB0186179707D0
:104BB00051F0608171816115710521F04481558149
:104BC000B9DD01C07EDDCE01DF91CF910895FC01FA
:104BD000808191810C94054FEF92FF920F931F9368
:104BE000CF93DF93CDB7DEB7A1970FB6F894DEBFB2
:104BF0000FBECDBF7C01CB01BA01F701118210823B
:104C0000138212821582148242E0420F8E010F5FDE
:104C10001F4F0E94CE50BC01C70172DFA1960FB694
:104C2000F894DEBF0FBECDBFDF91CF911F910F91E2
:104C3000FF90EF900895FC0111821082138212827E
:104C4000158214826115710549F0FB010190002065
:104C5000E9F73197AF01461B570B6CCD0895BF9212
:104C6000CF92DF92EF92FF920F931F93CF93DF9338
:104C70007C016B018A01E9012417350720F4812F9B
:104C80008901C42FD82F67E978E0C701D4DFD601A6
:104C900014968D919C91159708171907C8F48C17D5
:104CA0009D0708F4EC01D601ED91FC911197EC0FF2
:104CB000FD1FB08010824D915C91BA01600F711F91
:104CC000C7011EDFD601ED91FC91EC0FFD1FB082F4
:104CD000C701DF91CF911F910F91FF90EF90DF906F
:104CE000CF90BF900895882311F06BE205C0662332
:104CF00011F06DE201C060E289E29CE00C945F3843
:104D00008091D00D811134C08091C20D811130C0CD
:104D10008091B40D81112CC08091A60D811128C005
:104D20008091980D811124C080918A0D811120C03D
:104D300080917C0D81111CC080916E0D811118C075
:104D40008091600D811114C08091520D811110C0AD
:104D50008091440D81110CC08091360D811108C0E5
:104D60008091280D811104C080911A0D882321F0B3
:104D70008091C109882329F089E29CE00E94CB3B05
:104D80000BC0E091290CF0912A0C0084F185E02DF4
:104D900060E089E29CE0199560E080E00E94EE3CD2
:104DA0008091CF0D882331F08091C109882331F0A3
:104DB0006BE20BC08091C10D811102C060E205C0A1
:104DC0008091C1098823D1F36DE289E29CE00E94C1
:104DD0005F3864E789E29CE00E945F386091BD091A
:104DE0007091BE098091BF099091C0090E94334E15
:104DF000675F7F4F6331710528F460E389E29CE0CF
:104E00000E945F384091BD095091BE096091BF0971
:104E10007091C00989E29CE00E94273D60E086E035
:104E20000E94EE3C6AED78E089E29CE00E94443901
:104E30006091BD097091BE098091BF099091C00930
:104E40000E94334E675F7F4F6331710528F460E342
:104E500089E29CE00E945F384091B9095091BA09FB
:104E60006091BB097091BC0989E29CE00E94273DDA
:104E700060E08AE00E94EE3C60E289E29CE00E94F1
:104E80005F388091D40D8A3028F460E389E29CE099
:104E90000E945F384091D40D50E060E070E02AE05D
:104EA00089E29CE00E94E8378091C109882341F0A3
:104EB0008091970D882311F061E203C06AE301C07D
:104EC00060E289E29CE00E945F388091D50D8A30D3
:104ED00028F460E389E29CE00E945F384091D50DA0
:104EE00050E060E070E02AE089E29CE00E94E83750
:104EF00061E080E00E94EE3C8091B30D882341F098
:104F00008091C109882311F06BE221C060E21FC0CB
:104F10008091A50D882331F08091C1098823B1F3D8
:104F20006DE215C02091F8093091F9094091FA0914
:104F30005091FB096091B5097091B6098091B7094C
:104F40009091B8090E94684E181604F76AE289E247
:104F50009CE00E945F3869E876E089E29CE00E946C
:104F600044396091CD098091B4090E94684667ED8B
:104F700076E089E29CE00E9444396091CC098091FE
:104F8000B3090E9468466AED76E089E29CE00E94DF
:104F900044396091CB098091B2090E9468466DED59
:104FA00076E089E29CE00E9444396091CA098091D0
:104FB000B1090C9468466AEA72E089E29CE00C94BC
:104FC00045391092E10B84E090E09093AB09809317
:104FD000AA091092A9091092A8091092AD0910927D
:104FE000AE091092AF091092B0091092AC0989E293
:104FF0009CE00E94D33B6CEF71E089E29CE00E9450
:1050000045398BE799E09093C3098093C20940E149
:1050100050E0BC018DED98E00C94A5501092E10B8E
:1050200084E090E09093AB098093AA091092A909BB
:105030001092A8091092AD091092AE091092AF0912
:105040001092B0091092AC0989E29CE00E94D33B17
:105050006EEC71E089E29CE00E94453983E599E0BD
:105060009093C3098093C20940E150E0BC018DEDEB
:1050700098E00C94A5501092E10B84E090E090939E
:10508000AB098093AA091092A9091092A80910925D
:10509000AD091092AE091092AF091092B0091092AA
:1050A000AC0989E29CE00E94D33B68EC71E089E2A4
:1050B0009CE00E94453987E699E09093C30980936C
:1050C000C20940E150E0BC018DED98E00C94A55080
:1050D000CF93DF9389E29CE00E94D33B6EEE71E0B8
:1050E00089E29CE00E94453961E080E00E94EE3C4C
:1050F0000E94F11B882319F064EE71E002C06EED8E
:1051000071E089E29CE00E94453968EE73E080E03E
:1051100090E0E0DB67E679E08CE29BE00E943338C8
:10512000C0E2D3E0BE01695B794F41E0CE010E944D
:10513000AA3E2196C03383E0D807A1F76BE779E058
:105140008CE29BE00E943338C4E3D3E0BE01695B8C
:10515000794F41E0CE010E94AA3E2196C43483E0FB
:10516000D807A1F763E579E08CE29BE00E94333831
:10517000C8E4D3E0BE01655F794F41E0CE010E94F3
:10518000AA3E2196C83583E0D807A1F7DF91CF91D9
:10519000089544E00C94833E8F929F92BF92CF92E9
:1051A000DF92EF92FF920F931F93CF93DF93CDB7D0
:1051B000DEB761970FB6F894DEBF0FBECDBF89E2B0
:1051C0009CE00E94CB3B82E49CE089D8182F882386
:1051D00009F442C08091AD099091AE09A091AF0948
:1051E000B091B00940914609509147096091480932
:1051F00070914909892B8A2B8B2B41F44093AD097F
:105200005093AE096093AF097093B0098091AD09D6
:105210009091AE09A091AF09B091B0096C017D01E8
:1052200028E7C20ED11CE11CF11C4C155D056E0572
:105230007F0538F02091AC09211103C01093AC090F
:1052400001C010E0885A9D4FAF4FBF4F841795079C
:10525000A607B70758F408C01092AD091092AE091E
:105260001092AF091092B0091092AC098091AA096E
:105270009091AB09039709F06EC18091A8099091B4
:10528000A909113411F4019703C0123429F40196CD
:105290009093A9098093A8098091A8099091A909E0
:1052A00097FF02C080E090E08630910514F085E021
:1052B00090E09093A9098093A80960E0009799F580
:1052C00080E00E94EE3C6091C10D8091CF0D0BDD1E
:1052D00061EA72E089E29CE00E9445394091BD0993
:1052E0005091BE096091BF097091C00989E29CE0AC
:1052F0000E94273D60DE61E080E00E94EE3C60910C
:10530000430D8091510DEFDC68E972E089E29CE089
:105310000E9445394091B9095091BA096091BB0981
:105320007091BC0913C18130910599F580E00E940C
:10533000EE3C60917B0D8091890DD5DC6FE872E0C9
:1053400089E29CE00E9445394091A4095091A50949
:105350006091A6097091A70989E29CE00E94273D0F
:105360002ADE61E080E00E94EE3C60915F0D80915A
:105370006D0DB9DC66E872E089E29CE00E94453977
:105380004091A0095091A1096091A2097091A309CF
:10539000DDC082309105C1F580E00E94EE3C609155
:1053A000A50D8091B30D9FDC6CE772E089E29CE073
:1053B0000E9445396091B5097091B6098091B7098D
:1053C0009091B8090E94334EAB01770F660B770BB3
:1053D00089E29CE00E942D3CEEDD61E080E00E94CD
:1053E000EE3C6091970D80E07EDC62E772E089E23E
:1053F0009CE00E94453960919C0970919D098091C3
:105400009E0990919F096FC083309105C9F580E096
:105410000E94EE3C68E672E089E29CE00E94453919
:1054200087E390E00E945C3CAB01BC0189E29CE018
:105430000E94273DC0DD61E080E00E94EE3C6EE509
:1054400072E089E29CE00E94453980E0DFD36B0185
:105450007C0181E0DBD3DC01CB018C0D9D1DAE1DF9
:10546000BF1DB695A79597958795BC01CD016E5F39
:105470007F4F8F4F9F4F0E948555AB01BC0166C087
:105480000497E1F580E00E94EE3C60E289E29CE056
:105490000E945F3864E572E089E29CE00E94453931
:1054A000409198095091990960919A0970919B09CE
:1054B00089E29CE00E94273D7EDD61E080E00E9461
:1054C000EE3C6091350D80E00EDC6AE472E089E22A
:1054D0009CE00E94453960919409709195098091F2
:1054E0009609909197090E94334EAB01770F660B96
:1054F000770B89E29CE00E942D3C2CC080E00E944A
:10550000EE3C80919309882319F061E472E002C0B7
:1055100068E372E089E29CE00E9445394CDD61E07D
:1055200080E00E94EE3C6091190D8091270DDBDB3D
:105530006EE272E089E29CE00E94453940918F0959
:1055400050919009609191097091920989E29CE0D3
:105550000E94273D30DD8091AA099091AB09019707
:1055600009F049C08091A8099091A909113411F45A
:10557000019703C0123429F401969093A9098093EE
:10558000A8098091A8099091A9098F31910514F07B
:105590008EE190E097FF02C080E090E09093A9092F
:1055A0008093A80960E080E00E94EE3CBE016F5F3E
:1055B0007F4F8091A8099091A9090E942B20BE01DC
:1055C0006F5F7F4F89E29CE00E94443961E080E098
:1055D0000E94EE3C8091A8099091A909BE016F5FDD
:1055E0007F4F01960E942B20BE016F5F7F4F89E2A3
:1055F0009CE00E9444398091AA099091AB090297DE
:1056000009F046C1143449F48091A8099091A90980
:1056100001969093A9098093A80960E080E00E9418
:10562000EE3C64E272E089E29CE00E9445398091A0
:10563000A8099091A90997FF02C080E090E0853009
:10564000910514F084E090E09093A9098093A80953
:10565000F090DA0DB090DB0DC090D90DD090D80D40
:105660008090D70D912C80E3881A88EF980A60E02B
:105670008BE00E94EE3C8091A8099091A909892BAA
:1056800069F4113411F4F39403C0123409F4FA9458
:105690006EE172E089E29CE00E9445398091A809A0
:1056A0009091A909019769F4113411F4B39403C0DE
:1056B000123409F4BA9468E172E089E29CE00E9435
:1056C00045398091A8099091A909029769F411348C
:1056D00011F4C39403C0123409F4CA9462E172E075
:1056E00089E29CE00E9445398091A8099091A9091E
:1056F000039769F4113411F4D39403C0123409F4FC
:10570000DA946CE072E089E29CE00E944539809175
:10571000A8099091A909049789F4113421F42FEF75
:10572000821A920A05C0123419F481E0881A91088D
:1057300066E072E089E29CE00E9445390F2D083155
:1057400008F007E12BE32B1510F43BE3B32E8FE1B8
:105750008C1518F42FE1C22E04C0C11002C0CC2455
:10576000C3942CE02D1518F49CE0D92E04C0D11060
:1057700002C0DD24D394C40120E1821627E2920600
:1057800010F08FE097E27C0180EDE81687E0F806E4
:1057900020F480EDE82E87E0F82EC701805D974069
:1057A0008093D70DD092D80DC092D90D0093DA0D09
:1057B000B092DB0D1092DC0D61E080E00E94EE3CC7
:1057C0000A3028F460E389E29CE00E945F38402FB1
:1057D00050E060E070E02AE089E29CE00E94E83757
:1057E0006AE389E29CE00E945F3829E02B1528F0EB
:1057F00060E389E29CE00E945F384B2D50E060E05E
:1058000070E02AE089E29CE00E94E83760E289E2E9
:105810009CE00E945F3889E08C1528F060E389E203
:105820009CE00E945F384C2D50E060E070E02AE080
:1058300089E29CE00E94E8376FE289E29CE00E94E6
:105840005F3829E02D1528F060E389E29CE00E9492
:105850005F384D2D50E060E070E02AE089E29CE086
:105860000E94E8376FE289E29CE00E945F38A7015E
:1058700060E070E02AE089E29CE00E94E8371A329A
:1058800039F487ED9DE00E94ED4081E08093E10BCB
:105890008091AA099091AB09049709F07BC060E060
:1058A00080E00E94EE3C8091A8099091A9091334F0
:1058B00011F4019603C0143429F401979093A909B7
:1058C0008093A8098091A8099091A90997FF02C027
:1058D00080E090E08031910514F08FE090E09093AB
:1058E000A9098093A809FC01E352F74F8081113484
:1058F00011F48F5F03C0123409F48150803208F430
:1059000080E28F3708F08EE7808361E080E00E94BC
:10591000EE3C6DED78E089E29CE00E9444394BDB7F
:105920004ADB8091C109882351F061E08091A80988
:105930000E94EE3C6FE589E29CE00E945F381A32DB
:1059400049F58091A8099091A909FC01E252F74F0D
:10595000108202962FEF8031910534F4FC01E3525E
:10596000F74F20830196F7CF1092ED086DED78E0A8
:105970008CE29BE00E943338A091C209B091C30928
:1059800080E1EDEDF8E001900D928A95E1F781E07C
:105990008093E10B61960FB6F894DEBF0FBECDBFCA
:1059A000DF91CF911F910F91FF90EF90DF90CF90FB
:1059B000BF909F908F900895E091060CF091070C96
:1059C000309709F0199408958F929F92AF92BF92E9
:1059D000CF92DF92EF92FF92CF93DF93A091CC0C06
:1059E000882311F03A2F01C030E08091CD0C90E077
:1059F000880F991F8656954FC090D20CD090D30C2B
:105A0000E090D40CF090D50C40E050E0BA01FC01DD
:105A1000C591D49128812A2323130FC04A015B0129
:105A20002FEF821A920AA20AB20A4C155D056E0582
:105A30007F0538F4B501A401EACF342F252FCB011F
:105A400004C030E020E080E090E0632F722FDF910F
:105A5000CF91FF90EF90DF90CF90BF90AF909F904D
:105A60008F9008951F93CF93DF93182FD92FC62FB0
:105A700040E150E060E270E08AE09CE00E948E50DD
:105A8000E12FFD2FEC0FF11DEC0FF11D65917491CD
:105A90006F5F7F4F4FE050E08AE09CE00E9416511C
:105AA00020E130E040E050E061E070E08AE09CE01E
:105AB000DF91CF911F9180CF0F931F93CF938C01D4
:105AC000C62F40E150E060E270E08AE09CE00E9476
:105AD0008E50C730D9F1C830D9F1C11107C0F801D3
