:10000000D0C60000FFC60000FDC60000FBC6000011
:10001000F9C60000F7C60000F5C60000F3C60000F0
:10002000F1C600000C94AD430C94AD430C94AD4369
:10003000E9C60000E7C60000E5C60000E3C6000010
:10004000E1C60000DFC60000DDC60000DBC6000020
:10005000D9C60000D7C60000D5C600000C94E22423
:10006000D1C600000C94063A0C94DD39CBC60000D2
:10007000C9C60000C7C60000C5C60000C3C6000050
:10008000C1C60000BFC60000BDC60000BBC6000060
:10009000B9C60000B7C60000B5C600000C94D04435
:1000A000B1C60000AFC60000ADC60000ABC6000080
:1000B000A9C60000A7C60000A5C60000A3C6000090
:1000C000A1C600009FC600009DC600000C94B43974
:1000D0000C948B3997C6000095C6000093C60000AB
:1000E00091C6000008240B24FA23FE230424422492
:1000F0000F24132419241D24212427242B242F24E6
:100100004224352439243D24734989498949874942
:10011000894971498949894989496549894989498B
:100120007A4985498349894989498949814961745D
:100130002B636D6764613D2264656C20616C6C2289
:100140000A0D0041542B434D47523D0041542B436F
:100150004D47463D310D00534D53004154480D0A63
:1001600000574946495F4150493A00574946495F5F
:10017000504153533A00574946495F535349443A13
:10018000003B0D0A004154440030363A33303A35D2
:100190003700466562202039203230313700525412
:1001A00043204C4F535420504F57455221000000DC
:1001B0002100240027002A002D0030003300010117
:1001C0000000040107010A01535349443A0054480E
:1001D000494E47535045414B204B45593A004552F3
:1001E000524F5200434F4E4E454354454400434FF7
:1001F0004E4E454354494E472E2E2E0050415353E8
:10020000574F52443A002059454152004D4F4E54E9
:10021000480020204441590020204D494E002048EC
:100220004F55520053455420434C4F434B004C45CF
:1002300056454C5B2D5D3A00204E494748542020DE
:100240000020444159202A202000504F5745525B3E
:10025000255D3A0054454D50325B435D3A002045E0
:100260004320585B2D5D3A0020504820585B2D5D9F
:100270003A0045585420205B255D3A004C494748D8
:10028000545B2D5D3A0045435B532F4D5D3A005062
:1002900048205B50485D3A0048554D495B255D3A22
:1002A0000054454D505B435D3A0020202020202023
:1002B00020200000000A0B02090C0D0E08070304A1
:1002C000010000000000000000000000000000002D
:1002D000000000000000000000000000000000120C
:1002E00011100000000000000000000000000000ED
:1002F0000000000000000000000344495341424C4C
:100300004520524144494F0000024F4E2100000059
:10031000000000000000000000014F4646210000E0
:10032000000000000000000000004155544F210073
:10033000000000000000000000290319030903F970
:1003400002D609043903D709043903D8090439034B
:10035000D909043903050000000000000000DA0993
:100360008000020000000000000000DE09780005A7
:100370000000000000000000E0097C000200000016
:100380000000000000E4097400050E0000000000F9
:100390000000E609680002FF03000000000000EA18
:1003A000096000050E00000000000000EC09640078
:1003B00002FF03000000000000F0095C00020F27AC
:1003C0000000E80300000006D80000030000000061
:1003D000000000F209DC0000020000000000000044
:1003E000F309C400050000000000000000F4096CDF
:1003F00000050000000000000000F8097000050E74
:1004000000000000000000FC095400050E00000080
:1004100000000000000A580006660000000000000E
:1004200000040A5000066600000000000000080AF0
:100430004C0006630000009DFFFFFF0C0A980006B9
:10044000630000009DFFFFFF100A940005000000FC
:100450000000000000140AA00005000000000000D9
:100460000000180A9C0006630000009DFFFFFF1CAF
:100470000A480006630000009DFFFFFF200A4400B9
:10048000020000000000000000240A4000020000FA
:10049000000000000000260A3C00020000000000EE
:1004A000000000280A3800020000000000000000E0
:1004B0002A0A340009000000000000000041030087
:1004C0000006630000009DFFFFFF2C0A90000663FA
:1004D0000000009DFFFFFF300A8C00066300000053
:1004E0009DFFFFFF340A2C0006630000009DFFFF04
:1004F000FF380A2800090000000000000000460341
:1005000000000663000000000000003C0A880006AE
:100510006300000000000000400A84000663000041
:100520000000000000440A200006630000000000F4
:100530000000480A1C000900000000000000004BF9
:10054000030000023B000000000000004C0A140001
:100550000217000000000000004E0A1000023B00DD
:10056000000000000000500A0C000217000000000C
:10057000000000520A08000900000000000000000E
:100580005003040053415645202620434F4E4E450C
:100590004354210002009C284B45592D3E00000089
:1005A00000000000000000000200422850415353A8
:1005B000574F52442D3E0000000000000200152855
:1005C000535349442D3E000000000000000000008D
:1005D00002006F28454320484947482059205B5373
:1005E0002F4D5D00010055034543204849474820F1
:1005F000582020205B2D5D00010062034543204C04
:100600004F57202059205B532F4D5D0001006F0391
:100610004543204C4F572020582020205B2D5D0063
:1006200001007C0350482048494748205920205B5E
:1006300050485D0001008903504820484947482040
:10064000582020205B2D5D00010096035048204C6F
:100650004F5720205920205B50485D000100A30324
:100660005048204C4F572020582020205B2D5D0003
:100670000100B00347534D20434F44452D3E000039
:10068000000000000100BD0347534D204D4F44457D
:100690002D3E0000000000000100CA0345585445EB
:1006A000524E414C00000000000000000100D70342
:1006B000454320484947482020205B532F4D5D008B
:1006C0000100E4034543204C4F57202020205B537A
:1006D0002F4D5D000100F103504820484947482054
:1006E0002020205B50485D000100FE035048204C54
:1006F0004F5720202020205B50485D0001000B0454
:100700004C494748204C4F570000000000000000B3
:10071000010018044C494748204849474800000058
:10072000000000000100250454454D50204C4F5757
:1007300020204E205B435D000100320454454D50A3
:100740002048494748204E205B435D0001003F049C
:1007500048554D49204C4F57202020205B255D00F7
:1007600001004C0448554D49204849474820202065
:100770005B255D000100590454454D50204C4F57F6
:10078000202020205B435D000100660454454D504D
:1007900020484947482020205B435D000100730446
:1007A0004359434C4552204F464620205B535D0041
:1007B000010080044359434C4552204F46462020B7
:1007C0005B4D5D0001008D044359434C4552204F61
:1007D0004E2020205B535D0001009A044359434C96
:1007E0004552204F4E2020205B4D5D000100A704A4
:1007F0004359434C455220434F4E54524F4C0000F6
:100800000100B40446414E204F4646204E20205B56
:10081000435D00000100C10446414E204F4E2020A0
:100820004E20205B435D00000100CE0446414E2077
:100830004F4646202020205B435D00000100DB0482
:1008400046414E204F4E20202020205B435D00007B
:100850000100E80446414E20434F4E54524F4C0095
:10086000000000000100F504484541544552204F66
:1008700046204E205B435D0001000205484541547F
:100880004552204F4E204E205B435D0001000F0576
:10089000484541544552204F464620205B435D0069
:1008A00001001C05484541544552204F4E20202050
:1008B0005B435D00010029054845415445522043F2
:1008C0004F4E54524F4C0000010036054C494748EA
:1008D00054204F46462020205B4D5D00010043051B
:1008E0004C49474854204F46462020205B485D0035
:1008F000010050054C49474854204F4E20202020ED
:100900005B4D5D0001005D054C49474854204F4E4A
:10091000202020205B485D0001006A054C494748C3
:100920005420434F4E54524F4C00000001007705B5
:10093000C005AC05980584051006FC05E805D4053E
:1009400060064C0638062406880674068C0778076D
:10095000640750073C07280714070007EC06D80671
:10096000C406B0069C06F007DC07C807B407A0075A
:10097000540840082C0818080408B808A40890086F
:100980007C0868081C090809F408E008CC085749E5
:1009900046492D3E00000000000000000000000459
:1009A000300952455345542100000000000000006A
:1009B00000000200744645432D3E00000000000088
:1009C0000000000000000004380950482D3E0000DF
:1009D0000000000000000000000000044009475330
:1009E0004D2D3E000000000000000000000000024D
:1009F000480953455420434C4F434B2D3E000000C3
:100A0000000002000746414C41524D205345542DF1
:100A10003E0000000000000D4C094359434C455274
:100A20002D3E000000000000000000056609464160
:100A30004E2D3E00000000000000000000000005F8
:100A400070094845415445522D3E00000000000009
:100A5000000000057A094C494748542D3E0000002B
:100A600000000000000000058409560A420A2E0A10
:100A70001A0A060AF209DE09CA09B609A2098E098C
:100A800000002200250028002B002E003100340039
:100A900002010000050108010B01000020002300F5
:100AA000260029002C002F00320000010000030165
:100AB00006010901050505050705080808080202E1
:100AC00002020A0A080804040404010101010101E8
:100AD00001010303030303030303040707070C0CCB
:100AE0000C0C0C0C0C0C0202020206060606060692
:100AF00006060B0B0B0B0B0B0B0B01021020200837
:100B00000810204010204080020102010804020168
:100B100001020408102040808040201008040201D7
:100B20008004020180402010080402010804020130
:100B300001020408102040800102040810204080B7
:100B4000526F6F7400000000000000000000000001
:100B5000000B6A0A1F1C1F1E1F1E1F1F1E1F1E1FA9
:100B6000005EBCE2613FDD83C29C7E20A3FD1F418D
:100B70009DC3217FFCA2401E5F01E3BD3E6082DC7D
:100B8000237D9FC1421CFEA0E1BF5D0380DE3C626D
:100B9000BEE0025CDF81633D7C22C09E1D43A1FF5D
:100BA0004618FAA427799BC584DA3866E5BB59074D
:100BB000DB856739BAE406581947A5FB7826C49A3D
:100BC000653BD987045AB8E6A7F91B45C6987A242D
:100BD000F8A6441A99C7257B3A6486D85B05E7B91D
:100BE0008CD2306EEDB3510F4E10F2AC2F7193CD0D
:100BF000114FADF3702ECC92D38D6F31B2EC0E50FD
:100C0000AFF1134DCE90722C6D33D18F0C52B0EEEC
:100C1000326C8ED0530DEFB1F0AE4C1291CF2D73DC
:100C2000CA947628ABF517490856B4EA6937D58BCC
:100C30005709EBB536688AD495CB2977F4AA4816BC
:100C4000E9B7550B88D6346A2B7597C94A14F6A8AC
:100C5000742AC896154BA9F7B6E80A54D7896B359C
:100C60005245534554204F4B004E414E494E495436
:100C700059494E46CDCCCC3D0AD7233C17B7D13885
:100C800077CC2B329595E6241FB14F0A0000204106
:100C90000000C84200401C4620BCBE4CCA1B0E5A75
:100CA000AEC59D7400407A10F35A00A0724E180928
:100CB0000010A5D4E80000E87648170000E40B54C3
:100CC000020000CA9A3B000000E1F5050000809692
:100CD0009800000040420F000000A08601000000C4
:100CE000102700000000E80300000000640000007E
:100CF00000000A00000000000100000000002C7647
:100D0000D888DC674F0823DFC1DFAE59E1B1B79661
:100D1000E5E3E453C63AE651997696E8E6C28426BE
:100D2000EB898C9B62ED407C6FFCEFBC9C9F40F29A
:100D3000BAA56FA5F490055A2AF75C936B6CF96716
:100D40006DC11BFCE0E40D47FEF520E6B500D0EDDB
:100D5000902E0300943577050080841E0800002043
:100D60004E0A000000C80C333333330F986E1283E1
:100D70001141EF8D2114893BE65516CFFEE6DB18B5
:100D8000D1844B381BF77C1D901DA4BBE42420327A
:100D900084725E228100C9F124ECA1E53D27334A2B
:100DA000224A11241FBECFEFD1E2DEBFCDBF00E04B
:100DB0000CBF19E0A0E0B2E0E0E0FEEA00E00BBF0B
:100DC00002C007900D92A831B107D9F72EE0A8E133
:100DD000B9E001C01D92A33CB207E1F716E0C0EDF7
:100DE000D6E000E006C021970109802FFE010E9495
:100DF000704DCF3CD10780E00807A9F70E94E74675
:100E00000C94EE56FDC84F925F926F927F928F9234
:100E10009F92AF92BF92CF92DF92EF92FF920F9389
:100E20001F93CF93DF93CDB7DEB7E0970FB6F8945B
:100E3000DEBF0FBECDBFA895CE0101960E948A40AD
:100E400086E0FE013196ADEDBDE001900D928A95F0
:100E5000E1F70E94D62460934E0970934F09809366
:100E600050099093510900913E0910913F0920913A
:100E70004009309141094801590148EE840E43E090
:100E8000941EA11CB11C86169706A806B90638F058
:100E9000601771078207930710F00C94331080914C
:100EA0003D098F5F80933D0968E70E94FF4C9111D7
:100EB00002C00E94CB1A80913D096AE00E94FF4C5B
:100EC0009111D0C160E083E00E94EF3280910B0D60
:100ED00090910C0D0E94C43F40E06CEC80910B0D92
:100EE00090910C0D0E94193F4091060D64E4809191
:100EF0000B0D90910C0D0E94193F8091080D8823D5
:100F0000E9F08091070D8A3049F08B3061F089302B
:100F100079F46EE570E080E090E00EC06CEB70E07C
:100F200080E090E009C067E771E080E090E004C0F5
:100F30006EEE72E080E090E00E949E24E0910B0D46
:100F4000F0910C0D138615861486DF011B96CF01D8
:100F500003961E92A817B907E1F7BE016D5E7F4F99
:100F6000CF010E94FA3F882329F067E0CE01439623
:100F70000E940C3FBE016F5F7F4FCE0143960E94DF
:100F80003B2E68E0CE0101960E940C3F99858913A3
:100F90008FC039812A81832F90E0922B2B892232B6
:100FA000F1F1A8F5203109F090C01885BC017595C4
:100FB0006795072E000C880B990B0E94A95520E01D
:100FC00030E040E85EE30E94784D6B017C01812FA8
:100FD00090E02F81821B9109BC01990F880B990B1E
:100FE0000E94A9554B015C01612F70E080E090E008
:100FF0000E94A7559B01AC01C501B4010E94E44DBC
:101000009B01AC01C701B6010E94794D3EC0283258
:1010100031F02B3309F059C030FD51C01CC02D8177
:101020002F33B1F1A0F42F3109F04FC0BC0183E0A0
:10103000759567958A95E1F7072E000C880B990B3B
:101040000E94A95520E030E040E05FE31CC02F354E
:1010500069F02F37D1F5BC01990F880B990B0E94CD
:10106000A95520E030E040E85DE30DC0BC01759576
:101070006795072E000C880B990B0E94A95520E05C
:1010800030E040E05EE30E9408566B017C011DC029
:10109000BC017595679575956795072E000C880BB3
:1010A000990B0E94A95520E030E040E85EE3EBCFC9
:1010B000C12CD12CBEEFEB2EB2ECFB2E06C0C12C06
:1010C000D12CA0ECEA2EAFE7FA2EC092A009D09264
:1010D000A109E092A209F092A30980E00E9498324F
:1010E0006B017C0181E00E949832DC01CB018C0D08
:1010F0009D1DAE1DBF1DB695A79597958795BC0103
:10110000CD016E5F7F4F8F4F9F4F0E94A755609319
:10111000A4097093A5098093A6099093A70981E07B
:101120000E9498326DA37EA38FA398A780E00E94AF
:10113000983269A77AA78BA79CA78091E009909124
:10114000E109A091E209B091E30989A39AA3ABA3B5
:10115000BCA36091E4097091E509072E000C880B8F
:10116000990B0E94A9554B015C0129A13AA14BA101
:101170005CA16091DA097091DB098091DC099091A2
:10118000DD090E94784D6B017C016091DE09709150
:10119000DF09072E000C880B990B0E94A9559B01B3
:1011A000AC0160E070E080E89FE30E94E44D2B0119
:1011B0003C01A501940160E070E080E89FE30E949B
:1011C000E44D9B01AC01C301B2010E94784D9B012B
:1011D000AC01C701B6010E94E44D6B017C0169A519
:1011E0007AA58BA59CA52DA13EA14FA158A5620F64
:1011F000731F841F951F22E030E040E050E00E9402
:10120000544DCA01B9016E5F7F4F8F4F9F4F0E94AF
:10121000A9559B01AC01C701B6010E94E44D2B0109
:101220003C01A5019401C701B6010E94E44D9B0158
:10123000AC0169A17AA18BA19CA10E94784D9B0170
:10124000AC01C301B2010E94794D6093AC09709367
:10125000AD098093AE099093AF0961E083E00E94ED
:10126000EF3278C10E946233882309F441C0809133
:10127000D70C8B3029F0E0F18551823058F038C01E
:101280006091D30C70E080E090E00E94A7556B0164
:101290007C0134C01091D30C612F6F7770E080E037
:1012A00090E00E94A95520E030E040E853E40E941D
:1012B00008566B017C018091D40C682F70E080E0AF
:1012C00090E00E94A9559B01AC01C701B6010E94A4
:1012D000794D2DEC3CEC4CEC5DE30E9408566B0123
:1012E0007C0117FF0BC0F7FAF094F7F8F09406C0F2
:1012F000C12CD12CE0ECEE2EEFE7FE2E0E946233E3
:10130000882309F445C08091D70C8B3041F188F1D6
:101310008551823070F56091D10C70E080E090E0F2
:101320000E94A75520E030E040E853E40E940856B0
:101330004B015C018091D20C682F70E080E090E05E
:101340000E94A9559B01AC01C501B4010E94794DD1
:101350002DEC3CEC4CEC5DE30E94085607C060911C
:10136000D10C70E080E090E00E94A7554B015C0139
:1013700006C0812C912C70ECA72E7FE7B72EA70119
:101380009601C701B6010E948E4E882379F016C0DF
:10139000A7019601C701B6010E948E4E81111EC0A1
:1013A000812C912C60ECA62E6FE7B62EC092C90955
:1013B000D092CA09E092CB09F092CC09A501940120
:1013C000C501B4010E948E4E811108C08092C509EA
:1013D0009092C609A092C709B092C80986E390E02E
:1013E0000E947E3C24E13EEA43E251E40E94E44D47
:1013F0009B01AC0160E070E088EC92E40E94784DC3
:101400006093C1097093C2098093C3099093C40982
:101410008AE390E00E947E3C24E13EEA43E251E40C
:101420000E94E44D6093A8097093A9098093AA09CA
:101430009093AB0988E390E00E947E3C24E13EEA71
:1014400043E251E40E94E44D60939C0970939D092E
:1014500080939E0990939F0987E390E00E947E3CD1
:101460009B01AC010091EA091091EB09C090E609DB
:10147000D090E709E090E809F090E909B801012E61
:10148000000C880B990B2DA73EA74FA758AB0E94C5
:10149000A9552DA53EA54FA558A90E94784D4B01F1
:1014A0005C018091F0099091F109801B910BBC01C6
:1014B000990F880B990B0E94A9552B013C01209193
:1014C000EC093091ED094091EE095091EF09C70107
:1014D000B6010E94784D9B01AC01C301B2010E948C
:1014E000E44D9B01AC01C501B4010E94E44DA7018C
:1014F00096010E94794D6093B0097093B109809371
:10150000B2099093B30989E390E00E947E3C24E104
:101510003EEA43E251E40E94E44D20E030E048E43A
:1015200052E40E94A35587FF0DC080E090E0A0E840
:10153000BFE38093970990939809A0939909B0937A
:101540009A0908C010929709109298091092990967
:1015500010929A0980919B098823E1F080913909C2
:1015600090913A09A0913B09B0913C090196A11DC7
:10157000B11D8093390990933A09A0933B09B09328
:101580003C091092350910923609109237091092D1
:1015900038091BC08091350990913609A09137090F
:1015A000B09138090196A11DB11D80933509909322
:1015B0003609A0933709B09338091092390910926F
:1015C0003A0910923B0910923C0900913D09802F85
:1015D0006AE00E94FF4C11E0911110E08091D9095E
:1015E0008330D9F08091C009111104C09091340961
:1015F000981799F0882319F08BE695E002C08EEEDB
:1016000094E00E941F338091C0098093340962E303
:1016100070E080E090E00E949E248091D8098330A1
:10162000D9F08091BF09111104C090913309981726
:1016300099F0882319F081E794E002C084EF93E0E9
:101640000E941F338091BF098093330962E370E0E9
:1016500080E090E00E949E248091D7098330D9F0E9
:101660008091BE09111104C090913209981799F028
:10167000882319F087E793E002C08AEF92E00E9486
:101680001F338091BE098093320962E370E080E0ED
:1016900090E00E949E248091D6098330D9F08091F9
:1016A000BD09111104C090913109981799F0882350
:1016B00019F08DE792E002C080E092E00E941F33B3
:1016C0008091BD098093310962E370E080E090E091
:1016D0000E949E2440912D0950912E0960912F095E
:1016E000709130094F5F5F4F6F4F7F4F40932D09CF
:1016F00050932E0960932F09709330098091CD0982
:10170000882319F01092CD0903C081E08093CD09A0
:101710000E94D62460933E0970933F09809340094C
:1017200090934109802F6CE30E94FF4C993009F09F
:101730009AC48091F209882309F495C48091F90C28
:101740009091FA0CA091FB0CB091FC0C892B8A2B88
:101750008B2B09F088C40091F30C1091F40C6CE40D
:1017600071E089EE9DE00E94673962E776E0CE0184
:1017700043960E944F26B801CE0101960E946D4308
:10178000BE016D5E7F4FCE0101960E9437257C0120
:10179000CE0101960E941B26CE0143960E941B2675
:1017A000EF20E09409F046C063E471E089EE9DE02B
:1017B0000E9467392AE045E150E060E070E089EE80
:1017C0009DE00E940A386DEA76E089EE9DE00E9475
:1017D0006639B801CE0101960E946D430E5F1F4F1E
:1017E000BE016F5F7F4FC8010E94C925CE010196DF
:1017F0000E941B2665E776E0CE0101960E944F26E7
:10180000BE016F5F7F4FC8010E9437257C01CE016A
:1018100001960E941B26EF20E09461F01C8E1B8E27
:101820001E8E1D8E18A21F8EB801CE014B960E94EF
:10183000062606C060EA78E0CE014B960E944F264D
:101840008F8D98A1892B09F40AC4EB8DFC8D8081C2
:10185000882309F404C40091F30C1091F40C6EE297
:1018600071E089EE9DE00E946739B801CE010196D2
:101870000E946D43BE016F5F7F4FC80102960E94B8
:10188000C925CE0101960E941B266BE776E0CE01AA
:1018900001960E944F26CE0101960E941B26809140
:1018A000F209882309F4DBC3BE01655E7F4F88E33C
:1018B0009BE00E9465386EE776E0CE0101960E94BB
:1018C0004F26BE016F5F7F4FCE014B960E9437259A
:1018D0008C01CE0101960E941B26E091F70CF0913D
:1018E000F80C808191811C8A1B8A1E8A1D8A188EA1
:1018F0001F8A4AE0BE016F5F7F4F0E944151BE01C7
:101900006F5F7F4FCE0143960E94B42598012A5FF6
:101910003F4FA8014E5F5F4FBE01655E7F4FCE0116
:1019200001960E9463262D813E818F89988D28170C
:10193000390719F589819A816B897C89009719F09B
:1019400061157105A9F46115710551F02115310575
:1019500039F0DB018C9190E09195819591090AC055
:10196000009769F0232B59F0FC01808190E002C0C0
:101970000E94B75011E0892B19F010E001C011E06E
:10198000CE0101960E941B26CE0143960E941B2683
:10199000112309F464C361E876E0CE0101960E9448
:1019A0004F26BE016F5F7F4FCE014B960E943725B9
:1019B0008C01CE0101960E941B2617FF15C065E819
:1019C00076E0CE0101960E944F26BE016F5F7F4FE9
:1019D000CE014B960E9437257C01CE0101960E94D4
:1019E0001B26F7FE46C061C0E090F50CF090F60CA7
:1019F000A8014F5F5F4FBE01655E7F4FCE0101962C
:101A00000E946323E114F104B9F00D811E810115D8
:101A1000110519F4D7011C920FC00F30110510F0F9
:101A20000FE010E069817A81A801C7010E94C750C8
:101A3000F701E00FF11F1082CE0101960E941B26D4
:101A4000E091F50CF091F60C168600E010E0609144
:101A5000F50C7091F60C600F711F41E0C8018853BE
:101A60009F4F0E94CC3E0F5F1F4F0031110579F749
:101A7000A6CFB2E0EB0EF11C8F8D98A1E816F90607
:101A800048F48B8D9C8D009729F0FC01EE0DFF1D15
:101A9000808101C080E080538093F20941E062EFD1
:101AA00079E08CED90E00E94CC3E49ED59E068E889
:101AB00076E0CE014B960E944B3D48ED59E06BE835
:101AC00076E0CE014B960E944B3D47ED59E06EE823
:101AD00076E0CE014B960E944B3D46ED59E061E920
:101AE00076E0CE014B960E944B3D64E976E0CE0154
:101AF00001960E944F26BE016F5F7F4FCE014B962D
:101B00000E9437258C01CE0101960E941B2617FDED
:101B1000A6C267E571E088E39BE00E94673988E32D
:101B20009BE00E945238C090F50CD090F60C0091CA
:101B3000F30C1091F40C67E976E089EE9DE00E94C9
:101B40006639B801CE0101960E946D437801E2E04A
:101B5000EE0EF11CBE016F5F7F4FC7010E94C925C9
:101B6000CE0101960E941B2662EA76E089EE9DE096
:101B70000E946639B60189EE9DE00E9466396CEAE2
:101B800076E089EE9DE00E946639B801CE010196AB
:101B90000E946D43BE016F5F7F4FC7010E94C92540
:101BA000CE0101960E941B266AE089EE9DE00E940C
:101BB00081388091DB0D882341F06FEA76E08091D7
:101BC000F30C9091F40C0E94D7228091CD0D8823C4
:101BD00041F064EB76E08091F30C9091F40C0E945C
:101BE000D7228091BF0D882341F069EB76E0809188
:101BF000F30C9091F40C0E94D7228091B10D8823B0
:101C000041F06EEB76E08091F30C9091F40C0E9421
:101C1000D7228091A30D882341F063EC76E0809178
:101C2000F30C9091F40C0E94D72280915D0D8823D3
:101C300041F067EC76E08091F30C9091F40C0E94F7
:101C4000D72280914F0D882341F06CEC76E0809193
:101C5000F30C9091F40C0E94D7228091330D8823CD
:101C600041F061ED76E08091F30C9091F40C0E94CC
:101C7000D7228091250D882341F066ED76E0809192
:101C8000F30C9091F40C0E94D7228091410D88238F
:101C900041F06BED76E08091F30C9091F40C0E9492
:101CA000D7226AE089EE9DE00E9481386091D909CF
:101CB00080919B090E947B1C8093C0096091D80988
:101CC00080912C090E947B1C8093BF096091D709E9
:101CD00080912B090E947B1C8093BE096091D609DC
:101CE00080912A090E947B1C8093BD0969E876E0F7
:101CF00089EE9DE00E9466398091C009882311F029
:101D000061E301C060E389EE9DE00E94813880912B
:101D1000D909882311F06DE401C061E489EE9DE0EA
:101D20000E94813860EE76E089EE9DE00E9466397F
:101D30008091BF09882311F061E301C060E389EE5F
:101D40009DE00E9481388091D809882311F06DE4CC
:101D500001C061E489EE9DE00E94813863EE76E087
:101D600089EE9DE00E9466398091BE09882311F0BA
:101D700061E301C060E389EE9DE00E9481388091BB
:101D8000D709882311F06DE401C061E489EE9DE07C
:101D90000E94813866EE76E089EE9DE00E94663909
:101DA0008091BD09882311F061E301C060E389EEF1
:101DB0009DE00E9481388091D609882311F06DE45E
:101DC00001C061E489EE9DE00E9481386AE089EEFD
:101DD0009DE00E9481386AE089EE9DE00E94813892
:101DE00069EE76E089EE9DE00E9466394091C9096E
:101DF0005091CA096091CB097091CC098091F30C84
:101E00009091F40C0E94AA436AE089EE9DE00E9442
:101E100081386DEE76E089EE9DE00E946639409152
:101E2000C5095091C6096091C7097091C809809190
:101E3000F30C9091F40C0E94AA436AE089EE9DE0B5
:101E40000E94813861EF76E089EE9DE00E9466395C
:101E50004091C1095091C2096091C3097091C409B0
:101E60008091F30C9091F40C0E94AA436AE089EEF1
:101E70009DE00E94813865EF76E089EE9DE00E944A
:101E800066394091A8095091A9096091AA097091F9
:101E9000AB098091F30C9091F40C0E94AA436AE084
:101EA00089EE9DE00E94813869EF76E089EE9DE041
:101EB0000E94663940919C0950919D0960919E094C
:101EC00070919F098091F30C9091F40C0E94AA43A9
:101ED0006AE089EE9DE00E9481386DEF76E089EE40
:101EE0009DE00E9466394091A0095091A10960913E
:101EF000A2097091A3098091F30C9091F40C0E94B7
:101F0000AA436AE089EE9DE00E94813861E077E0B3
:101F100089EE9DE00E9466394091B0095091B10967
:101F20006091B2097091B3098091F30C9091F40C17
:101F30000E94AA436AE089EE9DE00E94813865E034
:101F400077E089EE9DE00E9466394091AC0950919E
:101F5000AD096091AE097091AF098091F30C909139
:101F6000F40C0E94AA436AE089EE9DE00E94813849
:101F700069E077E089EE9DE00E946639409197091B
:101F8000509198096091990970919A098091F30C88
:101F90009091F40C0E94AA436AE089EE9DE00E94B1
:101FA00081386DE077E089EE9DE00E9466394091CE
:101FB000F20950E060E070E089EE9DE00E944F3C45
:101FC0006FE978E089EE9DE00E94663900E010E05C
:101FD0006FE978E089EE9DE00E946639BE016F5F8F
:101FE0007F4FC8010E945F20BE016F5F7F4F89EE67
:101FF0009DE00E9466390F5F1F4F0032110541F7C7
:102000000091F30C1091F40C6DEA76E089EE9DE0FE
:102010000E94663964E670E080E090E00E949E24B1
:102020006AE189EE9DE00E948138B801CE014396B5
:102030000E946D43BE016D5E7F4FC80102960E94F3
:10204000C925CE0143960E941B2661E177E0CE01AF
:1020500043960E944F26CE0143960E941B26CE0136
:102060004B960E941B268091EF0B811108C0809136
:10207000B6099091B709892B11F40E94B4268EE419
:102080009CE00E940022833261F41092B709109202
:10209000B6091092B5091092B40981E08093ED0B56
:1020A0002AC0873329F41092ED0B81E090E006C03E
:1020B0008833D9F41092ED0B83E090E09093B70948
:1020C0008093B6091092B5091092B4091092B9091B
:1020D0001092BA091092BB091092BC091092B8096B
:1020E00085E39CE00E94F53B06C08091ED0B8111D9
:1020F00002C00E9400298091220981110DC00E9416
:10210000D62460931E0970931F0980932009909331
:10211000210981E0809322098091F00B882371F0DE
:102120008091ED0B882351F01092F00B6091110C0F
:102130008091F30B9091F40B0E94CF2E8091E90BCC
:1021400081113FC08091EA0B0E947F246091EB0BCC
:102150007091EC0B2091180930911909281B390B4B
:1021600037FF03C0319521953109621773072CF4AD
:10217000909319098093180921C0E7EEFBE020E055
:1021800030E046895789DA01A61BB70BA817B907B3
:102190007CF4460F571F8417950754F4220F331F02
:1021A000220F331FF901E150F44FE080F18014C099
:1021B0002F5F3F4F34962530310519F7E12CF12C74
:1021C0000BC0E091E70BF091E80B0190F081E02D5E
:1021D00087EE9BE019957C0180911D0990E0E8163F
:1021E000F906C9F0E0921D0910921C090E94D6243C
:1021F00060931E0970931F09809320099093210911
:1022000010921B0910921A0981E090E09093270C1C
:102210008093260CE3C00E94D62400911E091091E1
:102220001F092091200930912109DC01CB01801B7D
:10223000910BA20BB30B89379105A105B10508F4E9
:10224000CDC00E94D62460931E0970931F0980930D
:10225000200990932109E114F10421F08091ED0B04
:1022600081110DC010921B0910921A0981E090E0B3
:102270009093270C8093260C10921C09AFC0F5E0B8
:10228000EF16F10419F481E08093EF0B8091EF0BCE
:10229000882309F4A3C080911C0990E0E816F90690
:1022A000A9F480911A0990911B09019690931B093A
:1022B00080931A096AE070E00E940B4D892B71F03F
:1022C0008091260C9091270C029604C0E0921C0984
:1022D00081E090E09093270C8093260C8E2D209126
:1022E000EE0B35E0E316F10419F0EA94EF2889F4D7
:1022F0008091F10B9091F20B222311F063E018C052
:1023000060E0009709F04FC08091F50B9091F60BBB
:102310004AC0833021F0843021F462E003C061E0E0
:1023200001C064E0222339F08091F10B9091F20B0F
:102330000E94263053C02091F30B3091F40BF90129
:102340007196E491E150643089F51092F20B10928D
:10235000F10B8091FB0B9091FC0B009789F480911D
:10236000F90B9091FA0B009771F48091F70B909113
:10237000F80B009711F40C949C1A20E030E005C093
:1023800022E030E002C021E030E0220F331FF901EB
:10239000E950F44F118210829093F40B8093F30B69
:1023A0001092110C61E00E94302F18C09091110C16
:1023B000613011F061E001C06FEF690FE61730F492
:1023C00081E06F3F09F080E0682F61956F3F09F46D
:1023D0006E2F6093110CC9010E94CF2E8091F90CD1
:1023E0009091FA0CA091FB0CB091FC0C0097A10508
:1023F000B10509F440C0805D9A48AF4FBF4F40918E
:102400004E0950914F0960915009709151098417FC
:102410009507A607B70778F588E40E94403C00912D
:10242000F30C1091F40C6BE571E089EE9DE00E94D5
:102430006739B801CE0101960E946D43BE016F5FFE
:102440007F4FC80102960E94C925CE0101960E94C5
:102450001B266BE776E0CE0101960E944F26CE0147
:1024600001960E941B261092F90C1092FA0C109201
:10247000FB0C1092FC0C2091E00D6CE38091E10DBF
:1024800090E05CE3259F800D911D11242091520A5C
:102490003091530A629FA001639F500D1124209137
:1024A000500A3091510A420F531F20914E0A309129
:1024B0004F0A629FF001639FF00D112420914C0A96
:1024C00030914D0A2E0F3F1F4217530740F48417D7
:1024D000950760F041E08217930758F007C0841712
:1024E000950730F441E02817390718F440E001C09F
:1024F00041E040939B0910919B096091D909812F7C
:102500000E947B1C8093C009C090C909D090CA0961
:10251000E090CB09F090CC092091480A3091490A0B
:1025200040914A0A50914B0AC701B6010E94A35537
:1025300087FF03C081E080932C092091440A3091E9
:10254000450A4091460A5091470AC701B6010E94C8
:102550008A4E181614F410922C096091D8098091B3
:102560002C090E947B1C8093BF092091380A30916E
:10257000390A40913A0A50913B0AC701B6010E94BC
:102580008A4E18161CF481E080932B092091340A9E
:102590003091350A4091360A5091370AC701B60189
:1025A0000E94A35587FD10922B096091D709809155
:1025B0002B090E947B1C8093BE0980912A098823E5
:1025C00049F180912A0A90912B0A4CE3489F90018F
:1025D000499F300D11248091280A9091290A820F79
:1025E000931FA0E0B0E040912D0950912E09609119
:1025F0002F0970913009481759076A077B0750F077
:1026000010922D0910922E0910922F091092300964
:1026100010922A0980912A0981112AC08091260AE4
:102620009091270A2CE3289FA001299F500D112487
:102630002091240A3091250A420F531F60E070E078
:1026400080912D0990912E09A0912F09B091300908
:1026500084179507A607B70758F010922D09109216
:102660002E0910922F091092300981E080932A09D7
:102670006091D60980912A090E947B1C8093BD0934
:10268000112331F14090100A5090110A6090120A03
:102690007090130A80900C0A90900D0AA0900E0A78
:1026A000B0900F0A8091390990913A09A0913B09A5
:1026B000B0913C0988309740A105B10570F5809034
:1026C0001C0A90901D0AA0901E0AB0901F0A25C0F7
:1026D0004090200A5090210A6090220A7090230AAC
:1026E00080901C0A90901D0AA0901E0AB0901F0AAC
:1026F0008091350990913609A0913709B091380938
:1027000088309740A105B10540F44090100A5090E0
:10271000110A6090120A7090130A11E0A30192014D
:10272000C701B6010E948A4E18160CF010E0612F06
:102730008FEC9DE00E942223882329F061E386E14B
:1027400097E00E94AF2020E030E040E05FE3C3016B
:10275000B2010E94784D9B01AC016091C909709152
:10276000CA098091CB099091CC090E94A355682F8A
:10277000661F6627661F8FEC9DE00E94E02288237B
:1027800029F060E386E197E00E94AF20A501940163
:102790006091C9097091CA098091CB099091CC09C7
:1027A0000E94A355682F661F6627661F81EC9DE077
:1027B0000E942223882329F061E387E297E00E94A8
:1027C000AF2020E030E040E05FE3C501B4010E94AB
:1027D000794D9B01AC0111E06091C9097091CA0962
:1027E0008091CB099091CC090E948A4E18160CF06A
:1027F00010E0612F81EC9DE00E94E022882329F007
:1028000060E387E297E00E94AF206091C0096623F1
:10281000B1F02091040A3091050A4091060A5091C6
:10282000070A6091C1097091C2098091C309909112
:10283000C4090E94A355682F661F6627661F85EA94
:102840009DE00E942223882329F061E388E397E03A
:102850000E94AF208091C0098823F9F020E030E089
:1028600040E251E46091040A7091050A8091060AE1
:102870009091070A0E94794D9B01AC0111E0609193
:10288000C1097091C2098091C3099091C4090E9445
:102890008A4E18161CF010E001C011E0612F85EA85
:1028A0009DE00E94E022882329F060E388E397E01E
:1028B0000E94AF208091C009811115C011E02091C4
:1028C000080A3091090A40910A0A50910B0A609156
:1028D000C1097091C2098091C3099091C4090E94F5
:1028E0008A4E18160CF010E0612F83EB9DE00E94D9
:1028F0002223882329F061E389E497E00E94AF2036
:102900006091C00961111EC020E030E040E251E456
:102910006091080A7091090A80910A0A90910B0A45
:102920000E94784D9B01AC016091C1097091C20970
:102930008091C3099091C4090E94A355682F661F16
:102940006627661F83EB9DE00E94E022882329F022
:1029500060E389E497E00E94AF2011E020E030E0DE
:1029600048E452E46091A8097091A9098091AA09EC
:102970009091AB090E948A4E18160CF010E08091DD
:10298000F309811103C081E0182703C0823009F4E4
:1029900010E0612F617087E99DE00E942223882367
:1029A00029F061E38AE597E00E94AF20612F6095EE
:1029B000617087E99DE00E94E022882329F060E3AE
:1029C0008AE597E00E94AF2020E030E048E452E43E
:1029D00060919C0970919D0980919E0990919F0939
:1029E0000E94A355182F111F1127111F612F85E376
:1029F0009DE00E942223882329F061E38BE697E083
:102A00000E94AF2091E0612F692785E39DE00E943D
:102A1000E022882329F060E38BE697E00E94AF2054
:102A200011E02091FC093091FD094091FE0950917F
:102A3000FF096091B0097091B1098091B20990913C
:102A4000B3090E948A4E18160CF010E0612F89E835
:102A50009DE00E942223882329F061E38CE797E020
:102A60000E94AF202DEC3CEC4CE45EE36091FC094D
:102A70007091FD098091FE099091FF090E94784DA7
:102A80009B01AC016091B0097091B1098091B209CC
:102A90009091B3090E94A355682F661F6627661F91
:102AA00089E89DE00E94E022882329F060E38CE71A
:102AB00097E00E94AF202091000A3091010A4091D6
:102AC000020A5091030A6091B0097091B109809196
:102AD000B2099091B3090E94A355682F661F66271B
:102AE000661F8BE79DE00E942223882329F061E383
:102AF0008DE897E00E94AF202DEC3CEC4CE45EE3C7
:102B00006091000A7091010A8091020A9091030A73
:102B10000E94794D9B01AC0111E06091B009709168
:102B2000B1098091B2099091B3090E948A4E18169A
:102B30000CF010E0612F8BE79DE00E94E0228823DB
:102B400029F060E38DE897E00E94AF2011E020912A
:102B5000F4093091F5094091F6095091F709609117
:102B6000AC097091AD098091AE099091AF090E94B6
:102B70008A4E18160CF010E0612F8DE69DE00E9441
:102B80002223882329F061E38EE997E00E94AF2099
:102B90002DEC3CEC4CE45EE36091F4097091F50996
:102BA0008091F6099091F7090E94784D9B01AC0144
:102BB0006091AC097091AD098091AE099091AF0917
:102BC0000E94A355682F661F6627661F8DE69DE04D
:102BD0000E94E022882329F060E38EE997E00E94BA
:102BE000AF202091F8093091F9094091FA095091EC
:102BF000FB096091AC097091AD098091AE0990918B
:102C0000AF090E94A355682F661F6627661F8FE5D0
:102C10009DE00E942223882329F061E38FEA97E058
:102C20000E94AF202DEC3CEC4CE45EE36091F8098F
:102C30007091F9098091FA099091FB090E94794DF0
:102C40009B01AC0111E06091AC097091AD098091DC
:102C5000AE099091AF090E948A4E18160CF010E050
:102C6000612F8FE59DE00E94E022882329F060E338
:102C70008FEA97E00E94AF2011E02091180A30916E
:102C8000190A40911A0A50911B0A6091C509709166
:102C9000C6098091C7099091C8090E948A4E1816EA
:102CA0000CF010E0612F81E59DE00E942223882333
:102CB00029F061E380EC97E00E94AF2020E030E053
:102CC00040E05FE36091180A7091190A80911A0A36
:102CD00090911B0A0E94784D9B01AC016091C5093F
:102CE0007091C6098091C7099091C8090E94A355A7
:102CF000682F661F6627661F81E59DE00E94E0221F
:102D0000882329F060E380EC97E00E94AF202091B7
:102D1000140A3091150A4091160A5091170A6091D1
:102D2000C5097091C6098091C7099091C8090E9490
:102D3000A355682F661F6627661F83E49DE00E94E7
:102D40002223882329F061E381ED97E00E94AF20E0
:102D500020E030E040E05FE36091140A7091150AD2
:102D60008091160A9091170A0E94794D9B01AC013F
:102D700011E06091C5097091C6098091C7099091D1
:102D8000C8090E948A4E18160CF010E0612F83E4E7
:102D90009DE00E94E022882329F060E381ED97E026
:102DA0000E94AF2020E030E040E85FE360919709A7
:102DB000709198098091990990919A090E94A35560
:102DC000682F661F6627661F89E19DE00E94222307
:102DD000882329F061E381ED97E00E94AF2011E0A4
:102DE00020E030E0A90160919709709198098091E5
:102DF000990990919A090E948A4E18160CF010E0D9
:102E0000612F89E19DE00E94E022882329F060E3A0
:102E100081ED97E00E94AF208EE49CE00E94A32108
:102E20008823E1F01092DC0D1092CE0D1092C00DAF
:102E30001092B20D1092A40D1092960D1092880D62
:102E400010927A0D10926C0D10925E0D1092500D32
:102E50001092340D1092260D1092420D88E39BE0E3
:102E60000E94B934181619060CF07DC368E37BE0A4
:102E7000CE0143960E94E13762EE77E0CE010196E3
:102E80000E944F26BE016F5F7F4FCE0143960E9486
:102E900037258C01CE0101960E941B2617FD57C0D5
:102EA0000FB6F894A89580916000886180936000C7
:102EB000109260000FBE66EE77E088E39BE00E9410
:102EC0005538A89569EF77E0CE0101960E944F260C
:102ED000BE016F5F7F4F8BE99AE00E946538BE01AB
:102EE0006F5F7F4F88E39BE00E946538A89568E894
:102EF00073E180E090E00E949E24A8958BE796E025
:102F00000E94A13CCE0101960E941B269ED443D371
:102F10008BE99AE00E94B934892B49F08BE99AE059
:102F20000E949734682F88E39BE00E94F83488E37E
:102F30009BE00E94B934892B59F388E39BE00E94FF
:102F40009734682F8BE99AE00E94F834E1CF49ED7D
:102F500059E068E876E0CE0143960E944B3D48ED8B
:102F600059E06BE876E0CE0143960E944B3D47ED79
:102F700059E06EE876E0CE0143960E944B3D46ED67
:102F800059E061E976E0CE0143960E944B3D62E054
:102F900078E0CE0101960E944F26BE016F5F7F4F01
:102FA000CE0143960E9437258C01CE0101960E94E6
:102FB0001B2617FD2CC0A8014C5F5F4FBE016D5E44
:102FC0007F4FCE0101960E946323CE0101960E949D
:102FD0002C25DC01CB0142E0BE01655E7F4F0E94E3
:102FE000A53E4B8D5C8D052E000C660B770B88E3A0
:102FF0009BE00E944F3C88E39BE00E94523888E3AC
:103000009BE00E945238CE0101960E941B2667E089
:1030100078E0CE0101960E944F26BE016F5F7F4F80
:10302000CE0143960E9437258C01CE0101960E9465
:103030001B2617FD2FC0A8014C5F5F4FBE016D5EC0
:103040007F4FCE0101960E94632389819A81009768
:1030500019F00E940F5103C060E070E0CB010E94A4
:10306000554EDC01CB01BE01655E7F4F0E94FD28FD
:103070006B8D7C8D8D8D9E8D0E94282E88E39BE02C
:103080000E94523888E39BE00E945238CE0101969C
:103090000E941B266CE078E0CE0101960E944F262C
:1030A000BE016F5F7F4FCE0143960E9437258C0192
:1030B000CE0101960E941B2617FD2FC0A8014C5F70
:1030C0005F4FBE016D5E7F4FCE0101960E9463236C
:1030D000CE0101960E942C256B017C01CE01019648
:1030E0000E941B26A801475F5F4FBE016D5E7F4FA8
:1030F000CE0101960E946323CE0101960E942C25E9
:103100007C8F6B8FCE0101960E941B2642E0BE0190
:10311000655E7F4FC6010E94CC3E61E178E0CE0142
:1031200001960E944F26BE016F5F7F4FCE014396EE
:103130000E9437258C01CE0101960E941B2617FDA7
:1031400036C0A8014C5F5F4FBE016D5E7F4FCE0160
:1031500001960E946323CE0101960E942C256B01EB
:103160007C01CE0101960E941B26A801475F5F4F9C
:10317000BE016D5E7F4FCE0101960E94632389815F
:103180009A81009719F00E940F5103C060E070E02F
:10319000CB016B8F7C8F8D8F9E8FCE0101960E940D
:1031A0001B26BE01655E7F4FC6010E94014666E197
:1031B00078E0CE0101960E944F26BE016F5F7F4FDF
:1031C000CE0143960E9437258C01CE0101960E94C4
:1031D0001B2617FF20D664E976E0CE0101960E94F7
:1031E0004F26BE016F5F7F4FCE0143960E94372569
:1031F0008C01CE0101960E941B260F3F1F4F09F440
:1032000096C188E39BE00E9452386091D909809171
:103210009B0971D38093C0096091D80980912C09D2
:103220006AD38093BF096091D70980912B0963D33A
:103230008093BE096091D60980912A095CD380935E
:10324000BD096BE178E088E39BE00E9466398091DC
:10325000C009882311F061E301C060E388E39BE0CB
:103260000E9481388091D909882311F08DE401C032
:1032700081E40E94403C6EE178E088E39BE00E949C
:1032800066398091BF09882311F061E301C060E3D2
:1032900088E39BE00E9481388091D809882311F04F
:1032A0008DE401C081E40E94403C61E278E088E363
:1032B0009BE00E9466398091BE09882311F061E38A
:1032C00001C060E388E39BE00E9481388091D709C8
:1032D000882311F08DE401C081E40E94403C64E247
:1032E00078E088E39BE00E9466398091BD098823DD
:1032F00011F061E301C060E388E39BE00E94813844
:103300008091D609882311F08DE401C081E40E94E8
:10331000403C88E39BE00E94523869EE76E088E307
:103320009BE00E9466396091C9097091CA09809139
:10333000CB099091CC090E94282E6DEE76E088E3AF
:103340009BE00E9466396091C5097091C609809121
:10335000C7099091C8090E94282E61EF76E088E3A2
:103360009BE00E9466396091C1097091C209809109
:10337000C3099091C4090E94282E65EF76E088E386
:103380009BE00E9466396091A8097091A90980911B
:10339000AA099091AB090E94282E69EF76E088E394
:1033A0009BE00E94663960919C0970919D09809113
:1033B0009E0990919F090E94282E61E077E088E3A2
:1033C0009BE00E9466396091B0097091B1098091CB
:1033D000B2099091B3090E94282E65E077E088E356
:1033E0009BE00E9466396091AC097091AD098091B3
:1033F000AE099091AF090E94282E6DEF76E088E328
:103400009BE00E9466396091A0097091A1098091AA
:10341000A2099091A3090E94282E69E077E088E331
:103420009BE00E946639609197097091980980919C
:10343000990990919A090E94282E88E39BE00E94A6
:1034400052386DE077E088E39BE00E946639409156
:10345000F20950E060E070E02AE088E39BE00E941F
:103460000A3860E288E39BE00E94813863EE7CE0EA
:1034700088E39BE00E94663960E288E39BE00E945B
:103480008138409100065091010660E070E02AE02A
:1034900088E39BE00E940A3888E39BE00E94523850
:1034A00088E39BE00E94523866E771E088E39BE086
:1034B0000E9467396FE679E088E39BE00E94553807
:1034C0006BE671E088E39BE00E94673963E879E08E
:1034D00088E39BE00E94553861E671E088E39BE059
:1034E0000E9467396BE579E088E39BE00E945538DC
:1034F00088E39BE00E94523800E010E0BE016F5F5D
:103500007F4FC801DCD5BE016F5F7F4F88E39BE032
:103510000E9455380F5F1F4F0032110579F788E37D
:103520009BE00E94523888E39BE00E945238CE0113
:1035300043960E941B2617C08091F50B9091F60BC5
:103540009093F40B8093F30B1092110C1092EF0BED
:10355000E091140CF091150C309711F40C94EE11CD
:1035600019950C94EE11E0960FB6F894DEBF0FBEDD
:10357000CDBFDF91CF911F910F91FF90EF90DF9022
:10358000CF90BF90AF909F908F907F906F905F9003
:103590004F9008950895CF93DF93CDB7DEB7EC97A2
:1035A0000FB6F894DEBF0FBECDBF67E278E0CE0164
:1035B00001960E944F266BE378E0CE0101960E94AF
:1035C000A6256BE478E0CE0101960E94A625BE01F7
:1035D0006F5F7F4F8BE99AE00E946538A89560ED98
:1035E00077E080E090E00E949E24A89580E598E036
:1035F0000E94A13C81111CC140919C0950919D09E0
:1036000060919E0970919F0922E0CE01C7960E94A9
:1036100020264091970950919809609199097091DD
:103620009A0922E0CE01C1960E9420264091A0096D
:103630005091A1096091A2097091A30922E0CE01E5
:103640008B960E9420264091AC095091AD09609163
:10365000AE097091AF0922E0CE0185960E94202626
:103660004091B0095091B1096091B2097091B309CC
:1036700022E0CE014F960E9420264091C109509130
:10368000C2096091C3097091C40922E0CE01499634
:103690000E9420264091C5095091C6096091C70932
:1036A0007091C80922E0CE0143960E9420264091E5
:1036B000C9095091CA096091CB097091CC0922E0E7
:1036C000CE010D960E94202618861F821A86198622
:1036D0001C861B8661EE7BE0CE0107960E940626C3
:1036E0006BE579E0CE0107960E947E2566E578E0DD
:1036F0000E947E25BE01635F7F4F0E9495256FE586
:1037000078E00E947E25BE016D5E7F4F0E94952568
:1037100068E678E00E947E25BE01675E7F4F0E94CA
:10372000952561E778E00E947E25BE01615E7F4FAE
:103730000E9495256AE778E00E947E25BE016B5DB8
:103740007F4F0E94952563E878E00E947E25BE01A8
:10375000655D7F4F0E9495256CE878E00E947E258C
:10376000BE016F5C7F4F0E94952565E978E00E945D
:103770007E25BE01695C7F4F0E9495256EE978E049
:103780000E947E25BC01CE0101960E940626CE0134
:1037900007960E941B26CE010D960E941B26CE0185
:1037A00043960E941B26CE0149960E941B26CE01FD
:1037B0004F960E941B26CE0185960E941B26CE01A5
:1037C0008B960E941B26CE01C1960E941B26CE011D
:1037D000C7960E941B2661EA78E08BE99AE00E9476
:1037E00066394D815E8160E070E02AE08BE99AE005
:1037F0000E940A388BE99AE00E9452388DEA98E0DC
:103800000E94A13C882349F04D815E8169817A81C3
:103810008BE99AE00E94533406C06FEA78E08BE9A6
:103820009AE00E9455388BE796E00E94A13CA8954B
:10383000CE0101960E941B26EC960FB6F894DEBFCF
:103840000FBECDBFDF91CF9108951F93CF93DF932C
:1038500000D000D0CDB7DEB7A8956BEB78E08BE950
:103860009AE00E94553860ED77E080E090E00E9499
:103870009E24A89567EC78E0CE0101960E944F2621
:103880006FE679E0CE0101960E94A62567E378E015
:10389000CE0101960E94A62563E879E0CE0101964B
:1038A0000E94A62569E378E0CE0101960E94A62534
:1038B000BE016F5F7F4F8BE99AE00E946538A89543
:1038C00068E873E180E090E00E949E24A8958BE771
:1038D00096E00E94A13C182FCE0101960E941B2663
:1038E000812F26960FB6F894DEBF0FBECDBFDF91B5
:1038F000CF911F910895662321F081E0623009F095
:1039000080E008954F925F926F927F928F929F9284
:10391000AF92BF92CF92DF92EF92FF921092D909AD
:1039200086E090E09093530A8093520A1092510AD5
:103930001092500A86E190E090934F0A80934E0ACD
:1039400010924D0A10924C0A41E069ED79E084E052
:1039500090E00E94CC3E62E57AE088E090E00E9430
:10396000034660E57AE08CE090E00E9403466EE456
:103970007AE080E190E00E9403466CE47AE084E122
:1039800090E00E9403461092D809C12CD12C80E708
:10399000E82E81E4F82EC092480AD092490AE092BB
:1039A0004A0AF0924B0A80E090E0A0E8B1E48093EC
:1039B000440A9093450AA093460AB093470A412CC3
:1039C000512C90E2692E91E4792E4092400A509257
:1039D000410A6092420A7092430A80E090E0A0E3BC
:1039E000B1E480933C0A90933D0AA0933E0AB093C1
:1039F0003F0A41E068ED79E088E190E00E94CC3E2A
:103A000068E47AE08CE190E00E94014664E47AE0A8
:103A100080E290E00E94014660E47AE084E890E071
:103A20000E9401466CE37AE088E890E00E9401463B
:103A30001092D70980E090E0A0EAB1E48093380AC0
:103A40009093390AA0933A0AB0933B0A80E090E041
:103A5000A8E9B1E48093340A9093350AA093360A1A
:103A6000B093370AC092300AD092310AE092320AFB
:103A7000F092330A812C912C20E6A22E21E4B22E62
:103A800080922C0A90922D0AA0922E0AB0922F0AB0
:103A900041E067ED79E084E290E00E94CC3E68E38B
:103AA0007AE088E290E00E94014664E37AE08CE2EA
:103AB00090E00E94014660E37AE08CE890E00E948A
:103AC00001466CE27AE080E990E00E9401461092A3
:103AD000D60910922B0A10922A0A8EE190E0909358
:103AE000290A8093280A1092270A1092260A909396
:103AF000250A8093240A41E066ED79E080E390E0B6
:103B00000E94CC3E6AE27AE084E390E00E940346A1
:103B100068E27AE088E390E00E94034666E27AE099
:103B20008CE390E00E94034664E27AE080E490E057
:103B30000E94034680E090E0A8EAB1E48093100A76
:103B40009093110AA093120AB093130A80E090E0B8
:103B5000A8E9B1E480930C0A90930D0AA0930E0A91
:103B6000B0930F0A80E090E0A0E2B2E48093080AEC
:103B70009093090AA0930A0AB0930B0A80E090E0A0
:103B8000A0E7B2E48093040A9093050AA093060A82
:103B9000B093070AC092200AD092210AE092220A2A
:103BA000F092230A40921C0A50921D0A60921E0A4B
:103BB00070921F0A60E17AE084E490E00E9401467E
:103BC0006CE07AE088E490E00E94014668E07AE0E8
:103BD0008CE490E00E94014664E07AE080E590E0A9
:103BE0000E94014660E27AE084E990E00E9401468A
:103BF0006CE17AE088E990E00E9401468FE892E06B
:103C00009093F1098093F00980E192E09093EB09A1
:103C10008093EA098CEE91E5A0E8B0E48093EC098A
:103C20009093ED09A093EE09B093EF0980E090E046
:103C3000A0EEB0E48093E6099093E709A093E80929
:103C4000B093E9091092000A1092010A1092020A38
:103C50001092030A8092FC099092FD09A092FE093D
:103C6000B092FF0960E07AE088E590E00E940146AA
:103C70006CEF79E084E590E00E94014642E060EF5D
:103C800079E08CE590E00E94CC3E42E06AEE79E07B
:103C900080E690E00E94CC3E6CEE79E084E690E015
:103CA0000E94014666EE79E088E690E00E940146B7
:103CB00082EF90E09093E5098093E4098DE790E02E
:103CC0009093DF098093DE0981E895E9A3EABFE3D9
:103CD0008093E0099093E109A093E209B093E3098E
:103CE0008AE69CEBA0E9B0E48093DA099093DB09C3
:103CF000A093DC09B093DD091092F8091092F9093C
:103D00001092FA091092FB0980E090E0AAE7B4E46F
:103D10008093F4099093F509A093F609B093F709FD
:103D200068EF79E080E790E00E94014664EF79E077
:103D30008CE690E00E94014642E064EE79E084E780
:103D400090E00E94CC3E42E06EED79E088E790E0A2
:103D50000E94CC3E60EE79E08CE790E00E94014644
:103D60006AED79E080E890E00E9401461092140A22
:103D70001092150A1092160A1092170A80E090E02D
:103D8000A8ECB2E48093180A9093190AA0931A0A37
:103D9000B0931B0A68E17AE08CE990E00E9401464A
:103DA00064E17AE080EA90E00E94014680E090E0E1
:103DB000A8E4B3EC8093460990934709A09348097F
:103DC000B093490910924209109243091092440994
:103DD0001092450962E479E084EA90E00E9401468D
:103DE00066E479E088EA90E00E9401461092F309C7
:103DF00041E063EF79E084EC90E0FF90EF90DF909A
:103E0000CF90BF90AF909F908F907F906F905F907A
:103E10004F900C94CC3ECF93DF9341E069ED79E075
:103E200084E090E00E94A53E62E57AE088E090E0C0
:103E30000E94054660E57AE08CE090E00E9405462D
:103E40006EE47AE080E190E00E9405466CE47AE05E
:103E500084E190E00E94054641E068ED79E088E168
:103E600090E00E94A53E68E47AE08CE190E00E9438
:103E7000FD2864E47AE080E290E00E94FD2860E49E
:103E80007AE084E890E00E94FD286CE37AE088E81C
:103E900090E00E94FD2841E067ED79E084E290E047
:103EA0000E94A53E68E37AE088E290E00E94FD2847
:103EB00064E37AE08CE290E00E94FD2860E37AE01F
:103EC0008CE890E00E94FD286CE27AE080E990E0C6
:103ED0000E94FD2841E066ED79E080E390E00E94D9
:103EE000A53E6AE27AE084E390E00E94054668E23B
:103EF0007AE088E390E00E94054666E27AE08CE38F
:103F000090E00E94054664E27AE080E490E00E943E
:103F1000054660E17AE084E490E00E94FD286CE0D0
:103F20007AE088E490E00E94FD2868E07AE08CE482
:103F300090E00E94FD2864E07AE080E590E00E9435
:103F4000FD2860E27AE084E990E00E94FD286CE1BF
:103F50007AE088E990E00E94FD2860E07AE088E558
:103F600090E00E94FD286CEF79E084E590E00E94EB
:103F7000FD2842E060EF79E08CE590E00E94A53EEC
:103F800042E06AEE79E080E690E00E94A53E6CEEA9
:103F900079E084E690E00E94FD2866EE79E088E60C
:103FA00090E00E94FD2868EF79E080E790E00E94B1
:103FB000FD2864EF79E08CE690E00E94FD2842E065
:103FC00064EE79E084E790E00E94A53E42E06EED69
:103FD00079E088E790E00E94A53E60EE79E08CE70A
:103FE00090E00E94FD286AED79E080E890E00E9470
:103FF000FD2841E062EF79E08CED90E00E94A53E63
:1040000060E076E088ED90E00E94054641E063EFD5
:1040100079E084EC90E00E94A53E68E17AE08CE9CA
:1040200090E00E94FD2864E17AE080EA90E00E943E
:10403000FD2862E479E084EA90E00E94FD2866E4CD
:1040400079E088EA90E00E94FD28C8ECD0E0BE014B
:10405000655E734F41E0CE010E94A53E2196C83DAA
:10406000D105A9F7C0E2D3E0BE01615B794F41E021
:10407000CE010E94A53E2196C03383E0D807A1F768
:10408000C4E3D3E0BE01615B794F41E0CE010E9401
:10409000A53E2196C43483E0D807A1F7C8E4D3E055
:1040A000BE016D5E794F41E0CE010E94A53E219692
:1040B000C83583E0D807A1F7DF91CF910895EF923B
:1040C000FF920F931F93CF93DF931F921F92CDB751
:1040D000DEB78C017B0142E0BE016F5F7F4F80EE57
:1040E00090E00E94A53E29813A8121503109203279
:1040F00031051CF43A83298302C01A82198260E2D6
:1041000070E09B01201B310B89819A81820F931FE4
:104110000E941F4D9A83898300E010E0B701600F71
:10412000711F89819A8124E0880F991F2A95E1F7F0
:104130008C519F4F41E0800F911F0E94A53E0F5F61
:104140001F4F0031110551F7F701108A0F900F90A2
:10415000DF91CF911F910F91FF90EF900895CF9233
:10416000DF92EF92FF920F931F93CF93DF931F92F3
:104170001F92CDB7DEB78C01F62E8091E50C80330F
:10418000D9F181E3681338C08091F90C9091FA0C51
:10419000A091FB0CB091FC0C892B8A2B8B2B61F529
:1041A0008091F209823040F183E40E94403CC0904B
:1041B000F50CD090F60C65E871E089EE9DE00E9468
:1041C0006739B60189EE9DE00E94663961E871E0C9
:1041D00089EE9DE00E94673980914E0990914F09C8
:1041E000A0915009B09151098093F90C9093FA0C69
:1041F000A093FB0CB093FC0C8091DF0D68018A301A
:1042000048F4EFEFCE1ADE0A4AE0B80180E090E011
:104210000E9441518091DF0D4AE0B60190E00E947A
:1042200041518FE2F8018283B8016D5F7F4F809129
:10423000DE0D8A3040F44AE080E090E00E94415177
:10424000C8010496BC018091DE0D4AE090E00E9416
:10425000415180E2F8018583B8016A5F7F4F809108
:10426000E00D8A3040F44AE080E090E00E94415145
:10427000C8010796BC018091E00D4AE090E00E94E1
:1042800041518AE3F8018087B801675F7F4F8091D1
:10429000E10D8A3040F44AE080E090E00E94415114
:1042A000C8010A96BC018091E10D4AE090E00E94AD
:1042B000415180E2F8018387F78642E0BE016F5FDB
:1042C0007F4F80EE90E00E94A53E89819A81809781
:1042D00014F01A821982E12CF12CB8016E0D7F1DA9
:1042E00089819A8124E0880F991F2A95E1F78C51E2
:1042F0009F4F41E08E0D9F1D0E94CC3EFFEFEF1AB5
:10430000FF0A80E1E816F10441F789819A8101965C
:1043100060E270E00E941F4D9A83898342E0BE01F3
:104320006F5F7F4F80EE90E00E94CC3E89819A8142
:104330000F900F90DF91CF911F910F91FF90EF9011
:10434000DF90CF900895CF93DF93EC010E942F3A36
:104350008E859F858130910589F18230910581F1AB
:104360008430910579F1089779F18C859D858130AC
:10437000910561F18230910559F18430910551F137
:10438000089751F18A859B858130910539F18230FA
:10439000910531F18430910529F1089729F188853B
:1043A00099858130910511F18230910509F18430B0
:1043B000910501F1089701F180E01FC08AE21DC05C
:1043C00087E31BC084E319C081E317C080E315C0F5
:1043D00088E313C085E311C082E30FC083E20DC000
:1043E00089E30BC086E309C083E307C084E405C00A
:1043F00083E403C082E401C081E4DF91CF9108959A
:10440000CF92DF92EF92FF920F931F93CF93DF93A0
:10441000EC010E942F3A2E853F85888599852430AE
:10442000310509F049C04C855D854830510519F4C6
:1044300021E02093D9092A853B852830310519F4DC
:1044400062E06093D9098830910511F41092D9097E
:104450004430510519F461E06093D80924303105E6
:1044600019F462E06093D8098430910511F4109238
:10447000D8094230510519F461E06093D709223020
:10448000310519F462E06093D7098230910511F487
:104490001092D7094130510519F441E04093D609F3
:1044A0002130310519F422E02093D609019709F053
:1044B00052C01092D6094FC08E0101581F4F892B50
:1044C00051F48A859B85892B31F48C859D85892BB8
:1044D00011F4232B89F1F80180819181A281B381AC
:1044E000892B8A2B8B2B31F461D2F8016083718385
:1044F00082839383F801C080D180E280F380F4EF5F
:10450000CF0EF1E0DF1EE11CF11C50D26C157D05D1
:104510008E059F05B0F4F801C080D180E280F38061
:10452000F8ECCF0ED11CE11CF11C40D2C616D70608
:10453000E806F90630F40FC0F801108211821282E9
:104540001382CE01DF91CF911F910F91FF90EF90D9
:10455000DF90CF90F8CE80E0DF91CF911F910F9147
:10456000FF90EF90DF90CF900895FC01E45BFF4F48
:104570008081918145DF813459F0823461F0843447
:1045800069F0833271F08A3279F080E090E008952A
:1045900083E090E0089584E090E0089581E090E069
:1045A000089582E090E0089585E090E0089589EE16
:1045B0009DE00E9466396AE089EE9DE00C948138A6
:1045C000CF92DF92EF92FF921F93CF93DF93EC0194
:1045D000662351F11C85112359F18C819D81AE8197
:1045E000BF81892B8A2B8B2B29F4E0D16C837D83AF
:1045F0008E839F83CA84DB840D2C000CEE08FF0899
:104600008C819D81AE81BF81C80ED91EEA1EFB1E22
:10461000CDD1C616D706E806F90650F41C861C82D2
:104620001D821E821F8205C01C821D821E821F8267
:1046300010E0812FDF91CF911F91FF90EF90DF90DD
:10464000CF900895CF92DF92EF92FF92CF93DF93B6
:10465000EC01662361F18C8581112DC088819981DF
:10466000AA81BB81892B8A2B8B2B29F49FD168834C
:1046700079838A839B83C884D9840D2C000CEE082F
:10468000FF0888819981AA81BB81C80ED91EEA1EC4
:10469000FB1E8CD1C616D706E806F90660F481E049
:1046A0008C878D87188219821A821B8205C0188216
:1046B00019821A821B8280E0DF91CF91FF90EF90E8
:1046C000DF90CF900895CF93DF93EC01FB0124811D
:1046D0003581F9D2CE01DF91CF9108953FB7F8949B
:1046E0008091570990915809A0915909B0915A09A0
:1046F00026B5A89B05C02F3F19F00196A11DB11D3D
:104700003FBFBA2FA92F982F8827820F911DA11D77
:10471000B11DBC01CD0142E0660F771F881F991FB4
:104720004A95D1F708950E94A350CF93DF93EC01EF
:1047300088819981009711F00E94274F1982188271
:104740001D821C821B821A82DF91CF9108950F93E4
:104750001F93CF93DF93EC0188819981009729F013
:104760002A813B812617370788F48B016F5F7F4FC3
:104770000E94BF4F009761F0998388831B830A834F
:104780002C813D81232B11F4FC01108281E001C0BA
:1047900080E0DF91CF911F910F910895EF92FF92EA
:1047A0000F931F93CF93DF93EC017B018A01BA0132
:1047B000CEDF811103C0CE01B8DF07C01D830C839B
:1047C000B701888199810E94C050CE01DF91CF91BD
:1047D0001F910F91FF90EF90089590E0FC013197A9
:1047E000E231F10508F04EC08827EE58FF4F8F4F99
:1047F0000C94704D809180008F7703C08091800071
:104800008F7D80938000089580918000877FF9CF0D
:1048100084B58F7702C084B58F7D84BD0895809163
:10482000B0008F7703C08091B0008F7D8093B0007F
:104830000895809190008F7707C0809190008F7DC0
:1048400003C080919000877F8093900008958091AD
:10485000A0008F7707C08091A0008F7D03C080915A
:10486000A000877F8093A0000895809120018F771A
:1048700007C0809120018F7D03C080912001877F38
:10488000809320010895CF93DF9390E0FC01E650E0
:10489000F54F2491FC01EC54F54F8491882361F18C
:1048A00090E0880F991FFC01E255FE4FC591D4910D
:1048B000FC01E058F54FA591B491611109C09FB773
:1048C000F8948881209582238883EC912E230BC055
:1048D000623061F49FB7F8943881822F80958323EA
:1048E0008883EC912E2B2C939FBF06C08FB7F89432
:1048F000E8812E2B28838FBFDF91CF9108958633D7
:1049000008F0865390917B00282F2870977F922B78
:1049100090937B008770806480937C0080917A0004
:10492000806480937A0080917A0086FDFCCF80912C
:1049300078002091790090E0922B08958F929F92B9
:10494000AF92BF92CF92DF92EF92FF926B017C0108
:10495000C5DE4B015C01C114D104E104F104E9F0AE
:10496000BDDEDC01CB0188199909AA09BB09883E83
:104970009340A105B10578F321E0C21AD108E108FE
:10498000F10888EE880E83E0981EA11CB11CC114AA
:10499000D104E104F10421F7DECFFF90EF90DF9026
:1049A000CF90BF90AF909F908F9008952FB7F894BD
:1049B000609153097091540980915509909156095D
:1049C0002FBF08951F920F920FB60F9211242F93AD
:1049D0003F938F939F93AF93BF938091530990918F
:1049E0005409A0915509B09156093091520923E01C
:1049F000230F2D3720F40196A11DB11D05C026E817
:104A0000230F0296A11DB11D2093520980935309D3
:104A100090935409A0935509B09356098091570972
:104A200090915809A0915909B0915A090196A11D78
:104A3000B11D8093570990935809A0935909B093D9
:104A40005A09BF91AF919F918F913F912F910F90F4
:104A50000FBE0F901F901895FC01808191810097E7
:104A600011F00C94125160E070E0CB010895CF93E7
:104A7000DF93FC0124813581232B71F0FB01DC01E4
:104A8000CD91DC9160817181CE010E94D65000975A
:104A900019F08C1B9D0B02C08FEF9FEFDF91CF9120
:104AA0000895EF92FF920F931F93CF93DF93FC0132
:104AB000248135816115710511F480E018C041151C
:104AC0005105A1F07B01EC018A01020F131FB8010F
:104AD0003EDE882391F3288139818C819D81B70145
:104AE000820F931F0E94C0501D830C8381E0DF91D1
:104AF000CF911F910F91FF90EF900895CF93DF9387
:104B0000EC016115710559F0FB0101900020E9F7F6
:104B10003197AF01461B570BC4DF811102C0CE0194
:104B200004DECE01DF91CF910895CF93DF93EC01A6
:104B3000FB014481558160817181B3DF811102C025
:104B4000CE01F3DDCE01DF91CF910895611571059E
:104B500049F0FB0101900020E9F73197AF01461BB6
:104B6000570B9FCF80E00895CF93DF93EC01611541
:104B7000710551F0FB0101900020E9F73197AF0179
:104B8000461B570B0BDE01C0D0DDCE01DF91CF916C
:104B900008950F931F93CF93DF938C01EB0186173A
:104BA000970771F1FC01808191810097B1F06881D4
:104BB00079816115710579F0428153812C813D81A4
:104BC0004217530740F00E94C0508C819D81F8012C
:104BD0009583848313C00E94274F88819981F801AF
:104BE000918380838A819B81938382838C819D8141
:104BF00095838483198218821B821A821D821C82EB
:104C0000C801DF91CF911F910F910895CF93DF934A
:104C1000EC01FB018617970751F0608171816115E6
:104C2000710521F044815581B9DD01C07EDDCE01E1
:104C3000DF91CF910895FC01808191810C94274FE1
:104C4000EF92FF920F931F93CF93DF93CDB7DEB711
:104C5000A1970FB6F894DEBF0FBECDBF7C01CB018C
:104C6000BA01F70111821082138212821582148216
:104C700042E0420F8E010F5F1F4F0E94F050BC01B7
:104C8000C70172DFA1960FB6F894DEBF0FBECDBF8D
:104C9000DF91CF911F910F91FF90EF900895FC014C
:104CA000118210821382128215821482611571059D
:104CB00049F0FB0101900020E9F73197AF01461B55
:104CC000570B6CCD0895BF92CF92DF92EF92FF9277
:104CD0000F931F93CF93DF937C016B018A01E9014E
:104CE0002417350720F4812F8901C42FD82F60EABB
:104CF00078E0C701D4DFD60114968D919C91159769
:104D000008171907C8F48C179D0708F4EC01D601A1
:104D1000ED91FC911197EC0FFD1FB08010824D9129
:104D20005C91BA01600F711FC7011EDFD601ED91C2
:104D3000FC91EC0FFD1FB082C701DF91CF911F9155
:104D40000F91FF90EF90DF90CF90BF900895882350
:104D500011F06BE205C0662311F06DE201C060E264
:104D600085E39CE00C9481388091DC0D811134C086
:104D70008091CE0D811130C08091C00D81112CC069
:104D80008091B20D811128C08091A40D811124C0A1
:104D90008091960D811120C08091880D81111CC0D9
:104DA00080917A0D811118C080916C0D811114C011
:104DB00080915E0D811110C08091500D81110CC049
:104DC0008091420D811108C08091340D811104C081
:104DD0008091260D882321F08091CD09882329F028
:104DE00085E39CE00E94ED3B0BC0E091350CF09117
:104DF000360C0084F185E02D60E085E39CE0199598
:104E000060E080E00E94103D8091DB0D882331F04E
:104E10008091CD09882331F06BE20BC08091CD0DDC
:104E2000811102C060E205C08091CD098823D1F3D1
:104E30006DE285E39CE00E94813864E785E39CE0B5
:104E40000E9481386091C9097091CA098091CB098B
:104E50009091CC090E94554E675F7F4F6331710579
:104E600028F460E385E39CE00E9481384091C90901
:104E70005091CA096091CB097091CC0985E39CE0FF
:104E80000E94493D60E086E00E94103D63EE78E0BC
:104E900085E39CE00E9466396091C9097091CA0956
:104EA0008091CB099091CC090E94554E675F7F4F4E
:104EB0006331710528F460E385E39CE00E9481384A
:104EC0004091C5095091C6096091C7097091C80900
:104ED00085E39CE00E94493D60E08AE00E94103D2D
:104EE00060E285E39CE00E9481388091E00D8A3089
:104EF00028F460E385E39CE00E9481384091E00D56
:104F000050E060E070E02AE085E39CE00E940A380F
:104F10008091CD09882341F08091A30D882311F061
:104F200061E203C06AE301C060E285E39CE00E94A5
:104F300081388091E10D8A3028F460E385E39CE0BC
:104F40000E9481384091E10D50E060E070E02AE07D
:104F500085E39CE00E940A3861E080E00E94103DF9
:104F60008091BF0D882341F08091CD09882311F0F5
:104F70006BE221C060E21FC08091B10D882331F047
:104F80008091CD098823B1F36DE215C02091040A08
:104F90003091050A4091060A5091070A6091C109B3
:104FA0007091C2098091C3099091C4090E948A4EF0
:104FB000181604F76AE285E39CE00E94813869E8EC
:104FC00076E085E39CE00E9466396091D909809182
:104FD000C0090E948A4660EE76E085E39CE00E946C
:104FE00066396091D8098091BF090E948A4663EEB4
:104FF00076E085E39CE00E9466396091D709809154
:10500000BE090E948A4666EE76E085E39CE00E9437
:1050100066396091D6098091BD090C948A466AEA86
:1050200072E085E39CE00C9467391092ED0B84E00C
:1050300090E09093B7098093B6091092B509109249
:10504000B4091092B9091092BA091092BB091092D2
:10505000BC091092B80985E39CE00E94F53B6CEF17
:1050600071E085E39CE00E94673983E899E09093C2
:10507000CF098093CE0940E150E0BC0186EE98E074
:105080000C94C7501092ED0B84E090E09093B70918
:105090008093B6091092B5091092B4091092B9091B
:1050A0001092BA091092BB091092BC091092B8096B
:1050B00085E39CE00E94F53B6EEC71E085E39CE0AB
:1050C0000E9467398BE599E09093CF098093CE09D0
:1050D00040E150E0BC0186EE98E00C94C75010927D
:1050E000ED0B84E090E09093B7098093B60910929D
:1050F000B5091092B4091092B9091092BA09109228
:10510000BB091092BC091092B80985E39CE00E948B
:10511000F53B68EC71E085E39CE00E9467398FE61F
:1051200099E09093CF098093CE0940E150E0BC0113
:1051300086EE98E00C94C750CF93DF9385E39CE014
:105140000E94F53B6EEE71E085E39CE00E946739BA
:1051500061E080E00E94103D0E94251C882319F028
:1051600064EE71E002C06EED71E085E39CE00E94A8
:10517000673968EE73E080E090E0E0DB6FE679E0AD
:1051800088E39BE00E945538C0E2D3E0BE01615B3A
:10519000794F41E0CE010E94CC3E2196C03383E09E
:1051A000D807A1F763E879E088E39BE00E945538CF
:1051B000C4E3D3E0BE01615B794F41E0CE010E94C0
:1051C000CC3E2196C43483E0D807A1F76BE579E0A3
:1051D00088E39BE00E945538C8E4D3E0BE016D5ED1
:1051E000794F41E0CE010E94CC3E2196C83583E044
:1051F000D807A1F7DF91CF91089544E00C94A53E24
:105200008F929F92BF92CF92DF92EF92FF920F9375
:105210001F93CF93DF93CDB7DEB761970FB6F894A6
:10522000DEBF0FBECDBF85E39CE00E94ED3B8EE468
:105230009CE089D8182F882309F442C08091B909CD
:105240009091BA09A091BB09B091BC0940914E0957
:1052500050914F096091500970915109892B8A2B07
:105260008B2B41F44093B9095093BA096093BB0961
:105270007093BC098091B9099091BA09A091BB09BA
:10528000B091BC096C017D0128E7C20ED11CE11C64
:10529000F11C4C155D056E057F0538F02091B809AD
:1052A000211103C01093B80901C010E0885A9D4F26
:1052B000AF4FBF4F84179507A607B70758F408C02C
:1052C0001092B9091092BA091092BB091092BC0948
:1052D0001092B8098091B6099091B709039709F027
:1052E0005CC18091B4099091B509113411F4019712
:1052F00003C0123429F401969093B5098093B40940
:105300008091B4099091B50997FF02C080E090E0C8
:105310008630910514F085E090E09093B509809374
:10532000B40960E0009799F580E00E94103D60911B
:10533000CD0D8091DB0D0BDD61EA72E085E39CE031
:105340000E9467394091C9095091CA096091CB09FF
:105350007091CC0985E39CE00E94493D60DE61E0EC
:1053600080E00E94103D60914F0D80915D0DEFDC5B
:1053700068E972E085E39CE00E9467394091C509C5
:105380005091C6096091C7097091C80901C1813067
:10539000910599F580E00E94103D6091870D809104
:1053A000950DD5DC6FE872E085E39CE00E946739DB
:1053B0004091B0095091B1096091B2097091B3095F
:1053C00085E39CE00E94493D2ADE61E080E00E9486
:1053D000103D60916B0D8091790DB9DC66E872E04B
:1053E00085E39CE00E9467394091AC095091AD097A
:1053F0006091AE097091AF09CBC082309105C1F5C3
:1054000080E00E94103D6091B10D8091BF0D9FDC46
:105410006CE772E085E39CE00E9467396091C10906
:105420007091C2098091C3099091C4090E94554EA0
:10543000AB01770F660B770B85E39CE00E944F3C36
:10544000EEDD61E080E00E94103D6091A30D80E000
:105450007EDC62E772E085E39CE00E946739609140
:10546000A8097091A9098091AA099091AB095DC022
:105470008330910539F580E00E94103D68E672E0C6
:1054800085E39CE00E94673987E390E00E947E3CC0
:10549000AB01BC0185E39CE00E94493DC0DD61E0B9
:1054A00080E00E94103D6EE572E085E39CE00E9482
:1054B00067394091A4095091A5096091A60970919E
:1054C000A70966C00497E1F580E00E94103D60E204
:1054D00085E39CE00E94813864E572E085E39CE00E
:1054E0000E9467394091A0095091A1096091A209D9
:1054F0007091A30985E39CE00E94493D90DD61E045
:1055000080E00E94103D6091410D80E020DC6AE463
:1055100072E085E39CE00E94673960919C0970917C
:105520009D0980919E0990919F090E94554EAB0163
:10553000770F660B770B85E39CE00E944F3C2CC0F5
:1055400080E00E94103D80919B09882319F061E45E
:1055500072E002C068E372E085E39CE00E94673974
:105560005EDD61E080E00E94103D6091250D80913C
:10557000330DEDDB6EE272E085E39CE00E9467395B
:1055800040919709509198096091990970919A09F1
:1055900085E39CE00E94493D42DD8091B6099091EF
:1055A000B709019709F049C08091B4099091B509F4
:1055B000113411F4019703C0123429F40196909329
:1055C000B5098093B4098091B4099091B5098F31E0
:1055D000910514F08EE190E097FF02C080E090E02A
:1055E0009093B5098093B40960E080E00E94103D7B
:1055F000BE016F5F7F4F8091B4099091B5090E9401
:105600005F20BE016F5F7F4F85E39CE00E9466399B
:1056100061E080E00E94103D8091B4099091B5094D
:10562000BE016F5F7F4F01960E945F20BE016F5FDA
:105630007F4F85E39CE00E9466398091B609909186
:10564000B709029709F046C1143449F48091B409AE
:105650009091B50901969093B5098093B40960E0E3
:1056600080E00E94103D64E272E085E39CE00E94CD
:1056700067398091B4099091B50997FF02C080E025
:1056800090E08530910514F084E090E09093B509A6
:105690008093B409F090E60DB090E70DC090E50D51
:1056A000D090E40D8090E30D912C80E3881A88EF70
:1056B000980A60E08BE00E94103D8091B4099091BF
:1056C000B509892B69F4113411F4F39403C0123431
:1056D00009F4FA946EE172E085E39CE00E94673978
:1056E0008091B4099091B509019769F4113411F4CE
:1056F000B39403C0123409F4BA9468E172E085E30C
:105700009CE00E9467398091B4099091B509029795
:1057100069F4113411F4C39403C0123409F4CA9427
:1057200062E172E085E39CE00E9467398091B409F0
:105730009091B509039769F4113411F4D39403C01F
:10574000123409F4DA946CE072E085E39CE00E9484
:1057500067398091B4099091B509049789F411349F
:1057600021F42FEF821A920A05C0123419F481E055
:10577000881A910866E072E085E39CE00E94673930
:105780000F2D083108F007E12BE32B1510F43BE354
:10579000B32E8FE18C1518F42FE1C22E04C0C11076
:1057A00002C0CC24C3942CE02D1518F49CE0D92E13
:1057B00004C0D11002C0DD24D394C40120E18216BC
:1057C00027E2920610F08FE097E27C0180EDE81668
:1057D00087E0F80620F480EDE82E87E0F82EC70178
:1057E000805D97408093E30DD092E40DC092E50D6B
:1057F0000093E60DB092E70D1092E80D61E080E0B5
:105800000E94103D0A3028F460E385E39CE00E948A
:105810008138402F50E060E070E02AE085E39CE0B2
:105820000E940A386AE385E39CE00E94813829E0FF
:105830002B1528F060E385E39CE00E9481384B2D16
:1058400050E060E070E02AE085E39CE00E940A38C6
:1058500060E285E39CE00E94813889E08C1528F0A5
:1058600060E385E39CE00E9481384C2D50E060E0CD
:1058700070E02AE085E39CE00E940A386FE285E34D
:105880009CE00E94813829E02D1528F060E385E333
:105890009CE00E9481384D2D50E060E070E02AE0ED
:1058A00085E39CE00E940A386FE285E39CE00E9459
:1058B0008138A70160E070E02AE085E39CE00E9467
:1058C0000A381A3239F483EE9DE00E940F4181E0DC
:1058D0008093ED0B8091B6099091B709049709F078
:1058E0007BC060E080E00E94103D8091B4099091FF
:1058F000B509133411F4019603C0143429F4019747
:105900009093B5098093B4098091B4099091B50939
:1059100097FF02C080E090E08031910514F08FE0A5
:1059200090E09093B5098093B409FC01EA51F74FD8
:105930008081113411F48F5F03C0123409F4815057
:10594000803208F480E28F3708F08EE7808361E0D0
:1059500080E00E94103D66EE78E085E39CE00E94C6
:1059600066395DDB5CDB8091CD09882351F061E015
:105970008091B4090E94103D6FE585E39CE00E9490
:1059800081381A3249F58091B4099091B509FC012A
:10599000E951F74F108202962FEF8031910534F4D0
:1059A000FC01EA51F74F20830196F7CF1092F608D9
:1059B00066EE78E088E39BE00E945538A091CE091E
:1059C000B091CF0980E1E6EEF8E001900D928A9562
:1059D000E1F781E08093ED0B61960FB6F894DEBF9E
:1059E0000FBECDBFDF91CF911F910F91FF90EF9030
:1059F000DF90CF90BF909F908F900895E091120C10
:105A0000F091130C309709F0199408958F929F929A
:105A1000AF92BF92CF92DF92EF92FF92CF93DF933C
:105A2000A091D80C882311F03A2F01C030E080916A
:105A3000D90C90E0880F991F8656954FC090DE0CC8
:105A4000D090DF0CE090E00CF090E10C40E050E0F2
:105A5000BA01FC01C591D49128812A2323130FC0D8
:105A60004A015B012FEF821A920AA20AB20A4C1570
:105A70005D056E057F0538F4B501A401EACF342F2A
:105A8000252FCB0104C030E020E080E090E0632FC0
:105A9000722FDF91CF91FF90EF90DF90CF90BF906A
:105AA000AF909F908F9008951F93CF93DF93182FFF
:105AB000D92FC62F40E150E060E270E086E19CE023
:105AC0000E94B050E12FFD2FEC0FF11DEC0FF11DE6
:105AD000659174916F5F7F4F4FE050E086E19CE0ED
