:1000000049C6000078C6000076C6000074C600002D
:1000100072C6000070C600006EC600006CC600000C
:100020006AC600000C94D3220C94D3220C94D322E1
:1000300062C6000060C600005EC600005CC600002C
:100040005AC6000058C6000056C6000054C600003C
:1000500052C6000050C600004EC600000C94B42BDF
:100060004AC600000C94281E0C94FF1D44C60000D4
:1000700042C6000040C600003EC600003CC600006C
:100080003AC6000038C6000036C6000034C600007C
:1000900032C6000030C600002EC600000C94D729DE
:1000A0002AC6000028C6000026C6000024C600009C
:1000B00022C6000020C600001EC600001CC60000AC
:1000C0001AC6000018C6000016C6000014C60000BC
:1000D00012C6000010C600000EC600000CC60000CC
:1000E0000AC60000BA2FD02FD02FCE2FD02FB82F76
:1000F000D02FD02FD02FAC2FD02FD02FC12FCC2F3F
:10010000CA2FD02FD02FD02FC82FF812FB12EA12EF
:10011000EE12F4123213FF12031309130D1311130D
:1001200017131B131F133213251329132D133139E2
:100130003A32303A3135004465632020392032307C
:10014000313600525443204C4F535420504F5745A2
:1001500052210061742B636D6764613D2264656C9C
:1001600020616C6C220A0D0041542B434D47523DD7
:100170000041542B434D47463D310D00534D530034
:100180004154480D0A004F4B003B0D0A00415444B6
:10019000005245534554204F4B00205945415200D1
:1001A0004D4F4E54480020204441590020204D49D5
:1001B0004E0020484F55520053455420434C4F4366
:1001C0004B00204E494748542020002044415920EC
:1001D0002A202000504F5745525B255D3A00544578
:1001E0004D50325B435D3A0020454320585B2D5D06
:1001F0003A0020504820585B2D5D3A004558542065
:10020000205B255D3A004C494748545B2D5D3A0020
:1002100045435B532F4D5D3A005048205B50485D8D
:100220003A0048554D495B255D3A0054454D505BB9
:10023000435D3A000344495341424C4520524144F6
:10024000494F0000024F4E21000000000000000056
:1002500000000000014F46462100000000000000A1
:1002600000000000004155544F2100000000000034
:100270000000000064025402440234025208047474
:1002800002530804740254080474025508047402EA
:100290000500000000000000005608800002000079
:1002A0000000000000005A0878000500000000006F
:1002B0000000005C087C000200000000000000005C
:1002C00060087400050E000000000000006208686D
:1002D0000002FF0300000000000066086000050E39
:1002E000000000000000006808640002FF03000036
:1002F000000000006C085C00020F270000E803000B
:10030000000006D8000003000000000000006E0896
:10031000DC000002000000000000006F08C40005BF
:10032000000000000000000070086C0005000000E4
:10033000000000000074087000050E0000000000BE
:10034000000078085400050E000000000000007C4A
:1003500008580006660000000000000080085000F9
:1003600006660000000000000084084C00066300E0
:1003700000009DFFFFFF8808980006630000009DB5
:10038000FFFFFF8C08940005000000000000000043
:100390009008A00005000000000000000094089CE8
:1003A0000006630000009DFFFFFF980848000663F9
:1003B0000000009DFFFFFF9C0844000200000000B9
:1003C00000000000A0084000020000000000000043
:1003D00000A2083C00020000000000000000A40889
:1003E0003800020000000000000000A608340009E8
:1003F00000000000000000007C0200000663000016
:10040000009DFFFFFFA808900006630000009DFF0D
:10041000FFFFAC088C0006630000009DFFFFFFB0EB
:10042000082C0006630000009DFFFFFFB4082800B1
:1004300009000000000000000081020000066300C7
:10044000000000000000B8088800066300000000FB
:10045000000000BC088400066300000000000000EB
:10046000C0082000066300000000000000C4081C53
:100470000009000000000000000086020000023BAE
:1004800000000000000000C808140002170000006F
:1004900000000000CA081000023B0000000000003D
:1004A00000CC080C00021700000000000000CE087D
:1004B00008000900000000000000008B0204004555
:1004C0004320484947482059205B532F4D5D000188
:1004D0000090024543204849474820582020205B8F
:1004E0002D5D0001009D024543204C4F57202059AF
:1004F000205B532F4D5D000100AA024543204C4F65
:10050000572020582020205B2D5D000100B70250AD
:10051000482048494748205920205B50485D000149
:1005200000C4025048204849474820582020205BFA
:100530002D5D000100D1025048204C4F572020591A
:1005400020205B50485D000100DE025048204C4FE7
:10055000572020582020205B2D5D000100EB024732
:10056000534D20434F44452D3E0000000000000144
:1005700000F80247534D204D4F44452D3E000000EA
:100580000000000100050345585445524E414C00FF
:10059000000000000000000100120345432048490C
:1005A00047482020205B532F4D5D0001001F03456D
:1005B00043204C4F57202020205B532F4D5D0001DE
:1005C000002C0350482048494748202020205B50F9
:1005D000485D00010039035048204C4F572020202F
:1005E00020205B50485D00010046034C49474820ED
:1005F0004C4F570000000000000000010053034C66
:1006000049474820484947480000000000000001D1
:1006100000600354454D50204C4F5720204E205B26
:10062000435D0001006D0354454D50204849474843
:10063000204E205B435D0001007A0348554D492060
:100640004C4F57202020205B255D00010087034888
:10065000554D4920484947482020205B255D000131
:1006600000940354454D50204C4F57202020205BD0
:10067000435D000100A10354454D502048494748BF
:100680002020205B435D000100AE034359434C45ED
:1006900052204F464620205B535D000100BB0343C0
:1006A00059434C4552204F464620205B4D5D00018A
:1006B00000C8034359434C4552204F4E2020205B35
:1006C000535D000100D5034359434C4552204F4E22
:1006D0002020205B4D5D000100E2034359434C455F
:1006E0005220434F4E54524F4C00000100EF03463E
:1006F000414E204F4646204E20205B435D000001C6
:1007000000FC0346414E204F4E20204E20205B43EC
:100710005D00000100090446414E204F464620205E
:1007200020205B435D00000100160446414E204F2F
:100730004E20202020205B435D0000010023044662
:10074000414E20434F4E54524F4C000000000001D8
:10075000003004484541544552204F46204E205B0E
:10076000435D0001003D04484541544552204F4E31
:10077000204E205B435D0001004A0448454154453A
:1007800052204F464620205B435D0001005704483D
:100790004541544552204F4E2020205B435D0001CF
:1007A00000640448454154455220434F4E54524F33
:1007B0004C0000010071044C49474854204F464604
:1007C0002020205B4D5D0001007E044C49474854C9
:1007D000204F46462020205B485D0001008B044CE2
:1007E00049474854204F4E202020205B4D5D00019A
:1007F0000098044C49474854204F4E202020205B4D
:10080000485D000100A5044C4947485420434F4E21
:1008100054524F4C0000000100B204FB04E704D323
:1008200004BF044B05370523050F0573055F0577E6
:100830000663064F063B0627061306FF05EB05D7A2
:1008400005C305AF059B058705DB06C706B3069FF5
:10085000068B063F072B0717070307EF06A3078F33
:10086000077B07670753070708F307DF07CB07B7BF
:1008700007524553455421000000000000000000CD
:10088000000200730945432D3E00000000000000F7
:10089000000000000000041B0850482D3E0000002E
:1008A0000000000000000000000004230847534D32
:1008B0002D3E000000000000000000000000022BA0
:1008C0000853455420434C4F434B2D3E000000003D
:1008D0000002007D06414C41524D205345542D3EAF
:1008E0000000000000000D2F084359434C45522DD5
:1008F0003E00000000000000000005490846414E8F
:100900002D3E000000000000000000000000055324
:10091000084845415445522D3E00000000000000AB
:100920000000055D084C494748542D3E000000007A
:1009300000000000000005670825091109FD08E90D
:1009400008D508C108AD089908850871080000227B
:1009500000250028002B002E003100340002010089
:1009600000050108010B01000020002300260029DA
:10097000002C002F003200000100000301060109D5
:100980000105050505070508080808020202020A14
:100990000A08080404040401010101010101010322
:1009A00003030303030303040707070C0C0C0C0CDD
:1009B0000C0C0C0202020206060606060606060BD0
:1009C0000B0B0B0B0B0B0B01021020200808102047
:1009D00040102040800201020108040201010204CB
:1009E000081020408080402010080402018004028A
:1009F00001804020100804020108040201010204E1
:100A000008102040800102040810204080526F6FBF
:100A100074000000000000000000000000000A391F
:100A20000900002100240027002A002D0030003397
:100A30000001010000040107010A0100000A0B0285
:100A4000090C0D0E0807030401000000000000005F
:100A50000000000000000000000000000000000096
:100A60000000000000000012111000000000000053
:100A70000000000000000000000000000000000076
:100A8000001F1C1F1E1F1E1F1F1E1F1E1F005EBCDF
:100A9000E2613FDD83C29C7E20A3FD1F419DC321F7
:100AA0007FFCA2401E5F01E3BD3E6082DC237D9F90
:100AB000C1421CFEA0E1BF5D0380DE3C62BEE002DD
:100AC0005CDF81633D7C22C09E1D43A1FF4618FA76
:100AD000A427799BC584DA3866E5BB5907DB8567AF
:100AE00039BAE406581947A5FB7826C49A653BD95C
:100AF00087045AB8E6A7F91B45C6987A24F8A64495
:100B00001A99C7257B3A6486D85B05E7B98CD23041
:100B10006EEDB3510F4E10F2AC2F7193CD114FAD5E
:100B2000F3702ECC92D38D6F31B2EC0E50AFF11327
:100B30004DCE90722C6D33D18F0C52B0EE326C8E44
:100B4000D0530DEFB1F0AE4C1291CF2D73CA947605
:100B500028ABF517490856B4EA6937D58B5709EB26
:100B6000B536688AD495CB2977F4AA4816E9B755E3
:100B70000B88D6346A2B7597C94A14F6A8742AC80C
:100B800096154BA9F7B6E80A54D7896B3520202073
:100B900020202020200000407A10F35A00A0724E3E
:100BA00018090010A5D4E80000E87648170000E412
:100BB0000B54020000CA9A3B000000E1F50500005A
:100BC00080969800000040420F000000A0860100BF
:100BD0000000102700000000E8030000000064008F
:100BE000000000000A0000000000010000000000FA
:100BF0002C76D888DC674F0823DFC1DFAE59E1B11E
:100C0000B796E5E3E453C63AE651997696E8E6C22C
:100C10008426EB898C9B62ED407C6FFCEFBC9C9F33
:100C200040F2BAA56FA5F490055A2AF75C936B6C55
:100C3000F9676DC11BFCE0E40D47FEF520E6B50049
:100C4000D0ED902E0300943577050080841E0800B7
:100C500000204E0A000000C80C333333330F986E67
:100C600012831141EF8D2114893BE65516CFFEE624
:100C7000DB18D1844B381BF77C1D901DA4BBE424EA
:100C8000203284725E228100C9F124ECA1E53D2767
:100C9000E940DB4011241FBECFEFD1E2DEBFCDBF64
:100CA00000E00CBF17E0A0E0B2E0E0EEF6E900E003
:100CB0000BBF02C007900D92AE3EB107D9F72CE0F2
:100CC000AEEEB7E001C01D92AD38B207E1F716E015
:100CD000C9E4D6E000E006C021970109802FFE019B
:100CE0000E94D543C834D10780E00807A9F70E94C5
:100CF000432C0C945F4B84C90895CF93DF9300D0AD
:100D000000D0CDB7DEB71092CC0982E090E090938E
:100D1000FA078093F907CE0101960E94632486E0CA
:100D2000FE013196A6EABBE001900D928A95E1F7AB
:100D30001092F8071092F7071092F3071092F40739
:100D40001092F5071092F6071092F20784E19AE0EC
:100D50000E94902626960FB6F894DEBF0FBECDBF38
:100D6000DF91CF910895CF92DF92EF92FF920F9390
:100D70001F93CF93DF931F921F92CDB7DEB78C01E5
:100D8000790184E19AE04A8369830E948826698117
:100D90004A81842F0E94A3106801C601801B910B19
:100DA0008E159F056CF4F60161916F018FED860F32
:100DB0008E3508F060E284E19AE00E942225EDCFB2
:100DC0000F900F90DF91CF911F910F91FF90EF90B7
:100DD000DF90CF900895CF93C62F482F50E060E06A
:100DE00070E084E19AE00E944E10C11102C061E4FB
:100DF00005C0C33010F46DE401C068E584E19AE0F9
:100E0000CF910C94981C662321F081E0623009F0A8
:100E100080E008954F925F926F927F928F929F929F
:100E2000AF92BF92CF92DF92EF92FF92109255084D
:100E300086E090E09093CF088093CE081092CD0882
:100E40001092CC0886E190E09093CB088093CA087A
:100E50001092C9081092C80841E065E578E084E086
:100E600090E00E9473276EEC78E088E090E00E94AA
:100E7000322B6CEC78E08CE090E00E94322B6AEC34
:100E800078E080E190E00E94322B68EC78E084E129
:100E900090E00E94322B10925408C12CD12C80E794
:100EA000E82E81E4F82EC092C408D092C508E092E2
:100EB000C608F092C70880E090E0A0E8B1E4809313
:100EC000C0089093C108A093C208B093C308412CF6
:100ED000512C90E2692E91E4792E4092BC085092F8
:100EE000BD086092BE087092BF0880E090E0A0E369
:100EF000B1E48093B8089093B908A093BA08B0936E
:100F0000BB0841E064E578E088E190E00E94732747
:100F100064EC78E08CE190E00E94302B60EC78E0AB
:100F200080E290E00E94302B6CEB78E084E890E067
:100F30000E94302B68EB78E088E890E00E94302B2C
:100F40001092530880E090E0A0EAB1E48093B408E6
:100F50009093B508A093B608B093B70880E090E0EE
:100F6000A8E9B1E48093B0089093B108A093B208C7
:100F7000B093B308C092AC08D092AD08E092AE082E
:100F8000F092AF08812C912C20E6A22E21E4B22E03
:100F90008092A8089092A908A092AA08B092AB08E3
:100FA00041E063E578E084E290E00E94732764EB1F
:100FB00078E088E290E00E94302B60EB78E08CE2F1
:100FC00090E00E94302B6CEA78E08CE890E00E9480
:100FD000302B68EA78E080E990E00E94302B109294
:100FE00052081092A7081092A6088EE190E0909304
:100FF000A5088093A4081092A3081092A2089093C9
:10100000A1088093A00841E062E578E080E390E0E9
:101010000E94732766EA78E084E390E00E94322B16
:1010200064EA78E088E390E00E94322B62EA78E09C
:101030008CE390E00E94322B60EA78E080E490E05C
:101040000E94322B80E090E0A8EAB1E480938C0803
:1010500090938D08A0938E08B0938F0880E090E065
:10106000A8E9B1E48093880890938908A0938A083E
:10107000B0938B0880E090E0A0E2B2E48093840813
:1010800090938508A0938608B093870880E090E04D
:10109000A0E7B2E48093800890938108A09382082F
:1010A000B0938308C0929C08D0929D08E0929E085D
:1010B000F0929F08409298085092990860929A087E
:1010C00070929B086CE878E084E490E00E94302BFA
:1010D00068E878E088E490E00E94302B64E878E0EB
:1010E0008CE490E00E94302B60E878E080E590E0AE
:1010F0000E94302B6CE978E084E990E00E94302B6C
:1011000068E978E088E990E00E94302B8FE892E06F
:1011100090936D0880936C0880E192E0909367084B
:10112000809366088CEE91E5A0E8B0E480936808AF
:1011300090936908A0936A08B0936B0880E090E0F0
:10114000A0EEB0E48093620890936308A0936408D3
:10115000B093650810927C0810927D0810927E086A
:1011600010927F088092780890927908A0927A086D
:10117000B0927B086CE778E088E590E00E94302B25
:1011800068E778E084E590E00E94302B42E06CE66E
:1011900078E08CE590E00E94732742E066E678E014
:1011A00080E690E00E94732768E678E084E690E0AD
:1011B0000E94302B62E678E088E690E00E94302BB7
:1011C00082EF90E090936108809360088DE790E053
:1011D00090935B0880935A0881E895E9A3EABFE3FE
:1011E00080935C0890935D08A0935E08B0935F08BD
:1011F0008AE69CEBA0E9B0E48093560890935708E8
:10120000A0935808B093590810927408109275086A
:10121000109276081092770880E090E0AAE7B4E494
:101220008093700890937108A0937208B09373082C
:1012300064E778E080E790E00E94302B60E778E098
:101240008CE690E00E94302B42E060E678E084E794
:1012500090E00E94732742E06AE578E088E790E03A
:101260000E9473276CE578E08CE790E00E94302BB9
:1012700066E578E080E890E00E94302B10929008BC
:1012800010929108109292081092930880E090E0DA
:10129000A8ECB2E48093940890939508A0939608E4
:1012A000B093970864E978E08CE990E00E94302BD5
:1012B00060E978E080EA90E00E94302B10926F089D
:1012C00041E06FE678E084EC90E0FF90EF90DF90F3
:1012D000CF90BF90AF909F908F907F906F905F90D6
:1012E0004F900C94732796DD84E19AE00E9490263B
:1012F00060E080E028D761E971E084E19AE00E9433
:101300009F1C68EE73E080E090E00C94702BEF92ED
:10131000FF920F931F93CF93DF931F921F92CDB72E
:10132000DEB78C017B0142E0BE016F5F7F4F80EE34
:1013300090E00E944C2729813A81215031092830C0
:1013400031051CF43A83298302C01A82198268E0AD
:1013500070E09B01201B310B89819A81820F931FC2
:101360000E9484439A83898300E010E0B701600FF4
:10137000711F89819A8124E0880F991F2A95E1F7CE
:101380008C519F4F41E0800F911F0E944C270F5FAF
:101390001F4F0031110551F7F701108A0F900F9080
:1013A000DF91CF911F910F91FF90EF900895CF9211
:1013B000DF92EF92FF920F931F93CF93DF931F92D1
:1013C0001F92CDB7DEB78C01F62E8091C40A803310
:1013D00009F43EC081E368133BC08091D80A909124
:1013E000D90AA091DA0AB091DB0A892B8A2B8B2BC0
:1013F00079F580916E08823058F163E48DE199E0CF
:101400000E94981C45D6C090D40AD090D50A6DE8A9
:1014100071E08CEA9BE00E949F1CB6018CEA9BE085
:101420000E94FE1D69E871E08CEA9BE00E949F1C0F
:101430008091210890912208A0912308B09124085E
:101440008093D80A9093D90AA093DA0AB093DB0A62
:101450008091A20B68018A3048F4EFEFCE1ADE0AC1
:101460004AE0B80180E090E00E9469478091A20BB9
:101470004AE0B60190E00E9469478FE2F80182835A
:10148000B8016D5F7F4F8091A10B8A3040F44AE034
:1014900080E090E00E946947C8010496BC018091F9
:1014A000A10B4AE090E00E94694780E2F801858341
:1014B000B8016A5F7F4F8091A30B8A3040F44AE005
:1014C00080E090E00E946947C8010796BC018091C6
:1014D000A30B4AE090E00E9469478AE3F801808705
:1014E000B801675F7F4F8091A40B8A3040F44AE0D7
:1014F00080E090E00E946947C8010A96BC01809193
:10150000A40B4AE090E00E94694780E2F8018387DB
:10151000F78642E0BE016F5F7F4F80EE90E00E9451
:101520004C2789819A81089714F01A821982E12C3C
:10153000F12CB8016E0D7F1D89819A8124E0880FFE
:10154000991F2A95E1F78C519F4F41E08E0D9F1D09
:101550000E947327FFEFEF1AFF0A80E1E816F104FB
:1015600041F789819A81019668E070E00E94844386
:101570009A83898342E0BE016F5F7F4F80EE90E0E7
:101580000E94732789819A810F900F90DF91CF91EC
:101590001F910F91FF90EF90DF90CF900895CF9320
:1015A000DF93EC010E945E1E8E859F858130910540
:1015B00089F18230910581F18430910579F10897A4
:1015C00079F18C859D858130910561F1823091059D
:1015D00059F18430910551F1089751F18A859B8525
:1015E0008130910539F18230910531F184309105D6
:1015F00029F1089729F1888599858130910511F1A4
:101600008230910509F18430910501F1089701F1CB
:1016100080E01FC08AE21DC087E31BC084E319C0BD
:1016200081E317C080E315C088E313C085E311C0D0
:1016300082E30FC083E20DC089E30BC086E309C0DB
:1016400083E307C084E405C083E403C082E401C0EF
:1016500081E4DF91CF9108958F929F92BF92CF92B4
:10166000DF92EF92FF920F931F93CF93DF93CDB74B
:10167000DEB761970FB6F894DEBF0FBECDBF84E131
:101680009AE00E9488268DE29AE089DF182F88234D
:1016900009F442C08091F3079091F407A091F507F7
:1016A000B091F607409121085091220860912308DB
:1016B00070912408892B8A2B8B2B41F44093F307DC
:1016C0005093F4076093F5077093F6078091F30742
:1016D0009091F407A091F507B091F6076C017D0198
:1016E00028E7C20ED11CE11CF11C4C155D056E05EE
:1016F0007F0538F02091F207211103C01093F20703
:1017000001C010E0885A9D4FAF4FBF4F8417950717
:10171000A607B70758F408C01092F3071092F40711
:101720001092F5071092F6071092F2078091F907D0
:101730009091FA07039709F058C18091F7079091AB
:10174000F807113411F4019703C0123429F40196FB
:101750009093F8078093F7078091F7079091F80727
:1017600097FF02C080E090E08630910514F085E09C
:1017700090E09093F8078093F70760E0009799F561
:1017800080E0E1D46091900B80919E0B0E943E2BF3
:101790006BE272E084E19AE00E949F1C409119087C
:1017A00050911A0860911B0870911C0884E19AE01E
:1017B00004D50E94382B61E080E0C5D46091120B03
:1017C0008091200B0E943E2B62E272E084E19AE05D
:1017D0000E949F1C409115085091160860911708AF
:1017E00070911808AAC08130910599F580E0ABD4BA
:1017F00060914A0B8091580B0E943E2B69E172E088
:1018000084E19AE00E949F1C4091050850910608CF
:10181000609107087091080884E19AE0CED40E9494
:10182000382B61E080E08FD460912E0B80913C0BCF
:101830000E943E2B60E172E084E19AE00E949F1CCE
:1018400040910108509102086091030870910408CA
:1018500074C082309105C1F580E075D46091740B3D
:101860008091820B0E943E2B66E072E084E19AE058
:101870000E949F1C609111087091120880911308BA
:10188000909114080E94AA44AB01770F660B770B66
:1018900084E19AE003D40E94382B61E080E053D4C5
:1018A0006091660B80E00E943E2B6CEF71E084E15A
:1018B0009AE00E949F1C60910D0870910E08809123
:1018C0000F08909110086FC08330910509F039C05E
:1018D00080E039D462EF71E084E19AE00E949F1CBD
:1018E00087E390E00DD4AB01BC0184E19AE065D4BC
:1018F0000E94382B61E080E026D468EE71E084E13C
:101900009AE00E949F1C80E0CFD46B017C0181E0B3
:10191000CBD4DC01CB018C0D9D1DAE1DBF1DB6953A
:10192000A79597958795BC01CD016E5F7F4F8F4F2F
:101930009F4F0E94344AAB01BC0184E19AE03DD440
:1019400052C00497D1F580E0FED360E284E19AE0D2
:101950000E94981C6EED71E084E19AE00E949F1C49
:1019600040911D0850911E0860911F087091200839
:1019700084E19AE022D40E94382B61E080E0E3D336
:101980006091040B80E00E943E2B64ED71E084E1E5
:101990009AE00E949F1C6091090870910A0880914A
:1019A0000B0890910C080E94AA44AB01770F660BBC
:1019B000770B84E19AE072D316C080E0C4D38091A3
:1019C0000008882319F06BEC71E002C062EC71E052
:1019D00084E19AE00E949F1C0E94382B61E080E025
:1019E000B2D30E94382B0E94382B8091F907909136
:1019F000FA07019709F045C08091F7079091F80721
:101A0000113411F4019703C0123429F40196909314
:101A1000F8078093F7078091F7079091F8078730D0
:101A2000910514F086E090E097FF02C080E090E01E
:101A30009093F8078093F70760E080E084D3BE01BD
:101A40006F5F7F4F8091F7079091F80760DCBE01D0
:101A50006F5F7F4F84E19AE00E94FE1D61E080E0AD
:101A600072D38091F7079091F807BE016F5F7F4FA7
:101A700001964DDCBE016F5F7F4F84E19AE00E94CA
:101A8000FE1D8091F9079091FA07029709F043C172
:101A9000143449F48091F7079091F80701969093D8
:101AA000F8078093F70760E080E04DD368EB71E0C2
:101AB00084E19AE00E949F1C8091F7079091F807BB
:101AC00097FF02C080E090E08530910514F084E03B
:101AD00090E09093F8078093F707F090A90BB090EF
:101AE000AA0BC090A80BD090A70B8090A60B912CAE
:101AF00080E3881A88EF980A60E08BE024D3809115
:101B0000F7079091F807892B69F4113411F4F394D5
:101B100003C0123409F4FA9462EB71E084E19AE0B4
:101B20000E949F1C8091F7079091F807019769F434
:101B3000113411F4B39403C0123409F4BA946CEA6A
:101B400071E084E19AE00E949F1C8091F7079091D8
:101B5000F807029769F4113411F4C39403C01234E6
:101B600009F4CA9466EA71E084E19AE00E949F1C3D
:101B70008091F7079091F807039769F4113411F4F5
:101B8000D39403C0123409F4DA9460EA71E084E17A
:101B90009AE00E949F1C8091F7079091F8070497A4
:101BA00089F4113421F42FEF821A920A05C01234FD
:101BB00019F481E0881A91086AE971E084E19AE0F9
:101BC0000E949F1C0F2D083108F007E12BE32B1515
:101BD00010F43BE3B32E8FE18C1518F42FE1C22EE5
:101BE00004C0C11002C0CC24C3942CE02D1518F4FD
:101BF0009CE0D92E04C0D11002C0DD24D394C401CE
:101C000020E1821627E2920610F08FE097E27C0135
:101C100080EDE81687E0F80620F480EDE82E87E0F6
:101C2000F82EC701805D97408093A60BD092A70B3A
:101C3000C092A80B0093A90BB092AA0B1092AB0B09
:101C400061E080E080D20A3028F460E384E19AE029
:101C50000E94981C402F50E060E070E02AE084E190
:101C60009AE00E94D81C6AE384E19AE00E94981CE2
:101C700029E02B1528F060E384E19AE00E94981C8B
:101C80004B2D50E060E070E02AE084E19AE00E9491
:101C9000D81C60E284E19AE00E94981C89E08C15CF
:101CA00028F060E384E19AE00E94981C4C2D50E0FB
:101CB00060E070E02AE084E19AE00E94D81C6FE2C4
:101CC00084E19AE00E94981C29E02D1528F060E339
:101CD00084E19AE00E94981C4D2D50E060E070E095
:101CE0002AE084E19AE00E94D81C6FE284E19AE045
:101CF0000E94981CA70160E070E02AE084E19AE06D
:101D00000E94D81C1A3239F486EA9BE00E94C42350
:101D100081E08093CC0961960FB6F894DEBF0FBEC8
:101D2000CDBFDF91CF911F910F91FF90EF90DF908A
:101D3000CF90BF909F908F900895CF92DF92EF92B7
:101D4000FF920F931F93CF93DF93EC010E945E1ECF
:101D50002E853F85888599852430310509F049C055
:101D60004C855D854830510519F421E020935508D4
:101D70002A853B852830310519F462E060935508C7
:101D80008830910511F4109255084430510519F42A
:101D900061E0609354082430310519F462E06093E7
:101DA00054088430910511F41092540842305105C2
:101DB00019F461E0609353082230310519F462E0B0
:101DC000609353088230910511F41092530841300A
:101DD000510519F441E0409352082130310519F4BE
:101DE00022E020935208019709F055C01092520842
:101DF00052C08E0101581F4F892B51F48A859B8553
:101E0000892B31F48C859D85892B11F4232BA1F12D
:101E1000F80180819181A281B381892B8A2B8B2B40
:101E200039F40E94A82BF801608371838283938325
:101E3000F801C080D180E280F380F4EFCF0EF1E0B2
:101E4000DF1EE11CF11C0E94A82B6C157D058E0580
:101E50009F05B8F4F801C080D180E280F380F8ECEF
:101E6000CF0ED11CE11CF11C0E94A82BC616D70670
:101E7000E806F90630F40FC0F801108211821282D0
:101E80001382CE01DF91CF911F910F91FF90EF90C0
:101E9000DF90CF9084CB80E0DF91CF911F910F91A5
:101EA000FF90EF90DF90CF900895FC01E45BFF4F2F
:101EB0008081918142DF813459F0823461F0843431
:101EC00069F0833271F08A3279F080E090E0089511
:101ED00083E090E0089584E090E0089581E090E050
:101EE000089582E090E0089585E090E008958CEAFE
:101EF0009BE00E94FE1D6AE08CEA9BE00C94981C1B
:101F0000CF92DF92EF92FF920F931F93FC01662313
:101F100081F18485882389F14481558166817781A7
:101F2000C0902108D0902208E0902308F090240867
:101F3000452B462B472B21F4C482D582E682F782BB
:101F400042855385052E000C660B770B04811581A5
:101F500026813781400F511F621F731F4C155D058D
:101F60006E057F0550F4148614821582168217823E
:101F700005C0148215821682178280E01F910F918E
:101F8000FF90EF90DF90CF9008950F931F93FC0187
:101F9000662391F18485811133C080819181A28172
:101FA000B3810091210810912208209123083091DB
:101FB0002408892B8A2B8B2B21F400831183228305
:101FC000338380859185092E000CAA0BBB0B4081C1
:101FD000518162817381840F951FA61FB71F8017DF
:101FE0009107A207B30760F481E084878587108298
:101FF00011821282138205C0108211821282138212
:1020000080E01F910F91089590911C099111FCCFD0
:1020100091E090931C0990931B092FEF20931A09CC
:1020200010921909260F209318099093170990917F
:102030001709880F892B8093170980911609813021
:1020400061F410921609809117098093BB0080916A
:10205000BC0083FDF8CF85EC01C085EE8093BC0009
:1020600080911C098130E1F380911909861710F4E1
:1020700060911909A6EFB8E026ED38E0F9018E2F3E
:10208000821B861718F48D918193F9CF862F0895BE
:1020900066ED77E08DE199E00C94C31CCF92DF925E
:1020A000EF92FF920F931F93CF93DF9377FF1DC0A3
:1020B0006A017B01EC016DE20E94981C8C014427AF
:1020C0005527BA014C195D096E097F092AE0CE0136
:1020D0000E94D81C800F911FDF91CF911F910F910B
:1020E000FF90EF90DF90CF9008952AE0DF91CF919D
:1020F0001F910F91FF90EF90DF90CF900C94D81C20
:10210000FF920F931F93CF93DF93F82E0AE010E016
:10211000C0E0D0E08F2D0E941319C80FD91F0150C5
:102120001109C1F7CE016AE070E00E948443072ED6
:10213000000C880B990B0E94364ADF91CF911F91BA
:102140000F91FF900895CF93DF93CDB7DEB7289717
:102150000FB6F894DEBF0FBECDBF1D8290E49E8304
:1021600024E12F8324E5288719829A8390E19B83B9
:1021700090E59C8390911B0A691710F06FEF690F2F
:1021800040911C0A262F30E0FE01E20FF31F403180
:1021900021F4943011F4918101C09581682F690F69
:1021A000606884E19AE028960FB6F894DEBF0FBE0F
:1021B000CDBFDF91CF910C94802622E00C94201D9E
:1021C000CF92DF92EF92FF920F931F93CF93DF9303
:1021D00000D000D0CDB7DEB76C017A01CE010196F8
:1021E0000E94F41BBE016F5F7F4FC6010E942F1B30
:1021F0008C01CE0101960E94EF1B17FD17C0B8019C
:102200006E5F7F4FC6010E94491B813419F4F701AC
:1022100010820EC0803321F481E0F701808309C071
:10222000813331F482E0F701808302C080E001C095
:1022300081E026960FB6F894DEBF0FBECDBFDF91CA
:10224000CF911F910F91FF90EF90DF90CF90089565
:10225000CF93DF93BC018DE199E00E949F1CEC01BC
:1022600017DF8C0F9D1FDF91CF91089581E0809340
:10227000D50888E68093D4081092D3081092D2082B
:102280006FE08AEB99E00E9415218AEB99E00E94A9
:10229000672361E088E6B8DE1092D1088093D00809
:1022A0008AEB99E00C94C9200F931F93E9ECF9E0B5
:1022B0006491E3E8F9E0E491882311F0462F01C02E
:1022C00040E0F0E0EE0FFF1FE959F64F8591949141
:1022D00000E412E42FE030E00E94FE2B611571054E
:1022E0008105910549F0DC01CB010196A11DB11DCD
:1022F000BC01CD019F7003C060E070E0CB011F9175
:102300000F910895EF92FF920F931F93CF93DF9356
:102310007C018B01C5EEDAE08D819E810E94F32164
:10232000B7018D819E810E94502840E06EEB8D8127
:102330009E810E94B2218D819E810E946821F801B8
:1023400080838D819E810E946821F80181838D8127
:102350009E810E946821F80182838D819E810E9466
:102360006821F80183838D819E810E946821F80194
:1023700084838D819E810E946821F80185838D81EF
:102380009E810E946821F80186838D819E810E9432
:102390006821F80187838D819E810E946821F80160
:1023A00080878D819E81DF91CF911F910F91FF904A
:1023B000EF900C94F321CF93DF93CDB7DEB729973D
:1023C0000FB6F894DEBF0FBECDBFFC0120812031D7
:1023D00019F1BE016F5F7F4F95DF68E0CE01019676
:1023E0000E94B3279985891315C08D818F3359F0C9
:1023F00018F48F3189F009C08F3519F08F3741F00B
:1024000004C08BE00AC08AE008C0807F803F11F4DE
:102410008CE003C080E001C089E029960FB6F894F3
:10242000DEBF0FBECDBFDF91CF910895CF93DF9375
:10243000AB01BC0122E08DE199E00E94201DEC017E
:1024400027DE8C0F9D1FDF91CF910895E091F10958
:10245000F091F209309709F019940895CF92DF9224
:10246000EF92FF920F931F93CF93DF93FC0171962E
:10247000C491C1503196C590D490E62EF12CF7014D
:10248000EE0FFF1FEC0DFD1D859194919093D109E6
:102490008093D00900E010E0D0E040E150E060E23D
:1024A00070E085EF99E00E94014721E030E040E0D4
:1024B00050E00115110529F460E070E089ED97E026
:1024C00004C061E070E08BED97E0C0DFF801EE0D35
:1024D000FF1DCE17DF0764F0EE0FFF1FEC0DFD1D93
:1024E0006591749140E150E085EF99E00E9460476A
:1024F00020E130E041E050E0B80185EF99E0A6DF4F
:102500000130110519F001E010E0C7CFDF91CF9144
:102510001F910F91FF90EF90DF90CF9008958F92D1
:102520009F92AF92BF92CF92DF92EF92FF92CF93A2
:10253000DF93A091B70A882311F03A2F01C030E051
:102540008091B80A90E0880F991F8959964FC090E2
:10255000BD0AD090BE0AE090BF0AF090C00A40E0E9
:1025600050E0BA01FC01C591D49128812A2323139C
:102570000FC04A015B012FEF821A920AA20AB20A27
:102580004C155D056E057F0538F4B501A401EACF51
:10259000342F252FCB0104C030E020E080E090E014
:1025A000632F722FDF91CF91FF90EF90DF90CF904C
:1025B000BF90AF909F908F90089590E0FC0131976D
:1025C000E231F10508F04EC08827EB57FF4F8F4FDF
:1025D0000C94D543809180008F7703C08091800058
:1025E0008F7D80938000089580918000877FF9CF50
:1025F00084B58F7702C084B58F7D84BD08958091A6
:10260000B0008F7703C08091B0008F7D8093B000C1
:102610000895809190008F7707C0809190008F7D02
:1026200003C080919000877F8093900008958091EF
:10263000A0008F7707C08091A0008F7D03C080919C
:10264000A000877F8093A0000895809120018F775C
:1026500007C0809120018F7D03C080912001877F7A
:102660008093200108950F931F93CF938C01C62F61
:1026700040E150E060E270E085EF99E00E940147A0
:10268000C730D9F1C830D9F1C11107C0F801808134
:102690004AE065EF79E090E013C0C13049F44AE0C8
:1026A00065EF79E0F801808191810E94694735C02A
:1026B000C23049F44AE065EF79E0F8018081918108
:1026C0000E94A2472AC0C33059F4F8016081718189
:1026D000828193812AE045EF59E00E9473471DC033
:1026E000C43079F4F80160817181828193812AE09C
:1026F00045EF59E00E94814710C022E003C023E06B
:1027000001C021E042E0420FF801608171818281C5
:10271000938105EF19E00E94414720E130E040E05D
:1027200050E061E070E085EF99E0CF911F910F914B
:102730008DCE40E150E060E270E085EF99E00E94CC
:1027400001478091070A813039F48FE49EE6909327
:10275000F6098093F50909C08FE496E6A6E6809312
:10276000F5099093F609A093F70920E130E040E0E5
:1027700050E061E070E085EF99E068CE1F93CF9361
:10278000DF93182FD92FC62F40E150E060E270E0B0
:1027900085EF99E00E940147E12FFD2FEC0FF11D1D
:1027A000EC0FF11D659174916F5F7F4F4FE050E02A
:1027B00085EF99E00E94604720E130E040E050E082
:1027C00061E070E085EF99E0DF91CF911F913ECEFF
:1027D0000F931F93CF93DF93EC01FC01709614913C
:1027E000113009F094C01093CD0940E150E0BC01D4
:1027F00085EF99E00E94604720E130E040E050E042
:1028000060E070E085EF99E021DEFE01729685912F
:102810009491FC0164913996A591B491611104C021
:102820008C918093070A6DC08FEF860F823040F441
:102830008D919C91119790930D0A80930C0A61C021
:102840008DEF860F823070F40D911D912D913C918A
:1028500013970093080A1093090A20930A0A3093E9
:102860000B0A4FC0693029F5FD013396C591D4910B
:10287000FD0185919491FC018081FD013296A49126
:102880009E0160E090E09A1761F0F9014591549142
:10289000FA014491481301C0692F9F5F2E5F3F4F9B
:1028A000F2CF6093070ACE01DF91CF911F910F9174
:1028B00065CF6A30C9F4FD013196C591D491FD010F
:1028C000A491888190E002C095958795AA95E2F73A
:1028D00080FF03C01093070A02C01092070ADF911D
:1028E000CF911F910F9125CF0D911D912D913C916D
:1028F000139700930E0A10930F0A2093100A309337
:10290000110ACD01DF91CF911F910F91ACCE111122
:1029100034C061112EC02091D2093091D3098217A1
:10292000930739F18091D6099091D709892B79F0D5
:102930008091D8099091D909892B61F08091DA09A9
:102940009091DB09892B79F482E090E005C080E06A
:1029500090E002C081E090E0880F991FFC01EA52EC
:10296000F64F31832083D093D309C093D2091092BC
:10297000F0096091F009CE0114C01230D1F46296D2
:10298000FE0185919491009711F0FC0119958091B9
:10299000CC09882359F06091F0098091D209909177
:1029A000D309DF91CF911F910F9158CD81E0809392
:1029B000CF09DF91CF911F910F9108952F923F92F0
:1029C0004F925F926F927F928F929F92AF92BF923F
:1029D000CF92DF92EF92FF921F93CF93DF93CDB709
:1029E000DEB764970FB6F894DEBF0FBECDBF429638
:1029F000FC0185919491FC011491359685909590F8
:102A0000A590B490FC0131964590559065907490D6
:102A1000643009F425C22FEF260F223008F04EC192
:102A200041E0613009F440E0193021F5FC013996AC
:102A300025913491F90132969491319625913491F2
:102A4000EFEFE90F9091070A442339F0911103C089
:102A5000E093070A0AC0915006C09E1303C010926B
:102A6000070A03C09F5F9093070A6091070AC90194
:102A700085DEFEC11A3051F481E09091070A913051
:102A800009F480E08093070A54DEF2C1442319F070
:102A90002FEF3FEF02C021E030E06201730180912F
:102AA000050A9091060A289F1001299F300C389F33
:102AB000300C11249101032C000C440B550BCA015E
:102AC000B901298B3A8B4B8B5C8B0E94364A298942
:102AD0003A894B895C89163029F420E030E040E2E5
:102AE00051E406C0173039F420E030E048EC52E4FD
:102AF0000E9442449DC0183029F420E030E04AE7AB
:102B000054E4F6CF111126C08091070A820D81147A
:102B10009104A104B10441F4C114D104E104F1040D
:102B200019F48093070A13C090E0A0E0B0E0C81643
:102B3000D906EA06FB064CF02C013D0188159905E3
:102B4000AA05BB0514F4240135014092070A87E069
:102B50009AE0B1C0113011F0123071F580910C0A79
:102B600090910D0A820D931D81149104A104B1046A
:102B700051F4C114D104E104F10429F490930D0A35
:102B800080930C0A16C0092E000CAA0BBB0BC816AA
:102B9000D906EA06FB064CF02C013D018815990583
:102BA000AA05BB0514F42401350140920C0A509289
:102BB0000D0A8CE09AE07FC0133011F01430C1F59B
:102BC0008091080A9091090AA0910A0AB0910B0A13
:102BD000820F931FA41FB51F81149104A104B10497
:102BE00071F4C114D104E104F10449F48093080A9A
:102BF0009093090AA0930A0AB0930B0A16C0C8164C
:102C0000D906EA06FB064CF06C017D018815990592
:102C1000AA05BB0514F475016401C092080AD0929C
:102C2000090AE0920A0AF0920B0A88E09AE043C08F
:102C300020910E0A30910F0A4091100A5091110A0A
:102C40000E94DE432B013C0181149104A104B104D4
:102C500041F4C114D104E104F10419F4CB01D3010E
:102C600020C0C701B6010E94364A6B017C019B015E
:102C7000AC01B201C3010E94DB44181684F0C50107
:102C8000B4010E94364A6B017C019B01AC01B20188
:102C9000C3010E94304A87FD02C062017301C60170
:102CA000D70180930E0A90930F0AA093100AB09355
:102CB000110A8EE09AE0612FD6DCDAC0633009F0A9
:102CC000D7C0FC013996A591B491193099F4FD0152
:102CD0003396259134914091070AF901E40FF11DD3
:102CE000E40FF11D65917491FB016491FD01A591C3
:102CF000B4912AC01A3021F5FD0131966591749185
:102D0000FD01A4912091070AFB01B081222349F023
:102D100041E050E001C0440FAA95EAF74B2B4083F5
:102D20000AC021E030E001C0220FAA95EAF7209501
:102D30002B23FB012083FB0160810E949E2790C012
:102D4000111104C06091070A6C93F7CF1230A9F4F7
:102D500020910C0A30910D0A2D933C93388B2F87CC
:102D6000FC013B9685919491009709F479C0BE01CE
:102D7000615F7F4F0E94322B73C01130A1F420910C
:102D80000C0A30910D0A2D933C933E872D87FC0150
:102D90003B9685919491009709F462C042E0BE0190
:102DA000635F7F4F3CC01430E9F44091080A5091B2
:102DB000090A60910A0A70910B0A4D935D936D9315
:102DC0007C93139749875A876B877C87FC013B96D6
:102DD00085919491009709F443C044E0BE01675F78
:102DE0007F4F1DC01330F1F44091080A5091090A39
:102DF00060910A0A70910B0A4D935D936D937C93D9
:102E000013974D835E836F837887FC013B96859192
:102E10009491009729F144E0BE016B5F7F4F0E94BF
:102E200073271EC01530E0F040910E0A50910F0A32
:102E30006091100A7091110A4D935D936D937C938C
:102E4000139749835A836B837C83FC013B9685915E
:102E50009491009729F0BE016F5F7F4F0E94302B45
:102E60001092CD0961E08091D2099091D309B0DC34
:102E700064960FB6F894DEBF0FBECDBFDF91CF9141
:102E80001F91FF90EF90DF90CF90BF90AF909F90F9
:102E90008F907F906F905F904F903F902F9008950C
:102EA000CF93DF93282F30E0F901E55CF54F849153
:102EB000F901E953F64FD491F901EF57F64FC49158
:102EC000CC2389F0811179DBEC2FF0E0EE0FFF1FAE
:102ED000E959F64FA591B491EC91ED2381E090E092
:102EE00021F480E002C080E090E0DF91CF9108956E
:102EF0001F93CF93DF93282F30E0F901E55CF54F66
:102F00008491F901E953F64FD491F901EF57F64F47
:102F1000C491CC23C1F0162F81114FDBEC2FF0E0D0
:102F2000EE0FFF1FE35BF64FA591B4918FB7F894B6
:102F3000111105C09C91ED2FE095E92302C0EC91A1
:102F4000ED2BEC938FBFDF91CF911F910895CF931D
:102F5000DF9390E0FC01E953F64F2491FC01EF5719
:102F6000F64F8491882361F190E0880F991FFC014E
:102F7000EF5DF54FC591D491FC01E35BF64FA59150
:102F8000B491611109C09FB7F8948881209582237C
:102F90008883EC912E230BC0623061F49FB7F894C4
:102FA0003881822F809583238883EC912E2B2C935C
:102FB0009FBF06C08FB7F894E8812E2B28838FBF60
:102FC000DF91CF910895EF92FF920F931F93CF93CC
:102FD000DF93EC0161E084E0BADF00E010E061E043
:102FE00084E086DF7E01E00EF11ED7018C91B9E608
:102FF0008B9FC0011124823091053CF0880F991FEE
:10300000880F991F05970197F1F760E084E070DF62
:10301000D7011196EC91B9E6EB9FF0011124E23053
:10302000F1053CF0EE0FFF1FEE0FFF1F35973197B4
:10303000F1F70E5F1F4F0E37110589F6DF91CF9123
:103040001F910F91FF90EF900895CF92DF92EF9232
:10305000FF920F931F93CF93DF93CDB7DEB7C0548A
:10306000D1400FB6F894DEBF0FBECDBF0E94A82B93
:103070000091B90A1091BA0A2091BB0A3091BC0A9A
:103080006B017C01C01AD10AE20AF30A40EDC416B2
:1030900047E0D406E104F10418F48091C10AB3C0FA
:1030A0006093B90A7093BA0A8093BB0A9093BC0AE2
:1030B0001092B40A1092B30A1092B20A1092B10A96
:1030C0001092B00A61E08091B50A12DF6AEF70E0F9
:1030D00080E090E00E94702B61E08091B50A37DFBC
:1030E00060E08091B50A04DF64E170E080E090E088
:1030F0000E94702BF89461E08091B50AF9DE8BE9AB
:1031000090E00197F1F762E08091B50A20DF83E259
:1031100090E00197F1F780E002DA672B682B692BCA
:1031200021F41092C10A78943BC081E0F8D9672B52
:10313000682B692BB1F38E010F5F1F4F6E018FEB70
:10314000C81A8EEFD80A780180E0E9D9F7016083C8
:1031500071838283938381E0E2D9F701648375836D
:1031600086839783F8E0EF0EF11CEC14FD0461F701
:10317000789420E030E0F8014081518162817381D0
:10318000C480D580E680F780411551056105710541
:1031900029F0C114D104E104F10421F41092C10A10
:1031A00080E031C0F90183E0F595E7958A95E1F774
:1031B000E055F54F8081880F4C155D056E057F0544
:1031C00008F4816080832F5F3F4F085F1F4F2832D4
:1031D000310589F62091B40A30E04091B00A80911F
:1031E000B10A90E0840F911D4091B20A840F911DA5
:1031F0004091B30A840F911D99272817390771F65A
:1032000081E08093C10AC05CDE4F0FB6F894DEBF48
:103210000FBECDBFDF91CF911F910F91FF90EF9027
:10322000DF90CF900895863308F0865390917B000D
:10323000282F2870977F922B90937B008770806453
:1032400080937C0080917A00806480937A008091E2
:103250007A0086FDFCCF809178002091790090E083
:10326000922B08950895CF92DF92EF92FF920F93E1
:103270001F93CF93DF936C017A018B01C0E0D0E004
:10328000CE15DF0589F0D8016D918D01D601ED9144
:10329000FC910190F081E02DC6011995892B11F464
:1032A0007E0102C02196ECCFC701DF91CF911F9123
:1032B0000F91FF90EF90DF90CF900895FC01918DDA
:1032C000828D981761F0828DDF01A80FB11D5D9688
:1032D0008C91928D9F5F9F73928F90E008958FEFF6
:1032E0009FEF0895FC01918D828D981731F0828DAA
:1032F000E80FF11D858D90E008958FEF9FEF089501
:10330000FC01918D228D892F90E0805C9F4F821B64
:1033100091098F73992708958DE199E0F1DF21E0FC
:10332000892B09F420E0822F0895FC01848DDF01B0
:10333000A80FB11DA35ABF4F2C91848D90E0019628
:103340008F739927848FA689B7892C93A089B18917
:103350008C9180648C93938D848D981306C0028821
:10336000F389E02D80818F7D80830895EF92FF9215
:103370000F931F93CF93DF93EC0181E0888F9B8D98
:103380008C8D981305C0E889F989808185FD23C05B
:10339000F62E0B8D10E00F5F1F4F0F731127E02EDD
:1033A0008C8DE8120BC00FB607FCFACFE889F989BB
:1033B000808185FFF5CFCE01B8DFF2CF8B8DFE0186
:1033C000E80FF11DE35AFF4FF0820B8FEA89FB896A
:1033D0008081806207C0EE89FF896083E889F9896E
:1033E00080818064808381E090E0DF91CF911F91A4
:1033F0000F91FF90EF900895CF93DF93EC01888DAC
:103400008823C1F0EA89FB89808185FD05C0A889F0
:10341000B9898C9186FD0EC00FB607FCF5CF80816F
:1034200085FFF2CFA889B9898C9185FFEDCFCE01B8
:103430007CDFE8CFDF91CF91089580E090E0892B89
:1034400019F06ADF811125C080E090E0892B41F0FE
:1034500080E090E0892B21F00E94000081111CC0C7
:1034600080E090E0892B41F080E090E0892B21F012
:103470000E940000811113C080E090E0892BA1F030
:1034800080E090E0892B81F00E94000081110AC049
:1034900008950E940000D8CF0E940000E1CF0E9452
:1034A0000000EACF0C94000008950895DC0126E0A6
:1034B000629FA00DB11D112490965C934E935F976F
:1034C00021E091962C939197FC01E459FF4F2081C4
:1034D00031960190F081E02D222331F0309749F0B0
:1034E000611107C0DC0102C0309719F05C968C9125
:1034F000199408950E94F4460F931F93CF93DF937E
:10350000EC010E94A82B688779878A879B87E881CE
:10351000F9810680F781E02DCE01199597FF17C03C
:103520000E94A82B088519852A853B85DC01CB01E3
:10353000801B910BA20BB30B0C811D812E813F814F
:1035400080179107A207B30710F38FEF9FEFDF916A
:10355000CF911F910F9108956F927F928F929F92BA
:10356000AF92BF92CF92DF92EF92FF921F93CF93D1
:10357000DF931F92CDB7DEB73C01162FFC0186E02A
:10358000689FE00DF11D112411A2878D90A181305B
:103590009105F1F01CF4892B51F04DC0823091055A
:1035A000A9F1039709F047C040E050E033C044233D
:1035B00009F441C041E050E0C30178DF0E94A82B2C
:1035C000F301E85AFF4F608371838283938333C092
:1035D00049830E94A82BF301E85AFF4FC080D18095
:1035E000E280F3804B015C018C189D08AE08BF0897
:1035F000729680819181A0E0B0E04981881599059B
:10360000AA05BB0518F442E050E004C0411113C004
:1036100043E050E0612FC3010F90DF91CF911F91E4
:10362000FF90EF90DF90CF90BF90AF909F908F90E2
:103630007F906F903BCF0F90DF91CF911F91FF90C4
:10364000EF90DF90CF90BF90AF909F908F907F9042
:103650006F900895862F24CC862F642F49CCCF936A
:10366000DF93FC0124813581232B71F0FB01DC0108
:10367000CD91DC9160817181CE010E942747009736
:1036800019F08C1B9D0B02C08FEF9FEFDF91CF9144
:103690000895FC01248135816217730748F4808105
:1036A0009181009729F0FC01E60FF71F80810895B2
:1036B00080E008950F931F93CF93DF938C01EB016C
:1036C0008617970771F1FC01808191810097B1F015
:1036D000688179816115710579F0428153812C816E
:1036E0003D814217530740F00E9411478C819D8114
:1036F000F8019583848313C00E947845888199815D
:10370000F801918380838A819B81938382838C815A
:103710009D8195838483198218821B821A821D825F
:103720001C82C801DF91CF911F910F9108950F93D3
:103730001F93CF93DF93EC0188819981009729F043
:103740002A813B812617370788F48B016F5F7F4FF3
:103750000E941046009761F0998388831B830A8337
:103760002C813D81232B11F4FC01108281E001C0EA
:1037700080E0DF91CF911F910F910895CF93DF9358
:10378000EC0188819981009711F00E947845198297
:1037900018821D821C821B821A82DF91CF910895AC
:1037A000EF92FF920F931F93CF93DF93EC017B0176
:1037B0008A01BA01BCDF811103C0CE01DFDF07C07F
:1037C0001D830C83B701888199810E941147CE0126
:1037D000DF91CF911F910F91FF90EF900895FC0121
:1037E000808191810C947845FC01118210821382B2
:1037F0001282158214826115710549F0FB01019056
:103800000020E9F73197AF01461B570BC9CF089548
:10381000BF92CF92DF92EF92FF920F931F93CF93BD
:10382000DF937C016B01EA0189012417350720F43D
:103830008D2FE901042F182F68ED77E0C701D4DF41
:10384000D60114968D919C911597C817D90738F514
:103850008017910708F48C01D601ED91FC91119726
:10386000E00FF11FB08010824D915C91BA016C0F96
:103870007D1F6115710559F0FB0101900020E9F7EA
:103880003197AF01461B570BC7018ADF02C0C70142
:1038900075DFD601ED91FC91E00FF11FB082C701F9
:1038A000DF91CF911F910F91FF90EF90DF90CF901C
:1038B000BF900895CF92DF92EF92FF920F931F93E4
:1038C000CF93DF931F921F92CDB7DEB78C016B01B0
:1038D00068ED77E089DFC6010FDE97FD1DC08983A3
:1038E0001A82F801E480F580FFEFEF1AFF0AB701B2
:1038F000C8011DDF882379F3F8012081318184819B
:103900009581BE016F5F7F4F820F931F0E94114709
:10391000F801F582E482DFCFC8010F900F90DF91AC
:10392000CF911F910F91FF90EF90DF90CF9008956E
:10393000DC01ED91FC910190F081E02D1994EF9262
:10394000FF920F931F93CF93DF938C017B01C0E015
:10395000D0E0F701EC0FFD1F6491662361F0D80100
:10396000ED91FC910190F081E02DC8011995892B12
:1039700011F02196EECFCE01DF91CF911F910F91E3
:10398000FF90EF9008956115710579F0FB010190AA
:103990000020E9F73197AF01461B570BDC01ED9191
:1039A000FC910280F381E02D199480E090E008956D
:1039B0004F925F926F927F92EF92FF920F931F93BD
:1039C000CF93DF93CDB7DEB7A1970FB6F894DEBFE4
:1039D0000FBECDBF7C01FA01CB0119A2223008F441
:1039E0002AE08E010F5D1F4F422E512C612C712C4D
:1039F000BF01A30192010E949743F901CA0101503E
:103A000011096A3014F4605D01C0695CD8016C93DF
:103A1000232B242B252B61F7B801C701B4DFA19616
:103A20000FB6F894DEBF0FBECDBFDF91CF911F91CF
:103A30000F91FF90EF907F906F905F904F9008955F
:103A40004F925F926F927F928F929F92AF92BF92AE
:103A5000CF92DF92EF92FF92CF93DF93EC016A0156
:103A60007B01B22E9A01AB01C701B6010E94DF446F
:103A7000882319F06DED77E027C026013701E8941F
:103A800077F82FEF3FEF4FE75FE7C301B2010E94E6
:103A9000DF4481110DC02FEF3FEF4FE75FE7C30118
:103AA000B2010E94304A18161CF461EE77E00CC097
:103AB0002FEF3FEF4FE75FE4C701B6010E94DB4401
:103AC000181694F465EE77E0CE01DF91CF91FF9068
:103AD000EF90DF90CF90BF90AF909F908F907F90AE
:103AE0006F905F904F904FCF2FEF3FEF4FE75FEC1E
:103AF000C701B6010E94304A87FDE4CF20E030E0E4
:103B0000A901C701B6010E94304A87FF09C06DE2D2
:103B1000CE010EDF4C01F7FAF094F7F8F09402C0F2
:103B2000812C912CA12C60E070E080E09FE3AB142D
:103B300041F020E030E040E251E40E944244A3948E
:103B4000F6CF9B01AC01C701B6010E94DE432B01F9
:103B50003C010E94AF446B017C010E94344A9B01EE
:103B6000AC01C301B2010E94DD432B013C012AE0FC
:103B7000B701A601CE011CDF7C01E80CF91CBB20BB
:103B800031F069EE77E0CE01FEDEE80EF91EDB2CA7
:103B9000DD2021F120E030E040E251E4C301B20138
:103BA0000E94954A2B013C010E94AF444B01A12C7D
:103BB000B12C2AE0B501A401CE01FADEE80EF91E0F
:103BC000C501B4010E94344A9B01AC01C301B2019A
:103BD0000E94DD432B013C01DA94DACFC701DF916B
:103BE000CF91FF90EF90DF90CF90BF90AF909F90DC
:103BF0008F907F906F905F904F900895C4CE1F92EA
:103C00000F920FB60F9211240BB60F922F933F9382
:103C10004F935F936F937F938F939F93AF93BF93D4
:103C2000EF93FF938DE199E080DBFF91EF91BF91DE
:103C3000AF919F918F917F916F915F914F913F9144
:103C40002F910F900BBE0F900FBE0F901F901895E5
:103C50001F920F920FB60F9211240BB60F922F9353
:103C60008F939F93EF93FF93E0912D09F0912E098D
:103C70008081E0913309F091340982FD12C0908176
:103C8000809136098F5F8F7320913709821751F029
:103C9000E0913609F0E0E35EF64F958F80933609A8
:103CA00001C08081FF91EF919F918F912F910F9093
:103CB0000BBE0F900FBE0F901F9018952F923F9242
:103CC0004F925F926F927F928F929F92AF92BF922C
:103CD000CF92DF92EF92FF920F931F93CF93DF93D8
:103CE000CDB7DEB72A970FB6F894DEBF0FBECDBFB3
:103CF0009A8789870E94A82B29853A85245A3F4FA5
:103D00003A832983D9010D911D912D913C91AB01ED
:103D1000BC01401B510B620B730BE985FA85E85916
:103D2000FF4F80819181A0E0B0E010E084179507FB
:103D3000A607B70708F05EC169847A84F6E66F0EBD
:103D4000711CE984FA8422E6E20EF11CD3018C9105
:103D50001817A0F4E985FA8580819181F701A08187
:103D6000B181A10FB11DFC012081318142E06C9134
:103D700089859A85F90119951F5FE8CF10E029849C
:103D80003A84B7E62B0E311CE984FA84E4E6EE0EA1
:103D9000F11C812C912C5401839429853A852E594C
:103DA0003F4F3C832B83F1018081181708F08DC0B1
:103DB000C12ED12CA985BA858D919C91F701A08146
:103DC000B181AC0DBD1DFC012081318141E06C91C0
:103DD00089859A85F9011995A985BA858D919C9156
:103DE000F701A081B181AC0DBD1DFC0122813381A1
:103DF00040E06C9189859A85F9011995D501C40136
:103E0000012E04C0880F991FAA1FBB1F0A94D2F766
:103E1000AC019C012095309500E0F3018081A985DB
:103E2000BA85ED91FC91081770F5802F90E0AB8179
:103E3000BC816D917C912C01DB01A40DB51D04802A
:103E4000F581E02D6C9189859A852F8338874D8384
:103E50005E831995440C551C2F8138854D815E81F8
:103E6000E985FA85E40DF51D892B29F48085918576
:103E7000842B952B04C08085918582239323918781
:103E800080870F5FCACFD7018D919C91DC01AC0D6B
:103E9000BD1D0280F381E02D41E06C9189859A85FA
:103EA0001995A985BA85ED91FC91D7018D919C91C9
:103EB000DC01AC0DBD1D0190F081E02D40E06C9166
:103EC00089859A8519951F5F6ECFE984FA84FCE194
:103ED000EF0EF11C89859A85885A9F4FF7012FEFC5
:103EE0003FEF43815481452B21F41082328321839B
:103EF00015823696E817F907A1F7B12CC984DA8440
:103F000020E6C20ED11C86E0A82EF3018081B816EF
:103F100008F058C0912C09851A850B0D111D0B0D49
:103F2000111D085F1F4FD1018C91981608F048C0F1
:103F3000D8014D915C91092C02C0569547950A9481
:103F4000E2F741705527B89EC0011124890D911DDB
:103F5000D601ED91FC91E80FF91FA081E985FA8562
:103F600060E0258D368D2817390721F44170898549
:103F70009A851CC06F5F36966A3099F7452BF1F031
:103F8000F70160E070E02081211112C0A69EF001CF
:103F9000A79EF00D112429853A85E20FF31FA48F07
:103FA000968F858F10A2178E41E0C901D5DA06C021
:103FB0006F5F7F4F36966A30710529F79394B3CFC0
:103FC000B394A3CFE985FA85B19689859A85835AFA
:103FD0009F4F10E02081211111E03696E817F90774
:103FE000C9F70E94A82BA981BA816D937D938D9307
:103FF0009C931397812F2A960FB6F894DEBF0FBEBD
:10400000CDBFDF91CF911F910F91FF90EF90DF9087
:10401000CF90BF90AF909F908F907F906F905F9068
:104020004F903F902F9008952091F0073091F10725
:104030002817390771F49091EE078091EF079817D0
:1040400041F0E091EE07F0E0E750F44F808190E01E
:1040500008958FEF9FEF089508951F93CF93DF93F7
:10406000DC015C962D913C915D972115310539F469
:1040700081E090E013969C938E9312973DC05196E9
:10408000ED91FC91529750969C915097892F809575
:104090001FB75E964C915E9741FB772770F941FD03
:1040A0006095F8944081772311F0492B01C0482393
:1040B0004083E9012197F1F748E0508160FF02C099
:1040C000592B01C058235083E9012197F1F76695D8
:1040D000415099F7772321F090818923808303C091
:1040E0008081982B90831FBF5C968D919C915D97EA
:1040F0000197F1F721E030E0C901DF91CF911F91E5
:1041000008952091F0073091F1072817390769F4D5
:104110008091EF072091EE0790E0805C9F4F821B1B
:10412000910960E470E00C94844380E090E008958D
:104130002091F0073091F10728173907B9F49091D1
:10414000EE078091EF07981789F0E091EE07F0E015
:10415000E750F44F80812091EE0730E02F5F3F4F12
:104160002F7333272093EE0790E008958FEF9FEF92
:1041700008950895E091D1088091D008E81730F4AF
:10418000F0E0EA52F74F808190E008958FEF9FEFC3
:1041900008959091D1088091D008981750F4E92F94
:1041A000F0E0EA52F74F208130E09F5F9093D10812
:1041B00002C02FEF3FEFC90108958091D00890E031
:1041C0002091D108821B91090895CF92DF92EF923E
:1041D000FF920F931F93CF93DF937C01262F972F8E
:1041E0008A018091D508882391F0C62FD72F6E01C0
:1041F000C40ED51ECC15DD0571F06991D701ED9186
:10420000FC910190F081E02DC7011995F3CF642F47
:10421000822F0E94082BC801DF91CF911F910F912F
:10422000FF90EF90DF90CF900895CF93DF931F9290
:10423000CDB7DEB769832091D5082223D1F0209134
:10424000D208203240F021E030E0FC0133832283A9
:1042500080E090E015C08091D308E82FF0E0E752AD
:10426000F44F998190838F5F8093D3088093D20815
:1042700005C061E0CE0101960E94082B81E090E02C
:104280000F90DF91CF910895FC0190810180F28120
:10429000E02DF8948181892B81832281892F80955B
:1042A00028232283A7E0B0E01197F1F72181822330
:1042B0008183A3E2B0E01197F1F780817894EFEC6D
:1042C000F0E03197F1F7982381E009F480E0089558
:1042D000EF92FF920F931F93CF93DF937C0108E03F
:1042E00010E0C0E0D1E0C701CFDF8111CD2BDD0FA1
:1042F00001501109C1F78C2FDF91CF911F910F91C0
:10430000FF90EF900895FC0190810180F281E02DF3
:10431000892F809560FF12C0F894228182238283C6
:104320008181892B8183A3E2B0E01197F1F782812B
:10433000982B9283789487ED90E011C0F8942281B5
:10434000822382838181892B8183AFEFB0E0119733
:10435000F1F78281982B928378948FE090E0019717
:10436000F1F70895CF92DF92EF92FF920F931F9390
:10437000CF93DF931F92CDB7DEB76C01E62E08E036
:1043800010E0FF24F39461E08F2D8E2109F460E0AA
:10439000C6014983B8DFFF0C01501109498101159D
:1043A000110589F7411115C0F894D6011196ED91C8
:1043B000FC91129791818C9180958923818311962C
:1043C000ED91FC91129792818C9180958923828343
:1043D00078940F90DF91CF911F910F91FF90EF9004
:1043E000DF90CF900895FC0190810180F281E02D53
:1043F000F8948181292F20958223818378948DE7F9
:1044000043E050E0815021F1DA011197F1F730815A
:104410003923C1F3F8948281822382838181892B9D
:1044200081837894ABE7B7E01197F1F7F894818135
:1044300028232183A3E1B1E01197F1F7808198232C
:1044400081E009F080E07894E3E6F6E03197F1F757
:104450000895FC01908190539A3008F090E081819A
:1044600080532AE0929F800D11240895CF92DF920D
:10447000EF92FF92CF93DF93EC01CB01BA0160582A
:1044800073448D4698432CE3C22ED12CE12CF12CA1
:10449000A70196010E9497436D83CA01B901A70144
:1044A00096010E9497436C83CA01B90128E130E06C
:1044B00040E050E00E9497436B83188263E97EEFEF
:1044C0008881482F437091E009F090E0492F50E037
:1044D000FA01E359FE4F2E173F0740F0FB01E41BA2
:1044E000F50B2E0F3F1F8F5F8883EACF81E0898312
:1044F0008981E82FF0E0E058F54FE491992319F015
:10450000823009F4EF5FF0E02E173F0720F02E1BFA
:104510003F0B8F5FECCF2F5F2A83DF91CF91FF900E
:10452000EF90DF90CF9008950F931F93CF93DF9379
:104530008C01EB018885882329F068ED77E0C801BC
:1045400053D927C0198218828CEA9BE0DADD2881D2
:104550003981892B81F4203E8EE2380764F46DE0C6
:1045600070E080E090E00E94702B88819981019634
:1045700099838883E9CF2131374214F081E088871D
:104580008CEA9BE0BEDD892B21F06CEA7BE0C80160
:1045900091D9C801DF91CF911F910F9108958CEAB5
:1045A0009BE00C94DD101F920F920FB60F92112416
:1045B0000BB60F922F933F934F935F936F937F931D
:1045C0008F939F93AF93BF93EF93FF93E091F00787
:1045D000F091F107309709F451C0968DA685B78503
:1045E000858591FF04C09C91892329F447C09C9143
:1045F000892309F043C0A389B4899C91858980955A
:1046000089238C93868997890197F1F7608D718D45
:10461000A685B785558538E020E0CB010197F1F7F5
:10462000822F90E095958795282F4C91452309F08E
:104630002068315091F7868D81FD20958091EF079C
:1046400090E001968F7399273091EE07381749F063
:10465000A091EF07B0E0A750B44F2C938093EF07E1
:1046600003C0868D8160868F828D938D0197F1F7CF
:10467000A389B4899C918589892B8C93FF91EF91B3
:10468000BF91AF919F918F917F916F915F914F916A
:104690003F912F910F900BBE0F900FBE0F901F9068
:1046A0001895E091F007F091F107E817F90769F420
:1046B000A389B4899C918589809589238C931092D4
:1046C000F1071092F00781E0089580E008952091AD
:1046D000D2089091D408213208F04AC080911C0978
:1046E0008111FCCF32E030931C0931E030931B097B
:1046F0003FEF30931A091092190920931809A9ED78
:10470000BBE046EF58E0FA013E2F341B321718F495
:104710003D913193F9CF1092170920911709990F04
:10472000922B9093170990911609913061F4109291
:104730001609909117099093BB009091BC0093FDCE
:10474000F8CF95EC01C095EE9093BC0090911C09B8
:104750009230E1F390911A099F3F79F080911A0904
:10476000803241F080911A09803331F084E005C035
:1047700081E003C082E001C083E01092D308109270
:10478000D2081092D5080895FF920F931F93CF93EC
:10479000DF938C01FF24F394F092D508D8E6D093F0
:1047A000D4081092D3081092D20860E08AEB99E006
:1047B0003CDDF8012581CAE0822F6C2F0E94644302
:1047C000682F660F860F682F660F620F8AEB99E0DD
:1047D0002CDDF8012481822F6C2F0E946443682F06
:1047E000660F860F682F660F620F8AEB99E01DDD5A
:1047F000F8012381822F6C2F0E946443682F660F7B
:10480000860F682F660F620F8AEB99E00EDD60E07D
:104810008AEB99E00ADDF8012281822F6C2F0E9439
:104820006443682F660F860F682F660F620F8AEB4E
:1048300099E0FBDCF8012181822F6C2F0E946443F8
:10484000682F660F860F682F660F620F8AEB99E05C
:10485000ECDCF8012081822F6C2F0E946443682FCA
:10486000660F860F682F660F620F8AEB99E0DDDC1A
:104870008AEB99E02CDF0E943611C82FF092D50800
:10488000D093D4081092D3081092D2086FE08AEB2C
:1048900099E0CBDC6C2F6F778AEB99E0C6DC8AEB72
:1048A00099E0DF91CF911F910F91FF9010CF862F4C
:1048B000413208F040E2642F0E9404101092D108A7
:1048C0008093D0080895CF92DF92EF92FF920F93DA
:1048D0001F93CF93DF93EC0181E08093D50888E6A6
:1048E0008093D4081092D3081092D20860E08AEB2B
:1048F00099E09BDC8AEB99E0EADE47E050E068E66D
:1049000070E08AEB99E0D3DF8AEB99E042DC8F77A5
:10491000982F92959F701AEF082F919F000D1124E8
:104920008AEB99E036DC9C01332794E03595279596
:104930009A95E1F7F82E129FF00C11248AEB99E07A
:1049400028DC9C01332744E0359527954A95E1F70B
:10495000E82E129FE00C11248AEB99E01ADC8AEB16
:1049600099E017DC9C01332754E0359527955A953B
:10497000E1F7D82E129FD00C11248AEB99E009DCC4
:104980009C01332764E0359527956A95E1F7C82E99
:10499000129FC00C11248AEB99E0FBDB9C013327AA
:1049A00074E0359527957A95E1F7129F800D1124D3
:1049B0008883C982DA82EB82FC820D83CE01DF918B
:1049C000CF911F910F91FF90EF90DF90CF900895BE
:1049D0001092D1081092D0081092D3081092D208E9
:1049E00010921C0981E080931B091092160961E066
:1049F00084E10E94781761E085E10E947817E9EB75
:104A0000F0E080818E7F808380818D7F808388E449
:104A10008093B80085E48093BC00089521E001C034
:104A2000220F6A95EAF7DC011C962C931C971A96C4
:104A30005C934E931997ED91FC910084F185E02DE4
:104A400060E01994DC01ED91FC910284F385E02D86
:104A500041E0199581E090E0089508950895862F2A
:104A6000642F0C94A717CF92DF92EF92FF920F93CF
:104A70001F93CF93DF9301E010E002C0000F111FDE
:104A80006A95E2F77C012FE6E20EF11C6C01ECE77F
:104A9000CE0ED11CF601408150E03197608170E06C
:104AA000C70105DFC70175DBEC01F60180818230AB
:104AB00038F0C7016EDB20E030E0382FC22BD32B5B
:104AC000C023D12381E090E0C017D10711F080E02E
:104AD00090E0DF91CF911F910F91FF90EF90DF90C9
:104AE000CF900895CF92DF92EF92FF920F931F9392
:104AF000CF93DF938C0181E090E002C0880F991F73
:104B00006A95E2F7E801C358DF4F442329F0288172
:104B10003981822B932B06C080959095288139810D
:104B20008223932399838883C880D980F801E5582C
:104B3000FF4F808178019FE6E90EF11C91E0909390
:104B4000D5088093D4081092D3081092D208D701C8
:104B5000ED91FC910190F081E02D6C2DC70119952C
:104B6000F801E458FF4F8081823048F0D701ED9181
:104B7000FC910190F081E02D6D2DC7011995C701C1
:104B8000A6DDC882D982DF91CF911F910F91FF904E
:104B9000EF90DF90CF900895FC0123812223B9F09C
:104BA0009181909569236083828191E09093D508EB
:104BB0008093D4081092D3081092D2088AEB99E01F
:104BC00034DB8AEB99E083DD282F30E002C020E05F
:104BD00030E081E090E0232B11F080E090E0089538
:104BE000EF92FF920F931F93CF938C01FC01759668
:104BF00084E0C0E060FF02C09081C92B66958150BF
:104C000031968111F7CF413011F4F8014489F80150
:104C10008585C82BC42B7801FEE0EF0EF11CF8014E
:104C200062896C2BC701B8DFF801628960956C233B
:104C3000C701CF911F910F91FF90EF90ADCF0F93D0
:104C40001F93CF93DF93062F0F70423019F440E08B
:104C5000602F0FC0142F262FEC0130E0B90184E043
:104C6000759567958A95E1F7CE01BADF412F602FE0
:104C7000CE01DF91CF911F910F91B2CFFC018485BE
:104C80008823A1F0218532852115310519F46111A0
:104C900006C007C02130310521F4611102C08587AB
:104CA00001C015866585CF010E9676CF0895EF92E7
:104CB000FF920F931F93CF93DF937C018C01C0E091
:104CC000D0E0F80186890E945017892B51F426966E
:104CD000CC0FDD1FCC0FDD1FCE0DDF1D888199812C
:104CE00008C021960C5F1F4FC530D10551F780E0F9
:104CF00090E0DF91CF911F910F91FF90EF90089579
:104D0000DC01ED91FC910284F385E02D40E01994E3
:104D1000DC01ED91FC910084F185E02D6FEF199499
:104D200061E0EEDF8BE39FE10197F1F708950F93C8
:104D30001F93CF93DF93EC01423018F08C81886091
:104D40008C834F836887222329F0413019F48C81AA
:104D500084608C8364E670E080E090E0C1D46C8174
:104D600064FD31C0E881F9810284F385E02D42E0E1
:104D700063E0CE0119958BE496E40197F1F7E881A1
:104D8000F9810284F385E02D42E063E0CE011995BC
:104D900003E512E0C8010197F1F7E881F981028487
:104DA000F385E02D42E063E0CE011995C80101973B
:104DB000F1F7E881F9810284F385E02D42E062E0B9
:104DC000CE01199514C06062CE019ADF8BE496E49F
:104DD0000197F1F76C816062CE0192DF03E512E08A
:104DE000C8010197F1F76C816062CE0189DFC801CB
:104DF0000197F1F76C816062CE0182DF8BEE90E06B
:104E00000197F1F784E08D836CE0CE0179DFCE016C
:104E100087DF82E08E8366E0CE0172DFCE01DF9114
:104E2000CF911F910F9174CFFF920F931F93CF9348
:104E3000DF93EC01162F042FF22E8B85888B8AEBE3
:104E400099E0C6DD888991E09093D5088093D408D5
:104E50001092D3081092D2088AEB99E038DC91E0E6
:104E6000811190E0998B992321F08AEB99E091D9F7
:104E70008E878989882331F01F861C8260E0CE01ED
:104E80000E968ADE2F2D402F612FCE01DF91CF911C
:104E90001F910F91FF904BCFCF92DF92FF920F9314
:104EA0001F93CF93DF931F92CDB7DEB78C010D5FB9
:104EB0001F4FF62E6B018C2D8F19841758F4C801E3
:104EC00049830E94494BF60181936F010F5F1F4F89
:104ED0004981F1CF0F90DF91CF911F910F91FF90FA
:104EE000DF90CF900895CF92DF92FF920F931F93A0
:104EF000CF93DF931F92CDB7DEB78C010D5F1F4FAD
:104F0000F62E6B018C2D8F19841758F4F6016191E0
:104F10006F01C80149830E94514B0F5F1F4F4981A8
:104F2000F1CF60E080E090E00F90DF91CF911F9192
:104F30000F91FF90DF90CF900C94514BCF93DF9364
:104F40001F92CDB7DEB769830B96FC0185919491D2
:104F5000009729F041E0BE016F5F7F4FC4DF0F90E3
:104F6000DF91CF910895DC01E0E0615038F08D9140
:104F7000E827F0E0E357F54FE491F7CF8E2F08953F
:104F8000AF92BF92CF92DF92EF92FF920F931F9357
:104F9000CF93DF931F92CDB7DEB75C01E62ED72EFD
:104FA000FC018585811158C0C5011DDA811105C03C
:104FB000F50113861586148667C040E060EFC501D1
:104FC000D1D901E0F12CC12C11E0C5015DD9682FC8
:104FD000C501698359D96981613019F48130B9F407
:104FE00032C04F2D50E068131BC0F50183851817A0
:104FF00030F4E40FF51F8381802349F402C01817B1
:1050000031F060E0193058F4F501148708C0F5015B
:10501000EF0DF11D8381802B838361E009C0C12ED8
:10502000F501E40FF51F9381802F809589238383F9
:10503000C50169D91F5F000F11F4F39401E0F7E097
:10504000FF1508F0C2CF113438F0F501C386C11046
:1050500015C081E0858712C0F50113861586148678
:1050600080E0D5011396EE2DFD2D9501255F3F4F74
:105070009D919193A217B307D9F706C0F5018381DB
:10508000882351F381E0EDCF0F90DF91CF911F91F5
:105090000F91FF90EF90DF90CF90BF90AF90089569
:1050A000CF92DF92EF92FF920F931F93CF93DF93F4
:1050B0001F92CDB7DEB78C01F62E40E065E579830F
:1050C00051D9CF2C7981D72E760188E0E80EF11CDA
:1050D000F60161916F0140E0C80144D9CE14DF04AC
:1050E000B9F70F90DF91CF911F910F91FF90EF9043
:1050F000DF90CF90089585ED8093BC008091BC0037
:1051000084FDFCCF10921C09089580919F0B8111A2
:105110002CC08091910B811128C08091830B81114B
:1051200024C08091750B811120C08091670B811183
:105130001CC08091590B811118C080914B0B8111BB
:1051400014C080913D0B811110C080912F0B8111F3
:105150000CC08091210B811108C08091130B81112B
:1051600004C08091050B882321F08091FB078823E0
:1051700021F084E19AE0CCDD0BC0E091140AF091BB
:10518000150A0084F185E02D60E084E19AE019952C
:1051900060E080E00E94A31080919E0B882331F094
:1051A0008091FB07882331F06BE20BC08091900B5C
:1051B000811102C060E205C08091FB078823D1F312
:1051C0006DE284E19AE00E94981C64E784E19AE031
:1051D0000E94981C6091190870911A0880911B0810
:1051E00090911C080E94AA44675F7F4F633171054C
:1051F00028F460E384E19AE00E94981C4091190829
:1052000050911A0860911B0870911C0884E19AE083
:105210000E94DD1060E086E00E94A3106BEE77E054
:1052200084E19AE00E94FE1D6091190870911A08AD
:1052300080911B0890911C080E94AA44675F7F4FD1
:105240006331710528F460E384E19AE00E94981CC0
:105250004091150850911608609117087091180830
:1052600084E19AE00E94DD1060E08AE00E94A310D1
:1052700060E284E19AE00E94981C8091A30B8A303E
:1052800028F460E384E19AE00E94981C4091A30B0B
:1052900050E060E070E02AE084E19AE00E94D81CCF
:1052A0008091FB07882341F08091660B882311F0E1
:1052B00061E203C06AE301C060E284E19AE00E9417
:1052C000981C8091A40B8A3028F460E384E19AE072
:1052D0000E94981C4091A40B50E060E070E02AE02E
:1052E00084E19AE00E94D81C61E080E00E94A31053
:1052F0008091820B882341F08091FB07882311F075
:105300006BE221C060E21FC08091740B882331F0F2
:105310008091FB078823B1F36DE215C020918008CE
:105320003091810840918208509183086091110862
:105330007091120880911308909114080E94DB4428
:10534000181604F76AE284E19AE00E94981C6AE960
:1053500076E084E19AE00E94FE1D609155088091FC
:10536000FF070E94EB0668ED76E084E19AE00E9478
:10537000FE1D609154088091FE070E94EB066BEDC4
:1053800076E084E19AE00E94FE1D609153088091CE
:10539000FD070E94EB066EED76E084E19AE00E9444
:1053A000FE1D609152088091FC070C94EB061F9241
:1053B0000F920FB60F9211240BB60F922F933F93BB
:1053C0004F935F936F937F938F939F93AF93BF930D
:1053D000EF93FF938091B900887F803609F49CC0D9
:1053E00068F5883209F45BC090F4803109F454C048
:1053F00038F4882309F4F6C0883009F44DC0F5C0AC
:10540000883109F44CC0803209F45DC0EEC08034AC
:1054100009F468C048F4803309F455C0883309F0B2
:10542000E4C080931A09D8C0803509F44FC088358C
:1054300009F45DC0883409F0D8C0D6C0883909F4B1
:10544000C7C0A8F4883709F467C038F4883609F46F
:1054500063C0803709F460C0C8C0883809F4B8C098
:10546000803909F45FC0803809F0BFC05BC0803B61
:1054700009F486C038F4803A09F466C0883A09F421
:105480007FC0B3C0803C09F4A7C0883C09F4A4C025
:10549000883B09F48AC0A9C08091170910C0909177
:1054A000190980911809981770F5E091190981E0A0
:1054B0008E0F80931909F0E0EA50F74F80818093B6
:1054C000BB0085EC86C080931A098EC0E091190953
:1054D00081E08E0F809319098091BB00F0E0EA50C3
:1054E000F74F808390911909809118096EC0E0915F
:1054F000190981E08E0F809319098091BB00F0E0BB
:10550000EA50F74F808380911B0981116DC081E0C3
:105510008093160984EA61C083E080931C0910928D
:105520007F0CCFCF80917F0C803208F051C0E0918A
:105530007F0C81E08E0F80937F0C8091BB00F0E0A8
:10554000E15AF34F8083BDCF85EC8093BC0010926D
:105550001C0980917F0C803230F4E0917F0CF0E0E8
:10556000E15AF34F108260917F0C70E0E0915D0C86
:10557000F0915E0C8FE59CE0199510927F0C35C080
:1055800084E080931C0910925C0C10925B0CE091FB
:10559000590CF0915A0C199580915B0C811105C042
:1055A00081E080935B0C1092390CE0915C0C81E0FF
:1055B0008E0F80935C0CF0E0E75CF34F808180936A
:1055C000BB0090915C0C80915B0C981708F479CF2C
:1055D00085E88093BC0009C085EC8093BC001092E4
:1055E0001C0903C010921A0986DDFF91EF91BF914B
:1055F000AF919F918F917F916F915F914F913F916B
:105600002F910F900BBE0F900FBE0F901F9018950B
:1056100040915B0C262F30E0240F311D21323105E3
:10562000DCF420911C092430C9F4FC0180E090E0F6
:10563000861758F430915B0C2191DC01A75CB34FC5
:10564000A30FB11D2C930196F3CF80915B0C680FD3
:1056500060935B0C80E0089581E0089582E00895F6
:1056600044E041CC42E03FCC44E016CC42E014CCD4
:105670006DE87BE084E19AE00C949F1C882311F094
:105680006BE205C0662311F06DE201C060E284E1C7
:105690009AE00C94981C3FB7F8948091850C9091F7
:1056A000860CA091870CB091880C26B5A89B05C0EC
:1056B0002F3F19F00196A11DB11D3FBFBA2FA92F91
:1056C000982F8827820F911DA11DB11DBC01CD010E
:1056D00042E0660F771F881F991F4A95D1F70895FA
:1056E0008F929F92AF92BF92CF92DF92EF92FF92F2
:1056F0006B017C01D0DF4B015C01C114D104E104DA
:10570000F104E9F0C8DFDC01CB0188199909AA0985
:10571000BB09883E9340A105B10578F321E0C21A88
:10572000D108E108F10888EE880E83E0981EA11CDC
:10573000B11CC114D104E104F10421F7DECFFF90C4
:10574000EF90DF90CF90BF90AF909F908F90089593
:105750002FB7F8946091810C7091820C8091830C2A
:105760009091840C2FBF08951F920F920FB60F9245
:1057700011242F933F938F939F93AF93BF93809167
:10578000810C9091820CA091830CB091840C30918B
:10579000800C23E0230F2D3720F40196A11DB11DAD
:1057A00005C026E8230F0296A11DB11D2093800C91
:1057B0008093810C9093820CA093830CB093840C03
:1057C0008091850C9091860CA091870CB091880CEB
:1057D0000196A11DB11D8093850C9093860CA0931A
:1057E000870CB093880CBF91AF919F918F913F919F
:1057F0002F910F900FBE0F901F901895CF92DF92B0
:10580000EF92FF920F931F93E82FF92F05C00150DD
:1058100011092109310961F1908196239417B9F397
:1058200005C0015011092109310911F19081962318
:105830009413F7CFC12CD12CE12CF12C0AC08FEF9F
:10584000C81AD80AE80AF80A0C151D052E053F05E6
:1058500079F080818623841791F36C2D7D2D8E2D18
:105860009F2D1F910F91FF90EF90DF90CF900895A3
:1058700060E070E080E090E01F910F91FF90EF906A
:10588000DF90CF900895CF93DF93CDB7DEB7E49745
:105890000FB6F894DEBF0FBECDBF789484B582609A
:1058A00084BD84B5816084BD85B5826085BD85B5C4
:1058B000816085BD80916E00816080936E00109242
:1058C00081008091810082608093810080918100BD
:1058D000816080938100809180008160809380004E
:1058E0008091B10084608093B1008091B0008160AC
:1058F0008093B000809191008260809391008091AC
:1059000091008160809391008091900081608093EC
:1059100090008091A10082608093A1008091A100FD
:1059200081608093A1008091A00081608093A0009D
:105930008091210182608093210180912101816009
:1059400080932101809120018160809320018091CA
:105950007A00846080937A0080917A0082608093DC
:105960007A0080917A00816080937A0080917A0039
:10597000806880937A001092C100E091EA0AF09169
:10598000EB0A138615861486DF011B9633961E924A
:10599000AE17BF07E1F71092E90A11E0BE016D5E94
:1059A0007F4F8091EA0A9091EB0AEADA882309F4A2
:1059B00050C067E0CE014396D6DA9A8D8913EECFB8
:1059C0008091E50A811127C08091EA0A9091EB0A43
:1059D0000E94F321BE016D5E7F4F8091EA0A909193
:1059E000EB0A5EDB40E064EB8091EA0A9091EB0AFF
:1059F0000E94B2218091EA0A9091EB0A0E94442110
:105A0000082F8091EA0A9091EB0A0E94F32100236B
:105A100011F40C94B840BE016F5F7F4FCE014396E6
:105A20000E9482110091E60ACE0143960E94DB118A
:105A3000801718F48091E60A04C0CE0143960E94B4
:105A4000DB118093E60A8091E90A8F5F8093E90A6F
:105A5000A5CF62E082E00E94A71761E083E00E9488
:105A6000A71760E088E00E94A71761E088E00E9425
:105A7000781761E08DE00E94A717E0912D09F09161
:105A80002E0982E08083E0912909F0912A09108291
:105A9000E0912B09F0912C098FEC8083109235094D
:105AA000E0913109F091320986E08083E0912F097D
:105AB000F0913009808180618083E0912F09F0911D
:105AC0003009808188608083E0912F09F09130094E
:105AD000808180688083E0912F09F0913009808176
